{
	"contractName": "Token",
	"abi": [
		{
			"inputs": [
				{
					"internalType": "string",
					"name": "name",
					"type": "string"
				},
				{
					"internalType": "string",
					"name": "symbol",
					"type": "string"
				}
			],
			"stateMutability": "nonpayable",
			"type": "constructor"
		},
		{
			"anonymous": false,
			"inputs": [
				{
					"indexed": true,
					"internalType": "address",
					"name": "owner",
					"type": "address"
				},
				{
					"indexed": true,
					"internalType": "address",
					"name": "approved",
					"type": "address"
				},
				{
					"indexed": true,
					"internalType": "uint256",
					"name": "tokenId",
					"type": "uint256"
				}
			],
			"name": "Approval",
			"type": "event"
		},
		{
			"anonymous": false,
			"inputs": [
				{
					"indexed": true,
					"internalType": "address",
					"name": "owner",
					"type": "address"
				},
				{
					"indexed": true,
					"internalType": "address",
					"name": "operator",
					"type": "address"
				},
				{
					"indexed": false,
					"internalType": "bool",
					"name": "approved",
					"type": "bool"
				}
			],
			"name": "ApprovalForAll",
			"type": "event"
		},
		{
			"anonymous": false,
			"inputs": [
				{
					"indexed": true,
					"internalType": "address",
					"name": "previousOwner",
					"type": "address"
				},
				{
					"indexed": true,
					"internalType": "address",
					"name": "newOwner",
					"type": "address"
				}
			],
			"name": "OwnershipTransferred",
			"type": "event"
		},
		{
			"anonymous": false,
			"inputs": [
				{
					"indexed": true,
					"internalType": "address",
					"name": "from",
					"type": "address"
				},
				{
					"indexed": true,
					"internalType": "address",
					"name": "to",
					"type": "address"
				},
				{
					"indexed": true,
					"internalType": "uint256",
					"name": "tokenId",
					"type": "uint256"
				}
			],
			"name": "Transfer",
			"type": "event"
		},
		{
			"inputs": [
				{
					"internalType": "address",
					"name": "to",
					"type": "address"
				},
				{
					"internalType": "uint256",
					"name": "tokenId",
					"type": "uint256"
				}
			],
			"name": "approve",
			"outputs": [],
			"stateMutability": "nonpayable",
			"type": "function"
		},
		{
			"inputs": [
				{
					"internalType": "address",
					"name": "owner",
					"type": "address"
				}
			],
			"name": "balanceOf",
			"outputs": [
				{
					"internalType": "uint256",
					"name": "",
					"type": "uint256"
				}
			],
			"stateMutability": "view",
			"type": "function",
			"constant": true
		},
		{
			"inputs": [
				{
					"internalType": "uint256",
					"name": "tokenId",
					"type": "uint256"
				}
			],
			"name": "getApproved",
			"outputs": [
				{
					"internalType": "address",
					"name": "",
					"type": "address"
				}
			],
			"stateMutability": "view",
			"type": "function",
			"constant": true
		},
		{
			"inputs": [
				{
					"internalType": "address",
					"name": "owner",
					"type": "address"
				},
				{
					"internalType": "address",
					"name": "operator",
					"type": "address"
				}
			],
			"name": "isApprovedForAll",
			"outputs": [
				{
					"internalType": "bool",
					"name": "",
					"type": "bool"
				}
			],
			"stateMutability": "view",
			"type": "function",
			"constant": true
		},
		{
			"inputs": [],
			"name": "name",
			"outputs": [
				{
					"internalType": "string",
					"name": "",
					"type": "string"
				}
			],
			"stateMutability": "view",
			"type": "function",
			"constant": true
		},
		{
			"inputs": [],
			"name": "owner",
			"outputs": [
				{
					"internalType": "address",
					"name": "",
					"type": "address"
				}
			],
			"stateMutability": "view",
			"type": "function",
			"constant": true
		},
		{
			"inputs": [
				{
					"internalType": "uint256",
					"name": "tokenId",
					"type": "uint256"
				}
			],
			"name": "ownerOf",
			"outputs": [
				{
					"internalType": "address",
					"name": "",
					"type": "address"
				}
			],
			"stateMutability": "view",
			"type": "function",
			"constant": true
		},
		{
			"inputs": [],
			"name": "renounceOwnership",
			"outputs": [],
			"stateMutability": "nonpayable",
			"type": "function"
		},
		{
			"inputs": [
				{
					"internalType": "address",
					"name": "from",
					"type": "address"
				},
				{
					"internalType": "address",
					"name": "to",
					"type": "address"
				},
				{
					"internalType": "uint256",
					"name": "tokenId",
					"type": "uint256"
				}
			],
			"name": "safeTransferFrom",
			"outputs": [],
			"stateMutability": "nonpayable",
			"type": "function"
		},
		{
			"inputs": [
				{
					"internalType": "address",
					"name": "from",
					"type": "address"
				},
				{
					"internalType": "address",
					"name": "to",
					"type": "address"
				},
				{
					"internalType": "uint256",
					"name": "tokenId",
					"type": "uint256"
				},
				{
					"internalType": "bytes",
					"name": "_data",
					"type": "bytes"
				}
			],
			"name": "safeTransferFrom",
			"outputs": [],
			"stateMutability": "nonpayable",
			"type": "function"
		},
		{
			"inputs": [
				{
					"internalType": "address",
					"name": "operator",
					"type": "address"
				},
				{
					"internalType": "bool",
					"name": "approved",
					"type": "bool"
				}
			],
			"name": "setApprovalForAll",
			"outputs": [],
			"stateMutability": "nonpayable",
			"type": "function"
		},
		{
			"inputs": [
				{
					"internalType": "bytes4",
					"name": "interfaceId",
					"type": "bytes4"
				}
			],
			"name": "supportsInterface",
			"outputs": [
				{
					"internalType": "bool",
					"name": "",
					"type": "bool"
				}
			],
			"stateMutability": "view",
			"type": "function",
			"constant": true
		},
		{
			"inputs": [],
			"name": "symbol",
			"outputs": [
				{
					"internalType": "string",
					"name": "",
					"type": "string"
				}
			],
			"stateMutability": "view",
			"type": "function",
			"constant": true
		},
		{
			"inputs": [
				{
					"internalType": "uint256",
					"name": "tokenId",
					"type": "uint256"
				}
			],
			"name": "tokenURI",
			"outputs": [
				{
					"internalType": "string",
					"name": "",
					"type": "string"
				}
			],
			"stateMutability": "view",
			"type": "function",
			"constant": true
		},
		{
			"inputs": [
				{
					"internalType": "address",
					"name": "from",
					"type": "address"
				},
				{
					"internalType": "address",
					"name": "to",
					"type": "address"
				},
				{
					"internalType": "uint256",
					"name": "tokenId",
					"type": "uint256"
				}
			],
			"name": "transferFrom",
			"outputs": [],
			"stateMutability": "nonpayable",
			"type": "function"
		},
		{
			"inputs": [
				{
					"internalType": "address",
					"name": "newOwner",
					"type": "address"
				}
			],
			"name": "transferOwnership",
			"outputs": [],
			"stateMutability": "nonpayable",
			"type": "function"
		},
		{
			"inputs": [
				{
					"internalType": "uint256",
					"name": "attribute1",
					"type": "uint256"
				},
				{
					"internalType": "uint256",
					"name": "attribute2",
					"type": "uint256"
				},
				{
					"internalType": "uint256",
					"name": "attribute3",
					"type": "uint256"
				},
				{
					"internalType": "uint256",
					"name": "attribute4",
					"type": "uint256"
				}
			],
			"name": "mint",
			"outputs": [],
			"stateMutability": "payable",
			"type": "function",
			"payable": true
		},
		{
			"inputs": [
				{
					"internalType": "uint256",
					"name": "tokenId",
					"type": "uint256"
				}
			],
			"name": "getTokenDetails",
			"outputs": [
				{
					"components": [
						{
							"internalType": "uint256",
							"name": "attribute1",
							"type": "uint256"
						},
						{
							"internalType": "uint256",
							"name": "attribute2",
							"type": "uint256"
						},
						{
							"internalType": "uint256",
							"name": "attribute3",
							"type": "uint256"
						},
						{
							"internalType": "uint256",
							"name": "attribute4",
							"type": "uint256"
						}
					],
					"internalType": "struct Token.AIA",
					"name": "",
					"type": "tuple"
				}
			],
			"stateMutability": "view",
			"type": "function",
			"constant": true
		},
		{
			"inputs": [],
			"name": "getBalance",
			"outputs": [
				{
					"internalType": "uint256",
					"name": "",
					"type": "uint256"
				}
			],
			"stateMutability": "view",
			"type": "function",
			"constant": true
		},
		{
			"inputs": [],
			"name": "withdrawBalance",
			"outputs": [],
			"stateMutability": "payable",
			"type": "function",
			"payable": true
		},
		{
			"inputs": [
				{
					"internalType": "address",
					"name": "user",
					"type": "address"
				}
			],
			"name": "getAllTokensForUser",
			"outputs": [
				{
					"internalType": "uint256[]",
					"name": "",
					"type": "uint256[]"
				}
			],
			"stateMutability": "view",
			"type": "function",
			"constant": true
		},
		{
			"inputs": [
				{
					"internalType": "uint256",
					"name": "_tokenId",
					"type": "uint256"
				},
				{
					"internalType": "uint256",
					"name": "_price",
					"type": "uint256"
				},
				{
					"internalType": "uint256",
					"name": "_duration",
					"type": "uint256"
				}
			],
			"name": "createItemToSell",
			"outputs": [],
			"stateMutability": "nonpayable",
			"type": "function"
		},
		{
			"inputs": [
				{
					"internalType": "uint256",
					"name": "_tokenId",
					"type": "uint256"
				}
			],
			"name": "cancelItemToSell",
			"outputs": [],
			"stateMutability": "nonpayable",
			"type": "function"
		},
		{
			"inputs": [
				{
					"internalType": "uint256",
					"name": "_tokenId",
					"type": "uint256"
				}
			],
			"name": "purchaseItem",
			"outputs": [],
			"stateMutability": "payable",
			"type": "function",
			"payable": true
		},
		{
			"inputs": [
				{
					"internalType": "address",
					"name": "user",
					"type": "address"
				}
			],
			"name": "getListedItemsForUser",
			"outputs": [
				{
					"internalType": "uint256[]",
					"name": "",
					"type": "uint256[]"
				}
			],
			"stateMutability": "view",
			"type": "function",
			"constant": true
		},
		{
			"inputs": [
				{
					"internalType": "address",
					"name": "",
					"type": "address"
				},
				{
					"internalType": "address",
					"name": "",
					"type": "address"
				},
				{
					"internalType": "uint256",
					"name": "",
					"type": "uint256"
				},
				{
					"internalType": "bytes",
					"name": "",
					"type": "bytes"
				}
			],
			"name": "onERC721Received",
			"outputs": [
				{
					"internalType": "bytes4",
					"name": "",
					"type": "bytes4"
				}
			],
			"stateMutability": "nonpayable",
			"type": "function"
		}
	],
	"bytecode": "0x608060405260006008553480156200001657600080fd5b506040516200445a3803806200445a83398181016040528101906200003c9190620003bd565b818181600090805190602001906200005692919062000170565b5080600190805190602001906200006f92919062000170565b5050506200009262000086620000a260201b60201c565b620000aa60201b60201c565b60016007819055505050620004a6565b600033905090565b6000600660009054906101000a900473ffffffffffffffffffffffffffffffffffffffff16905081600660006101000a81548173ffffffffffffffffffffffffffffffffffffffff021916908373ffffffffffffffffffffffffffffffffffffffff1602179055508173ffffffffffffffffffffffffffffffffffffffff168173ffffffffffffffffffffffffffffffffffffffff167f8be0079c531659141344cd1fd0a4f28419497f9722a3daafe3b4186f6b6457e060405160405180910390a35050565b8280546200017e9062000471565b90600052602060002090601f016020900481019282620001a25760008555620001ee565b82601f10620001bd57805160ff1916838001178555620001ee565b82800160010185558215620001ee579182015b82811115620001ed578251825591602001919060010190620001d0565b5b509050620001fd919062000201565b5090565b5b808211156200021c57600081600090555060010162000202565b5090565b6000604051905090565b600080fd5b600080fd5b600080fd5b600080fd5b6000601f19601f8301169050919050565b7f4e487b7100000000000000000000000000000000000000000000000000000000600052604160045260246000fd5b62000289826200023e565b810181811067ffffffffffffffff82111715620002ab57620002aa6200024f565b5b80604052505050565b6000620002c062000220565b9050620002ce82826200027e565b919050565b600067ffffffffffffffff821115620002f157620002f06200024f565b5b620002fc826200023e565b9050602081019050919050565b60005b83811015620003295780820151818401526020810190506200030c565b8381111562000339576000848401525b50505050565b6000620003566200035084620002d3565b620002b4565b90508281526020810184848401111562000375576200037462000239565b5b6200038284828562000309565b509392505050565b600082601f830112620003a257620003a162000234565b5b8151620003b48482602086016200033f565b91505092915050565b60008060408385031215620003d757620003d66200022a565b5b600083015167ffffffffffffffff811115620003f857620003f76200022f565b5b62000406858286016200038a565b925050602083015167ffffffffffffffff8111156200042a57620004296200022f565b5b62000438858286016200038a565b9150509250929050565b7f4e487b7100000000000000000000000000000000000000000000000000000000600052602260045260246000fd5b600060028204905060018216806200048a57607f821691505b602082108103620004a0576200049f62000442565b5b50919050565b613fa480620004b66000396000f3fe6080604052600436106101815760003560e01c8063715018a6116100d1578063c1e037281161008a578063d38ea5bf11610064578063d38ea5bf1461058a578063e985e9c5146105a6578063f2fde38b146105e3578063f701f0721461060c57610181565b8063c1e03728146104e7578063c2af83ba14610524578063c87b56dd1461054d57610181565b8063715018a6146103eb57806382de8fe9146104025780638da5cb5b1461043f57806395d89b411461046a578063a22cb46514610495578063b88d4fde146104be57610181565b806323b872dd1161013e5780635fd8c710116101185780635fd8c7101461034b5780636352211e146103555780636582ccd31461039257806370a08231146103ae57610181565b806323b872dd146102bc5780632888df2a146102e557806342842e0e1461032257610181565b806301ffc9a71461018657806306fdde03146101c3578063081812fc146101ee578063095ea7b31461022b57806312065fe014610254578063150b7a021461027f575b600080fd5b34801561019257600080fd5b506101ad60048036038101906101a8919061297a565b610635565b6040516101ba91906129c2565b60405180910390f35b3480156101cf57600080fd5b506101d8610717565b6040516101e59190612a76565b60405180910390f35b3480156101fa57600080fd5b5061021560048036038101906102109190612ace565b6107a9565b6040516102229190612b3c565b60405180910390f35b34801561023757600080fd5b50610252600480360381019061024d9190612b83565b61082e565b005b34801561026057600080fd5b50610269610945565b6040516102769190612bd2565b60405180910390f35b34801561028b57600080fd5b506102a660048036038101906102a19190612d22565b61094d565b6040516102b39190612db4565b60405180910390f35b3480156102c857600080fd5b506102e360048036038101906102de9190612dcf565b610961565b005b3480156102f157600080fd5b5061030c60048036038101906103079190612e22565b6109c1565b6040516103199190612f0d565b60405180910390f35b34801561032e57600080fd5b5061034960048036038101906103449190612dcf565b610c32565b005b610353610c52565b005b34801561036157600080fd5b5061037c60048036038101906103779190612ace565b610d40565b6040516103899190612b3c565b60405180910390f35b6103ac60048036038101906103a79190612f2f565b610df1565b005b3480156103ba57600080fd5b506103d560048036038101906103d09190612e22565b610ec7565b6040516103e29190612bd2565b60405180910390f35b3480156103f757600080fd5b50610400610f7e565b005b34801561040e57600080fd5b5061042960048036038101906104249190612e22565b611006565b6040516104369190612f0d565b60405180910390f35b34801561044b57600080fd5b5061045461115a565b6040516104619190612b3c565b60405180910390f35b34801561047657600080fd5b5061047f611184565b60405161048c9190612a76565b60405180910390f35b3480156104a157600080fd5b506104bc60048036038101906104b79190612fc2565b611216565b005b3480156104ca57600080fd5b506104e560048036038101906104e09190612d22565b61122c565b005b3480156104f357600080fd5b5061050e60048036038101906105099190612ace565b61128e565b60405161051b9190613057565b60405180910390f35b34801561053057600080fd5b5061054b60048036038101906105469190613072565b6112e3565b005b34801561055957600080fd5b50610574600480360381019061056f9190612ace565b6114c6565b6040516105819190612a76565b60405180910390f35b6105a4600480360381019061059f9190612ace565b61156d565b005b3480156105b257600080fd5b506105cd60048036038101906105c891906130c5565b61180f565b6040516105da91906129c2565b60405180910390f35b3480156105ef57600080fd5b5061060a60048036038101906106059190612e22565b6118a3565b005b34801561061857600080fd5b50610633600480360381019061062e9190612ace565b61199a565b005b60007f80ac58cd000000000000000000000000000000000000000000000000000000007bffffffffffffffffffffffffffffffffffffffffffffffffffffffff1916827bffffffffffffffffffffffffffffffffffffffffffffffffffffffff1916148061070057507f5b5e139f000000000000000000000000000000000000000000000000000000007bffffffffffffffffffffffffffffffffffffffffffffffffffffffff1916827bffffffffffffffffffffffffffffffffffffffffffffffffffffffff1916145b80610710575061070f82611c00565b5b9050919050565b60606000805461072690613134565b80601f016020809104026020016040519081016040528092919081815260200182805461075290613134565b801561079f5780601f106107745761010080835404028352916020019161079f565b820191906000526020600020905b81548152906001019060200180831161078257829003601f168201915b5050505050905090565b60006107b482611c6a565b6107f3576040517f08c379a00000000000000000000000000000000000000000000000000000000081526004016107ea906131d7565b60405180910390fd5b6004600083815260200190815260200160002060009054906101000a900473ffffffffffffffffffffffffffffffffffffffff169050919050565b600061083982610d40565b90508073ffffffffffffffffffffffffffffffffffffffff168373ffffffffffffffffffffffffffffffffffffffff16036108a9576040517f08c379a00000000000000000000000000000000000000000000000000000000081526004016108a090613269565b60405180910390fd5b8073ffffffffffffffffffffffffffffffffffffffff166108c8611cd6565b73ffffffffffffffffffffffffffffffffffffffff1614806108f757506108f6816108f1611cd6565b61180f565b5b610936576040517f08c379a000000000000000000000000000000000000000000000000000000000815260040161092d906132fb565b60405180910390fd5b6109408383611cde565b505050565b600047905090565b600063150b7a0260e01b9050949350505050565b61097261096c611cd6565b82611d97565b6109b1576040517f08c379a00000000000000000000000000000000000000000000000000000000081526004016109a89061338d565b60405180910390fd5b6109bc838383611e75565b505050565b60606000600a60008473ffffffffffffffffffffffffffffffffffffffff1673ffffffffffffffffffffffffffffffffffffffff1681526020019081526020016000205403610a5b57600067ffffffffffffffff811115610a2557610a24612bf7565b5b604051908082528060200260200182016040528015610a535781602001602082028036833780820191505090505b509050610c2d565b6000600a60008473ffffffffffffffffffffffffffffffffffffffff1673ffffffffffffffffffffffffffffffffffffffff1681526020019081526020016000205467ffffffffffffffff811115610ab657610ab5612bf7565b5b604051908082528060200260200182016040528015610ae45781602001602082028036833780820191505090505b509050600060085490506000805b82811015610c25576000600b60008381526020019081526020016000206040518060a00160405290816000820160009054906101000a900473ffffffffffffffffffffffffffffffffffffffff1673ffffffffffffffffffffffffffffffffffffffff1673ffffffffffffffffffffffffffffffffffffffff1681526020016001820154815260200160028201548152602001600382015481526020016004820160009054906101000a900460ff16151515158152505090508673ffffffffffffffffffffffffffffffffffffffff16816000015173ffffffffffffffffffffffffffffffffffffffff1603610c115781858481518110610bf657610bf56133ad565b5b6020026020010181815250508280610c0d9061340b565b9350505b508080610c1d9061340b565b915050610af2565b839450505050505b919050565b610c4d8383836040518060200160405280600081525061122c565b505050565b610c5a61115a565b73ffffffffffffffffffffffffffffffffffffffff163373ffffffffffffffffffffffffffffffffffffffff1614610cc7576040517f08c379a0000000000000000000000000000000000000000000000000000000008152600401610cbe90613479565b60405180910390fd5b600080610cd261115a565b73ffffffffffffffffffffffffffffffffffffffff1647604051610cf5906134c7565b60006040518083038185875af1925050503d8060008114610d32576040519150601f19603f3d011682016040523d82523d6000602084013e610d37565b606091505b50915091505050565b6000806002600084815260200190815260200160002060009054906101000a900473ffffffffffffffffffffffffffffffffffffffff169050600073ffffffffffffffffffffffffffffffffffffffff168173ffffffffffffffffffffffffffffffffffffffff1603610de8576040517f08c379a0000000000000000000000000000000000000000000000000000000008152600401610ddf9061354e565b60405180910390fd5b80915050919050565b670de0b6b3a7640000341015610e3c576040517f08c379a0000000000000000000000000000000000000000000000000000000008152600401610e33906135e0565b60405180910390fd5b60405180608001604052808581526020018481526020018381526020018281525060096000600854815260200190815260200160002060008201518160000155602082015181600101556040820151816002015560608201518160030155905050610ea9336008546120db565b60086000815480929190610ebc9061340b565b919050555050505050565b60008073ffffffffffffffffffffffffffffffffffffffff168273ffffffffffffffffffffffffffffffffffffffff1603610f37576040517f08c379a0000000000000000000000000000000000000000000000000000000008152600401610f2e90613672565b60405180910390fd5b600360008373ffffffffffffffffffffffffffffffffffffffff1673ffffffffffffffffffffffffffffffffffffffff168152602001908152602001600020549050919050565b610f86611cd6565b73ffffffffffffffffffffffffffffffffffffffff16610fa461115a565b73ffffffffffffffffffffffffffffffffffffffff1614610ffa576040517f08c379a0000000000000000000000000000000000000000000000000000000008152600401610ff1906136de565b60405180910390fd5b61100460006120f9565b565b6060600061101383610ec7565b90506000810361106f57600067ffffffffffffffff81111561103857611037612bf7565b5b6040519080825280602002602001820160405280156110665781602001602082028036833780820191505090505b50915050611155565b60008167ffffffffffffffff81111561108b5761108a612bf7565b5b6040519080825280602002602001820160405280156110b95781602001602082028036833780820191505090505b509050600060085490506000805b8281101561114c578673ffffffffffffffffffffffffffffffffffffffff166110ef82610d40565b73ffffffffffffffffffffffffffffffffffffffff1603611139578084838151811061111e5761111d6133ad565b5b60200260200101818152505081806111359061340b565b9250505b80806111449061340b565b9150506110c7565b83955050505050505b919050565b6000600660009054906101000a900473ffffffffffffffffffffffffffffffffffffffff16905090565b60606001805461119390613134565b80601f01602080910402602001604051908101604052809291908181526020018280546111bf90613134565b801561120c5780601f106111e15761010080835404028352916020019161120c565b820191906000526020600020905b8154815290600101906020018083116111ef57829003601f168201915b5050505050905090565b611228611221611cd6565b83836121bf565b5050565b61123d611237611cd6565b83611d97565b61127c576040517f08c379a00000000000000000000000000000000000000000000000000000000081526004016112739061338d565b60405180910390fd5b6112888484848461232b565b50505050565b6112966128e6565b600960008381526020019081526020016000206040518060800160405290816000820154815260200160018201548152602001600282015481526020016003820154815250509050919050565b600260075403611328576040517f08c379a000000000000000000000000000000000000000000000000000000000815260040161131f9061374a565b60405180910390fd5b60026007819055503373ffffffffffffffffffffffffffffffffffffffff1661135084610d40565b73ffffffffffffffffffffffffffffffffffffffff161461137057600080fd5b603c81101561137e57600080fd5b6040518060a001604052803373ffffffffffffffffffffffffffffffffffffffff16815260200183815260200182815260200142815260200160011515815250600b600085815260200190815260200160002060008201518160000160006101000a81548173ffffffffffffffffffffffffffffffffffffffff021916908373ffffffffffffffffffffffffffffffffffffffff16021790555060208201518160010155604082015181600201556060820151816003015560808201518160040160006101000a81548160ff021916908315150217905550905050611464333085610c32565b600a60003373ffffffffffffffffffffffffffffffffffffffff1673ffffffffffffffffffffffffffffffffffffffff16815260200190815260200160002060008154809291906114b49061340b565b91905055506001600781905550505050565b60606114d182611c6a565b611510576040517f08c379a0000000000000000000000000000000000000000000000000000000008152600401611507906137dc565b60405180910390fd5b600061151a612387565b9050600081511161153a5760405180602001604052806000815250611565565b806115448461239e565b604051602001611555929190613838565b6040516020818303038152906040525b915050919050565b6002600754036115b2576040517f08c379a00000000000000000000000000000000000000000000000000000000081526004016115a99061374a565b60405180910390fd5b60026007819055506000600b6000838152602001908152602001600020905060008160000160009054906101000a900473ffffffffffffffffffffffffffffffffffffffff169050600082600301541161160b57600080fd5b8160040160009054906101000a900460ff1661162657600080fd5b3482600101546005846001015461163d919061388b565b61164791906138bc565b1461165157600080fd5b600082600101549050600b6000858152602001908152602001600020600080820160006101000a81549073ffffffffffffffffffffffffffffffffffffffff02191690556001820160009055600282016000905560038201600090556004820160006101000a81549060ff02191690555050600081111561173d576000808373ffffffffffffffffffffffffffffffffffffffff16836040516116f3906134c7565b60006040518083038185875af1925050503d8060008114611730576040519150601f19603f3d011682016040523d82523d6000602084013e611735565b606091505b509150915050505b3073ffffffffffffffffffffffffffffffffffffffff166342842e0e3033876040518463ffffffff1660e01b815260040161177a93929190613912565b600060405180830381600087803b15801561179457600080fd5b505af11580156117a8573d6000803e3d6000fd5b50505050600a60008373ffffffffffffffffffffffffffffffffffffffff1673ffffffffffffffffffffffffffffffffffffffff16815260200190815260200160002060008154809291906117fc90613949565b9190505550505050600160078190555050565b6000600560008473ffffffffffffffffffffffffffffffffffffffff1673ffffffffffffffffffffffffffffffffffffffff16815260200190815260200160002060008373ffffffffffffffffffffffffffffffffffffffff1673ffffffffffffffffffffffffffffffffffffffff16815260200190815260200160002060009054906101000a900460ff16905092915050565b6118ab611cd6565b73ffffffffffffffffffffffffffffffffffffffff166118c961115a565b73ffffffffffffffffffffffffffffffffffffffff161461191f576040517f08c379a0000000000000000000000000000000000000000000000000000000008152600401611916906136de565b60405180910390fd5b600073ffffffffffffffffffffffffffffffffffffffff168173ffffffffffffffffffffffffffffffffffffffff160361198e576040517f08c379a0000000000000000000000000000000000000000000000000000000008152600401611985906139e4565b60405180910390fd5b611997816120f9565b50565b6002600754036119df576040517f08c379a00000000000000000000000000000000000000000000000000000000081526004016119d69061374a565b60405180910390fd5b60026007819055506000600b600083815260200190815260200160002090506000816003015411611a0f57600080fd5b8060040160009054906101000a900460ff16611a2a57600080fd5b8060000160009054906101000a900473ffffffffffffffffffffffffffffffffffffffff1673ffffffffffffffffffffffffffffffffffffffff163373ffffffffffffffffffffffffffffffffffffffff1614611a8657600080fd5b600a60003373ffffffffffffffffffffffffffffffffffffffff1673ffffffffffffffffffffffffffffffffffffffff1681526020019081526020016000206000815480929190611ad690613949565b919050555060008160040160006101000a81548160ff0219169083151502179055503073ffffffffffffffffffffffffffffffffffffffff166342842e0e308360000160009054906101000a900473ffffffffffffffffffffffffffffffffffffffff16856040518463ffffffff1660e01b8152600401611b5993929190613a63565b600060405180830381600087803b158015611b7357600080fd5b505af1158015611b87573d6000803e3d6000fd5b50505050600b6000838152602001908152602001600020600080820160006101000a81549073ffffffffffffffffffffffffffffffffffffffff02191690556001820160009055600282016000905560038201600090556004820160006101000a81549060ff0219169055505050600160078190555050565b60007f01ffc9a7000000000000000000000000000000000000000000000000000000007bffffffffffffffffffffffffffffffffffffffffffffffffffffffff1916827bffffffffffffffffffffffffffffffffffffffffffffffffffffffff1916149050919050565b60008073ffffffffffffffffffffffffffffffffffffffff166002600084815260200190815260200160002060009054906101000a900473ffffffffffffffffffffffffffffffffffffffff1673ffffffffffffffffffffffffffffffffffffffff1614159050919050565b600033905090565b816004600083815260200190815260200160002060006101000a81548173ffffffffffffffffffffffffffffffffffffffff021916908373ffffffffffffffffffffffffffffffffffffffff160217905550808273ffffffffffffffffffffffffffffffffffffffff16611d5183610d40565b73ffffffffffffffffffffffffffffffffffffffff167f8c5be1e5ebec7d5bd14f71427d1e84f3dd0314c0f7b2291e5b200ac8c7c3b92560405160405180910390a45050565b6000611da282611c6a565b611de1576040517f08c379a0000000000000000000000000000000000000000000000000000000008152600401611dd890613b0c565b60405180910390fd5b6000611dec83610d40565b90508073ffffffffffffffffffffffffffffffffffffffff168473ffffffffffffffffffffffffffffffffffffffff161480611e5b57508373ffffffffffffffffffffffffffffffffffffffff16611e43846107a9565b73ffffffffffffffffffffffffffffffffffffffff16145b80611e6c5750611e6b818561180f565b5b91505092915050565b8273ffffffffffffffffffffffffffffffffffffffff16611e9582610d40565b73ffffffffffffffffffffffffffffffffffffffff1614611eeb576040517f08c379a0000000000000000000000000000000000000000000000000000000008152600401611ee290613b9e565b60405180910390fd5b600073ffffffffffffffffffffffffffffffffffffffff168273ffffffffffffffffffffffffffffffffffffffff1603611f5a576040517f08c379a0000000000000000000000000000000000000000000000000000000008152600401611f5190613c30565b60405180910390fd5b611f658383836124fe565b611f70600082611cde565b6001600360008573ffffffffffffffffffffffffffffffffffffffff1673ffffffffffffffffffffffffffffffffffffffff1681526020019081526020016000206000828254611fc09190613c50565b925050819055506001600360008473ffffffffffffffffffffffffffffffffffffffff1673ffffffffffffffffffffffffffffffffffffffff168152602001908152602001600020600082825461201791906138bc565b92505081905550816002600083815260200190815260200160002060006101000a81548173ffffffffffffffffffffffffffffffffffffffff021916908373ffffffffffffffffffffffffffffffffffffffff160217905550808273ffffffffffffffffffffffffffffffffffffffff168473ffffffffffffffffffffffffffffffffffffffff167fddf252ad1be2c89b69c2b068fc378daa952ba7f163c4a11628f55a4df523b3ef60405160405180910390a46120d6838383612503565b505050565b6120f5828260405180602001604052806000815250612508565b5050565b6000600660009054906101000a900473ffffffffffffffffffffffffffffffffffffffff16905081600660006101000a81548173ffffffffffffffffffffffffffffffffffffffff021916908373ffffffffffffffffffffffffffffffffffffffff1602179055508173ffffffffffffffffffffffffffffffffffffffff168173ffffffffffffffffffffffffffffffffffffffff167f8be0079c531659141344cd1fd0a4f28419497f9722a3daafe3b4186f6b6457e060405160405180910390a35050565b8173ffffffffffffffffffffffffffffffffffffffff168373ffffffffffffffffffffffffffffffffffffffff160361222d576040517f08c379a000000000000000000000000000000000000000000000000000000000815260040161222490613cd0565b60405180910390fd5b80600560008573ffffffffffffffffffffffffffffffffffffffff1673ffffffffffffffffffffffffffffffffffffffff16815260200190815260200160002060008473ffffffffffffffffffffffffffffffffffffffff1673ffffffffffffffffffffffffffffffffffffffff16815260200190815260200160002060006101000a81548160ff0219169083151502179055508173ffffffffffffffffffffffffffffffffffffffff168373ffffffffffffffffffffffffffffffffffffffff167f17307eab39ab6107e8899845ad3d59bd9653f200f220920489ca2b5937696c318360405161231e91906129c2565b60405180910390a3505050565b612336848484611e75565b61234284848484612563565b612381576040517f08c379a000000000000000000000000000000000000000000000000000000000815260040161237890613d62565b60405180910390fd5b50505050565b606060405180602001604052806000815250905090565b6060600082036123e5576040518060400160405280600181526020017f300000000000000000000000000000000000000000000000000000000000000081525090506124f9565b600082905060005b600082146124175780806124009061340b565b915050600a82612410919061388b565b91506123ed565b60008167ffffffffffffffff81111561243357612432612bf7565b5b6040519080825280601f01601f1916602001820160405280156124655781602001600182028036833780820191505090505b5090505b600085146124f25760018261247e9190613c50565b9150600a8561248d9190613d82565b603061249991906138bc565b60f81b8183815181106124af576124ae6133ad565b5b60200101907effffffffffffffffffffffffffffffffffffffffffffffffffffffffffffff1916908160001a905350600a856124eb919061388b565b9450612469565b8093505050505b919050565b505050565b505050565b61251283836126ea565b61251f6000848484612563565b61255e576040517f08c379a000000000000000000000000000000000000000000000000000000000815260040161255590613d62565b60405180910390fd5b505050565b60006125848473ffffffffffffffffffffffffffffffffffffffff166128c3565b156126dd578373ffffffffffffffffffffffffffffffffffffffff1663150b7a026125ad611cd6565b8786866040518563ffffffff1660e01b81526004016125cf9493929190613e08565b6020604051808303816000875af192505050801561260b57506040513d601f19601f820116820180604052508101906126089190613e69565b60015b61268d573d806000811461263b576040519150601f19603f3d011682016040523d82523d6000602084013e612640565b606091505b506000815103612685576040517f08c379a000000000000000000000000000000000000000000000000000000000815260040161267c90613d62565b60405180910390fd5b805181602001fd5b63150b7a0260e01b7bffffffffffffffffffffffffffffffffffffffffffffffffffffffff1916817bffffffffffffffffffffffffffffffffffffffffffffffffffffffff1916149150506126e2565b600190505b949350505050565b600073ffffffffffffffffffffffffffffffffffffffff168273ffffffffffffffffffffffffffffffffffffffff1603612759576040517f08c379a000000000000000000000000000000000000000000000000000000000815260040161275090613ee2565b60405180910390fd5b61276281611c6a565b156127a2576040517f08c379a000000000000000000000000000000000000000000000000000000000815260040161279990613f4e565b60405180910390fd5b6127ae600083836124fe565b6001600360008473ffffffffffffffffffffffffffffffffffffffff1673ffffffffffffffffffffffffffffffffffffffff16815260200190815260200160002060008282546127fe91906138bc565b92505081905550816002600083815260200190815260200160002060006101000a81548173ffffffffffffffffffffffffffffffffffffffff021916908373ffffffffffffffffffffffffffffffffffffffff160217905550808273ffffffffffffffffffffffffffffffffffffffff16600073ffffffffffffffffffffffffffffffffffffffff167fddf252ad1be2c89b69c2b068fc378daa952ba7f163c4a11628f55a4df523b3ef60405160405180910390a46128bf60008383612503565b5050565b6000808273ffffffffffffffffffffffffffffffffffffffff163b119050919050565b6040518060800160405280600081526020016000815260200160008152602001600081525090565b6000604051905090565b600080fd5b600080fd5b60007fffffffff0000000000000000000000000000000000000000000000000000000082169050919050565b61295781612922565b811461296257600080fd5b50565b6000813590506129748161294e565b92915050565b6000602082840312156129905761298f612918565b5b600061299e84828501612965565b91505092915050565b60008115159050919050565b6129bc816129a7565b82525050565b60006020820190506129d760008301846129b3565b92915050565b600081519050919050565b600082825260208201905092915050565b60005b83811015612a175780820151818401526020810190506129fc565b83811115612a26576000848401525b50505050565b6000601f19601f8301169050919050565b6000612a48826129dd565b612a5281856129e8565b9350612a628185602086016129f9565b612a6b81612a2c565b840191505092915050565b60006020820190508181036000830152612a908184612a3d565b905092915050565b6000819050919050565b612aab81612a98565b8114612ab657600080fd5b50565b600081359050612ac881612aa2565b92915050565b600060208284031215612ae457612ae3612918565b5b6000612af284828501612ab9565b91505092915050565b600073ffffffffffffffffffffffffffffffffffffffff82169050919050565b6000612b2682612afb565b9050919050565b612b3681612b1b565b82525050565b6000602082019050612b516000830184612b2d565b92915050565b612b6081612b1b565b8114612b6b57600080fd5b50565b600081359050612b7d81612b57565b92915050565b60008060408385031215612b9a57612b99612918565b5b6000612ba885828601612b6e565b9250506020612bb985828601612ab9565b9150509250929050565b612bcc81612a98565b82525050565b6000602082019050612be76000830184612bc3565b92915050565b600080fd5b600080fd5b7f4e487b7100000000000000000000000000000000000000000000000000000000600052604160045260246000fd5b612c2f82612a2c565b810181811067ffffffffffffffff82111715612c4e57612c4d612bf7565b5b80604052505050565b6000612c6161290e565b9050612c6d8282612c26565b919050565b600067ffffffffffffffff821115612c8d57612c8c612bf7565b5b612c9682612a2c565b9050602081019050919050565b82818337600083830152505050565b6000612cc5612cc084612c72565b612c57565b905082815260208101848484011115612ce157612ce0612bf2565b5b612cec848285612ca3565b509392505050565b600082601f830112612d0957612d08612bed565b5b8135612d19848260208601612cb2565b91505092915050565b60008060008060808587031215612d3c57612d3b612918565b5b6000612d4a87828801612b6e565b9450506020612d5b87828801612b6e565b9350506040612d6c87828801612ab9565b925050606085013567ffffffffffffffff811115612d8d57612d8c61291d565b5b612d9987828801612cf4565b91505092959194509250565b612dae81612922565b82525050565b6000602082019050612dc96000830184612da5565b92915050565b600080600060608486031215612de857612de7612918565b5b6000612df686828701612b6e565b9350506020612e0786828701612b6e565b9250506040612e1886828701612ab9565b9150509250925092565b600060208284031215612e3857612e37612918565b5b6000612e4684828501612b6e565b91505092915050565b600081519050919050565b600082825260208201905092915050565b6000819050602082019050919050565b612e8481612a98565b82525050565b6000612e968383612e7b565b60208301905092915050565b6000602082019050919050565b6000612eba82612e4f565b612ec48185612e5a565b9350612ecf83612e6b565b8060005b83811015612f00578151612ee78882612e8a565b9750612ef283612ea2565b925050600181019050612ed3565b5085935050505092915050565b60006020820190508181036000830152612f278184612eaf565b905092915050565b60008060008060808587031215612f4957612f48612918565b5b6000612f5787828801612ab9565b9450506020612f6887828801612ab9565b9350506040612f7987828801612ab9565b9250506060612f8a87828801612ab9565b91505092959194509250565b612f9f816129a7565b8114612faa57600080fd5b50565b600081359050612fbc81612f96565b92915050565b60008060408385031215612fd957612fd8612918565b5b6000612fe785828601612b6e565b9250506020612ff885828601612fad565b9150509250929050565b6080820160008201516130186000850182612e7b565b50602082015161302b6020850182612e7b565b50604082015161303e6040850182612e7b565b5060608201516130516060850182612e7b565b50505050565b600060808201905061306c6000830184613002565b92915050565b60008060006060848603121561308b5761308a612918565b5b600061309986828701612ab9565b93505060206130aa86828701612ab9565b92505060406130bb86828701612ab9565b9150509250925092565b600080604083850312156130dc576130db612918565b5b60006130ea85828601612b6e565b92505060206130fb85828601612b6e565b9150509250929050565b7f4e487b7100000000000000000000000000000000000000000000000000000000600052602260045260246000fd5b6000600282049050600182168061314c57607f821691505b60208210810361315f5761315e613105565b5b50919050565b7f4552433732313a20617070726f76656420717565727920666f72206e6f6e657860008201527f697374656e7420746f6b656e0000000000000000000000000000000000000000602082015250565b60006131c1602c836129e8565b91506131cc82613165565b604082019050919050565b600060208201905081810360008301526131f0816131b4565b9050919050565b7f4552433732313a20617070726f76616c20746f2063757272656e74206f776e6560008201527f7200000000000000000000000000000000000000000000000000000000000000602082015250565b60006132536021836129e8565b915061325e826131f7565b604082019050919050565b6000602082019050818103600083015261328281613246565b9050919050565b7f4552433732313a20617070726f76652063616c6c6572206973206e6f74206f7760008201527f6e6572206e6f7220617070726f76656420666f7220616c6c0000000000000000602082015250565b60006132e56038836129e8565b91506132f082613289565b604082019050919050565b60006020820190508181036000830152613314816132d8565b9050919050565b7f4552433732313a207472616e736665722063616c6c6572206973206e6f74206f60008201527f776e6572206e6f7220617070726f766564000000000000000000000000000000602082015250565b60006133776031836129e8565b91506133828261331b565b604082019050919050565b600060208201905081810360008301526133a68161336a565b9050919050565b7f4e487b7100000000000000000000000000000000000000000000000000000000600052603260045260246000fd5b7f4e487b7100000000000000000000000000000000000000000000000000000000600052601160045260246000fd5b600061341682612a98565b91507fffffffffffffffffffffffffffffffffffffffffffffffffffffffffffffffff8203613448576134476133dc565b5b600182019050919050565b50565b60006134636000836129e8565b915061346e82613453565b600082019050919050565b6000602082019050818103600083015261349281613456565b9050919050565b600081905092915050565b60006134b1600083613499565b91506134bc82613453565b600082019050919050565b60006134d2826134a4565b9150819050919050565b7f4552433732313a206f776e657220717565727920666f72206e6f6e657869737460008201527f656e7420746f6b656e0000000000000000000000000000000000000000000000602082015250565b60006135386029836129e8565b9150613543826134dc565b604082019050919050565b600060208201905081810360008301526135678161352b565b9050919050565b7f4e6f7420656e6f756768204554482073656e743b20636865636b20707269636560008201527f2100000000000000000000000000000000000000000000000000000000000000602082015250565b60006135ca6021836129e8565b91506135d58261356e565b604082019050919050565b600060208201905081810360008301526135f9816135bd565b9050919050565b7f4552433732313a2062616c616e636520717565727920666f7220746865207a6560008201527f726f206164647265737300000000000000000000000000000000000000000000602082015250565b600061365c602a836129e8565b915061366782613600565b604082019050919050565b6000602082019050818103600083015261368b8161364f565b9050919050565b7f4f776e61626c653a2063616c6c6572206973206e6f7420746865206f776e6572600082015250565b60006136c86020836129e8565b91506136d382613692565b602082019050919050565b600060208201905081810360008301526136f7816136bb565b9050919050565b7f5265656e7472616e637947756172643a207265656e7472616e742063616c6c00600082015250565b6000613734601f836129e8565b915061373f826136fe565b602082019050919050565b6000602082019050818103600083015261376381613727565b9050919050565b7f4552433732314d657461646174613a2055524920717565727920666f72206e6f60008201527f6e6578697374656e7420746f6b656e0000000000000000000000000000000000602082015250565b60006137c6602f836129e8565b91506137d18261376a565b604082019050919050565b600060208201905081810360008301526137f5816137b9565b9050919050565b600081905092915050565b6000613812826129dd565b61381c81856137fc565b935061382c8185602086016129f9565b80840191505092915050565b60006138448285613807565b91506138508284613807565b91508190509392505050565b7f4e487b7100000000000000000000000000000000000000000000000000000000600052601260045260246000fd5b600061389682612a98565b91506138a183612a98565b9250826138b1576138b061385c565b5b828204905092915050565b60006138c782612a98565b91506138d283612a98565b9250827fffffffffffffffffffffffffffffffffffffffffffffffffffffffffffffffff03821115613907576139066133dc565b5b828201905092915050565b60006060820190506139276000830186612b2d565b6139346020830185612b2d565b6139416040830184612bc3565b949350505050565b600061395482612a98565b915060008203613967576139666133dc565b5b600182039050919050565b7f4f776e61626c653a206e6577206f776e657220697320746865207a65726f206160008201527f6464726573730000000000000000000000000000000000000000000000000000602082015250565b60006139ce6026836129e8565b91506139d982613972565b604082019050919050565b600060208201905081810360008301526139fd816139c1565b9050919050565b6000819050919050565b6000613a29613a24613a1f84612afb565b613a04565b612afb565b9050919050565b6000613a3b82613a0e565b9050919050565b6000613a4d82613a30565b9050919050565b613a5d81613a42565b82525050565b6000606082019050613a786000830186612b2d565b613a856020830185613a54565b613a926040830184612bc3565b949350505050565b7f4552433732313a206f70657261746f7220717565727920666f72206e6f6e657860008201527f697374656e7420746f6b656e0000000000000000000000000000000000000000602082015250565b6000613af6602c836129e8565b9150613b0182613a9a565b604082019050919050565b60006020820190508181036000830152613b2581613ae9565b9050919050565b7f4552433732313a207472616e736665722066726f6d20696e636f72726563742060008201527f6f776e6572000000000000000000000000000000000000000000000000000000602082015250565b6000613b886025836129e8565b9150613b9382613b2c565b604082019050919050565b60006020820190508181036000830152613bb781613b7b565b9050919050565b7f4552433732313a207472616e7366657220746f20746865207a65726f2061646460008201527f7265737300000000000000000000000000000000000000000000000000000000602082015250565b6000613c1a6024836129e8565b9150613c2582613bbe565b604082019050919050565b60006020820190508181036000830152613c4981613c0d565b9050919050565b6000613c5b82612a98565b9150613c6683612a98565b925082821015613c7957613c786133dc565b5b828203905092915050565b7f4552433732313a20617070726f766520746f2063616c6c657200000000000000600082015250565b6000613cba6019836129e8565b9150613cc582613c84565b602082019050919050565b60006020820190508181036000830152613ce981613cad565b9050919050565b7f4552433732313a207472616e7366657220746f206e6f6e20455243373231526560008201527f63656976657220696d706c656d656e7465720000000000000000000000000000602082015250565b6000613d4c6032836129e8565b9150613d5782613cf0565b604082019050919050565b60006020820190508181036000830152613d7b81613d3f565b9050919050565b6000613d8d82612a98565b9150613d9883612a98565b925082613da857613da761385c565b5b828206905092915050565b600081519050919050565b600082825260208201905092915050565b6000613dda82613db3565b613de48185613dbe565b9350613df48185602086016129f9565b613dfd81612a2c565b840191505092915050565b6000608082019050613e1d6000830187612b2d565b613e2a6020830186612b2d565b613e376040830185612bc3565b8181036060830152613e498184613dcf565b905095945050505050565b600081519050613e638161294e565b92915050565b600060208284031215613e7f57613e7e612918565b5b6000613e8d84828501613e54565b91505092915050565b7f4552433732313a206d696e7420746f20746865207a65726f2061646472657373600082015250565b6000613ecc6020836129e8565b9150613ed782613e96565b602082019050919050565b60006020820190508181036000830152613efb81613ebf565b9050919050565b7f4552433732313a20746f6b656e20616c7265616479206d696e74656400000000600082015250565b6000613f38601c836129e8565b9150613f4382613f02565b602082019050919050565b60006020820190508181036000830152613f6781613f2b565b905091905056fea264697066735822122098f8f743e969475bd5d556908776a116894a51c487140b65b8c41d3bd9c1354164736f6c634300080d0033",
	"immutableReferences": {},
	"source": "pragma solidity 0.8.13;\r\n\r\nimport \"../node_modules/@openzeppelin/contracts/token/ERC721/ERC721.sol\";\r\nimport \"../node_modules/@openzeppelin/contracts/access/Ownable.sol\";\r\nimport \"../node_modules/@openzeppelin/contracts/security/ReentrancyGuard.sol\";\r\n\r\ncontract Token is ERC721, Ownable, IERC721Receiver, ReentrancyGuard{\r\n\r\n    /////////////////////////////////////////////Token Contract///////////////////////////////////////////////////\r\n\r\n    struct AIA {\r\n        uint256 attribute1; \r\n        uint256 attribute2;\r\n        uint256 attribute3;\r\n        uint256 attribute4;\r\n    }\r\n\r\n    uint256 nextId = 0;\r\n    \r\n    mapping (uint256 => AIA) private _tokenDetails;\r\n\r\n    constructor (string memory name, string memory symbol) ERC721(name, symbol){\r\n\r\n    }\r\n\r\n    function mint(uint256 attribute1, uint256 attribute2, uint256 attribute3, uint256 attribute4) external payable {\r\n        require(msg.value >= 1 ether, \"Not enough ETH sent; check price!\");\r\n        _tokenDetails[nextId] = AIA(attribute1, attribute2, attribute3, attribute4);\r\n        _safeMint(msg.sender, nextId);\r\n        nextId++;\r\n    }\r\n\r\n    function getTokenDetails (uint256 tokenId) public view returns (AIA memory){\r\n        return _tokenDetails[tokenId];\r\n    }\r\n\r\n    function getBalance() public view returns (uint256){\r\n        return address(this).balance;\r\n    }\r\n\r\n    function withdrawBalance() external payable{\r\n        require(msg.sender == owner(), \"\");\r\n        (bool sent, bytes memory data) = payable(address(owner())).call{value:address(this).balance}(\"\");\r\n\r\n    }\r\n\r\n    function getAllTokensForUser(address user) public view returns (uint256[] memory){\r\n        uint256 tokenCount = balanceOf(user);\r\n        if(tokenCount ==0){\r\n            return new uint256[](0);\r\n        }\r\n        else{\r\n            uint256[] memory result = new uint256[](tokenCount);\r\n            uint256 totalAIAs = nextId;\r\n            uint256 resultIndex = 0;\r\n            uint256 i;\r\n            for(i=0; i < totalAIAs; i++)\r\n            {\r\n                if(ownerOf(i) == user)\r\n                {\r\n                    result[resultIndex] = i;\r\n                    resultIndex++;\r\n                }\r\n            }\r\n            return result;\r\n        }\r\n    }\r\n\r\n\r\n\r\n    /////////////////////////////////////////////Marketplace Contract//////////////////////////////////////////////\r\n\r\n    struct Item {\r\n        address payable seller;\r\n        uint256 price;\r\n        uint256 duration;\r\n        uint256 startedAt;\r\n        bool isSelling;\r\n    }\r\n\r\n    mapping (address => uint256) userToListedItems;\r\n    mapping (uint256 => Item) tokenIdToItem;\r\n\r\n    function createItemToSell(uint256 _tokenId, uint256 _price, uint256 _duration) external nonReentrant {\r\n        require(ownerOf(_tokenId) == msg.sender);\r\n        require(_duration >= 1 minutes);\r\n        tokenIdToItem[_tokenId] = Item(\r\n            payable(msg.sender),\r\n            _price,\r\n            _duration,\r\n            block.timestamp,\r\n            true\r\n        );\r\n        safeTransferFrom(msg.sender, address(this), _tokenId);\r\n        userToListedItems[msg.sender] ++;\r\n    }\r\n\r\n    function cancelItemToSell(uint256 _tokenId) external nonReentrant {\r\n        Item storage item = tokenIdToItem[_tokenId];\r\n        require(item.startedAt > 0);\r\n        require(item.isSelling);\r\n        require(msg.sender == item.seller);\r\n        userToListedItems[msg.sender] --;\r\n        item.isSelling = false;\r\n        this.safeTransferFrom(address(this), item.seller, _tokenId);\r\n        delete tokenIdToItem[_tokenId];\r\n    }\r\n\r\n    function purchaseItem(uint256 _tokenId) external payable nonReentrant {\r\n        // Get a reference to the auction struct\r\n        Item storage item = tokenIdToItem[_tokenId];\r\n        address payable seller = item.seller;\r\n        require(item.startedAt > 0);\r\n        require(item.isSelling);\r\n        require(item.price / 5 + item.price == msg.value);\r\n        uint256 price = item.price;\r\n        delete tokenIdToItem[_tokenId];\r\n        // Transfer proceeds to seller (if there are any!)\r\n        if (price > 0) {\r\n            (bool sent, bytes memory data) = payable(seller).call{value:price}(\"\");\r\n        }\r\n        this.safeTransferFrom(address(this), msg.sender, _tokenId);\r\n        userToListedItems[seller]--;\r\n    }\r\n\r\n    function getListedItemsForUser(address user) public view returns (uint256[] memory){\r\n        if(userToListedItems[user] ==0){\r\n            return new uint256[](0);\r\n        }\r\n        else{\r\n            uint256[] memory result = new uint256[](userToListedItems[user]);\r\n            uint256 totalAIAs = nextId;\r\n            uint256 resultIndex = 0;\r\n            uint256 i;\r\n            for(i=0; i < totalAIAs; i++)\r\n            {\r\n                Item memory item = tokenIdToItem[i];\r\n                if(item.seller == user)\r\n                {\r\n                    result[resultIndex] = i;\r\n                    resultIndex++;\r\n                }\r\n            }\r\n            return result;\r\n        }\r\n    }\r\n\r\n\r\n    /////////////////////////////////////////////Helper Functions///////////////////////////////////////////////////\r\n    function onERC721Received(address, address, uint256, bytes memory) public virtual override returns (bytes4) {\r\n        return this.onERC721Received.selector;\r\n    }\r\n}",
	"sourcePath": "C:\\Users\\Niven\\Documents\\AIA\\contracts\\Token.sol",
	"compiler": {
		"name": "solc",
		"version": "0.8.13+commit.abaa5c0e.Emscripten.clang"
	},
	"schemaVersion": "3.4.6",
	"updatedAt": "2022-04-04T23:41:23.423Z",
	"networkType": "ethereum",
	"devdoc": {
		"kind": "dev",
		"methods": {
			"approve(address,uint256)": {
				"details": "See {IERC721-approve}."
			},
			"balanceOf(address)": {
				"details": "See {IERC721-balanceOf}."
			},
			"getApproved(uint256)": {
				"details": "See {IERC721-getApproved}."
			},
			"isApprovedForAll(address,address)": {
				"details": "See {IERC721-isApprovedForAll}."
			},
			"name()": {
				"details": "See {IERC721Metadata-name}."
			},
			"owner()": {
				"details": "Returns the address of the current owner."
			},
			"ownerOf(uint256)": {
				"details": "See {IERC721-ownerOf}."
			},
			"renounceOwnership()": {
				"details": "Leaves the contract without owner. It will not be possible to call `onlyOwner` functions anymore. Can only be called by the current owner. NOTE: Renouncing ownership will leave the contract without an owner, thereby removing any functionality that is only available to the owner."
			},
			"safeTransferFrom(address,address,uint256)": {
				"details": "See {IERC721-safeTransferFrom}."
			},
			"safeTransferFrom(address,address,uint256,bytes)": {
				"details": "See {IERC721-safeTransferFrom}."
			},
			"setApprovalForAll(address,bool)": {
				"details": "See {IERC721-setApprovalForAll}."
			},
			"supportsInterface(bytes4)": {
				"details": "See {IERC165-supportsInterface}."
			},
			"symbol()": {
				"details": "See {IERC721Metadata-symbol}."
			},
			"tokenURI(uint256)": {
				"details": "See {IERC721Metadata-tokenURI}."
			},
			"transferFrom(address,address,uint256)": {
				"details": "See {IERC721-transferFrom}."
			},
			"transferOwnership(address)": {
				"details": "Transfers ownership of the contract to a new account (`newOwner`). Can only be called by the current owner."
			}
		},
		"version": 1
	},
	"userdoc": {
		"kind": "user",
		"methods": {},
		"version": 1
	}
}