{
	"contractName": "Token",
	"abi": [
		{
			"inputs": [
				{
					"internalType": "string",
					"name": "name",
					"type": "string"
				},
				{
					"internalType": "string",
					"name": "symbol",
					"type": "string"
				}
			],
			"stateMutability": "nonpayable",
			"type": "constructor"
		},
		{
			"anonymous": false,
			"inputs": [
				{
					"indexed": true,
					"internalType": "address",
					"name": "owner",
					"type": "address"
				},
				{
					"indexed": true,
					"internalType": "address",
					"name": "approved",
					"type": "address"
				},
				{
					"indexed": true,
					"internalType": "uint256",
					"name": "tokenId",
					"type": "uint256"
				}
			],
			"name": "Approval",
			"type": "event"
		},
		{
			"anonymous": false,
			"inputs": [
				{
					"indexed": true,
					"internalType": "address",
					"name": "owner",
					"type": "address"
				},
				{
					"indexed": true,
					"internalType": "address",
					"name": "operator",
					"type": "address"
				},
				{
					"indexed": false,
					"internalType": "bool",
					"name": "approved",
					"type": "bool"
				}
			],
			"name": "ApprovalForAll",
			"type": "event"
		},
		{
			"anonymous": false,
			"inputs": [
				{
					"indexed": true,
					"internalType": "address",
					"name": "previousOwner",
					"type": "address"
				},
				{
					"indexed": true,
					"internalType": "address",
					"name": "newOwner",
					"type": "address"
				}
			],
			"name": "OwnershipTransferred",
			"type": "event"
		},
		{
			"anonymous": false,
			"inputs": [
				{
					"indexed": true,
					"internalType": "address",
					"name": "from",
					"type": "address"
				},
				{
					"indexed": true,
					"internalType": "address",
					"name": "to",
					"type": "address"
				},
				{
					"indexed": true,
					"internalType": "uint256",
					"name": "tokenId",
					"type": "uint256"
				}
			],
			"name": "Transfer",
			"type": "event"
		},
		{
			"inputs": [
				{
					"internalType": "address",
					"name": "to",
					"type": "address"
				},
				{
					"internalType": "uint256",
					"name": "tokenId",
					"type": "uint256"
				}
			],
			"name": "approve",
			"outputs": [],
			"stateMutability": "nonpayable",
			"type": "function"
		},
		{
			"inputs": [
				{
					"internalType": "address",
					"name": "owner",
					"type": "address"
				}
			],
			"name": "balanceOf",
			"outputs": [
				{
					"internalType": "uint256",
					"name": "",
					"type": "uint256"
				}
			],
			"stateMutability": "view",
			"type": "function",
			"constant": true
		},
		{
			"inputs": [
				{
					"internalType": "uint256",
					"name": "tokenId",
					"type": "uint256"
				}
			],
			"name": "getApproved",
			"outputs": [
				{
					"internalType": "address",
					"name": "",
					"type": "address"
				}
			],
			"stateMutability": "view",
			"type": "function",
			"constant": true
		},
		{
			"inputs": [
				{
					"internalType": "address",
					"name": "owner",
					"type": "address"
				},
				{
					"internalType": "address",
					"name": "operator",
					"type": "address"
				}
			],
			"name": "isApprovedForAll",
			"outputs": [
				{
					"internalType": "bool",
					"name": "",
					"type": "bool"
				}
			],
			"stateMutability": "view",
			"type": "function",
			"constant": true
		},
		{
			"inputs": [],
			"name": "name",
			"outputs": [
				{
					"internalType": "string",
					"name": "",
					"type": "string"
				}
			],
			"stateMutability": "view",
			"type": "function",
			"constant": true
		},
		{
			"inputs": [],
			"name": "nonFungibleContract",
			"outputs": [
				{
					"internalType": "contract ERC721",
					"name": "",
					"type": "address"
				}
			],
			"stateMutability": "view",
			"type": "function",
			"constant": true
		},
		{
			"inputs": [],
			"name": "owner",
			"outputs": [
				{
					"internalType": "address",
					"name": "",
					"type": "address"
				}
			],
			"stateMutability": "view",
			"type": "function",
			"constant": true
		},
		{
			"inputs": [
				{
					"internalType": "uint256",
					"name": "tokenId",
					"type": "uint256"
				}
			],
			"name": "ownerOf",
			"outputs": [
				{
					"internalType": "address",
					"name": "",
					"type": "address"
				}
			],
			"stateMutability": "view",
			"type": "function",
			"constant": true
		},
		{
			"inputs": [],
			"name": "renounceOwnership",
			"outputs": [],
			"stateMutability": "nonpayable",
			"type": "function"
		},
		{
			"inputs": [
				{
					"internalType": "address",
					"name": "from",
					"type": "address"
				},
				{
					"internalType": "address",
					"name": "to",
					"type": "address"
				},
				{
					"internalType": "uint256",
					"name": "tokenId",
					"type": "uint256"
				}
			],
			"name": "safeTransferFrom",
			"outputs": [],
			"stateMutability": "nonpayable",
			"type": "function"
		},
		{
			"inputs": [
				{
					"internalType": "address",
					"name": "from",
					"type": "address"
				},
				{
					"internalType": "address",
					"name": "to",
					"type": "address"
				},
				{
					"internalType": "uint256",
					"name": "tokenId",
					"type": "uint256"
				},
				{
					"internalType": "bytes",
					"name": "_data",
					"type": "bytes"
				}
			],
			"name": "safeTransferFrom",
			"outputs": [],
			"stateMutability": "nonpayable",
			"type": "function"
		},
		{
			"inputs": [
				{
					"internalType": "address",
					"name": "operator",
					"type": "address"
				},
				{
					"internalType": "bool",
					"name": "approved",
					"type": "bool"
				}
			],
			"name": "setApprovalForAll",
			"outputs": [],
			"stateMutability": "nonpayable",
			"type": "function"
		},
		{
			"inputs": [
				{
					"internalType": "bytes4",
					"name": "interfaceId",
					"type": "bytes4"
				}
			],
			"name": "supportsInterface",
			"outputs": [
				{
					"internalType": "bool",
					"name": "",
					"type": "bool"
				}
			],
			"stateMutability": "view",
			"type": "function",
			"constant": true
		},
		{
			"inputs": [],
			"name": "symbol",
			"outputs": [
				{
					"internalType": "string",
					"name": "",
					"type": "string"
				}
			],
			"stateMutability": "view",
			"type": "function",
			"constant": true
		},
		{
			"inputs": [
				{
					"internalType": "uint256",
					"name": "tokenId",
					"type": "uint256"
				}
			],
			"name": "tokenURI",
			"outputs": [
				{
					"internalType": "string",
					"name": "",
					"type": "string"
				}
			],
			"stateMutability": "view",
			"type": "function",
			"constant": true
		},
		{
			"inputs": [
				{
					"internalType": "address",
					"name": "from",
					"type": "address"
				},
				{
					"internalType": "address",
					"name": "to",
					"type": "address"
				},
				{
					"internalType": "uint256",
					"name": "tokenId",
					"type": "uint256"
				}
			],
			"name": "transferFrom",
			"outputs": [],
			"stateMutability": "nonpayable",
			"type": "function"
		},
		{
			"inputs": [
				{
					"internalType": "address",
					"name": "newOwner",
					"type": "address"
				}
			],
			"name": "transferOwnership",
			"outputs": [],
			"stateMutability": "nonpayable",
			"type": "function"
		},
		{
			"inputs": [
				{
					"internalType": "address",
					"name": "",
					"type": "address"
				},
				{
					"internalType": "address",
					"name": "",
					"type": "address"
				},
				{
					"internalType": "uint256",
					"name": "",
					"type": "uint256"
				},
				{
					"internalType": "bytes",
					"name": "",
					"type": "bytes"
				}
			],
			"name": "onERC721Received",
			"outputs": [
				{
					"internalType": "bytes4",
					"name": "",
					"type": "bytes4"
				}
			],
			"stateMutability": "nonpayable",
			"type": "function"
		},
		{
			"inputs": [
				{
					"internalType": "uint256",
					"name": "_tokenId",
					"type": "uint256"
				},
				{
					"internalType": "uint256",
					"name": "_startingPrice",
					"type": "uint256"
				},
				{
					"internalType": "uint256",
					"name": "_duration",
					"type": "uint256"
				}
			],
			"name": "createAuction",
			"outputs": [],
			"stateMutability": "nonpayable",
			"type": "function"
		},
		{
			"inputs": [
				{
					"internalType": "uint256",
					"name": "_tokenId",
					"type": "uint256"
				}
			],
			"name": "bid",
			"outputs": [],
			"stateMutability": "payable",
			"type": "function",
			"payable": true
		},
		{
			"inputs": [],
			"name": "getBalance",
			"outputs": [
				{
					"internalType": "uint256",
					"name": "",
					"type": "uint256"
				}
			],
			"stateMutability": "view",
			"type": "function",
			"constant": true
		},
		{
			"inputs": [],
			"name": "withdrawBalance",
			"outputs": [],
			"stateMutability": "payable",
			"type": "function",
			"payable": true
		},
		{
			"inputs": [
				{
					"internalType": "uint256",
					"name": "tokenId",
					"type": "uint256"
				}
			],
			"name": "getTokenDetails",
			"outputs": [
				{
					"components": [
						{
							"internalType": "uint256",
							"name": "attribute1",
							"type": "uint256"
						},
						{
							"internalType": "uint256",
							"name": "attribute2",
							"type": "uint256"
						},
						{
							"internalType": "uint256",
							"name": "attribute3",
							"type": "uint256"
						},
						{
							"internalType": "uint256",
							"name": "attribute4",
							"type": "uint256"
						}
					],
					"internalType": "struct Token.AIA",
					"name": "",
					"type": "tuple"
				}
			],
			"stateMutability": "view",
			"type": "function",
			"constant": true
		},
		{
			"inputs": [
				{
					"internalType": "uint256",
					"name": "attribute1",
					"type": "uint256"
				},
				{
					"internalType": "uint256",
					"name": "attribute2",
					"type": "uint256"
				},
				{
					"internalType": "uint256",
					"name": "attribute3",
					"type": "uint256"
				},
				{
					"internalType": "uint256",
					"name": "attribute4",
					"type": "uint256"
				}
			],
			"name": "mint",
			"outputs": [],
			"stateMutability": "payable",
			"type": "function",
			"payable": true
		},
		{
			"inputs": [
				{
					"internalType": "address",
					"name": "user",
					"type": "address"
				}
			],
			"name": "getAllTokensForUser",
			"outputs": [
				{
					"internalType": "uint256[]",
					"name": "",
					"type": "uint256[]"
				}
			],
			"stateMutability": "view",
			"type": "function",
			"constant": true
		},
		{
			"inputs": [
				{
					"internalType": "address",
					"name": "user",
					"type": "address"
				}
			],
			"name": "getTokensonAuctionForUser",
			"outputs": [
				{
					"internalType": "uint256[]",
					"name": "",
					"type": "uint256[]"
				}
			],
			"stateMutability": "view",
			"type": "function",
			"constant": true
		}
	],
	"bytecode": "0x608060405230600760006101000a81548173ffffffffffffffffffffffffffffffffffffffff021916908373ffffffffffffffffffffffffffffffffffffffff16021790555060006008553480156200005757600080fd5b506040516200429c3803806200429c83398181016040528101906200007d9190620003f6565b8181816000908051906020019062000097929190620001a9565b508060019080519060200190620000b0929190620001a9565b505050620000d3620000c7620000db60201b60201c565b620000e360201b60201c565b5050620004df565b600033905090565b6000600660009054906101000a900473ffffffffffffffffffffffffffffffffffffffff16905081600660006101000a81548173ffffffffffffffffffffffffffffffffffffffff021916908373ffffffffffffffffffffffffffffffffffffffff1602179055508173ffffffffffffffffffffffffffffffffffffffff168173ffffffffffffffffffffffffffffffffffffffff167f8be0079c531659141344cd1fd0a4f28419497f9722a3daafe3b4186f6b6457e060405160405180910390a35050565b828054620001b790620004aa565b90600052602060002090601f016020900481019282620001db576000855562000227565b82601f10620001f657805160ff191683800117855562000227565b8280016001018555821562000227579182015b828111156200022657825182559160200191906001019062000209565b5b5090506200023691906200023a565b5090565b5b80821115620002555760008160009055506001016200023b565b5090565b6000604051905090565b600080fd5b600080fd5b600080fd5b600080fd5b6000601f19601f8301169050919050565b7f4e487b7100000000000000000000000000000000000000000000000000000000600052604160045260246000fd5b620002c28262000277565b810181811067ffffffffffffffff82111715620002e457620002e362000288565b5b80604052505050565b6000620002f962000259565b9050620003078282620002b7565b919050565b600067ffffffffffffffff8211156200032a576200032962000288565b5b620003358262000277565b9050602081019050919050565b60005b838110156200036257808201518184015260208101905062000345565b8381111562000372576000848401525b50505050565b60006200038f62000389846200030c565b620002ed565b905082815260208101848484011115620003ae57620003ad62000272565b5b620003bb84828562000342565b509392505050565b600082601f830112620003db57620003da6200026d565b5b8151620003ed84826020860162000378565b91505092915050565b6000806040838503121562000410576200040f62000263565b5b600083015167ffffffffffffffff81111562000431576200043062000268565b5b6200043f85828601620003c3565b925050602083015167ffffffffffffffff81111562000463576200046262000268565b5b6200047185828601620003c3565b9150509250929050565b7f4e487b7100000000000000000000000000000000000000000000000000000000600052602260045260246000fd5b60006002820490506001821680620004c357607f821691505b602082108103620004d957620004d86200047b565b5b50919050565b613dad80620004ef6000396000f3fe6080604052600436106101815760003560e01c8063715018a6116100d1578063c1e037281161008a578063dd1b7a0f11610064578063dd1b7a0f14610569578063e58692ce14610594578063e985e9c5146105d1578063f2fde38b1461060e57610181565b8063c1e03728146104c6578063c87b56dd14610503578063cda4beef1461054057610181565b8063715018a6146103ca57806382de8fe9146103e15780638da5cb5b1461041e57806395d89b4114610449578063a22cb46514610474578063b88d4fde1461049d57610181565b806323b872dd1161013e5780635fd8c710116101185780635fd8c7101461032a5780636352211e146103345780636582ccd31461037157806370a082311461038d57610181565b806323b872dd146102bc57806342842e0e146102e5578063454a2ab31461030e57610181565b806301ffc9a71461018657806306fdde03146101c3578063081812fc146101ee578063095ea7b31461022b57806312065fe014610254578063150b7a021461027f575b600080fd5b34801561019257600080fd5b506101ad60048036038101906101a891906127a1565b610637565b6040516101ba91906127e9565b60405180910390f35b3480156101cf57600080fd5b506101d8610719565b6040516101e5919061289d565b60405180910390f35b3480156101fa57600080fd5b50610215600480360381019061021091906128f5565b6107ab565b6040516102229190612963565b60405180910390f35b34801561023757600080fd5b50610252600480360381019061024d91906129aa565b610830565b005b34801561026057600080fd5b50610269610947565b60405161027691906129f9565b60405180910390f35b34801561028b57600080fd5b506102a660048036038101906102a19190612b49565b61094f565b6040516102b39190612bdb565b60405180910390f35b3480156102c857600080fd5b506102e360048036038101906102de9190612bf6565b610963565b005b3480156102f157600080fd5b5061030c60048036038101906103079190612bf6565b6109c3565b005b610328600480360381019061032391906128f5565b6109e3565b005b610332610a5f565b005b34801561034057600080fd5b5061035b600480360381019061035691906128f5565b610b4d565b6040516103689190612963565b60405180910390f35b61038b60048036038101906103869190612c49565b610bfe565b005b34801561039957600080fd5b506103b460048036038101906103af9190612cb0565b610cd4565b6040516103c191906129f9565b60405180910390f35b3480156103d657600080fd5b506103df610d8b565b005b3480156103ed57600080fd5b5061040860048036038101906104039190612cb0565b610e13565b6040516104159190612d9b565b60405180910390f35b34801561042a57600080fd5b50610433610f67565b6040516104409190612963565b60405180910390f35b34801561045557600080fd5b5061045e610f91565b60405161046b919061289d565b60405180910390f35b34801561048057600080fd5b5061049b60048036038101906104969190612de9565b611023565b005b3480156104a957600080fd5b506104c460048036038101906104bf9190612b49565b611039565b005b3480156104d257600080fd5b506104ed60048036038101906104e891906128f5565b61109b565b6040516104fa9190612e7e565b60405180910390f35b34801561050f57600080fd5b5061052a600480360381019061052591906128f5565b6110f0565b604051610537919061289d565b60405180910390f35b34801561054c57600080fd5b5061056760048036038101906105629190612e99565b611197565b005b34801561057557600080fd5b5061057e6112dc565b60405161058b9190612f4b565b60405180910390f35b3480156105a057600080fd5b506105bb60048036038101906105b69190612cb0565b611302565b6040516105c89190612d9b565b60405180910390f35b3480156105dd57600080fd5b506105f860048036038101906105f39190612f66565b6115e8565b60405161060591906127e9565b60405180910390f35b34801561061a57600080fd5b5061063560048036038101906106309190612cb0565b61167c565b005b60007f80ac58cd000000000000000000000000000000000000000000000000000000007bffffffffffffffffffffffffffffffffffffffffffffffffffffffff1916827bffffffffffffffffffffffffffffffffffffffffffffffffffffffff1916148061070257507f5b5e139f000000000000000000000000000000000000000000000000000000007bffffffffffffffffffffffffffffffffffffffffffffffffffffffff1916827bffffffffffffffffffffffffffffffffffffffffffffffffffffffff1916145b80610712575061071182611773565b5b9050919050565b60606000805461072890612fd5565b80601f016020809104026020016040519081016040528092919081815260200182805461075490612fd5565b80156107a15780601f10610776576101008083540402835291602001916107a1565b820191906000526020600020905b81548152906001019060200180831161078457829003601f168201915b5050505050905090565b60006107b6826117dd565b6107f5576040517f08c379a00000000000000000000000000000000000000000000000000000000081526004016107ec90613078565b60405180910390fd5b6004600083815260200190815260200160002060009054906101000a900473ffffffffffffffffffffffffffffffffffffffff169050919050565b600061083b82610b4d565b90508073ffffffffffffffffffffffffffffffffffffffff168373ffffffffffffffffffffffffffffffffffffffff16036108ab576040517f08c379a00000000000000000000000000000000000000000000000000000000081526004016108a29061310a565b60405180910390fd5b8073ffffffffffffffffffffffffffffffffffffffff166108ca611849565b73ffffffffffffffffffffffffffffffffffffffff1614806108f957506108f8816108f3611849565b6115e8565b5b610938576040517f08c379a000000000000000000000000000000000000000000000000000000000815260040161092f9061319c565b60405180910390fd5b6109428383611851565b505050565b600047905090565b600063150b7a0260e01b9050949350505050565b61097461096e611849565b8261190a565b6109b3576040517f08c379a00000000000000000000000000000000000000000000000000000000081526004016109aa9061322e565b60405180910390fd5b6109be8383836119e8565b505050565b6109de83838360405180602001604052806000815250611039565b505050565b6109ed8134611c4e565b3073ffffffffffffffffffffffffffffffffffffffff166342842e0e3033846040518463ffffffff1660e01b8152600401610a2a9392919061324e565b600060405180830381600087803b158015610a4457600080fd5b505af1158015610a58573d6000803e3d6000fd5b5050505050565b610a67610f67565b73ffffffffffffffffffffffffffffffffffffffff163373ffffffffffffffffffffffffffffffffffffffff1614610ad4576040517f08c379a0000000000000000000000000000000000000000000000000000000008152600401610acb906132ab565b60405180910390fd5b600080610adf610f67565b73ffffffffffffffffffffffffffffffffffffffff1647604051610b02906132f9565b60006040518083038185875af1925050503d8060008114610b3f576040519150601f19603f3d011682016040523d82523d6000602084013e610b44565b606091505b50915091505050565b6000806002600084815260200190815260200160002060009054906101000a900473ffffffffffffffffffffffffffffffffffffffff169050600073ffffffffffffffffffffffffffffffffffffffff168173ffffffffffffffffffffffffffffffffffffffff1603610bf5576040517f08c379a0000000000000000000000000000000000000000000000000000000008152600401610bec90613380565b60405180910390fd5b80915050919050565b670de0b6b3a7640000341015610c49576040517f08c379a0000000000000000000000000000000000000000000000000000000008152600401610c4090613412565b60405180910390fd5b604051806080016040528085815260200184815260200183815260200182815250600b6000600854815260200190815260200160002060008201518160000155602082015181600101556040820151816002015560608201518160030155905050610cb633600854611de7565b60086000815480929190610cc990613461565b919050555050505050565b60008073ffffffffffffffffffffffffffffffffffffffff168273ffffffffffffffffffffffffffffffffffffffff1603610d44576040517f08c379a0000000000000000000000000000000000000000000000000000000008152600401610d3b9061351b565b60405180910390fd5b600360008373ffffffffffffffffffffffffffffffffffffffff1673ffffffffffffffffffffffffffffffffffffffff168152602001908152602001600020549050919050565b610d93611849565b73ffffffffffffffffffffffffffffffffffffffff16610db1610f67565b73ffffffffffffffffffffffffffffffffffffffff1614610e07576040517f08c379a0000000000000000000000000000000000000000000000000000000008152600401610dfe90613587565b60405180910390fd5b610e116000611e05565b565b60606000610e2083610cd4565b905060008103610e7c57600067ffffffffffffffff811115610e4557610e44612a1e565b5b604051908082528060200260200182016040528015610e735781602001602082028036833780820191505090505b50915050610f62565b60008167ffffffffffffffff811115610e9857610e97612a1e565b5b604051908082528060200260200182016040528015610ec65781602001602082028036833780820191505090505b509050600060085490506000805b82811015610f59578673ffffffffffffffffffffffffffffffffffffffff16610efc82610b4d565b73ffffffffffffffffffffffffffffffffffffffff1603610f465780848381518110610f2b57610f2a6135a7565b5b6020026020010181815250508180610f4290613461565b9250505b8080610f5190613461565b915050610ed4565b83955050505050505b919050565b6000600660009054906101000a900473ffffffffffffffffffffffffffffffffffffffff16905090565b606060018054610fa090612fd5565b80601f0160208091040260200160405190810160405280929190818152602001828054610fcc90612fd5565b80156110195780601f10610fee57610100808354040283529160200191611019565b820191906000526020600020905b815481529060010190602001808311610ffc57829003601f168201915b5050505050905090565b61103561102e611849565b8383611ecb565b5050565b61104a611044611849565b8361190a565b611089576040517f08c379a00000000000000000000000000000000000000000000000000000000081526004016110809061322e565b60405180910390fd5b61109584848484612037565b50505050565b6110a361270d565b600b60008381526020019081526020016000206040518060800160405290816000820154815260200160018201548152602001600282015481526020016003820154815250509050919050565b60606110fb826117dd565b61113a576040517f08c379a000000000000000000000000000000000000000000000000000000000815260040161113190613648565b60405180910390fd5b6000611144612093565b90506000815111611164576040518060200160405280600081525061118f565b8061116e846120aa565b60405160200161117f9291906136a4565b6040516020818303038152906040525b915050919050565b816fffffffffffffffffffffffffffffffff1682146111b557600080fd5b8067ffffffffffffffff1681146111cb57600080fd5b3373ffffffffffffffffffffffffffffffffffffffff166111eb84610b4d565b73ffffffffffffffffffffffffffffffffffffffff161461120b57600080fd5b6112163330856109c3565b600060405180608001604052803373ffffffffffffffffffffffffffffffffffffffff168152602001846fffffffffffffffffffffffffffffffff1681526020018367ffffffffffffffff1681526020014267ffffffffffffffff168152509050611281848261220a565b600960003373ffffffffffffffffffffffffffffffffffffffff1673ffffffffffffffffffffffffffffffffffffffff16815260200190815260200160002060008154809291906112d190613461565b919050555050505050565b600760009054906101000a900473ffffffffffffffffffffffffffffffffffffffff1681565b60606000600960008473ffffffffffffffffffffffffffffffffffffffff1673ffffffffffffffffffffffffffffffffffffffff168152602001908152602001600020540361139c57600067ffffffffffffffff81111561136657611365612a1e565b5b6040519080825280602002602001820160405280156113945781602001602082028036833780820191505090505b5090506115e3565b6000600960008473ffffffffffffffffffffffffffffffffffffffff1673ffffffffffffffffffffffffffffffffffffffff1681526020019081526020016000205467ffffffffffffffff8111156113f7576113f6612a1e565b5b6040519080825280602002602001820160405280156114255781602001602082028036833780820191505090505b509050600060085490506000805b828110156115db576000600a60008381526020019081526020016000206040518060800160405290816000820160009054906101000a900473ffffffffffffffffffffffffffffffffffffffff1673ffffffffffffffffffffffffffffffffffffffff1673ffffffffffffffffffffffffffffffffffffffff1681526020016001820160009054906101000a90046fffffffffffffffffffffffffffffffff166fffffffffffffffffffffffffffffffff166fffffffffffffffffffffffffffffffff1681526020016001820160109054906101000a900467ffffffffffffffff1667ffffffffffffffff1667ffffffffffffffff1681526020016001820160189054906101000a900467ffffffffffffffff1667ffffffffffffffff1667ffffffffffffffff168152505090508673ffffffffffffffffffffffffffffffffffffffff16816000015173ffffffffffffffffffffffffffffffffffffffff16036115c757818584815181106115ac576115ab6135a7565b5b60200260200101818152505082806115c390613461565b9350505b5080806115d390613461565b915050611433565b839450505050505b919050565b6000600560008473ffffffffffffffffffffffffffffffffffffffff1673ffffffffffffffffffffffffffffffffffffffff16815260200190815260200160002060008373ffffffffffffffffffffffffffffffffffffffff1673ffffffffffffffffffffffffffffffffffffffff16815260200190815260200160002060009054906101000a900460ff16905092915050565b611684611849565b73ffffffffffffffffffffffffffffffffffffffff166116a2610f67565b73ffffffffffffffffffffffffffffffffffffffff16146116f8576040517f08c379a00000000000000000000000000000000000000000000000000000000081526004016116ef90613587565b60405180910390fd5b600073ffffffffffffffffffffffffffffffffffffffff168173ffffffffffffffffffffffffffffffffffffffff1603611767576040517f08c379a000000000000000000000000000000000000000000000000000000000815260040161175e9061373a565b60405180910390fd5b61177081611e05565b50565b60007f01ffc9a7000000000000000000000000000000000000000000000000000000007bffffffffffffffffffffffffffffffffffffffffffffffffffffffff1916827bffffffffffffffffffffffffffffffffffffffffffffffffffffffff1916149050919050565b60008073ffffffffffffffffffffffffffffffffffffffff166002600084815260200190815260200160002060009054906101000a900473ffffffffffffffffffffffffffffffffffffffff1673ffffffffffffffffffffffffffffffffffffffff1614159050919050565b600033905090565b816004600083815260200190815260200160002060006101000a81548173ffffffffffffffffffffffffffffffffffffffff021916908373ffffffffffffffffffffffffffffffffffffffff160217905550808273ffffffffffffffffffffffffffffffffffffffff166118c483610b4d565b73ffffffffffffffffffffffffffffffffffffffff167f8c5be1e5ebec7d5bd14f71427d1e84f3dd0314c0f7b2291e5b200ac8c7c3b92560405160405180910390a45050565b6000611915826117dd565b611954576040517f08c379a000000000000000000000000000000000000000000000000000000000815260040161194b906137cc565b60405180910390fd5b600061195f83610b4d565b90508073ffffffffffffffffffffffffffffffffffffffff168473ffffffffffffffffffffffffffffffffffffffff1614806119ce57508373ffffffffffffffffffffffffffffffffffffffff166119b6846107ab565b73ffffffffffffffffffffffffffffffffffffffff16145b806119df57506119de81856115e8565b5b91505092915050565b8273ffffffffffffffffffffffffffffffffffffffff16611a0882610b4d565b73ffffffffffffffffffffffffffffffffffffffff1614611a5e576040517f08c379a0000000000000000000000000000000000000000000000000000000008152600401611a559061385e565b60405180910390fd5b600073ffffffffffffffffffffffffffffffffffffffff168273ffffffffffffffffffffffffffffffffffffffff1603611acd576040517f08c379a0000000000000000000000000000000000000000000000000000000008152600401611ac4906138f0565b60405180910390fd5b611ad8838383612325565b611ae3600082611851565b6001600360008573ffffffffffffffffffffffffffffffffffffffff1673ffffffffffffffffffffffffffffffffffffffff1681526020019081526020016000206000828254611b339190613910565b925050819055506001600360008473ffffffffffffffffffffffffffffffffffffffff1673ffffffffffffffffffffffffffffffffffffffff1681526020019081526020016000206000828254611b8a9190613944565b92505081905550816002600083815260200190815260200160002060006101000a81548173ffffffffffffffffffffffffffffffffffffffff021916908373ffffffffffffffffffffffffffffffffffffffff160217905550808273ffffffffffffffffffffffffffffffffffffffff168473ffffffffffffffffffffffffffffffffffffffff167fddf252ad1be2c89b69c2b068fc378daa952ba7f163c4a11628f55a4df523b3ef60405160405180910390a4611c4983838361232a565b505050565b6000600a60008481526020019081526020016000209050818160010160009054906101000a90046fffffffffffffffffffffffffffffffff1660058360010160009054906101000a90046fffffffffffffffffffffffffffffffff16611cb491906139e5565b611cbe9190613a16565b6fffffffffffffffffffffffffffffffff1614611cda57600080fd5b60008160000160009054906101000a900473ffffffffffffffffffffffffffffffffffffffff16905060008260010160009054906101000a90046fffffffffffffffffffffffffffffffff166fffffffffffffffffffffffffffffffff161115611de1576000808273ffffffffffffffffffffffffffffffffffffffff168460010160009054906101000a90046fffffffffffffffffffffffffffffffff166fffffffffffffffffffffffffffffffff16604051611d97906132f9565b60006040518083038185875af1925050503d8060008114611dd4576040519150601f19603f3d011682016040523d82523d6000602084013e611dd9565b606091505b509150915050505b50505050565b611e0182826040518060200160405280600081525061232f565b5050565b6000600660009054906101000a900473ffffffffffffffffffffffffffffffffffffffff16905081600660006101000a81548173ffffffffffffffffffffffffffffffffffffffff021916908373ffffffffffffffffffffffffffffffffffffffff1602179055508173ffffffffffffffffffffffffffffffffffffffff168173ffffffffffffffffffffffffffffffffffffffff167f8be0079c531659141344cd1fd0a4f28419497f9722a3daafe3b4186f6b6457e060405160405180910390a35050565b8173ffffffffffffffffffffffffffffffffffffffff168373ffffffffffffffffffffffffffffffffffffffff1603611f39576040517f08c379a0000000000000000000000000000000000000000000000000000000008152600401611f3090613aa8565b60405180910390fd5b80600560008573ffffffffffffffffffffffffffffffffffffffff1673ffffffffffffffffffffffffffffffffffffffff16815260200190815260200160002060008473ffffffffffffffffffffffffffffffffffffffff1673ffffffffffffffffffffffffffffffffffffffff16815260200190815260200160002060006101000a81548160ff0219169083151502179055508173ffffffffffffffffffffffffffffffffffffffff168373ffffffffffffffffffffffffffffffffffffffff167f17307eab39ab6107e8899845ad3d59bd9653f200f220920489ca2b5937696c318360405161202a91906127e9565b60405180910390a3505050565b6120428484846119e8565b61204e8484848461238a565b61208d576040517f08c379a000000000000000000000000000000000000000000000000000000000815260040161208490613b3a565b60405180910390fd5b50505050565b606060405180602001604052806000815250905090565b6060600082036120f1576040518060400160405280600181526020017f30000000000000000000000000000000000000000000000000000000000000008152509050612205565b600082905060005b6000821461212357808061210c90613461565b915050600a8261211c9190613b5a565b91506120f9565b60008167ffffffffffffffff81111561213f5761213e612a1e565b5b6040519080825280601f01601f1916602001820160405280156121715781602001600182028036833780820191505090505b5090505b600085146121fe5760018261218a9190613910565b9150600a856121999190613b8b565b60306121a59190613944565b60f81b8183815181106121bb576121ba6135a7565b5b60200101907effffffffffffffffffffffffffffffffffffffffffffffffffffffffffffff1916908160001a905350600a856121f79190613b5a565b9450612175565b8093505050505b919050565b603c816040015167ffffffffffffffff16101561222657600080fd5b80600a600084815260200190815260200160002060008201518160000160006101000a81548173ffffffffffffffffffffffffffffffffffffffff021916908373ffffffffffffffffffffffffffffffffffffffff16021790555060208201518160010160006101000a8154816fffffffffffffffffffffffffffffffff02191690836fffffffffffffffffffffffffffffffff16021790555060408201518160010160106101000a81548167ffffffffffffffff021916908367ffffffffffffffff16021790555060608201518160010160186101000a81548167ffffffffffffffff021916908367ffffffffffffffff1602179055509050505050565b505050565b505050565b6123398383612511565b612346600084848461238a565b612385576040517f08c379a000000000000000000000000000000000000000000000000000000000815260040161237c90613b3a565b60405180910390fd5b505050565b60006123ab8473ffffffffffffffffffffffffffffffffffffffff166126ea565b15612504578373ffffffffffffffffffffffffffffffffffffffff1663150b7a026123d4611849565b8786866040518563ffffffff1660e01b81526004016123f69493929190613c11565b6020604051808303816000875af192505050801561243257506040513d601f19601f8201168201806040525081019061242f9190613c72565b60015b6124b4573d8060008114612462576040519150601f19603f3d011682016040523d82523d6000602084013e612467565b606091505b5060008151036124ac576040517f08c379a00000000000000000000000000000000000000000000000000000000081526004016124a390613b3a565b60405180910390fd5b805181602001fd5b63150b7a0260e01b7bffffffffffffffffffffffffffffffffffffffffffffffffffffffff1916817bffffffffffffffffffffffffffffffffffffffffffffffffffffffff191614915050612509565b600190505b949350505050565b600073ffffffffffffffffffffffffffffffffffffffff168273ffffffffffffffffffffffffffffffffffffffff1603612580576040517f08c379a000000000000000000000000000000000000000000000000000000000815260040161257790613ceb565b60405180910390fd5b612589816117dd565b156125c9576040517f08c379a00000000000000000000000000000000000000000000000000000000081526004016125c090613d57565b60405180910390fd5b6125d560008383612325565b6001600360008473ffffffffffffffffffffffffffffffffffffffff1673ffffffffffffffffffffffffffffffffffffffff16815260200190815260200160002060008282546126259190613944565b92505081905550816002600083815260200190815260200160002060006101000a81548173ffffffffffffffffffffffffffffffffffffffff021916908373ffffffffffffffffffffffffffffffffffffffff160217905550808273ffffffffffffffffffffffffffffffffffffffff16600073ffffffffffffffffffffffffffffffffffffffff167fddf252ad1be2c89b69c2b068fc378daa952ba7f163c4a11628f55a4df523b3ef60405160405180910390a46126e66000838361232a565b5050565b6000808273ffffffffffffffffffffffffffffffffffffffff163b119050919050565b6040518060800160405280600081526020016000815260200160008152602001600081525090565b6000604051905090565b600080fd5b600080fd5b60007fffffffff0000000000000000000000000000000000000000000000000000000082169050919050565b61277e81612749565b811461278957600080fd5b50565b60008135905061279b81612775565b92915050565b6000602082840312156127b7576127b661273f565b5b60006127c58482850161278c565b91505092915050565b60008115159050919050565b6127e3816127ce565b82525050565b60006020820190506127fe60008301846127da565b92915050565b600081519050919050565b600082825260208201905092915050565b60005b8381101561283e578082015181840152602081019050612823565b8381111561284d576000848401525b50505050565b6000601f19601f8301169050919050565b600061286f82612804565b612879818561280f565b9350612889818560208601612820565b61289281612853565b840191505092915050565b600060208201905081810360008301526128b78184612864565b905092915050565b6000819050919050565b6128d2816128bf565b81146128dd57600080fd5b50565b6000813590506128ef816128c9565b92915050565b60006020828403121561290b5761290a61273f565b5b6000612919848285016128e0565b91505092915050565b600073ffffffffffffffffffffffffffffffffffffffff82169050919050565b600061294d82612922565b9050919050565b61295d81612942565b82525050565b60006020820190506129786000830184612954565b92915050565b61298781612942565b811461299257600080fd5b50565b6000813590506129a48161297e565b92915050565b600080604083850312156129c1576129c061273f565b5b60006129cf85828601612995565b92505060206129e0858286016128e0565b9150509250929050565b6129f3816128bf565b82525050565b6000602082019050612a0e60008301846129ea565b92915050565b600080fd5b600080fd5b7f4e487b7100000000000000000000000000000000000000000000000000000000600052604160045260246000fd5b612a5682612853565b810181811067ffffffffffffffff82111715612a7557612a74612a1e565b5b80604052505050565b6000612a88612735565b9050612a948282612a4d565b919050565b600067ffffffffffffffff821115612ab457612ab3612a1e565b5b612abd82612853565b9050602081019050919050565b82818337600083830152505050565b6000612aec612ae784612a99565b612a7e565b905082815260208101848484011115612b0857612b07612a19565b5b612b13848285612aca565b509392505050565b600082601f830112612b3057612b2f612a14565b5b8135612b40848260208601612ad9565b91505092915050565b60008060008060808587031215612b6357612b6261273f565b5b6000612b7187828801612995565b9450506020612b8287828801612995565b9350506040612b93878288016128e0565b925050606085013567ffffffffffffffff811115612bb457612bb3612744565b5b612bc087828801612b1b565b91505092959194509250565b612bd581612749565b82525050565b6000602082019050612bf06000830184612bcc565b92915050565b600080600060608486031215612c0f57612c0e61273f565b5b6000612c1d86828701612995565b9350506020612c2e86828701612995565b9250506040612c3f868287016128e0565b9150509250925092565b60008060008060808587031215612c6357612c6261273f565b5b6000612c71878288016128e0565b9450506020612c82878288016128e0565b9350506040612c93878288016128e0565b9250506060612ca4878288016128e0565b91505092959194509250565b600060208284031215612cc657612cc561273f565b5b6000612cd484828501612995565b91505092915050565b600081519050919050565b600082825260208201905092915050565b6000819050602082019050919050565b612d12816128bf565b82525050565b6000612d248383612d09565b60208301905092915050565b6000602082019050919050565b6000612d4882612cdd565b612d528185612ce8565b9350612d5d83612cf9565b8060005b83811015612d8e578151612d758882612d18565b9750612d8083612d30565b925050600181019050612d61565b5085935050505092915050565b60006020820190508181036000830152612db58184612d3d565b905092915050565b612dc6816127ce565b8114612dd157600080fd5b50565b600081359050612de381612dbd565b92915050565b60008060408385031215612e0057612dff61273f565b5b6000612e0e85828601612995565b9250506020612e1f85828601612dd4565b9150509250929050565b608082016000820151612e3f6000850182612d09565b506020820151612e526020850182612d09565b506040820151612e656040850182612d09565b506060820151612e786060850182612d09565b50505050565b6000608082019050612e936000830184612e29565b92915050565b600080600060608486031215612eb257612eb161273f565b5b6000612ec0868287016128e0565b9350506020612ed1868287016128e0565b9250506040612ee2868287016128e0565b9150509250925092565b6000819050919050565b6000612f11612f0c612f0784612922565b612eec565b612922565b9050919050565b6000612f2382612ef6565b9050919050565b6000612f3582612f18565b9050919050565b612f4581612f2a565b82525050565b6000602082019050612f606000830184612f3c565b92915050565b60008060408385031215612f7d57612f7c61273f565b5b6000612f8b85828601612995565b9250506020612f9c85828601612995565b9150509250929050565b7f4e487b7100000000000000000000000000000000000000000000000000000000600052602260045260246000fd5b60006002820490506001821680612fed57607f821691505b60208210810361300057612fff612fa6565b5b50919050565b7f4552433732313a20617070726f76656420717565727920666f72206e6f6e657860008201527f697374656e7420746f6b656e0000000000000000000000000000000000000000602082015250565b6000613062602c8361280f565b915061306d82613006565b604082019050919050565b6000602082019050818103600083015261309181613055565b9050919050565b7f4552433732313a20617070726f76616c20746f2063757272656e74206f776e6560008201527f7200000000000000000000000000000000000000000000000000000000000000602082015250565b60006130f460218361280f565b91506130ff82613098565b604082019050919050565b60006020820190508181036000830152613123816130e7565b9050919050565b7f4552433732313a20617070726f76652063616c6c6572206973206e6f74206f7760008201527f6e6572206e6f7220617070726f76656420666f7220616c6c0000000000000000602082015250565b600061318660388361280f565b91506131918261312a565b604082019050919050565b600060208201905081810360008301526131b581613179565b9050919050565b7f4552433732313a207472616e736665722063616c6c6572206973206e6f74206f60008201527f776e6572206e6f7220617070726f766564000000000000000000000000000000602082015250565b600061321860318361280f565b9150613223826131bc565b604082019050919050565b600060208201905081810360008301526132478161320b565b9050919050565b60006060820190506132636000830186612954565b6132706020830185612954565b61327d60408301846129ea565b949350505050565b50565b600061329560008361280f565b91506132a082613285565b600082019050919050565b600060208201905081810360008301526132c481613288565b9050919050565b600081905092915050565b60006132e36000836132cb565b91506132ee82613285565b600082019050919050565b6000613304826132d6565b9150819050919050565b7f4552433732313a206f776e657220717565727920666f72206e6f6e657869737460008201527f656e7420746f6b656e0000000000000000000000000000000000000000000000602082015250565b600061336a60298361280f565b91506133758261330e565b604082019050919050565b600060208201905081810360008301526133998161335d565b9050919050565b7f4e6f7420656e6f756768204554482073656e743b20636865636b20707269636560008201527f2100000000000000000000000000000000000000000000000000000000000000602082015250565b60006133fc60218361280f565b9150613407826133a0565b604082019050919050565b6000602082019050818103600083015261342b816133ef565b9050919050565b7f4e487b7100000000000000000000000000000000000000000000000000000000600052601160045260246000fd5b600061346c826128bf565b91507fffffffffffffffffffffffffffffffffffffffffffffffffffffffffffffffff820361349e5761349d613432565b5b600182019050919050565b7f4552433732313a2062616c616e636520717565727920666f7220746865207a6560008201527f726f206164647265737300000000000000000000000000000000000000000000602082015250565b6000613505602a8361280f565b9150613510826134a9565b604082019050919050565b60006020820190508181036000830152613534816134f8565b9050919050565b7f4f776e61626c653a2063616c6c6572206973206e6f7420746865206f776e6572600082015250565b600061357160208361280f565b915061357c8261353b565b602082019050919050565b600060208201905081810360008301526135a081613564565b9050919050565b7f4e487b7100000000000000000000000000000000000000000000000000000000600052603260045260246000fd5b7f4552433732314d657461646174613a2055524920717565727920666f72206e6f60008201527f6e6578697374656e7420746f6b656e0000000000000000000000000000000000602082015250565b6000613632602f8361280f565b915061363d826135d6565b604082019050919050565b6000602082019050818103600083015261366181613625565b9050919050565b600081905092915050565b600061367e82612804565b6136888185613668565b9350613698818560208601612820565b80840191505092915050565b60006136b08285613673565b91506136bc8284613673565b91508190509392505050565b7f4f776e61626c653a206e6577206f776e657220697320746865207a65726f206160008201527f6464726573730000000000000000000000000000000000000000000000000000602082015250565b600061372460268361280f565b915061372f826136c8565b604082019050919050565b6000602082019050818103600083015261375381613717565b9050919050565b7f4552433732313a206f70657261746f7220717565727920666f72206e6f6e657860008201527f697374656e7420746f6b656e0000000000000000000000000000000000000000602082015250565b60006137b6602c8361280f565b91506137c18261375a565b604082019050919050565b600060208201905081810360008301526137e5816137a9565b9050919050565b7f4552433732313a207472616e736665722066726f6d20696e636f72726563742060008201527f6f776e6572000000000000000000000000000000000000000000000000000000602082015250565b600061384860258361280f565b9150613853826137ec565b604082019050919050565b600060208201905081810360008301526138778161383b565b9050919050565b7f4552433732313a207472616e7366657220746f20746865207a65726f2061646460008201527f7265737300000000000000000000000000000000000000000000000000000000602082015250565b60006138da60248361280f565b91506138e58261387e565b604082019050919050565b60006020820190508181036000830152613909816138cd565b9050919050565b600061391b826128bf565b9150613926836128bf565b92508282101561393957613938613432565b5b828203905092915050565b600061394f826128bf565b915061395a836128bf565b9250827fffffffffffffffffffffffffffffffffffffffffffffffffffffffffffffffff0382111561398f5761398e613432565b5b828201905092915050565b60006fffffffffffffffffffffffffffffffff82169050919050565b7f4e487b7100000000000000000000000000000000000000000000000000000000600052601260045260246000fd5b60006139f08261399a565b91506139fb8361399a565b925082613a0b57613a0a6139b6565b5b828204905092915050565b6000613a218261399a565b9150613a2c8361399a565b9250826fffffffffffffffffffffffffffffffff03821115613a5157613a50613432565b5b828201905092915050565b7f4552433732313a20617070726f766520746f2063616c6c657200000000000000600082015250565b6000613a9260198361280f565b9150613a9d82613a5c565b602082019050919050565b60006020820190508181036000830152613ac181613a85565b9050919050565b7f4552433732313a207472616e7366657220746f206e6f6e20455243373231526560008201527f63656976657220696d706c656d656e7465720000000000000000000000000000602082015250565b6000613b2460328361280f565b9150613b2f82613ac8565b604082019050919050565b60006020820190508181036000830152613b5381613b17565b9050919050565b6000613b65826128bf565b9150613b70836128bf565b925082613b8057613b7f6139b6565b5b828204905092915050565b6000613b96826128bf565b9150613ba1836128bf565b925082613bb157613bb06139b6565b5b828206905092915050565b600081519050919050565b600082825260208201905092915050565b6000613be382613bbc565b613bed8185613bc7565b9350613bfd818560208601612820565b613c0681612853565b840191505092915050565b6000608082019050613c266000830187612954565b613c336020830186612954565b613c4060408301856129ea565b8181036060830152613c528184613bd8565b905095945050505050565b600081519050613c6c81612775565b92915050565b600060208284031215613c8857613c8761273f565b5b6000613c9684828501613c5d565b91505092915050565b7f4552433732313a206d696e7420746f20746865207a65726f2061646472657373600082015250565b6000613cd560208361280f565b9150613ce082613c9f565b602082019050919050565b60006020820190508181036000830152613d0481613cc8565b9050919050565b7f4552433732313a20746f6b656e20616c7265616479206d696e74656400000000600082015250565b6000613d41601c8361280f565b9150613d4c82613d0b565b602082019050919050565b60006020820190508181036000830152613d7081613d34565b905091905056fea2646970667358221220db93ab245d21a4dd7f862c3b29dc7fb71cb6e1895dc296e07d8abb0821b89a5f64736f6c634300080d0033",
	"immutableReferences": {},
	"source": "pragma solidity 0.8.13;\r\n\r\nimport \"../node_modules/@openzeppelin/contracts/token/ERC721/ERC721.sol\";\r\nimport \"../node_modules/@openzeppelin/contracts/access/Ownable.sol\";\r\n\r\ncontract Token is ERC721, Ownable, IERC721Receiver{\r\n\r\n\r\n    struct AIA {\r\n        uint256 attribute1; \r\n        uint256 attribute2;\r\n        uint256 attribute3;\r\n        uint256 attribute4;\r\n    }\r\n    struct Auction {\r\n        // Current owner of NFT\r\n        address seller;\r\n        // Price (in wei) at beginning of auction\r\n        uint128 price;\r\n        // Duration\r\n        uint64 duration;\r\n        // Time when auction started\r\n        uint64 startedAt;\r\n    }\r\n\r\n\r\n\r\n    ERC721 public nonFungibleContract = ERC721(address(this));\r\n    uint256 nextId = 0;\r\n    // Map from token ID to their corresponding auction.\r\n    mapping (address => uint256) userToNumonAuction;\r\n    mapping (uint256 => Auction) tokenIdToAuction;\r\n    mapping ( uint256 => AIA) private _tokenDetails;\r\n\r\n\r\n\r\n    constructor (string memory name, string memory symbol) ERC721(name, symbol)\r\n    {\r\n\r\n    }\r\n\r\n\r\n\r\n   function onERC721Received(address, address, uint256, bytes memory) public virtual override returns (bytes4) {\r\n        return this.onERC721Received.selector;\r\n    }\r\n\r\n    function createAuction(\r\n        uint256 _tokenId,\r\n        uint256 _startingPrice,\r\n        uint256 _duration\r\n    )\r\n        external\r\n    {\r\n        // Sanity check that no inputs overflow how many bits we've allocated\r\n        // to store them in the auction struct.\r\n        require(_startingPrice == uint256(uint128(_startingPrice)));\r\n        require(_duration == uint256(uint64(_duration)));\r\n\r\n        require(ownerOf(_tokenId) == msg.sender);\r\n        safeTransferFrom(msg.sender, address(this), _tokenId);\r\n        Auction memory auction = Auction(\r\n            msg.sender,\r\n            uint128(_startingPrice),\r\n\r\n            uint64(_duration),\r\n            uint64(block.timestamp)\r\n        );\r\n        _addAuction(_tokenId, auction);\r\n        userToNumonAuction[msg.sender] ++;\r\n    }\r\n\r\n\r\n    function _addAuction(uint256 _tokenId, Auction memory _auction) internal {\r\n        // Require that all auctions have a duration of\r\n        // at least one minute. (Keeps our math from getting hairy!)\r\n        require(_auction.duration >= 1 minutes);\r\n\r\n        tokenIdToAuction[_tokenId] = _auction;\r\n    }\r\n\r\n\r\n\r\n    function bid(uint256 _tokenId)\r\n        external\r\n        payable\r\n    {\r\n        // _bid will throw if the bid or funds transfer fails\r\n        _bid(_tokenId, msg.value);\r\n        this.safeTransferFrom(address(this), msg.sender, _tokenId);\r\n    }\r\n\r\n    function _bid(uint256 _tokenId, uint256 paidAmout)\r\n        internal\r\n\r\n    {\r\n        // Get a reference to the auction struct\r\n        Auction storage auction = tokenIdToAuction[_tokenId];\r\n\r\n        // Check that price is equal\r\n        require(auction.price / 5 + auction.price == paidAmout);\r\n\r\n        // Grab a reference to the seller before the auction struct\r\n        // gets deleted.\r\n        address payable seller = payable(auction.seller);\r\n\r\n\r\n        // Transfer proceeds to seller (if there are any!)\r\n        if (auction.price > 0) {\r\n            // Calculate the auctioneer's cut.\r\n            // (NOTE: _computeCut() is guaranteed to return a\r\n            // value <= price, so this subtraction can't go negative.)\r\n\r\n            // NOTE: Doing a transfer() in the middle of a complex\r\n            // method like this is generally discouraged because of\r\n            // reentrancy attacks and DoS attacks if the seller is\r\n            // a contract with an invalid fallback function. We explicitly\r\n            // guard against reentrancy attacks by removing the auction\r\n            // before calling transfer(), and the only thing the seller\r\n            // can DoS is the sale of their own asset! (And if it's an\r\n            // accident, they can call cancelAuction(). )\r\n            (bool sent, bytes memory data) = payable(seller).call{value:auction.price}(\"\");\r\n        }\r\n    }\r\n\r\n\r\n\r\n    function getBalance() public view returns (uint256){\r\n        return address(this).balance;\r\n    }\r\n\r\n    function withdrawBalance() external payable{\r\n        require(msg.sender == owner(), \"\");\r\n        (bool sent, bytes memory data) = payable(address(owner())).call{value:address(this).balance}(\"\");\r\n\r\n    }\r\n\r\n    function getTokenDetails (uint256 tokenId) public view returns (AIA memory){\r\n        return _tokenDetails[tokenId];\r\n    }\r\n\r\n    function mint(uint256 attribute1, uint256 attribute2, uint256 attribute3, uint256 attribute4) external payable {\r\n        require(msg.value >= 1 ether, \"Not enough ETH sent; check price!\");\r\n        _tokenDetails[nextId] = AIA(attribute1, attribute2, attribute3, attribute4);\r\n        _safeMint(msg.sender, nextId);\r\n        nextId++;\r\n    }\r\n\r\n    function getAllTokensForUser(address user) public view returns (uint256[] memory){\r\n        uint256 tokenCount = balanceOf(user);\r\n        if(tokenCount ==0){\r\n            return new uint256[](0);\r\n        }\r\n        else{\r\n            uint256[] memory result = new uint256[](tokenCount);\r\n            uint256 totalAIAs = nextId;\r\n            uint256 resultIndex = 0;\r\n            uint256 i;\r\n            for(i=0; i < totalAIAs; i++)\r\n            {\r\n                if(ownerOf(i) == user)\r\n                {\r\n                    result[resultIndex] = i;\r\n                    resultIndex++;\r\n                }\r\n            }\r\n            return result;\r\n        }\r\n    }\r\n\r\n        function getTokensonAuctionForUser(address user) public view returns (uint256[] memory){\r\n        if(userToNumonAuction[user] ==0){\r\n            return new uint256[](0);\r\n        }\r\n        else{\r\n            uint256[] memory result = new uint256[](userToNumonAuction[user]);\r\n            uint256 totalAIAs = nextId;\r\n            uint256 resultIndex = 0;\r\n            uint256 i;\r\n            for(i=0; i < totalAIAs; i++)\r\n            {\r\n                Auction memory auction = tokenIdToAuction[i];\r\n                if(auction.seller == user)\r\n                {\r\n                    result[resultIndex] = i;\r\n                    resultIndex++;\r\n                }\r\n            }\r\n            return result;\r\n        }\r\n    }\r\n}",
	"sourcePath": "C:\\Users\\Niven\\Documents\\AIA\\contracts\\Token.sol",
	"compiler": {
		"name": "solc",
		"version": "0.8.13+commit.abaa5c0e.Emscripten.clang"
	},
	"schemaVersion": "3.4.6",
	"updatedAt": "2022-04-02T00:33:24.888Z",
	"networkType": "ethereum",
	"devdoc": {
		"kind": "dev",
		"methods": {
			"approve(address,uint256)": {
				"details": "See {IERC721-approve}."
			},
			"balanceOf(address)": {
				"details": "See {IERC721-balanceOf}."
			},
			"getApproved(uint256)": {
				"details": "See {IERC721-getApproved}."
			},
			"isApprovedForAll(address,address)": {
				"details": "See {IERC721-isApprovedForAll}."
			},
			"name()": {
				"details": "See {IERC721Metadata-name}."
			},
			"owner()": {
				"details": "Returns the address of the current owner."
			},
			"ownerOf(uint256)": {
				"details": "See {IERC721-ownerOf}."
			},
			"renounceOwnership()": {
				"details": "Leaves the contract without owner. It will not be possible to call `onlyOwner` functions anymore. Can only be called by the current owner. NOTE: Renouncing ownership will leave the contract without an owner, thereby removing any functionality that is only available to the owner."
			},
			"safeTransferFrom(address,address,uint256)": {
				"details": "See {IERC721-safeTransferFrom}."
			},
			"safeTransferFrom(address,address,uint256,bytes)": {
				"details": "See {IERC721-safeTransferFrom}."
			},
			"setApprovalForAll(address,bool)": {
				"details": "See {IERC721-setApprovalForAll}."
			},
			"supportsInterface(bytes4)": {
				"details": "See {IERC165-supportsInterface}."
			},
			"symbol()": {
				"details": "See {IERC721Metadata-symbol}."
			},
			"tokenURI(uint256)": {
				"details": "See {IERC721Metadata-tokenURI}."
			},
			"transferFrom(address,address,uint256)": {
				"details": "See {IERC721-transferFrom}."
			},
			"transferOwnership(address)": {
				"details": "Transfers ownership of the contract to a new account (`newOwner`). Can only be called by the current owner."
			}
		},
		"version": 1
	},
	"userdoc": {
		"kind": "user",
		"methods": {},
		"version": 1
	}
}