{
	"contractName": "Token",
	"abi": [
		{
			"inputs": [
				{
					"internalType": "string",
					"name": "name",
					"type": "string"
				},
				{
					"internalType": "string",
					"name": "symbol",
					"type": "string"
				},
				{
					"internalType": "uint64",
					"name": "subscriptionId",
					"type": "uint64"
				}
			],
			"stateMutability": "nonpayable",
			"type": "constructor"
		},
		{
			"inputs": [
				{
					"internalType": "address",
					"name": "have",
					"type": "address"
				},
				{
					"internalType": "address",
					"name": "want",
					"type": "address"
				}
			],
			"name": "OnlyCoordinatorCanFulfill",
			"type": "error"
		},
		{
			"anonymous": false,
			"inputs": [
				{
					"indexed": true,
					"internalType": "address",
					"name": "owner",
					"type": "address"
				},
				{
					"indexed": true,
					"internalType": "address",
					"name": "approved",
					"type": "address"
				},
				{
					"indexed": true,
					"internalType": "uint256",
					"name": "tokenId",
					"type": "uint256"
				}
			],
			"name": "Approval",
			"type": "event"
		},
		{
			"anonymous": false,
			"inputs": [
				{
					"indexed": true,
					"internalType": "address",
					"name": "owner",
					"type": "address"
				},
				{
					"indexed": true,
					"internalType": "address",
					"name": "operator",
					"type": "address"
				},
				{
					"indexed": false,
					"internalType": "bool",
					"name": "approved",
					"type": "bool"
				}
			],
			"name": "ApprovalForAll",
			"type": "event"
		},
		{
			"anonymous": false,
			"inputs": [
				{
					"indexed": true,
					"internalType": "address",
					"name": "owner",
					"type": "address"
				},
				{
					"indexed": true,
					"internalType": "uint256",
					"name": "tokenId",
					"type": "uint256"
				},
				{
					"indexed": false,
					"internalType": "uint256",
					"name": "timestamp",
					"type": "uint256"
				}
			],
			"name": "CancelAnListedItem",
			"type": "event"
		},
		{
			"anonymous": false,
			"inputs": [
				{
					"indexed": true,
					"internalType": "address",
					"name": "owner",
					"type": "address"
				},
				{
					"indexed": true,
					"internalType": "uint256",
					"name": "tokenId",
					"type": "uint256"
				},
				{
					"indexed": false,
					"internalType": "uint256",
					"name": "price",
					"type": "uint256"
				},
				{
					"indexed": false,
					"internalType": "uint256",
					"name": "duration",
					"type": "uint256"
				},
				{
					"indexed": false,
					"internalType": "uint256",
					"name": "timestamp",
					"type": "uint256"
				}
			],
			"name": "ListAnItem",
			"type": "event"
		},
		{
			"anonymous": false,
			"inputs": [
				{
					"indexed": true,
					"internalType": "address",
					"name": "owner",
					"type": "address"
				},
				{
					"indexed": true,
					"internalType": "uint256",
					"name": "tokenId",
					"type": "uint256"
				},
				{
					"indexed": false,
					"internalType": "uint256",
					"name": "timestamp",
					"type": "uint256"
				}
			],
			"name": "Mint",
			"type": "event"
		},
		{
			"anonymous": false,
			"inputs": [
				{
					"indexed": true,
					"internalType": "address",
					"name": "previousOwner",
					"type": "address"
				},
				{
					"indexed": true,
					"internalType": "address",
					"name": "newOwner",
					"type": "address"
				}
			],
			"name": "OwnershipTransferred",
			"type": "event"
		},
		{
			"anonymous": false,
			"inputs": [
				{
					"indexed": true,
					"internalType": "address",
					"name": "buyer",
					"type": "address"
				},
				{
					"indexed": true,
					"internalType": "uint256",
					"name": "tokenId",
					"type": "uint256"
				},
				{
					"indexed": true,
					"internalType": "address",
					"name": "seller",
					"type": "address"
				},
				{
					"indexed": false,
					"internalType": "uint256",
					"name": "price",
					"type": "uint256"
				},
				{
					"indexed": false,
					"internalType": "uint256",
					"name": "timestamp",
					"type": "uint256"
				}
			],
			"name": "PurchaseAnItem",
			"type": "event"
		},
		{
			"anonymous": false,
			"inputs": [
				{
					"indexed": true,
					"internalType": "address",
					"name": "from",
					"type": "address"
				},
				{
					"indexed": true,
					"internalType": "address",
					"name": "to",
					"type": "address"
				},
				{
					"indexed": true,
					"internalType": "uint256",
					"name": "tokenId",
					"type": "uint256"
				}
			],
			"name": "Transfer",
			"type": "event"
		},
		{
			"inputs": [
				{
					"internalType": "address",
					"name": "to",
					"type": "address"
				},
				{
					"internalType": "uint256",
					"name": "tokenId",
					"type": "uint256"
				}
			],
			"name": "approve",
			"outputs": [],
			"stateMutability": "nonpayable",
			"type": "function"
		},
		{
			"inputs": [
				{
					"internalType": "address",
					"name": "owner",
					"type": "address"
				}
			],
			"name": "balanceOf",
			"outputs": [
				{
					"internalType": "uint256",
					"name": "",
					"type": "uint256"
				}
			],
			"stateMutability": "view",
			"type": "function",
			"constant": true
		},
		{
			"inputs": [
				{
					"internalType": "uint256",
					"name": "tokenId",
					"type": "uint256"
				}
			],
			"name": "getApproved",
			"outputs": [
				{
					"internalType": "address",
					"name": "",
					"type": "address"
				}
			],
			"stateMutability": "view",
			"type": "function",
			"constant": true
		},
		{
			"inputs": [
				{
					"internalType": "address",
					"name": "owner",
					"type": "address"
				},
				{
					"internalType": "address",
					"name": "operator",
					"type": "address"
				}
			],
			"name": "isApprovedForAll",
			"outputs": [
				{
					"internalType": "bool",
					"name": "",
					"type": "bool"
				}
			],
			"stateMutability": "view",
			"type": "function",
			"constant": true
		},
		{
			"inputs": [],
			"name": "name",
			"outputs": [
				{
					"internalType": "string",
					"name": "",
					"type": "string"
				}
			],
			"stateMutability": "view",
			"type": "function",
			"constant": true
		},
		{
			"inputs": [],
			"name": "owner",
			"outputs": [
				{
					"internalType": "address",
					"name": "",
					"type": "address"
				}
			],
			"stateMutability": "view",
			"type": "function",
			"constant": true
		},
		{
			"inputs": [
				{
					"internalType": "uint256",
					"name": "tokenId",
					"type": "uint256"
				}
			],
			"name": "ownerOf",
			"outputs": [
				{
					"internalType": "address",
					"name": "",
					"type": "address"
				}
			],
			"stateMutability": "view",
			"type": "function",
			"constant": true
		},
		{
			"inputs": [
				{
					"internalType": "uint256",
					"name": "requestId",
					"type": "uint256"
				},
				{
					"internalType": "uint256[]",
					"name": "randomWords",
					"type": "uint256[]"
				}
			],
			"name": "rawFulfillRandomWords",
			"outputs": [],
			"stateMutability": "nonpayable",
			"type": "function"
		},
		{
			"inputs": [],
			"name": "renounceOwnership",
			"outputs": [],
			"stateMutability": "nonpayable",
			"type": "function"
		},
		{
			"inputs": [],
			"name": "s_requestId",
			"outputs": [
				{
					"internalType": "uint256",
					"name": "",
					"type": "uint256"
				}
			],
			"stateMutability": "view",
			"type": "function",
			"constant": true
		},
		{
			"inputs": [
				{
					"internalType": "address",
					"name": "from",
					"type": "address"
				},
				{
					"internalType": "address",
					"name": "to",
					"type": "address"
				},
				{
					"internalType": "uint256",
					"name": "tokenId",
					"type": "uint256"
				}
			],
			"name": "safeTransferFrom",
			"outputs": [],
			"stateMutability": "nonpayable",
			"type": "function"
		},
		{
			"inputs": [
				{
					"internalType": "address",
					"name": "from",
					"type": "address"
				},
				{
					"internalType": "address",
					"name": "to",
					"type": "address"
				},
				{
					"internalType": "uint256",
					"name": "tokenId",
					"type": "uint256"
				},
				{
					"internalType": "bytes",
					"name": "_data",
					"type": "bytes"
				}
			],
			"name": "safeTransferFrom",
			"outputs": [],
			"stateMutability": "nonpayable",
			"type": "function"
		},
		{
			"inputs": [
				{
					"internalType": "address",
					"name": "operator",
					"type": "address"
				},
				{
					"internalType": "bool",
					"name": "approved",
					"type": "bool"
				}
			],
			"name": "setApprovalForAll",
			"outputs": [],
			"stateMutability": "nonpayable",
			"type": "function"
		},
		{
			"inputs": [
				{
					"internalType": "bytes4",
					"name": "interfaceId",
					"type": "bytes4"
				}
			],
			"name": "supportsInterface",
			"outputs": [
				{
					"internalType": "bool",
					"name": "",
					"type": "bool"
				}
			],
			"stateMutability": "view",
			"type": "function",
			"constant": true
		},
		{
			"inputs": [],
			"name": "symbol",
			"outputs": [
				{
					"internalType": "string",
					"name": "",
					"type": "string"
				}
			],
			"stateMutability": "view",
			"type": "function",
			"constant": true
		},
		{
			"inputs": [
				{
					"internalType": "uint256",
					"name": "tokenId",
					"type": "uint256"
				}
			],
			"name": "tokenURI",
			"outputs": [
				{
					"internalType": "string",
					"name": "",
					"type": "string"
				}
			],
			"stateMutability": "view",
			"type": "function",
			"constant": true
		},
		{
			"inputs": [
				{
					"internalType": "address",
					"name": "from",
					"type": "address"
				},
				{
					"internalType": "address",
					"name": "to",
					"type": "address"
				},
				{
					"internalType": "uint256",
					"name": "tokenId",
					"type": "uint256"
				}
			],
			"name": "transferFrom",
			"outputs": [],
			"stateMutability": "nonpayable",
			"type": "function"
		},
		{
			"inputs": [
				{
					"internalType": "address",
					"name": "newOwner",
					"type": "address"
				}
			],
			"name": "transferOwnership",
			"outputs": [],
			"stateMutability": "nonpayable",
			"type": "function"
		},
		{
			"inputs": [],
			"name": "requestRandomWords",
			"outputs": [],
			"stateMutability": "nonpayable",
			"type": "function"
		},
		{
			"inputs": [],
			"name": "shuffle",
			"outputs": [],
			"stateMutability": "nonpayable",
			"type": "function"
		},
		{
			"inputs": [
				{
					"internalType": "uint256",
					"name": "attribute1",
					"type": "uint256"
				},
				{
					"internalType": "uint256",
					"name": "attribute2",
					"type": "uint256"
				},
				{
					"internalType": "uint256",
					"name": "attribute3",
					"type": "uint256"
				},
				{
					"internalType": "uint256",
					"name": "attribute4",
					"type": "uint256"
				}
			],
			"name": "mint",
			"outputs": [],
			"stateMutability": "payable",
			"type": "function",
			"payable": true
		},
		{
			"inputs": [
				{
					"internalType": "uint256",
					"name": "tokenId",
					"type": "uint256"
				}
			],
			"name": "getTokenDetails",
			"outputs": [
				{
					"components": [
						{
							"internalType": "uint256",
							"name": "attribute1",
							"type": "uint256"
						},
						{
							"internalType": "uint256",
							"name": "attribute2",
							"type": "uint256"
						},
						{
							"internalType": "uint256",
							"name": "attribute3",
							"type": "uint256"
						},
						{
							"internalType": "uint256",
							"name": "attribute4",
							"type": "uint256"
						}
					],
					"internalType": "struct Token.AIA",
					"name": "",
					"type": "tuple"
				}
			],
			"stateMutability": "view",
			"type": "function",
			"constant": true
		},
		{
			"inputs": [],
			"name": "getBalance",
			"outputs": [
				{
					"internalType": "uint256",
					"name": "",
					"type": "uint256"
				}
			],
			"stateMutability": "view",
			"type": "function",
			"constant": true
		},
		{
			"inputs": [],
			"name": "withdrawBalance",
			"outputs": [],
			"stateMutability": "payable",
			"type": "function",
			"payable": true
		},
		{
			"inputs": [
				{
					"internalType": "address",
					"name": "user",
					"type": "address"
				}
			],
			"name": "getAllTokensForUser",
			"outputs": [
				{
					"internalType": "uint256[]",
					"name": "",
					"type": "uint256[]"
				}
			],
			"stateMutability": "view",
			"type": "function",
			"constant": true
		},
		{
			"inputs": [
				{
					"internalType": "uint256",
					"name": "_tokenId",
					"type": "uint256"
				},
				{
					"internalType": "uint256",
					"name": "_price",
					"type": "uint256"
				},
				{
					"internalType": "uint256",
					"name": "_duration",
					"type": "uint256"
				}
			],
			"name": "sell",
			"outputs": [],
			"stateMutability": "nonpayable",
			"type": "function"
		},
		{
			"inputs": [
				{
					"internalType": "uint256",
					"name": "_tokenId",
					"type": "uint256"
				}
			],
			"name": "cancelSell",
			"outputs": [],
			"stateMutability": "nonpayable",
			"type": "function"
		},
		{
			"inputs": [
				{
					"internalType": "uint256",
					"name": "_tokenId",
					"type": "uint256"
				}
			],
			"name": "purchaseItem",
			"outputs": [],
			"stateMutability": "payable",
			"type": "function",
			"payable": true
		},
		{
			"inputs": [
				{
					"internalType": "address",
					"name": "user",
					"type": "address"
				}
			],
			"name": "getListedItemsForUser",
			"outputs": [
				{
					"internalType": "uint256[]",
					"name": "",
					"type": "uint256[]"
				}
			],
			"stateMutability": "view",
			"type": "function",
			"constant": true
		},
		{
			"inputs": [
				{
					"internalType": "address",
					"name": "",
					"type": "address"
				},
				{
					"internalType": "address",
					"name": "",
					"type": "address"
				},
				{
					"internalType": "uint256",
					"name": "",
					"type": "uint256"
				},
				{
					"internalType": "bytes",
					"name": "",
					"type": "bytes"
				}
			],
			"name": "onERC721Received",
			"outputs": [
				{
					"internalType": "bytes4",
					"name": "",
					"type": "bytes4"
				}
			],
			"stateMutability": "nonpayable",
			"type": "function"
		},
		{
			"inputs": [
				{
					"internalType": "uint256",
					"name": "v",
					"type": "uint256"
				}
			],
			"name": "uintToString",
			"outputs": [
				{
					"internalType": "string",
					"name": "",
					"type": "string"
				}
			],
			"stateMutability": "pure",
			"type": "function",
			"constant": true
		}
	],
	"bytecode": "0x60a0604052736168499c0cffcacd319c818142124b7a15e857ab600a60006101000a81548173ffffffffffffffffffffffffffffffffffffffff021916908373ffffffffffffffffffffffffffffffffffffffff1602179055507fd89b2bf150e3b9e13446986e571fb9cab24b13cea0a43ea20a6049a85cc807cc60001b600b55620186a0600c60006101000a81548163ffffffff021916908363ffffffff1602179055506003600c60046101000a81548161ffff021916908361ffff1602179055506001600c60066101000a81548163ffffffff021916908363ffffffff1602179055506000601055600560755560006076556040518060600160405280602b815260200162005886602b91396078908051906020019062000124929190620003fd565b506040518060400160405280600581526020017f2e6a736f6e0000000000000000000000000000000000000000000000000000008152506079908051906020019062000172929190620003fd565b503480156200018057600080fd5b50604051620058b1380380620058b18339818101604052810190620001a691906200068f565b8282600a60009054906101000a900473ffffffffffffffffffffffffffffffffffffffff16620001eb620001df6200033160201b60201c565b6200033960201b60201c565b600180819055508073ffffffffffffffffffffffffffffffffffffffff1660808173ffffffffffffffffffffffffffffffffffffffff16815250505081600290805190602001906200023f929190620003fd565b50806003908051906020019062000258929190620003fd565b505050600a60009054906101000a900473ffffffffffffffffffffffffffffffffffffffff16600960006101000a81548173ffffffffffffffffffffffffffffffffffffffff021916908373ffffffffffffffffffffffffffffffffffffffff16021790555033600f60006101000a81548173ffffffffffffffffffffffffffffffffffffffff021916908373ffffffffffffffffffffffffffffffffffffffff16021790555080600960146101000a81548167ffffffffffffffff021916908367ffffffffffffffff1602179055505050506200078d565b600033905090565b60008060009054906101000a900473ffffffffffffffffffffffffffffffffffffffff169050816000806101000a81548173ffffffffffffffffffffffffffffffffffffffff021916908373ffffffffffffffffffffffffffffffffffffffff1602179055508173ffffffffffffffffffffffffffffffffffffffff168173ffffffffffffffffffffffffffffffffffffffff167f8be0079c531659141344cd1fd0a4f28419497f9722a3daafe3b4186f6b6457e060405160405180910390a35050565b8280546200040b9062000758565b90600052602060002090601f0160209004810192826200042f57600085556200047b565b82601f106200044a57805160ff19168380011785556200047b565b828001600101855582156200047b579182015b828111156200047a5782518255916020019190600101906200045d565b5b5090506200048a91906200048e565b5090565b5b80821115620004a95760008160009055506001016200048f565b5090565b6000604051905090565b600080fd5b600080fd5b600080fd5b600080fd5b6000601f19601f8301169050919050565b7f4e487b7100000000000000000000000000000000000000000000000000000000600052604160045260246000fd5b6200051682620004cb565b810181811067ffffffffffffffff82111715620005385762000537620004dc565b5b80604052505050565b60006200054d620004ad565b90506200055b82826200050b565b919050565b600067ffffffffffffffff8211156200057e576200057d620004dc565b5b6200058982620004cb565b9050602081019050919050565b60005b83811015620005b657808201518184015260208101905062000599565b83811115620005c6576000848401525b50505050565b6000620005e3620005dd8462000560565b62000541565b905082815260208101848484011115620006025762000601620004c6565b5b6200060f84828562000596565b509392505050565b600082601f8301126200062f576200062e620004c1565b5b815162000641848260208601620005cc565b91505092915050565b600067ffffffffffffffff82169050919050565b62000669816200064a565b81146200067557600080fd5b50565b60008151905062000689816200065e565b92915050565b600080600060608486031215620006ab57620006aa620004b7565b5b600084015167ffffffffffffffff811115620006cc57620006cb620004bc565b5b620006da8682870162000617565b935050602084015167ffffffffffffffff811115620006fe57620006fd620004bc565b5b6200070c8682870162000617565b92505060406200071f8682870162000678565b9150509250925092565b7f4e487b7100000000000000000000000000000000000000000000000000000000600052602260045260246000fd5b600060028204905060018216806200077157607f821691505b60208210810362000787576200078662000729565b5b50919050565b6080516150d6620007b060003960008181610da90152610dfd01526150d66000f3fe6080604052600436106101d85760003560e01c806370a0823111610102578063c87b56dd11610095578063e89e106a11610064578063e89e106a1461067d578063e9395679146106a8578063e985e9c5146106e5578063f2fde38b14610722576101d8565b8063c87b56dd146105e4578063d38ea5bf14610621578063d3c9727c1461063d578063e0c8628914610666576101d8565b806395d89b41116100d157806395d89b411461052a578063a22cb46514610555578063b88d4fde1461057e578063c1e03728146105a7576101d8565b806370a082311461046e578063715018a6146104ab57806382de8fe9146104c25780638da5cb5b146104ff576101d8565b80631fe543e31161017a57806342842e0e1161014957806342842e0e146103e25780635fd8c7101461040b5780636352211e146104155780636582ccd314610452576101d8565b80631fe543e31461033c57806323b872dd146103655780632520bf041461038e5780632888df2a146103a5576101d8565b8063081812fc116101b6578063081812fc1461026e578063095ea7b3146102ab57806312065fe0146102d4578063150b7a02146102ff576101d8565b806301ffc9a7146101dd57806306fdde031461021a57806307c9cd4514610245575b600080fd5b3480156101e957600080fd5b5061020460048036038101906101ff919061359f565b61074b565b60405161021191906135e7565b60405180910390f35b34801561022657600080fd5b5061022f61082d565b60405161023c919061369b565b60405180910390f35b34801561025157600080fd5b5061026c600480360381019061026791906136f3565b6108bf565b005b34801561027a57600080fd5b50610295600480360381019061029091906136f3565b610b73565b6040516102a29190613761565b60405180910390f35b3480156102b757600080fd5b506102d260048036038101906102cd91906137a8565b610bf8565b005b3480156102e057600080fd5b506102e9610d0f565b6040516102f691906137f7565b60405180910390f35b34801561030b57600080fd5b5061032660048036038101906103219190613947565b610d93565b60405161033391906139d9565b60405180910390f35b34801561034857600080fd5b50610363600480360381019061035e9190613abc565b610da7565b005b34801561037157600080fd5b5061038c60048036038101906103879190613b18565b610e67565b005b34801561039a57600080fd5b506103a3610ec7565b005b3480156103b157600080fd5b506103cc60048036038101906103c79190613b6b565b611078565b6040516103d99190613c56565b60405180910390f35b3480156103ee57600080fd5b5061040960048036038101906104049190613b18565b6112e9565b005b610413611309565b005b34801561042157600080fd5b5061043c600480360381019061043791906136f3565b611473565b6040516104499190613761565b60405180910390f35b61046c60048036038101906104679190613c78565b611524565b005b34801561047a57600080fd5b5061049560048036038101906104909190613b6b565b6116b1565b6040516104a291906137f7565b60405180910390f35b3480156104b757600080fd5b506104c0611768565b005b3480156104ce57600080fd5b506104e960048036038101906104e49190613b6b565b6117f0565b6040516104f69190613c56565b60405180910390f35b34801561050b57600080fd5b50610514611944565b6040516105219190613761565b60405180910390f35b34801561053657600080fd5b5061053f61196d565b60405161054c919061369b565b60405180910390f35b34801561056157600080fd5b5061057c60048036038101906105779190613d0b565b6119ff565b005b34801561058a57600080fd5b506105a560048036038101906105a09190613947565b611a15565b005b3480156105b357600080fd5b506105ce60048036038101906105c991906136f3565b611a77565b6040516105db9190613da0565b60405180910390f35b3480156105f057600080fd5b5061060b600480360381019061060691906136f3565b611acc565b604051610618919061369b565b60405180910390f35b61063b600480360381019061063691906136f3565b611c1d565b005b34801561064957600080fd5b50610664600480360381019061065f9190613dbb565b611f26565b005b34801561067257600080fd5b5061067b61215b565b005b34801561068957600080fd5b506106926122d1565b60405161069f91906137f7565b60405180910390f35b3480156106b457600080fd5b506106cf60048036038101906106ca91906136f3565b6122d7565b6040516106dc919061369b565b60405180910390f35b3480156106f157600080fd5b5061070c60048036038101906107079190613e0e565b6124b8565b60405161071991906135e7565b60405180910390f35b34801561072e57600080fd5b5061074960048036038101906107449190613b6b565b61254c565b005b60007f80ac58cd000000000000000000000000000000000000000000000000000000007bffffffffffffffffffffffffffffffffffffffffffffffffffffffff1916827bffffffffffffffffffffffffffffffffffffffffffffffffffffffff1916148061081657507f5b5e139f000000000000000000000000000000000000000000000000000000007bffffffffffffffffffffffffffffffffffffffffffffffffffffffff1916827bffffffffffffffffffffffffffffffffffffffffffffffffffffffff1916145b80610826575061082582612643565b5b9050919050565b60606002805461083c90613e7d565b80601f016020809104026020016040519081016040528092919081815260200182805461086890613e7d565b80156108b55780601f1061088a576101008083540402835291602001916108b5565b820191906000526020600020905b81548152906001019060200180831161089857829003601f168201915b5050505050905090565b600260015403610904576040517f08c379a00000000000000000000000000000000000000000000000000000000081526004016108fb90613efa565b60405180910390fd5b60026001819055506000607b60008381526020019081526020016000209050600081600301541161093457600080fd5b8060040160009054906101000a900460ff1661094f57600080fd5b8060000160009054906101000a900473ffffffffffffffffffffffffffffffffffffffff1673ffffffffffffffffffffffffffffffffffffffff163373ffffffffffffffffffffffffffffffffffffffff16146109ab57600080fd5b607a60003373ffffffffffffffffffffffffffffffffffffffff1673ffffffffffffffffffffffffffffffffffffffff16815260200190815260200160002060008154809291906109fb90613f49565b919050555060008160040160006101000a81548160ff0219169083151502179055503073ffffffffffffffffffffffffffffffffffffffff166342842e0e308360000160009054906101000a900473ffffffffffffffffffffffffffffffffffffffff16856040518463ffffffff1660e01b8152600401610a7e93929190613fd1565b600060405180830381600087803b158015610a9857600080fd5b505af1158015610aac573d6000803e3d6000fd5b50505050607b6000838152602001908152602001600020600080820160006101000a81549073ffffffffffffffffffffffffffffffffffffffff02191690556001820160009055600282016000905560038201600090556004820160006101000a81549060ff02191690555050813373ffffffffffffffffffffffffffffffffffffffff167faafa025e65bdcff1ef0464eae38e306c5dedaa9ba5ee3f47de3b91d1bf1460e442604051610b6091906137f7565b60405180910390a3506001808190555050565b6000610b7e826126ad565b610bbd576040517f08c379a0000000000000000000000000000000000000000000000000000000008152600401610bb49061407a565b60405180910390fd5b6006600083815260200190815260200160002060009054906101000a900473ffffffffffffffffffffffffffffffffffffffff169050919050565b6000610c0382611473565b90508073ffffffffffffffffffffffffffffffffffffffff168373ffffffffffffffffffffffffffffffffffffffff1603610c73576040517f08c379a0000000000000000000000000000000000000000000000000000000008152600401610c6a9061410c565b60405180910390fd5b8073ffffffffffffffffffffffffffffffffffffffff16610c92612719565b73ffffffffffffffffffffffffffffffffffffffff161480610cc15750610cc081610cbb612719565b6124b8565b5b610d00576040517f08c379a0000000000000000000000000000000000000000000000000000000008152600401610cf79061419e565b60405180910390fd5b610d0a8383612721565b505050565b6000610d19612719565b73ffffffffffffffffffffffffffffffffffffffff16610d37611944565b73ffffffffffffffffffffffffffffffffffffffff1614610d8d576040517f08c379a0000000000000000000000000000000000000000000000000000000008152600401610d849061420a565b60405180910390fd5b47905090565b600063150b7a0260e01b9050949350505050565b7f000000000000000000000000000000000000000000000000000000000000000073ffffffffffffffffffffffffffffffffffffffff163373ffffffffffffffffffffffffffffffffffffffff1614610e5957337f00000000000000000000000000000000000000000000000000000000000000006040517f1cf993f4000000000000000000000000000000000000000000000000000000008152600401610e5092919061422a565b60405180910390fd5b610e6382826127da565b5050565b610e78610e72612719565b82612800565b610eb7576040517f08c379a0000000000000000000000000000000000000000000000000000000008152600401610eae906142c5565b60405180910390fd5b610ec28383836128de565b505050565b600060755467ffffffffffffffff811115610ee557610ee461381c565b5b604051908082528060200260200182016040528015610f135781602001602082028036833780820191505090505b50905060005b60648160ff161015610f5e578060ff16828260ff1681518110610f3f57610f3e6142e5565b5b6020026020010181815250508080610f5690614321565b915050610f19565b60008091505b60648260ff16101561107357816064610f7d919061434a565b60ff16600d54601054604051602001610f9792919061437e565b6040516020818303038152906040528051906020012060001c610fba91906143d6565b905060106000815480929190610fcf90614407565b9190505550828181518110610fe757610fe66142e5565b5b602002602001015160118360ff1660648110611006576110056142e5565b5b018190555082600183606461101b919061434a565b611025919061434a565b60ff1681518110611039576110386142e5565b5b6020026020010151838281518110611054576110536142e5565b5b602002602001018181525050818061106b90614321565b925050610f64565b505050565b60606000607a60008473ffffffffffffffffffffffffffffffffffffffff1673ffffffffffffffffffffffffffffffffffffffff168152602001908152602001600020540361111257600067ffffffffffffffff8111156110dc576110db61381c565b5b60405190808252806020026020018201604052801561110a5781602001602082028036833780820191505090505b5090506112e4565b6000607a60008473ffffffffffffffffffffffffffffffffffffffff1673ffffffffffffffffffffffffffffffffffffffff1681526020019081526020016000205467ffffffffffffffff81111561116d5761116c61381c565b5b60405190808252806020026020018201604052801561119b5781602001602082028036833780820191505090505b509050600060765490506000805b828110156112dc576000607b60008381526020019081526020016000206040518060a00160405290816000820160009054906101000a900473ffffffffffffffffffffffffffffffffffffffff1673ffffffffffffffffffffffffffffffffffffffff1673ffffffffffffffffffffffffffffffffffffffff1681526020016001820154815260200160028201548152602001600382015481526020016004820160009054906101000a900460ff16151515158152505090508673ffffffffffffffffffffffffffffffffffffffff16816000015173ffffffffffffffffffffffffffffffffffffffff16036112c857818584815181106112ad576112ac6142e5565b5b60200260200101818152505082806112c490614407565b9350505b5080806112d490614407565b9150506111a9565b839450505050505b919050565b61130483838360405180602001604052806000815250611a15565b505050565b611311612719565b73ffffffffffffffffffffffffffffffffffffffff1661132f611944565b73ffffffffffffffffffffffffffffffffffffffff1614611385576040517f08c379a000000000000000000000000000000000000000000000000000000000815260040161137c9061420a565b60405180910390fd5b61138d611944565b73ffffffffffffffffffffffffffffffffffffffff163373ffffffffffffffffffffffffffffffffffffffff16146113fa576040517f08c379a00000000000000000000000000000000000000000000000000000000081526004016113f190614475565b60405180910390fd5b600080611405611944565b73ffffffffffffffffffffffffffffffffffffffff1647604051611428906144c3565b60006040518083038185875af1925050503d8060008114611465576040519150601f19603f3d011682016040523d82523d6000602084013e61146a565b606091505b50915091505050565b6000806004600084815260200190815260200160002060009054906101000a900473ffffffffffffffffffffffffffffffffffffffff169050600073ffffffffffffffffffffffffffffffffffffffff168173ffffffffffffffffffffffffffffffffffffffff160361151b576040517f08c379a00000000000000000000000000000000000000000000000000000000081526004016115129061454a565b60405180910390fd5b80915050919050565b662386f26fc1000034101561156e576040517f08c379a0000000000000000000000000000000000000000000000000000000008152600401611565906145dc565b60405180910390fd5b604051806080016040528060116076546064811061158f5761158e6142e5565b5b0154815260200184815260200183815260200182815250607760006076548152602001908152602001600020600082015181600001556020820151816001015560408201518160020155606082015181600301559050506115f233607654612b44565b611642607654607861161a601160765460648110611613576116126142e5565b5b01546122d7565b607960405160200161162e939291906146cc565b604051602081830303815290604052612b62565b6076543373ffffffffffffffffffffffffffffffffffffffff167f4c209b5fc8ad50758f13e2e1088ba56a560dff690a1c6fef26394f4c03821c4f4260405161168b91906137f7565b60405180910390a3607660008154809291906116a690614407565b919050555050505050565b60008073ffffffffffffffffffffffffffffffffffffffff168273ffffffffffffffffffffffffffffffffffffffff1603611721576040517f08c379a00000000000000000000000000000000000000000000000000000000081526004016117189061476f565b60405180910390fd5b600560008373ffffffffffffffffffffffffffffffffffffffff1673ffffffffffffffffffffffffffffffffffffffff168152602001908152602001600020549050919050565b611770612719565b73ffffffffffffffffffffffffffffffffffffffff1661178e611944565b73ffffffffffffffffffffffffffffffffffffffff16146117e4576040517f08c379a00000000000000000000000000000000000000000000000000000000081526004016117db9061420a565b60405180910390fd5b6117ee6000612bd6565b565b606060006117fd836116b1565b90506000810361185957600067ffffffffffffffff8111156118225761182161381c565b5b6040519080825280602002602001820160405280156118505781602001602082028036833780820191505090505b5091505061193f565b60008167ffffffffffffffff8111156118755761187461381c565b5b6040519080825280602002602001820160405280156118a35781602001602082028036833780820191505090505b509050600060765490506000805b82811015611936578673ffffffffffffffffffffffffffffffffffffffff166118d982611473565b73ffffffffffffffffffffffffffffffffffffffff16036119235780848381518110611908576119076142e5565b5b602002602001018181525050818061191f90614407565b9250505b808061192e90614407565b9150506118b1565b83955050505050505b919050565b60008060009054906101000a900473ffffffffffffffffffffffffffffffffffffffff16905090565b60606003805461197c90613e7d565b80601f01602080910402602001604051908101604052809291908181526020018280546119a890613e7d565b80156119f55780601f106119ca576101008083540402835291602001916119f5565b820191906000526020600020905b8154815290600101906020018083116119d857829003601f168201915b5050505050905090565b611a11611a0a612719565b8383612c9a565b5050565b611a26611a20612719565b83612800565b611a65576040517f08c379a0000000000000000000000000000000000000000000000000000000008152600401611a5c906142c5565b60405180910390fd5b611a7184848484612e06565b50505050565b611a7f613468565b607760008381526020019081526020016000206040518060800160405290816000820154815260200160018201548152602001600282015481526020016003820154815250509050919050565b6060611ad7826126ad565b611b16576040517f08c379a0000000000000000000000000000000000000000000000000000000008152600401611b0d90614801565b60405180910390fd5b6000600860008481526020019081526020016000208054611b3690613e7d565b80601f0160208091040260200160405190810160405280929190818152602001828054611b6290613e7d565b8015611baf5780601f10611b8457610100808354040283529160200191611baf565b820191906000526020600020905b815481529060010190602001808311611b9257829003601f168201915b505050505090506000611bc0612e62565b90506000815103611bd5578192505050611c18565b600082511115611c0a578082604051602001611bf2929190614821565b60405160208183030381529060405292505050611c18565b611c1384612e79565b925050505b919050565b600260015403611c62576040517f08c379a0000000000000000000000000000000000000000000000000000000008152600401611c5990613efa565b60405180910390fd5b60026001819055506000607b6000838152602001908152602001600020905060008160000160009054906101000a900473ffffffffffffffffffffffffffffffffffffffff1690506000826003015411611cbb57600080fd5b8160040160009054906101000a900460ff16611cd657600080fd5b34826001015460058460010154611ced9190614845565b611cf79190614876565b14611d0157600080fd5b600082600101549050607b6000858152602001908152602001600020600080820160006101000a81549073ffffffffffffffffffffffffffffffffffffffff02191690556001820160009055600282016000905560038201600090556004820160006101000a81549060ff021916905550506000811115611ded576000808373ffffffffffffffffffffffffffffffffffffffff1683604051611da3906144c3565b60006040518083038185875af1925050503d8060008114611de0576040519150601f19603f3d011682016040523d82523d6000602084013e611de5565b606091505b509150915050505b3073ffffffffffffffffffffffffffffffffffffffff166342842e0e3033876040518463ffffffff1660e01b8152600401611e2a939291906148cc565b600060405180830381600087803b158015611e4457600080fd5b505af1158015611e58573d6000803e3d6000fd5b50505050607a60008373ffffffffffffffffffffffffffffffffffffffff1673ffffffffffffffffffffffffffffffffffffffff1681526020019081526020016000206000815480929190611eac90613f49565b91905055508173ffffffffffffffffffffffffffffffffffffffff16843373ffffffffffffffffffffffffffffffffffffffff167f478956c967ca99f4651fef2663546a452561b806dd5b5818ad086a2f478511868442604051611f1192919061437e565b60405180910390a45050506001808190555050565b600260015403611f6b576040517f08c379a0000000000000000000000000000000000000000000000000000000008152600401611f6290613efa565b60405180910390fd5b60026001819055503373ffffffffffffffffffffffffffffffffffffffff16611f9384611473565b73ffffffffffffffffffffffffffffffffffffffff1614611fb357600080fd5b603c811015611fc157600080fd5b6040518060a001604052803373ffffffffffffffffffffffffffffffffffffffff16815260200183815260200182815260200142815260200160011515815250607b600085815260200190815260200160002060008201518160000160006101000a81548173ffffffffffffffffffffffffffffffffffffffff021916908373ffffffffffffffffffffffffffffffffffffffff16021790555060208201518160010155604082015181600201556060820151816003015560808201518160040160006101000a81548160ff0219169083151502179055509050506120a73330856112e9565b607a60003373ffffffffffffffffffffffffffffffffffffffff1673ffffffffffffffffffffffffffffffffffffffff16815260200190815260200160002060008154809291906120f790614407565b9190505550823373ffffffffffffffffffffffffffffffffffffffff167f1bd18fbc31b1648a85db1b4d7adc8ab1d87907cf79c519431985f3b8990b64cc84844260405161214793929190614903565b60405180910390a360018081905550505050565b612163612719565b73ffffffffffffffffffffffffffffffffffffffff16612181611944565b73ffffffffffffffffffffffffffffffffffffffff16146121d7576040517f08c379a00000000000000000000000000000000000000000000000000000000081526004016121ce9061420a565b60405180910390fd5b600960009054906101000a900473ffffffffffffffffffffffffffffffffffffffff1673ffffffffffffffffffffffffffffffffffffffff16635d3b1d30600b54600960149054906101000a900467ffffffffffffffff16600c60049054906101000a900461ffff16600c60009054906101000a900463ffffffff16600c60069054906101000a900463ffffffff166040518663ffffffff1660e01b81526004016122869594939291906149b2565b6020604051808303816000875af11580156122a5573d6000803e3d6000fd5b505050506040513d601f19601f820116820180604052508101906122c99190614a1a565b600e81905550565b600e5481565b606060006064905060008167ffffffffffffffff8111156122fb576122fa61381c565b5b6040519080825280601f01601f19166020018201604052801561232d5781602001600182028036833780820191505090505b50905060005b600085146123bf576000600a8661234a91906143d6565b9050600a866123599190614845565b95508060306123689190614876565b60f81b83838061237790614407565b94508151811061238a576123896142e5565b5b60200101907effffffffffffffffffffffffffffffffffffffffffffffffffffffffffffff1916908160001a90535050612333565b60008167ffffffffffffffff8111156123db576123da61381c565b5b6040519080825280601f01601f19166020018201604052801561240d5781602001600182028036833780820191505090505b50905060005b828110156124a557836001828561242a9190614a47565b6124349190614a47565b81518110612445576124446142e5565b5b602001015160f81c60f81b828281518110612463576124626142e5565b5b60200101907effffffffffffffffffffffffffffffffffffffffffffffffffffffffffffff1916908160001a905350808061249d90614407565b915050612413565b5060008190508095505050505050919050565b6000600760008473ffffffffffffffffffffffffffffffffffffffff1673ffffffffffffffffffffffffffffffffffffffff16815260200190815260200160002060008373ffffffffffffffffffffffffffffffffffffffff1673ffffffffffffffffffffffffffffffffffffffff16815260200190815260200160002060009054906101000a900460ff16905092915050565b612554612719565b73ffffffffffffffffffffffffffffffffffffffff16612572611944565b73ffffffffffffffffffffffffffffffffffffffff16146125c8576040517f08c379a00000000000000000000000000000000000000000000000000000000081526004016125bf9061420a565b60405180910390fd5b600073ffffffffffffffffffffffffffffffffffffffff168173ffffffffffffffffffffffffffffffffffffffff1603612637576040517f08c379a000000000000000000000000000000000000000000000000000000000815260040161262e90614aed565b60405180910390fd5b61264081612bd6565b50565b60007f01ffc9a7000000000000000000000000000000000000000000000000000000007bffffffffffffffffffffffffffffffffffffffffffffffffffffffff1916827bffffffffffffffffffffffffffffffffffffffffffffffffffffffff1916149050919050565b60008073ffffffffffffffffffffffffffffffffffffffff166004600084815260200190815260200160002060009054906101000a900473ffffffffffffffffffffffffffffffffffffffff1673ffffffffffffffffffffffffffffffffffffffff1614159050919050565b600033905090565b816006600083815260200190815260200160002060006101000a81548173ffffffffffffffffffffffffffffffffffffffff021916908373ffffffffffffffffffffffffffffffffffffffff160217905550808273ffffffffffffffffffffffffffffffffffffffff1661279483611473565b73ffffffffffffffffffffffffffffffffffffffff167f8c5be1e5ebec7d5bd14f71427d1e84f3dd0314c0f7b2291e5b200ac8c7c3b92560405160405180910390a45050565b806000815181106127ee576127ed6142e5565b5b6020026020010151600d819055505050565b600061280b826126ad565b61284a576040517f08c379a000000000000000000000000000000000000000000000000000000000815260040161284190614b7f565b60405180910390fd5b600061285583611473565b90508073ffffffffffffffffffffffffffffffffffffffff168473ffffffffffffffffffffffffffffffffffffffff1614806128c457508373ffffffffffffffffffffffffffffffffffffffff166128ac84610b73565b73ffffffffffffffffffffffffffffffffffffffff16145b806128d557506128d481856124b8565b5b91505092915050565b8273ffffffffffffffffffffffffffffffffffffffff166128fe82611473565b73ffffffffffffffffffffffffffffffffffffffff1614612954576040517f08c379a000000000000000000000000000000000000000000000000000000000815260040161294b90614c11565b60405180910390fd5b600073ffffffffffffffffffffffffffffffffffffffff168273ffffffffffffffffffffffffffffffffffffffff16036129c3576040517f08c379a00000000000000000000000000000000000000000000000000000000081526004016129ba90614ca3565b60405180910390fd5b6129ce838383612f20565b6129d9600082612721565b6001600560008573ffffffffffffffffffffffffffffffffffffffff1673ffffffffffffffffffffffffffffffffffffffff1681526020019081526020016000206000828254612a299190614a47565b925050819055506001600560008473ffffffffffffffffffffffffffffffffffffffff1673ffffffffffffffffffffffffffffffffffffffff1681526020019081526020016000206000828254612a809190614876565b92505081905550816004600083815260200190815260200160002060006101000a81548173ffffffffffffffffffffffffffffffffffffffff021916908373ffffffffffffffffffffffffffffffffffffffff160217905550808273ffffffffffffffffffffffffffffffffffffffff168473ffffffffffffffffffffffffffffffffffffffff167fddf252ad1be2c89b69c2b068fc378daa952ba7f163c4a11628f55a4df523b3ef60405160405180910390a4612b3f838383612f25565b505050565b612b5e828260405180602001604052806000815250612f2a565b5050565b612b6b826126ad565b612baa576040517f08c379a0000000000000000000000000000000000000000000000000000000008152600401612ba190614d35565b60405180910390fd5b80600860008481526020019081526020016000209080519060200190612bd1929190613490565b505050565b60008060009054906101000a900473ffffffffffffffffffffffffffffffffffffffff169050816000806101000a81548173ffffffffffffffffffffffffffffffffffffffff021916908373ffffffffffffffffffffffffffffffffffffffff1602179055508173ffffffffffffffffffffffffffffffffffffffff168173ffffffffffffffffffffffffffffffffffffffff167f8be0079c531659141344cd1fd0a4f28419497f9722a3daafe3b4186f6b6457e060405160405180910390a35050565b8173ffffffffffffffffffffffffffffffffffffffff168373ffffffffffffffffffffffffffffffffffffffff1603612d08576040517f08c379a0000000000000000000000000000000000000000000000000000000008152600401612cff90614da1565b60405180910390fd5b80600760008573ffffffffffffffffffffffffffffffffffffffff1673ffffffffffffffffffffffffffffffffffffffff16815260200190815260200160002060008473ffffffffffffffffffffffffffffffffffffffff1673ffffffffffffffffffffffffffffffffffffffff16815260200190815260200160002060006101000a81548160ff0219169083151502179055508173ffffffffffffffffffffffffffffffffffffffff168373ffffffffffffffffffffffffffffffffffffffff167f17307eab39ab6107e8899845ad3d59bd9653f200f220920489ca2b5937696c3183604051612df991906135e7565b60405180910390a3505050565b612e118484846128de565b612e1d84848484612f85565b612e5c576040517f08c379a0000000000000000000000000000000000000000000000000000000008152600401612e5390614e33565b60405180910390fd5b50505050565b606060405180602001604052806000815250905090565b6060612e84826126ad565b612ec3576040517f08c379a0000000000000000000000000000000000000000000000000000000008152600401612eba90614ec5565b60405180910390fd5b6000612ecd612e62565b90506000815111612eed5760405180602001604052806000815250612f18565b80612ef78461310c565b604051602001612f08929190614821565b6040516020818303038152906040525b915050919050565b505050565b505050565b612f34838361326c565b612f416000848484612f85565b612f80576040517f08c379a0000000000000000000000000000000000000000000000000000000008152600401612f7790614e33565b60405180910390fd5b505050565b6000612fa68473ffffffffffffffffffffffffffffffffffffffff16613445565b156130ff578373ffffffffffffffffffffffffffffffffffffffff1663150b7a02612fcf612719565b8786866040518563ffffffff1660e01b8152600401612ff19493929190614f3a565b6020604051808303816000875af192505050801561302d57506040513d601f19601f8201168201806040525081019061302a9190614f9b565b60015b6130af573d806000811461305d576040519150601f19603f3d011682016040523d82523d6000602084013e613062565b606091505b5060008151036130a7576040517f08c379a000000000000000000000000000000000000000000000000000000000815260040161309e90614e33565b60405180910390fd5b805181602001fd5b63150b7a0260e01b7bffffffffffffffffffffffffffffffffffffffffffffffffffffffff1916817bffffffffffffffffffffffffffffffffffffffffffffffffffffffff191614915050613104565b600190505b949350505050565b606060008203613153576040518060400160405280600181526020017f30000000000000000000000000000000000000000000000000000000000000008152509050613267565b600082905060005b6000821461318557808061316e90614407565b915050600a8261317e9190614845565b915061315b565b60008167ffffffffffffffff8111156131a1576131a061381c565b5b6040519080825280601f01601f1916602001820160405280156131d35781602001600182028036833780820191505090505b5090505b60008514613260576001826131ec9190614a47565b9150600a856131fb91906143d6565b60306132079190614876565b60f81b81838151811061321d5761321c6142e5565b5b60200101907effffffffffffffffffffffffffffffffffffffffffffffffffffffffffffff1916908160001a905350600a856132599190614845565b94506131d7565b8093505050505b919050565b600073ffffffffffffffffffffffffffffffffffffffff168273ffffffffffffffffffffffffffffffffffffffff16036132db576040517f08c379a00000000000000000000000000000000000000000000000000000000081526004016132d290615014565b60405180910390fd5b6132e4816126ad565b15613324576040517f08c379a000000000000000000000000000000000000000000000000000000000815260040161331b90615080565b60405180910390fd5b61333060008383612f20565b6001600560008473ffffffffffffffffffffffffffffffffffffffff1673ffffffffffffffffffffffffffffffffffffffff16815260200190815260200160002060008282546133809190614876565b92505081905550816004600083815260200190815260200160002060006101000a81548173ffffffffffffffffffffffffffffffffffffffff021916908373ffffffffffffffffffffffffffffffffffffffff160217905550808273ffffffffffffffffffffffffffffffffffffffff16600073ffffffffffffffffffffffffffffffffffffffff167fddf252ad1be2c89b69c2b068fc378daa952ba7f163c4a11628f55a4df523b3ef60405160405180910390a461344160008383612f25565b5050565b6000808273ffffffffffffffffffffffffffffffffffffffff163b119050919050565b6040518060800160405280600081526020016000815260200160008152602001600081525090565b82805461349c90613e7d565b90600052602060002090601f0160209004810192826134be5760008555613505565b82601f106134d757805160ff1916838001178555613505565b82800160010185558215613505579182015b828111156135045782518255916020019190600101906134e9565b5b5090506135129190613516565b5090565b5b8082111561352f576000816000905550600101613517565b5090565b6000604051905090565b600080fd5b600080fd5b60007fffffffff0000000000000000000000000000000000000000000000000000000082169050919050565b61357c81613547565b811461358757600080fd5b50565b60008135905061359981613573565b92915050565b6000602082840312156135b5576135b461353d565b5b60006135c38482850161358a565b91505092915050565b60008115159050919050565b6135e1816135cc565b82525050565b60006020820190506135fc60008301846135d8565b92915050565b600081519050919050565b600082825260208201905092915050565b60005b8381101561363c578082015181840152602081019050613621565b8381111561364b576000848401525b50505050565b6000601f19601f8301169050919050565b600061366d82613602565b613677818561360d565b935061368781856020860161361e565b61369081613651565b840191505092915050565b600060208201905081810360008301526136b58184613662565b905092915050565b6000819050919050565b6136d0816136bd565b81146136db57600080fd5b50565b6000813590506136ed816136c7565b92915050565b6000602082840312156137095761370861353d565b5b6000613717848285016136de565b91505092915050565b600073ffffffffffffffffffffffffffffffffffffffff82169050919050565b600061374b82613720565b9050919050565b61375b81613740565b82525050565b60006020820190506137766000830184613752565b92915050565b61378581613740565b811461379057600080fd5b50565b6000813590506137a28161377c565b92915050565b600080604083850312156137bf576137be61353d565b5b60006137cd85828601613793565b92505060206137de858286016136de565b9150509250929050565b6137f1816136bd565b82525050565b600060208201905061380c60008301846137e8565b92915050565b600080fd5b600080fd5b7f4e487b7100000000000000000000000000000000000000000000000000000000600052604160045260246000fd5b61385482613651565b810181811067ffffffffffffffff821117156138735761387261381c565b5b80604052505050565b6000613886613533565b9050613892828261384b565b919050565b600067ffffffffffffffff8211156138b2576138b161381c565b5b6138bb82613651565b9050602081019050919050565b82818337600083830152505050565b60006138ea6138e584613897565b61387c565b90508281526020810184848401111561390657613905613817565b5b6139118482856138c8565b509392505050565b600082601f83011261392e5761392d613812565b5b813561393e8482602086016138d7565b91505092915050565b600080600080608085870312156139615761396061353d565b5b600061396f87828801613793565b945050602061398087828801613793565b9350506040613991878288016136de565b925050606085013567ffffffffffffffff8111156139b2576139b1613542565b5b6139be87828801613919565b91505092959194509250565b6139d381613547565b82525050565b60006020820190506139ee60008301846139ca565b92915050565b600067ffffffffffffffff821115613a0f57613a0e61381c565b5b602082029050602081019050919050565b600080fd5b6000613a38613a33846139f4565b61387c565b90508083825260208201905060208402830185811115613a5b57613a5a613a20565b5b835b81811015613a845780613a7088826136de565b845260208401935050602081019050613a5d565b5050509392505050565b600082601f830112613aa357613aa2613812565b5b8135613ab3848260208601613a25565b91505092915050565b60008060408385031215613ad357613ad261353d565b5b6000613ae1858286016136de565b925050602083013567ffffffffffffffff811115613b0257613b01613542565b5b613b0e85828601613a8e565b9150509250929050565b600080600060608486031215613b3157613b3061353d565b5b6000613b3f86828701613793565b9350506020613b5086828701613793565b9250506040613b61868287016136de565b9150509250925092565b600060208284031215613b8157613b8061353d565b5b6000613b8f84828501613793565b91505092915050565b600081519050919050565b600082825260208201905092915050565b6000819050602082019050919050565b613bcd816136bd565b82525050565b6000613bdf8383613bc4565b60208301905092915050565b6000602082019050919050565b6000613c0382613b98565b613c0d8185613ba3565b9350613c1883613bb4565b8060005b83811015613c49578151613c308882613bd3565b9750613c3b83613beb565b925050600181019050613c1c565b5085935050505092915050565b60006020820190508181036000830152613c708184613bf8565b905092915050565b60008060008060808587031215613c9257613c9161353d565b5b6000613ca0878288016136de565b9450506020613cb1878288016136de565b9350506040613cc2878288016136de565b9250506060613cd3878288016136de565b91505092959194509250565b613ce8816135cc565b8114613cf357600080fd5b50565b600081359050613d0581613cdf565b92915050565b60008060408385031215613d2257613d2161353d565b5b6000613d3085828601613793565b9250506020613d4185828601613cf6565b9150509250929050565b608082016000820151613d616000850182613bc4565b506020820151613d746020850182613bc4565b506040820151613d876040850182613bc4565b506060820151613d9a6060850182613bc4565b50505050565b6000608082019050613db56000830184613d4b565b92915050565b600080600060608486031215613dd457613dd361353d565b5b6000613de2868287016136de565b9350506020613df3868287016136de565b9250506040613e04868287016136de565b9150509250925092565b60008060408385031215613e2557613e2461353d565b5b6000613e3385828601613793565b9250506020613e4485828601613793565b9150509250929050565b7f4e487b7100000000000000000000000000000000000000000000000000000000600052602260045260246000fd5b60006002820490506001821680613e9557607f821691505b602082108103613ea857613ea7613e4e565b5b50919050565b7f5265656e7472616e637947756172643a207265656e7472616e742063616c6c00600082015250565b6000613ee4601f8361360d565b9150613eef82613eae565b602082019050919050565b60006020820190508181036000830152613f1381613ed7565b9050919050565b7f4e487b7100000000000000000000000000000000000000000000000000000000600052601160045260246000fd5b6000613f54826136bd565b915060008203613f6757613f66613f1a565b5b600182039050919050565b6000819050919050565b6000613f97613f92613f8d84613720565b613f72565b613720565b9050919050565b6000613fa982613f7c565b9050919050565b6000613fbb82613f9e565b9050919050565b613fcb81613fb0565b82525050565b6000606082019050613fe66000830186613752565b613ff36020830185613fc2565b61400060408301846137e8565b949350505050565b7f4552433732313a20617070726f76656420717565727920666f72206e6f6e657860008201527f697374656e7420746f6b656e0000000000000000000000000000000000000000602082015250565b6000614064602c8361360d565b915061406f82614008565b604082019050919050565b6000602082019050818103600083015261409381614057565b9050919050565b7f4552433732313a20617070726f76616c20746f2063757272656e74206f776e6560008201527f7200000000000000000000000000000000000000000000000000000000000000602082015250565b60006140f660218361360d565b91506141018261409a565b604082019050919050565b60006020820190508181036000830152614125816140e9565b9050919050565b7f4552433732313a20617070726f76652063616c6c6572206973206e6f74206f7760008201527f6e6572206e6f7220617070726f76656420666f7220616c6c0000000000000000602082015250565b600061418860388361360d565b91506141938261412c565b604082019050919050565b600060208201905081810360008301526141b78161417b565b9050919050565b7f4f776e61626c653a2063616c6c6572206973206e6f7420746865206f776e6572600082015250565b60006141f460208361360d565b91506141ff826141be565b602082019050919050565b60006020820190508181036000830152614223816141e7565b9050919050565b600060408201905061423f6000830185613752565b61424c6020830184613752565b9392505050565b7f4552433732313a207472616e736665722063616c6c6572206973206e6f74206f60008201527f776e6572206e6f7220617070726f766564000000000000000000000000000000602082015250565b60006142af60318361360d565b91506142ba82614253565b604082019050919050565b600060208201905081810360008301526142de816142a2565b9050919050565b7f4e487b7100000000000000000000000000000000000000000000000000000000600052603260045260246000fd5b600060ff82169050919050565b600061432c82614314565b915060ff820361433f5761433e613f1a565b5b600182019050919050565b600061435582614314565b915061436083614314565b92508282101561437357614372613f1a565b5b828203905092915050565b600060408201905061439360008301856137e8565b6143a060208301846137e8565b9392505050565b7f4e487b7100000000000000000000000000000000000000000000000000000000600052601260045260246000fd5b60006143e1826136bd565b91506143ec836136bd565b9250826143fc576143fb6143a7565b5b828206905092915050565b6000614412826136bd565b91507fffffffffffffffffffffffffffffffffffffffffffffffffffffffffffffffff820361444457614443613f1a565b5b600182019050919050565b50565b600061445f60008361360d565b915061446a8261444f565b600082019050919050565b6000602082019050818103600083015261448e81614452565b9050919050565b600081905092915050565b60006144ad600083614495565b91506144b88261444f565b600082019050919050565b60006144ce826144a0565b9150819050919050565b7f4552433732313a206f776e657220717565727920666f72206e6f6e657869737460008201527f656e7420746f6b656e0000000000000000000000000000000000000000000000602082015250565b600061453460298361360d565b915061453f826144d8565b604082019050919050565b6000602082019050818103600083015261456381614527565b9050919050565b7f4e6f7420656e6f756768204554482073656e743b20636865636b20707269636560008201527f2100000000000000000000000000000000000000000000000000000000000000602082015250565b60006145c660218361360d565b91506145d18261456a565b604082019050919050565b600060208201905081810360008301526145f5816145b9565b9050919050565b600081905092915050565b60008190508160005260206000209050919050565b6000815461462981613e7d565b61463381866145fc565b9450600182166000811461464e576001811461465f57614692565b60ff19831686528186019350614692565b61466885614607565b60005b8381101561468a5781548189015260018201915060208101905061466b565b838801955050505b50505092915050565b60006146a682613602565b6146b081856145fc565b93506146c081856020860161361e565b80840191505092915050565b60006146d8828661461c565b91506146e4828561469b565b91506146f0828461461c565b9150819050949350505050565b7f4552433732313a2062616c616e636520717565727920666f7220746865207a6560008201527f726f206164647265737300000000000000000000000000000000000000000000602082015250565b6000614759602a8361360d565b9150614764826146fd565b604082019050919050565b600060208201905081810360008301526147888161474c565b9050919050565b7f45524337323155524953746f726167653a2055524920717565727920666f722060008201527f6e6f6e6578697374656e7420746f6b656e000000000000000000000000000000602082015250565b60006147eb60318361360d565b91506147f68261478f565b604082019050919050565b6000602082019050818103600083015261481a816147de565b9050919050565b600061482d828561469b565b9150614839828461469b565b91508190509392505050565b6000614850826136bd565b915061485b836136bd565b92508261486b5761486a6143a7565b5b828204905092915050565b6000614881826136bd565b915061488c836136bd565b9250827fffffffffffffffffffffffffffffffffffffffffffffffffffffffffffffffff038211156148c1576148c0613f1a565b5b828201905092915050565b60006060820190506148e16000830186613752565b6148ee6020830185613752565b6148fb60408301846137e8565b949350505050565b600060608201905061491860008301866137e8565b61492560208301856137e8565b61493260408301846137e8565b949350505050565b6000819050919050565b61494d8161493a565b82525050565b600067ffffffffffffffff82169050919050565b61497081614953565b82525050565b600061ffff82169050919050565b61498d81614976565b82525050565b600063ffffffff82169050919050565b6149ac81614993565b82525050565b600060a0820190506149c76000830188614944565b6149d46020830187614967565b6149e16040830186614984565b6149ee60608301856149a3565b6149fb60808301846149a3565b9695505050505050565b600081519050614a14816136c7565b92915050565b600060208284031215614a3057614a2f61353d565b5b6000614a3e84828501614a05565b91505092915050565b6000614a52826136bd565b9150614a5d836136bd565b925082821015614a7057614a6f613f1a565b5b828203905092915050565b7f4f776e61626c653a206e6577206f776e657220697320746865207a65726f206160008201527f6464726573730000000000000000000000000000000000000000000000000000602082015250565b6000614ad760268361360d565b9150614ae282614a7b565b604082019050919050565b60006020820190508181036000830152614b0681614aca565b9050919050565b7f4552433732313a206f70657261746f7220717565727920666f72206e6f6e657860008201527f697374656e7420746f6b656e0000000000000000000000000000000000000000602082015250565b6000614b69602c8361360d565b9150614b7482614b0d565b604082019050919050565b60006020820190508181036000830152614b9881614b5c565b9050919050565b7f4552433732313a207472616e736665722066726f6d20696e636f72726563742060008201527f6f776e6572000000000000000000000000000000000000000000000000000000602082015250565b6000614bfb60258361360d565b9150614c0682614b9f565b604082019050919050565b60006020820190508181036000830152614c2a81614bee565b9050919050565b7f4552433732313a207472616e7366657220746f20746865207a65726f2061646460008201527f7265737300000000000000000000000000000000000000000000000000000000602082015250565b6000614c8d60248361360d565b9150614c9882614c31565b604082019050919050565b60006020820190508181036000830152614cbc81614c80565b9050919050565b7f45524337323155524953746f726167653a2055524920736574206f66206e6f6e60008201527f6578697374656e7420746f6b656e000000000000000000000000000000000000602082015250565b6000614d1f602e8361360d565b9150614d2a82614cc3565b604082019050919050565b60006020820190508181036000830152614d4e81614d12565b9050919050565b7f4552433732313a20617070726f766520746f2063616c6c657200000000000000600082015250565b6000614d8b60198361360d565b9150614d9682614d55565b602082019050919050565b60006020820190508181036000830152614dba81614d7e565b9050919050565b7f4552433732313a207472616e7366657220746f206e6f6e20455243373231526560008201527f63656976657220696d706c656d656e7465720000000000000000000000000000602082015250565b6000614e1d60328361360d565b9150614e2882614dc1565b604082019050919050565b60006020820190508181036000830152614e4c81614e10565b9050919050565b7f4552433732314d657461646174613a2055524920717565727920666f72206e6f60008201527f6e6578697374656e7420746f6b656e0000000000000000000000000000000000602082015250565b6000614eaf602f8361360d565b9150614eba82614e53565b604082019050919050565b60006020820190508181036000830152614ede81614ea2565b9050919050565b600081519050919050565b600082825260208201905092915050565b6000614f0c82614ee5565b614f168185614ef0565b9350614f2681856020860161361e565b614f2f81613651565b840191505092915050565b6000608082019050614f4f6000830187613752565b614f5c6020830186613752565b614f6960408301856137e8565b8181036060830152614f7b8184614f01565b905095945050505050565b600081519050614f9581613573565b92915050565b600060208284031215614fb157614fb061353d565b5b6000614fbf84828501614f86565b91505092915050565b7f4552433732313a206d696e7420746f20746865207a65726f2061646472657373600082015250565b6000614ffe60208361360d565b915061500982614fc8565b602082019050919050565b6000602082019050818103600083015261502d81614ff1565b9050919050565b7f4552433732313a20746f6b656e20616c7265616479206d696e74656400000000600082015250565b600061506a601c8361360d565b915061507582615034565b602082019050919050565b600060208201905081810360008301526150998161505d565b905091905056fea26469706673582212208ce64b496ab22f142a5f26faabdd687f5122195767f2bf54f0b28f4420bc288a64736f6c634300080d003368747470733a2f2f73746f726167652e676f6f676c65617069732e636f6d2f6169617274732f6a736f6e2f",
	"immutableReferences": {
		"10": [
			{
				"length": 32,
				"start": 3497
			},
			{
				"length": 32,
				"start": 3581
			}
		]
	},
	"source": "pragma solidity 0.8.13;\r\n\r\nimport \"../node_modules/@openzeppelin/contracts/token/ERC721/ERC721.sol\";\r\nimport \"../node_modules/@openzeppelin/contracts/access/Ownable.sol\";\r\nimport \"../node_modules/@openzeppelin/contracts/security/ReentrancyGuard.sol\";\r\nimport \"../node_modules/@openzeppelin/contracts/token/ERC721/extensions/ERC721URIStorage.sol\";\r\nimport \"@chainlink/contracts/src/v0.8/interfaces/VRFCoordinatorV2Interface.sol\";\r\nimport \"@chainlink/contracts/src/v0.8/VRFConsumerBaseV2.sol\";\r\n\r\ncontract Token is Ownable, IERC721Receiver, ReentrancyGuard, VRFConsumerBaseV2, ERC721URIStorage {\r\n    \r\n\r\n    /////////////////////////////////Random number//////////////////////////////\r\n    VRFCoordinatorV2Interface COORDINATOR;\r\n\r\n    // Your subscription ID.\r\n    uint64 s_subscriptionId;\r\n\r\n    // Rinkeby coordinator. For other networks,\r\n    // see https://docs.chain.link/docs/vrf-contracts/#configurations\r\n    address vrfCoordinator = 0x6168499c0cFfCaCD319c818142124B7A15E857ab;\r\n\r\n    // The gas lane to use, which specifies the maximum gas price to bump to.\r\n    // For a list of available gas lanes on each network,\r\n    // see https://docs.chain.link/docs/vrf-contracts/#configurations\r\n    bytes32 keyHash = 0xd89b2bf150e3b9e13446986e571fb9cab24b13cea0a43ea20a6049a85cc807cc;\r\n\r\n    // Depends on the number of requested values that you want sent to the\r\n    // fulfillRandomWords() function. Storing each word costs about 20,000 gas,\r\n    // so 100,000 is a safe default for this example contract. Test and adjust\r\n    // this limit based on the network that you select, the size of the request,\r\n    // and the processing of the callback request in the fulfillRandomWords()\r\n    // function.\r\n    uint32 callbackGasLimit = 100000;\r\n\r\n    // The default is 3, but you can set this higher.\r\n    uint16 requestConfirmations = 3;\r\n\r\n    // For this example, retrieve 2 random values in one request.\r\n    // Cannot exceed VRFCoordinatorV2.MAX_NUM_WORDS.\r\n    uint32 numWords =  1;\r\n\r\n    uint256 private baseSeed;\r\n    uint256 public s_requestId;\r\n    address s_owner;\r\n    // Assumes the subscription is funded sufficiently.\r\n    function requestRandomWords() external onlyOwner {\r\n        // Will revert if subscription is not set and funded.\r\n        s_requestId = COORDINATOR.requestRandomWords(keyHash,s_subscriptionId,requestConfirmations,callbackGasLimit,numWords);\r\n    }\r\n    \r\n    function fulfillRandomWords(uint256, uint256[] memory randomWords) internal override {\r\n        baseSeed = randomWords[0];\r\n    }\r\n\r\n    constructor (string memory name, string memory symbol, uint64 subscriptionId) ERC721(name, symbol) VRFConsumerBaseV2(vrfCoordinator) {\r\n        COORDINATOR = VRFCoordinatorV2Interface(vrfCoordinator);\r\n        s_owner = msg.sender;\r\n        s_subscriptionId = subscriptionId;\r\n    }\r\n\r\n    uint256 increment = 0;\r\n    uint256[100] private order;\r\n    uint256 totalSupply = 5;\r\n    function shuffle() external{\r\n        uint256[] memory unshuffled = new uint256[](totalSupply);\r\n        uint8 i;\r\n        for (i=0; i < 100; i++) {\r\n            unshuffled[i] = i;\r\n        }\r\n        uint idx;\r\n        for (i=0; i < 100; i++) {\r\n            idx = uint256(keccak256(abi.encode(baseSeed, increment))) % (100 - i);\r\n            increment++;\r\n            order[i] = unshuffled[idx];\r\n            unshuffled[idx] = unshuffled[100 - i - 1];\r\n        }\r\n    }\r\n\r\n\r\n    /////////////////////////////////Random number//////////////////////////////\r\n\r\n\r\n    event Mint(address indexed owner, uint256 indexed tokenId, uint256 timestamp);\r\n    event ListAnItem(address indexed owner, uint256 indexed tokenId, uint256 price, uint256 duration, uint256 timestamp);\r\n    event CancelAnListedItem(address indexed owner, uint256 indexed tokenId, uint256 timestamp);\r\n    event PurchaseAnItem(address indexed buyer, uint256 indexed tokenId, address indexed seller, uint256 price, uint256 timestamp);\r\n    /////////////////////////////////////////////Token Contract///////////////////////////////////////////////////\r\n\r\n    struct AIA {\r\n        uint256 attribute1; \r\n        uint256 attribute2;\r\n        uint256 attribute3;\r\n        uint256 attribute4;\r\n    }\r\n\r\n    uint256 private nextId = 0;\r\n    \r\n    mapping (uint256 => AIA) private _tokenDetails;\r\n\r\n    string prefix = \"https://storage.googleapis.com/aiarts/json/\";\r\n    string sub = \".json\";\r\n\r\n    function mint(uint256 attribute1, uint256 attribute2, uint256 attribute3, uint256 attribute4) external payable {\r\n        require(msg.value >= 0.01 ether, \"Not enough ETH sent; check price!\");\r\n        _tokenDetails[nextId] = AIA(order[nextId], attribute2, attribute3, attribute4);\r\n        _safeMint(msg.sender, nextId);\r\n        _setTokenURI(nextId,  string(abi.encodePacked(prefix, uintToString(order[nextId]), sub)));\r\n        emit Mint(msg.sender, nextId, block.timestamp);\r\n        nextId++;\r\n    }\r\n\r\n    function getTokenDetails (uint256 tokenId) public view returns (AIA memory){\r\n        return _tokenDetails[tokenId];\r\n    }\r\n\r\n    function getBalance() public view onlyOwner returns (uint256){\r\n        return address(this).balance;\r\n    }\r\n\r\n    function withdrawBalance() external payable onlyOwner {\r\n        require(msg.sender == owner(), \"\");\r\n        (bool sent, bytes memory data) = payable(address(owner())).call{value:address(this).balance}(\"\");\r\n\r\n    }\r\n\r\n    function getAllTokensForUser(address user) public view returns (uint256[] memory){\r\n        uint256 tokenCount = balanceOf(user);\r\n        if(tokenCount ==0){\r\n            return new uint256[](0);\r\n        }\r\n        else{\r\n            uint256[] memory result = new uint256[](tokenCount);\r\n            uint256 totalAIAs = nextId;\r\n            uint256 resultIndex = 0;\r\n            uint256 i;\r\n            for(i=0; i < totalAIAs; i++)\r\n            {\r\n                if(ownerOf(i) == user)\r\n                {\r\n                    result[resultIndex] = i;\r\n                    resultIndex++;\r\n                }\r\n            }\r\n            return result;\r\n        }\r\n    }\r\n\r\n\r\n\r\n    /////////////////////////////////////////////Marketplace Contract//////////////////////////////////////////////\r\n\r\n    struct Item {\r\n        address payable seller;\r\n        uint256 price;\r\n        uint256 duration;\r\n        uint256 startedAt;\r\n        bool isSelling;\r\n    }\r\n\r\n    mapping (address => uint256) userToListedItems;\r\n    mapping (uint256 => Item) tokenIdToItem;\r\n\r\n    function sell(uint256 _tokenId, uint256 _price, uint256 _duration) external nonReentrant {\r\n        require(ownerOf(_tokenId) == msg.sender);\r\n        require(_duration >= 1 minutes);\r\n        tokenIdToItem[_tokenId] = Item(\r\n            payable(msg.sender),\r\n            _price,\r\n            _duration,\r\n            block.timestamp,\r\n            true\r\n        );\r\n        safeTransferFrom(msg.sender, address(this), _tokenId);\r\n        userToListedItems[msg.sender] ++;\r\n        emit ListAnItem(msg.sender, _tokenId, _price, _duration, block.timestamp);\r\n    }\r\n\r\n    function cancelSell(uint256 _tokenId) external nonReentrant {\r\n        Item storage item = tokenIdToItem[_tokenId];\r\n        require(item.startedAt > 0);\r\n        require(item.isSelling);\r\n        require(msg.sender == item.seller);\r\n        userToListedItems[msg.sender] --;\r\n        item.isSelling = false;\r\n        this.safeTransferFrom(address(this), item.seller, _tokenId);\r\n        delete tokenIdToItem[_tokenId];\r\n        emit CancelAnListedItem(msg.sender, _tokenId, block.timestamp);\r\n    }\r\n\r\n    function purchaseItem(uint256 _tokenId) external payable nonReentrant {\r\n        // Get a reference to the auction struct\r\n        Item storage item = tokenIdToItem[_tokenId];\r\n        address payable seller = item.seller;\r\n        require(item.startedAt > 0);\r\n        require(item.isSelling);\r\n        require(item.price / 5 + item.price == msg.value);\r\n        uint256 price = item.price;\r\n        delete tokenIdToItem[_tokenId];\r\n        // Transfer proceeds to seller (if there are any!)\r\n        if (price > 0) {\r\n            (bool sent, bytes memory data) = payable(seller).call{value:price}(\"\");\r\n        }\r\n        this.safeTransferFrom(address(this), msg.sender, _tokenId);\r\n        userToListedItems[seller]--;\r\n        emit PurchaseAnItem(msg.sender, _tokenId, seller, price, block.timestamp);\r\n    }\r\n\r\n    function getListedItemsForUser(address user) public view returns (uint256[] memory){\r\n        if(userToListedItems[user] ==0){\r\n            return new uint256[](0);\r\n        }\r\n        else{\r\n            uint256[] memory result = new uint256[](userToListedItems[user]);\r\n            uint256 totalAIAs = nextId;\r\n            uint256 resultIndex = 0;\r\n            uint256 i;\r\n            for(i=0; i < totalAIAs; i++)\r\n            {\r\n                Item memory item = tokenIdToItem[i];\r\n                if(item.seller == user)\r\n                {\r\n                    result[resultIndex] = i;\r\n                    resultIndex++;\r\n                }\r\n            }\r\n            return result;\r\n        }\r\n    }\r\n\r\n\r\n    /////////////////////////////////////////////Helper Functions///////////////////////////////////////////////////\r\n    function onERC721Received(address, address, uint256, bytes memory) public virtual override returns (bytes4) {\r\n        return this.onERC721Received.selector;\r\n    }\r\n\r\n    function uintToString(uint v) public pure returns (string memory) {\r\n        uint maxlength = 100;\r\n        bytes memory reversed = new bytes(maxlength);\r\n        uint i = 0;\r\n        while (v != 0) {\r\n            uint remainder = v % 10;\r\n            v = v / 10;\r\n            reversed[i++] = bytes1(uint8(48 + remainder));\r\n        }\r\n        bytes memory s = new bytes(i); // i + 1 is inefficient\r\n        for (uint j = 0; j < i; j++) {\r\n            s[j] = reversed[i - j - 1]; // to avoid the off-by-one error\r\n        }\r\n        string memory str = string(s);  // memory isn't implicitly convertible to storage\r\n        return str;\r\n    }\r\n}",
	"sourcePath": "C:\\Users\\Niven\\Documents\\AIA\\contracts\\Token.sol",
	"compiler": {
		"name": "solc",
		"version": "0.8.13+commit.abaa5c0e.Emscripten.clang"
	},
	"schemaVersion": "3.4.6",
	"updatedAt": "2022-04-08T22:32:08.141Z",
	"networkType": "ethereum",
	"devdoc": {
		"kind": "dev",
		"methods": {
			"approve(address,uint256)": {
				"details": "See {IERC721-approve}."
			},
			"balanceOf(address)": {
				"details": "See {IERC721-balanceOf}."
			},
			"getApproved(uint256)": {
				"details": "See {IERC721-getApproved}."
			},
			"isApprovedForAll(address,address)": {
				"details": "See {IERC721-isApprovedForAll}."
			},
			"name()": {
				"details": "See {IERC721Metadata-name}."
			},
			"owner()": {
				"details": "Returns the address of the current owner."
			},
			"ownerOf(uint256)": {
				"details": "See {IERC721-ownerOf}."
			},
			"renounceOwnership()": {
				"details": "Leaves the contract without owner. It will not be possible to call `onlyOwner` functions anymore. Can only be called by the current owner. NOTE: Renouncing ownership will leave the contract without an owner, thereby removing any functionality that is only available to the owner."
			},
			"safeTransferFrom(address,address,uint256)": {
				"details": "See {IERC721-safeTransferFrom}."
			},
			"safeTransferFrom(address,address,uint256,bytes)": {
				"details": "See {IERC721-safeTransferFrom}."
			},
			"setApprovalForAll(address,bool)": {
				"details": "See {IERC721-setApprovalForAll}."
			},
			"supportsInterface(bytes4)": {
				"details": "See {IERC165-supportsInterface}."
			},
			"symbol()": {
				"details": "See {IERC721Metadata-symbol}."
			},
			"tokenURI(uint256)": {
				"details": "See {IERC721Metadata-tokenURI}."
			},
			"transferFrom(address,address,uint256)": {
				"details": "See {IERC721-transferFrom}."
			},
			"transferOwnership(address)": {
				"details": "Transfers ownership of the contract to a new account (`newOwner`). Can only be called by the current owner."
			}
		},
		"version": 1
	},
	"userdoc": {
		"kind": "user",
		"methods": {},
		"version": 1
	}
}