{
	"contractName": "Token",
	"abi": [
		{
			"inputs": [
				{
					"internalType": "string",
					"name": "name",
					"type": "string"
				},
				{
					"internalType": "string",
					"name": "symbol",
					"type": "string"
				}
			],
			"stateMutability": "nonpayable",
			"type": "constructor"
		},
		{
			"anonymous": false,
			"inputs": [
				{
					"indexed": true,
					"internalType": "address",
					"name": "owner",
					"type": "address"
				},
				{
					"indexed": true,
					"internalType": "address",
					"name": "approved",
					"type": "address"
				},
				{
					"indexed": true,
					"internalType": "uint256",
					"name": "tokenId",
					"type": "uint256"
				}
			],
			"name": "Approval",
			"type": "event"
		},
		{
			"anonymous": false,
			"inputs": [
				{
					"indexed": true,
					"internalType": "address",
					"name": "owner",
					"type": "address"
				},
				{
					"indexed": true,
					"internalType": "address",
					"name": "operator",
					"type": "address"
				},
				{
					"indexed": false,
					"internalType": "bool",
					"name": "approved",
					"type": "bool"
				}
			],
			"name": "ApprovalForAll",
			"type": "event"
		},
		{
			"anonymous": false,
			"inputs": [
				{
					"indexed": true,
					"internalType": "address",
					"name": "previousOwner",
					"type": "address"
				},
				{
					"indexed": true,
					"internalType": "address",
					"name": "newOwner",
					"type": "address"
				}
			],
			"name": "OwnershipTransferred",
			"type": "event"
		},
		{
			"anonymous": false,
			"inputs": [
				{
					"indexed": true,
					"internalType": "address",
					"name": "from",
					"type": "address"
				},
				{
					"indexed": true,
					"internalType": "address",
					"name": "to",
					"type": "address"
				},
				{
					"indexed": true,
					"internalType": "uint256",
					"name": "tokenId",
					"type": "uint256"
				}
			],
			"name": "Transfer",
			"type": "event"
		},
		{
			"inputs": [
				{
					"internalType": "address",
					"name": "to",
					"type": "address"
				},
				{
					"internalType": "uint256",
					"name": "tokenId",
					"type": "uint256"
				}
			],
			"name": "approve",
			"outputs": [],
			"stateMutability": "nonpayable",
			"type": "function"
		},
		{
			"inputs": [
				{
					"internalType": "address",
					"name": "owner",
					"type": "address"
				}
			],
			"name": "balanceOf",
			"outputs": [
				{
					"internalType": "uint256",
					"name": "",
					"type": "uint256"
				}
			],
			"stateMutability": "view",
			"type": "function",
			"constant": true
		},
		{
			"inputs": [
				{
					"internalType": "uint256",
					"name": "tokenId",
					"type": "uint256"
				}
			],
			"name": "getApproved",
			"outputs": [
				{
					"internalType": "address",
					"name": "",
					"type": "address"
				}
			],
			"stateMutability": "view",
			"type": "function",
			"constant": true
		},
		{
			"inputs": [
				{
					"internalType": "address",
					"name": "owner",
					"type": "address"
				},
				{
					"internalType": "address",
					"name": "operator",
					"type": "address"
				}
			],
			"name": "isApprovedForAll",
			"outputs": [
				{
					"internalType": "bool",
					"name": "",
					"type": "bool"
				}
			],
			"stateMutability": "view",
			"type": "function",
			"constant": true
		},
		{
			"inputs": [],
			"name": "name",
			"outputs": [
				{
					"internalType": "string",
					"name": "",
					"type": "string"
				}
			],
			"stateMutability": "view",
			"type": "function",
			"constant": true
		},
		{
			"inputs": [],
			"name": "nonFungibleContract",
			"outputs": [
				{
					"internalType": "contract ERC721",
					"name": "",
					"type": "address"
				}
			],
			"stateMutability": "view",
			"type": "function",
			"constant": true
		},
		{
			"inputs": [],
			"name": "owner",
			"outputs": [
				{
					"internalType": "address",
					"name": "",
					"type": "address"
				}
			],
			"stateMutability": "view",
			"type": "function",
			"constant": true
		},
		{
			"inputs": [
				{
					"internalType": "uint256",
					"name": "tokenId",
					"type": "uint256"
				}
			],
			"name": "ownerOf",
			"outputs": [
				{
					"internalType": "address",
					"name": "",
					"type": "address"
				}
			],
			"stateMutability": "view",
			"type": "function",
			"constant": true
		},
		{
			"inputs": [],
			"name": "renounceOwnership",
			"outputs": [],
			"stateMutability": "nonpayable",
			"type": "function"
		},
		{
			"inputs": [
				{
					"internalType": "address",
					"name": "from",
					"type": "address"
				},
				{
					"internalType": "address",
					"name": "to",
					"type": "address"
				},
				{
					"internalType": "uint256",
					"name": "tokenId",
					"type": "uint256"
				}
			],
			"name": "safeTransferFrom",
			"outputs": [],
			"stateMutability": "nonpayable",
			"type": "function"
		},
		{
			"inputs": [
				{
					"internalType": "address",
					"name": "from",
					"type": "address"
				},
				{
					"internalType": "address",
					"name": "to",
					"type": "address"
				},
				{
					"internalType": "uint256",
					"name": "tokenId",
					"type": "uint256"
				},
				{
					"internalType": "bytes",
					"name": "_data",
					"type": "bytes"
				}
			],
			"name": "safeTransferFrom",
			"outputs": [],
			"stateMutability": "nonpayable",
			"type": "function"
		},
		{
			"inputs": [
				{
					"internalType": "address",
					"name": "operator",
					"type": "address"
				},
				{
					"internalType": "bool",
					"name": "approved",
					"type": "bool"
				}
			],
			"name": "setApprovalForAll",
			"outputs": [],
			"stateMutability": "nonpayable",
			"type": "function"
		},
		{
			"inputs": [
				{
					"internalType": "bytes4",
					"name": "interfaceId",
					"type": "bytes4"
				}
			],
			"name": "supportsInterface",
			"outputs": [
				{
					"internalType": "bool",
					"name": "",
					"type": "bool"
				}
			],
			"stateMutability": "view",
			"type": "function",
			"constant": true
		},
		{
			"inputs": [],
			"name": "symbol",
			"outputs": [
				{
					"internalType": "string",
					"name": "",
					"type": "string"
				}
			],
			"stateMutability": "view",
			"type": "function",
			"constant": true
		},
		{
			"inputs": [
				{
					"internalType": "uint256",
					"name": "tokenId",
					"type": "uint256"
				}
			],
			"name": "tokenURI",
			"outputs": [
				{
					"internalType": "string",
					"name": "",
					"type": "string"
				}
			],
			"stateMutability": "view",
			"type": "function",
			"constant": true
		},
		{
			"inputs": [
				{
					"internalType": "address",
					"name": "from",
					"type": "address"
				},
				{
					"internalType": "address",
					"name": "to",
					"type": "address"
				},
				{
					"internalType": "uint256",
					"name": "tokenId",
					"type": "uint256"
				}
			],
			"name": "transferFrom",
			"outputs": [],
			"stateMutability": "nonpayable",
			"type": "function"
		},
		{
			"inputs": [
				{
					"internalType": "address",
					"name": "newOwner",
					"type": "address"
				}
			],
			"name": "transferOwnership",
			"outputs": [],
			"stateMutability": "nonpayable",
			"type": "function"
		},
		{
			"inputs": [
				{
					"internalType": "uint256",
					"name": "_tokenId",
					"type": "uint256"
				},
				{
					"internalType": "uint256",
					"name": "_price",
					"type": "uint256"
				},
				{
					"internalType": "uint256",
					"name": "_duration",
					"type": "uint256"
				}
			],
			"name": "createAuction",
			"outputs": [],
			"stateMutability": "nonpayable",
			"type": "function"
		},
		{
			"inputs": [
				{
					"internalType": "uint256",
					"name": "_tokenId",
					"type": "uint256"
				}
			],
			"name": "cancelAuction",
			"outputs": [],
			"stateMutability": "nonpayable",
			"type": "function"
		},
		{
			"inputs": [
				{
					"internalType": "uint256",
					"name": "_tokenId",
					"type": "uint256"
				}
			],
			"name": "bid",
			"outputs": [],
			"stateMutability": "payable",
			"type": "function",
			"payable": true
		},
		{
			"inputs": [
				{
					"internalType": "uint256",
					"name": "_tokenId",
					"type": "uint256"
				}
			],
			"name": "getPrice",
			"outputs": [
				{
					"internalType": "uint256",
					"name": "",
					"type": "uint256"
				}
			],
			"stateMutability": "view",
			"type": "function",
			"constant": true
		},
		{
			"inputs": [],
			"name": "getBalance",
			"outputs": [
				{
					"internalType": "uint256",
					"name": "",
					"type": "uint256"
				}
			],
			"stateMutability": "view",
			"type": "function",
			"constant": true
		},
		{
			"inputs": [],
			"name": "withdrawBalance",
			"outputs": [],
			"stateMutability": "payable",
			"type": "function",
			"payable": true
		},
		{
			"inputs": [
				{
					"internalType": "uint256",
					"name": "tokenId",
					"type": "uint256"
				}
			],
			"name": "getTokenDetails",
			"outputs": [
				{
					"components": [
						{
							"internalType": "uint256",
							"name": "attribute1",
							"type": "uint256"
						},
						{
							"internalType": "uint256",
							"name": "attribute2",
							"type": "uint256"
						},
						{
							"internalType": "uint256",
							"name": "attribute3",
							"type": "uint256"
						},
						{
							"internalType": "uint256",
							"name": "attribute4",
							"type": "uint256"
						}
					],
					"internalType": "struct Token.AIA",
					"name": "",
					"type": "tuple"
				}
			],
			"stateMutability": "view",
			"type": "function",
			"constant": true
		},
		{
			"inputs": [
				{
					"internalType": "uint256",
					"name": "attribute1",
					"type": "uint256"
				},
				{
					"internalType": "uint256",
					"name": "attribute2",
					"type": "uint256"
				},
				{
					"internalType": "uint256",
					"name": "attribute3",
					"type": "uint256"
				},
				{
					"internalType": "uint256",
					"name": "attribute4",
					"type": "uint256"
				}
			],
			"name": "mint",
			"outputs": [],
			"stateMutability": "payable",
			"type": "function",
			"payable": true
		},
		{
			"inputs": [
				{
					"internalType": "address",
					"name": "user",
					"type": "address"
				}
			],
			"name": "getAllTokensForUser",
			"outputs": [
				{
					"internalType": "uint256[]",
					"name": "",
					"type": "uint256[]"
				}
			],
			"stateMutability": "view",
			"type": "function",
			"constant": true
		},
		{
			"inputs": [
				{
					"internalType": "address",
					"name": "user",
					"type": "address"
				}
			],
			"name": "getTokensonAuctionForUser",
			"outputs": [
				{
					"internalType": "uint256[]",
					"name": "",
					"type": "uint256[]"
				}
			],
			"stateMutability": "view",
			"type": "function",
			"constant": true
		},
		{
			"inputs": [
				{
					"internalType": "address",
					"name": "",
					"type": "address"
				},
				{
					"internalType": "address",
					"name": "",
					"type": "address"
				},
				{
					"internalType": "uint256",
					"name": "",
					"type": "uint256"
				},
				{
					"internalType": "bytes",
					"name": "",
					"type": "bytes"
				}
			],
			"name": "onERC721Received",
			"outputs": [
				{
					"internalType": "bytes4",
					"name": "",
					"type": "bytes4"
				}
			],
			"stateMutability": "nonpayable",
			"type": "function"
		}
	],
	"bytecode": "0x608060405230600760006101000a81548173ffffffffffffffffffffffffffffffffffffffff021916908373ffffffffffffffffffffffffffffffffffffffff16021790555060006008553480156200005757600080fd5b50604051620044853803806200448583398181016040528101906200007d9190620003f6565b8181816000908051906020019062000097929190620001a9565b508060019080519060200190620000b0929190620001a9565b505050620000d3620000c7620000db60201b60201c565b620000e360201b60201c565b5050620004df565b600033905090565b6000600660009054906101000a900473ffffffffffffffffffffffffffffffffffffffff16905081600660006101000a81548173ffffffffffffffffffffffffffffffffffffffff021916908373ffffffffffffffffffffffffffffffffffffffff1602179055508173ffffffffffffffffffffffffffffffffffffffff168173ffffffffffffffffffffffffffffffffffffffff167f8be0079c531659141344cd1fd0a4f28419497f9722a3daafe3b4186f6b6457e060405160405180910390a35050565b828054620001b790620004aa565b90600052602060002090601f016020900481019282620001db576000855562000227565b82601f10620001f657805160ff191683800117855562000227565b8280016001018555821562000227579182015b828111156200022657825182559160200191906001019062000209565b5b5090506200023691906200023a565b5090565b5b80821115620002555760008160009055506001016200023b565b5090565b6000604051905090565b600080fd5b600080fd5b600080fd5b600080fd5b6000601f19601f8301169050919050565b7f4e487b7100000000000000000000000000000000000000000000000000000000600052604160045260246000fd5b620002c28262000277565b810181811067ffffffffffffffff82111715620002e457620002e362000288565b5b80604052505050565b6000620002f962000259565b9050620003078282620002b7565b919050565b600067ffffffffffffffff8211156200032a576200032962000288565b5b620003358262000277565b9050602081019050919050565b60005b838110156200036257808201518184015260208101905062000345565b8381111562000372576000848401525b50505050565b60006200038f62000389846200030c565b620002ed565b905082815260208101848484011115620003ae57620003ad62000272565b5b620003bb84828562000342565b509392505050565b600082601f830112620003db57620003da6200026d565b5b8151620003ed84826020860162000378565b91505092915050565b6000806040838503121562000410576200040f62000263565b5b600083015167ffffffffffffffff81111562000431576200043062000268565b5b6200043f85828601620003c3565b925050602083015167ffffffffffffffff81111562000463576200046262000268565b5b6200047185828601620003c3565b9150509250929050565b7f4e487b7100000000000000000000000000000000000000000000000000000000600052602260045260246000fd5b60006002820490506001821680620004c357607f821691505b602082108103620004d957620004d86200047b565b5b50919050565b613f9680620004ef6000396000f3fe6080604052600436106101b75760003560e01c806382de8fe9116100ec578063c87b56dd1161008a578063e58692ce11610064578063e58692ce146105f3578063e757223014610630578063e985e9c51461066d578063f2fde38b146106aa576101b7565b8063c87b56dd14610562578063cda4beef1461059f578063dd1b7a0f146105c8576101b7565b806396b5a755116100c657806396b5a755146104aa578063a22cb465146104d3578063b88d4fde146104fc578063c1e0372814610525576101b7565b806382de8fe9146104175780638da5cb5b1461045457806395d89b411461047f576101b7565b806342842e0e116101595780636352211e116101335780636352211e1461036a5780636582ccd3146103a757806370a08231146103c3578063715018a614610400576101b7565b806342842e0e1461031b578063454a2ab3146103445780635fd8c71014610360576101b7565b8063095ea7b311610195578063095ea7b31461026157806312065fe01461028a578063150b7a02146102b557806323b872dd146102f2576101b7565b806301ffc9a7146101bc57806306fdde03146101f9578063081812fc14610224575b600080fd5b3480156101c857600080fd5b506101e360048036038101906101de91906129f4565b6106d3565b6040516101f09190612a3c565b60405180910390f35b34801561020557600080fd5b5061020e6107b5565b60405161021b9190612af0565b60405180910390f35b34801561023057600080fd5b5061024b60048036038101906102469190612b48565b610847565b6040516102589190612bb6565b60405180910390f35b34801561026d57600080fd5b5061028860048036038101906102839190612bfd565b6108cc565b005b34801561029657600080fd5b5061029f6109e3565b6040516102ac9190612c4c565b60405180910390f35b3480156102c157600080fd5b506102dc60048036038101906102d79190612d9c565b6109eb565b6040516102e99190612e2e565b60405180910390f35b3480156102fe57600080fd5b5061031960048036038101906103149190612e49565b6109ff565b005b34801561032757600080fd5b50610342600480360381019061033d9190612e49565b610a5f565b005b61035e60048036038101906103599190612b48565b610a7f565b005b610368610b8c565b005b34801561037657600080fd5b50610391600480360381019061038c9190612b48565b610c7a565b60405161039e9190612bb6565b60405180910390f35b6103c160048036038101906103bc9190612e9c565b610d2b565b005b3480156103cf57600080fd5b506103ea60048036038101906103e59190612f03565b610e01565b6040516103f79190612c4c565b60405180910390f35b34801561040c57600080fd5b50610415610eb8565b005b34801561042357600080fd5b5061043e60048036038101906104399190612f03565b610f40565b60405161044b9190612fee565b60405180910390f35b34801561046057600080fd5b50610469611094565b6040516104769190612bb6565b60405180910390f35b34801561048b57600080fd5b506104946110be565b6040516104a19190612af0565b60405180910390f35b3480156104b657600080fd5b506104d160048036038101906104cc9190612b48565b611150565b005b3480156104df57600080fd5b506104fa60048036038101906104f5919061303c565b61123d565b005b34801561050857600080fd5b50610523600480360381019061051e9190612d9c565b611253565b005b34801561053157600080fd5b5061054c60048036038101906105479190612b48565b6112b5565b60405161055991906130d1565b60405180910390f35b34801561056e57600080fd5b5061058960048036038101906105849190612b48565b61130a565b6040516105969190612af0565b60405180910390f35b3480156105ab57600080fd5b506105c660048036038101906105c191906130ec565b6113b1565b005b3480156105d457600080fd5b506105dd6114d2565b6040516105ea919061319e565b60405180910390f35b3480156105ff57600080fd5b5061061a60048036038101906106159190612f03565b6114f8565b6040516106279190612fee565b60405180910390f35b34801561063c57600080fd5b5061065760048036038101906106529190612b48565b61179e565b6040516106649190612c4c565b60405180910390f35b34801561067957600080fd5b50610694600480360381019061068f91906131b9565b6117d2565b6040516106a19190612a3c565b60405180910390f35b3480156106b657600080fd5b506106d160048036038101906106cc9190612f03565b611866565b005b60007f80ac58cd000000000000000000000000000000000000000000000000000000007bffffffffffffffffffffffffffffffffffffffffffffffffffffffff1916827bffffffffffffffffffffffffffffffffffffffffffffffffffffffff1916148061079e57507f5b5e139f000000000000000000000000000000000000000000000000000000007bffffffffffffffffffffffffffffffffffffffffffffffffffffffff1916827bffffffffffffffffffffffffffffffffffffffffffffffffffffffff1916145b806107ae57506107ad8261195d565b5b9050919050565b6060600080546107c490613228565b80601f01602080910402602001604051908101604052809291908181526020018280546107f090613228565b801561083d5780601f106108125761010080835404028352916020019161083d565b820191906000526020600020905b81548152906001019060200180831161082057829003601f168201915b5050505050905090565b6000610852826119c7565b610891576040517f08c379a0000000000000000000000000000000000000000000000000000000008152600401610888906132cb565b60405180910390fd5b6004600083815260200190815260200160002060009054906101000a900473ffffffffffffffffffffffffffffffffffffffff169050919050565b60006108d782610c7a565b90508073ffffffffffffffffffffffffffffffffffffffff168373ffffffffffffffffffffffffffffffffffffffff1603610947576040517f08c379a000000000000000000000000000000000000000000000000000000000815260040161093e9061335d565b60405180910390fd5b8073ffffffffffffffffffffffffffffffffffffffff16610966611a33565b73ffffffffffffffffffffffffffffffffffffffff16148061099557506109948161098f611a33565b6117d2565b5b6109d4576040517f08c379a00000000000000000000000000000000000000000000000000000000081526004016109cb906133ef565b60405180910390fd5b6109de8383611a3b565b505050565b600047905090565b600063150b7a0260e01b9050949350505050565b610a10610a0a611a33565b82611af4565b610a4f576040517f08c379a0000000000000000000000000000000000000000000000000000000008152600401610a4690613481565b60405180910390fd5b610a5a838383611bd2565b505050565b610a7a83838360405180602001604052806000815250611253565b505050565b6000600a600083815260200190815260200160002060000160009054906101000a900473ffffffffffffffffffffffffffffffffffffffff169050610ac48234611e38565b3073ffffffffffffffffffffffffffffffffffffffff166342842e0e3033856040518463ffffffff1660e01b8152600401610b01939291906134a1565b600060405180830381600087803b158015610b1b57600080fd5b505af1158015610b2f573d6000803e3d6000fd5b50505050600960008273ffffffffffffffffffffffffffffffffffffffff1673ffffffffffffffffffffffffffffffffffffffff1681526020019081526020016000206000815480929190610b8390613507565b91905055505050565b610b94611094565b73ffffffffffffffffffffffffffffffffffffffff163373ffffffffffffffffffffffffffffffffffffffff1614610c01576040517f08c379a0000000000000000000000000000000000000000000000000000000008152600401610bf890613556565b60405180910390fd5b600080610c0c611094565b73ffffffffffffffffffffffffffffffffffffffff1647604051610c2f906135a4565b60006040518083038185875af1925050503d8060008114610c6c576040519150601f19603f3d011682016040523d82523d6000602084013e610c71565b606091505b50915091505050565b6000806002600084815260200190815260200160002060009054906101000a900473ffffffffffffffffffffffffffffffffffffffff169050600073ffffffffffffffffffffffffffffffffffffffff168173ffffffffffffffffffffffffffffffffffffffff1603610d22576040517f08c379a0000000000000000000000000000000000000000000000000000000008152600401610d199061362b565b60405180910390fd5b80915050919050565b670de0b6b3a7640000341015610d76576040517f08c379a0000000000000000000000000000000000000000000000000000000008152600401610d6d906136bd565b60405180910390fd5b604051806080016040528085815260200184815260200183815260200182815250600b6000600854815260200190815260200160002060008201518160000155602082015181600101556040820151816002015560608201518160030155905050610de333600854611f48565b60086000815480929190610df6906136dd565b919050555050505050565b60008073ffffffffffffffffffffffffffffffffffffffff168273ffffffffffffffffffffffffffffffffffffffff1603610e71576040517f08c379a0000000000000000000000000000000000000000000000000000000008152600401610e6890613797565b60405180910390fd5b600360008373ffffffffffffffffffffffffffffffffffffffff1673ffffffffffffffffffffffffffffffffffffffff168152602001908152602001600020549050919050565b610ec0611a33565b73ffffffffffffffffffffffffffffffffffffffff16610ede611094565b73ffffffffffffffffffffffffffffffffffffffff1614610f34576040517f08c379a0000000000000000000000000000000000000000000000000000000008152600401610f2b90613803565b60405180910390fd5b610f3e6000611f66565b565b60606000610f4d83610e01565b905060008103610fa957600067ffffffffffffffff811115610f7257610f71612c71565b5b604051908082528060200260200182016040528015610fa05781602001602082028036833780820191505090505b5091505061108f565b60008167ffffffffffffffff811115610fc557610fc4612c71565b5b604051908082528060200260200182016040528015610ff35781602001602082028036833780820191505090505b509050600060085490506000805b82811015611086578673ffffffffffffffffffffffffffffffffffffffff1661102982610c7a565b73ffffffffffffffffffffffffffffffffffffffff1603611073578084838151811061105857611057613823565b5b602002602001018181525050818061106f906136dd565b9250505b808061107e906136dd565b915050611001565b83955050505050505b919050565b6000600660009054906101000a900473ffffffffffffffffffffffffffffffffffffffff16905090565b6060600180546110cd90613228565b80601f01602080910402602001604051908101604052809291908181526020018280546110f990613228565b80156111465780601f1061111b57610100808354040283529160200191611146565b820191906000526020600020905b81548152906001019060200180831161112957829003601f168201915b5050505050905090565b6000600a600083815260200190815260200160002090506111708161202c565b61117957600080fd5b60008160000160009054906101000a900473ffffffffffffffffffffffffffffffffffffffff1690508073ffffffffffffffffffffffffffffffffffffffff163373ffffffffffffffffffffffffffffffffffffffff16146111da57600080fd5b600960003373ffffffffffffffffffffffffffffffffffffffff1673ffffffffffffffffffffffffffffffffffffffff168152602001908152602001600020600081548092919061122a90613507565b91905055506112388361205a565b505050565b61124f611248611a33565b83836120d5565b5050565b61126461125e611a33565b83611af4565b6112a3576040517f08c379a000000000000000000000000000000000000000000000000000000000815260040161129a90613481565b60405180910390fd5b6112af84848484612241565b50505050565b6112bd612960565b600b60008381526020019081526020016000206040518060800160405290816000820154815260200160018201548152602001600282015481526020016003820154815250509050919050565b6060611315826119c7565b611354576040517f08c379a000000000000000000000000000000000000000000000000000000000815260040161134b906138c4565b60405180910390fd5b600061135e61229d565b9050600081511161137e57604051806020016040528060008152506113a9565b80611388846122b4565b604051602001611399929190613920565b6040516020818303038152906040525b915050919050565b8182146113bd57600080fd5b8067ffffffffffffffff1681146113d357600080fd5b3373ffffffffffffffffffffffffffffffffffffffff166113f384610c7a565b73ffffffffffffffffffffffffffffffffffffffff161461141357600080fd5b61141e333085610a5f565b600060405180608001604052803373ffffffffffffffffffffffffffffffffffffffff1681526020018481526020018367ffffffffffffffff1681526020014267ffffffffffffffff1681525090506114778482612414565b600960003373ffffffffffffffffffffffffffffffffffffffff1673ffffffffffffffffffffffffffffffffffffffff16815260200190815260200160002060008154809291906114c7906136dd565b919050555050505050565b600760009054906101000a900473ffffffffffffffffffffffffffffffffffffffff1681565b60606000600960008473ffffffffffffffffffffffffffffffffffffffff1673ffffffffffffffffffffffffffffffffffffffff168152602001908152602001600020540361159257600067ffffffffffffffff81111561155c5761155b612c71565b5b60405190808252806020026020018201604052801561158a5781602001602082028036833780820191505090505b509050611799565b6000600960008473ffffffffffffffffffffffffffffffffffffffff1673ffffffffffffffffffffffffffffffffffffffff1681526020019081526020016000205467ffffffffffffffff8111156115ed576115ec612c71565b5b60405190808252806020026020018201604052801561161b5781602001602082028036833780820191505090505b509050600060085490506000805b82811015611791576000600a60008381526020019081526020016000206040518060800160405290816000820160009054906101000a900473ffffffffffffffffffffffffffffffffffffffff1673ffffffffffffffffffffffffffffffffffffffff1673ffffffffffffffffffffffffffffffffffffffff168152602001600182015481526020016002820160009054906101000a900467ffffffffffffffff1667ffffffffffffffff1667ffffffffffffffff1681526020016002820160089054906101000a900467ffffffffffffffff1667ffffffffffffffff1667ffffffffffffffff168152505090508673ffffffffffffffffffffffffffffffffffffffff16816000015173ffffffffffffffffffffffffffffffffffffffff160361177d578185848151811061176257611761613823565b5b6020026020010181815250508280611779906136dd565b9350505b508080611789906136dd565b915050611629565b839450505050505b919050565b6000600a600083815260200190815260200160002050600a6000838152602001908152602001600020600101549050919050565b6000600560008473ffffffffffffffffffffffffffffffffffffffff1673ffffffffffffffffffffffffffffffffffffffff16815260200190815260200160002060008373ffffffffffffffffffffffffffffffffffffffff1673ffffffffffffffffffffffffffffffffffffffff16815260200190815260200160002060009054906101000a900460ff16905092915050565b61186e611a33565b73ffffffffffffffffffffffffffffffffffffffff1661188c611094565b73ffffffffffffffffffffffffffffffffffffffff16146118e2576040517f08c379a00000000000000000000000000000000000000000000000000000000081526004016118d990613803565b60405180910390fd5b600073ffffffffffffffffffffffffffffffffffffffff168173ffffffffffffffffffffffffffffffffffffffff1603611951576040517f08c379a0000000000000000000000000000000000000000000000000000000008152600401611948906139b6565b60405180910390fd5b61195a81611f66565b50565b60007f01ffc9a7000000000000000000000000000000000000000000000000000000007bffffffffffffffffffffffffffffffffffffffffffffffffffffffff1916827bffffffffffffffffffffffffffffffffffffffffffffffffffffffff1916149050919050565b60008073ffffffffffffffffffffffffffffffffffffffff166002600084815260200190815260200160002060009054906101000a900473ffffffffffffffffffffffffffffffffffffffff1673ffffffffffffffffffffffffffffffffffffffff1614159050919050565b600033905090565b816004600083815260200190815260200160002060006101000a81548173ffffffffffffffffffffffffffffffffffffffff021916908373ffffffffffffffffffffffffffffffffffffffff160217905550808273ffffffffffffffffffffffffffffffffffffffff16611aae83610c7a565b73ffffffffffffffffffffffffffffffffffffffff167f8c5be1e5ebec7d5bd14f71427d1e84f3dd0314c0f7b2291e5b200ac8c7c3b92560405160405180910390a45050565b6000611aff826119c7565b611b3e576040517f08c379a0000000000000000000000000000000000000000000000000000000008152600401611b3590613a48565b60405180910390fd5b6000611b4983610c7a565b90508073ffffffffffffffffffffffffffffffffffffffff168473ffffffffffffffffffffffffffffffffffffffff161480611bb857508373ffffffffffffffffffffffffffffffffffffffff16611ba084610847565b73ffffffffffffffffffffffffffffffffffffffff16145b80611bc95750611bc881856117d2565b5b91505092915050565b8273ffffffffffffffffffffffffffffffffffffffff16611bf282610c7a565b73ffffffffffffffffffffffffffffffffffffffff1614611c48576040517f08c379a0000000000000000000000000000000000000000000000000000000008152600401611c3f90613ada565b60405180910390fd5b600073ffffffffffffffffffffffffffffffffffffffff168273ffffffffffffffffffffffffffffffffffffffff1603611cb7576040517f08c379a0000000000000000000000000000000000000000000000000000000008152600401611cae90613b6c565b60405180910390fd5b611cc28383836124fa565b611ccd600082611a3b565b6001600360008573ffffffffffffffffffffffffffffffffffffffff1673ffffffffffffffffffffffffffffffffffffffff1681526020019081526020016000206000828254611d1d9190613b8c565b925050819055506001600360008473ffffffffffffffffffffffffffffffffffffffff1673ffffffffffffffffffffffffffffffffffffffff1681526020019081526020016000206000828254611d749190613bc0565b92505081905550816002600083815260200190815260200160002060006101000a81548173ffffffffffffffffffffffffffffffffffffffff021916908373ffffffffffffffffffffffffffffffffffffffff160217905550808273ffffffffffffffffffffffffffffffffffffffff168473ffffffffffffffffffffffffffffffffffffffff167fddf252ad1be2c89b69c2b068fc378daa952ba7f163c4a11628f55a4df523b3ef60405160405180910390a4611e338383836124ff565b505050565b6000600a60008481526020019081526020016000209050611e588161202c565b611e6157600080fd5b81816001015460058360010154611e789190613c45565b611e829190613bc0565b14611e8c57600080fd5b60008160000160009054906101000a900473ffffffffffffffffffffffffffffffffffffffff169050600082600101549050611ec785612504565b6000811115611f41576000808373ffffffffffffffffffffffffffffffffffffffff1683604051611ef7906135a4565b60006040518083038185875af1925050503d8060008114611f34576040519150601f19603f3d011682016040523d82523d6000602084013e611f39565b606091505b509150915050505b5050505050565b611f62828260405180602001604052806000815250612582565b5050565b6000600660009054906101000a900473ffffffffffffffffffffffffffffffffffffffff16905081600660006101000a81548173ffffffffffffffffffffffffffffffffffffffff021916908373ffffffffffffffffffffffffffffffffffffffff1602179055508173ffffffffffffffffffffffffffffffffffffffff168173ffffffffffffffffffffffffffffffffffffffff167f8be0079c531659141344cd1fd0a4f28419497f9722a3daafe3b4186f6b6457e060405160405180910390a35050565b6000808260020160089054906101000a900467ffffffffffffffff1667ffffffffffffffff16119050919050565b61206381612504565b3073ffffffffffffffffffffffffffffffffffffffff166342842e0e3033846040518463ffffffff1660e01b81526004016120a0939291906134a1565b600060405180830381600087803b1580156120ba57600080fd5b505af11580156120ce573d6000803e3d6000fd5b5050505050565b8173ffffffffffffffffffffffffffffffffffffffff168373ffffffffffffffffffffffffffffffffffffffff1603612143576040517f08c379a000000000000000000000000000000000000000000000000000000000815260040161213a90613cc2565b60405180910390fd5b80600560008573ffffffffffffffffffffffffffffffffffffffff1673ffffffffffffffffffffffffffffffffffffffff16815260200190815260200160002060008473ffffffffffffffffffffffffffffffffffffffff1673ffffffffffffffffffffffffffffffffffffffff16815260200190815260200160002060006101000a81548160ff0219169083151502179055508173ffffffffffffffffffffffffffffffffffffffff168373ffffffffffffffffffffffffffffffffffffffff167f17307eab39ab6107e8899845ad3d59bd9653f200f220920489ca2b5937696c31836040516122349190612a3c565b60405180910390a3505050565b61224c848484611bd2565b612258848484846125dd565b612297576040517f08c379a000000000000000000000000000000000000000000000000000000000815260040161228e90613d54565b60405180910390fd5b50505050565b606060405180602001604052806000815250905090565b6060600082036122fb576040518060400160405280600181526020017f3000000000000000000000000000000000000000000000000000000000000000815250905061240f565b600082905060005b6000821461232d578080612316906136dd565b915050600a826123269190613c45565b9150612303565b60008167ffffffffffffffff81111561234957612348612c71565b5b6040519080825280601f01601f19166020018201604052801561237b5781602001600182028036833780820191505090505b5090505b60008514612408576001826123949190613b8c565b9150600a856123a39190613d74565b60306123af9190613bc0565b60f81b8183815181106123c5576123c4613823565b5b60200101907effffffffffffffffffffffffffffffffffffffffffffffffffffffffffffff1916908160001a905350600a856124019190613c45565b945061237f565b8093505050505b919050565b603c816040015167ffffffffffffffff16101561243057600080fd5b80600a600084815260200190815260200160002060008201518160000160006101000a81548173ffffffffffffffffffffffffffffffffffffffff021916908373ffffffffffffffffffffffffffffffffffffffff1602179055506020820151816001015560408201518160020160006101000a81548167ffffffffffffffff021916908367ffffffffffffffff16021790555060608201518160020160086101000a81548167ffffffffffffffff021916908367ffffffffffffffff1602179055509050505050565b505050565b505050565b600a6000828152602001908152602001600020600080820160006101000a81549073ffffffffffffffffffffffffffffffffffffffff021916905560018201600090556002820160006101000a81549067ffffffffffffffff02191690556002820160086101000a81549067ffffffffffffffff0219169055505050565b61258c8383612764565b61259960008484846125dd565b6125d8576040517f08c379a00000000000000000000000000000000000000000000000000000000081526004016125cf90613d54565b60405180910390fd5b505050565b60006125fe8473ffffffffffffffffffffffffffffffffffffffff1661293d565b15612757578373ffffffffffffffffffffffffffffffffffffffff1663150b7a02612627611a33565b8786866040518563ffffffff1660e01b81526004016126499493929190613dfa565b6020604051808303816000875af192505050801561268557506040513d601f19601f820116820180604052508101906126829190613e5b565b60015b612707573d80600081146126b5576040519150601f19603f3d011682016040523d82523d6000602084013e6126ba565b606091505b5060008151036126ff576040517f08c379a00000000000000000000000000000000000000000000000000000000081526004016126f690613d54565b60405180910390fd5b805181602001fd5b63150b7a0260e01b7bffffffffffffffffffffffffffffffffffffffffffffffffffffffff1916817bffffffffffffffffffffffffffffffffffffffffffffffffffffffff19161491505061275c565b600190505b949350505050565b600073ffffffffffffffffffffffffffffffffffffffff168273ffffffffffffffffffffffffffffffffffffffff16036127d3576040517f08c379a00000000000000000000000000000000000000000000000000000000081526004016127ca90613ed4565b60405180910390fd5b6127dc816119c7565b1561281c576040517f08c379a000000000000000000000000000000000000000000000000000000000815260040161281390613f40565b60405180910390fd5b612828600083836124fa565b6001600360008473ffffffffffffffffffffffffffffffffffffffff1673ffffffffffffffffffffffffffffffffffffffff16815260200190815260200160002060008282546128789190613bc0565b92505081905550816002600083815260200190815260200160002060006101000a81548173ffffffffffffffffffffffffffffffffffffffff021916908373ffffffffffffffffffffffffffffffffffffffff160217905550808273ffffffffffffffffffffffffffffffffffffffff16600073ffffffffffffffffffffffffffffffffffffffff167fddf252ad1be2c89b69c2b068fc378daa952ba7f163c4a11628f55a4df523b3ef60405160405180910390a4612939600083836124ff565b5050565b6000808273ffffffffffffffffffffffffffffffffffffffff163b119050919050565b6040518060800160405280600081526020016000815260200160008152602001600081525090565b6000604051905090565b600080fd5b600080fd5b60007fffffffff0000000000000000000000000000000000000000000000000000000082169050919050565b6129d18161299c565b81146129dc57600080fd5b50565b6000813590506129ee816129c8565b92915050565b600060208284031215612a0a57612a09612992565b5b6000612a18848285016129df565b91505092915050565b60008115159050919050565b612a3681612a21565b82525050565b6000602082019050612a516000830184612a2d565b92915050565b600081519050919050565b600082825260208201905092915050565b60005b83811015612a91578082015181840152602081019050612a76565b83811115612aa0576000848401525b50505050565b6000601f19601f8301169050919050565b6000612ac282612a57565b612acc8185612a62565b9350612adc818560208601612a73565b612ae581612aa6565b840191505092915050565b60006020820190508181036000830152612b0a8184612ab7565b905092915050565b6000819050919050565b612b2581612b12565b8114612b3057600080fd5b50565b600081359050612b4281612b1c565b92915050565b600060208284031215612b5e57612b5d612992565b5b6000612b6c84828501612b33565b91505092915050565b600073ffffffffffffffffffffffffffffffffffffffff82169050919050565b6000612ba082612b75565b9050919050565b612bb081612b95565b82525050565b6000602082019050612bcb6000830184612ba7565b92915050565b612bda81612b95565b8114612be557600080fd5b50565b600081359050612bf781612bd1565b92915050565b60008060408385031215612c1457612c13612992565b5b6000612c2285828601612be8565b9250506020612c3385828601612b33565b9150509250929050565b612c4681612b12565b82525050565b6000602082019050612c616000830184612c3d565b92915050565b600080fd5b600080fd5b7f4e487b7100000000000000000000000000000000000000000000000000000000600052604160045260246000fd5b612ca982612aa6565b810181811067ffffffffffffffff82111715612cc857612cc7612c71565b5b80604052505050565b6000612cdb612988565b9050612ce78282612ca0565b919050565b600067ffffffffffffffff821115612d0757612d06612c71565b5b612d1082612aa6565b9050602081019050919050565b82818337600083830152505050565b6000612d3f612d3a84612cec565b612cd1565b905082815260208101848484011115612d5b57612d5a612c6c565b5b612d66848285612d1d565b509392505050565b600082601f830112612d8357612d82612c67565b5b8135612d93848260208601612d2c565b91505092915050565b60008060008060808587031215612db657612db5612992565b5b6000612dc487828801612be8565b9450506020612dd587828801612be8565b9350506040612de687828801612b33565b925050606085013567ffffffffffffffff811115612e0757612e06612997565b5b612e1387828801612d6e565b91505092959194509250565b612e288161299c565b82525050565b6000602082019050612e436000830184612e1f565b92915050565b600080600060608486031215612e6257612e61612992565b5b6000612e7086828701612be8565b9350506020612e8186828701612be8565b9250506040612e9286828701612b33565b9150509250925092565b60008060008060808587031215612eb657612eb5612992565b5b6000612ec487828801612b33565b9450506020612ed587828801612b33565b9350506040612ee687828801612b33565b9250506060612ef787828801612b33565b91505092959194509250565b600060208284031215612f1957612f18612992565b5b6000612f2784828501612be8565b91505092915050565b600081519050919050565b600082825260208201905092915050565b6000819050602082019050919050565b612f6581612b12565b82525050565b6000612f778383612f5c565b60208301905092915050565b6000602082019050919050565b6000612f9b82612f30565b612fa58185612f3b565b9350612fb083612f4c565b8060005b83811015612fe1578151612fc88882612f6b565b9750612fd383612f83565b925050600181019050612fb4565b5085935050505092915050565b600060208201905081810360008301526130088184612f90565b905092915050565b61301981612a21565b811461302457600080fd5b50565b60008135905061303681613010565b92915050565b6000806040838503121561305357613052612992565b5b600061306185828601612be8565b925050602061307285828601613027565b9150509250929050565b6080820160008201516130926000850182612f5c565b5060208201516130a56020850182612f5c565b5060408201516130b86040850182612f5c565b5060608201516130cb6060850182612f5c565b50505050565b60006080820190506130e6600083018461307c565b92915050565b60008060006060848603121561310557613104612992565b5b600061311386828701612b33565b935050602061312486828701612b33565b925050604061313586828701612b33565b9150509250925092565b6000819050919050565b600061316461315f61315a84612b75565b61313f565b612b75565b9050919050565b600061317682613149565b9050919050565b60006131888261316b565b9050919050565b6131988161317d565b82525050565b60006020820190506131b3600083018461318f565b92915050565b600080604083850312156131d0576131cf612992565b5b60006131de85828601612be8565b92505060206131ef85828601612be8565b9150509250929050565b7f4e487b7100000000000000000000000000000000000000000000000000000000600052602260045260246000fd5b6000600282049050600182168061324057607f821691505b602082108103613253576132526131f9565b5b50919050565b7f4552433732313a20617070726f76656420717565727920666f72206e6f6e657860008201527f697374656e7420746f6b656e0000000000000000000000000000000000000000602082015250565b60006132b5602c83612a62565b91506132c082613259565b604082019050919050565b600060208201905081810360008301526132e4816132a8565b9050919050565b7f4552433732313a20617070726f76616c20746f2063757272656e74206f776e6560008201527f7200000000000000000000000000000000000000000000000000000000000000602082015250565b6000613347602183612a62565b9150613352826132eb565b604082019050919050565b600060208201905081810360008301526133768161333a565b9050919050565b7f4552433732313a20617070726f76652063616c6c6572206973206e6f74206f7760008201527f6e6572206e6f7220617070726f76656420666f7220616c6c0000000000000000602082015250565b60006133d9603883612a62565b91506133e48261337d565b604082019050919050565b60006020820190508181036000830152613408816133cc565b9050919050565b7f4552433732313a207472616e736665722063616c6c6572206973206e6f74206f60008201527f776e6572206e6f7220617070726f766564000000000000000000000000000000602082015250565b600061346b603183612a62565b91506134768261340f565b604082019050919050565b6000602082019050818103600083015261349a8161345e565b9050919050565b60006060820190506134b66000830186612ba7565b6134c36020830185612ba7565b6134d06040830184612c3d565b949350505050565b7f4e487b7100000000000000000000000000000000000000000000000000000000600052601160045260246000fd5b600061351282612b12565b915060008203613525576135246134d8565b5b600182039050919050565b50565b6000613540600083612a62565b915061354b82613530565b600082019050919050565b6000602082019050818103600083015261356f81613533565b9050919050565b600081905092915050565b600061358e600083613576565b915061359982613530565b600082019050919050565b60006135af82613581565b9150819050919050565b7f4552433732313a206f776e657220717565727920666f72206e6f6e657869737460008201527f656e7420746f6b656e0000000000000000000000000000000000000000000000602082015250565b6000613615602983612a62565b9150613620826135b9565b604082019050919050565b6000602082019050818103600083015261364481613608565b9050919050565b7f4e6f7420656e6f756768204554482073656e743b20636865636b20707269636560008201527f2100000000000000000000000000000000000000000000000000000000000000602082015250565b60006136a7602183612a62565b91506136b28261364b565b604082019050919050565b600060208201905081810360008301526136d68161369a565b9050919050565b60006136e882612b12565b91507fffffffffffffffffffffffffffffffffffffffffffffffffffffffffffffffff820361371a576137196134d8565b5b600182019050919050565b7f4552433732313a2062616c616e636520717565727920666f7220746865207a6560008201527f726f206164647265737300000000000000000000000000000000000000000000602082015250565b6000613781602a83612a62565b915061378c82613725565b604082019050919050565b600060208201905081810360008301526137b081613774565b9050919050565b7f4f776e61626c653a2063616c6c6572206973206e6f7420746865206f776e6572600082015250565b60006137ed602083612a62565b91506137f8826137b7565b602082019050919050565b6000602082019050818103600083015261381c816137e0565b9050919050565b7f4e487b7100000000000000000000000000000000000000000000000000000000600052603260045260246000fd5b7f4552433732314d657461646174613a2055524920717565727920666f72206e6f60008201527f6e6578697374656e7420746f6b656e0000000000000000000000000000000000602082015250565b60006138ae602f83612a62565b91506138b982613852565b604082019050919050565b600060208201905081810360008301526138dd816138a1565b9050919050565b600081905092915050565b60006138fa82612a57565b61390481856138e4565b9350613914818560208601612a73565b80840191505092915050565b600061392c82856138ef565b915061393882846138ef565b91508190509392505050565b7f4f776e61626c653a206e6577206f776e657220697320746865207a65726f206160008201527f6464726573730000000000000000000000000000000000000000000000000000602082015250565b60006139a0602683612a62565b91506139ab82613944565b604082019050919050565b600060208201905081810360008301526139cf81613993565b9050919050565b7f4552433732313a206f70657261746f7220717565727920666f72206e6f6e657860008201527f697374656e7420746f6b656e0000000000000000000000000000000000000000602082015250565b6000613a32602c83612a62565b9150613a3d826139d6565b604082019050919050565b60006020820190508181036000830152613a6181613a25565b9050919050565b7f4552433732313a207472616e736665722066726f6d20696e636f72726563742060008201527f6f776e6572000000000000000000000000000000000000000000000000000000602082015250565b6000613ac4602583612a62565b9150613acf82613a68565b604082019050919050565b60006020820190508181036000830152613af381613ab7565b9050919050565b7f4552433732313a207472616e7366657220746f20746865207a65726f2061646460008201527f7265737300000000000000000000000000000000000000000000000000000000602082015250565b6000613b56602483612a62565b9150613b6182613afa565b604082019050919050565b60006020820190508181036000830152613b8581613b49565b9050919050565b6000613b9782612b12565b9150613ba283612b12565b925082821015613bb557613bb46134d8565b5b828203905092915050565b6000613bcb82612b12565b9150613bd683612b12565b9250827fffffffffffffffffffffffffffffffffffffffffffffffffffffffffffffffff03821115613c0b57613c0a6134d8565b5b828201905092915050565b7f4e487b7100000000000000000000000000000000000000000000000000000000600052601260045260246000fd5b6000613c5082612b12565b9150613c5b83612b12565b925082613c6b57613c6a613c16565b5b828204905092915050565b7f4552433732313a20617070726f766520746f2063616c6c657200000000000000600082015250565b6000613cac601983612a62565b9150613cb782613c76565b602082019050919050565b60006020820190508181036000830152613cdb81613c9f565b9050919050565b7f4552433732313a207472616e7366657220746f206e6f6e20455243373231526560008201527f63656976657220696d706c656d656e7465720000000000000000000000000000602082015250565b6000613d3e603283612a62565b9150613d4982613ce2565b604082019050919050565b60006020820190508181036000830152613d6d81613d31565b9050919050565b6000613d7f82612b12565b9150613d8a83612b12565b925082613d9a57613d99613c16565b5b828206905092915050565b600081519050919050565b600082825260208201905092915050565b6000613dcc82613da5565b613dd68185613db0565b9350613de6818560208601612a73565b613def81612aa6565b840191505092915050565b6000608082019050613e0f6000830187612ba7565b613e1c6020830186612ba7565b613e296040830185612c3d565b8181036060830152613e3b8184613dc1565b905095945050505050565b600081519050613e55816129c8565b92915050565b600060208284031215613e7157613e70612992565b5b6000613e7f84828501613e46565b91505092915050565b7f4552433732313a206d696e7420746f20746865207a65726f2061646472657373600082015250565b6000613ebe602083612a62565b9150613ec982613e88565b602082019050919050565b60006020820190508181036000830152613eed81613eb1565b9050919050565b7f4552433732313a20746f6b656e20616c7265616479206d696e74656400000000600082015250565b6000613f2a601c83612a62565b9150613f3582613ef4565b602082019050919050565b60006020820190508181036000830152613f5981613f1d565b905091905056fea2646970667358221220dd5af8318ef81bcc480cce4a42016dd7c66b503411a6e274a11d9a627bdaf5b364736f6c634300080d0033",
	"immutableReferences": {},
	"source": "pragma solidity 0.8.13;\r\n\r\nimport \"../node_modules/@openzeppelin/contracts/token/ERC721/ERC721.sol\";\r\nimport \"../node_modules/@openzeppelin/contracts/access/Ownable.sol\";\r\n\r\ncontract Token is ERC721, Ownable, IERC721Receiver{\r\n\r\n    /////////////////////////////////////////////Global Variables///////////////////////////////////////////////////\r\n    struct AIA {\r\n        uint256 attribute1; \r\n        uint256 attribute2;\r\n        uint256 attribute3;\r\n        uint256 attribute4;\r\n    }\r\n    struct Auction {\r\n        // Current owner of NFT\r\n        address seller;\r\n        // Price (in wei) at beginning of auction\r\n        uint256 price;\r\n        // Duration\r\n        uint64 duration;\r\n        // Time when auction started\r\n        uint64 startedAt;\r\n    }\r\n    ERC721 public nonFungibleContract = ERC721(address(this));\r\n    uint256 nextId = 0;\r\n    // Map from token ID to their corresponding auction.\r\n    mapping (address => uint256) userToNumonAuction;\r\n    mapping (uint256 => Auction) tokenIdToAuction;\r\n    mapping ( uint256 => AIA) private _tokenDetails;\r\n\r\n    /////////////////////////////////////////////Constructor///////////////////////////////////////////////////\r\n    constructor (string memory name, string memory symbol) ERC721(name, symbol){\r\n\r\n    }\r\n\r\n    /////////////////////////////////////////////Main Functions///////////////////////////////////////////////////\r\n    function createAuction(uint256 _tokenId, uint256 _price, uint256 _duration) external {\r\n        // Sanity check that no inputs overflow how many bits we've allocated\r\n        // to store them in the auction struct.\r\n        require(_price == uint256(uint256(_price)));\r\n        require(_duration == uint256(uint64(_duration)));\r\n\r\n        require(ownerOf(_tokenId) == msg.sender);\r\n        safeTransferFrom(msg.sender, address(this), _tokenId);\r\n        Auction memory auction = Auction(\r\n            msg.sender,\r\n            uint256(_price),\r\n            uint64(_duration),\r\n            uint64(block.timestamp)\r\n        );\r\n        _addAuction(_tokenId, auction);\r\n        userToNumonAuction[msg.sender] ++;\r\n    }\r\n\r\n\r\n\r\n    function cancelAuction(uint256 _tokenId) external {\r\n        Auction storage auction = tokenIdToAuction[_tokenId];\r\n        require(_isOnAuction(auction));\r\n        address seller = auction.seller;\r\n        require(msg.sender == seller);\r\n        userToNumonAuction[msg.sender] --;\r\n        _cancelAuction(_tokenId);\r\n        \r\n    }\r\n\r\n    function bid(uint256 _tokenId) external payable {\r\n        // _bid will throw if the bid or funds transfer fails\r\n        address seller = tokenIdToAuction[_tokenId].seller;\r\n        _bid(_tokenId, msg.value);\r\n        this.safeTransferFrom(address(this), msg.sender, _tokenId);\r\n        userToNumonAuction[seller]--;\r\n    }\r\n\r\n    function getPrice(uint256 _tokenId) public view returns (uint256){\r\n        tokenIdToAuction[_tokenId];\r\n        return tokenIdToAuction[_tokenId].price;\r\n    }\r\n\r\n    function getBalance() public view returns (uint256){\r\n        return address(this).balance;\r\n    }\r\n\r\n    function withdrawBalance() external payable{\r\n        require(msg.sender == owner(), \"\");\r\n        (bool sent, bytes memory data) = payable(address(owner())).call{value:address(this).balance}(\"\");\r\n\r\n    }\r\n\r\n    function getTokenDetails (uint256 tokenId) public view returns (AIA memory){\r\n        return _tokenDetails[tokenId];\r\n    }\r\n\r\n    function mint(uint256 attribute1, uint256 attribute2, uint256 attribute3, uint256 attribute4) external payable {\r\n        require(msg.value >= 1 ether, \"Not enough ETH sent; check price!\");\r\n        _tokenDetails[nextId] = AIA(attribute1, attribute2, attribute3, attribute4);\r\n        _safeMint(msg.sender, nextId);\r\n        nextId++;\r\n    }\r\n\r\n    function getAllTokensForUser(address user) public view returns (uint256[] memory){\r\n        uint256 tokenCount = balanceOf(user);\r\n        if(tokenCount ==0){\r\n            return new uint256[](0);\r\n        }\r\n        else{\r\n            uint256[] memory result = new uint256[](tokenCount);\r\n            uint256 totalAIAs = nextId;\r\n            uint256 resultIndex = 0;\r\n            uint256 i;\r\n            for(i=0; i < totalAIAs; i++)\r\n            {\r\n                if(ownerOf(i) == user)\r\n                {\r\n                    result[resultIndex] = i;\r\n                    resultIndex++;\r\n                }\r\n            }\r\n            return result;\r\n        }\r\n    }\r\n\r\n    function getTokensonAuctionForUser(address user) public view returns (uint256[] memory){\r\n        if(userToNumonAuction[user] ==0){\r\n            return new uint256[](0);\r\n        }\r\n        else{\r\n            uint256[] memory result = new uint256[](userToNumonAuction[user]);\r\n            uint256 totalAIAs = nextId;\r\n            uint256 resultIndex = 0;\r\n            uint256 i;\r\n            for(i=0; i < totalAIAs; i++)\r\n            {\r\n                Auction memory auction = tokenIdToAuction[i];\r\n                if(auction.seller == user)\r\n                {\r\n                    result[resultIndex] = i;\r\n                    resultIndex++;\r\n                }\r\n            }\r\n            return result;\r\n        }\r\n    }\r\n\r\n    /////////////////////////////////////////////Helper Functions///////////////////////////////////////////////////\r\n    function onERC721Received(address, address, uint256, bytes memory) public virtual override returns (bytes4) {\r\n        return this.onERC721Received.selector;\r\n    }\r\n\r\n    function _addAuction(uint256 _tokenId, Auction memory _auction) internal {\r\n        // Require that all auctions have a duration of\r\n        // at least one minute. (Keeps our math from getting hairy!)\r\n        require(_auction.duration >= 1 minutes);\r\n        tokenIdToAuction[_tokenId] = _auction;\r\n    }\r\n\r\n    function _removeAuction(uint256 _tokenId) internal {\r\n        delete tokenIdToAuction[_tokenId];\r\n    }\r\n\r\n    function _isOnAuction(Auction storage _auction) internal view returns (bool) {\r\n        return (_auction.startedAt > 0);\r\n    }\r\n\r\n    /// @dev Cancels an auction unconditionally.\r\n    function _cancelAuction(uint256 _tokenId) internal {\r\n        _removeAuction(_tokenId);\r\n        this.safeTransferFrom(address(this), msg.sender, _tokenId);\r\n    }\r\n\r\n    function _bid(uint256 _tokenId, uint256 paidAmout) internal {\r\n        // Get a reference to the auction struct\r\n        Auction storage auction = tokenIdToAuction[_tokenId];\r\n        require(_isOnAuction(auction));\r\n        // Check that price is equal\r\n        require(auction.price / 5 + auction.price == paidAmout);\r\n\r\n        // Grab a reference to the seller before the auction struct\r\n        // gets deleted.\r\n        address payable seller = payable(auction.seller);\r\n        uint256 price = auction.price;\r\n        _removeAuction(_tokenId);\r\n        // Transfer proceeds to seller (if there are any!)\r\n        if (price > 0) {\r\n            // Calculate the auctioneer's cut.\r\n            // (NOTE: _computeCut() is guaranteed to return a\r\n            // value <= price, so this subtraction can't go negative.)\r\n\r\n            // NOTE: Doing a transfer() in the middle of a complex\r\n            // method like this is generally discouraged because of\r\n            // reentrancy attacks and DoS attacks if the seller is\r\n            // a contract with an invalid fallback function. We explicitly\r\n            // guard against reentrancy attacks by removing the auction\r\n            // before calling transfer(), and the only thing the seller\r\n            // can DoS is the sale of their own asset! (And if it's an\r\n            // accident, they can call cancelAuction(). )\r\n            (bool sent, bytes memory data) = payable(seller).call{value:price}(\"\");\r\n        }\r\n    }\r\n\r\n}",
	"sourcePath": "C:\\Users\\Niven\\Documents\\AIA\\contracts\\Token.sol",
	"compiler": {
		"name": "solc",
		"version": "0.8.13+commit.abaa5c0e.Emscripten.clang"
	},
	"schemaVersion": "3.4.6",
	"updatedAt": "2022-04-03T00:37:00.921Z",
	"networkType": "ethereum",
	"devdoc": {
		"kind": "dev",
		"methods": {
			"approve(address,uint256)": {
				"details": "See {IERC721-approve}."
			},
			"balanceOf(address)": {
				"details": "See {IERC721-balanceOf}."
			},
			"getApproved(uint256)": {
				"details": "See {IERC721-getApproved}."
			},
			"isApprovedForAll(address,address)": {
				"details": "See {IERC721-isApprovedForAll}."
			},
			"name()": {
				"details": "See {IERC721Metadata-name}."
			},
			"owner()": {
				"details": "Returns the address of the current owner."
			},
			"ownerOf(uint256)": {
				"details": "See {IERC721-ownerOf}."
			},
			"renounceOwnership()": {
				"details": "Leaves the contract without owner. It will not be possible to call `onlyOwner` functions anymore. Can only be called by the current owner. NOTE: Renouncing ownership will leave the contract without an owner, thereby removing any functionality that is only available to the owner."
			},
			"safeTransferFrom(address,address,uint256)": {
				"details": "See {IERC721-safeTransferFrom}."
			},
			"safeTransferFrom(address,address,uint256,bytes)": {
				"details": "See {IERC721-safeTransferFrom}."
			},
			"setApprovalForAll(address,bool)": {
				"details": "See {IERC721-setApprovalForAll}."
			},
			"supportsInterface(bytes4)": {
				"details": "See {IERC165-supportsInterface}."
			},
			"symbol()": {
				"details": "See {IERC721Metadata-symbol}."
			},
			"tokenURI(uint256)": {
				"details": "See {IERC721Metadata-tokenURI}."
			},
			"transferFrom(address,address,uint256)": {
				"details": "See {IERC721-transferFrom}."
			},
			"transferOwnership(address)": {
				"details": "Transfers ownership of the contract to a new account (`newOwner`). Can only be called by the current owner."
			}
		},
		"version": 1
	},
	"userdoc": {
		"kind": "user",
		"methods": {},
		"version": 1
	}
}