{
  "contractName": "Token",
  "abi": [
    {
      "inputs": [
        {
          "internalType": "string",
          "name": "name",
          "type": "string"
        },
        {
          "internalType": "string",
          "name": "symbol",
          "type": "string"
        },
        {
          "internalType": "uint64",
          "name": "subscriptionId",
          "type": "uint64"
        },
        {
          "internalType": "uint64",
          "name": "_totalSupply",
          "type": "uint64"
        }
      ],
      "stateMutability": "nonpayable",
      "type": "constructor"
    },
    {
      "inputs": [
        {
          "internalType": "address",
          "name": "have",
          "type": "address"
        },
        {
          "internalType": "address",
          "name": "want",
          "type": "address"
        }
      ],
      "name": "OnlyCoordinatorCanFulfill",
      "type": "error"
    },
    {
      "anonymous": false,
      "inputs": [
        {
          "indexed": true,
          "internalType": "address",
          "name": "owner",
          "type": "address"
        },
        {
          "indexed": true,
          "internalType": "address",
          "name": "approved",
          "type": "address"
        },
        {
          "indexed": true,
          "internalType": "uint256",
          "name": "tokenId",
          "type": "uint256"
        }
      ],
      "name": "Approval",
      "type": "event"
    },
    {
      "anonymous": false,
      "inputs": [
        {
          "indexed": true,
          "internalType": "address",
          "name": "owner",
          "type": "address"
        },
        {
          "indexed": true,
          "internalType": "address",
          "name": "operator",
          "type": "address"
        },
        {
          "indexed": false,
          "internalType": "bool",
          "name": "approved",
          "type": "bool"
        }
      ],
      "name": "ApprovalForAll",
      "type": "event"
    },
    {
      "anonymous": false,
      "inputs": [
        {
          "indexed": true,
          "internalType": "address",
          "name": "owner",
          "type": "address"
        },
        {
          "indexed": true,
          "internalType": "uint256",
          "name": "tokenId",
          "type": "uint256"
        },
        {
          "indexed": false,
          "internalType": "uint256",
          "name": "timestamp",
          "type": "uint256"
        }
      ],
      "name": "CancelAnListedItem",
      "type": "event"
    },
    {
      "anonymous": false,
      "inputs": [
        {
          "indexed": true,
          "internalType": "address",
          "name": "owner",
          "type": "address"
        },
        {
          "indexed": true,
          "internalType": "uint256",
          "name": "tokenId",
          "type": "uint256"
        },
        {
          "indexed": false,
          "internalType": "uint256",
          "name": "price",
          "type": "uint256"
        },
        {
          "indexed": false,
          "internalType": "uint256",
          "name": "timestamp",
          "type": "uint256"
        }
      ],
      "name": "ListAnItem",
      "type": "event"
    },
    {
      "anonymous": false,
      "inputs": [
        {
          "indexed": true,
          "internalType": "address",
          "name": "owner",
          "type": "address"
        },
        {
          "indexed": true,
          "internalType": "uint256",
          "name": "tokenId",
          "type": "uint256"
        },
        {
          "indexed": false,
          "internalType": "uint256",
          "name": "timestamp",
          "type": "uint256"
        }
      ],
      "name": "Mint",
      "type": "event"
    },
    {
      "anonymous": false,
      "inputs": [
        {
          "indexed": true,
          "internalType": "address",
          "name": "previousOwner",
          "type": "address"
        },
        {
          "indexed": true,
          "internalType": "address",
          "name": "newOwner",
          "type": "address"
        }
      ],
      "name": "OwnershipTransferred",
      "type": "event"
    },
    {
      "anonymous": false,
      "inputs": [
        {
          "indexed": true,
          "internalType": "address",
          "name": "buyer",
          "type": "address"
        },
        {
          "indexed": true,
          "internalType": "uint256",
          "name": "tokenId",
          "type": "uint256"
        },
        {
          "indexed": true,
          "internalType": "address",
          "name": "seller",
          "type": "address"
        },
        {
          "indexed": false,
          "internalType": "uint256",
          "name": "price",
          "type": "uint256"
        },
        {
          "indexed": false,
          "internalType": "uint256",
          "name": "timestamp",
          "type": "uint256"
        }
      ],
      "name": "PurchaseAnItem",
      "type": "event"
    },
    {
      "anonymous": false,
      "inputs": [
        {
          "indexed": true,
          "internalType": "address",
          "name": "from",
          "type": "address"
        },
        {
          "indexed": true,
          "internalType": "address",
          "name": "to",
          "type": "address"
        },
        {
          "indexed": true,
          "internalType": "uint256",
          "name": "tokenId",
          "type": "uint256"
        }
      ],
      "name": "Transfer",
      "type": "event"
    },
    {
      "inputs": [
        {
          "internalType": "address",
          "name": "to",
          "type": "address"
        },
        {
          "internalType": "uint256",
          "name": "tokenId",
          "type": "uint256"
        }
      ],
      "name": "approve",
      "outputs": [],
      "stateMutability": "nonpayable",
      "type": "function"
    },
    {
      "inputs": [
        {
          "internalType": "address",
          "name": "owner",
          "type": "address"
        }
      ],
      "name": "balanceOf",
      "outputs": [
        {
          "internalType": "uint256",
          "name": "",
          "type": "uint256"
        }
      ],
      "stateMutability": "view",
      "type": "function",
      "constant": true
    },
    {
      "inputs": [
        {
          "internalType": "uint256",
          "name": "tokenId",
          "type": "uint256"
        }
      ],
      "name": "getApproved",
      "outputs": [
        {
          "internalType": "address",
          "name": "",
          "type": "address"
        }
      ],
      "stateMutability": "view",
      "type": "function",
      "constant": true
    },
    {
      "inputs": [
        {
          "internalType": "address",
          "name": "owner",
          "type": "address"
        },
        {
          "internalType": "address",
          "name": "operator",
          "type": "address"
        }
      ],
      "name": "isApprovedForAll",
      "outputs": [
        {
          "internalType": "bool",
          "name": "",
          "type": "bool"
        }
      ],
      "stateMutability": "view",
      "type": "function",
      "constant": true
    },
    {
      "inputs": [],
      "name": "name",
      "outputs": [
        {
          "internalType": "string",
          "name": "",
          "type": "string"
        }
      ],
      "stateMutability": "view",
      "type": "function",
      "constant": true
    },
    {
      "inputs": [],
      "name": "owner",
      "outputs": [
        {
          "internalType": "address",
          "name": "",
          "type": "address"
        }
      ],
      "stateMutability": "view",
      "type": "function",
      "constant": true
    },
    {
      "inputs": [
        {
          "internalType": "uint256",
          "name": "tokenId",
          "type": "uint256"
        }
      ],
      "name": "ownerOf",
      "outputs": [
        {
          "internalType": "address",
          "name": "",
          "type": "address"
        }
      ],
      "stateMutability": "view",
      "type": "function",
      "constant": true
    },
    {
      "inputs": [
        {
          "internalType": "uint256",
          "name": "requestId",
          "type": "uint256"
        },
        {
          "internalType": "uint256[]",
          "name": "randomWords",
          "type": "uint256[]"
        }
      ],
      "name": "rawFulfillRandomWords",
      "outputs": [],
      "stateMutability": "nonpayable",
      "type": "function"
    },
    {
      "inputs": [],
      "name": "renounceOwnership",
      "outputs": [],
      "stateMutability": "nonpayable",
      "type": "function"
    },
    {
      "inputs": [],
      "name": "s_requestId",
      "outputs": [
        {
          "internalType": "uint256",
          "name": "",
          "type": "uint256"
        }
      ],
      "stateMutability": "view",
      "type": "function",
      "constant": true
    },
    {
      "inputs": [
        {
          "internalType": "address",
          "name": "from",
          "type": "address"
        },
        {
          "internalType": "address",
          "name": "to",
          "type": "address"
        },
        {
          "internalType": "uint256",
          "name": "tokenId",
          "type": "uint256"
        }
      ],
      "name": "safeTransferFrom",
      "outputs": [],
      "stateMutability": "nonpayable",
      "type": "function"
    },
    {
      "inputs": [
        {
          "internalType": "address",
          "name": "from",
          "type": "address"
        },
        {
          "internalType": "address",
          "name": "to",
          "type": "address"
        },
        {
          "internalType": "uint256",
          "name": "tokenId",
          "type": "uint256"
        },
        {
          "internalType": "bytes",
          "name": "_data",
          "type": "bytes"
        }
      ],
      "name": "safeTransferFrom",
      "outputs": [],
      "stateMutability": "nonpayable",
      "type": "function"
    },
    {
      "inputs": [
        {
          "internalType": "address",
          "name": "operator",
          "type": "address"
        },
        {
          "internalType": "bool",
          "name": "approved",
          "type": "bool"
        }
      ],
      "name": "setApprovalForAll",
      "outputs": [],
      "stateMutability": "nonpayable",
      "type": "function"
    },
    {
      "inputs": [
        {
          "internalType": "bytes4",
          "name": "interfaceId",
          "type": "bytes4"
        }
      ],
      "name": "supportsInterface",
      "outputs": [
        {
          "internalType": "bool",
          "name": "",
          "type": "bool"
        }
      ],
      "stateMutability": "view",
      "type": "function",
      "constant": true
    },
    {
      "inputs": [],
      "name": "symbol",
      "outputs": [
        {
          "internalType": "string",
          "name": "",
          "type": "string"
        }
      ],
      "stateMutability": "view",
      "type": "function",
      "constant": true
    },
    {
      "inputs": [
        {
          "internalType": "uint256",
          "name": "tokenId",
          "type": "uint256"
        }
      ],
      "name": "tokenURI",
      "outputs": [
        {
          "internalType": "string",
          "name": "",
          "type": "string"
        }
      ],
      "stateMutability": "view",
      "type": "function",
      "constant": true
    },
    {
      "inputs": [
        {
          "internalType": "address",
          "name": "from",
          "type": "address"
        },
        {
          "internalType": "address",
          "name": "to",
          "type": "address"
        },
        {
          "internalType": "uint256",
          "name": "tokenId",
          "type": "uint256"
        }
      ],
      "name": "transferFrom",
      "outputs": [],
      "stateMutability": "nonpayable",
      "type": "function"
    },
    {
      "inputs": [
        {
          "internalType": "address",
          "name": "newOwner",
          "type": "address"
        }
      ],
      "name": "transferOwnership",
      "outputs": [],
      "stateMutability": "nonpayable",
      "type": "function"
    },
    {
      "inputs": [],
      "name": "requestRandomWords",
      "outputs": [],
      "stateMutability": "nonpayable",
      "type": "function"
    },
    {
      "inputs": [],
      "name": "shuffle",
      "outputs": [],
      "stateMutability": "nonpayable",
      "type": "function"
    },
    {
      "inputs": [],
      "name": "getOrder",
      "outputs": [
        {
          "internalType": "uint256[]",
          "name": "",
          "type": "uint256[]"
        }
      ],
      "stateMutability": "view",
      "type": "function",
      "constant": true
    },
    {
      "inputs": [],
      "name": "getTotalnumMint",
      "outputs": [
        {
          "internalType": "uint256",
          "name": "",
          "type": "uint256"
        }
      ],
      "stateMutability": "view",
      "type": "function",
      "constant": true
    },
    {
      "inputs": [],
      "name": "mint",
      "outputs": [],
      "stateMutability": "payable",
      "type": "function",
      "payable": true
    },
    {
      "inputs": [],
      "name": "owner_mint",
      "outputs": [],
      "stateMutability": "payable",
      "type": "function",
      "payable": true
    },
    {
      "inputs": [],
      "name": "getBalance",
      "outputs": [
        {
          "internalType": "uint256",
          "name": "",
          "type": "uint256"
        }
      ],
      "stateMutability": "view",
      "type": "function",
      "constant": true
    },
    {
      "inputs": [],
      "name": "withdrawBalance",
      "outputs": [],
      "stateMutability": "payable",
      "type": "function",
      "payable": true
    },
    {
      "inputs": [
        {
          "internalType": "address",
          "name": "user",
          "type": "address"
        }
      ],
      "name": "getAllTokensForUser",
      "outputs": [
        {
          "internalType": "uint256[]",
          "name": "",
          "type": "uint256[]"
        }
      ],
      "stateMutability": "view",
      "type": "function",
      "constant": true
    },
    {
      "inputs": [
        {
          "internalType": "uint256",
          "name": "_tokenId",
          "type": "uint256"
        }
      ],
      "name": "getItemDetail",
      "outputs": [
        {
          "components": [
            {
              "internalType": "address payable",
              "name": "seller",
              "type": "address"
            },
            {
              "internalType": "uint256",
              "name": "price",
              "type": "uint256"
            },
            {
              "internalType": "uint256",
              "name": "startedAt",
              "type": "uint256"
            },
            {
              "internalType": "bool",
              "name": "isSelling",
              "type": "bool"
            }
          ],
          "internalType": "struct Token.Item",
          "name": "",
          "type": "tuple"
        }
      ],
      "stateMutability": "view",
      "type": "function",
      "constant": true
    },
    {
      "inputs": [
        {
          "internalType": "uint256",
          "name": "_tokenId",
          "type": "uint256"
        },
        {
          "internalType": "uint256",
          "name": "_price",
          "type": "uint256"
        }
      ],
      "name": "sell",
      "outputs": [],
      "stateMutability": "nonpayable",
      "type": "function"
    },
    {
      "inputs": [
        {
          "internalType": "uint256",
          "name": "_tokenId",
          "type": "uint256"
        }
      ],
      "name": "cancelSell",
      "outputs": [],
      "stateMutability": "nonpayable",
      "type": "function"
    },
    {
      "inputs": [
        {
          "internalType": "uint256",
          "name": "_tokenId",
          "type": "uint256"
        }
      ],
      "name": "purchaseItem",
      "outputs": [],
      "stateMutability": "payable",
      "type": "function",
      "payable": true
    },
    {
      "inputs": [
        {
          "internalType": "address",
          "name": "user",
          "type": "address"
        }
      ],
      "name": "getListedItemsForUser",
      "outputs": [
        {
          "internalType": "uint256[]",
          "name": "",
          "type": "uint256[]"
        }
      ],
      "stateMutability": "view",
      "type": "function",
      "constant": true
    },
    {
      "inputs": [
        {
          "internalType": "address",
          "name": "",
          "type": "address"
        },
        {
          "internalType": "address",
          "name": "",
          "type": "address"
        },
        {
          "internalType": "uint256",
          "name": "",
          "type": "uint256"
        },
        {
          "internalType": "bytes",
          "name": "",
          "type": "bytes"
        }
      ],
      "name": "onERC721Received",
      "outputs": [
        {
          "internalType": "bytes4",
          "name": "",
          "type": "bytes4"
        }
      ],
      "stateMutability": "nonpayable",
      "type": "function"
    },
    {
      "inputs": [
        {
          "internalType": "uint256",
          "name": "v",
          "type": "uint256"
        }
      ],
      "name": "uintToString",
      "outputs": [
        {
          "internalType": "string",
          "name": "",
          "type": "string"
        }
      ],
      "stateMutability": "pure",
      "type": "function",
      "constant": true
    }
  ],
  "bytecode": "0x60a0604052736168499c0cffcacd319c818142124b7a15e857ab600a60006101000a81548173ffffffffffffffffffffffffffffffffffffffff021916908373ffffffffffffffffffffffffffffffffffffffff1602179055507fd89b2bf150e3b9e13446986e571fb9cab24b13cea0a43ea20a6049a85cc807cc60001b600b55620186a0600c60006101000a81548163ffffffff021916908363ffffffff1602179055506003600c60046101000a81548161ffff021916908361ffff1602179055506001600c60066101000a81548163ffffffff021916908363ffffffff1602179055506000601055600a60d05560405180606001604052806036815260200162005e686036913960d190805190602001906200011f9291906200040a565b506040518060400160405280600581526020017f2e6a736f6e00000000000000000000000000000000000000000000000000000081525060d290805190602001906200016d9291906200040a565b503480156200017b57600080fd5b5060405162005e9e38038062005e9e8339818101604052810190620001a191906200069c565b8383600a60009054906101000a900473ffffffffffffffffffffffffffffffffffffffff16620001e6620001da6200033e60201b60201c565b6200034660201b60201c565b600180819055508073ffffffffffffffffffffffffffffffffffffffff1660808173ffffffffffffffffffffffffffffffffffffffff16815250505081600290805190602001906200023a9291906200040a565b508060039080519060200190620002539291906200040a565b505050600a60009054906101000a900473ffffffffffffffffffffffffffffffffffffffff16600960006101000a81548173ffffffffffffffffffffffffffffffffffffffff021916908373ffffffffffffffffffffffffffffffffffffffff16021790555033600f60006101000a81548173ffffffffffffffffffffffffffffffffffffffff021916908373ffffffffffffffffffffffffffffffffffffffff16021790555081600960146101000a81548167ffffffffffffffff021916908367ffffffffffffffff1602179055508067ffffffffffffffff1660cf8190555050505050620007b0565b600033905090565b60008060009054906101000a900473ffffffffffffffffffffffffffffffffffffffff169050816000806101000a81548173ffffffffffffffffffffffffffffffffffffffff021916908373ffffffffffffffffffffffffffffffffffffffff1602179055508173ffffffffffffffffffffffffffffffffffffffff168173ffffffffffffffffffffffffffffffffffffffff167f8be0079c531659141344cd1fd0a4f28419497f9722a3daafe3b4186f6b6457e060405160405180910390a35050565b82805462000418906200077b565b90600052602060002090601f0160209004810192826200043c576000855562000488565b82601f106200045757805160ff191683800117855562000488565b8280016001018555821562000488579182015b82811115620004875782518255916020019190600101906200046a565b5b5090506200049791906200049b565b5090565b5b80821115620004b65760008160009055506001016200049c565b5090565b6000604051905090565b600080fd5b600080fd5b600080fd5b600080fd5b6000601f19601f8301169050919050565b7f4e487b7100000000000000000000000000000000000000000000000000000000600052604160045260246000fd5b6200052382620004d8565b810181811067ffffffffffffffff82111715620005455762000544620004e9565b5b80604052505050565b60006200055a620004ba565b905062000568828262000518565b919050565b600067ffffffffffffffff8211156200058b576200058a620004e9565b5b6200059682620004d8565b9050602081019050919050565b60005b83811015620005c3578082015181840152602081019050620005a6565b83811115620005d3576000848401525b50505050565b6000620005f0620005ea846200056d565b6200054e565b9050828152602081018484840111156200060f576200060e620004d3565b5b6200061c848285620005a3565b509392505050565b600082601f8301126200063c576200063b620004ce565b5b81516200064e848260208601620005d9565b91505092915050565b600067ffffffffffffffff82169050919050565b620006768162000657565b81146200068257600080fd5b50565b60008151905062000696816200066b565b92915050565b60008060008060808587031215620006b957620006b8620004c4565b5b600085015167ffffffffffffffff811115620006da57620006d9620004c9565b5b620006e88782880162000624565b945050602085015167ffffffffffffffff8111156200070c576200070b620004c9565b5b6200071a8782880162000624565b93505060406200072d8782880162000685565b9250506060620007408782880162000685565b91505092959194509250565b7f4e487b7100000000000000000000000000000000000000000000000000000000600052602260045260246000fd5b600060028204905060018216806200079457607f821691505b602082108103620007aa57620007a96200074c565b5b50919050565b608051615695620007d360003960008181610f210152610f7501526156956000f3fe6080604052600436106101f95760003560e01c806370a082311161010d578063c87b56dd116100a0578063e0c862891161006f578063e0c86289146106d5578063e89e106a146106ec578063e939567914610717578063e985e9c514610754578063f2fde38b14610791576101f9565b8063c87b56dd14610628578063d36dedd214610665578063d38ea5bf14610690578063d79875eb146106ac576101f9565b80638da5cb5b116100dc5780638da5cb5b1461058057806395d89b41146105ab578063a22cb465146105d6578063b88d4fde146105ff576101f9565b806370a08231146104e5578063715018a6146105225780637697022d1461053957806382de8fe914610543576101f9565b80631fe543e31161019057806342842e0e1161015f57806342842e0e1461040d5780635164b3b81461043657806356663b2f146104735780635fd8c7101461049e5780636352211e146104a8576101f9565b80631fe543e31461036757806323b872dd146103905780632520bf04146103b95780632888df2a146103d0576101f9565b8063095ea7b3116101cc578063095ea7b3146102cc57806312065fe0146102f55780631249c58b14610320578063150b7a021461032a576101f9565b806301ffc9a7146101fe57806306fdde031461023b57806307c9cd4514610266578063081812fc1461028f575b600080fd5b34801561020a57600080fd5b5061022560048036038101906102209190613bdc565b6107ba565b6040516102329190613c24565b60405180910390f35b34801561024757600080fd5b5061025061089c565b60405161025d9190613cd8565b60405180910390f35b34801561027257600080fd5b5061028d60048036038101906102889190613d30565b61092e565b005b34801561029b57600080fd5b506102b660048036038101906102b19190613d30565b610bda565b6040516102c39190613d9e565b60405180910390f35b3480156102d857600080fd5b506102f360048036038101906102ee9190613de5565b610c5f565b005b34801561030157600080fd5b5061030a610d76565b6040516103179190613e34565b60405180910390f35b610328610dfa565b005b34801561033657600080fd5b50610351600480360381019061034c9190613f84565b610f0b565b60405161035e9190614016565b60405180910390f35b34801561037357600080fd5b5061038e600480360381019061038991906140f9565b610f1f565b005b34801561039c57600080fd5b506103b760048036038101906103b29190614155565b610fdf565b005b3480156103c557600080fd5b506103ce61103f565b005b3480156103dc57600080fd5b506103f760048036038101906103f291906141a8565b61135a565b6040516104049190614293565b60405180910390f35b34801561041957600080fd5b50610434600480360381019061042f9190614155565b6115c1565b005b34801561044257600080fd5b5061045d60048036038101906104589190613d30565b6115e1565b60405161046a919061433a565b60405180910390f35b34801561047f57600080fd5b50610488611693565b6040516104959190613e34565b60405180910390f35b6104a661169d565b005b3480156104b457600080fd5b506104cf60048036038101906104ca9190613d30565b611807565b6040516104dc9190613d9e565b60405180910390f35b3480156104f157600080fd5b5061050c600480360381019061050791906141a8565b6118b8565b6040516105199190613e34565b60405180910390f35b34801561052e57600080fd5b5061053761196f565b005b6105416119f7565b005b34801561054f57600080fd5b5061056a600480360381019061056591906141a8565b611d1d565b6040516105779190614293565b60405180910390f35b34801561058c57600080fd5b50610595611e71565b6040516105a29190613d9e565b60405180910390f35b3480156105b757600080fd5b506105c0611e9a565b6040516105cd9190613cd8565b60405180910390f35b3480156105e257600080fd5b506105fd60048036038101906105f89190614381565b611f2c565b005b34801561060b57600080fd5b5061062660048036038101906106219190613f84565b611f42565b005b34801561063457600080fd5b5061064f600480360381019061064a9190613d30565b611fa4565b60405161065c9190613cd8565b60405180910390f35b34801561067157600080fd5b5061067a6120f5565b6040516106879190614293565b60405180910390f35b6106aa60048036038101906106a59190613d30565b61221f565b005b3480156106b857600080fd5b506106d360048036038101906106ce91906143c1565b612520565b005b3480156106e157600080fd5b506106ea612734565b005b3480156106f857600080fd5b506107016128aa565b60405161070e9190613e34565b60405180910390f35b34801561072357600080fd5b5061073e60048036038101906107399190613d30565b6128b0565b60405161074b9190613cd8565b60405180910390f35b34801561076057600080fd5b5061077b60048036038101906107769190614401565b612add565b6040516107889190613c24565b60405180910390f35b34801561079d57600080fd5b506107b860048036038101906107b391906141a8565b612b71565b005b60007f80ac58cd000000000000000000000000000000000000000000000000000000007bffffffffffffffffffffffffffffffffffffffffffffffffffffffff1916827bffffffffffffffffffffffffffffffffffffffffffffffffffffffff1916148061088557507f5b5e139f000000000000000000000000000000000000000000000000000000007bffffffffffffffffffffffffffffffffffffffffffffffffffffffff1916827bffffffffffffffffffffffffffffffffffffffffffffffffffffffff1916145b80610895575061089482612c68565b5b9050919050565b6060600280546108ab90614470565b80601f01602080910402602001604051908101604052809291908181526020018280546108d790614470565b80156109245780601f106108f957610100808354040283529160200191610924565b820191906000526020600020905b81548152906001019060200180831161090757829003601f168201915b5050505050905090565b600260015403610973576040517f08c379a000000000000000000000000000000000000000000000000000000000815260040161096a906144ed565b60405180910390fd5b6002600181905550600060d46000838152602001908152602001600020905060008160020154116109a357600080fd5b8060030160009054906101000a900460ff166109be57600080fd5b8060000160009054906101000a900473ffffffffffffffffffffffffffffffffffffffff1673ffffffffffffffffffffffffffffffffffffffff163373ffffffffffffffffffffffffffffffffffffffff1614610a1a57600080fd5b60d360003373ffffffffffffffffffffffffffffffffffffffff1673ffffffffffffffffffffffffffffffffffffffff1681526020019081526020016000206000815480929190610a6a9061453c565b919050555060008160030160006101000a81548160ff0219169083151502179055503073ffffffffffffffffffffffffffffffffffffffff166342842e0e308360000160009054906101000a900473ffffffffffffffffffffffffffffffffffffffff16856040518463ffffffff1660e01b8152600401610aed939291906145c4565b600060405180830381600087803b158015610b0757600080fd5b505af1158015610b1b573d6000803e3d6000fd5b5050505060d46000838152602001908152602001600020600080820160006101000a81549073ffffffffffffffffffffffffffffffffffffffff0219169055600182016000905560028201600090556003820160006101000a81549060ff02191690555050813373ffffffffffffffffffffffffffffffffffffffff167faafa025e65bdcff1ef0464eae38e306c5dedaa9ba5ee3f47de3b91d1bf1460e442604051610bc79190613e34565b60405180910390a3506001808190555050565b6000610be582612cd2565b610c24576040517f08c379a0000000000000000000000000000000000000000000000000000000008152600401610c1b9061466d565b60405180910390fd5b6006600083815260200190815260200160002060009054906101000a900473ffffffffffffffffffffffffffffffffffffffff169050919050565b6000610c6a82611807565b90508073ffffffffffffffffffffffffffffffffffffffff168373ffffffffffffffffffffffffffffffffffffffff1603610cda576040517f08c379a0000000000000000000000000000000000000000000000000000000008152600401610cd1906146ff565b60405180910390fd5b8073ffffffffffffffffffffffffffffffffffffffff16610cf9612d3e565b73ffffffffffffffffffffffffffffffffffffffff161480610d285750610d2781610d22612d3e565b612add565b5b610d67576040517f08c379a0000000000000000000000000000000000000000000000000000000008152600401610d5e90614791565b60405180910390fd5b610d718383612d46565b505050565b6000610d80612d3e565b73ffffffffffffffffffffffffffffffffffffffff16610d9e611e71565b73ffffffffffffffffffffffffffffffffffffffff1614610df4576040517f08c379a0000000000000000000000000000000000000000000000000000000008152600401610deb906147fd565b60405180910390fd5b47905090565b662386f26fc10000341015610e44576040517f08c379a0000000000000000000000000000000000000000000000000000000008152600401610e3b9061488f565b60405180910390fd5b610e503360d054612dff565b610ea060d05460d1610e78601160d05460be8110610e7157610e706148af565b5b01546128b0565b60d2604051602001610e8c939291906149ae565b604051602081830303815290604052612e1d565b60d0543373ffffffffffffffffffffffffffffffffffffffff167f4c209b5fc8ad50758f13e2e1088ba56a560dff690a1c6fef26394f4c03821c4f42604051610ee99190613e34565b60405180910390a360d06000815480929190610f04906149df565b9190505550565b600063150b7a0260e01b9050949350505050565b7f000000000000000000000000000000000000000000000000000000000000000073ffffffffffffffffffffffffffffffffffffffff163373ffffffffffffffffffffffffffffffffffffffff1614610fd157337f00000000000000000000000000000000000000000000000000000000000000006040517f1cf993f4000000000000000000000000000000000000000000000000000000008152600401610fc8929190614a27565b60405180910390fd5b610fdb8282612e91565b5050565b610ff0610fea612d3e565b82612eb7565b61102f576040517f08c379a000000000000000000000000000000000000000000000000000000000815260040161102690614ac2565b60405180910390fd5b61103a838383612f95565b505050565b611047612d3e565b73ffffffffffffffffffffffffffffffffffffffff16611065611e71565b73ffffffffffffffffffffffffffffffffffffffff16146110bb576040517f08c379a00000000000000000000000000000000000000000000000000000000081526004016110b2906147fd565b60405180910390fd5b600060cf5467ffffffffffffffff8111156110d9576110d8613e59565b5b6040519080825280602002602001820160405280156111075781602001602082028036833780820191505090505b50905060008060019050600091505b60cf548260ff16101561123c57600f8160ff161480611138575060b98160ff16145b80611146575060a58160ff16145b806111545750607f8160ff16145b80611162575060258160ff16145b80611170575060858160ff16145b8061117e575060198160ff16145b8061118c5750606d8160ff16145b8061119a575060308160ff16145b806111a8575060398160ff16145b156111f3576001816111ba9190614aef565b60ff16838360ff16815181106111d3576111d26148af565b5b6020026020010181815250506001816111ec9190614aef565b905061121a565b8060ff16838360ff168151811061120d5761120c6148af565b5b6020026020010181815250505b6001816112279190614aef565b9050818061123490614b26565b925050611116565b60008092505b60cf548360ff161015611354578260ff1660cf546112609190614b4f565b600d54601054604051602001611277929190614b83565b6040516020818303038152906040528051906020012060001c61129a9190614bdb565b9050601060008154809291906112af906149df565b91905055508381815181106112c7576112c66148af565b5b602002602001015160118460ff1660be81106112e6576112e56148af565b5b01819055508360018460ff1660cf546112ff9190614b4f565b6113099190614b4f565b8151811061131a576113196148af565b5b6020026020010151848281518110611335576113346148af565b5b602002602001018181525050828061134c90614b26565b935050611242565b50505050565b6060600060d360008473ffffffffffffffffffffffffffffffffffffffff1673ffffffffffffffffffffffffffffffffffffffff16815260200190815260200160002054036113f457600067ffffffffffffffff8111156113be576113bd613e59565b5b6040519080825280602002602001820160405280156113ec5781602001602082028036833780820191505090505b5090506115bc565b600060d360008473ffffffffffffffffffffffffffffffffffffffff1673ffffffffffffffffffffffffffffffffffffffff1681526020019081526020016000205467ffffffffffffffff81111561144f5761144e613e59565b5b60405190808252806020026020018201604052801561147d5781602001602082028036833780820191505090505b509050600060d05490506000805b828110156115b457600060d460008381526020019081526020016000206040518060800160405290816000820160009054906101000a900473ffffffffffffffffffffffffffffffffffffffff1673ffffffffffffffffffffffffffffffffffffffff1673ffffffffffffffffffffffffffffffffffffffff16815260200160018201548152602001600282015481526020016003820160009054906101000a900460ff16151515158152505090508673ffffffffffffffffffffffffffffffffffffffff16816000015173ffffffffffffffffffffffffffffffffffffffff16036115a05781858481518110611585576115846148af565b5b602002602001018181525050828061159c906149df565b9350505b5080806115ac906149df565b91505061148b565b839450505050505b919050565b6115dc83838360405180602001604052806000815250611f42565b505050565b6115e9613a8d565b60d460008381526020019081526020016000206040518060800160405290816000820160009054906101000a900473ffffffffffffffffffffffffffffffffffffffff1673ffffffffffffffffffffffffffffffffffffffff1673ffffffffffffffffffffffffffffffffffffffff16815260200160018201548152602001600282015481526020016003820160009054906101000a900460ff1615151515815250509050919050565b600060d054905090565b6116a5612d3e565b73ffffffffffffffffffffffffffffffffffffffff166116c3611e71565b73ffffffffffffffffffffffffffffffffffffffff1614611719576040517f08c379a0000000000000000000000000000000000000000000000000000000008152600401611710906147fd565b60405180910390fd5b611721611e71565b73ffffffffffffffffffffffffffffffffffffffff163373ffffffffffffffffffffffffffffffffffffffff161461178e576040517f08c379a000000000000000000000000000000000000000000000000000000000815260040161178590614c32565b60405180910390fd5b600080611799611e71565b73ffffffffffffffffffffffffffffffffffffffff16476040516117bc90614c80565b60006040518083038185875af1925050503d80600081146117f9576040519150601f19603f3d011682016040523d82523d6000602084013e6117fe565b606091505b50915091505050565b6000806004600084815260200190815260200160002060009054906101000a900473ffffffffffffffffffffffffffffffffffffffff169050600073ffffffffffffffffffffffffffffffffffffffff168173ffffffffffffffffffffffffffffffffffffffff16036118af576040517f08c379a00000000000000000000000000000000000000000000000000000000081526004016118a690614d07565b60405180910390fd5b80915050919050565b60008073ffffffffffffffffffffffffffffffffffffffff168273ffffffffffffffffffffffffffffffffffffffff1603611928576040517f08c379a000000000000000000000000000000000000000000000000000000000815260040161191f90614d99565b60405180910390fd5b600560008373ffffffffffffffffffffffffffffffffffffffff1673ffffffffffffffffffffffffffffffffffffffff168152602001908152602001600020549050919050565b611977612d3e565b73ffffffffffffffffffffffffffffffffffffffff16611995611e71565b73ffffffffffffffffffffffffffffffffffffffff16146119eb576040517f08c379a00000000000000000000000000000000000000000000000000000000081526004016119e2906147fd565b60405180910390fd5b6119f560006131fb565b565b6119ff612d3e565b73ffffffffffffffffffffffffffffffffffffffff16611a1d611e71565b73ffffffffffffffffffffffffffffffffffffffff1614611a73576040517f08c379a0000000000000000000000000000000000000000000000000000000008152600401611a6a906147fd565b60405180910390fd5b611a7e336000612dff565b611ab7600060d1611a8f600f6128b0565b60d2604051602001611aa3939291906149ae565b604051602081830303815290604052612e1d565b611ac2336001612dff565b611afb600160d1611ad360b96128b0565b60d2604051602001611ae7939291906149ae565b604051602081830303815290604052612e1d565b611b06336002612dff565b611b3f600260d1611b1760a56128b0565b60d2604051602001611b2b939291906149ae565b604051602081830303815290604052612e1d565b611b4a336003612dff565b611b83600360d1611b5b607f6128b0565b60d2604051602001611b6f939291906149ae565b604051602081830303815290604052612e1d565b611b8e336004612dff565b611bc7600460d1611b9f60256128b0565b60d2604051602001611bb3939291906149ae565b604051602081830303815290604052612e1d565b611bd2336005612dff565b611c0b600560d1611be360856128b0565b60d2604051602001611bf7939291906149ae565b604051602081830303815290604052612e1d565b611c16336006612dff565b611c4f600660d1611c2760196128b0565b60d2604051602001611c3b939291906149ae565b604051602081830303815290604052612e1d565b611c5a336007612dff565b611c93600760d1611c6b606d6128b0565b60d2604051602001611c7f939291906149ae565b604051602081830303815290604052612e1d565b611c9e336008612dff565b611cd7600860d1611caf60306128b0565b60d2604051602001611cc3939291906149ae565b604051602081830303815290604052612e1d565b611ce2336009612dff565b611d1b600960d1611cf360396128b0565b60d2604051602001611d07939291906149ae565b604051602081830303815290604052612e1d565b565b60606000611d2a836118b8565b905060008103611d8657600067ffffffffffffffff811115611d4f57611d4e613e59565b5b604051908082528060200260200182016040528015611d7d5781602001602082028036833780820191505090505b50915050611e6c565b60008167ffffffffffffffff811115611da257611da1613e59565b5b604051908082528060200260200182016040528015611dd05781602001602082028036833780820191505090505b509050600060d05490506000805b82811015611e63578673ffffffffffffffffffffffffffffffffffffffff16611e0682611807565b73ffffffffffffffffffffffffffffffffffffffff1603611e505780848381518110611e3557611e346148af565b5b6020026020010181815250508180611e4c906149df565b9250505b8080611e5b906149df565b915050611dde565b83955050505050505b919050565b60008060009054906101000a900473ffffffffffffffffffffffffffffffffffffffff16905090565b606060038054611ea990614470565b80601f0160208091040260200160405190810160405280929190818152602001828054611ed590614470565b8015611f225780601f10611ef757610100808354040283529160200191611f22565b820191906000526020600020905b815481529060010190602001808311611f0557829003601f168201915b5050505050905090565b611f3e611f37612d3e565b83836132bf565b5050565b611f53611f4d612d3e565b83612eb7565b611f92576040517f08c379a0000000000000000000000000000000000000000000000000000000008152600401611f8990614ac2565b60405180910390fd5b611f9e8484848461342b565b50505050565b6060611faf82612cd2565b611fee576040517f08c379a0000000000000000000000000000000000000000000000000000000008152600401611fe590614e2b565b60405180910390fd5b600060086000848152602001908152602001600020805461200e90614470565b80601f016020809104026020016040519081016040528092919081815260200182805461203a90614470565b80156120875780601f1061205c57610100808354040283529160200191612087565b820191906000526020600020905b81548152906001019060200180831161206a57829003601f168201915b505050505090506000612098613487565b905060008151036120ad5781925050506120f0565b6000825111156120e25780826040516020016120ca929190614e4b565b604051602081830303815290604052925050506120f0565b6120eb8461349e565b925050505b919050565b60606120ff612d3e565b73ffffffffffffffffffffffffffffffffffffffff1661211d611e71565b73ffffffffffffffffffffffffffffffffffffffff1614612173576040517f08c379a000000000000000000000000000000000000000000000000000000000815260040161216a906147fd565b60405180910390fd5b600060cf5467ffffffffffffffff81111561219157612190613e59565b5b6040519080825280602002602001820160405280156121bf5781602001602082028036833780820191505090505b50905060005b60cf548110156122175760118160be81106121e3576121e26148af565b5b01548282815181106121f8576121f76148af565b5b602002602001018181525050808061220f906149df565b9150506121c5565b819250505090565b600260015403612264576040517f08c379a000000000000000000000000000000000000000000000000000000000815260040161225b906144ed565b60405180910390fd5b6002600181905550600060d46000838152602001908152602001600020905060008160000160009054906101000a900473ffffffffffffffffffffffffffffffffffffffff16905060008260020154116122bd57600080fd5b8160030160009054906101000a900460ff166122d857600080fd5b348260010154600584600101546122ef9190614e6f565b6122f99190614ea0565b1461230357600080fd5b60008260010154905060d46000858152602001908152602001600020600080820160006101000a81549073ffffffffffffffffffffffffffffffffffffffff0219169055600182016000905560028201600090556003820160006101000a81549060ff0219169055505060008111156123e7576000808373ffffffffffffffffffffffffffffffffffffffff168360405161239d90614c80565b60006040518083038185875af1925050503d80600081146123da576040519150601f19603f3d011682016040523d82523d6000602084013e6123df565b606091505b509150915050505b3073ffffffffffffffffffffffffffffffffffffffff166342842e0e3033876040518463ffffffff1660e01b815260040161242493929190614ef6565b600060405180830381600087803b15801561243e57600080fd5b505af1158015612452573d6000803e3d6000fd5b5050505060d360008373ffffffffffffffffffffffffffffffffffffffff1673ffffffffffffffffffffffffffffffffffffffff16815260200190815260200160002060008154809291906124a69061453c565b91905055508173ffffffffffffffffffffffffffffffffffffffff16843373ffffffffffffffffffffffffffffffffffffffff167f478956c967ca99f4651fef2663546a452561b806dd5b5818ad086a2f47851186844260405161250b929190614b83565b60405180910390a45050506001808190555050565b600260015403612565576040517f08c379a000000000000000000000000000000000000000000000000000000000815260040161255c906144ed565b60405180910390fd5b60026001819055503373ffffffffffffffffffffffffffffffffffffffff1661258d83611807565b73ffffffffffffffffffffffffffffffffffffffff16146125ad57600080fd5b60405180608001604052803373ffffffffffffffffffffffffffffffffffffffff1681526020018281526020014281526020016001151581525060d4600084815260200190815260200160002060008201518160000160006101000a81548173ffffffffffffffffffffffffffffffffffffffff021916908373ffffffffffffffffffffffffffffffffffffffff160217905550602082015181600101556040820151816002015560608201518160030160006101000a81548160ff0219169083151502179055509050506126833330846115c1565b60d360003373ffffffffffffffffffffffffffffffffffffffff1673ffffffffffffffffffffffffffffffffffffffff16815260200190815260200160002060008154809291906126d3906149df565b9190505550813373ffffffffffffffffffffffffffffffffffffffff167f0dceca1ef67b0523b7cedf63d7b189569a88958b72eadb03fb5de854a6978df68342604051612721929190614b83565b60405180910390a3600180819055505050565b61273c612d3e565b73ffffffffffffffffffffffffffffffffffffffff1661275a611e71565b73ffffffffffffffffffffffffffffffffffffffff16146127b0576040517f08c379a00000000000000000000000000000000000000000000000000000000081526004016127a7906147fd565b60405180910390fd5b600960009054906101000a900473ffffffffffffffffffffffffffffffffffffffff1673ffffffffffffffffffffffffffffffffffffffff16635d3b1d30600b54600960149054906101000a900467ffffffffffffffff16600c60049054906101000a900461ffff16600c60009054906101000a900463ffffffff16600c60069054906101000a900463ffffffff166040518663ffffffff1660e01b815260040161285f959493929190614fa5565b6020604051808303816000875af115801561287e573d6000803e3d6000fd5b505050506040513d601f19601f820116820180604052508101906128a2919061500d565b600e81905550565b600e5481565b6060600082036128fd5760006040518060400160405280600181526020017f3000000000000000000000000000000000000000000000000000000000000000815250905080915050612ad8565b60006064905060008167ffffffffffffffff81111561291f5761291e613e59565b5b6040519080825280601f01601f1916602001820160405280156129515781602001600182028036833780820191505090505b50905060005b600085146129e3576000600a8661296e9190614bdb565b9050600a8661297d9190614e6f565b955080603061298c9190614ea0565b60f81b83838061299b906149df565b9450815181106129ae576129ad6148af565b5b60200101907effffffffffffffffffffffffffffffffffffffffffffffffffffffffffffff1916908160001a90535050612957565b60008167ffffffffffffffff8111156129ff576129fe613e59565b5b6040519080825280601f01601f191660200182016040528015612a315781602001600182028036833780820191505090505b50905060005b82811015612ac9578360018285612a4e9190614b4f565b612a589190614b4f565b81518110612a6957612a686148af565b5b602001015160f81c60f81b828281518110612a8757612a866148af565b5b60200101907effffffffffffffffffffffffffffffffffffffffffffffffffffffffffffff1916908160001a9053508080612ac1906149df565b915050612a37565b50600081905080955050505050505b919050565b6000600760008473ffffffffffffffffffffffffffffffffffffffff1673ffffffffffffffffffffffffffffffffffffffff16815260200190815260200160002060008373ffffffffffffffffffffffffffffffffffffffff1673ffffffffffffffffffffffffffffffffffffffff16815260200190815260200160002060009054906101000a900460ff16905092915050565b612b79612d3e565b73ffffffffffffffffffffffffffffffffffffffff16612b97611e71565b73ffffffffffffffffffffffffffffffffffffffff1614612bed576040517f08c379a0000000000000000000000000000000000000000000000000000000008152600401612be4906147fd565b60405180910390fd5b600073ffffffffffffffffffffffffffffffffffffffff168173ffffffffffffffffffffffffffffffffffffffff1603612c5c576040517f08c379a0000000000000000000000000000000000000000000000000000000008152600401612c53906150ac565b60405180910390fd5b612c65816131fb565b50565b60007f01ffc9a7000000000000000000000000000000000000000000000000000000007bffffffffffffffffffffffffffffffffffffffffffffffffffffffff1916827bffffffffffffffffffffffffffffffffffffffffffffffffffffffff1916149050919050565b60008073ffffffffffffffffffffffffffffffffffffffff166004600084815260200190815260200160002060009054906101000a900473ffffffffffffffffffffffffffffffffffffffff1673ffffffffffffffffffffffffffffffffffffffff1614159050919050565b600033905090565b816006600083815260200190815260200160002060006101000a81548173ffffffffffffffffffffffffffffffffffffffff021916908373ffffffffffffffffffffffffffffffffffffffff160217905550808273ffffffffffffffffffffffffffffffffffffffff16612db983611807565b73ffffffffffffffffffffffffffffffffffffffff167f8c5be1e5ebec7d5bd14f71427d1e84f3dd0314c0f7b2291e5b200ac8c7c3b92560405160405180910390a45050565b612e19828260405180602001604052806000815250613545565b5050565b612e2682612cd2565b612e65576040517f08c379a0000000000000000000000000000000000000000000000000000000008152600401612e5c9061513e565b60405180910390fd5b80600860008481526020019081526020016000209080519060200190612e8c929190613acd565b505050565b80600081518110612ea557612ea46148af565b5b6020026020010151600d819055505050565b6000612ec282612cd2565b612f01576040517f08c379a0000000000000000000000000000000000000000000000000000000008152600401612ef8906151d0565b60405180910390fd5b6000612f0c83611807565b90508073ffffffffffffffffffffffffffffffffffffffff168473ffffffffffffffffffffffffffffffffffffffff161480612f7b57508373ffffffffffffffffffffffffffffffffffffffff16612f6384610bda565b73ffffffffffffffffffffffffffffffffffffffff16145b80612f8c5750612f8b8185612add565b5b91505092915050565b8273ffffffffffffffffffffffffffffffffffffffff16612fb582611807565b73ffffffffffffffffffffffffffffffffffffffff161461300b576040517f08c379a000000000000000000000000000000000000000000000000000000000815260040161300290615262565b60405180910390fd5b600073ffffffffffffffffffffffffffffffffffffffff168273ffffffffffffffffffffffffffffffffffffffff160361307a576040517f08c379a0000000000000000000000000000000000000000000000000000000008152600401613071906152f4565b60405180910390fd5b6130858383836135a0565b613090600082612d46565b6001600560008573ffffffffffffffffffffffffffffffffffffffff1673ffffffffffffffffffffffffffffffffffffffff16815260200190815260200160002060008282546130e09190614b4f565b925050819055506001600560008473ffffffffffffffffffffffffffffffffffffffff1673ffffffffffffffffffffffffffffffffffffffff16815260200190815260200160002060008282546131379190614ea0565b92505081905550816004600083815260200190815260200160002060006101000a81548173ffffffffffffffffffffffffffffffffffffffff021916908373ffffffffffffffffffffffffffffffffffffffff160217905550808273ffffffffffffffffffffffffffffffffffffffff168473ffffffffffffffffffffffffffffffffffffffff167fddf252ad1be2c89b69c2b068fc378daa952ba7f163c4a11628f55a4df523b3ef60405160405180910390a46131f68383836135a5565b505050565b60008060009054906101000a900473ffffffffffffffffffffffffffffffffffffffff169050816000806101000a81548173ffffffffffffffffffffffffffffffffffffffff021916908373ffffffffffffffffffffffffffffffffffffffff1602179055508173ffffffffffffffffffffffffffffffffffffffff168173ffffffffffffffffffffffffffffffffffffffff167f8be0079c531659141344cd1fd0a4f28419497f9722a3daafe3b4186f6b6457e060405160405180910390a35050565b8173ffffffffffffffffffffffffffffffffffffffff168373ffffffffffffffffffffffffffffffffffffffff160361332d576040517f08c379a000000000000000000000000000000000000000000000000000000000815260040161332490615360565b60405180910390fd5b80600760008573ffffffffffffffffffffffffffffffffffffffff1673ffffffffffffffffffffffffffffffffffffffff16815260200190815260200160002060008473ffffffffffffffffffffffffffffffffffffffff1673ffffffffffffffffffffffffffffffffffffffff16815260200190815260200160002060006101000a81548160ff0219169083151502179055508173ffffffffffffffffffffffffffffffffffffffff168373ffffffffffffffffffffffffffffffffffffffff167f17307eab39ab6107e8899845ad3d59bd9653f200f220920489ca2b5937696c318360405161341e9190613c24565b60405180910390a3505050565b613436848484612f95565b613442848484846135aa565b613481576040517f08c379a0000000000000000000000000000000000000000000000000000000008152600401613478906153f2565b60405180910390fd5b50505050565b606060405180602001604052806000815250905090565b60606134a982612cd2565b6134e8576040517f08c379a00000000000000000000000000000000000000000000000000000000081526004016134df90615484565b60405180910390fd5b60006134f2613487565b90506000815111613512576040518060200160405280600081525061353d565b8061351c84613731565b60405160200161352d929190614e4b565b6040516020818303038152906040525b915050919050565b61354f8383613891565b61355c60008484846135aa565b61359b576040517f08c379a0000000000000000000000000000000000000000000000000000000008152600401613592906153f2565b60405180910390fd5b505050565b505050565b505050565b60006135cb8473ffffffffffffffffffffffffffffffffffffffff16613a6a565b15613724578373ffffffffffffffffffffffffffffffffffffffff1663150b7a026135f4612d3e565b8786866040518563ffffffff1660e01b815260040161361694939291906154f9565b6020604051808303816000875af192505050801561365257506040513d601f19601f8201168201806040525081019061364f919061555a565b60015b6136d4573d8060008114613682576040519150601f19603f3d011682016040523d82523d6000602084013e613687565b606091505b5060008151036136cc576040517f08c379a00000000000000000000000000000000000000000000000000000000081526004016136c3906153f2565b60405180910390fd5b805181602001fd5b63150b7a0260e01b7bffffffffffffffffffffffffffffffffffffffffffffffffffffffff1916817bffffffffffffffffffffffffffffffffffffffffffffffffffffffff191614915050613729565b600190505b949350505050565b606060008203613778576040518060400160405280600181526020017f3000000000000000000000000000000000000000000000000000000000000000815250905061388c565b600082905060005b600082146137aa578080613793906149df565b915050600a826137a39190614e6f565b9150613780565b60008167ffffffffffffffff8111156137c6576137c5613e59565b5b6040519080825280601f01601f1916602001820160405280156137f85781602001600182028036833780820191505090505b5090505b60008514613885576001826138119190614b4f565b9150600a856138209190614bdb565b603061382c9190614ea0565b60f81b818381518110613842576138416148af565b5b60200101907effffffffffffffffffffffffffffffffffffffffffffffffffffffffffffff1916908160001a905350600a8561387e9190614e6f565b94506137fc565b8093505050505b919050565b600073ffffffffffffffffffffffffffffffffffffffff168273ffffffffffffffffffffffffffffffffffffffff1603613900576040517f08c379a00000000000000000000000000000000000000000000000000000000081526004016138f7906155d3565b60405180910390fd5b61390981612cd2565b15613949576040517f08c379a00000000000000000000000000000000000000000000000000000000081526004016139409061563f565b60405180910390fd5b613955600083836135a0565b6001600560008473ffffffffffffffffffffffffffffffffffffffff1673ffffffffffffffffffffffffffffffffffffffff16815260200190815260200160002060008282546139a59190614ea0565b92505081905550816004600083815260200190815260200160002060006101000a81548173ffffffffffffffffffffffffffffffffffffffff021916908373ffffffffffffffffffffffffffffffffffffffff160217905550808273ffffffffffffffffffffffffffffffffffffffff16600073ffffffffffffffffffffffffffffffffffffffff167fddf252ad1be2c89b69c2b068fc378daa952ba7f163c4a11628f55a4df523b3ef60405160405180910390a4613a66600083836135a5565b5050565b6000808273ffffffffffffffffffffffffffffffffffffffff163b119050919050565b6040518060800160405280600073ffffffffffffffffffffffffffffffffffffffff16815260200160008152602001600081526020016000151581525090565b828054613ad990614470565b90600052602060002090601f016020900481019282613afb5760008555613b42565b82601f10613b1457805160ff1916838001178555613b42565b82800160010185558215613b42579182015b82811115613b41578251825591602001919060010190613b26565b5b509050613b4f9190613b53565b5090565b5b80821115613b6c576000816000905550600101613b54565b5090565b6000604051905090565b600080fd5b600080fd5b60007fffffffff0000000000000000000000000000000000000000000000000000000082169050919050565b613bb981613b84565b8114613bc457600080fd5b50565b600081359050613bd681613bb0565b92915050565b600060208284031215613bf257613bf1613b7a565b5b6000613c0084828501613bc7565b91505092915050565b60008115159050919050565b613c1e81613c09565b82525050565b6000602082019050613c396000830184613c15565b92915050565b600081519050919050565b600082825260208201905092915050565b60005b83811015613c79578082015181840152602081019050613c5e565b83811115613c88576000848401525b50505050565b6000601f19601f8301169050919050565b6000613caa82613c3f565b613cb48185613c4a565b9350613cc4818560208601613c5b565b613ccd81613c8e565b840191505092915050565b60006020820190508181036000830152613cf28184613c9f565b905092915050565b6000819050919050565b613d0d81613cfa565b8114613d1857600080fd5b50565b600081359050613d2a81613d04565b92915050565b600060208284031215613d4657613d45613b7a565b5b6000613d5484828501613d1b565b91505092915050565b600073ffffffffffffffffffffffffffffffffffffffff82169050919050565b6000613d8882613d5d565b9050919050565b613d9881613d7d565b82525050565b6000602082019050613db36000830184613d8f565b92915050565b613dc281613d7d565b8114613dcd57600080fd5b50565b600081359050613ddf81613db9565b92915050565b60008060408385031215613dfc57613dfb613b7a565b5b6000613e0a85828601613dd0565b9250506020613e1b85828601613d1b565b9150509250929050565b613e2e81613cfa565b82525050565b6000602082019050613e496000830184613e25565b92915050565b600080fd5b600080fd5b7f4e487b7100000000000000000000000000000000000000000000000000000000600052604160045260246000fd5b613e9182613c8e565b810181811067ffffffffffffffff82111715613eb057613eaf613e59565b5b80604052505050565b6000613ec3613b70565b9050613ecf8282613e88565b919050565b600067ffffffffffffffff821115613eef57613eee613e59565b5b613ef882613c8e565b9050602081019050919050565b82818337600083830152505050565b6000613f27613f2284613ed4565b613eb9565b905082815260208101848484011115613f4357613f42613e54565b5b613f4e848285613f05565b509392505050565b600082601f830112613f6b57613f6a613e4f565b5b8135613f7b848260208601613f14565b91505092915050565b60008060008060808587031215613f9e57613f9d613b7a565b5b6000613fac87828801613dd0565b9450506020613fbd87828801613dd0565b9350506040613fce87828801613d1b565b925050606085013567ffffffffffffffff811115613fef57613fee613b7f565b5b613ffb87828801613f56565b91505092959194509250565b61401081613b84565b82525050565b600060208201905061402b6000830184614007565b92915050565b600067ffffffffffffffff82111561404c5761404b613e59565b5b602082029050602081019050919050565b600080fd5b600061407561407084614031565b613eb9565b905080838252602082019050602084028301858111156140985761409761405d565b5b835b818110156140c157806140ad8882613d1b565b84526020840193505060208101905061409a565b5050509392505050565b600082601f8301126140e0576140df613e4f565b5b81356140f0848260208601614062565b91505092915050565b600080604083850312156141105761410f613b7a565b5b600061411e85828601613d1b565b925050602083013567ffffffffffffffff81111561413f5761413e613b7f565b5b61414b858286016140cb565b9150509250929050565b60008060006060848603121561416e5761416d613b7a565b5b600061417c86828701613dd0565b935050602061418d86828701613dd0565b925050604061419e86828701613d1b565b9150509250925092565b6000602082840312156141be576141bd613b7a565b5b60006141cc84828501613dd0565b91505092915050565b600081519050919050565b600082825260208201905092915050565b6000819050602082019050919050565b61420a81613cfa565b82525050565b600061421c8383614201565b60208301905092915050565b6000602082019050919050565b6000614240826141d5565b61424a81856141e0565b9350614255836141f1565b8060005b8381101561428657815161426d8882614210565b975061427883614228565b925050600181019050614259565b5085935050505092915050565b600060208201905081810360008301526142ad8184614235565b905092915050565b60006142c082613d5d565b9050919050565b6142d0816142b5565b82525050565b6142df81613c09565b82525050565b6080820160008201516142fb60008501826142c7565b50602082015161430e6020850182614201565b5060408201516143216040850182614201565b50606082015161433460608501826142d6565b50505050565b600060808201905061434f60008301846142e5565b92915050565b61435e81613c09565b811461436957600080fd5b50565b60008135905061437b81614355565b92915050565b6000806040838503121561439857614397613b7a565b5b60006143a685828601613dd0565b92505060206143b78582860161436c565b9150509250929050565b600080604083850312156143d8576143d7613b7a565b5b60006143e685828601613d1b565b92505060206143f785828601613d1b565b9150509250929050565b6000806040838503121561441857614417613b7a565b5b600061442685828601613dd0565b925050602061443785828601613dd0565b9150509250929050565b7f4e487b7100000000000000000000000000000000000000000000000000000000600052602260045260246000fd5b6000600282049050600182168061448857607f821691505b60208210810361449b5761449a614441565b5b50919050565b7f5265656e7472616e637947756172643a207265656e7472616e742063616c6c00600082015250565b60006144d7601f83613c4a565b91506144e2826144a1565b602082019050919050565b60006020820190508181036000830152614506816144ca565b9050919050565b7f4e487b7100000000000000000000000000000000000000000000000000000000600052601160045260246000fd5b600061454782613cfa565b91506000820361455a5761455961450d565b5b600182039050919050565b6000819050919050565b600061458a61458561458084613d5d565b614565565b613d5d565b9050919050565b600061459c8261456f565b9050919050565b60006145ae82614591565b9050919050565b6145be816145a3565b82525050565b60006060820190506145d96000830186613d8f565b6145e660208301856145b5565b6145f36040830184613e25565b949350505050565b7f4552433732313a20617070726f76656420717565727920666f72206e6f6e657860008201527f697374656e7420746f6b656e0000000000000000000000000000000000000000602082015250565b6000614657602c83613c4a565b9150614662826145fb565b604082019050919050565b600060208201905081810360008301526146868161464a565b9050919050565b7f4552433732313a20617070726f76616c20746f2063757272656e74206f776e6560008201527f7200000000000000000000000000000000000000000000000000000000000000602082015250565b60006146e9602183613c4a565b91506146f48261468d565b604082019050919050565b60006020820190508181036000830152614718816146dc565b9050919050565b7f4552433732313a20617070726f76652063616c6c6572206973206e6f74206f7760008201527f6e6572206e6f7220617070726f76656420666f7220616c6c0000000000000000602082015250565b600061477b603883613c4a565b91506147868261471f565b604082019050919050565b600060208201905081810360008301526147aa8161476e565b9050919050565b7f4f776e61626c653a2063616c6c6572206973206e6f7420746865206f776e6572600082015250565b60006147e7602083613c4a565b91506147f2826147b1565b602082019050919050565b60006020820190508181036000830152614816816147da565b9050919050565b7f4e6f7420656e6f756768204554482073656e743b20636865636b20707269636560008201527f2100000000000000000000000000000000000000000000000000000000000000602082015250565b6000614879602183613c4a565b91506148848261481d565b604082019050919050565b600060208201905081810360008301526148a88161486c565b9050919050565b7f4e487b7100000000000000000000000000000000000000000000000000000000600052603260045260246000fd5b600081905092915050565b60008190508160005260206000209050919050565b6000815461490b81614470565b61491581866148de565b94506001821660008114614930576001811461494157614974565b60ff19831686528186019350614974565b61494a856148e9565b60005b8381101561496c5781548189015260018201915060208101905061494d565b838801955050505b50505092915050565b600061498882613c3f565b61499281856148de565b93506149a2818560208601613c5b565b80840191505092915050565b60006149ba82866148fe565b91506149c6828561497d565b91506149d282846148fe565b9150819050949350505050565b60006149ea82613cfa565b91507fffffffffffffffffffffffffffffffffffffffffffffffffffffffffffffffff8203614a1c57614a1b61450d565b5b600182019050919050565b6000604082019050614a3c6000830185613d8f565b614a496020830184613d8f565b9392505050565b7f4552433732313a207472616e736665722063616c6c6572206973206e6f74206f60008201527f776e6572206e6f7220617070726f766564000000000000000000000000000000602082015250565b6000614aac603183613c4a565b9150614ab782614a50565b604082019050919050565b60006020820190508181036000830152614adb81614a9f565b9050919050565b600060ff82169050919050565b6000614afa82614ae2565b9150614b0583614ae2565b92508260ff03821115614b1b57614b1a61450d565b5b828201905092915050565b6000614b3182614ae2565b915060ff8203614b4457614b4361450d565b5b600182019050919050565b6000614b5a82613cfa565b9150614b6583613cfa565b925082821015614b7857614b7761450d565b5b828203905092915050565b6000604082019050614b986000830185613e25565b614ba56020830184613e25565b9392505050565b7f4e487b7100000000000000000000000000000000000000000000000000000000600052601260045260246000fd5b6000614be682613cfa565b9150614bf183613cfa565b925082614c0157614c00614bac565b5b828206905092915050565b50565b6000614c1c600083613c4a565b9150614c2782614c0c565b600082019050919050565b60006020820190508181036000830152614c4b81614c0f565b9050919050565b600081905092915050565b6000614c6a600083614c52565b9150614c7582614c0c565b600082019050919050565b6000614c8b82614c5d565b9150819050919050565b7f4552433732313a206f776e657220717565727920666f72206e6f6e657869737460008201527f656e7420746f6b656e0000000000000000000000000000000000000000000000602082015250565b6000614cf1602983613c4a565b9150614cfc82614c95565b604082019050919050565b60006020820190508181036000830152614d2081614ce4565b9050919050565b7f4552433732313a2062616c616e636520717565727920666f7220746865207a6560008201527f726f206164647265737300000000000000000000000000000000000000000000602082015250565b6000614d83602a83613c4a565b9150614d8e82614d27565b604082019050919050565b60006020820190508181036000830152614db281614d76565b9050919050565b7f45524337323155524953746f726167653a2055524920717565727920666f722060008201527f6e6f6e6578697374656e7420746f6b656e000000000000000000000000000000602082015250565b6000614e15603183613c4a565b9150614e2082614db9565b604082019050919050565b60006020820190508181036000830152614e4481614e08565b9050919050565b6000614e57828561497d565b9150614e63828461497d565b91508190509392505050565b6000614e7a82613cfa565b9150614e8583613cfa565b925082614e9557614e94614bac565b5b828204905092915050565b6000614eab82613cfa565b9150614eb683613cfa565b9250827fffffffffffffffffffffffffffffffffffffffffffffffffffffffffffffffff03821115614eeb57614eea61450d565b5b828201905092915050565b6000606082019050614f0b6000830186613d8f565b614f186020830185613d8f565b614f256040830184613e25565b949350505050565b6000819050919050565b614f4081614f2d565b82525050565b600067ffffffffffffffff82169050919050565b614f6381614f46565b82525050565b600061ffff82169050919050565b614f8081614f69565b82525050565b600063ffffffff82169050919050565b614f9f81614f86565b82525050565b600060a082019050614fba6000830188614f37565b614fc76020830187614f5a565b614fd46040830186614f77565b614fe16060830185614f96565b614fee6080830184614f96565b9695505050505050565b60008151905061500781613d04565b92915050565b60006020828403121561502357615022613b7a565b5b600061503184828501614ff8565b91505092915050565b7f4f776e61626c653a206e6577206f776e657220697320746865207a65726f206160008201527f6464726573730000000000000000000000000000000000000000000000000000602082015250565b6000615096602683613c4a565b91506150a18261503a565b604082019050919050565b600060208201905081810360008301526150c581615089565b9050919050565b7f45524337323155524953746f726167653a2055524920736574206f66206e6f6e60008201527f6578697374656e7420746f6b656e000000000000000000000000000000000000602082015250565b6000615128602e83613c4a565b9150615133826150cc565b604082019050919050565b600060208201905081810360008301526151578161511b565b9050919050565b7f4552433732313a206f70657261746f7220717565727920666f72206e6f6e657860008201527f697374656e7420746f6b656e0000000000000000000000000000000000000000602082015250565b60006151ba602c83613c4a565b91506151c58261515e565b604082019050919050565b600060208201905081810360008301526151e9816151ad565b9050919050565b7f4552433732313a207472616e736665722066726f6d20696e636f72726563742060008201527f6f776e6572000000000000000000000000000000000000000000000000000000602082015250565b600061524c602583613c4a565b9150615257826151f0565b604082019050919050565b6000602082019050818103600083015261527b8161523f565b9050919050565b7f4552433732313a207472616e7366657220746f20746865207a65726f2061646460008201527f7265737300000000000000000000000000000000000000000000000000000000602082015250565b60006152de602483613c4a565b91506152e982615282565b604082019050919050565b6000602082019050818103600083015261530d816152d1565b9050919050565b7f4552433732313a20617070726f766520746f2063616c6c657200000000000000600082015250565b600061534a601983613c4a565b915061535582615314565b602082019050919050565b600060208201905081810360008301526153798161533d565b9050919050565b7f4552433732313a207472616e7366657220746f206e6f6e20455243373231526560008201527f63656976657220696d706c656d656e7465720000000000000000000000000000602082015250565b60006153dc603283613c4a565b91506153e782615380565b604082019050919050565b6000602082019050818103600083015261540b816153cf565b9050919050565b7f4552433732314d657461646174613a2055524920717565727920666f72206e6f60008201527f6e6578697374656e7420746f6b656e0000000000000000000000000000000000602082015250565b600061546e602f83613c4a565b915061547982615412565b604082019050919050565b6000602082019050818103600083015261549d81615461565b9050919050565b600081519050919050565b600082825260208201905092915050565b60006154cb826154a4565b6154d581856154af565b93506154e5818560208601613c5b565b6154ee81613c8e565b840191505092915050565b600060808201905061550e6000830187613d8f565b61551b6020830186613d8f565b6155286040830185613e25565b818103606083015261553a81846154c0565b905095945050505050565b60008151905061555481613bb0565b92915050565b6000602082840312156155705761556f613b7a565b5b600061557e84828501615545565b91505092915050565b7f4552433732313a206d696e7420746f20746865207a65726f2061646472657373600082015250565b60006155bd602083613c4a565b91506155c882615587565b602082019050919050565b600060208201905081810360008301526155ec816155b0565b9050919050565b7f4552433732313a20746f6b656e20616c7265616479206d696e74656400000000600082015250565b6000615629601c83613c4a565b9150615634826155f3565b602082019050919050565b600060208201905081810360008301526156588161561c565b905091905056fea2646970667358221220e70183ea917a65422b0d98031bd70e5c44e33c6a4a98e47ee753ce8a800ba9f764736f6c634300080d003368747470733a2f2f72756966656e676875612d6169612d626574612e73332e616d617a6f6e6177732e636f6d2f6d657461646174612f",
  "immutableReferences": {
    "10": [
      {
        "length": 32,
        "start": 3873
      },
      {
        "length": 32,
        "start": 3957
      }
    ]
  },
  "source": "pragma solidity 0.8.13;\r\n\r\nimport \"../node_modules/@openzeppelin/contracts/token/ERC721/ERC721.sol\";\r\nimport \"../node_modules/@openzeppelin/contracts/access/Ownable.sol\";\r\nimport \"../node_modules/@openzeppelin/contracts/security/ReentrancyGuard.sol\";\r\nimport \"../node_modules/@openzeppelin/contracts/token/ERC721/extensions/ERC721URIStorage.sol\";\r\nimport \"@chainlink/contracts/src/v0.8/interfaces/VRFCoordinatorV2Interface.sol\";\r\nimport \"@chainlink/contracts/src/v0.8/VRFConsumerBaseV2.sol\";\r\n\r\ncontract Token is Ownable, IERC721Receiver, ReentrancyGuard, VRFConsumerBaseV2, ERC721URIStorage {\r\n    \r\n\r\n    /////////////////////////////////Random number//////////////////////////////\r\n    VRFCoordinatorV2Interface COORDINATOR;\r\n\r\n    // Your subscription ID.\r\n    uint64 s_subscriptionId;\r\n\r\n    // Rinkeby coordinator. For other networks,\r\n    // see https://docs.chain.link/docs/vrf-contracts/#configurations\r\n    address vrfCoordinator = 0x6168499c0cFfCaCD319c818142124B7A15E857ab;\r\n\r\n    // The gas lane to use, which specifies the maximum gas price to bump to.\r\n    // For a list of available gas lanes on each network,\r\n    // see https://docs.chain.link/docs/vrf-contracts/#configurations\r\n    bytes32 keyHash = 0xd89b2bf150e3b9e13446986e571fb9cab24b13cea0a43ea20a6049a85cc807cc;\r\n\r\n    // Depends on the number of requested values that you want sent to the\r\n    // fulfillRandomWords() function. Storing each word costs about 20,000 gas,\r\n    // so 100,000 is a safe default for this example contract. Test and adjust\r\n    // this limit based on the network that you select, the size of the request,\r\n    // and the processing of the callback request in the fulfillRandomWords()\r\n    // function.\r\n    uint32 callbackGasLimit = 100000;\r\n\r\n    // The default is 3, but you can set this higher.\r\n    uint16 requestConfirmations = 3;\r\n\r\n    // For this example, retrieve 2 random values in one request.\r\n    // Cannot exceed VRFCoordinatorV2.MAX_NUM_WORDS.\r\n    uint32 numWords =  1;\r\n\r\n    uint256 private baseSeed;\r\n    uint256 public s_requestId;\r\n    address s_owner;\r\n    // Assumes the subscription is funded sufficiently.\r\n    function requestRandomWords() external onlyOwner {\r\n        // Will revert if subscription is not set and funded.\r\n        s_requestId = COORDINATOR.requestRandomWords(keyHash,s_subscriptionId,requestConfirmations,callbackGasLimit,numWords);\r\n    }\r\n    \r\n    function fulfillRandomWords(uint256, uint256[] memory randomWords) internal override {\r\n        baseSeed = randomWords[0];\r\n    }\r\n\r\n    constructor (string memory name, string memory symbol, uint64 subscriptionId, uint64 _totalSupply) ERC721(name, symbol) VRFConsumerBaseV2(vrfCoordinator) {\r\n        COORDINATOR = VRFCoordinatorV2Interface(vrfCoordinator);\r\n        s_owner = msg.sender;\r\n        s_subscriptionId = subscriptionId;\r\n        totalSupply = _totalSupply;\r\n    }\r\n\r\n    uint256 increment = 0;\r\n    uint256[190] private order;\r\n    uint256 totalSupply;\r\n    function shuffle() external onlyOwner{\r\n        uint256[] memory unshuffled = new uint256[](totalSupply);\r\n        uint8 i;\r\n        uint8 j = 1;\r\n        for (i=0; i < totalSupply; i++) {\r\n            if (j == 15 || j == 185 || j == 165 || j == 127 || j == 37 || j == 133 || j == 25 || j == 109 || j == 48 || j == 57)\r\n            {\r\n                unshuffled[i] = j+1;\r\n                j = j + 1;\r\n            }\r\n            else\r\n            {\r\n                unshuffled[i] = j;\r\n            }\r\n            j = j + 1;\r\n            \r\n        }\r\n        uint idx;\r\n        for (i=0; i < totalSupply; i++) {\r\n            idx = uint256(keccak256(abi.encode(baseSeed, increment))) % (totalSupply - i);\r\n            increment++;\r\n            order[i] = unshuffled[idx];\r\n            unshuffled[idx] = unshuffled[totalSupply - i - 1];\r\n        }\r\n    }\r\n\r\n    function getOrder() external onlyOwner view returns (uint256[] memory){\r\n        uint256[] memory result = new uint256[](totalSupply);\r\n        uint256 i;\r\n        for(i=0; i < totalSupply; i++)\r\n        {\r\n            result[i] = order[i];\r\n        }\r\n        return result;\r\n    }\r\n\r\n\r\n    /////////////////////////////////Random number//////////////////////////////\r\n\r\n\r\n    event Mint(address indexed owner, uint256 indexed tokenId, uint256 timestamp);\r\n    event ListAnItem(address indexed owner, uint256 indexed tokenId, uint256 price, uint256 timestamp);\r\n    event CancelAnListedItem(address indexed owner, uint256 indexed tokenId, uint256 timestamp);\r\n    event PurchaseAnItem(address indexed buyer, uint256 indexed tokenId, address indexed seller, uint256 price, uint256 timestamp);\r\n    /////////////////////////////////////////////Token Contract///////////////////////////////////////////////////\r\n\r\n    uint256 private nextId = 10;\r\n    \r\n    string prefix = \"https://ruifenghua-aia-beta.s3.amazonaws.com/metadata/\";\r\n    string sub = \".json\";\r\n\r\n    function getTotalnumMint() public view returns (uint256){\r\n        return nextId;\r\n    }\r\n\r\n    function mint() external payable {\r\n        require(msg.value >= 0.01 ether, \"Not enough ETH sent; check price!\");\r\n        _safeMint(msg.sender, nextId);\r\n        _setTokenURI(nextId,  string(abi.encodePacked(prefix, uintToString(order[nextId]), sub)));\r\n        emit Mint(msg.sender, nextId, block.timestamp);\r\n        nextId++;\r\n    }\r\n\r\n    function owner_mint() external payable onlyOwner {\r\n        _safeMint(msg.sender, 0);\r\n        _setTokenURI(0,  string(abi.encodePacked(prefix, uintToString(15), sub)));\r\n        _safeMint(msg.sender, 1);\r\n        _setTokenURI(1,  string(abi.encodePacked(prefix, uintToString(185), sub)));\r\n        _safeMint(msg.sender, 2);\r\n        _setTokenURI(2,  string(abi.encodePacked(prefix, uintToString(165), sub)));\r\n        _safeMint(msg.sender, 3);\r\n        _setTokenURI(3,  string(abi.encodePacked(prefix, uintToString(127), sub)));\r\n        _safeMint(msg.sender, 4);\r\n        _setTokenURI(4,  string(abi.encodePacked(prefix, uintToString(37), sub)));\r\n        _safeMint(msg.sender, 5);\r\n        _setTokenURI(5,  string(abi.encodePacked(prefix, uintToString(133), sub)));\r\n        _safeMint(msg.sender, 6);\r\n        _setTokenURI(6,  string(abi.encodePacked(prefix, uintToString(25), sub)));\r\n        _safeMint(msg.sender, 7);\r\n        _setTokenURI(7,  string(abi.encodePacked(prefix, uintToString(109), sub)));\r\n        _safeMint(msg.sender, 8);\r\n        _setTokenURI(8,  string(abi.encodePacked(prefix, uintToString(48), sub)));\r\n        _safeMint(msg.sender, 9);\r\n        _setTokenURI(9,  string(abi.encodePacked(prefix, uintToString(57), sub)));\r\n\r\n    }\r\n\r\n\r\n    function getBalance() public view onlyOwner returns (uint256){\r\n        return address(this).balance;\r\n    }\r\n\r\n    function withdrawBalance() external payable onlyOwner {\r\n        require(msg.sender == owner(), \"\");\r\n        (bool sent, bytes memory data) = payable(address(owner())).call{value:address(this).balance}(\"\");\r\n\r\n    }\r\n\r\n    function getAllTokensForUser(address user) public view returns (uint256[] memory){\r\n        uint256 tokenCount = balanceOf(user);\r\n        if(tokenCount ==0){\r\n            return new uint256[](0);\r\n        }\r\n        else{\r\n            uint256[] memory result = new uint256[](tokenCount);\r\n            uint256 totalAIAs = nextId;\r\n            uint256 resultIndex = 0;\r\n            uint256 i;\r\n            for(i=0; i < totalAIAs; i++)\r\n            {\r\n                if(ownerOf(i) == user)\r\n                {\r\n                    result[resultIndex] = i;\r\n                    resultIndex++;\r\n                }\r\n            }\r\n            return result;\r\n        }\r\n    }\r\n\r\n\r\n\r\n    /////////////////////////////////////////////Marketplace Contract//////////////////////////////////////////////\r\n\r\n    struct Item {\r\n        address payable seller;\r\n        uint256 price;\r\n        uint256 startedAt;\r\n        bool isSelling;\r\n    }\r\n\r\n    mapping (address => uint256) userToListedItems;\r\n    mapping (uint256 => Item) tokenIdToItem;\r\n\r\n    function getItemDetail(uint256 _tokenId) external view returns (Item memory){\r\n        return tokenIdToItem[_tokenId];\r\n    }\r\n\r\n    function sell(uint256 _tokenId, uint256 _price) external nonReentrant {\r\n        require(ownerOf(_tokenId) == msg.sender);\r\n        tokenIdToItem[_tokenId] = Item(\r\n            payable(msg.sender),\r\n            _price,\r\n            block.timestamp,\r\n            true\r\n        );\r\n        safeTransferFrom(msg.sender, address(this), _tokenId);\r\n        userToListedItems[msg.sender] ++;\r\n        emit ListAnItem(msg.sender, _tokenId, _price, block.timestamp);\r\n    }\r\n\r\n    function cancelSell(uint256 _tokenId) external nonReentrant {\r\n        Item storage item = tokenIdToItem[_tokenId];\r\n        require(item.startedAt > 0);\r\n        require(item.isSelling);\r\n        require(msg.sender == item.seller);\r\n        userToListedItems[msg.sender] --;\r\n        item.isSelling = false;\r\n        this.safeTransferFrom(address(this), item.seller, _tokenId);\r\n        delete tokenIdToItem[_tokenId];\r\n        emit CancelAnListedItem(msg.sender, _tokenId, block.timestamp);\r\n    }\r\n\r\n    function purchaseItem(uint256 _tokenId) external payable nonReentrant {\r\n        // Get a reference to the auction struct\r\n        Item storage item = tokenIdToItem[_tokenId];\r\n        address payable seller = item.seller;\r\n        require(item.startedAt > 0);\r\n        require(item.isSelling);\r\n        require(item.price / 5 + item.price == msg.value);\r\n        uint256 price = item.price;\r\n        delete tokenIdToItem[_tokenId];\r\n        // Transfer proceeds to seller (if there are any!)\r\n        if (price > 0) {\r\n            (bool sent, bytes memory data) = payable(seller).call{value:price}(\"\");\r\n        }\r\n        this.safeTransferFrom(address(this), msg.sender, _tokenId);\r\n        userToListedItems[seller]--;\r\n        emit PurchaseAnItem(msg.sender, _tokenId, seller, price, block.timestamp);\r\n    }\r\n\r\n    function getListedItemsForUser(address user) public view returns (uint256[] memory){\r\n        if(userToListedItems[user] ==0){\r\n            return new uint256[](0);\r\n        }\r\n        else{\r\n            uint256[] memory result = new uint256[](userToListedItems[user]);\r\n            uint256 totalAIAs = nextId;\r\n            uint256 resultIndex = 0;\r\n            uint256 i;\r\n            for(i=0; i < totalAIAs; i++)\r\n            {\r\n                Item memory item = tokenIdToItem[i];\r\n                if(item.seller == user)\r\n                {\r\n                    result[resultIndex] = i;\r\n                    resultIndex++;\r\n                }\r\n            }\r\n            return result;\r\n        }\r\n    }\r\n\r\n\r\n    /////////////////////////////////////////////Helper Functions///////////////////////////////////////////////////\r\n    function onERC721Received(address, address, uint256, bytes memory) public virtual override returns (bytes4) {\r\n        return this.onERC721Received.selector;\r\n    }\r\n\r\n    function uintToString(uint v) public pure returns (string memory) {\r\n        if (v == 0){\r\n            string memory zero = \"0\";\r\n            return zero;\r\n        }\r\n        uint maxlength = 100;\r\n        bytes memory reversed = new bytes(maxlength);\r\n        uint i = 0;\r\n        while (v != 0) {\r\n            uint remainder = v % 10;\r\n            v = v / 10;\r\n            reversed[i++] = bytes1(uint8(48 + remainder));\r\n        }\r\n        bytes memory s = new bytes(i); // i + 1 is inefficient\r\n        for (uint j = 0; j < i; j++) {\r\n            s[j] = reversed[i - j - 1]; // to avoid the off-by-one error\r\n        }\r\n        string memory str = string(s);  // memory isn't implicitly convertible to storage\r\n        return str;\r\n    }\r\n}",
  "sourcePath": "C:\\Users\\Niven\\Documents\\AIA\\contracts\\Token.sol",
  "compiler": {
    "name": "solc",
    "version": "0.8.13+commit.abaa5c0e.Emscripten.clang"
  },
  "schemaVersion": "3.4.6",
  "updatedAt": "2022-06-16T01:55:37.640Z",
  "networkType": "ethereum",
  "devdoc": {
    "kind": "dev",
    "methods": {
      "approve(address,uint256)": {
        "details": "See {IERC721-approve}."
      },
      "balanceOf(address)": {
        "details": "See {IERC721-balanceOf}."
      },
      "getApproved(uint256)": {
        "details": "See {IERC721-getApproved}."
      },
      "isApprovedForAll(address,address)": {
        "details": "See {IERC721-isApprovedForAll}."
      },
      "name()": {
        "details": "See {IERC721Metadata-name}."
      },
      "owner()": {
        "details": "Returns the address of the current owner."
      },
      "ownerOf(uint256)": {
        "details": "See {IERC721-ownerOf}."
      },
      "renounceOwnership()": {
        "details": "Leaves the contract without owner. It will not be possible to call `onlyOwner` functions anymore. Can only be called by the current owner. NOTE: Renouncing ownership will leave the contract without an owner, thereby removing any functionality that is only available to the owner."
      },
      "safeTransferFrom(address,address,uint256)": {
        "details": "See {IERC721-safeTransferFrom}."
      },
      "safeTransferFrom(address,address,uint256,bytes)": {
        "details": "See {IERC721-safeTransferFrom}."
      },
      "setApprovalForAll(address,bool)": {
        "details": "See {IERC721-setApprovalForAll}."
      },
      "supportsInterface(bytes4)": {
        "details": "See {IERC165-supportsInterface}."
      },
      "symbol()": {
        "details": "See {IERC721Metadata-symbol}."
      },
      "tokenURI(uint256)": {
        "details": "See {IERC721Metadata-tokenURI}."
      },
      "transferFrom(address,address,uint256)": {
        "details": "See {IERC721-transferFrom}."
      },
      "transferOwnership(address)": {
        "details": "Transfers ownership of the contract to a new account (`newOwner`). Can only be called by the current owner."
      }
    },
    "version": 1
  },
  "userdoc": {
    "kind": "user",
    "methods": {},
    "version": 1
  }
}