{
  "contractName": "Token",
  "abi": [
    {
      "inputs": [
        {
          "internalType": "string",
          "name": "name",
          "type": "string"
        },
        {
          "internalType": "string",
          "name": "symbol",
          "type": "string"
        },
        {
          "internalType": "uint64",
          "name": "subscriptionId",
          "type": "uint64"
        }
      ],
      "stateMutability": "nonpayable",
      "type": "constructor"
    },
    {
      "inputs": [
        {
          "internalType": "address",
          "name": "have",
          "type": "address"
        },
        {
          "internalType": "address",
          "name": "want",
          "type": "address"
        }
      ],
      "name": "OnlyCoordinatorCanFulfill",
      "type": "error"
    },
    {
      "anonymous": false,
      "inputs": [
        {
          "indexed": true,
          "internalType": "address",
          "name": "owner",
          "type": "address"
        },
        {
          "indexed": true,
          "internalType": "address",
          "name": "approved",
          "type": "address"
        },
        {
          "indexed": true,
          "internalType": "uint256",
          "name": "tokenId",
          "type": "uint256"
        }
      ],
      "name": "Approval",
      "type": "event"
    },
    {
      "anonymous": false,
      "inputs": [
        {
          "indexed": true,
          "internalType": "address",
          "name": "owner",
          "type": "address"
        },
        {
          "indexed": true,
          "internalType": "address",
          "name": "operator",
          "type": "address"
        },
        {
          "indexed": false,
          "internalType": "bool",
          "name": "approved",
          "type": "bool"
        }
      ],
      "name": "ApprovalForAll",
      "type": "event"
    },
    {
      "anonymous": false,
      "inputs": [
        {
          "indexed": true,
          "internalType": "address",
          "name": "owner",
          "type": "address"
        },
        {
          "indexed": true,
          "internalType": "uint256",
          "name": "tokenId",
          "type": "uint256"
        },
        {
          "indexed": false,
          "internalType": "uint256",
          "name": "timestamp",
          "type": "uint256"
        }
      ],
      "name": "CancelAnListedItem",
      "type": "event"
    },
    {
      "anonymous": false,
      "inputs": [
        {
          "indexed": true,
          "internalType": "address",
          "name": "owner",
          "type": "address"
        },
        {
          "indexed": true,
          "internalType": "uint256",
          "name": "tokenId",
          "type": "uint256"
        },
        {
          "indexed": false,
          "internalType": "uint256",
          "name": "price",
          "type": "uint256"
        },
        {
          "indexed": false,
          "internalType": "uint256",
          "name": "duration",
          "type": "uint256"
        },
        {
          "indexed": false,
          "internalType": "uint256",
          "name": "timestamp",
          "type": "uint256"
        }
      ],
      "name": "ListAnItem",
      "type": "event"
    },
    {
      "anonymous": false,
      "inputs": [
        {
          "indexed": true,
          "internalType": "address",
          "name": "owner",
          "type": "address"
        },
        {
          "indexed": true,
          "internalType": "uint256",
          "name": "tokenId",
          "type": "uint256"
        },
        {
          "indexed": false,
          "internalType": "uint256",
          "name": "timestamp",
          "type": "uint256"
        }
      ],
      "name": "Mint",
      "type": "event"
    },
    {
      "anonymous": false,
      "inputs": [
        {
          "indexed": true,
          "internalType": "address",
          "name": "previousOwner",
          "type": "address"
        },
        {
          "indexed": true,
          "internalType": "address",
          "name": "newOwner",
          "type": "address"
        }
      ],
      "name": "OwnershipTransferred",
      "type": "event"
    },
    {
      "anonymous": false,
      "inputs": [
        {
          "indexed": true,
          "internalType": "address",
          "name": "buyer",
          "type": "address"
        },
        {
          "indexed": true,
          "internalType": "uint256",
          "name": "tokenId",
          "type": "uint256"
        },
        {
          "indexed": true,
          "internalType": "address",
          "name": "seller",
          "type": "address"
        },
        {
          "indexed": false,
          "internalType": "uint256",
          "name": "price",
          "type": "uint256"
        },
        {
          "indexed": false,
          "internalType": "uint256",
          "name": "timestamp",
          "type": "uint256"
        }
      ],
      "name": "PurchaseAnItem",
      "type": "event"
    },
    {
      "anonymous": false,
      "inputs": [
        {
          "indexed": true,
          "internalType": "address",
          "name": "from",
          "type": "address"
        },
        {
          "indexed": true,
          "internalType": "address",
          "name": "to",
          "type": "address"
        },
        {
          "indexed": true,
          "internalType": "uint256",
          "name": "tokenId",
          "type": "uint256"
        }
      ],
      "name": "Transfer",
      "type": "event"
    },
    {
      "inputs": [
        {
          "internalType": "address",
          "name": "to",
          "type": "address"
        },
        {
          "internalType": "uint256",
          "name": "tokenId",
          "type": "uint256"
        }
      ],
      "name": "approve",
      "outputs": [],
      "stateMutability": "nonpayable",
      "type": "function"
    },
    {
      "inputs": [
        {
          "internalType": "address",
          "name": "owner",
          "type": "address"
        }
      ],
      "name": "balanceOf",
      "outputs": [
        {
          "internalType": "uint256",
          "name": "",
          "type": "uint256"
        }
      ],
      "stateMutability": "view",
      "type": "function",
      "constant": true
    },
    {
      "inputs": [
        {
          "internalType": "uint256",
          "name": "tokenId",
          "type": "uint256"
        }
      ],
      "name": "getApproved",
      "outputs": [
        {
          "internalType": "address",
          "name": "",
          "type": "address"
        }
      ],
      "stateMutability": "view",
      "type": "function",
      "constant": true
    },
    {
      "inputs": [
        {
          "internalType": "address",
          "name": "owner",
          "type": "address"
        },
        {
          "internalType": "address",
          "name": "operator",
          "type": "address"
        }
      ],
      "name": "isApprovedForAll",
      "outputs": [
        {
          "internalType": "bool",
          "name": "",
          "type": "bool"
        }
      ],
      "stateMutability": "view",
      "type": "function",
      "constant": true
    },
    {
      "inputs": [],
      "name": "name",
      "outputs": [
        {
          "internalType": "string",
          "name": "",
          "type": "string"
        }
      ],
      "stateMutability": "view",
      "type": "function",
      "constant": true
    },
    {
      "inputs": [],
      "name": "owner",
      "outputs": [
        {
          "internalType": "address",
          "name": "",
          "type": "address"
        }
      ],
      "stateMutability": "view",
      "type": "function",
      "constant": true
    },
    {
      "inputs": [
        {
          "internalType": "uint256",
          "name": "tokenId",
          "type": "uint256"
        }
      ],
      "name": "ownerOf",
      "outputs": [
        {
          "internalType": "address",
          "name": "",
          "type": "address"
        }
      ],
      "stateMutability": "view",
      "type": "function",
      "constant": true
    },
    {
      "inputs": [
        {
          "internalType": "uint256",
          "name": "requestId",
          "type": "uint256"
        },
        {
          "internalType": "uint256[]",
          "name": "randomWords",
          "type": "uint256[]"
        }
      ],
      "name": "rawFulfillRandomWords",
      "outputs": [],
      "stateMutability": "nonpayable",
      "type": "function"
    },
    {
      "inputs": [],
      "name": "renounceOwnership",
      "outputs": [],
      "stateMutability": "nonpayable",
      "type": "function"
    },
    {
      "inputs": [],
      "name": "s_requestId",
      "outputs": [
        {
          "internalType": "uint256",
          "name": "",
          "type": "uint256"
        }
      ],
      "stateMutability": "view",
      "type": "function",
      "constant": true
    },
    {
      "inputs": [
        {
          "internalType": "address",
          "name": "from",
          "type": "address"
        },
        {
          "internalType": "address",
          "name": "to",
          "type": "address"
        },
        {
          "internalType": "uint256",
          "name": "tokenId",
          "type": "uint256"
        }
      ],
      "name": "safeTransferFrom",
      "outputs": [],
      "stateMutability": "nonpayable",
      "type": "function"
    },
    {
      "inputs": [
        {
          "internalType": "address",
          "name": "from",
          "type": "address"
        },
        {
          "internalType": "address",
          "name": "to",
          "type": "address"
        },
        {
          "internalType": "uint256",
          "name": "tokenId",
          "type": "uint256"
        },
        {
          "internalType": "bytes",
          "name": "_data",
          "type": "bytes"
        }
      ],
      "name": "safeTransferFrom",
      "outputs": [],
      "stateMutability": "nonpayable",
      "type": "function"
    },
    {
      "inputs": [
        {
          "internalType": "address",
          "name": "operator",
          "type": "address"
        },
        {
          "internalType": "bool",
          "name": "approved",
          "type": "bool"
        }
      ],
      "name": "setApprovalForAll",
      "outputs": [],
      "stateMutability": "nonpayable",
      "type": "function"
    },
    {
      "inputs": [
        {
          "internalType": "bytes4",
          "name": "interfaceId",
          "type": "bytes4"
        }
      ],
      "name": "supportsInterface",
      "outputs": [
        {
          "internalType": "bool",
          "name": "",
          "type": "bool"
        }
      ],
      "stateMutability": "view",
      "type": "function",
      "constant": true
    },
    {
      "inputs": [],
      "name": "symbol",
      "outputs": [
        {
          "internalType": "string",
          "name": "",
          "type": "string"
        }
      ],
      "stateMutability": "view",
      "type": "function",
      "constant": true
    },
    {
      "inputs": [
        {
          "internalType": "uint256",
          "name": "tokenId",
          "type": "uint256"
        }
      ],
      "name": "tokenURI",
      "outputs": [
        {
          "internalType": "string",
          "name": "",
          "type": "string"
        }
      ],
      "stateMutability": "view",
      "type": "function",
      "constant": true
    },
    {
      "inputs": [
        {
          "internalType": "address",
          "name": "from",
          "type": "address"
        },
        {
          "internalType": "address",
          "name": "to",
          "type": "address"
        },
        {
          "internalType": "uint256",
          "name": "tokenId",
          "type": "uint256"
        }
      ],
      "name": "transferFrom",
      "outputs": [],
      "stateMutability": "nonpayable",
      "type": "function"
    },
    {
      "inputs": [
        {
          "internalType": "address",
          "name": "newOwner",
          "type": "address"
        }
      ],
      "name": "transferOwnership",
      "outputs": [],
      "stateMutability": "nonpayable",
      "type": "function"
    },
    {
      "inputs": [],
      "name": "requestRandomWords",
      "outputs": [],
      "stateMutability": "nonpayable",
      "type": "function"
    },
    {
      "inputs": [],
      "name": "shuffle",
      "outputs": [],
      "stateMutability": "nonpayable",
      "type": "function"
    },
    {
      "inputs": [
        {
          "internalType": "uint256",
          "name": "attribute1",
          "type": "uint256"
        },
        {
          "internalType": "uint256",
          "name": "attribute2",
          "type": "uint256"
        },
        {
          "internalType": "uint256",
          "name": "attribute3",
          "type": "uint256"
        },
        {
          "internalType": "uint256",
          "name": "attribute4",
          "type": "uint256"
        }
      ],
      "name": "mint",
      "outputs": [],
      "stateMutability": "payable",
      "type": "function",
      "payable": true
    },
    {
      "inputs": [
        {
          "internalType": "uint256",
          "name": "tokenId",
          "type": "uint256"
        }
      ],
      "name": "getTokenDetails",
      "outputs": [
        {
          "components": [
            {
              "internalType": "uint256",
              "name": "attribute1",
              "type": "uint256"
            },
            {
              "internalType": "uint256",
              "name": "attribute2",
              "type": "uint256"
            },
            {
              "internalType": "uint256",
              "name": "attribute3",
              "type": "uint256"
            },
            {
              "internalType": "uint256",
              "name": "attribute4",
              "type": "uint256"
            }
          ],
          "internalType": "struct Token.AIA",
          "name": "",
          "type": "tuple"
        }
      ],
      "stateMutability": "view",
      "type": "function",
      "constant": true
    },
    {
      "inputs": [],
      "name": "getBalance",
      "outputs": [
        {
          "internalType": "uint256",
          "name": "",
          "type": "uint256"
        }
      ],
      "stateMutability": "view",
      "type": "function",
      "constant": true
    },
    {
      "inputs": [],
      "name": "withdrawBalance",
      "outputs": [],
      "stateMutability": "payable",
      "type": "function",
      "payable": true
    },
    {
      "inputs": [
        {
          "internalType": "address",
          "name": "user",
          "type": "address"
        }
      ],
      "name": "getAllTokensForUser",
      "outputs": [
        {
          "internalType": "uint256[]",
          "name": "",
          "type": "uint256[]"
        }
      ],
      "stateMutability": "view",
      "type": "function",
      "constant": true
    },
    {
      "inputs": [
        {
          "internalType": "uint256",
          "name": "_tokenId",
          "type": "uint256"
        },
        {
          "internalType": "uint256",
          "name": "_price",
          "type": "uint256"
        },
        {
          "internalType": "uint256",
          "name": "_duration",
          "type": "uint256"
        }
      ],
      "name": "sell",
      "outputs": [],
      "stateMutability": "nonpayable",
      "type": "function"
    },
    {
      "inputs": [
        {
          "internalType": "uint256",
          "name": "_tokenId",
          "type": "uint256"
        }
      ],
      "name": "cancelSell",
      "outputs": [],
      "stateMutability": "nonpayable",
      "type": "function"
    },
    {
      "inputs": [
        {
          "internalType": "uint256",
          "name": "_tokenId",
          "type": "uint256"
        }
      ],
      "name": "purchaseItem",
      "outputs": [],
      "stateMutability": "payable",
      "type": "function",
      "payable": true
    },
    {
      "inputs": [
        {
          "internalType": "address",
          "name": "user",
          "type": "address"
        }
      ],
      "name": "getListedItemsForUser",
      "outputs": [
        {
          "internalType": "uint256[]",
          "name": "",
          "type": "uint256[]"
        }
      ],
      "stateMutability": "view",
      "type": "function",
      "constant": true
    },
    {
      "inputs": [
        {
          "internalType": "address",
          "name": "",
          "type": "address"
        },
        {
          "internalType": "address",
          "name": "",
          "type": "address"
        },
        {
          "internalType": "uint256",
          "name": "",
          "type": "uint256"
        },
        {
          "internalType": "bytes",
          "name": "",
          "type": "bytes"
        }
      ],
      "name": "onERC721Received",
      "outputs": [
        {
          "internalType": "bytes4",
          "name": "",
          "type": "bytes4"
        }
      ],
      "stateMutability": "nonpayable",
      "type": "function"
    },
    {
      "inputs": [
        {
          "internalType": "uint256",
          "name": "v",
          "type": "uint256"
        }
      ],
      "name": "uintToString",
      "outputs": [
        {
          "internalType": "string",
          "name": "",
          "type": "string"
        }
      ],
      "stateMutability": "pure",
      "type": "function",
      "constant": true
    }
  ],
  "bytecode": "0x60a0604052736168499c0cffcacd319c818142124b7a15e857ab600a60006101000a81548173ffffffffffffffffffffffffffffffffffffffff021916908373ffffffffffffffffffffffffffffffffffffffff1602179055507fd89b2bf150e3b9e13446986e571fb9cab24b13cea0a43ea20a6049a85cc807cc60001b600b55620186a0600c60006101000a81548163ffffffff021916908363ffffffff1602179055506003600c60046101000a81548161ffff021916908361ffff1602179055506001600c60066101000a81548163ffffffff021916908363ffffffff160217905550600060105560006076556040518060600160405280602f815260200162005859602f9139607890805190602001906200011f92919062000400565b506040518060400160405280600581526020017f2e6a736f6e000000000000000000000000000000000000000000000000000000815250607990805190602001906200016d92919062000400565b503480156200017b57600080fd5b5060405162005888380380620058888339818101604052810190620001a1919062000692565b8282600a60009054906101000a900473ffffffffffffffffffffffffffffffffffffffff16620001e6620001da6200033460201b60201c565b6200033c60201b60201c565b600180819055508073ffffffffffffffffffffffffffffffffffffffff1660808173ffffffffffffffffffffffffffffffffffffffff16815250505081600290805190602001906200023a92919062000400565b5080600390805190602001906200025392919062000400565b505050600a60009054906101000a900473ffffffffffffffffffffffffffffffffffffffff16600960006101000a81548173ffffffffffffffffffffffffffffffffffffffff021916908373ffffffffffffffffffffffffffffffffffffffff16021790555033600f60006101000a81548173ffffffffffffffffffffffffffffffffffffffff021916908373ffffffffffffffffffffffffffffffffffffffff16021790555080600960146101000a81548167ffffffffffffffff021916908367ffffffffffffffff160217905550600560758190555050505062000790565b600033905090565b60008060009054906101000a900473ffffffffffffffffffffffffffffffffffffffff169050816000806101000a81548173ffffffffffffffffffffffffffffffffffffffff021916908373ffffffffffffffffffffffffffffffffffffffff1602179055508173ffffffffffffffffffffffffffffffffffffffff168173ffffffffffffffffffffffffffffffffffffffff167f8be0079c531659141344cd1fd0a4f28419497f9722a3daafe3b4186f6b6457e060405160405180910390a35050565b8280546200040e906200075b565b90600052602060002090601f0160209004810192826200043257600085556200047e565b82601f106200044d57805160ff19168380011785556200047e565b828001600101855582156200047e579182015b828111156200047d57825182559160200191906001019062000460565b5b5090506200048d919062000491565b5090565b5b80821115620004ac57600081600090555060010162000492565b5090565b6000604051905090565b600080fd5b600080fd5b600080fd5b600080fd5b6000601f19601f8301169050919050565b7f4e487b7100000000000000000000000000000000000000000000000000000000600052604160045260246000fd5b6200051982620004ce565b810181811067ffffffffffffffff821117156200053b576200053a620004df565b5b80604052505050565b600062000550620004b0565b90506200055e82826200050e565b919050565b600067ffffffffffffffff821115620005815762000580620004df565b5b6200058c82620004ce565b9050602081019050919050565b60005b83811015620005b95780820151818401526020810190506200059c565b83811115620005c9576000848401525b50505050565b6000620005e6620005e08462000563565b62000544565b905082815260208101848484011115620006055762000604620004c9565b5b6200061284828562000599565b509392505050565b600082601f830112620006325762000631620004c4565b5b815162000644848260208601620005cf565b91505092915050565b600067ffffffffffffffff82169050919050565b6200066c816200064d565b81146200067857600080fd5b50565b6000815190506200068c8162000661565b92915050565b600080600060608486031215620006ae57620006ad620004ba565b5b600084015167ffffffffffffffff811115620006cf57620006ce620004bf565b5b620006dd868287016200061a565b935050602084015167ffffffffffffffff811115620007015762000700620004bf565b5b6200070f868287016200061a565b925050604062000722868287016200067b565b9150509250925092565b7f4e487b7100000000000000000000000000000000000000000000000000000000600052602260045260246000fd5b600060028204905060018216806200077457607f821691505b6020821081036200078a57620007896200072c565b5b50919050565b6080516150a6620007b360003960008181610da90152610dfd01526150a66000f3fe6080604052600436106101d85760003560e01c806370a0823111610102578063c87b56dd11610095578063e89e106a11610064578063e89e106a1461067d578063e9395679146106a8578063e985e9c5146106e5578063f2fde38b14610722576101d8565b8063c87b56dd146105e4578063d38ea5bf14610621578063d3c9727c1461063d578063e0c8628914610666576101d8565b806395d89b41116100d157806395d89b411461052a578063a22cb46514610555578063b88d4fde1461057e578063c1e03728146105a7576101d8565b806370a082311461046e578063715018a6146104ab57806382de8fe9146104c25780638da5cb5b146104ff576101d8565b80631fe543e31161017a57806342842e0e1161014957806342842e0e146103e25780635fd8c7101461040b5780636352211e146104155780636582ccd314610452576101d8565b80631fe543e31461033c57806323b872dd146103655780632520bf041461038e5780632888df2a146103a5576101d8565b8063081812fc116101b6578063081812fc1461026e578063095ea7b3146102ab57806312065fe0146102d4578063150b7a02146102ff576101d8565b806301ffc9a7146101dd57806306fdde031461021a57806307c9cd4514610245575b600080fd5b3480156101e957600080fd5b5061020460048036038101906101ff91906135a3565b61074b565b60405161021191906135eb565b60405180910390f35b34801561022657600080fd5b5061022f61082d565b60405161023c919061369f565b60405180910390f35b34801561025157600080fd5b5061026c600480360381019061026791906136f7565b6108bf565b005b34801561027a57600080fd5b50610295600480360381019061029091906136f7565b610b73565b6040516102a29190613765565b60405180910390f35b3480156102b757600080fd5b506102d260048036038101906102cd91906137ac565b610bf8565b005b3480156102e057600080fd5b506102e9610d0f565b6040516102f691906137fb565b60405180910390f35b34801561030b57600080fd5b506103266004803603810190610321919061394b565b610d93565b60405161033391906139dd565b60405180910390f35b34801561034857600080fd5b50610363600480360381019061035e9190613ac0565b610da7565b005b34801561037157600080fd5b5061038c60048036038101906103879190613b1c565b610e67565b005b34801561039a57600080fd5b506103a3610ec7565b005b3480156103b157600080fd5b506103cc60048036038101906103c79190613b6f565b61107c565b6040516103d99190613c5a565b60405180910390f35b3480156103ee57600080fd5b5061040960048036038101906104049190613b1c565b6112ed565b005b61041361130d565b005b34801561042157600080fd5b5061043c600480360381019061043791906136f7565b611477565b6040516104499190613765565b60405180910390f35b61046c60048036038101906104679190613c7c565b611528565b005b34801561047a57600080fd5b5061049560048036038101906104909190613b6f565b6116b5565b6040516104a291906137fb565b60405180910390f35b3480156104b757600080fd5b506104c061176c565b005b3480156104ce57600080fd5b506104e960048036038101906104e49190613b6f565b6117f4565b6040516104f69190613c5a565b60405180910390f35b34801561050b57600080fd5b50610514611948565b6040516105219190613765565b60405180910390f35b34801561053657600080fd5b5061053f611971565b60405161054c919061369f565b60405180910390f35b34801561056157600080fd5b5061057c60048036038101906105779190613d0f565b611a03565b005b34801561058a57600080fd5b506105a560048036038101906105a0919061394b565b611a19565b005b3480156105b357600080fd5b506105ce60048036038101906105c991906136f7565b611a7b565b6040516105db9190613da4565b60405180910390f35b3480156105f057600080fd5b5061060b600480360381019061060691906136f7565b611ad0565b604051610618919061369f565b60405180910390f35b61063b600480360381019061063691906136f7565b611c21565b005b34801561064957600080fd5b50610664600480360381019061065f9190613dbf565b611f2a565b005b34801561067257600080fd5b5061067b61215f565b005b34801561068957600080fd5b506106926122d5565b60405161069f91906137fb565b60405180910390f35b3480156106b457600080fd5b506106cf60048036038101906106ca91906136f7565b6122db565b6040516106dc919061369f565b60405180910390f35b3480156106f157600080fd5b5061070c60048036038101906107079190613e12565b6124bc565b60405161071991906135eb565b60405180910390f35b34801561072e57600080fd5b5061074960048036038101906107449190613b6f565b612550565b005b60007f80ac58cd000000000000000000000000000000000000000000000000000000007bffffffffffffffffffffffffffffffffffffffffffffffffffffffff1916827bffffffffffffffffffffffffffffffffffffffffffffffffffffffff1916148061081657507f5b5e139f000000000000000000000000000000000000000000000000000000007bffffffffffffffffffffffffffffffffffffffffffffffffffffffff1916827bffffffffffffffffffffffffffffffffffffffffffffffffffffffff1916145b80610826575061082582612647565b5b9050919050565b60606002805461083c90613e81565b80601f016020809104026020016040519081016040528092919081815260200182805461086890613e81565b80156108b55780601f1061088a576101008083540402835291602001916108b5565b820191906000526020600020905b81548152906001019060200180831161089857829003601f168201915b5050505050905090565b600260015403610904576040517f08c379a00000000000000000000000000000000000000000000000000000000081526004016108fb90613efe565b60405180910390fd5b60026001819055506000607b60008381526020019081526020016000209050600081600301541161093457600080fd5b8060040160009054906101000a900460ff1661094f57600080fd5b8060000160009054906101000a900473ffffffffffffffffffffffffffffffffffffffff1673ffffffffffffffffffffffffffffffffffffffff163373ffffffffffffffffffffffffffffffffffffffff16146109ab57600080fd5b607a60003373ffffffffffffffffffffffffffffffffffffffff1673ffffffffffffffffffffffffffffffffffffffff16815260200190815260200160002060008154809291906109fb90613f4d565b919050555060008160040160006101000a81548160ff0219169083151502179055503073ffffffffffffffffffffffffffffffffffffffff166342842e0e308360000160009054906101000a900473ffffffffffffffffffffffffffffffffffffffff16856040518463ffffffff1660e01b8152600401610a7e93929190613fd5565b600060405180830381600087803b158015610a9857600080fd5b505af1158015610aac573d6000803e3d6000fd5b50505050607b6000838152602001908152602001600020600080820160006101000a81549073ffffffffffffffffffffffffffffffffffffffff02191690556001820160009055600282016000905560038201600090556004820160006101000a81549060ff02191690555050813373ffffffffffffffffffffffffffffffffffffffff167faafa025e65bdcff1ef0464eae38e306c5dedaa9ba5ee3f47de3b91d1bf1460e442604051610b6091906137fb565b60405180910390a3506001808190555050565b6000610b7e826126b1565b610bbd576040517f08c379a0000000000000000000000000000000000000000000000000000000008152600401610bb49061407e565b60405180910390fd5b6006600083815260200190815260200160002060009054906101000a900473ffffffffffffffffffffffffffffffffffffffff169050919050565b6000610c0382611477565b90508073ffffffffffffffffffffffffffffffffffffffff168373ffffffffffffffffffffffffffffffffffffffff1603610c73576040517f08c379a0000000000000000000000000000000000000000000000000000000008152600401610c6a90614110565b60405180910390fd5b8073ffffffffffffffffffffffffffffffffffffffff16610c9261271d565b73ffffffffffffffffffffffffffffffffffffffff161480610cc15750610cc081610cbb61271d565b6124bc565b5b610d00576040517f08c379a0000000000000000000000000000000000000000000000000000000008152600401610cf7906141a2565b60405180910390fd5b610d0a8383612725565b505050565b6000610d1961271d565b73ffffffffffffffffffffffffffffffffffffffff16610d37611948565b73ffffffffffffffffffffffffffffffffffffffff1614610d8d576040517f08c379a0000000000000000000000000000000000000000000000000000000008152600401610d849061420e565b60405180910390fd5b47905090565b600063150b7a0260e01b9050949350505050565b7f000000000000000000000000000000000000000000000000000000000000000073ffffffffffffffffffffffffffffffffffffffff163373ffffffffffffffffffffffffffffffffffffffff1614610e5957337f00000000000000000000000000000000000000000000000000000000000000006040517f1cf993f4000000000000000000000000000000000000000000000000000000008152600401610e5092919061422e565b60405180910390fd5b610e6382826127de565b5050565b610e78610e7261271d565b82612804565b610eb7576040517f08c379a0000000000000000000000000000000000000000000000000000000008152600401610eae906142c9565b60405180910390fd5b610ec28383836128e2565b505050565b600060755467ffffffffffffffff811115610ee557610ee4613820565b5b604051908082528060200260200182016040528015610f135781602001602082028036833780820191505090505b50905060005b6075548160ff161015610f5f578060ff16828260ff1681518110610f4057610f3f6142e9565b5b6020026020010181815250508080610f5790614325565b915050610f19565b60008091505b6075548260ff161015611077578160ff16607554610f83919061434e565b600d54601054604051602001610f9a929190614382565b6040516020818303038152906040528051906020012060001c610fbd91906143da565b905060106000815480929190610fd29061440b565b9190505550828181518110610fea57610fe96142e9565b5b602002602001015160118360ff1660648110611009576110086142e9565b5b01819055508260018360ff16607554611022919061434e565b61102c919061434e565b8151811061103d5761103c6142e9565b5b6020026020010151838281518110611058576110576142e9565b5b602002602001018181525050818061106f90614325565b925050610f65565b505050565b60606000607a60008473ffffffffffffffffffffffffffffffffffffffff1673ffffffffffffffffffffffffffffffffffffffff168152602001908152602001600020540361111657600067ffffffffffffffff8111156110e0576110df613820565b5b60405190808252806020026020018201604052801561110e5781602001602082028036833780820191505090505b5090506112e8565b6000607a60008473ffffffffffffffffffffffffffffffffffffffff1673ffffffffffffffffffffffffffffffffffffffff1681526020019081526020016000205467ffffffffffffffff81111561117157611170613820565b5b60405190808252806020026020018201604052801561119f5781602001602082028036833780820191505090505b509050600060765490506000805b828110156112e0576000607b60008381526020019081526020016000206040518060a00160405290816000820160009054906101000a900473ffffffffffffffffffffffffffffffffffffffff1673ffffffffffffffffffffffffffffffffffffffff1673ffffffffffffffffffffffffffffffffffffffff1681526020016001820154815260200160028201548152602001600382015481526020016004820160009054906101000a900460ff16151515158152505090508673ffffffffffffffffffffffffffffffffffffffff16816000015173ffffffffffffffffffffffffffffffffffffffff16036112cc57818584815181106112b1576112b06142e9565b5b60200260200101818152505082806112c89061440b565b9350505b5080806112d89061440b565b9150506111ad565b839450505050505b919050565b61130883838360405180602001604052806000815250611a19565b505050565b61131561271d565b73ffffffffffffffffffffffffffffffffffffffff16611333611948565b73ffffffffffffffffffffffffffffffffffffffff1614611389576040517f08c379a00000000000000000000000000000000000000000000000000000000081526004016113809061420e565b60405180910390fd5b611391611948565b73ffffffffffffffffffffffffffffffffffffffff163373ffffffffffffffffffffffffffffffffffffffff16146113fe576040517f08c379a00000000000000000000000000000000000000000000000000000000081526004016113f590614479565b60405180910390fd5b600080611409611948565b73ffffffffffffffffffffffffffffffffffffffff164760405161142c906144c7565b60006040518083038185875af1925050503d8060008114611469576040519150601f19603f3d011682016040523d82523d6000602084013e61146e565b606091505b50915091505050565b6000806004600084815260200190815260200160002060009054906101000a900473ffffffffffffffffffffffffffffffffffffffff169050600073ffffffffffffffffffffffffffffffffffffffff168173ffffffffffffffffffffffffffffffffffffffff160361151f576040517f08c379a00000000000000000000000000000000000000000000000000000000081526004016115169061454e565b60405180910390fd5b80915050919050565b662386f26fc10000341015611572576040517f08c379a0000000000000000000000000000000000000000000000000000000008152600401611569906145e0565b60405180910390fd5b6040518060800160405280601160765460648110611593576115926142e9565b5b0154815260200184815260200183815260200182815250607760006076548152602001908152602001600020600082015181600001556020820151816001015560408201518160020155606082015181600301559050506115f633607654612b48565b611646607654607861161e601160765460648110611617576116166142e9565b5b01546122db565b6079604051602001611632939291906146d0565b604051602081830303815290604052612b66565b6076543373ffffffffffffffffffffffffffffffffffffffff167f4c209b5fc8ad50758f13e2e1088ba56a560dff690a1c6fef26394f4c03821c4f4260405161168f91906137fb565b60405180910390a3607660008154809291906116aa9061440b565b919050555050505050565b60008073ffffffffffffffffffffffffffffffffffffffff168273ffffffffffffffffffffffffffffffffffffffff1603611725576040517f08c379a000000000000000000000000000000000000000000000000000000000815260040161171c90614773565b60405180910390fd5b600560008373ffffffffffffffffffffffffffffffffffffffff1673ffffffffffffffffffffffffffffffffffffffff168152602001908152602001600020549050919050565b61177461271d565b73ffffffffffffffffffffffffffffffffffffffff16611792611948565b73ffffffffffffffffffffffffffffffffffffffff16146117e8576040517f08c379a00000000000000000000000000000000000000000000000000000000081526004016117df9061420e565b60405180910390fd5b6117f26000612bda565b565b60606000611801836116b5565b90506000810361185d57600067ffffffffffffffff81111561182657611825613820565b5b6040519080825280602002602001820160405280156118545781602001602082028036833780820191505090505b50915050611943565b60008167ffffffffffffffff81111561187957611878613820565b5b6040519080825280602002602001820160405280156118a75781602001602082028036833780820191505090505b509050600060765490506000805b8281101561193a578673ffffffffffffffffffffffffffffffffffffffff166118dd82611477565b73ffffffffffffffffffffffffffffffffffffffff1603611927578084838151811061190c5761190b6142e9565b5b60200260200101818152505081806119239061440b565b9250505b80806119329061440b565b9150506118b5565b83955050505050505b919050565b60008060009054906101000a900473ffffffffffffffffffffffffffffffffffffffff16905090565b60606003805461198090613e81565b80601f01602080910402602001604051908101604052809291908181526020018280546119ac90613e81565b80156119f95780601f106119ce576101008083540402835291602001916119f9565b820191906000526020600020905b8154815290600101906020018083116119dc57829003601f168201915b5050505050905090565b611a15611a0e61271d565b8383612c9e565b5050565b611a2a611a2461271d565b83612804565b611a69576040517f08c379a0000000000000000000000000000000000000000000000000000000008152600401611a60906142c9565b60405180910390fd5b611a7584848484612e0a565b50505050565b611a8361346c565b607760008381526020019081526020016000206040518060800160405290816000820154815260200160018201548152602001600282015481526020016003820154815250509050919050565b6060611adb826126b1565b611b1a576040517f08c379a0000000000000000000000000000000000000000000000000000000008152600401611b1190614805565b60405180910390fd5b6000600860008481526020019081526020016000208054611b3a90613e81565b80601f0160208091040260200160405190810160405280929190818152602001828054611b6690613e81565b8015611bb35780601f10611b8857610100808354040283529160200191611bb3565b820191906000526020600020905b815481529060010190602001808311611b9657829003601f168201915b505050505090506000611bc4612e66565b90506000815103611bd9578192505050611c1c565b600082511115611c0e578082604051602001611bf6929190614825565b60405160208183030381529060405292505050611c1c565b611c1784612e7d565b925050505b919050565b600260015403611c66576040517f08c379a0000000000000000000000000000000000000000000000000000000008152600401611c5d90613efe565b60405180910390fd5b60026001819055506000607b6000838152602001908152602001600020905060008160000160009054906101000a900473ffffffffffffffffffffffffffffffffffffffff1690506000826003015411611cbf57600080fd5b8160040160009054906101000a900460ff16611cda57600080fd5b34826001015460058460010154611cf19190614849565b611cfb919061487a565b14611d0557600080fd5b600082600101549050607b6000858152602001908152602001600020600080820160006101000a81549073ffffffffffffffffffffffffffffffffffffffff02191690556001820160009055600282016000905560038201600090556004820160006101000a81549060ff021916905550506000811115611df1576000808373ffffffffffffffffffffffffffffffffffffffff1683604051611da7906144c7565b60006040518083038185875af1925050503d8060008114611de4576040519150601f19603f3d011682016040523d82523d6000602084013e611de9565b606091505b509150915050505b3073ffffffffffffffffffffffffffffffffffffffff166342842e0e3033876040518463ffffffff1660e01b8152600401611e2e939291906148d0565b600060405180830381600087803b158015611e4857600080fd5b505af1158015611e5c573d6000803e3d6000fd5b50505050607a60008373ffffffffffffffffffffffffffffffffffffffff1673ffffffffffffffffffffffffffffffffffffffff1681526020019081526020016000206000815480929190611eb090613f4d565b91905055508173ffffffffffffffffffffffffffffffffffffffff16843373ffffffffffffffffffffffffffffffffffffffff167f478956c967ca99f4651fef2663546a452561b806dd5b5818ad086a2f478511868442604051611f15929190614382565b60405180910390a45050506001808190555050565b600260015403611f6f576040517f08c379a0000000000000000000000000000000000000000000000000000000008152600401611f6690613efe565b60405180910390fd5b60026001819055503373ffffffffffffffffffffffffffffffffffffffff16611f9784611477565b73ffffffffffffffffffffffffffffffffffffffff1614611fb757600080fd5b603c811015611fc557600080fd5b6040518060a001604052803373ffffffffffffffffffffffffffffffffffffffff16815260200183815260200182815260200142815260200160011515815250607b600085815260200190815260200160002060008201518160000160006101000a81548173ffffffffffffffffffffffffffffffffffffffff021916908373ffffffffffffffffffffffffffffffffffffffff16021790555060208201518160010155604082015181600201556060820151816003015560808201518160040160006101000a81548160ff0219169083151502179055509050506120ab3330856112ed565b607a60003373ffffffffffffffffffffffffffffffffffffffff1673ffffffffffffffffffffffffffffffffffffffff16815260200190815260200160002060008154809291906120fb9061440b565b9190505550823373ffffffffffffffffffffffffffffffffffffffff167f1bd18fbc31b1648a85db1b4d7adc8ab1d87907cf79c519431985f3b8990b64cc84844260405161214b93929190614907565b60405180910390a360018081905550505050565b61216761271d565b73ffffffffffffffffffffffffffffffffffffffff16612185611948565b73ffffffffffffffffffffffffffffffffffffffff16146121db576040517f08c379a00000000000000000000000000000000000000000000000000000000081526004016121d29061420e565b60405180910390fd5b600960009054906101000a900473ffffffffffffffffffffffffffffffffffffffff1673ffffffffffffffffffffffffffffffffffffffff16635d3b1d30600b54600960149054906101000a900467ffffffffffffffff16600c60049054906101000a900461ffff16600c60009054906101000a900463ffffffff16600c60069054906101000a900463ffffffff166040518663ffffffff1660e01b815260040161228a9594939291906149b6565b6020604051808303816000875af11580156122a9573d6000803e3d6000fd5b505050506040513d601f19601f820116820180604052508101906122cd9190614a1e565b600e81905550565b600e5481565b606060006064905060008167ffffffffffffffff8111156122ff576122fe613820565b5b6040519080825280601f01601f1916602001820160405280156123315781602001600182028036833780820191505090505b50905060005b600085146123c3576000600a8661234e91906143da565b9050600a8661235d9190614849565b955080603061236c919061487a565b60f81b83838061237b9061440b565b94508151811061238e5761238d6142e9565b5b60200101907effffffffffffffffffffffffffffffffffffffffffffffffffffffffffffff1916908160001a90535050612337565b60008167ffffffffffffffff8111156123df576123de613820565b5b6040519080825280601f01601f1916602001820160405280156124115781602001600182028036833780820191505090505b50905060005b828110156124a957836001828561242e919061434e565b612438919061434e565b81518110612449576124486142e9565b5b602001015160f81c60f81b828281518110612467576124666142e9565b5b60200101907effffffffffffffffffffffffffffffffffffffffffffffffffffffffffffff1916908160001a90535080806124a19061440b565b915050612417565b5060008190508095505050505050919050565b6000600760008473ffffffffffffffffffffffffffffffffffffffff1673ffffffffffffffffffffffffffffffffffffffff16815260200190815260200160002060008373ffffffffffffffffffffffffffffffffffffffff1673ffffffffffffffffffffffffffffffffffffffff16815260200190815260200160002060009054906101000a900460ff16905092915050565b61255861271d565b73ffffffffffffffffffffffffffffffffffffffff16612576611948565b73ffffffffffffffffffffffffffffffffffffffff16146125cc576040517f08c379a00000000000000000000000000000000000000000000000000000000081526004016125c39061420e565b60405180910390fd5b600073ffffffffffffffffffffffffffffffffffffffff168173ffffffffffffffffffffffffffffffffffffffff160361263b576040517f08c379a000000000000000000000000000000000000000000000000000000000815260040161263290614abd565b60405180910390fd5b61264481612bda565b50565b60007f01ffc9a7000000000000000000000000000000000000000000000000000000007bffffffffffffffffffffffffffffffffffffffffffffffffffffffff1916827bffffffffffffffffffffffffffffffffffffffffffffffffffffffff1916149050919050565b60008073ffffffffffffffffffffffffffffffffffffffff166004600084815260200190815260200160002060009054906101000a900473ffffffffffffffffffffffffffffffffffffffff1673ffffffffffffffffffffffffffffffffffffffff1614159050919050565b600033905090565b816006600083815260200190815260200160002060006101000a81548173ffffffffffffffffffffffffffffffffffffffff021916908373ffffffffffffffffffffffffffffffffffffffff160217905550808273ffffffffffffffffffffffffffffffffffffffff1661279883611477565b73ffffffffffffffffffffffffffffffffffffffff167f8c5be1e5ebec7d5bd14f71427d1e84f3dd0314c0f7b2291e5b200ac8c7c3b92560405160405180910390a45050565b806000815181106127f2576127f16142e9565b5b6020026020010151600d819055505050565b600061280f826126b1565b61284e576040517f08c379a000000000000000000000000000000000000000000000000000000000815260040161284590614b4f565b60405180910390fd5b600061285983611477565b90508073ffffffffffffffffffffffffffffffffffffffff168473ffffffffffffffffffffffffffffffffffffffff1614806128c857508373ffffffffffffffffffffffffffffffffffffffff166128b084610b73565b73ffffffffffffffffffffffffffffffffffffffff16145b806128d957506128d881856124bc565b5b91505092915050565b8273ffffffffffffffffffffffffffffffffffffffff1661290282611477565b73ffffffffffffffffffffffffffffffffffffffff1614612958576040517f08c379a000000000000000000000000000000000000000000000000000000000815260040161294f90614be1565b60405180910390fd5b600073ffffffffffffffffffffffffffffffffffffffff168273ffffffffffffffffffffffffffffffffffffffff16036129c7576040517f08c379a00000000000000000000000000000000000000000000000000000000081526004016129be90614c73565b60405180910390fd5b6129d2838383612f24565b6129dd600082612725565b6001600560008573ffffffffffffffffffffffffffffffffffffffff1673ffffffffffffffffffffffffffffffffffffffff1681526020019081526020016000206000828254612a2d919061434e565b925050819055506001600560008473ffffffffffffffffffffffffffffffffffffffff1673ffffffffffffffffffffffffffffffffffffffff1681526020019081526020016000206000828254612a84919061487a565b92505081905550816004600083815260200190815260200160002060006101000a81548173ffffffffffffffffffffffffffffffffffffffff021916908373ffffffffffffffffffffffffffffffffffffffff160217905550808273ffffffffffffffffffffffffffffffffffffffff168473ffffffffffffffffffffffffffffffffffffffff167fddf252ad1be2c89b69c2b068fc378daa952ba7f163c4a11628f55a4df523b3ef60405160405180910390a4612b43838383612f29565b505050565b612b62828260405180602001604052806000815250612f2e565b5050565b612b6f826126b1565b612bae576040517f08c379a0000000000000000000000000000000000000000000000000000000008152600401612ba590614d05565b60405180910390fd5b80600860008481526020019081526020016000209080519060200190612bd5929190613494565b505050565b60008060009054906101000a900473ffffffffffffffffffffffffffffffffffffffff169050816000806101000a81548173ffffffffffffffffffffffffffffffffffffffff021916908373ffffffffffffffffffffffffffffffffffffffff1602179055508173ffffffffffffffffffffffffffffffffffffffff168173ffffffffffffffffffffffffffffffffffffffff167f8be0079c531659141344cd1fd0a4f28419497f9722a3daafe3b4186f6b6457e060405160405180910390a35050565b8173ffffffffffffffffffffffffffffffffffffffff168373ffffffffffffffffffffffffffffffffffffffff1603612d0c576040517f08c379a0000000000000000000000000000000000000000000000000000000008152600401612d0390614d71565b60405180910390fd5b80600760008573ffffffffffffffffffffffffffffffffffffffff1673ffffffffffffffffffffffffffffffffffffffff16815260200190815260200160002060008473ffffffffffffffffffffffffffffffffffffffff1673ffffffffffffffffffffffffffffffffffffffff16815260200190815260200160002060006101000a81548160ff0219169083151502179055508173ffffffffffffffffffffffffffffffffffffffff168373ffffffffffffffffffffffffffffffffffffffff167f17307eab39ab6107e8899845ad3d59bd9653f200f220920489ca2b5937696c3183604051612dfd91906135eb565b60405180910390a3505050565b612e158484846128e2565b612e2184848484612f89565b612e60576040517f08c379a0000000000000000000000000000000000000000000000000000000008152600401612e5790614e03565b60405180910390fd5b50505050565b606060405180602001604052806000815250905090565b6060612e88826126b1565b612ec7576040517f08c379a0000000000000000000000000000000000000000000000000000000008152600401612ebe90614e95565b60405180910390fd5b6000612ed1612e66565b90506000815111612ef15760405180602001604052806000815250612f1c565b80612efb84613110565b604051602001612f0c929190614825565b6040516020818303038152906040525b915050919050565b505050565b505050565b612f388383613270565b612f456000848484612f89565b612f84576040517f08c379a0000000000000000000000000000000000000000000000000000000008152600401612f7b90614e03565b60405180910390fd5b505050565b6000612faa8473ffffffffffffffffffffffffffffffffffffffff16613449565b15613103578373ffffffffffffffffffffffffffffffffffffffff1663150b7a02612fd361271d565b8786866040518563ffffffff1660e01b8152600401612ff59493929190614f0a565b6020604051808303816000875af192505050801561303157506040513d601f19601f8201168201806040525081019061302e9190614f6b565b60015b6130b3573d8060008114613061576040519150601f19603f3d011682016040523d82523d6000602084013e613066565b606091505b5060008151036130ab576040517f08c379a00000000000000000000000000000000000000000000000000000000081526004016130a290614e03565b60405180910390fd5b805181602001fd5b63150b7a0260e01b7bffffffffffffffffffffffffffffffffffffffffffffffffffffffff1916817bffffffffffffffffffffffffffffffffffffffffffffffffffffffff191614915050613108565b600190505b949350505050565b606060008203613157576040518060400160405280600181526020017f3000000000000000000000000000000000000000000000000000000000000000815250905061326b565b600082905060005b600082146131895780806131729061440b565b915050600a826131829190614849565b915061315f565b60008167ffffffffffffffff8111156131a5576131a4613820565b5b6040519080825280601f01601f1916602001820160405280156131d75781602001600182028036833780820191505090505b5090505b60008514613264576001826131f0919061434e565b9150600a856131ff91906143da565b603061320b919061487a565b60f81b818381518110613221576132206142e9565b5b60200101907effffffffffffffffffffffffffffffffffffffffffffffffffffffffffffff1916908160001a905350600a8561325d9190614849565b94506131db565b8093505050505b919050565b600073ffffffffffffffffffffffffffffffffffffffff168273ffffffffffffffffffffffffffffffffffffffff16036132df576040517f08c379a00000000000000000000000000000000000000000000000000000000081526004016132d690614fe4565b60405180910390fd5b6132e8816126b1565b15613328576040517f08c379a000000000000000000000000000000000000000000000000000000000815260040161331f90615050565b60405180910390fd5b61333460008383612f24565b6001600560008473ffffffffffffffffffffffffffffffffffffffff1673ffffffffffffffffffffffffffffffffffffffff1681526020019081526020016000206000828254613384919061487a565b92505081905550816004600083815260200190815260200160002060006101000a81548173ffffffffffffffffffffffffffffffffffffffff021916908373ffffffffffffffffffffffffffffffffffffffff160217905550808273ffffffffffffffffffffffffffffffffffffffff16600073ffffffffffffffffffffffffffffffffffffffff167fddf252ad1be2c89b69c2b068fc378daa952ba7f163c4a11628f55a4df523b3ef60405160405180910390a461344560008383612f29565b5050565b6000808273ffffffffffffffffffffffffffffffffffffffff163b119050919050565b6040518060800160405280600081526020016000815260200160008152602001600081525090565b8280546134a090613e81565b90600052602060002090601f0160209004810192826134c25760008555613509565b82601f106134db57805160ff1916838001178555613509565b82800160010185558215613509579182015b828111156135085782518255916020019190600101906134ed565b5b509050613516919061351a565b5090565b5b8082111561353357600081600090555060010161351b565b5090565b6000604051905090565b600080fd5b600080fd5b60007fffffffff0000000000000000000000000000000000000000000000000000000082169050919050565b6135808161354b565b811461358b57600080fd5b50565b60008135905061359d81613577565b92915050565b6000602082840312156135b9576135b8613541565b5b60006135c78482850161358e565b91505092915050565b60008115159050919050565b6135e5816135d0565b82525050565b600060208201905061360060008301846135dc565b92915050565b600081519050919050565b600082825260208201905092915050565b60005b83811015613640578082015181840152602081019050613625565b8381111561364f576000848401525b50505050565b6000601f19601f8301169050919050565b600061367182613606565b61367b8185613611565b935061368b818560208601613622565b61369481613655565b840191505092915050565b600060208201905081810360008301526136b98184613666565b905092915050565b6000819050919050565b6136d4816136c1565b81146136df57600080fd5b50565b6000813590506136f1816136cb565b92915050565b60006020828403121561370d5761370c613541565b5b600061371b848285016136e2565b91505092915050565b600073ffffffffffffffffffffffffffffffffffffffff82169050919050565b600061374f82613724565b9050919050565b61375f81613744565b82525050565b600060208201905061377a6000830184613756565b92915050565b61378981613744565b811461379457600080fd5b50565b6000813590506137a681613780565b92915050565b600080604083850312156137c3576137c2613541565b5b60006137d185828601613797565b92505060206137e2858286016136e2565b9150509250929050565b6137f5816136c1565b82525050565b600060208201905061381060008301846137ec565b92915050565b600080fd5b600080fd5b7f4e487b7100000000000000000000000000000000000000000000000000000000600052604160045260246000fd5b61385882613655565b810181811067ffffffffffffffff8211171561387757613876613820565b5b80604052505050565b600061388a613537565b9050613896828261384f565b919050565b600067ffffffffffffffff8211156138b6576138b5613820565b5b6138bf82613655565b9050602081019050919050565b82818337600083830152505050565b60006138ee6138e98461389b565b613880565b90508281526020810184848401111561390a5761390961381b565b5b6139158482856138cc565b509392505050565b600082601f83011261393257613931613816565b5b81356139428482602086016138db565b91505092915050565b6000806000806080858703121561396557613964613541565b5b600061397387828801613797565b945050602061398487828801613797565b9350506040613995878288016136e2565b925050606085013567ffffffffffffffff8111156139b6576139b5613546565b5b6139c28782880161391d565b91505092959194509250565b6139d78161354b565b82525050565b60006020820190506139f260008301846139ce565b92915050565b600067ffffffffffffffff821115613a1357613a12613820565b5b602082029050602081019050919050565b600080fd5b6000613a3c613a37846139f8565b613880565b90508083825260208201905060208402830185811115613a5f57613a5e613a24565b5b835b81811015613a885780613a7488826136e2565b845260208401935050602081019050613a61565b5050509392505050565b600082601f830112613aa757613aa6613816565b5b8135613ab7848260208601613a29565b91505092915050565b60008060408385031215613ad757613ad6613541565b5b6000613ae5858286016136e2565b925050602083013567ffffffffffffffff811115613b0657613b05613546565b5b613b1285828601613a92565b9150509250929050565b600080600060608486031215613b3557613b34613541565b5b6000613b4386828701613797565b9350506020613b5486828701613797565b9250506040613b65868287016136e2565b9150509250925092565b600060208284031215613b8557613b84613541565b5b6000613b9384828501613797565b91505092915050565b600081519050919050565b600082825260208201905092915050565b6000819050602082019050919050565b613bd1816136c1565b82525050565b6000613be38383613bc8565b60208301905092915050565b6000602082019050919050565b6000613c0782613b9c565b613c118185613ba7565b9350613c1c83613bb8565b8060005b83811015613c4d578151613c348882613bd7565b9750613c3f83613bef565b925050600181019050613c20565b5085935050505092915050565b60006020820190508181036000830152613c748184613bfc565b905092915050565b60008060008060808587031215613c9657613c95613541565b5b6000613ca4878288016136e2565b9450506020613cb5878288016136e2565b9350506040613cc6878288016136e2565b9250506060613cd7878288016136e2565b91505092959194509250565b613cec816135d0565b8114613cf757600080fd5b50565b600081359050613d0981613ce3565b92915050565b60008060408385031215613d2657613d25613541565b5b6000613d3485828601613797565b9250506020613d4585828601613cfa565b9150509250929050565b608082016000820151613d656000850182613bc8565b506020820151613d786020850182613bc8565b506040820151613d8b6040850182613bc8565b506060820151613d9e6060850182613bc8565b50505050565b6000608082019050613db96000830184613d4f565b92915050565b600080600060608486031215613dd857613dd7613541565b5b6000613de6868287016136e2565b9350506020613df7868287016136e2565b9250506040613e08868287016136e2565b9150509250925092565b60008060408385031215613e2957613e28613541565b5b6000613e3785828601613797565b9250506020613e4885828601613797565b9150509250929050565b7f4e487b7100000000000000000000000000000000000000000000000000000000600052602260045260246000fd5b60006002820490506001821680613e9957607f821691505b602082108103613eac57613eab613e52565b5b50919050565b7f5265656e7472616e637947756172643a207265656e7472616e742063616c6c00600082015250565b6000613ee8601f83613611565b9150613ef382613eb2565b602082019050919050565b60006020820190508181036000830152613f1781613edb565b9050919050565b7f4e487b7100000000000000000000000000000000000000000000000000000000600052601160045260246000fd5b6000613f58826136c1565b915060008203613f6b57613f6a613f1e565b5b600182039050919050565b6000819050919050565b6000613f9b613f96613f9184613724565b613f76565b613724565b9050919050565b6000613fad82613f80565b9050919050565b6000613fbf82613fa2565b9050919050565b613fcf81613fb4565b82525050565b6000606082019050613fea6000830186613756565b613ff76020830185613fc6565b61400460408301846137ec565b949350505050565b7f4552433732313a20617070726f76656420717565727920666f72206e6f6e657860008201527f697374656e7420746f6b656e0000000000000000000000000000000000000000602082015250565b6000614068602c83613611565b91506140738261400c565b604082019050919050565b600060208201905081810360008301526140978161405b565b9050919050565b7f4552433732313a20617070726f76616c20746f2063757272656e74206f776e6560008201527f7200000000000000000000000000000000000000000000000000000000000000602082015250565b60006140fa602183613611565b91506141058261409e565b604082019050919050565b60006020820190508181036000830152614129816140ed565b9050919050565b7f4552433732313a20617070726f76652063616c6c6572206973206e6f74206f7760008201527f6e6572206e6f7220617070726f76656420666f7220616c6c0000000000000000602082015250565b600061418c603883613611565b915061419782614130565b604082019050919050565b600060208201905081810360008301526141bb8161417f565b9050919050565b7f4f776e61626c653a2063616c6c6572206973206e6f7420746865206f776e6572600082015250565b60006141f8602083613611565b9150614203826141c2565b602082019050919050565b60006020820190508181036000830152614227816141eb565b9050919050565b60006040820190506142436000830185613756565b6142506020830184613756565b9392505050565b7f4552433732313a207472616e736665722063616c6c6572206973206e6f74206f60008201527f776e6572206e6f7220617070726f766564000000000000000000000000000000602082015250565b60006142b3603183613611565b91506142be82614257565b604082019050919050565b600060208201905081810360008301526142e2816142a6565b9050919050565b7f4e487b7100000000000000000000000000000000000000000000000000000000600052603260045260246000fd5b600060ff82169050919050565b600061433082614318565b915060ff820361434357614342613f1e565b5b600182019050919050565b6000614359826136c1565b9150614364836136c1565b92508282101561437757614376613f1e565b5b828203905092915050565b600060408201905061439760008301856137ec565b6143a460208301846137ec565b9392505050565b7f4e487b7100000000000000000000000000000000000000000000000000000000600052601260045260246000fd5b60006143e5826136c1565b91506143f0836136c1565b925082614400576143ff6143ab565b5b828206905092915050565b6000614416826136c1565b91507fffffffffffffffffffffffffffffffffffffffffffffffffffffffffffffffff820361444857614447613f1e565b5b600182019050919050565b50565b6000614463600083613611565b915061446e82614453565b600082019050919050565b6000602082019050818103600083015261449281614456565b9050919050565b600081905092915050565b60006144b1600083614499565b91506144bc82614453565b600082019050919050565b60006144d2826144a4565b9150819050919050565b7f4552433732313a206f776e657220717565727920666f72206e6f6e657869737460008201527f656e7420746f6b656e0000000000000000000000000000000000000000000000602082015250565b6000614538602983613611565b9150614543826144dc565b604082019050919050565b600060208201905081810360008301526145678161452b565b9050919050565b7f4e6f7420656e6f756768204554482073656e743b20636865636b20707269636560008201527f2100000000000000000000000000000000000000000000000000000000000000602082015250565b60006145ca602183613611565b91506145d58261456e565b604082019050919050565b600060208201905081810360008301526145f9816145bd565b9050919050565b600081905092915050565b60008190508160005260206000209050919050565b6000815461462d81613e81565b6146378186614600565b94506001821660008114614652576001811461466357614696565b60ff19831686528186019350614696565b61466c8561460b565b60005b8381101561468e5781548189015260018201915060208101905061466f565b838801955050505b50505092915050565b60006146aa82613606565b6146b48185614600565b93506146c4818560208601613622565b80840191505092915050565b60006146dc8286614620565b91506146e8828561469f565b91506146f48284614620565b9150819050949350505050565b7f4552433732313a2062616c616e636520717565727920666f7220746865207a6560008201527f726f206164647265737300000000000000000000000000000000000000000000602082015250565b600061475d602a83613611565b915061476882614701565b604082019050919050565b6000602082019050818103600083015261478c81614750565b9050919050565b7f45524337323155524953746f726167653a2055524920717565727920666f722060008201527f6e6f6e6578697374656e7420746f6b656e000000000000000000000000000000602082015250565b60006147ef603183613611565b91506147fa82614793565b604082019050919050565b6000602082019050818103600083015261481e816147e2565b9050919050565b6000614831828561469f565b915061483d828461469f565b91508190509392505050565b6000614854826136c1565b915061485f836136c1565b92508261486f5761486e6143ab565b5b828204905092915050565b6000614885826136c1565b9150614890836136c1565b9250827fffffffffffffffffffffffffffffffffffffffffffffffffffffffffffffffff038211156148c5576148c4613f1e565b5b828201905092915050565b60006060820190506148e56000830186613756565b6148f26020830185613756565b6148ff60408301846137ec565b949350505050565b600060608201905061491c60008301866137ec565b61492960208301856137ec565b61493660408301846137ec565b949350505050565b6000819050919050565b6149518161493e565b82525050565b600067ffffffffffffffff82169050919050565b61497481614957565b82525050565b600061ffff82169050919050565b6149918161497a565b82525050565b600063ffffffff82169050919050565b6149b081614997565b82525050565b600060a0820190506149cb6000830188614948565b6149d8602083018761496b565b6149e56040830186614988565b6149f260608301856149a7565b6149ff60808301846149a7565b9695505050505050565b600081519050614a18816136cb565b92915050565b600060208284031215614a3457614a33613541565b5b6000614a4284828501614a09565b91505092915050565b7f4f776e61626c653a206e6577206f776e657220697320746865207a65726f206160008201527f6464726573730000000000000000000000000000000000000000000000000000602082015250565b6000614aa7602683613611565b9150614ab282614a4b565b604082019050919050565b60006020820190508181036000830152614ad681614a9a565b9050919050565b7f4552433732313a206f70657261746f7220717565727920666f72206e6f6e657860008201527f697374656e7420746f6b656e0000000000000000000000000000000000000000602082015250565b6000614b39602c83613611565b9150614b4482614add565b604082019050919050565b60006020820190508181036000830152614b6881614b2c565b9050919050565b7f4552433732313a207472616e736665722066726f6d20696e636f72726563742060008201527f6f776e6572000000000000000000000000000000000000000000000000000000602082015250565b6000614bcb602583613611565b9150614bd682614b6f565b604082019050919050565b60006020820190508181036000830152614bfa81614bbe565b9050919050565b7f4552433732313a207472616e7366657220746f20746865207a65726f2061646460008201527f7265737300000000000000000000000000000000000000000000000000000000602082015250565b6000614c5d602483613611565b9150614c6882614c01565b604082019050919050565b60006020820190508181036000830152614c8c81614c50565b9050919050565b7f45524337323155524953746f726167653a2055524920736574206f66206e6f6e60008201527f6578697374656e7420746f6b656e000000000000000000000000000000000000602082015250565b6000614cef602e83613611565b9150614cfa82614c93565b604082019050919050565b60006020820190508181036000830152614d1e81614ce2565b9050919050565b7f4552433732313a20617070726f766520746f2063616c6c657200000000000000600082015250565b6000614d5b601983613611565b9150614d6682614d25565b602082019050919050565b60006020820190508181036000830152614d8a81614d4e565b9050919050565b7f4552433732313a207472616e7366657220746f206e6f6e20455243373231526560008201527f63656976657220696d706c656d656e7465720000000000000000000000000000602082015250565b6000614ded603283613611565b9150614df882614d91565b604082019050919050565b60006020820190508181036000830152614e1c81614de0565b9050919050565b7f4552433732314d657461646174613a2055524920717565727920666f72206e6f60008201527f6e6578697374656e7420746f6b656e0000000000000000000000000000000000602082015250565b6000614e7f602f83613611565b9150614e8a82614e23565b604082019050919050565b60006020820190508181036000830152614eae81614e72565b9050919050565b600081519050919050565b600082825260208201905092915050565b6000614edc82614eb5565b614ee68185614ec0565b9350614ef6818560208601613622565b614eff81613655565b840191505092915050565b6000608082019050614f1f6000830187613756565b614f2c6020830186613756565b614f3960408301856137ec565b8181036060830152614f4b8184614ed1565b905095945050505050565b600081519050614f6581613577565b92915050565b600060208284031215614f8157614f80613541565b5b6000614f8f84828501614f56565b91505092915050565b7f4552433732313a206d696e7420746f20746865207a65726f2061646472657373600082015250565b6000614fce602083613611565b9150614fd982614f98565b602082019050919050565b60006020820190508181036000830152614ffd81614fc1565b9050919050565b7f4552433732313a20746f6b656e20616c7265616479206d696e74656400000000600082015250565b600061503a601c83613611565b915061504582615004565b602082019050919050565b600060208201905081810360008301526150698161502d565b905091905056fea264697066735822122018948cedc5ec4bd3ee89947260b73ace74f1e9d023f27825da3a55e8da0e57c664736f6c634300080d003368747470733a2f2f6169617274732e73746f726167652e676f6f676c65617069732e636f6d2f6d657461646174612f",
  "immutableReferences": {
    "10": [
      {
        "length": 32,
        "start": 3497
      },
      {
        "length": 32,
        "start": 3581
      }
    ]
  },
  "source": "pragma solidity 0.8.13;\r\n\r\nimport \"../node_modules/@openzeppelin/contracts/token/ERC721/ERC721.sol\";\r\nimport \"../node_modules/@openzeppelin/contracts/access/Ownable.sol\";\r\nimport \"../node_modules/@openzeppelin/contracts/security/ReentrancyGuard.sol\";\r\nimport \"../node_modules/@openzeppelin/contracts/token/ERC721/extensions/ERC721URIStorage.sol\";\r\nimport \"@chainlink/contracts/src/v0.8/interfaces/VRFCoordinatorV2Interface.sol\";\r\nimport \"@chainlink/contracts/src/v0.8/VRFConsumerBaseV2.sol\";\r\n\r\ncontract Token is Ownable, IERC721Receiver, ReentrancyGuard, VRFConsumerBaseV2, ERC721URIStorage {\r\n    \r\n\r\n    /////////////////////////////////Random number//////////////////////////////\r\n    VRFCoordinatorV2Interface COORDINATOR;\r\n\r\n    // Your subscription ID.\r\n    uint64 s_subscriptionId;\r\n\r\n    // Rinkeby coordinator. For other networks,\r\n    // see https://docs.chain.link/docs/vrf-contracts/#configurations\r\n    address vrfCoordinator = 0x6168499c0cFfCaCD319c818142124B7A15E857ab;\r\n\r\n    // The gas lane to use, which specifies the maximum gas price to bump to.\r\n    // For a list of available gas lanes on each network,\r\n    // see https://docs.chain.link/docs/vrf-contracts/#configurations\r\n    bytes32 keyHash = 0xd89b2bf150e3b9e13446986e571fb9cab24b13cea0a43ea20a6049a85cc807cc;\r\n\r\n    // Depends on the number of requested values that you want sent to the\r\n    // fulfillRandomWords() function. Storing each word costs about 20,000 gas,\r\n    // so 100,000 is a safe default for this example contract. Test and adjust\r\n    // this limit based on the network that you select, the size of the request,\r\n    // and the processing of the callback request in the fulfillRandomWords()\r\n    // function.\r\n    uint32 callbackGasLimit = 100000;\r\n\r\n    // The default is 3, but you can set this higher.\r\n    uint16 requestConfirmations = 3;\r\n\r\n    // For this example, retrieve 2 random values in one request.\r\n    // Cannot exceed VRFCoordinatorV2.MAX_NUM_WORDS.\r\n    uint32 numWords =  1;\r\n\r\n    uint256 private baseSeed;\r\n    uint256 public s_requestId;\r\n    address s_owner;\r\n    // Assumes the subscription is funded sufficiently.\r\n    function requestRandomWords() external onlyOwner {\r\n        // Will revert if subscription is not set and funded.\r\n        s_requestId = COORDINATOR.requestRandomWords(keyHash,s_subscriptionId,requestConfirmations,callbackGasLimit,numWords);\r\n    }\r\n    \r\n    function fulfillRandomWords(uint256, uint256[] memory randomWords) internal override {\r\n        baseSeed = randomWords[0];\r\n    }\r\n\r\n    constructor (string memory name, string memory symbol, uint64 subscriptionId) ERC721(name, symbol) VRFConsumerBaseV2(vrfCoordinator) {\r\n        COORDINATOR = VRFCoordinatorV2Interface(vrfCoordinator);\r\n        s_owner = msg.sender;\r\n        s_subscriptionId = subscriptionId;\r\n        totalSupply = 5;\r\n    }\r\n\r\n    uint256 increment = 0;\r\n    uint256[100] private order;\r\n    uint256 totalSupply;\r\n    function shuffle() external{\r\n        uint256[] memory unshuffled = new uint256[](totalSupply);\r\n        uint8 i;\r\n        for (i=0; i < totalSupply; i++) {\r\n            unshuffled[i] = i;\r\n        }\r\n        uint idx;\r\n        for (i=0; i < totalSupply; i++) {\r\n            idx = uint256(keccak256(abi.encode(baseSeed, increment))) % (totalSupply - i);\r\n            increment++;\r\n            order[i] = unshuffled[idx];\r\n            unshuffled[idx] = unshuffled[totalSupply - i - 1];\r\n        }\r\n    }\r\n\r\n\r\n    /////////////////////////////////Random number//////////////////////////////\r\n\r\n\r\n    event Mint(address indexed owner, uint256 indexed tokenId, uint256 timestamp);\r\n    event ListAnItem(address indexed owner, uint256 indexed tokenId, uint256 price, uint256 duration, uint256 timestamp);\r\n    event CancelAnListedItem(address indexed owner, uint256 indexed tokenId, uint256 timestamp);\r\n    event PurchaseAnItem(address indexed buyer, uint256 indexed tokenId, address indexed seller, uint256 price, uint256 timestamp);\r\n    /////////////////////////////////////////////Token Contract///////////////////////////////////////////////////\r\n\r\n    struct AIA {\r\n        uint256 attribute1; \r\n        uint256 attribute2;\r\n        uint256 attribute3;\r\n        uint256 attribute4;\r\n    }\r\n\r\n    uint256 private nextId = 0;\r\n    \r\n    mapping (uint256 => AIA) private _tokenDetails;\r\n\r\n    string prefix = \"https://aiarts.storage.googleapis.com/metadata/\";\r\n    string sub = \".json\";\r\n\r\n    function mint(uint256 attribute1, uint256 attribute2, uint256 attribute3, uint256 attribute4) external payable {\r\n        require(msg.value >= 0.01 ether, \"Not enough ETH sent; check price!\");\r\n        _tokenDetails[nextId] = AIA(order[nextId], attribute2, attribute3, attribute4);\r\n        _safeMint(msg.sender, nextId);\r\n        _setTokenURI(nextId,  string(abi.encodePacked(prefix, uintToString(order[nextId]), sub)));\r\n        emit Mint(msg.sender, nextId, block.timestamp);\r\n        nextId++;\r\n    }\r\n\r\n    function getTokenDetails (uint256 tokenId) public view returns (AIA memory){\r\n        return _tokenDetails[tokenId];\r\n    }\r\n\r\n    function getBalance() public view onlyOwner returns (uint256){\r\n        return address(this).balance;\r\n    }\r\n\r\n    function withdrawBalance() external payable onlyOwner {\r\n        require(msg.sender == owner(), \"\");\r\n        (bool sent, bytes memory data) = payable(address(owner())).call{value:address(this).balance}(\"\");\r\n\r\n    }\r\n\r\n    function getAllTokensForUser(address user) public view returns (uint256[] memory){\r\n        uint256 tokenCount = balanceOf(user);\r\n        if(tokenCount ==0){\r\n            return new uint256[](0);\r\n        }\r\n        else{\r\n            uint256[] memory result = new uint256[](tokenCount);\r\n            uint256 totalAIAs = nextId;\r\n            uint256 resultIndex = 0;\r\n            uint256 i;\r\n            for(i=0; i < totalAIAs; i++)\r\n            {\r\n                if(ownerOf(i) == user)\r\n                {\r\n                    result[resultIndex] = i;\r\n                    resultIndex++;\r\n                }\r\n            }\r\n            return result;\r\n        }\r\n    }\r\n\r\n\r\n\r\n    /////////////////////////////////////////////Marketplace Contract//////////////////////////////////////////////\r\n\r\n    struct Item {\r\n        address payable seller;\r\n        uint256 price;\r\n        uint256 duration;\r\n        uint256 startedAt;\r\n        bool isSelling;\r\n    }\r\n\r\n    mapping (address => uint256) userToListedItems;\r\n    mapping (uint256 => Item) tokenIdToItem;\r\n\r\n    function sell(uint256 _tokenId, uint256 _price, uint256 _duration) external nonReentrant {\r\n        require(ownerOf(_tokenId) == msg.sender);\r\n        require(_duration >= 1 minutes);\r\n        tokenIdToItem[_tokenId] = Item(\r\n            payable(msg.sender),\r\n            _price,\r\n            _duration,\r\n            block.timestamp,\r\n            true\r\n        );\r\n        safeTransferFrom(msg.sender, address(this), _tokenId);\r\n        userToListedItems[msg.sender] ++;\r\n        emit ListAnItem(msg.sender, _tokenId, _price, _duration, block.timestamp);\r\n    }\r\n\r\n    function cancelSell(uint256 _tokenId) external nonReentrant {\r\n        Item storage item = tokenIdToItem[_tokenId];\r\n        require(item.startedAt > 0);\r\n        require(item.isSelling);\r\n        require(msg.sender == item.seller);\r\n        userToListedItems[msg.sender] --;\r\n        item.isSelling = false;\r\n        this.safeTransferFrom(address(this), item.seller, _tokenId);\r\n        delete tokenIdToItem[_tokenId];\r\n        emit CancelAnListedItem(msg.sender, _tokenId, block.timestamp);\r\n    }\r\n\r\n    function purchaseItem(uint256 _tokenId) external payable nonReentrant {\r\n        // Get a reference to the auction struct\r\n        Item storage item = tokenIdToItem[_tokenId];\r\n        address payable seller = item.seller;\r\n        require(item.startedAt > 0);\r\n        require(item.isSelling);\r\n        require(item.price / 5 + item.price == msg.value);\r\n        uint256 price = item.price;\r\n        delete tokenIdToItem[_tokenId];\r\n        // Transfer proceeds to seller (if there are any!)\r\n        if (price > 0) {\r\n            (bool sent, bytes memory data) = payable(seller).call{value:price}(\"\");\r\n        }\r\n        this.safeTransferFrom(address(this), msg.sender, _tokenId);\r\n        userToListedItems[seller]--;\r\n        emit PurchaseAnItem(msg.sender, _tokenId, seller, price, block.timestamp);\r\n    }\r\n\r\n    function getListedItemsForUser(address user) public view returns (uint256[] memory){\r\n        if(userToListedItems[user] ==0){\r\n            return new uint256[](0);\r\n        }\r\n        else{\r\n            uint256[] memory result = new uint256[](userToListedItems[user]);\r\n            uint256 totalAIAs = nextId;\r\n            uint256 resultIndex = 0;\r\n            uint256 i;\r\n            for(i=0; i < totalAIAs; i++)\r\n            {\r\n                Item memory item = tokenIdToItem[i];\r\n                if(item.seller == user)\r\n                {\r\n                    result[resultIndex] = i;\r\n                    resultIndex++;\r\n                }\r\n            }\r\n            return result;\r\n        }\r\n    }\r\n\r\n\r\n    /////////////////////////////////////////////Helper Functions///////////////////////////////////////////////////\r\n    function onERC721Received(address, address, uint256, bytes memory) public virtual override returns (bytes4) {\r\n        return this.onERC721Received.selector;\r\n    }\r\n\r\n    function uintToString(uint v) public pure returns (string memory) {\r\n        uint maxlength = 100;\r\n        bytes memory reversed = new bytes(maxlength);\r\n        uint i = 0;\r\n        while (v != 0) {\r\n            uint remainder = v % 10;\r\n            v = v / 10;\r\n            reversed[i++] = bytes1(uint8(48 + remainder));\r\n        }\r\n        bytes memory s = new bytes(i); // i + 1 is inefficient\r\n        for (uint j = 0; j < i; j++) {\r\n            s[j] = reversed[i - j - 1]; // to avoid the off-by-one error\r\n        }\r\n        string memory str = string(s);  // memory isn't implicitly convertible to storage\r\n        return str;\r\n    }\r\n}",
  "sourcePath": "C:\\Users\\Niven\\Documents\\AIA\\contracts\\Token.sol",
  "compiler": {
    "name": "solc",
    "version": "0.8.13+commit.abaa5c0e.Emscripten.clang"
  },
  "schemaVersion": "3.4.6",
  "updatedAt": "2022-04-09T21:03:06.198Z",
  "networkType": "ethereum",
  "devdoc": {
    "kind": "dev",
    "methods": {
      "approve(address,uint256)": {
        "details": "See {IERC721-approve}."
      },
      "balanceOf(address)": {
        "details": "See {IERC721-balanceOf}."
      },
      "getApproved(uint256)": {
        "details": "See {IERC721-getApproved}."
      },
      "isApprovedForAll(address,address)": {
        "details": "See {IERC721-isApprovedForAll}."
      },
      "name()": {
        "details": "See {IERC721Metadata-name}."
      },
      "owner()": {
        "details": "Returns the address of the current owner."
      },
      "ownerOf(uint256)": {
        "details": "See {IERC721-ownerOf}."
      },
      "renounceOwnership()": {
        "details": "Leaves the contract without owner. It will not be possible to call `onlyOwner` functions anymore. Can only be called by the current owner. NOTE: Renouncing ownership will leave the contract without an owner, thereby removing any functionality that is only available to the owner."
      },
      "safeTransferFrom(address,address,uint256)": {
        "details": "See {IERC721-safeTransferFrom}."
      },
      "safeTransferFrom(address,address,uint256,bytes)": {
        "details": "See {IERC721-safeTransferFrom}."
      },
      "setApprovalForAll(address,bool)": {
        "details": "See {IERC721-setApprovalForAll}."
      },
      "supportsInterface(bytes4)": {
        "details": "See {IERC165-supportsInterface}."
      },
      "symbol()": {
        "details": "See {IERC721Metadata-symbol}."
      },
      "tokenURI(uint256)": {
        "details": "See {IERC721Metadata-tokenURI}."
      },
      "transferFrom(address,address,uint256)": {
        "details": "See {IERC721-transferFrom}."
      },
      "transferOwnership(address)": {
        "details": "Transfers ownership of the contract to a new account (`newOwner`). Can only be called by the current owner."
      }
    },
    "version": 1
  },
  "userdoc": {
    "kind": "user",
    "methods": {},
    "version": 1
  }
}