{
  "contractName": "Token",
  "abi": [
    {
      "inputs": [
        {
          "internalType": "string",
          "name": "name",
          "type": "string"
        },
        {
          "internalType": "string",
          "name": "symbol",
          "type": "string"
        }
      ],
      "stateMutability": "nonpayable",
      "type": "constructor"
    },
    {
      "anonymous": false,
      "inputs": [
        {
          "indexed": true,
          "internalType": "address",
          "name": "owner",
          "type": "address"
        },
        {
          "indexed": true,
          "internalType": "address",
          "name": "approved",
          "type": "address"
        },
        {
          "indexed": true,
          "internalType": "uint256",
          "name": "tokenId",
          "type": "uint256"
        }
      ],
      "name": "Approval",
      "type": "event"
    },
    {
      "anonymous": false,
      "inputs": [
        {
          "indexed": true,
          "internalType": "address",
          "name": "owner",
          "type": "address"
        },
        {
          "indexed": true,
          "internalType": "address",
          "name": "operator",
          "type": "address"
        },
        {
          "indexed": false,
          "internalType": "bool",
          "name": "approved",
          "type": "bool"
        }
      ],
      "name": "ApprovalForAll",
      "type": "event"
    },
    {
      "anonymous": false,
      "inputs": [
        {
          "indexed": true,
          "internalType": "address",
          "name": "owner",
          "type": "address"
        },
        {
          "indexed": true,
          "internalType": "uint256",
          "name": "tokenId",
          "type": "uint256"
        },
        {
          "indexed": false,
          "internalType": "uint256",
          "name": "timestamp",
          "type": "uint256"
        }
      ],
      "name": "CancelAnListedItem",
      "type": "event"
    },
    {
      "anonymous": false,
      "inputs": [
        {
          "indexed": true,
          "internalType": "address",
          "name": "owner",
          "type": "address"
        },
        {
          "indexed": true,
          "internalType": "uint256",
          "name": "tokenId",
          "type": "uint256"
        },
        {
          "indexed": false,
          "internalType": "uint256",
          "name": "price",
          "type": "uint256"
        },
        {
          "indexed": false,
          "internalType": "uint256",
          "name": "duration",
          "type": "uint256"
        },
        {
          "indexed": false,
          "internalType": "uint256",
          "name": "timestamp",
          "type": "uint256"
        }
      ],
      "name": "ListAnItem",
      "type": "event"
    },
    {
      "anonymous": false,
      "inputs": [
        {
          "indexed": true,
          "internalType": "address",
          "name": "owner",
          "type": "address"
        },
        {
          "indexed": true,
          "internalType": "uint256",
          "name": "tokenId",
          "type": "uint256"
        },
        {
          "indexed": false,
          "internalType": "uint256",
          "name": "timestamp",
          "type": "uint256"
        }
      ],
      "name": "Mint",
      "type": "event"
    },
    {
      "anonymous": false,
      "inputs": [
        {
          "indexed": true,
          "internalType": "address",
          "name": "previousOwner",
          "type": "address"
        },
        {
          "indexed": true,
          "internalType": "address",
          "name": "newOwner",
          "type": "address"
        }
      ],
      "name": "OwnershipTransferred",
      "type": "event"
    },
    {
      "anonymous": false,
      "inputs": [
        {
          "indexed": true,
          "internalType": "address",
          "name": "buyer",
          "type": "address"
        },
        {
          "indexed": true,
          "internalType": "uint256",
          "name": "tokenId",
          "type": "uint256"
        },
        {
          "indexed": true,
          "internalType": "address",
          "name": "seller",
          "type": "address"
        },
        {
          "indexed": false,
          "internalType": "uint256",
          "name": "price",
          "type": "uint256"
        },
        {
          "indexed": false,
          "internalType": "uint256",
          "name": "timestamp",
          "type": "uint256"
        }
      ],
      "name": "PurchaseAnItem",
      "type": "event"
    },
    {
      "anonymous": false,
      "inputs": [
        {
          "indexed": true,
          "internalType": "address",
          "name": "from",
          "type": "address"
        },
        {
          "indexed": true,
          "internalType": "address",
          "name": "to",
          "type": "address"
        },
        {
          "indexed": true,
          "internalType": "uint256",
          "name": "tokenId",
          "type": "uint256"
        }
      ],
      "name": "Transfer",
      "type": "event"
    },
    {
      "inputs": [
        {
          "internalType": "address",
          "name": "to",
          "type": "address"
        },
        {
          "internalType": "uint256",
          "name": "tokenId",
          "type": "uint256"
        }
      ],
      "name": "approve",
      "outputs": [],
      "stateMutability": "nonpayable",
      "type": "function"
    },
    {
      "inputs": [
        {
          "internalType": "address",
          "name": "owner",
          "type": "address"
        }
      ],
      "name": "balanceOf",
      "outputs": [
        {
          "internalType": "uint256",
          "name": "",
          "type": "uint256"
        }
      ],
      "stateMutability": "view",
      "type": "function",
      "constant": true
    },
    {
      "inputs": [
        {
          "internalType": "uint256",
          "name": "tokenId",
          "type": "uint256"
        }
      ],
      "name": "getApproved",
      "outputs": [
        {
          "internalType": "address",
          "name": "",
          "type": "address"
        }
      ],
      "stateMutability": "view",
      "type": "function",
      "constant": true
    },
    {
      "inputs": [
        {
          "internalType": "address",
          "name": "owner",
          "type": "address"
        },
        {
          "internalType": "address",
          "name": "operator",
          "type": "address"
        }
      ],
      "name": "isApprovedForAll",
      "outputs": [
        {
          "internalType": "bool",
          "name": "",
          "type": "bool"
        }
      ],
      "stateMutability": "view",
      "type": "function",
      "constant": true
    },
    {
      "inputs": [],
      "name": "name",
      "outputs": [
        {
          "internalType": "string",
          "name": "",
          "type": "string"
        }
      ],
      "stateMutability": "view",
      "type": "function",
      "constant": true
    },
    {
      "inputs": [],
      "name": "owner",
      "outputs": [
        {
          "internalType": "address",
          "name": "",
          "type": "address"
        }
      ],
      "stateMutability": "view",
      "type": "function",
      "constant": true
    },
    {
      "inputs": [
        {
          "internalType": "uint256",
          "name": "tokenId",
          "type": "uint256"
        }
      ],
      "name": "ownerOf",
      "outputs": [
        {
          "internalType": "address",
          "name": "",
          "type": "address"
        }
      ],
      "stateMutability": "view",
      "type": "function",
      "constant": true
    },
    {
      "inputs": [],
      "name": "renounceOwnership",
      "outputs": [],
      "stateMutability": "nonpayable",
      "type": "function"
    },
    {
      "inputs": [
        {
          "internalType": "address",
          "name": "from",
          "type": "address"
        },
        {
          "internalType": "address",
          "name": "to",
          "type": "address"
        },
        {
          "internalType": "uint256",
          "name": "tokenId",
          "type": "uint256"
        }
      ],
      "name": "safeTransferFrom",
      "outputs": [],
      "stateMutability": "nonpayable",
      "type": "function"
    },
    {
      "inputs": [
        {
          "internalType": "address",
          "name": "from",
          "type": "address"
        },
        {
          "internalType": "address",
          "name": "to",
          "type": "address"
        },
        {
          "internalType": "uint256",
          "name": "tokenId",
          "type": "uint256"
        },
        {
          "internalType": "bytes",
          "name": "_data",
          "type": "bytes"
        }
      ],
      "name": "safeTransferFrom",
      "outputs": [],
      "stateMutability": "nonpayable",
      "type": "function"
    },
    {
      "inputs": [
        {
          "internalType": "address",
          "name": "operator",
          "type": "address"
        },
        {
          "internalType": "bool",
          "name": "approved",
          "type": "bool"
        }
      ],
      "name": "setApprovalForAll",
      "outputs": [],
      "stateMutability": "nonpayable",
      "type": "function"
    },
    {
      "inputs": [
        {
          "internalType": "bytes4",
          "name": "interfaceId",
          "type": "bytes4"
        }
      ],
      "name": "supportsInterface",
      "outputs": [
        {
          "internalType": "bool",
          "name": "",
          "type": "bool"
        }
      ],
      "stateMutability": "view",
      "type": "function",
      "constant": true
    },
    {
      "inputs": [],
      "name": "symbol",
      "outputs": [
        {
          "internalType": "string",
          "name": "",
          "type": "string"
        }
      ],
      "stateMutability": "view",
      "type": "function",
      "constant": true
    },
    {
      "inputs": [
        {
          "internalType": "uint256",
          "name": "tokenId",
          "type": "uint256"
        }
      ],
      "name": "tokenURI",
      "outputs": [
        {
          "internalType": "string",
          "name": "",
          "type": "string"
        }
      ],
      "stateMutability": "view",
      "type": "function",
      "constant": true
    },
    {
      "inputs": [
        {
          "internalType": "address",
          "name": "from",
          "type": "address"
        },
        {
          "internalType": "address",
          "name": "to",
          "type": "address"
        },
        {
          "internalType": "uint256",
          "name": "tokenId",
          "type": "uint256"
        }
      ],
      "name": "transferFrom",
      "outputs": [],
      "stateMutability": "nonpayable",
      "type": "function"
    },
    {
      "inputs": [
        {
          "internalType": "address",
          "name": "newOwner",
          "type": "address"
        }
      ],
      "name": "transferOwnership",
      "outputs": [],
      "stateMutability": "nonpayable",
      "type": "function"
    },
    {
      "inputs": [
        {
          "internalType": "uint256",
          "name": "attribute1",
          "type": "uint256"
        },
        {
          "internalType": "uint256",
          "name": "attribute2",
          "type": "uint256"
        },
        {
          "internalType": "uint256",
          "name": "attribute3",
          "type": "uint256"
        },
        {
          "internalType": "uint256",
          "name": "attribute4",
          "type": "uint256"
        }
      ],
      "name": "mint",
      "outputs": [],
      "stateMutability": "payable",
      "type": "function",
      "payable": true
    },
    {
      "inputs": [
        {
          "internalType": "uint256",
          "name": "tokenId",
          "type": "uint256"
        }
      ],
      "name": "getTokenDetails",
      "outputs": [
        {
          "components": [
            {
              "internalType": "uint256",
              "name": "attribute1",
              "type": "uint256"
            },
            {
              "internalType": "uint256",
              "name": "attribute2",
              "type": "uint256"
            },
            {
              "internalType": "uint256",
              "name": "attribute3",
              "type": "uint256"
            },
            {
              "internalType": "uint256",
              "name": "attribute4",
              "type": "uint256"
            }
          ],
          "internalType": "struct Token.AIA",
          "name": "",
          "type": "tuple"
        }
      ],
      "stateMutability": "view",
      "type": "function",
      "constant": true
    },
    {
      "inputs": [],
      "name": "getBalance",
      "outputs": [
        {
          "internalType": "uint256",
          "name": "",
          "type": "uint256"
        }
      ],
      "stateMutability": "view",
      "type": "function",
      "constant": true
    },
    {
      "inputs": [],
      "name": "withdrawBalance",
      "outputs": [],
      "stateMutability": "payable",
      "type": "function",
      "payable": true
    },
    {
      "inputs": [
        {
          "internalType": "address",
          "name": "user",
          "type": "address"
        }
      ],
      "name": "getAllTokensForUser",
      "outputs": [
        {
          "internalType": "uint256[]",
          "name": "",
          "type": "uint256[]"
        }
      ],
      "stateMutability": "view",
      "type": "function",
      "constant": true
    },
    {
      "inputs": [
        {
          "internalType": "uint256",
          "name": "_tokenId",
          "type": "uint256"
        },
        {
          "internalType": "uint256",
          "name": "_price",
          "type": "uint256"
        },
        {
          "internalType": "uint256",
          "name": "_duration",
          "type": "uint256"
        }
      ],
      "name": "sell",
      "outputs": [],
      "stateMutability": "nonpayable",
      "type": "function"
    },
    {
      "inputs": [
        {
          "internalType": "uint256",
          "name": "_tokenId",
          "type": "uint256"
        }
      ],
      "name": "cancelSell",
      "outputs": [],
      "stateMutability": "nonpayable",
      "type": "function"
    },
    {
      "inputs": [
        {
          "internalType": "uint256",
          "name": "_tokenId",
          "type": "uint256"
        }
      ],
      "name": "purchaseItem",
      "outputs": [],
      "stateMutability": "payable",
      "type": "function",
      "payable": true
    },
    {
      "inputs": [
        {
          "internalType": "address",
          "name": "user",
          "type": "address"
        }
      ],
      "name": "getListedItemsForUser",
      "outputs": [
        {
          "internalType": "uint256[]",
          "name": "",
          "type": "uint256[]"
        }
      ],
      "stateMutability": "view",
      "type": "function",
      "constant": true
    },
    {
      "inputs": [
        {
          "internalType": "address",
          "name": "",
          "type": "address"
        },
        {
          "internalType": "address",
          "name": "",
          "type": "address"
        },
        {
          "internalType": "uint256",
          "name": "",
          "type": "uint256"
        },
        {
          "internalType": "bytes",
          "name": "",
          "type": "bytes"
        }
      ],
      "name": "onERC721Received",
      "outputs": [
        {
          "internalType": "bytes4",
          "name": "",
          "type": "bytes4"
        }
      ],
      "stateMutability": "nonpayable",
      "type": "function"
    }
  ],
  "bytecode": "0x608060405260006008553480156200001657600080fd5b506040516200470c3803806200470c83398181016040528101906200003c9190620003bd565b818181600090805190602001906200005692919062000170565b5080600190805190602001906200006f92919062000170565b5050506200009262000086620000a260201b60201c565b620000aa60201b60201c565b60016007819055505050620004a6565b600033905090565b6000600660009054906101000a900473ffffffffffffffffffffffffffffffffffffffff16905081600660006101000a81548173ffffffffffffffffffffffffffffffffffffffff021916908373ffffffffffffffffffffffffffffffffffffffff1602179055508173ffffffffffffffffffffffffffffffffffffffff168173ffffffffffffffffffffffffffffffffffffffff167f8be0079c531659141344cd1fd0a4f28419497f9722a3daafe3b4186f6b6457e060405160405180910390a35050565b8280546200017e9062000471565b90600052602060002090601f016020900481019282620001a25760008555620001ee565b82601f10620001bd57805160ff1916838001178555620001ee565b82800160010185558215620001ee579182015b82811115620001ed578251825591602001919060010190620001d0565b5b509050620001fd919062000201565b5090565b5b808211156200021c57600081600090555060010162000202565b5090565b6000604051905090565b600080fd5b600080fd5b600080fd5b600080fd5b6000601f19601f8301169050919050565b7f4e487b7100000000000000000000000000000000000000000000000000000000600052604160045260246000fd5b62000289826200023e565b810181811067ffffffffffffffff82111715620002ab57620002aa6200024f565b5b80604052505050565b6000620002c062000220565b9050620002ce82826200027e565b919050565b600067ffffffffffffffff821115620002f157620002f06200024f565b5b620002fc826200023e565b9050602081019050919050565b60005b83811015620003295780820151818401526020810190506200030c565b8381111562000339576000848401525b50505050565b6000620003566200035084620002d3565b620002b4565b90508281526020810184848401111562000375576200037462000239565b5b6200038284828562000309565b509392505050565b600082601f830112620003a257620003a162000234565b5b8151620003b48482602086016200033f565b91505092915050565b60008060408385031215620003d757620003d66200022a565b5b600083015167ffffffffffffffff811115620003f857620003f76200022f565b5b62000406858286016200038a565b925050602083015167ffffffffffffffff8111156200042a57620004296200022f565b5b62000438858286016200038a565b9150509250929050565b7f4e487b7100000000000000000000000000000000000000000000000000000000600052602260045260246000fd5b600060028204905060018216806200048a57607f821691505b602082108103620004a0576200049f62000442565b5b50919050565b61425680620004b66000396000f3fe6080604052600436106101815760003560e01c806370a08231116100d1578063b88d4fde1161008a578063d38ea5bf11610064578063d38ea5bf1461058a578063d3c9727c146105a6578063e985e9c5146105cf578063f2fde38b1461060c57610181565b8063b88d4fde146104e7578063c1e0372814610510578063c87b56dd1461054d57610181565b806370a08231146103d7578063715018a61461041457806382de8fe91461042b5780638da5cb5b1461046857806395d89b4114610493578063a22cb465146104be57610181565b8063150b7a021161013e57806342842e0e1161011857806342842e0e1461034b5780635fd8c710146103745780636352211e1461037e5780636582ccd3146103bb57610181565b8063150b7a02146102a857806323b872dd146102e55780632888df2a1461030e57610181565b806301ffc9a71461018657806306fdde03146101c357806307c9cd45146101ee578063081812fc14610217578063095ea7b31461025457806312065fe01461027d575b600080fd5b34801561019257600080fd5b506101ad60048036038101906101a89190612bcc565b610635565b6040516101ba9190612c14565b60405180910390f35b3480156101cf57600080fd5b506101d8610717565b6040516101e59190612cc8565b60405180910390f35b3480156101fa57600080fd5b5061021560048036038101906102109190612d20565b6107a9565b005b34801561022357600080fd5b5061023e60048036038101906102399190612d20565b610a5e565b60405161024b9190612d8e565b60405180910390f35b34801561026057600080fd5b5061027b60048036038101906102769190612dd5565b610ae3565b005b34801561028957600080fd5b50610292610bfa565b60405161029f9190612e24565b60405180910390f35b3480156102b457600080fd5b506102cf60048036038101906102ca9190612f74565b610c7e565b6040516102dc9190613006565b60405180910390f35b3480156102f157600080fd5b5061030c60048036038101906103079190613021565b610c92565b005b34801561031a57600080fd5b5061033560048036038101906103309190613074565b610cf2565b604051610342919061315f565b60405180910390f35b34801561035757600080fd5b50610372600480360381019061036d9190613021565b610f63565b005b61037c610f83565b005b34801561038a57600080fd5b506103a560048036038101906103a09190612d20565b6110ed565b6040516103b29190612d8e565b60405180910390f35b6103d560048036038101906103d09190613181565b61119e565b005b3480156103e357600080fd5b506103fe60048036038101906103f99190613074565b6112c4565b60405161040b9190612e24565b60405180910390f35b34801561042057600080fd5b5061042961137b565b005b34801561043757600080fd5b50610452600480360381019061044d9190613074565b611403565b60405161045f919061315f565b60405180910390f35b34801561047457600080fd5b5061047d611557565b60405161048a9190612d8e565b60405180910390f35b34801561049f57600080fd5b506104a8611581565b6040516104b59190612cc8565b60405180910390f35b3480156104ca57600080fd5b506104e560048036038101906104e09190613214565b611613565b005b3480156104f357600080fd5b5061050e60048036038101906105099190612f74565b611629565b005b34801561051c57600080fd5b5061053760048036038101906105329190612d20565b61168b565b60405161054491906132a9565b60405180910390f35b34801561055957600080fd5b50610574600480360381019061056f9190612d20565b6116e0565b6040516105819190612cc8565b60405180910390f35b6105a4600480360381019061059f9190612d20565b611787565b005b3480156105b257600080fd5b506105cd60048036038101906105c891906132c4565b611a91565b005b3480156105db57600080fd5b506105f660048036038101906105f19190613317565b611cc7565b6040516106039190612c14565b60405180910390f35b34801561061857600080fd5b50610633600480360381019061062e9190613074565b611d5b565b005b60007f80ac58cd000000000000000000000000000000000000000000000000000000007bffffffffffffffffffffffffffffffffffffffffffffffffffffffff1916827bffffffffffffffffffffffffffffffffffffffffffffffffffffffff1916148061070057507f5b5e139f000000000000000000000000000000000000000000000000000000007bffffffffffffffffffffffffffffffffffffffffffffffffffffffff1916827bffffffffffffffffffffffffffffffffffffffffffffffffffffffff1916145b80610710575061070f82611e52565b5b9050919050565b60606000805461072690613386565b80601f016020809104026020016040519081016040528092919081815260200182805461075290613386565b801561079f5780601f106107745761010080835404028352916020019161079f565b820191906000526020600020905b81548152906001019060200180831161078257829003601f168201915b5050505050905090565b6002600754036107ee576040517f08c379a00000000000000000000000000000000000000000000000000000000081526004016107e590613403565b60405180910390fd5b60026007819055506000600b60008381526020019081526020016000209050600081600301541161081e57600080fd5b8060040160009054906101000a900460ff1661083957600080fd5b8060000160009054906101000a900473ffffffffffffffffffffffffffffffffffffffff1673ffffffffffffffffffffffffffffffffffffffff163373ffffffffffffffffffffffffffffffffffffffff161461089557600080fd5b600a60003373ffffffffffffffffffffffffffffffffffffffff1673ffffffffffffffffffffffffffffffffffffffff16815260200190815260200160002060008154809291906108e590613452565b919050555060008160040160006101000a81548160ff0219169083151502179055503073ffffffffffffffffffffffffffffffffffffffff166342842e0e308360000160009054906101000a900473ffffffffffffffffffffffffffffffffffffffff16856040518463ffffffff1660e01b8152600401610968939291906134da565b600060405180830381600087803b15801561098257600080fd5b505af1158015610996573d6000803e3d6000fd5b50505050600b6000838152602001908152602001600020600080820160006101000a81549073ffffffffffffffffffffffffffffffffffffffff02191690556001820160009055600282016000905560038201600090556004820160006101000a81549060ff02191690555050813373ffffffffffffffffffffffffffffffffffffffff167faafa025e65bdcff1ef0464eae38e306c5dedaa9ba5ee3f47de3b91d1bf1460e442604051610a4a9190612e24565b60405180910390a350600160078190555050565b6000610a6982611ebc565b610aa8576040517f08c379a0000000000000000000000000000000000000000000000000000000008152600401610a9f90613583565b60405180910390fd5b6004600083815260200190815260200160002060009054906101000a900473ffffffffffffffffffffffffffffffffffffffff169050919050565b6000610aee826110ed565b90508073ffffffffffffffffffffffffffffffffffffffff168373ffffffffffffffffffffffffffffffffffffffff1603610b5e576040517f08c379a0000000000000000000000000000000000000000000000000000000008152600401610b5590613615565b60405180910390fd5b8073ffffffffffffffffffffffffffffffffffffffff16610b7d611f28565b73ffffffffffffffffffffffffffffffffffffffff161480610bac5750610bab81610ba6611f28565b611cc7565b5b610beb576040517f08c379a0000000000000000000000000000000000000000000000000000000008152600401610be2906136a7565b60405180910390fd5b610bf58383611f30565b505050565b6000610c04611f28565b73ffffffffffffffffffffffffffffffffffffffff16610c22611557565b73ffffffffffffffffffffffffffffffffffffffff1614610c78576040517f08c379a0000000000000000000000000000000000000000000000000000000008152600401610c6f90613713565b60405180910390fd5b47905090565b600063150b7a0260e01b9050949350505050565b610ca3610c9d611f28565b82611fe9565b610ce2576040517f08c379a0000000000000000000000000000000000000000000000000000000008152600401610cd9906137a5565b60405180910390fd5b610ced8383836120c7565b505050565b60606000600a60008473ffffffffffffffffffffffffffffffffffffffff1673ffffffffffffffffffffffffffffffffffffffff1681526020019081526020016000205403610d8c57600067ffffffffffffffff811115610d5657610d55612e49565b5b604051908082528060200260200182016040528015610d845781602001602082028036833780820191505090505b509050610f5e565b6000600a60008473ffffffffffffffffffffffffffffffffffffffff1673ffffffffffffffffffffffffffffffffffffffff1681526020019081526020016000205467ffffffffffffffff811115610de757610de6612e49565b5b604051908082528060200260200182016040528015610e155781602001602082028036833780820191505090505b509050600060085490506000805b82811015610f56576000600b60008381526020019081526020016000206040518060a00160405290816000820160009054906101000a900473ffffffffffffffffffffffffffffffffffffffff1673ffffffffffffffffffffffffffffffffffffffff1673ffffffffffffffffffffffffffffffffffffffff1681526020016001820154815260200160028201548152602001600382015481526020016004820160009054906101000a900460ff16151515158152505090508673ffffffffffffffffffffffffffffffffffffffff16816000015173ffffffffffffffffffffffffffffffffffffffff1603610f425781858481518110610f2757610f266137c5565b5b6020026020010181815250508280610f3e906137f4565b9350505b508080610f4e906137f4565b915050610e23565b839450505050505b919050565b610f7e83838360405180602001604052806000815250611629565b505050565b610f8b611f28565b73ffffffffffffffffffffffffffffffffffffffff16610fa9611557565b73ffffffffffffffffffffffffffffffffffffffff1614610fff576040517f08c379a0000000000000000000000000000000000000000000000000000000008152600401610ff690613713565b60405180910390fd5b611007611557565b73ffffffffffffffffffffffffffffffffffffffff163373ffffffffffffffffffffffffffffffffffffffff1614611074576040517f08c379a000000000000000000000000000000000000000000000000000000000815260040161106b90613862565b60405180910390fd5b60008061107f611557565b73ffffffffffffffffffffffffffffffffffffffff16476040516110a2906138b0565b60006040518083038185875af1925050503d80600081146110df576040519150601f19603f3d011682016040523d82523d6000602084013e6110e4565b606091505b50915091505050565b6000806002600084815260200190815260200160002060009054906101000a900473ffffffffffffffffffffffffffffffffffffffff169050600073ffffffffffffffffffffffffffffffffffffffff168173ffffffffffffffffffffffffffffffffffffffff1603611195576040517f08c379a000000000000000000000000000000000000000000000000000000000815260040161118c90613937565b60405180910390fd5b80915050919050565b662386f26fc100003410156111e8576040517f08c379a00000000000000000000000000000000000000000000000000000000081526004016111df906139c9565b60405180910390fd5b604051806080016040528085815260200184815260200183815260200182815250600960006008548152602001908152602001600020600082015181600001556020820151816001015560408201518160020155606082015181600301559050506112553360085461232d565b6008543373ffffffffffffffffffffffffffffffffffffffff167f4c209b5fc8ad50758f13e2e1088ba56a560dff690a1c6fef26394f4c03821c4f4260405161129e9190612e24565b60405180910390a3600860008154809291906112b9906137f4565b919050555050505050565b60008073ffffffffffffffffffffffffffffffffffffffff168273ffffffffffffffffffffffffffffffffffffffff1603611334576040517f08c379a000000000000000000000000000000000000000000000000000000000815260040161132b90613a5b565b60405180910390fd5b600360008373ffffffffffffffffffffffffffffffffffffffff1673ffffffffffffffffffffffffffffffffffffffff168152602001908152602001600020549050919050565b611383611f28565b73ffffffffffffffffffffffffffffffffffffffff166113a1611557565b73ffffffffffffffffffffffffffffffffffffffff16146113f7576040517f08c379a00000000000000000000000000000000000000000000000000000000081526004016113ee90613713565b60405180910390fd5b611401600061234b565b565b60606000611410836112c4565b90506000810361146c57600067ffffffffffffffff81111561143557611434612e49565b5b6040519080825280602002602001820160405280156114635781602001602082028036833780820191505090505b50915050611552565b60008167ffffffffffffffff81111561148857611487612e49565b5b6040519080825280602002602001820160405280156114b65781602001602082028036833780820191505090505b509050600060085490506000805b82811015611549578673ffffffffffffffffffffffffffffffffffffffff166114ec826110ed565b73ffffffffffffffffffffffffffffffffffffffff1603611536578084838151811061151b5761151a6137c5565b5b6020026020010181815250508180611532906137f4565b9250505b8080611541906137f4565b9150506114c4565b83955050505050505b919050565b6000600660009054906101000a900473ffffffffffffffffffffffffffffffffffffffff16905090565b60606001805461159090613386565b80601f01602080910402602001604051908101604052809291908181526020018280546115bc90613386565b80156116095780601f106115de57610100808354040283529160200191611609565b820191906000526020600020905b8154815290600101906020018083116115ec57829003601f168201915b5050505050905090565b61162561161e611f28565b8383612411565b5050565b61163a611634611f28565b83611fe9565b611679576040517f08c379a0000000000000000000000000000000000000000000000000000000008152600401611670906137a5565b60405180910390fd5b6116858484848461257d565b50505050565b611693612b38565b600960008381526020019081526020016000206040518060800160405290816000820154815260200160018201548152602001600282015481526020016003820154815250509050919050565b60606116eb82611ebc565b61172a576040517f08c379a000000000000000000000000000000000000000000000000000000000815260040161172190613aed565b60405180910390fd5b60006117346125d9565b90506000815111611754576040518060200160405280600081525061177f565b8061175e846125f0565b60405160200161176f929190613b49565b6040516020818303038152906040525b915050919050565b6002600754036117cc576040517f08c379a00000000000000000000000000000000000000000000000000000000081526004016117c390613403565b60405180910390fd5b60026007819055506000600b6000838152602001908152602001600020905060008160000160009054906101000a900473ffffffffffffffffffffffffffffffffffffffff169050600082600301541161182557600080fd5b8160040160009054906101000a900460ff1661184057600080fd5b348260010154600584600101546118579190613b9c565b6118619190613bcd565b1461186b57600080fd5b600082600101549050600b6000858152602001908152602001600020600080820160006101000a81549073ffffffffffffffffffffffffffffffffffffffff02191690556001820160009055600282016000905560038201600090556004820160006101000a81549060ff021916905550506000811115611957576000808373ffffffffffffffffffffffffffffffffffffffff168360405161190d906138b0565b60006040518083038185875af1925050503d806000811461194a576040519150601f19603f3d011682016040523d82523d6000602084013e61194f565b606091505b509150915050505b3073ffffffffffffffffffffffffffffffffffffffff166342842e0e3033876040518463ffffffff1660e01b815260040161199493929190613c23565b600060405180830381600087803b1580156119ae57600080fd5b505af11580156119c2573d6000803e3d6000fd5b50505050600a60008373ffffffffffffffffffffffffffffffffffffffff1673ffffffffffffffffffffffffffffffffffffffff1681526020019081526020016000206000815480929190611a1690613452565b91905055508173ffffffffffffffffffffffffffffffffffffffff16843373ffffffffffffffffffffffffffffffffffffffff167f478956c967ca99f4651fef2663546a452561b806dd5b5818ad086a2f478511868442604051611a7b929190613c5a565b60405180910390a4505050600160078190555050565b600260075403611ad6576040517f08c379a0000000000000000000000000000000000000000000000000000000008152600401611acd90613403565b60405180910390fd5b60026007819055503373ffffffffffffffffffffffffffffffffffffffff16611afe846110ed565b73ffffffffffffffffffffffffffffffffffffffff1614611b1e57600080fd5b603c811015611b2c57600080fd5b6040518060a001604052803373ffffffffffffffffffffffffffffffffffffffff16815260200183815260200182815260200142815260200160011515815250600b600085815260200190815260200160002060008201518160000160006101000a81548173ffffffffffffffffffffffffffffffffffffffff021916908373ffffffffffffffffffffffffffffffffffffffff16021790555060208201518160010155604082015181600201556060820151816003015560808201518160040160006101000a81548160ff021916908315150217905550905050611c12333085610f63565b600a60003373ffffffffffffffffffffffffffffffffffffffff1673ffffffffffffffffffffffffffffffffffffffff1681526020019081526020016000206000815480929190611c62906137f4565b9190505550823373ffffffffffffffffffffffffffffffffffffffff167f1bd18fbc31b1648a85db1b4d7adc8ab1d87907cf79c519431985f3b8990b64cc848442604051611cb293929190613c83565b60405180910390a36001600781905550505050565b6000600560008473ffffffffffffffffffffffffffffffffffffffff1673ffffffffffffffffffffffffffffffffffffffff16815260200190815260200160002060008373ffffffffffffffffffffffffffffffffffffffff1673ffffffffffffffffffffffffffffffffffffffff16815260200190815260200160002060009054906101000a900460ff16905092915050565b611d63611f28565b73ffffffffffffffffffffffffffffffffffffffff16611d81611557565b73ffffffffffffffffffffffffffffffffffffffff1614611dd7576040517f08c379a0000000000000000000000000000000000000000000000000000000008152600401611dce90613713565b60405180910390fd5b600073ffffffffffffffffffffffffffffffffffffffff168173ffffffffffffffffffffffffffffffffffffffff1603611e46576040517f08c379a0000000000000000000000000000000000000000000000000000000008152600401611e3d90613d2c565b60405180910390fd5b611e4f8161234b565b50565b60007f01ffc9a7000000000000000000000000000000000000000000000000000000007bffffffffffffffffffffffffffffffffffffffffffffffffffffffff1916827bffffffffffffffffffffffffffffffffffffffffffffffffffffffff1916149050919050565b60008073ffffffffffffffffffffffffffffffffffffffff166002600084815260200190815260200160002060009054906101000a900473ffffffffffffffffffffffffffffffffffffffff1673ffffffffffffffffffffffffffffffffffffffff1614159050919050565b600033905090565b816004600083815260200190815260200160002060006101000a81548173ffffffffffffffffffffffffffffffffffffffff021916908373ffffffffffffffffffffffffffffffffffffffff160217905550808273ffffffffffffffffffffffffffffffffffffffff16611fa3836110ed565b73ffffffffffffffffffffffffffffffffffffffff167f8c5be1e5ebec7d5bd14f71427d1e84f3dd0314c0f7b2291e5b200ac8c7c3b92560405160405180910390a45050565b6000611ff482611ebc565b612033576040517f08c379a000000000000000000000000000000000000000000000000000000000815260040161202a90613dbe565b60405180910390fd5b600061203e836110ed565b90508073ffffffffffffffffffffffffffffffffffffffff168473ffffffffffffffffffffffffffffffffffffffff1614806120ad57508373ffffffffffffffffffffffffffffffffffffffff1661209584610a5e565b73ffffffffffffffffffffffffffffffffffffffff16145b806120be57506120bd8185611cc7565b5b91505092915050565b8273ffffffffffffffffffffffffffffffffffffffff166120e7826110ed565b73ffffffffffffffffffffffffffffffffffffffff161461213d576040517f08c379a000000000000000000000000000000000000000000000000000000000815260040161213490613e50565b60405180910390fd5b600073ffffffffffffffffffffffffffffffffffffffff168273ffffffffffffffffffffffffffffffffffffffff16036121ac576040517f08c379a00000000000000000000000000000000000000000000000000000000081526004016121a390613ee2565b60405180910390fd5b6121b7838383612750565b6121c2600082611f30565b6001600360008573ffffffffffffffffffffffffffffffffffffffff1673ffffffffffffffffffffffffffffffffffffffff16815260200190815260200160002060008282546122129190613f02565b925050819055506001600360008473ffffffffffffffffffffffffffffffffffffffff1673ffffffffffffffffffffffffffffffffffffffff16815260200190815260200160002060008282546122699190613bcd565b92505081905550816002600083815260200190815260200160002060006101000a81548173ffffffffffffffffffffffffffffffffffffffff021916908373ffffffffffffffffffffffffffffffffffffffff160217905550808273ffffffffffffffffffffffffffffffffffffffff168473ffffffffffffffffffffffffffffffffffffffff167fddf252ad1be2c89b69c2b068fc378daa952ba7f163c4a11628f55a4df523b3ef60405160405180910390a4612328838383612755565b505050565b61234782826040518060200160405280600081525061275a565b5050565b6000600660009054906101000a900473ffffffffffffffffffffffffffffffffffffffff16905081600660006101000a81548173ffffffffffffffffffffffffffffffffffffffff021916908373ffffffffffffffffffffffffffffffffffffffff1602179055508173ffffffffffffffffffffffffffffffffffffffff168173ffffffffffffffffffffffffffffffffffffffff167f8be0079c531659141344cd1fd0a4f28419497f9722a3daafe3b4186f6b6457e060405160405180910390a35050565b8173ffffffffffffffffffffffffffffffffffffffff168373ffffffffffffffffffffffffffffffffffffffff160361247f576040517f08c379a000000000000000000000000000000000000000000000000000000000815260040161247690613f82565b60405180910390fd5b80600560008573ffffffffffffffffffffffffffffffffffffffff1673ffffffffffffffffffffffffffffffffffffffff16815260200190815260200160002060008473ffffffffffffffffffffffffffffffffffffffff1673ffffffffffffffffffffffffffffffffffffffff16815260200190815260200160002060006101000a81548160ff0219169083151502179055508173ffffffffffffffffffffffffffffffffffffffff168373ffffffffffffffffffffffffffffffffffffffff167f17307eab39ab6107e8899845ad3d59bd9653f200f220920489ca2b5937696c31836040516125709190612c14565b60405180910390a3505050565b6125888484846120c7565b612594848484846127b5565b6125d3576040517f08c379a00000000000000000000000000000000000000000000000000000000081526004016125ca90614014565b60405180910390fd5b50505050565b606060405180602001604052806000815250905090565b606060008203612637576040518060400160405280600181526020017f3000000000000000000000000000000000000000000000000000000000000000815250905061274b565b600082905060005b60008214612669578080612652906137f4565b915050600a826126629190613b9c565b915061263f565b60008167ffffffffffffffff81111561268557612684612e49565b5b6040519080825280601f01601f1916602001820160405280156126b75781602001600182028036833780820191505090505b5090505b60008514612744576001826126d09190613f02565b9150600a856126df9190614034565b60306126eb9190613bcd565b60f81b818381518110612701576127006137c5565b5b60200101907effffffffffffffffffffffffffffffffffffffffffffffffffffffffffffff1916908160001a905350600a8561273d9190613b9c565b94506126bb565b8093505050505b919050565b505050565b505050565b612764838361293c565b61277160008484846127b5565b6127b0576040517f08c379a00000000000000000000000000000000000000000000000000000000081526004016127a790614014565b60405180910390fd5b505050565b60006127d68473ffffffffffffffffffffffffffffffffffffffff16612b15565b1561292f578373ffffffffffffffffffffffffffffffffffffffff1663150b7a026127ff611f28565b8786866040518563ffffffff1660e01b815260040161282194939291906140ba565b6020604051808303816000875af192505050801561285d57506040513d601f19601f8201168201806040525081019061285a919061411b565b60015b6128df573d806000811461288d576040519150601f19603f3d011682016040523d82523d6000602084013e612892565b606091505b5060008151036128d7576040517f08c379a00000000000000000000000000000000000000000000000000000000081526004016128ce90614014565b60405180910390fd5b805181602001fd5b63150b7a0260e01b7bffffffffffffffffffffffffffffffffffffffffffffffffffffffff1916817bffffffffffffffffffffffffffffffffffffffffffffffffffffffff191614915050612934565b600190505b949350505050565b600073ffffffffffffffffffffffffffffffffffffffff168273ffffffffffffffffffffffffffffffffffffffff16036129ab576040517f08c379a00000000000000000000000000000000000000000000000000000000081526004016129a290614194565b60405180910390fd5b6129b481611ebc565b156129f4576040517f08c379a00000000000000000000000000000000000000000000000000000000081526004016129eb90614200565b60405180910390fd5b612a0060008383612750565b6001600360008473ffffffffffffffffffffffffffffffffffffffff1673ffffffffffffffffffffffffffffffffffffffff1681526020019081526020016000206000828254612a509190613bcd565b92505081905550816002600083815260200190815260200160002060006101000a81548173ffffffffffffffffffffffffffffffffffffffff021916908373ffffffffffffffffffffffffffffffffffffffff160217905550808273ffffffffffffffffffffffffffffffffffffffff16600073ffffffffffffffffffffffffffffffffffffffff167fddf252ad1be2c89b69c2b068fc378daa952ba7f163c4a11628f55a4df523b3ef60405160405180910390a4612b1160008383612755565b5050565b6000808273ffffffffffffffffffffffffffffffffffffffff163b119050919050565b6040518060800160405280600081526020016000815260200160008152602001600081525090565b6000604051905090565b600080fd5b600080fd5b60007fffffffff0000000000000000000000000000000000000000000000000000000082169050919050565b612ba981612b74565b8114612bb457600080fd5b50565b600081359050612bc681612ba0565b92915050565b600060208284031215612be257612be1612b6a565b5b6000612bf084828501612bb7565b91505092915050565b60008115159050919050565b612c0e81612bf9565b82525050565b6000602082019050612c296000830184612c05565b92915050565b600081519050919050565b600082825260208201905092915050565b60005b83811015612c69578082015181840152602081019050612c4e565b83811115612c78576000848401525b50505050565b6000601f19601f8301169050919050565b6000612c9a82612c2f565b612ca48185612c3a565b9350612cb4818560208601612c4b565b612cbd81612c7e565b840191505092915050565b60006020820190508181036000830152612ce28184612c8f565b905092915050565b6000819050919050565b612cfd81612cea565b8114612d0857600080fd5b50565b600081359050612d1a81612cf4565b92915050565b600060208284031215612d3657612d35612b6a565b5b6000612d4484828501612d0b565b91505092915050565b600073ffffffffffffffffffffffffffffffffffffffff82169050919050565b6000612d7882612d4d565b9050919050565b612d8881612d6d565b82525050565b6000602082019050612da36000830184612d7f565b92915050565b612db281612d6d565b8114612dbd57600080fd5b50565b600081359050612dcf81612da9565b92915050565b60008060408385031215612dec57612deb612b6a565b5b6000612dfa85828601612dc0565b9250506020612e0b85828601612d0b565b9150509250929050565b612e1e81612cea565b82525050565b6000602082019050612e396000830184612e15565b92915050565b600080fd5b600080fd5b7f4e487b7100000000000000000000000000000000000000000000000000000000600052604160045260246000fd5b612e8182612c7e565b810181811067ffffffffffffffff82111715612ea057612e9f612e49565b5b80604052505050565b6000612eb3612b60565b9050612ebf8282612e78565b919050565b600067ffffffffffffffff821115612edf57612ede612e49565b5b612ee882612c7e565b9050602081019050919050565b82818337600083830152505050565b6000612f17612f1284612ec4565b612ea9565b905082815260208101848484011115612f3357612f32612e44565b5b612f3e848285612ef5565b509392505050565b600082601f830112612f5b57612f5a612e3f565b5b8135612f6b848260208601612f04565b91505092915050565b60008060008060808587031215612f8e57612f8d612b6a565b5b6000612f9c87828801612dc0565b9450506020612fad87828801612dc0565b9350506040612fbe87828801612d0b565b925050606085013567ffffffffffffffff811115612fdf57612fde612b6f565b5b612feb87828801612f46565b91505092959194509250565b61300081612b74565b82525050565b600060208201905061301b6000830184612ff7565b92915050565b60008060006060848603121561303a57613039612b6a565b5b600061304886828701612dc0565b935050602061305986828701612dc0565b925050604061306a86828701612d0b565b9150509250925092565b60006020828403121561308a57613089612b6a565b5b600061309884828501612dc0565b91505092915050565b600081519050919050565b600082825260208201905092915050565b6000819050602082019050919050565b6130d681612cea565b82525050565b60006130e883836130cd565b60208301905092915050565b6000602082019050919050565b600061310c826130a1565b61311681856130ac565b9350613121836130bd565b8060005b8381101561315257815161313988826130dc565b9750613144836130f4565b925050600181019050613125565b5085935050505092915050565b600060208201905081810360008301526131798184613101565b905092915050565b6000806000806080858703121561319b5761319a612b6a565b5b60006131a987828801612d0b565b94505060206131ba87828801612d0b565b93505060406131cb87828801612d0b565b92505060606131dc87828801612d0b565b91505092959194509250565b6131f181612bf9565b81146131fc57600080fd5b50565b60008135905061320e816131e8565b92915050565b6000806040838503121561322b5761322a612b6a565b5b600061323985828601612dc0565b925050602061324a858286016131ff565b9150509250929050565b60808201600082015161326a60008501826130cd565b50602082015161327d60208501826130cd565b50604082015161329060408501826130cd565b5060608201516132a360608501826130cd565b50505050565b60006080820190506132be6000830184613254565b92915050565b6000806000606084860312156132dd576132dc612b6a565b5b60006132eb86828701612d0b565b93505060206132fc86828701612d0b565b925050604061330d86828701612d0b565b9150509250925092565b6000806040838503121561332e5761332d612b6a565b5b600061333c85828601612dc0565b925050602061334d85828601612dc0565b9150509250929050565b7f4e487b7100000000000000000000000000000000000000000000000000000000600052602260045260246000fd5b6000600282049050600182168061339e57607f821691505b6020821081036133b1576133b0613357565b5b50919050565b7f5265656e7472616e637947756172643a207265656e7472616e742063616c6c00600082015250565b60006133ed601f83612c3a565b91506133f8826133b7565b602082019050919050565b6000602082019050818103600083015261341c816133e0565b9050919050565b7f4e487b7100000000000000000000000000000000000000000000000000000000600052601160045260246000fd5b600061345d82612cea565b9150600082036134705761346f613423565b5b600182039050919050565b6000819050919050565b60006134a061349b61349684612d4d565b61347b565b612d4d565b9050919050565b60006134b282613485565b9050919050565b60006134c4826134a7565b9050919050565b6134d4816134b9565b82525050565b60006060820190506134ef6000830186612d7f565b6134fc60208301856134cb565b6135096040830184612e15565b949350505050565b7f4552433732313a20617070726f76656420717565727920666f72206e6f6e657860008201527f697374656e7420746f6b656e0000000000000000000000000000000000000000602082015250565b600061356d602c83612c3a565b915061357882613511565b604082019050919050565b6000602082019050818103600083015261359c81613560565b9050919050565b7f4552433732313a20617070726f76616c20746f2063757272656e74206f776e6560008201527f7200000000000000000000000000000000000000000000000000000000000000602082015250565b60006135ff602183612c3a565b915061360a826135a3565b604082019050919050565b6000602082019050818103600083015261362e816135f2565b9050919050565b7f4552433732313a20617070726f76652063616c6c6572206973206e6f74206f7760008201527f6e6572206e6f7220617070726f76656420666f7220616c6c0000000000000000602082015250565b6000613691603883612c3a565b915061369c82613635565b604082019050919050565b600060208201905081810360008301526136c081613684565b9050919050565b7f4f776e61626c653a2063616c6c6572206973206e6f7420746865206f776e6572600082015250565b60006136fd602083612c3a565b9150613708826136c7565b602082019050919050565b6000602082019050818103600083015261372c816136f0565b9050919050565b7f4552433732313a207472616e736665722063616c6c6572206973206e6f74206f60008201527f776e6572206e6f7220617070726f766564000000000000000000000000000000602082015250565b600061378f603183612c3a565b915061379a82613733565b604082019050919050565b600060208201905081810360008301526137be81613782565b9050919050565b7f4e487b7100000000000000000000000000000000000000000000000000000000600052603260045260246000fd5b60006137ff82612cea565b91507fffffffffffffffffffffffffffffffffffffffffffffffffffffffffffffffff820361383157613830613423565b5b600182019050919050565b50565b600061384c600083612c3a565b91506138578261383c565b600082019050919050565b6000602082019050818103600083015261387b8161383f565b9050919050565b600081905092915050565b600061389a600083613882565b91506138a58261383c565b600082019050919050565b60006138bb8261388d565b9150819050919050565b7f4552433732313a206f776e657220717565727920666f72206e6f6e657869737460008201527f656e7420746f6b656e0000000000000000000000000000000000000000000000602082015250565b6000613921602983612c3a565b915061392c826138c5565b604082019050919050565b6000602082019050818103600083015261395081613914565b9050919050565b7f4e6f7420656e6f756768204554482073656e743b20636865636b20707269636560008201527f2100000000000000000000000000000000000000000000000000000000000000602082015250565b60006139b3602183612c3a565b91506139be82613957565b604082019050919050565b600060208201905081810360008301526139e2816139a6565b9050919050565b7f4552433732313a2062616c616e636520717565727920666f7220746865207a6560008201527f726f206164647265737300000000000000000000000000000000000000000000602082015250565b6000613a45602a83612c3a565b9150613a50826139e9565b604082019050919050565b60006020820190508181036000830152613a7481613a38565b9050919050565b7f4552433732314d657461646174613a2055524920717565727920666f72206e6f60008201527f6e6578697374656e7420746f6b656e0000000000000000000000000000000000602082015250565b6000613ad7602f83612c3a565b9150613ae282613a7b565b604082019050919050565b60006020820190508181036000830152613b0681613aca565b9050919050565b600081905092915050565b6000613b2382612c2f565b613b2d8185613b0d565b9350613b3d818560208601612c4b565b80840191505092915050565b6000613b558285613b18565b9150613b618284613b18565b91508190509392505050565b7f4e487b7100000000000000000000000000000000000000000000000000000000600052601260045260246000fd5b6000613ba782612cea565b9150613bb283612cea565b925082613bc257613bc1613b6d565b5b828204905092915050565b6000613bd882612cea565b9150613be383612cea565b9250827fffffffffffffffffffffffffffffffffffffffffffffffffffffffffffffffff03821115613c1857613c17613423565b5b828201905092915050565b6000606082019050613c386000830186612d7f565b613c456020830185612d7f565b613c526040830184612e15565b949350505050565b6000604082019050613c6f6000830185612e15565b613c7c6020830184612e15565b9392505050565b6000606082019050613c986000830186612e15565b613ca56020830185612e15565b613cb26040830184612e15565b949350505050565b7f4f776e61626c653a206e6577206f776e657220697320746865207a65726f206160008201527f6464726573730000000000000000000000000000000000000000000000000000602082015250565b6000613d16602683612c3a565b9150613d2182613cba565b604082019050919050565b60006020820190508181036000830152613d4581613d09565b9050919050565b7f4552433732313a206f70657261746f7220717565727920666f72206e6f6e657860008201527f697374656e7420746f6b656e0000000000000000000000000000000000000000602082015250565b6000613da8602c83612c3a565b9150613db382613d4c565b604082019050919050565b60006020820190508181036000830152613dd781613d9b565b9050919050565b7f4552433732313a207472616e736665722066726f6d20696e636f72726563742060008201527f6f776e6572000000000000000000000000000000000000000000000000000000602082015250565b6000613e3a602583612c3a565b9150613e4582613dde565b604082019050919050565b60006020820190508181036000830152613e6981613e2d565b9050919050565b7f4552433732313a207472616e7366657220746f20746865207a65726f2061646460008201527f7265737300000000000000000000000000000000000000000000000000000000602082015250565b6000613ecc602483612c3a565b9150613ed782613e70565b604082019050919050565b60006020820190508181036000830152613efb81613ebf565b9050919050565b6000613f0d82612cea565b9150613f1883612cea565b925082821015613f2b57613f2a613423565b5b828203905092915050565b7f4552433732313a20617070726f766520746f2063616c6c657200000000000000600082015250565b6000613f6c601983612c3a565b9150613f7782613f36565b602082019050919050565b60006020820190508181036000830152613f9b81613f5f565b9050919050565b7f4552433732313a207472616e7366657220746f206e6f6e20455243373231526560008201527f63656976657220696d706c656d656e7465720000000000000000000000000000602082015250565b6000613ffe603283612c3a565b915061400982613fa2565b604082019050919050565b6000602082019050818103600083015261402d81613ff1565b9050919050565b600061403f82612cea565b915061404a83612cea565b92508261405a57614059613b6d565b5b828206905092915050565b600081519050919050565b600082825260208201905092915050565b600061408c82614065565b6140968185614070565b93506140a6818560208601612c4b565b6140af81612c7e565b840191505092915050565b60006080820190506140cf6000830187612d7f565b6140dc6020830186612d7f565b6140e96040830185612e15565b81810360608301526140fb8184614081565b905095945050505050565b60008151905061411581612ba0565b92915050565b60006020828403121561413157614130612b6a565b5b600061413f84828501614106565b91505092915050565b7f4552433732313a206d696e7420746f20746865207a65726f2061646472657373600082015250565b600061417e602083612c3a565b915061418982614148565b602082019050919050565b600060208201905081810360008301526141ad81614171565b9050919050565b7f4552433732313a20746f6b656e20616c7265616479206d696e74656400000000600082015250565b60006141ea601c83612c3a565b91506141f5826141b4565b602082019050919050565b60006020820190508181036000830152614219816141dd565b905091905056fea2646970667358221220a3c3b8cfe5c4010ff7f41d5fc9c61b01277d705d1b987c57421f5a09cbb5d1ba64736f6c634300080d0033",
  "immutableReferences": {},
  "source": "pragma solidity 0.8.13;\r\n\r\nimport \"../node_modules/@openzeppelin/contracts/token/ERC721/ERC721.sol\";\r\nimport \"../node_modules/@openzeppelin/contracts/access/Ownable.sol\";\r\nimport \"../node_modules/@openzeppelin/contracts/security/ReentrancyGuard.sol\";\r\nimport \"../node_modules/@openzeppelin/contracts/token/ERC721/extensions/ERC721URIStorage.sol\";\r\n\r\ncontract Token is ERC721, Ownable, IERC721Receiver, ReentrancyGuard{\r\n\r\n\r\n    event Mint(address indexed owner, uint256 indexed tokenId, uint256 timestamp);\r\n    event ListAnItem(address indexed owner, uint256 indexed tokenId, uint256 price, uint256 duration, uint256 timestamp);\r\n    event CancelAnListedItem(address indexed owner, uint256 indexed tokenId, uint256 timestamp);\r\n    event PurchaseAnItem(address indexed buyer, uint256 indexed tokenId, address indexed seller, uint256 price, uint256 timestamp);\r\n    /////////////////////////////////////////////Token Contract///////////////////////////////////////////////////\r\n\r\n    struct AIA {\r\n        uint256 attribute1; \r\n        uint256 attribute2;\r\n        uint256 attribute3;\r\n        uint256 attribute4;\r\n    }\r\n\r\n    uint256 private nextId = 0;\r\n    \r\n    mapping (uint256 => AIA) private _tokenDetails;\r\n\r\n    constructor (string memory name, string memory symbol) ERC721(name, symbol){\r\n\r\n    }\r\n\r\n    function mint(uint256 attribute1, uint256 attribute2, uint256 attribute3, uint256 attribute4) external payable {\r\n        require(msg.value >= 0.01 ether, \"Not enough ETH sent; check price!\");\r\n        _tokenDetails[nextId] = AIA(attribute1, attribute2, attribute3, attribute4);\r\n        _safeMint(msg.sender, nextId);\r\n        emit Mint(msg.sender, nextId, block.timestamp);\r\n        nextId++;\r\n    }\r\n\r\n    function getTokenDetails (uint256 tokenId) public view returns (AIA memory){\r\n        return _tokenDetails[tokenId];\r\n    }\r\n\r\n    function getBalance() public view onlyOwner returns (uint256){\r\n        return address(this).balance;\r\n    }\r\n\r\n    function withdrawBalance() external payable onlyOwner {\r\n        require(msg.sender == owner(), \"\");\r\n        (bool sent, bytes memory data) = payable(address(owner())).call{value:address(this).balance}(\"\");\r\n\r\n    }\r\n\r\n    function getAllTokensForUser(address user) public view returns (uint256[] memory){\r\n        uint256 tokenCount = balanceOf(user);\r\n        if(tokenCount ==0){\r\n            return new uint256[](0);\r\n        }\r\n        else{\r\n            uint256[] memory result = new uint256[](tokenCount);\r\n            uint256 totalAIAs = nextId;\r\n            uint256 resultIndex = 0;\r\n            uint256 i;\r\n            for(i=0; i < totalAIAs; i++)\r\n            {\r\n                if(ownerOf(i) == user)\r\n                {\r\n                    result[resultIndex] = i;\r\n                    resultIndex++;\r\n                }\r\n            }\r\n            return result;\r\n        }\r\n    }\r\n\r\n\r\n\r\n    /////////////////////////////////////////////Marketplace Contract//////////////////////////////////////////////\r\n\r\n    struct Item {\r\n        address payable seller;\r\n        uint256 price;\r\n        uint256 duration;\r\n        uint256 startedAt;\r\n        bool isSelling;\r\n    }\r\n\r\n    mapping (address => uint256) userToListedItems;\r\n    mapping (uint256 => Item) tokenIdToItem;\r\n\r\n    function sell(uint256 _tokenId, uint256 _price, uint256 _duration) external nonReentrant {\r\n        require(ownerOf(_tokenId) == msg.sender);\r\n        require(_duration >= 1 minutes);\r\n        tokenIdToItem[_tokenId] = Item(\r\n            payable(msg.sender),\r\n            _price,\r\n            _duration,\r\n            block.timestamp,\r\n            true\r\n        );\r\n        safeTransferFrom(msg.sender, address(this), _tokenId);\r\n        userToListedItems[msg.sender] ++;\r\n        emit ListAnItem(msg.sender, _tokenId, _price, _duration, block.timestamp);\r\n    }\r\n\r\n    function cancelSell(uint256 _tokenId) external nonReentrant {\r\n        Item storage item = tokenIdToItem[_tokenId];\r\n        require(item.startedAt > 0);\r\n        require(item.isSelling);\r\n        require(msg.sender == item.seller);\r\n        userToListedItems[msg.sender] --;\r\n        item.isSelling = false;\r\n        this.safeTransferFrom(address(this), item.seller, _tokenId);\r\n        delete tokenIdToItem[_tokenId];\r\n        emit CancelAnListedItem(msg.sender, _tokenId, block.timestamp);\r\n    }\r\n\r\n    function purchaseItem(uint256 _tokenId) external payable nonReentrant {\r\n        // Get a reference to the auction struct\r\n        Item storage item = tokenIdToItem[_tokenId];\r\n        address payable seller = item.seller;\r\n        require(item.startedAt > 0);\r\n        require(item.isSelling);\r\n        require(item.price / 5 + item.price == msg.value);\r\n        uint256 price = item.price;\r\n        delete tokenIdToItem[_tokenId];\r\n        // Transfer proceeds to seller (if there are any!)\r\n        if (price > 0) {\r\n            (bool sent, bytes memory data) = payable(seller).call{value:price}(\"\");\r\n        }\r\n        this.safeTransferFrom(address(this), msg.sender, _tokenId);\r\n        userToListedItems[seller]--;\r\n        emit PurchaseAnItem(msg.sender, _tokenId, seller, price, block.timestamp);\r\n    }\r\n\r\n    function getListedItemsForUser(address user) public view returns (uint256[] memory){\r\n        if(userToListedItems[user] ==0){\r\n            return new uint256[](0);\r\n        }\r\n        else{\r\n            uint256[] memory result = new uint256[](userToListedItems[user]);\r\n            uint256 totalAIAs = nextId;\r\n            uint256 resultIndex = 0;\r\n            uint256 i;\r\n            for(i=0; i < totalAIAs; i++)\r\n            {\r\n                Item memory item = tokenIdToItem[i];\r\n                if(item.seller == user)\r\n                {\r\n                    result[resultIndex] = i;\r\n                    resultIndex++;\r\n                }\r\n            }\r\n            return result;\r\n        }\r\n    }\r\n\r\n\r\n    /////////////////////////////////////////////Helper Functions///////////////////////////////////////////////////\r\n    function onERC721Received(address, address, uint256, bytes memory) public virtual override returns (bytes4) {\r\n        return this.onERC721Received.selector;\r\n    }\r\n}",
  "sourcePath": "C:\\Users\\Niven\\Documents\\AIA\\contracts\\Token.sol",
  "compiler": {
    "name": "solc",
    "version": "0.8.13+commit.abaa5c0e.Emscripten.clang"
  },
  "schemaVersion": "3.4.6",
  "updatedAt": "2022-04-07T03:53:59.240Z",
  "networkType": "ethereum",
  "devdoc": {
    "kind": "dev",
    "methods": {
      "approve(address,uint256)": {
        "details": "See {IERC721-approve}."
      },
      "balanceOf(address)": {
        "details": "See {IERC721-balanceOf}."
      },
      "getApproved(uint256)": {
        "details": "See {IERC721-getApproved}."
      },
      "isApprovedForAll(address,address)": {
        "details": "See {IERC721-isApprovedForAll}."
      },
      "name()": {
        "details": "See {IERC721Metadata-name}."
      },
      "owner()": {
        "details": "Returns the address of the current owner."
      },
      "ownerOf(uint256)": {
        "details": "See {IERC721-ownerOf}."
      },
      "renounceOwnership()": {
        "details": "Leaves the contract without owner. It will not be possible to call `onlyOwner` functions anymore. Can only be called by the current owner. NOTE: Renouncing ownership will leave the contract without an owner, thereby removing any functionality that is only available to the owner."
      },
      "safeTransferFrom(address,address,uint256)": {
        "details": "See {IERC721-safeTransferFrom}."
      },
      "safeTransferFrom(address,address,uint256,bytes)": {
        "details": "See {IERC721-safeTransferFrom}."
      },
      "setApprovalForAll(address,bool)": {
        "details": "See {IERC721-setApprovalForAll}."
      },
      "supportsInterface(bytes4)": {
        "details": "See {IERC165-supportsInterface}."
      },
      "symbol()": {
        "details": "See {IERC721Metadata-symbol}."
      },
      "tokenURI(uint256)": {
        "details": "See {IERC721Metadata-tokenURI}."
      },
      "transferFrom(address,address,uint256)": {
        "details": "See {IERC721-transferFrom}."
      },
      "transferOwnership(address)": {
        "details": "Transfers ownership of the contract to a new account (`newOwner`). Can only be called by the current owner."
      }
    },
    "version": 1
  },
  "userdoc": {
    "kind": "user",
    "methods": {},
    "version": 1
  }
}