{
  "contractName": "Token",
  "abi": [
    {
      "inputs": [
        {
          "internalType": "string",
          "name": "name",
          "type": "string"
        },
        {
          "internalType": "string",
          "name": "symbol",
          "type": "string"
        }
      ],
      "stateMutability": "nonpayable",
      "type": "constructor"
    },
    {
      "anonymous": false,
      "inputs": [
        {
          "indexed": true,
          "internalType": "address",
          "name": "owner",
          "type": "address"
        },
        {
          "indexed": true,
          "internalType": "address",
          "name": "approved",
          "type": "address"
        },
        {
          "indexed": true,
          "internalType": "uint256",
          "name": "tokenId",
          "type": "uint256"
        }
      ],
      "name": "Approval",
      "type": "event"
    },
    {
      "anonymous": false,
      "inputs": [
        {
          "indexed": true,
          "internalType": "address",
          "name": "owner",
          "type": "address"
        },
        {
          "indexed": true,
          "internalType": "address",
          "name": "operator",
          "type": "address"
        },
        {
          "indexed": false,
          "internalType": "bool",
          "name": "approved",
          "type": "bool"
        }
      ],
      "name": "ApprovalForAll",
      "type": "event"
    },
    {
      "anonymous": false,
      "inputs": [
        {
          "indexed": true,
          "internalType": "address",
          "name": "previousOwner",
          "type": "address"
        },
        {
          "indexed": true,
          "internalType": "address",
          "name": "newOwner",
          "type": "address"
        }
      ],
      "name": "OwnershipTransferred",
      "type": "event"
    },
    {
      "anonymous": false,
      "inputs": [
        {
          "indexed": true,
          "internalType": "address",
          "name": "from",
          "type": "address"
        },
        {
          "indexed": true,
          "internalType": "address",
          "name": "to",
          "type": "address"
        },
        {
          "indexed": true,
          "internalType": "uint256",
          "name": "tokenId",
          "type": "uint256"
        }
      ],
      "name": "Transfer",
      "type": "event"
    },
    {
      "inputs": [
        {
          "internalType": "address",
          "name": "to",
          "type": "address"
        },
        {
          "internalType": "uint256",
          "name": "tokenId",
          "type": "uint256"
        }
      ],
      "name": "approve",
      "outputs": [],
      "stateMutability": "nonpayable",
      "type": "function"
    },
    {
      "inputs": [
        {
          "internalType": "address",
          "name": "owner",
          "type": "address"
        }
      ],
      "name": "balanceOf",
      "outputs": [
        {
          "internalType": "uint256",
          "name": "",
          "type": "uint256"
        }
      ],
      "stateMutability": "view",
      "type": "function",
      "constant": true
    },
    {
      "inputs": [
        {
          "internalType": "uint256",
          "name": "tokenId",
          "type": "uint256"
        }
      ],
      "name": "getApproved",
      "outputs": [
        {
          "internalType": "address",
          "name": "",
          "type": "address"
        }
      ],
      "stateMutability": "view",
      "type": "function",
      "constant": true
    },
    {
      "inputs": [
        {
          "internalType": "address",
          "name": "owner",
          "type": "address"
        },
        {
          "internalType": "address",
          "name": "operator",
          "type": "address"
        }
      ],
      "name": "isApprovedForAll",
      "outputs": [
        {
          "internalType": "bool",
          "name": "",
          "type": "bool"
        }
      ],
      "stateMutability": "view",
      "type": "function",
      "constant": true
    },
    {
      "inputs": [],
      "name": "name",
      "outputs": [
        {
          "internalType": "string",
          "name": "",
          "type": "string"
        }
      ],
      "stateMutability": "view",
      "type": "function",
      "constant": true
    },
    {
      "inputs": [],
      "name": "nonFungibleContract",
      "outputs": [
        {
          "internalType": "contract ERC721",
          "name": "",
          "type": "address"
        }
      ],
      "stateMutability": "view",
      "type": "function",
      "constant": true
    },
    {
      "inputs": [],
      "name": "owner",
      "outputs": [
        {
          "internalType": "address",
          "name": "",
          "type": "address"
        }
      ],
      "stateMutability": "view",
      "type": "function",
      "constant": true
    },
    {
      "inputs": [
        {
          "internalType": "uint256",
          "name": "tokenId",
          "type": "uint256"
        }
      ],
      "name": "ownerOf",
      "outputs": [
        {
          "internalType": "address",
          "name": "",
          "type": "address"
        }
      ],
      "stateMutability": "view",
      "type": "function",
      "constant": true
    },
    {
      "inputs": [],
      "name": "renounceOwnership",
      "outputs": [],
      "stateMutability": "nonpayable",
      "type": "function"
    },
    {
      "inputs": [
        {
          "internalType": "address",
          "name": "from",
          "type": "address"
        },
        {
          "internalType": "address",
          "name": "to",
          "type": "address"
        },
        {
          "internalType": "uint256",
          "name": "tokenId",
          "type": "uint256"
        }
      ],
      "name": "safeTransferFrom",
      "outputs": [],
      "stateMutability": "nonpayable",
      "type": "function"
    },
    {
      "inputs": [
        {
          "internalType": "address",
          "name": "from",
          "type": "address"
        },
        {
          "internalType": "address",
          "name": "to",
          "type": "address"
        },
        {
          "internalType": "uint256",
          "name": "tokenId",
          "type": "uint256"
        },
        {
          "internalType": "bytes",
          "name": "_data",
          "type": "bytes"
        }
      ],
      "name": "safeTransferFrom",
      "outputs": [],
      "stateMutability": "nonpayable",
      "type": "function"
    },
    {
      "inputs": [
        {
          "internalType": "address",
          "name": "operator",
          "type": "address"
        },
        {
          "internalType": "bool",
          "name": "approved",
          "type": "bool"
        }
      ],
      "name": "setApprovalForAll",
      "outputs": [],
      "stateMutability": "nonpayable",
      "type": "function"
    },
    {
      "inputs": [
        {
          "internalType": "bytes4",
          "name": "interfaceId",
          "type": "bytes4"
        }
      ],
      "name": "supportsInterface",
      "outputs": [
        {
          "internalType": "bool",
          "name": "",
          "type": "bool"
        }
      ],
      "stateMutability": "view",
      "type": "function",
      "constant": true
    },
    {
      "inputs": [],
      "name": "symbol",
      "outputs": [
        {
          "internalType": "string",
          "name": "",
          "type": "string"
        }
      ],
      "stateMutability": "view",
      "type": "function",
      "constant": true
    },
    {
      "inputs": [
        {
          "internalType": "uint256",
          "name": "tokenId",
          "type": "uint256"
        }
      ],
      "name": "tokenURI",
      "outputs": [
        {
          "internalType": "string",
          "name": "",
          "type": "string"
        }
      ],
      "stateMutability": "view",
      "type": "function",
      "constant": true
    },
    {
      "inputs": [
        {
          "internalType": "address",
          "name": "from",
          "type": "address"
        },
        {
          "internalType": "address",
          "name": "to",
          "type": "address"
        },
        {
          "internalType": "uint256",
          "name": "tokenId",
          "type": "uint256"
        }
      ],
      "name": "transferFrom",
      "outputs": [],
      "stateMutability": "nonpayable",
      "type": "function"
    },
    {
      "inputs": [
        {
          "internalType": "address",
          "name": "newOwner",
          "type": "address"
        }
      ],
      "name": "transferOwnership",
      "outputs": [],
      "stateMutability": "nonpayable",
      "type": "function"
    },
    {
      "inputs": [
        {
          "internalType": "address",
          "name": "",
          "type": "address"
        },
        {
          "internalType": "address",
          "name": "",
          "type": "address"
        },
        {
          "internalType": "uint256",
          "name": "",
          "type": "uint256"
        },
        {
          "internalType": "bytes",
          "name": "",
          "type": "bytes"
        }
      ],
      "name": "onERC721Received",
      "outputs": [
        {
          "internalType": "bytes4",
          "name": "",
          "type": "bytes4"
        }
      ],
      "stateMutability": "nonpayable",
      "type": "function"
    },
    {
      "inputs": [
        {
          "internalType": "uint256",
          "name": "_tokenId",
          "type": "uint256"
        },
        {
          "internalType": "uint256",
          "name": "_startingPrice",
          "type": "uint256"
        },
        {
          "internalType": "uint256",
          "name": "_duration",
          "type": "uint256"
        }
      ],
      "name": "createAuction",
      "outputs": [],
      "stateMutability": "nonpayable",
      "type": "function"
    },
    {
      "inputs": [
        {
          "internalType": "uint256",
          "name": "_tokenId",
          "type": "uint256"
        }
      ],
      "name": "bid",
      "outputs": [],
      "stateMutability": "payable",
      "type": "function",
      "payable": true
    },
    {
      "inputs": [],
      "name": "getBalance",
      "outputs": [
        {
          "internalType": "uint256",
          "name": "",
          "type": "uint256"
        }
      ],
      "stateMutability": "view",
      "type": "function",
      "constant": true
    },
    {
      "inputs": [],
      "name": "withdrawBalance",
      "outputs": [],
      "stateMutability": "payable",
      "type": "function",
      "payable": true
    },
    {
      "inputs": [
        {
          "internalType": "uint256",
          "name": "tokenId",
          "type": "uint256"
        }
      ],
      "name": "getTokenDetails",
      "outputs": [
        {
          "components": [
            {
              "internalType": "uint256",
              "name": "attribute1",
              "type": "uint256"
            },
            {
              "internalType": "uint256",
              "name": "attribute2",
              "type": "uint256"
            },
            {
              "internalType": "uint256",
              "name": "attribute3",
              "type": "uint256"
            },
            {
              "internalType": "uint256",
              "name": "attribute4",
              "type": "uint256"
            }
          ],
          "internalType": "struct Token.AIA",
          "name": "",
          "type": "tuple"
        }
      ],
      "stateMutability": "view",
      "type": "function",
      "constant": true
    },
    {
      "inputs": [
        {
          "internalType": "uint256",
          "name": "attribute1",
          "type": "uint256"
        },
        {
          "internalType": "uint256",
          "name": "attribute2",
          "type": "uint256"
        },
        {
          "internalType": "uint256",
          "name": "attribute3",
          "type": "uint256"
        },
        {
          "internalType": "uint256",
          "name": "attribute4",
          "type": "uint256"
        }
      ],
      "name": "mint",
      "outputs": [],
      "stateMutability": "payable",
      "type": "function",
      "payable": true
    },
    {
      "inputs": [
        {
          "internalType": "address",
          "name": "user",
          "type": "address"
        }
      ],
      "name": "getAllTokensForUser",
      "outputs": [
        {
          "internalType": "uint256[]",
          "name": "",
          "type": "uint256[]"
        }
      ],
      "stateMutability": "view",
      "type": "function",
      "constant": true
    }
  ],
  "bytecode": "0x608060405230600760006101000a81548173ffffffffffffffffffffffffffffffffffffffff021916908373ffffffffffffffffffffffffffffffffffffffff16021790555060006008553480156200005757600080fd5b5060405162003f0938038062003f0983398181016040528101906200007d9190620003f6565b8181816000908051906020019062000097929190620001a9565b508060019080519060200190620000b0929190620001a9565b505050620000d3620000c7620000db60201b60201c565b620000e360201b60201c565b5050620004df565b600033905090565b6000600660009054906101000a900473ffffffffffffffffffffffffffffffffffffffff16905081600660006101000a81548173ffffffffffffffffffffffffffffffffffffffff021916908373ffffffffffffffffffffffffffffffffffffffff1602179055508173ffffffffffffffffffffffffffffffffffffffff168173ffffffffffffffffffffffffffffffffffffffff167f8be0079c531659141344cd1fd0a4f28419497f9722a3daafe3b4186f6b6457e060405160405180910390a35050565b828054620001b790620004aa565b90600052602060002090601f016020900481019282620001db576000855562000227565b82601f10620001f657805160ff191683800117855562000227565b8280016001018555821562000227579182015b828111156200022657825182559160200191906001019062000209565b5b5090506200023691906200023a565b5090565b5b80821115620002555760008160009055506001016200023b565b5090565b6000604051905090565b600080fd5b600080fd5b600080fd5b600080fd5b6000601f19601f8301169050919050565b7f4e487b7100000000000000000000000000000000000000000000000000000000600052604160045260246000fd5b620002c28262000277565b810181811067ffffffffffffffff82111715620002e457620002e362000288565b5b80604052505050565b6000620002f962000259565b9050620003078282620002b7565b919050565b600067ffffffffffffffff8211156200032a576200032962000288565b5b620003358262000277565b9050602081019050919050565b60005b838110156200036257808201518184015260208101905062000345565b8381111562000372576000848401525b50505050565b60006200038f62000389846200030c565b620002ed565b905082815260208101848484011115620003ae57620003ad62000272565b5b620003bb84828562000342565b509392505050565b600082601f830112620003db57620003da6200026d565b5b8151620003ed84826020860162000378565b91505092915050565b6000806040838503121562000410576200040f62000263565b5b600083015167ffffffffffffffff81111562000431576200043062000268565b5b6200043f85828601620003c3565b925050602083015167ffffffffffffffff81111562000463576200046262000268565b5b6200047185828601620003c3565b9150509250929050565b7f4e487b7100000000000000000000000000000000000000000000000000000000600052602260045260246000fd5b60006002820490506001821680620004c357607f821691505b602082108103620004d957620004d86200047b565b5b50919050565b613a1a80620004ef6000396000f3fe6080604052600436106101665760003560e01c806370a08231116100d1578063b88d4fde1161008a578063cda4beef11610064578063cda4beef14610525578063dd1b7a0f1461054e578063e985e9c514610579578063f2fde38b146105b657610166565b8063b88d4fde14610482578063c1e03728146104ab578063c87b56dd146104e857610166565b806370a0823114610372578063715018a6146103af57806382de8fe9146103c65780638da5cb5b1461040357806395d89b411461042e578063a22cb4651461045957610166565b806323b872dd1161012357806323b872dd146102a157806342842e0e146102ca578063454a2ab3146102f35780635fd8c7101461030f5780636352211e146103195780636582ccd31461035657610166565b806301ffc9a71461016b57806306fdde03146101a8578063081812fc146101d3578063095ea7b31461021057806312065fe014610239578063150b7a0214610264575b600080fd5b34801561017757600080fd5b50610192600480360381019061018d919061240e565b6105df565b60405161019f9190612456565b60405180910390f35b3480156101b457600080fd5b506101bd6106c1565b6040516101ca919061250a565b60405180910390f35b3480156101df57600080fd5b506101fa60048036038101906101f59190612562565b610753565b60405161020791906125d0565b60405180910390f35b34801561021c57600080fd5b5061023760048036038101906102329190612617565b6107d8565b005b34801561024557600080fd5b5061024e6108ef565b60405161025b9190612666565b60405180910390f35b34801561027057600080fd5b5061028b600480360381019061028691906127b6565b6108f7565b6040516102989190612848565b60405180910390f35b3480156102ad57600080fd5b506102c860048036038101906102c39190612863565b61090b565b005b3480156102d657600080fd5b506102f160048036038101906102ec9190612863565b61096b565b005b61030d60048036038101906103089190612562565b61098b565b005b610317610a07565b005b34801561032557600080fd5b50610340600480360381019061033b9190612562565b610af5565b60405161034d91906125d0565b60405180910390f35b610370600480360381019061036b91906128b6565b610ba6565b005b34801561037e57600080fd5b506103996004803603810190610394919061291d565b610c7c565b6040516103a69190612666565b60405180910390f35b3480156103bb57600080fd5b506103c4610d33565b005b3480156103d257600080fd5b506103ed60048036038101906103e8919061291d565b610dbb565b6040516103fa9190612a08565b60405180910390f35b34801561040f57600080fd5b50610418610f0f565b60405161042591906125d0565b60405180910390f35b34801561043a57600080fd5b50610443610f39565b604051610450919061250a565b60405180910390f35b34801561046557600080fd5b50610480600480360381019061047b9190612a56565b610fcb565b005b34801561048e57600080fd5b506104a960048036038101906104a491906127b6565b610fe1565b005b3480156104b757600080fd5b506104d260048036038101906104cd9190612562565b611043565b6040516104df9190612aeb565b60405180910390f35b3480156104f457600080fd5b5061050f600480360381019061050a9190612562565b611098565b60405161051c919061250a565b60405180910390f35b34801561053157600080fd5b5061054c60048036038101906105479190612b06565b61113f565b005b34801561055a57600080fd5b5061056361122f565b6040516105709190612bb8565b60405180910390f35b34801561058557600080fd5b506105a0600480360381019061059b9190612bd3565b611255565b6040516105ad9190612456565b60405180910390f35b3480156105c257600080fd5b506105dd60048036038101906105d8919061291d565b6112e9565b005b60007f80ac58cd000000000000000000000000000000000000000000000000000000007bffffffffffffffffffffffffffffffffffffffffffffffffffffffff1916827bffffffffffffffffffffffffffffffffffffffffffffffffffffffff191614806106aa57507f5b5e139f000000000000000000000000000000000000000000000000000000007bffffffffffffffffffffffffffffffffffffffffffffffffffffffff1916827bffffffffffffffffffffffffffffffffffffffffffffffffffffffff1916145b806106ba57506106b9826113e0565b5b9050919050565b6060600080546106d090612c42565b80601f01602080910402602001604051908101604052809291908181526020018280546106fc90612c42565b80156107495780601f1061071e57610100808354040283529160200191610749565b820191906000526020600020905b81548152906001019060200180831161072c57829003601f168201915b5050505050905090565b600061075e8261144a565b61079d576040517f08c379a000000000000000000000000000000000000000000000000000000000815260040161079490612ce5565b60405180910390fd5b6004600083815260200190815260200160002060009054906101000a900473ffffffffffffffffffffffffffffffffffffffff169050919050565b60006107e382610af5565b90508073ffffffffffffffffffffffffffffffffffffffff168373ffffffffffffffffffffffffffffffffffffffff1603610853576040517f08c379a000000000000000000000000000000000000000000000000000000000815260040161084a90612d77565b60405180910390fd5b8073ffffffffffffffffffffffffffffffffffffffff166108726114b6565b73ffffffffffffffffffffffffffffffffffffffff1614806108a157506108a08161089b6114b6565b611255565b5b6108e0576040517f08c379a00000000000000000000000000000000000000000000000000000000081526004016108d790612e09565b60405180910390fd5b6108ea83836114be565b505050565b600047905090565b600063150b7a0260e01b9050949350505050565b61091c6109166114b6565b82611577565b61095b576040517f08c379a000000000000000000000000000000000000000000000000000000000815260040161095290612e9b565b60405180910390fd5b610966838383611655565b505050565b61098683838360405180602001604052806000815250610fe1565b505050565b61099581346118bb565b3073ffffffffffffffffffffffffffffffffffffffff166342842e0e3033846040518463ffffffff1660e01b81526004016109d293929190612ebb565b600060405180830381600087803b1580156109ec57600080fd5b505af1158015610a00573d6000803e3d6000fd5b5050505050565b610a0f610f0f565b73ffffffffffffffffffffffffffffffffffffffff163373ffffffffffffffffffffffffffffffffffffffff1614610a7c576040517f08c379a0000000000000000000000000000000000000000000000000000000008152600401610a7390612f18565b60405180910390fd5b600080610a87610f0f565b73ffffffffffffffffffffffffffffffffffffffff1647604051610aaa90612f66565b60006040518083038185875af1925050503d8060008114610ae7576040519150601f19603f3d011682016040523d82523d6000602084013e610aec565b606091505b50915091505050565b6000806002600084815260200190815260200160002060009054906101000a900473ffffffffffffffffffffffffffffffffffffffff169050600073ffffffffffffffffffffffffffffffffffffffff168173ffffffffffffffffffffffffffffffffffffffff1603610b9d576040517f08c379a0000000000000000000000000000000000000000000000000000000008152600401610b9490612fed565b60405180910390fd5b80915050919050565b670de0b6b3a7640000341015610bf1576040517f08c379a0000000000000000000000000000000000000000000000000000000008152600401610be89061307f565b60405180910390fd5b604051806080016040528085815260200184815260200183815260200182815250600a6000600854815260200190815260200160002060008201518160000155602082015181600101556040820151816002015560608201518160030155905050610c5e33600854611a54565b60086000815480929190610c71906130ce565b919050555050505050565b60008073ffffffffffffffffffffffffffffffffffffffff168273ffffffffffffffffffffffffffffffffffffffff1603610cec576040517f08c379a0000000000000000000000000000000000000000000000000000000008152600401610ce390613188565b60405180910390fd5b600360008373ffffffffffffffffffffffffffffffffffffffff1673ffffffffffffffffffffffffffffffffffffffff168152602001908152602001600020549050919050565b610d3b6114b6565b73ffffffffffffffffffffffffffffffffffffffff16610d59610f0f565b73ffffffffffffffffffffffffffffffffffffffff1614610daf576040517f08c379a0000000000000000000000000000000000000000000000000000000008152600401610da6906131f4565b60405180910390fd5b610db96000611a72565b565b60606000610dc883610c7c565b905060008103610e2457600067ffffffffffffffff811115610ded57610dec61268b565b5b604051908082528060200260200182016040528015610e1b5781602001602082028036833780820191505090505b50915050610f0a565b60008167ffffffffffffffff811115610e4057610e3f61268b565b5b604051908082528060200260200182016040528015610e6e5781602001602082028036833780820191505090505b509050600060085490506000805b82811015610f01578673ffffffffffffffffffffffffffffffffffffffff16610ea482610af5565b73ffffffffffffffffffffffffffffffffffffffff1603610eee5780848381518110610ed357610ed2613214565b5b6020026020010181815250508180610eea906130ce565b9250505b8080610ef9906130ce565b915050610e7c565b83955050505050505b919050565b6000600660009054906101000a900473ffffffffffffffffffffffffffffffffffffffff16905090565b606060018054610f4890612c42565b80601f0160208091040260200160405190810160405280929190818152602001828054610f7490612c42565b8015610fc15780601f10610f9657610100808354040283529160200191610fc1565b820191906000526020600020905b815481529060010190602001808311610fa457829003601f168201915b5050505050905090565b610fdd610fd66114b6565b8383611b38565b5050565b610ff2610fec6114b6565b83611577565b611031576040517f08c379a000000000000000000000000000000000000000000000000000000000815260040161102890612e9b565b60405180910390fd5b61103d84848484611ca4565b50505050565b61104b61237a565b600a60008381526020019081526020016000206040518060800160405290816000820154815260200160018201548152602001600282015481526020016003820154815250509050919050565b60606110a38261144a565b6110e2576040517f08c379a00000000000000000000000000000000000000000000000000000000081526004016110d9906132b5565b60405180910390fd5b60006110ec611d00565b9050600081511161110c5760405180602001604052806000815250611137565b8061111684611d17565b604051602001611127929190613311565b6040516020818303038152906040525b915050919050565b816fffffffffffffffffffffffffffffffff16821461115d57600080fd5b8067ffffffffffffffff16811461117357600080fd5b3373ffffffffffffffffffffffffffffffffffffffff1661119384610af5565b73ffffffffffffffffffffffffffffffffffffffff16146111b357600080fd5b6111be33308561096b565b600060405180608001604052803373ffffffffffffffffffffffffffffffffffffffff168152602001846fffffffffffffffffffffffffffffffff1681526020018367ffffffffffffffff1681526020014267ffffffffffffffff1681525090506112298482611e77565b50505050565b600760009054906101000a900473ffffffffffffffffffffffffffffffffffffffff1681565b6000600560008473ffffffffffffffffffffffffffffffffffffffff1673ffffffffffffffffffffffffffffffffffffffff16815260200190815260200160002060008373ffffffffffffffffffffffffffffffffffffffff1673ffffffffffffffffffffffffffffffffffffffff16815260200190815260200160002060009054906101000a900460ff16905092915050565b6112f16114b6565b73ffffffffffffffffffffffffffffffffffffffff1661130f610f0f565b73ffffffffffffffffffffffffffffffffffffffff1614611365576040517f08c379a000000000000000000000000000000000000000000000000000000000815260040161135c906131f4565b60405180910390fd5b600073ffffffffffffffffffffffffffffffffffffffff168173ffffffffffffffffffffffffffffffffffffffff16036113d4576040517f08c379a00000000000000000000000000000000000000000000000000000000081526004016113cb906133a7565b60405180910390fd5b6113dd81611a72565b50565b60007f01ffc9a7000000000000000000000000000000000000000000000000000000007bffffffffffffffffffffffffffffffffffffffffffffffffffffffff1916827bffffffffffffffffffffffffffffffffffffffffffffffffffffffff1916149050919050565b60008073ffffffffffffffffffffffffffffffffffffffff166002600084815260200190815260200160002060009054906101000a900473ffffffffffffffffffffffffffffffffffffffff1673ffffffffffffffffffffffffffffffffffffffff1614159050919050565b600033905090565b816004600083815260200190815260200160002060006101000a81548173ffffffffffffffffffffffffffffffffffffffff021916908373ffffffffffffffffffffffffffffffffffffffff160217905550808273ffffffffffffffffffffffffffffffffffffffff1661153183610af5565b73ffffffffffffffffffffffffffffffffffffffff167f8c5be1e5ebec7d5bd14f71427d1e84f3dd0314c0f7b2291e5b200ac8c7c3b92560405160405180910390a45050565b60006115828261144a565b6115c1576040517f08c379a00000000000000000000000000000000000000000000000000000000081526004016115b890613439565b60405180910390fd5b60006115cc83610af5565b90508073ffffffffffffffffffffffffffffffffffffffff168473ffffffffffffffffffffffffffffffffffffffff16148061163b57508373ffffffffffffffffffffffffffffffffffffffff1661162384610753565b73ffffffffffffffffffffffffffffffffffffffff16145b8061164c575061164b8185611255565b5b91505092915050565b8273ffffffffffffffffffffffffffffffffffffffff1661167582610af5565b73ffffffffffffffffffffffffffffffffffffffff16146116cb576040517f08c379a00000000000000000000000000000000000000000000000000000000081526004016116c2906134cb565b60405180910390fd5b600073ffffffffffffffffffffffffffffffffffffffff168273ffffffffffffffffffffffffffffffffffffffff160361173a576040517f08c379a00000000000000000000000000000000000000000000000000000000081526004016117319061355d565b60405180910390fd5b611745838383611f92565b6117506000826114be565b6001600360008573ffffffffffffffffffffffffffffffffffffffff1673ffffffffffffffffffffffffffffffffffffffff16815260200190815260200160002060008282546117a0919061357d565b925050819055506001600360008473ffffffffffffffffffffffffffffffffffffffff1673ffffffffffffffffffffffffffffffffffffffff16815260200190815260200160002060008282546117f791906135b1565b92505081905550816002600083815260200190815260200160002060006101000a81548173ffffffffffffffffffffffffffffffffffffffff021916908373ffffffffffffffffffffffffffffffffffffffff160217905550808273ffffffffffffffffffffffffffffffffffffffff168473ffffffffffffffffffffffffffffffffffffffff167fddf252ad1be2c89b69c2b068fc378daa952ba7f163c4a11628f55a4df523b3ef60405160405180910390a46118b6838383611f97565b505050565b6000600960008481526020019081526020016000209050818160010160009054906101000a90046fffffffffffffffffffffffffffffffff1660058360010160009054906101000a90046fffffffffffffffffffffffffffffffff166119219190613652565b61192b9190613683565b6fffffffffffffffffffffffffffffffff161461194757600080fd5b60008160000160009054906101000a900473ffffffffffffffffffffffffffffffffffffffff16905060008260010160009054906101000a90046fffffffffffffffffffffffffffffffff166fffffffffffffffffffffffffffffffff161115611a4e576000808273ffffffffffffffffffffffffffffffffffffffff168460010160009054906101000a90046fffffffffffffffffffffffffffffffff166fffffffffffffffffffffffffffffffff16604051611a0490612f66565b60006040518083038185875af1925050503d8060008114611a41576040519150601f19603f3d011682016040523d82523d6000602084013e611a46565b606091505b509150915050505b50505050565b611a6e828260405180602001604052806000815250611f9c565b5050565b6000600660009054906101000a900473ffffffffffffffffffffffffffffffffffffffff16905081600660006101000a81548173ffffffffffffffffffffffffffffffffffffffff021916908373ffffffffffffffffffffffffffffffffffffffff1602179055508173ffffffffffffffffffffffffffffffffffffffff168173ffffffffffffffffffffffffffffffffffffffff167f8be0079c531659141344cd1fd0a4f28419497f9722a3daafe3b4186f6b6457e060405160405180910390a35050565b8173ffffffffffffffffffffffffffffffffffffffff168373ffffffffffffffffffffffffffffffffffffffff1603611ba6576040517f08c379a0000000000000000000000000000000000000000000000000000000008152600401611b9d90613715565b60405180910390fd5b80600560008573ffffffffffffffffffffffffffffffffffffffff1673ffffffffffffffffffffffffffffffffffffffff16815260200190815260200160002060008473ffffffffffffffffffffffffffffffffffffffff1673ffffffffffffffffffffffffffffffffffffffff16815260200190815260200160002060006101000a81548160ff0219169083151502179055508173ffffffffffffffffffffffffffffffffffffffff168373ffffffffffffffffffffffffffffffffffffffff167f17307eab39ab6107e8899845ad3d59bd9653f200f220920489ca2b5937696c3183604051611c979190612456565b60405180910390a3505050565b611caf848484611655565b611cbb84848484611ff7565b611cfa576040517f08c379a0000000000000000000000000000000000000000000000000000000008152600401611cf1906137a7565b60405180910390fd5b50505050565b606060405180602001604052806000815250905090565b606060008203611d5e576040518060400160405280600181526020017f30000000000000000000000000000000000000000000000000000000000000008152509050611e72565b600082905060005b60008214611d90578080611d79906130ce565b915050600a82611d8991906137c7565b9150611d66565b60008167ffffffffffffffff811115611dac57611dab61268b565b5b6040519080825280601f01601f191660200182016040528015611dde5781602001600182028036833780820191505090505b5090505b60008514611e6b57600182611df7919061357d565b9150600a85611e0691906137f8565b6030611e1291906135b1565b60f81b818381518110611e2857611e27613214565b5b60200101907effffffffffffffffffffffffffffffffffffffffffffffffffffffffffffff1916908160001a905350600a85611e6491906137c7565b9450611de2565b8093505050505b919050565b603c816040015167ffffffffffffffff161015611e9357600080fd5b806009600084815260200190815260200160002060008201518160000160006101000a81548173ffffffffffffffffffffffffffffffffffffffff021916908373ffffffffffffffffffffffffffffffffffffffff16021790555060208201518160010160006101000a8154816fffffffffffffffffffffffffffffffff02191690836fffffffffffffffffffffffffffffffff16021790555060408201518160010160106101000a81548167ffffffffffffffff021916908367ffffffffffffffff16021790555060608201518160010160186101000a81548167ffffffffffffffff021916908367ffffffffffffffff1602179055509050505050565b505050565b505050565b611fa6838361217e565b611fb36000848484611ff7565b611ff2576040517f08c379a0000000000000000000000000000000000000000000000000000000008152600401611fe9906137a7565b60405180910390fd5b505050565b60006120188473ffffffffffffffffffffffffffffffffffffffff16612357565b15612171578373ffffffffffffffffffffffffffffffffffffffff1663150b7a026120416114b6565b8786866040518563ffffffff1660e01b8152600401612063949392919061387e565b6020604051808303816000875af192505050801561209f57506040513d601f19601f8201168201806040525081019061209c91906138df565b60015b612121573d80600081146120cf576040519150601f19603f3d011682016040523d82523d6000602084013e6120d4565b606091505b506000815103612119576040517f08c379a0000000000000000000000000000000000000000000000000000000008152600401612110906137a7565b60405180910390fd5b805181602001fd5b63150b7a0260e01b7bffffffffffffffffffffffffffffffffffffffffffffffffffffffff1916817bffffffffffffffffffffffffffffffffffffffffffffffffffffffff191614915050612176565b600190505b949350505050565b600073ffffffffffffffffffffffffffffffffffffffff168273ffffffffffffffffffffffffffffffffffffffff16036121ed576040517f08c379a00000000000000000000000000000000000000000000000000000000081526004016121e490613958565b60405180910390fd5b6121f68161144a565b15612236576040517f08c379a000000000000000000000000000000000000000000000000000000000815260040161222d906139c4565b60405180910390fd5b61224260008383611f92565b6001600360008473ffffffffffffffffffffffffffffffffffffffff1673ffffffffffffffffffffffffffffffffffffffff168152602001908152602001600020600082825461229291906135b1565b92505081905550816002600083815260200190815260200160002060006101000a81548173ffffffffffffffffffffffffffffffffffffffff021916908373ffffffffffffffffffffffffffffffffffffffff160217905550808273ffffffffffffffffffffffffffffffffffffffff16600073ffffffffffffffffffffffffffffffffffffffff167fddf252ad1be2c89b69c2b068fc378daa952ba7f163c4a11628f55a4df523b3ef60405160405180910390a461235360008383611f97565b5050565b6000808273ffffffffffffffffffffffffffffffffffffffff163b119050919050565b6040518060800160405280600081526020016000815260200160008152602001600081525090565b6000604051905090565b600080fd5b600080fd5b60007fffffffff0000000000000000000000000000000000000000000000000000000082169050919050565b6123eb816123b6565b81146123f657600080fd5b50565b600081359050612408816123e2565b92915050565b600060208284031215612424576124236123ac565b5b6000612432848285016123f9565b91505092915050565b60008115159050919050565b6124508161243b565b82525050565b600060208201905061246b6000830184612447565b92915050565b600081519050919050565b600082825260208201905092915050565b60005b838110156124ab578082015181840152602081019050612490565b838111156124ba576000848401525b50505050565b6000601f19601f8301169050919050565b60006124dc82612471565b6124e6818561247c565b93506124f681856020860161248d565b6124ff816124c0565b840191505092915050565b6000602082019050818103600083015261252481846124d1565b905092915050565b6000819050919050565b61253f8161252c565b811461254a57600080fd5b50565b60008135905061255c81612536565b92915050565b600060208284031215612578576125776123ac565b5b60006125868482850161254d565b91505092915050565b600073ffffffffffffffffffffffffffffffffffffffff82169050919050565b60006125ba8261258f565b9050919050565b6125ca816125af565b82525050565b60006020820190506125e560008301846125c1565b92915050565b6125f4816125af565b81146125ff57600080fd5b50565b600081359050612611816125eb565b92915050565b6000806040838503121561262e5761262d6123ac565b5b600061263c85828601612602565b925050602061264d8582860161254d565b9150509250929050565b6126608161252c565b82525050565b600060208201905061267b6000830184612657565b92915050565b600080fd5b600080fd5b7f4e487b7100000000000000000000000000000000000000000000000000000000600052604160045260246000fd5b6126c3826124c0565b810181811067ffffffffffffffff821117156126e2576126e161268b565b5b80604052505050565b60006126f56123a2565b905061270182826126ba565b919050565b600067ffffffffffffffff8211156127215761272061268b565b5b61272a826124c0565b9050602081019050919050565b82818337600083830152505050565b600061275961275484612706565b6126eb565b90508281526020810184848401111561277557612774612686565b5b612780848285612737565b509392505050565b600082601f83011261279d5761279c612681565b5b81356127ad848260208601612746565b91505092915050565b600080600080608085870312156127d0576127cf6123ac565b5b60006127de87828801612602565b94505060206127ef87828801612602565b93505060406128008782880161254d565b925050606085013567ffffffffffffffff811115612821576128206123b1565b5b61282d87828801612788565b91505092959194509250565b612842816123b6565b82525050565b600060208201905061285d6000830184612839565b92915050565b60008060006060848603121561287c5761287b6123ac565b5b600061288a86828701612602565b935050602061289b86828701612602565b92505060406128ac8682870161254d565b9150509250925092565b600080600080608085870312156128d0576128cf6123ac565b5b60006128de8782880161254d565b94505060206128ef8782880161254d565b93505060406129008782880161254d565b92505060606129118782880161254d565b91505092959194509250565b600060208284031215612933576129326123ac565b5b600061294184828501612602565b91505092915050565b600081519050919050565b600082825260208201905092915050565b6000819050602082019050919050565b61297f8161252c565b82525050565b60006129918383612976565b60208301905092915050565b6000602082019050919050565b60006129b58261294a565b6129bf8185612955565b93506129ca83612966565b8060005b838110156129fb5781516129e28882612985565b97506129ed8361299d565b9250506001810190506129ce565b5085935050505092915050565b60006020820190508181036000830152612a2281846129aa565b905092915050565b612a338161243b565b8114612a3e57600080fd5b50565b600081359050612a5081612a2a565b92915050565b60008060408385031215612a6d57612a6c6123ac565b5b6000612a7b85828601612602565b9250506020612a8c85828601612a41565b9150509250929050565b608082016000820151612aac6000850182612976565b506020820151612abf6020850182612976565b506040820151612ad26040850182612976565b506060820151612ae56060850182612976565b50505050565b6000608082019050612b006000830184612a96565b92915050565b600080600060608486031215612b1f57612b1e6123ac565b5b6000612b2d8682870161254d565b9350506020612b3e8682870161254d565b9250506040612b4f8682870161254d565b9150509250925092565b6000819050919050565b6000612b7e612b79612b748461258f565b612b59565b61258f565b9050919050565b6000612b9082612b63565b9050919050565b6000612ba282612b85565b9050919050565b612bb281612b97565b82525050565b6000602082019050612bcd6000830184612ba9565b92915050565b60008060408385031215612bea57612be96123ac565b5b6000612bf885828601612602565b9250506020612c0985828601612602565b9150509250929050565b7f4e487b7100000000000000000000000000000000000000000000000000000000600052602260045260246000fd5b60006002820490506001821680612c5a57607f821691505b602082108103612c6d57612c6c612c13565b5b50919050565b7f4552433732313a20617070726f76656420717565727920666f72206e6f6e657860008201527f697374656e7420746f6b656e0000000000000000000000000000000000000000602082015250565b6000612ccf602c8361247c565b9150612cda82612c73565b604082019050919050565b60006020820190508181036000830152612cfe81612cc2565b9050919050565b7f4552433732313a20617070726f76616c20746f2063757272656e74206f776e6560008201527f7200000000000000000000000000000000000000000000000000000000000000602082015250565b6000612d6160218361247c565b9150612d6c82612d05565b604082019050919050565b60006020820190508181036000830152612d9081612d54565b9050919050565b7f4552433732313a20617070726f76652063616c6c6572206973206e6f74206f7760008201527f6e6572206e6f7220617070726f76656420666f7220616c6c0000000000000000602082015250565b6000612df360388361247c565b9150612dfe82612d97565b604082019050919050565b60006020820190508181036000830152612e2281612de6565b9050919050565b7f4552433732313a207472616e736665722063616c6c6572206973206e6f74206f60008201527f776e6572206e6f7220617070726f766564000000000000000000000000000000602082015250565b6000612e8560318361247c565b9150612e9082612e29565b604082019050919050565b60006020820190508181036000830152612eb481612e78565b9050919050565b6000606082019050612ed060008301866125c1565b612edd60208301856125c1565b612eea6040830184612657565b949350505050565b50565b6000612f0260008361247c565b9150612f0d82612ef2565b600082019050919050565b60006020820190508181036000830152612f3181612ef5565b9050919050565b600081905092915050565b6000612f50600083612f38565b9150612f5b82612ef2565b600082019050919050565b6000612f7182612f43565b9150819050919050565b7f4552433732313a206f776e657220717565727920666f72206e6f6e657869737460008201527f656e7420746f6b656e0000000000000000000000000000000000000000000000602082015250565b6000612fd760298361247c565b9150612fe282612f7b565b604082019050919050565b6000602082019050818103600083015261300681612fca565b9050919050565b7f4e6f7420656e6f756768204554482073656e743b20636865636b20707269636560008201527f2100000000000000000000000000000000000000000000000000000000000000602082015250565b600061306960218361247c565b91506130748261300d565b604082019050919050565b600060208201905081810360008301526130988161305c565b9050919050565b7f4e487b7100000000000000000000000000000000000000000000000000000000600052601160045260246000fd5b60006130d98261252c565b91507fffffffffffffffffffffffffffffffffffffffffffffffffffffffffffffffff820361310b5761310a61309f565b5b600182019050919050565b7f4552433732313a2062616c616e636520717565727920666f7220746865207a6560008201527f726f206164647265737300000000000000000000000000000000000000000000602082015250565b6000613172602a8361247c565b915061317d82613116565b604082019050919050565b600060208201905081810360008301526131a181613165565b9050919050565b7f4f776e61626c653a2063616c6c6572206973206e6f7420746865206f776e6572600082015250565b60006131de60208361247c565b91506131e9826131a8565b602082019050919050565b6000602082019050818103600083015261320d816131d1565b9050919050565b7f4e487b7100000000000000000000000000000000000000000000000000000000600052603260045260246000fd5b7f4552433732314d657461646174613a2055524920717565727920666f72206e6f60008201527f6e6578697374656e7420746f6b656e0000000000000000000000000000000000602082015250565b600061329f602f8361247c565b91506132aa82613243565b604082019050919050565b600060208201905081810360008301526132ce81613292565b9050919050565b600081905092915050565b60006132eb82612471565b6132f581856132d5565b935061330581856020860161248d565b80840191505092915050565b600061331d82856132e0565b915061332982846132e0565b91508190509392505050565b7f4f776e61626c653a206e6577206f776e657220697320746865207a65726f206160008201527f6464726573730000000000000000000000000000000000000000000000000000602082015250565b600061339160268361247c565b915061339c82613335565b604082019050919050565b600060208201905081810360008301526133c081613384565b9050919050565b7f4552433732313a206f70657261746f7220717565727920666f72206e6f6e657860008201527f697374656e7420746f6b656e0000000000000000000000000000000000000000602082015250565b6000613423602c8361247c565b915061342e826133c7565b604082019050919050565b6000602082019050818103600083015261345281613416565b9050919050565b7f4552433732313a207472616e736665722066726f6d20696e636f72726563742060008201527f6f776e6572000000000000000000000000000000000000000000000000000000602082015250565b60006134b560258361247c565b91506134c082613459565b604082019050919050565b600060208201905081810360008301526134e4816134a8565b9050919050565b7f4552433732313a207472616e7366657220746f20746865207a65726f2061646460008201527f7265737300000000000000000000000000000000000000000000000000000000602082015250565b600061354760248361247c565b9150613552826134eb565b604082019050919050565b600060208201905081810360008301526135768161353a565b9050919050565b60006135888261252c565b91506135938361252c565b9250828210156135a6576135a561309f565b5b828203905092915050565b60006135bc8261252c565b91506135c78361252c565b9250827fffffffffffffffffffffffffffffffffffffffffffffffffffffffffffffffff038211156135fc576135fb61309f565b5b828201905092915050565b60006fffffffffffffffffffffffffffffffff82169050919050565b7f4e487b7100000000000000000000000000000000000000000000000000000000600052601260045260246000fd5b600061365d82613607565b915061366883613607565b92508261367857613677613623565b5b828204905092915050565b600061368e82613607565b915061369983613607565b9250826fffffffffffffffffffffffffffffffff038211156136be576136bd61309f565b5b828201905092915050565b7f4552433732313a20617070726f766520746f2063616c6c657200000000000000600082015250565b60006136ff60198361247c565b915061370a826136c9565b602082019050919050565b6000602082019050818103600083015261372e816136f2565b9050919050565b7f4552433732313a207472616e7366657220746f206e6f6e20455243373231526560008201527f63656976657220696d706c656d656e7465720000000000000000000000000000602082015250565b600061379160328361247c565b915061379c82613735565b604082019050919050565b600060208201905081810360008301526137c081613784565b9050919050565b60006137d28261252c565b91506137dd8361252c565b9250826137ed576137ec613623565b5b828204905092915050565b60006138038261252c565b915061380e8361252c565b92508261381e5761381d613623565b5b828206905092915050565b600081519050919050565b600082825260208201905092915050565b600061385082613829565b61385a8185613834565b935061386a81856020860161248d565b613873816124c0565b840191505092915050565b600060808201905061389360008301876125c1565b6138a060208301866125c1565b6138ad6040830185612657565b81810360608301526138bf8184613845565b905095945050505050565b6000815190506138d9816123e2565b92915050565b6000602082840312156138f5576138f46123ac565b5b6000613903848285016138ca565b91505092915050565b7f4552433732313a206d696e7420746f20746865207a65726f2061646472657373600082015250565b600061394260208361247c565b915061394d8261390c565b602082019050919050565b6000602082019050818103600083015261397181613935565b9050919050565b7f4552433732313a20746f6b656e20616c7265616479206d696e74656400000000600082015250565b60006139ae601c8361247c565b91506139b982613978565b602082019050919050565b600060208201905081810360008301526139dd816139a1565b905091905056fea264697066735822122099beb8cc44968089f582ddff773810b67d0b59158d6633a6adddba2aba9d2e7564736f6c634300080d0033",
  "immutableReferences": {},
  "source": "pragma solidity 0.8.13;\r\n\r\nimport \"../node_modules/@openzeppelin/contracts/token/ERC721/ERC721.sol\";\r\nimport \"../node_modules/@openzeppelin/contracts/access/Ownable.sol\";\r\n\r\ncontract Token is ERC721, Ownable, IERC721Receiver{\r\n\r\n\r\n    struct AIA {\r\n        uint256 attribute1; \r\n        uint256 attribute2;\r\n        uint256 attribute3;\r\n        uint256 attribute4;\r\n    }\r\n    struct Auction {\r\n        // Current owner of NFT\r\n        address seller;\r\n        // Price (in wei) at beginning of auction\r\n        uint128 price;\r\n        // Duration\r\n        uint64 duration;\r\n        // Time when auction started\r\n        uint64 startedAt;\r\n    }\r\n\r\n\r\n\r\n    ERC721 public nonFungibleContract = ERC721(address(this));\r\n    uint256 nextId = 0;\r\n    // Map from token ID to their corresponding auction.\r\n    mapping (uint256 => Auction) tokenIdToAuction;\r\n    mapping ( uint256 => AIA) private _tokenDetails;\r\n\r\n\r\n\r\n    constructor (string memory name, string memory symbol) ERC721(name, symbol)\r\n    {\r\n\r\n    }\r\n\r\n\r\n\r\n   function onERC721Received(address, address, uint256, bytes memory) public virtual override returns (bytes4) {\r\n        return this.onERC721Received.selector;\r\n    }\r\n\r\n    function createAuction(\r\n        uint256 _tokenId,\r\n        uint256 _startingPrice,\r\n        uint256 _duration\r\n    )\r\n        external\r\n    {\r\n        // Sanity check that no inputs overflow how many bits we've allocated\r\n        // to store them in the auction struct.\r\n        require(_startingPrice == uint256(uint128(_startingPrice)));\r\n        require(_duration == uint256(uint64(_duration)));\r\n\r\n        require(ownerOf(_tokenId) == msg.sender);\r\n        safeTransferFrom(msg.sender, address(this), _tokenId);\r\n        Auction memory auction = Auction(\r\n            msg.sender,\r\n            uint128(_startingPrice),\r\n\r\n            uint64(_duration),\r\n            uint64(block.timestamp)\r\n        );\r\n        _addAuction(_tokenId, auction);\r\n    }\r\n\r\n\r\n    function _addAuction(uint256 _tokenId, Auction memory _auction) internal {\r\n        // Require that all auctions have a duration of\r\n        // at least one minute. (Keeps our math from getting hairy!)\r\n        require(_auction.duration >= 1 minutes);\r\n\r\n        tokenIdToAuction[_tokenId] = _auction;\r\n    }\r\n\r\n\r\n\r\n    function bid(uint256 _tokenId)\r\n        external\r\n        payable\r\n    {\r\n        // _bid will throw if the bid or funds transfer fails\r\n        _bid(_tokenId, msg.value);\r\n        this.safeTransferFrom(address(this), msg.sender, _tokenId);\r\n    }\r\n\r\n    function _bid(uint256 _tokenId, uint256 paidAmout)\r\n        internal\r\n\r\n    {\r\n        // Get a reference to the auction struct\r\n        Auction storage auction = tokenIdToAuction[_tokenId];\r\n\r\n        // Check that price is equal\r\n        require(auction.price / 5 + auction.price == paidAmout);\r\n\r\n        // Grab a reference to the seller before the auction struct\r\n        // gets deleted.\r\n        address payable seller = payable(auction.seller);\r\n\r\n\r\n        // Transfer proceeds to seller (if there are any!)\r\n        if (auction.price > 0) {\r\n            // Calculate the auctioneer's cut.\r\n            // (NOTE: _computeCut() is guaranteed to return a\r\n            // value <= price, so this subtraction can't go negative.)\r\n\r\n            // NOTE: Doing a transfer() in the middle of a complex\r\n            // method like this is generally discouraged because of\r\n            // reentrancy attacks and DoS attacks if the seller is\r\n            // a contract with an invalid fallback function. We explicitly\r\n            // guard against reentrancy attacks by removing the auction\r\n            // before calling transfer(), and the only thing the seller\r\n            // can DoS is the sale of their own asset! (And if it's an\r\n            // accident, they can call cancelAuction(). )\r\n            (bool sent, bytes memory data) = payable(seller).call{value:auction.price}(\"\");\r\n        }\r\n    }\r\n\r\n\r\n\r\n    function getBalance() public view returns (uint256){\r\n        return address(this).balance;\r\n    }\r\n\r\n    function withdrawBalance() external payable{\r\n        require(msg.sender == owner(), \"\");\r\n        (bool sent, bytes memory data) = payable(address(owner())).call{value:address(this).balance}(\"\");\r\n\r\n    }\r\n\r\n    function getTokenDetails (uint256 tokenId) public view returns (AIA memory){\r\n        return _tokenDetails[tokenId];\r\n    }\r\n\r\n    function mint(uint256 attribute1, uint256 attribute2, uint256 attribute3, uint256 attribute4) external payable {\r\n        require(msg.value >= 1 ether, \"Not enough ETH sent; check price!\");\r\n        _tokenDetails[nextId] = AIA(attribute1, attribute2, attribute3, attribute4);\r\n        _safeMint(msg.sender, nextId);\r\n        nextId++;\r\n    }\r\n\r\n    function getAllTokensForUser(address user) public view returns (uint256[] memory){\r\n        uint256 tokenCount = balanceOf(user);\r\n        if(tokenCount ==0){\r\n            return new uint256[](0);\r\n        }\r\n        else{\r\n            uint256[] memory result = new uint256[](tokenCount);\r\n            uint256 totalAIAs = nextId;\r\n            uint256 resultIndex = 0;\r\n            uint256 i;\r\n            for(i=0; i < totalAIAs; i++)\r\n            {\r\n                if(ownerOf(i) == user)\r\n                {\r\n                    result[resultIndex] = i;\r\n                    resultIndex++;\r\n                }\r\n            }\r\n            return result;\r\n        }\r\n    }\r\n}",
  "sourcePath": "C:\\Users\\Niven\\Documents\\nft-game\\contracts\\Token.sol",
  "compiler": {
    "name": "solc",
    "version": "0.8.13+commit.abaa5c0e.Emscripten.clang"
  },
  "schemaVersion": "3.4.6",
  "updatedAt": "2022-04-01T03:28:38.575Z",
  "networkType": "ethereum",
  "devdoc": {
    "kind": "dev",
    "methods": {
      "approve(address,uint256)": {
        "details": "See {IERC721-approve}."
      },
      "balanceOf(address)": {
        "details": "See {IERC721-balanceOf}."
      },
      "getApproved(uint256)": {
        "details": "See {IERC721-getApproved}."
      },
      "isApprovedForAll(address,address)": {
        "details": "See {IERC721-isApprovedForAll}."
      },
      "name()": {
        "details": "See {IERC721Metadata-name}."
      },
      "owner()": {
        "details": "Returns the address of the current owner."
      },
      "ownerOf(uint256)": {
        "details": "See {IERC721-ownerOf}."
      },
      "renounceOwnership()": {
        "details": "Leaves the contract without owner. It will not be possible to call `onlyOwner` functions anymore. Can only be called by the current owner. NOTE: Renouncing ownership will leave the contract without an owner, thereby removing any functionality that is only available to the owner."
      },
      "safeTransferFrom(address,address,uint256)": {
        "details": "See {IERC721-safeTransferFrom}."
      },
      "safeTransferFrom(address,address,uint256,bytes)": {
        "details": "See {IERC721-safeTransferFrom}."
      },
      "setApprovalForAll(address,bool)": {
        "details": "See {IERC721-setApprovalForAll}."
      },
      "supportsInterface(bytes4)": {
        "details": "See {IERC165-supportsInterface}."
      },
      "symbol()": {
        "details": "See {IERC721Metadata-symbol}."
      },
      "tokenURI(uint256)": {
        "details": "See {IERC721Metadata-tokenURI}."
      },
      "transferFrom(address,address,uint256)": {
        "details": "See {IERC721-transferFrom}."
      },
      "transferOwnership(address)": {
        "details": "Transfers ownership of the contract to a new account (`newOwner`). Can only be called by the current owner."
      }
    },
    "version": 1
  },
  "userdoc": {
    "kind": "user",
    "methods": {},
    "version": 1
  }
}