{
  "contractName": "Token",
  "abi": [
    {
      "inputs": [
        {
          "internalType": "string",
          "name": "name",
          "type": "string"
        },
        {
          "internalType": "string",
          "name": "symbol",
          "type": "string"
        },
        {
          "internalType": "uint64",
          "name": "subscriptionId",
          "type": "uint64"
        },
        {
          "internalType": "uint64",
          "name": "_totalSupply",
          "type": "uint64"
        }
      ],
      "stateMutability": "nonpayable",
      "type": "constructor"
    },
    {
      "inputs": [
        {
          "internalType": "address",
          "name": "have",
          "type": "address"
        },
        {
          "internalType": "address",
          "name": "want",
          "type": "address"
        }
      ],
      "name": "OnlyCoordinatorCanFulfill",
      "type": "error"
    },
    {
      "anonymous": false,
      "inputs": [
        {
          "indexed": true,
          "internalType": "address",
          "name": "owner",
          "type": "address"
        },
        {
          "indexed": true,
          "internalType": "address",
          "name": "approved",
          "type": "address"
        },
        {
          "indexed": true,
          "internalType": "uint256",
          "name": "tokenId",
          "type": "uint256"
        }
      ],
      "name": "Approval",
      "type": "event"
    },
    {
      "anonymous": false,
      "inputs": [
        {
          "indexed": true,
          "internalType": "address",
          "name": "owner",
          "type": "address"
        },
        {
          "indexed": true,
          "internalType": "address",
          "name": "operator",
          "type": "address"
        },
        {
          "indexed": false,
          "internalType": "bool",
          "name": "approved",
          "type": "bool"
        }
      ],
      "name": "ApprovalForAll",
      "type": "event"
    },
    {
      "anonymous": false,
      "inputs": [
        {
          "indexed": true,
          "internalType": "address",
          "name": "owner",
          "type": "address"
        },
        {
          "indexed": true,
          "internalType": "uint256",
          "name": "tokenId",
          "type": "uint256"
        },
        {
          "indexed": false,
          "internalType": "uint256",
          "name": "timestamp",
          "type": "uint256"
        }
      ],
      "name": "CancelAnListedItem",
      "type": "event"
    },
    {
      "anonymous": false,
      "inputs": [
        {
          "indexed": true,
          "internalType": "address",
          "name": "owner",
          "type": "address"
        },
        {
          "indexed": true,
          "internalType": "uint256",
          "name": "tokenId",
          "type": "uint256"
        },
        {
          "indexed": false,
          "internalType": "uint256",
          "name": "price",
          "type": "uint256"
        },
        {
          "indexed": false,
          "internalType": "uint256",
          "name": "timestamp",
          "type": "uint256"
        }
      ],
      "name": "ListAnItem",
      "type": "event"
    },
    {
      "anonymous": false,
      "inputs": [
        {
          "indexed": true,
          "internalType": "address",
          "name": "owner",
          "type": "address"
        },
        {
          "indexed": true,
          "internalType": "uint256",
          "name": "tokenId",
          "type": "uint256"
        },
        {
          "indexed": false,
          "internalType": "uint256",
          "name": "timestamp",
          "type": "uint256"
        }
      ],
      "name": "Mint",
      "type": "event"
    },
    {
      "anonymous": false,
      "inputs": [
        {
          "indexed": true,
          "internalType": "address",
          "name": "previousOwner",
          "type": "address"
        },
        {
          "indexed": true,
          "internalType": "address",
          "name": "newOwner",
          "type": "address"
        }
      ],
      "name": "OwnershipTransferred",
      "type": "event"
    },
    {
      "anonymous": false,
      "inputs": [
        {
          "indexed": true,
          "internalType": "address",
          "name": "buyer",
          "type": "address"
        },
        {
          "indexed": true,
          "internalType": "uint256",
          "name": "tokenId",
          "type": "uint256"
        },
        {
          "indexed": true,
          "internalType": "address",
          "name": "seller",
          "type": "address"
        },
        {
          "indexed": false,
          "internalType": "uint256",
          "name": "price",
          "type": "uint256"
        },
        {
          "indexed": false,
          "internalType": "uint256",
          "name": "timestamp",
          "type": "uint256"
        }
      ],
      "name": "PurchaseAnItem",
      "type": "event"
    },
    {
      "anonymous": false,
      "inputs": [
        {
          "indexed": true,
          "internalType": "address",
          "name": "from",
          "type": "address"
        },
        {
          "indexed": true,
          "internalType": "address",
          "name": "to",
          "type": "address"
        },
        {
          "indexed": true,
          "internalType": "uint256",
          "name": "tokenId",
          "type": "uint256"
        }
      ],
      "name": "Transfer",
      "type": "event"
    },
    {
      "inputs": [
        {
          "internalType": "address",
          "name": "to",
          "type": "address"
        },
        {
          "internalType": "uint256",
          "name": "tokenId",
          "type": "uint256"
        }
      ],
      "name": "approve",
      "outputs": [],
      "stateMutability": "nonpayable",
      "type": "function"
    },
    {
      "inputs": [
        {
          "internalType": "address",
          "name": "owner",
          "type": "address"
        }
      ],
      "name": "balanceOf",
      "outputs": [
        {
          "internalType": "uint256",
          "name": "",
          "type": "uint256"
        }
      ],
      "stateMutability": "view",
      "type": "function"
    },
    {
      "inputs": [
        {
          "internalType": "uint256",
          "name": "tokenId",
          "type": "uint256"
        }
      ],
      "name": "getApproved",
      "outputs": [
        {
          "internalType": "address",
          "name": "",
          "type": "address"
        }
      ],
      "stateMutability": "view",
      "type": "function"
    },
    {
      "inputs": [
        {
          "internalType": "address",
          "name": "owner",
          "type": "address"
        },
        {
          "internalType": "address",
          "name": "operator",
          "type": "address"
        }
      ],
      "name": "isApprovedForAll",
      "outputs": [
        {
          "internalType": "bool",
          "name": "",
          "type": "bool"
        }
      ],
      "stateMutability": "view",
      "type": "function"
    },
    {
      "inputs": [],
      "name": "name",
      "outputs": [
        {
          "internalType": "string",
          "name": "",
          "type": "string"
        }
      ],
      "stateMutability": "view",
      "type": "function"
    },
    {
      "inputs": [],
      "name": "owner",
      "outputs": [
        {
          "internalType": "address",
          "name": "",
          "type": "address"
        }
      ],
      "stateMutability": "view",
      "type": "function"
    },
    {
      "inputs": [
        {
          "internalType": "uint256",
          "name": "tokenId",
          "type": "uint256"
        }
      ],
      "name": "ownerOf",
      "outputs": [
        {
          "internalType": "address",
          "name": "",
          "type": "address"
        }
      ],
      "stateMutability": "view",
      "type": "function"
    },
    {
      "inputs": [
        {
          "internalType": "uint256",
          "name": "requestId",
          "type": "uint256"
        },
        {
          "internalType": "uint256[]",
          "name": "randomWords",
          "type": "uint256[]"
        }
      ],
      "name": "rawFulfillRandomWords",
      "outputs": [],
      "stateMutability": "nonpayable",
      "type": "function"
    },
    {
      "inputs": [],
      "name": "renounceOwnership",
      "outputs": [],
      "stateMutability": "nonpayable",
      "type": "function"
    },
    {
      "inputs": [],
      "name": "s_requestId",
      "outputs": [
        {
          "internalType": "uint256",
          "name": "",
          "type": "uint256"
        }
      ],
      "stateMutability": "view",
      "type": "function"
    },
    {
      "inputs": [
        {
          "internalType": "address",
          "name": "from",
          "type": "address"
        },
        {
          "internalType": "address",
          "name": "to",
          "type": "address"
        },
        {
          "internalType": "uint256",
          "name": "tokenId",
          "type": "uint256"
        }
      ],
      "name": "safeTransferFrom",
      "outputs": [],
      "stateMutability": "nonpayable",
      "type": "function"
    },
    {
      "inputs": [
        {
          "internalType": "address",
          "name": "from",
          "type": "address"
        },
        {
          "internalType": "address",
          "name": "to",
          "type": "address"
        },
        {
          "internalType": "uint256",
          "name": "tokenId",
          "type": "uint256"
        },
        {
          "internalType": "bytes",
          "name": "_data",
          "type": "bytes"
        }
      ],
      "name": "safeTransferFrom",
      "outputs": [],
      "stateMutability": "nonpayable",
      "type": "function"
    },
    {
      "inputs": [
        {
          "internalType": "address",
          "name": "operator",
          "type": "address"
        },
        {
          "internalType": "bool",
          "name": "approved",
          "type": "bool"
        }
      ],
      "name": "setApprovalForAll",
      "outputs": [],
      "stateMutability": "nonpayable",
      "type": "function"
    },
    {
      "inputs": [
        {
          "internalType": "bytes4",
          "name": "interfaceId",
          "type": "bytes4"
        }
      ],
      "name": "supportsInterface",
      "outputs": [
        {
          "internalType": "bool",
          "name": "",
          "type": "bool"
        }
      ],
      "stateMutability": "view",
      "type": "function"
    },
    {
      "inputs": [],
      "name": "symbol",
      "outputs": [
        {
          "internalType": "string",
          "name": "",
          "type": "string"
        }
      ],
      "stateMutability": "view",
      "type": "function"
    },
    {
      "inputs": [
        {
          "internalType": "uint256",
          "name": "tokenId",
          "type": "uint256"
        }
      ],
      "name": "tokenURI",
      "outputs": [
        {
          "internalType": "string",
          "name": "",
          "type": "string"
        }
      ],
      "stateMutability": "view",
      "type": "function"
    },
    {
      "inputs": [
        {
          "internalType": "address",
          "name": "from",
          "type": "address"
        },
        {
          "internalType": "address",
          "name": "to",
          "type": "address"
        },
        {
          "internalType": "uint256",
          "name": "tokenId",
          "type": "uint256"
        }
      ],
      "name": "transferFrom",
      "outputs": [],
      "stateMutability": "nonpayable",
      "type": "function"
    },
    {
      "inputs": [
        {
          "internalType": "address",
          "name": "newOwner",
          "type": "address"
        }
      ],
      "name": "transferOwnership",
      "outputs": [],
      "stateMutability": "nonpayable",
      "type": "function"
    },
    {
      "inputs": [],
      "name": "requestRandomWords",
      "outputs": [],
      "stateMutability": "nonpayable",
      "type": "function"
    },
    {
      "inputs": [],
      "name": "shuffle",
      "outputs": [],
      "stateMutability": "nonpayable",
      "type": "function"
    },
    {
      "inputs": [],
      "name": "getOrder",
      "outputs": [
        {
          "internalType": "uint256[]",
          "name": "",
          "type": "uint256[]"
        }
      ],
      "stateMutability": "view",
      "type": "function"
    },
    {
      "inputs": [],
      "name": "mint",
      "outputs": [],
      "stateMutability": "payable",
      "type": "function"
    },
    {
      "inputs": [],
      "name": "getBalance",
      "outputs": [
        {
          "internalType": "uint256",
          "name": "",
          "type": "uint256"
        }
      ],
      "stateMutability": "view",
      "type": "function"
    },
    {
      "inputs": [],
      "name": "withdrawBalance",
      "outputs": [],
      "stateMutability": "payable",
      "type": "function"
    },
    {
      "inputs": [
        {
          "internalType": "address",
          "name": "user",
          "type": "address"
        }
      ],
      "name": "getAllTokensForUser",
      "outputs": [
        {
          "internalType": "uint256[]",
          "name": "",
          "type": "uint256[]"
        }
      ],
      "stateMutability": "view",
      "type": "function"
    },
    {
      "inputs": [
        {
          "internalType": "uint256",
          "name": "_tokenId",
          "type": "uint256"
        }
      ],
      "name": "getItemDetail",
      "outputs": [
        {
          "components": [
            {
              "internalType": "address payable",
              "name": "seller",
              "type": "address"
            },
            {
              "internalType": "uint256",
              "name": "price",
              "type": "uint256"
            },
            {
              "internalType": "uint256",
              "name": "startedAt",
              "type": "uint256"
            },
            {
              "internalType": "bool",
              "name": "isSelling",
              "type": "bool"
            }
          ],
          "internalType": "struct Token.Item",
          "name": "",
          "type": "tuple"
        }
      ],
      "stateMutability": "view",
      "type": "function"
    },
    {
      "inputs": [
        {
          "internalType": "uint256",
          "name": "_tokenId",
          "type": "uint256"
        },
        {
          "internalType": "uint256",
          "name": "_price",
          "type": "uint256"
        }
      ],
      "name": "sell",
      "outputs": [],
      "stateMutability": "nonpayable",
      "type": "function"
    },
    {
      "inputs": [
        {
          "internalType": "uint256",
          "name": "_tokenId",
          "type": "uint256"
        }
      ],
      "name": "cancelSell",
      "outputs": [],
      "stateMutability": "nonpayable",
      "type": "function"
    },
    {
      "inputs": [
        {
          "internalType": "uint256",
          "name": "_tokenId",
          "type": "uint256"
        }
      ],
      "name": "purchaseItem",
      "outputs": [],
      "stateMutability": "payable",
      "type": "function"
    },
    {
      "inputs": [
        {
          "internalType": "address",
          "name": "user",
          "type": "address"
        }
      ],
      "name": "getListedItemsForUser",
      "outputs": [
        {
          "internalType": "uint256[]",
          "name": "",
          "type": "uint256[]"
        }
      ],
      "stateMutability": "view",
      "type": "function"
    },
    {
      "inputs": [
        {
          "internalType": "address",
          "name": "",
          "type": "address"
        },
        {
          "internalType": "address",
          "name": "",
          "type": "address"
        },
        {
          "internalType": "uint256",
          "name": "",
          "type": "uint256"
        },
        {
          "internalType": "bytes",
          "name": "",
          "type": "bytes"
        }
      ],
      "name": "onERC721Received",
      "outputs": [
        {
          "internalType": "bytes4",
          "name": "",
          "type": "bytes4"
        }
      ],
      "stateMutability": "nonpayable",
      "type": "function"
    },
    {
      "inputs": [
        {
          "internalType": "uint256",
          "name": "v",
          "type": "uint256"
        }
      ],
      "name": "uintToString",
      "outputs": [
        {
          "internalType": "string",
          "name": "",
          "type": "string"
        }
      ],
      "stateMutability": "pure",
      "type": "function"
    }
  ],
  "bytecode": "0x60a0604052736168499c0cffcacd319c818142124b7a15e857ab600a60006101000a81548173ffffffffffffffffffffffffffffffffffffffff021916908373ffffffffffffffffffffffffffffffffffffffff1602179055507fd89b2bf150e3b9e13446986e571fb9cab24b13cea0a43ea20a6049a85cc807cc60001b600b55620186a0600c60006101000a81548163ffffffff021916908363ffffffff1602179055506003600c60046101000a81548161ffff021916908361ffff1602179055506001600c60066101000a81548163ffffffff021916908363ffffffff160217905550600060105560006076556040518060600160405280602f815260200162005917602f9139607790805190602001906200011f9291906200040a565b506040518060400160405280600581526020017f2e6a736f6e000000000000000000000000000000000000000000000000000000815250607890805190602001906200016d9291906200040a565b503480156200017b57600080fd5b5060405162005946380380620059468339818101604052810190620001a191906200069c565b8383600a60009054906101000a900473ffffffffffffffffffffffffffffffffffffffff16620001e6620001da6200033e60201b60201c565b6200034660201b60201c565b600180819055508073ffffffffffffffffffffffffffffffffffffffff1660808173ffffffffffffffffffffffffffffffffffffffff16815250505081600290805190602001906200023a9291906200040a565b508060039080519060200190620002539291906200040a565b505050600a60009054906101000a900473ffffffffffffffffffffffffffffffffffffffff16600960006101000a81548173ffffffffffffffffffffffffffffffffffffffff021916908373ffffffffffffffffffffffffffffffffffffffff16021790555033600f60006101000a81548173ffffffffffffffffffffffffffffffffffffffff021916908373ffffffffffffffffffffffffffffffffffffffff16021790555081600960146101000a81548167ffffffffffffffff021916908367ffffffffffffffff1602179055508067ffffffffffffffff1660758190555050505050620007b0565b600033905090565b60008060009054906101000a900473ffffffffffffffffffffffffffffffffffffffff169050816000806101000a81548173ffffffffffffffffffffffffffffffffffffffff021916908373ffffffffffffffffffffffffffffffffffffffff1602179055508173ffffffffffffffffffffffffffffffffffffffff168173ffffffffffffffffffffffffffffffffffffffff167f8be0079c531659141344cd1fd0a4f28419497f9722a3daafe3b4186f6b6457e060405160405180910390a35050565b82805462000418906200077b565b90600052602060002090601f0160209004810192826200043c576000855562000488565b82601f106200045757805160ff191683800117855562000488565b8280016001018555821562000488579182015b82811115620004875782518255916020019190600101906200046a565b5b5090506200049791906200049b565b5090565b5b80821115620004b65760008160009055506001016200049c565b5090565b6000604051905090565b600080fd5b600080fd5b600080fd5b600080fd5b6000601f19601f8301169050919050565b7f4e487b7100000000000000000000000000000000000000000000000000000000600052604160045260246000fd5b6200052382620004d8565b810181811067ffffffffffffffff82111715620005455762000544620004e9565b5b80604052505050565b60006200055a620004ba565b905062000568828262000518565b919050565b600067ffffffffffffffff8211156200058b576200058a620004e9565b5b6200059682620004d8565b9050602081019050919050565b60005b83811015620005c3578082015181840152602081019050620005a6565b83811115620005d3576000848401525b50505050565b6000620005f0620005ea846200056d565b6200054e565b9050828152602081018484840111156200060f576200060e620004d3565b5b6200061c848285620005a3565b509392505050565b600082601f8301126200063c576200063b620004ce565b5b81516200064e848260208601620005d9565b91505092915050565b600067ffffffffffffffff82169050919050565b620006768162000657565b81146200068257600080fd5b50565b60008151905062000696816200066b565b92915050565b60008060008060808587031215620006b957620006b8620004c4565b5b600085015167ffffffffffffffff811115620006da57620006d9620004c9565b5b620006e88782880162000624565b945050602085015167ffffffffffffffff8111156200070c576200070b620004c9565b5b6200071a8782880162000624565b93505060406200072d8782880162000685565b9250506060620007408782880162000685565b91505092959194509250565b7f4e487b7100000000000000000000000000000000000000000000000000000000600052602260045260246000fd5b600060028204905060018216806200079457607f821691505b602082108103620007aa57620007a96200074c565b5b50919050565b608051615144620007d360003960008181610ed60152610f2a01526151446000f3fe6080604052600436106101e35760003560e01c806370a0823111610102578063d36dedd211610095578063e89e106a11610064578063e89e106a146106a1578063e9395679146106cc578063e985e9c514610709578063f2fde38b14610746576101e3565b8063d36dedd21461061a578063d38ea5bf14610645578063d79875eb14610661578063e0c862891461068a576101e3565b806395d89b41116100d157806395d89b4114610560578063a22cb4651461058b578063b88d4fde146105b4578063c87b56dd146105dd576101e3565b806370a08231146104a4578063715018a6146104e157806382de8fe9146104f85780638da5cb5b14610535576101e3565b80631fe543e31161017a57806342842e0e1161014957806342842e0e146103f75780635164b3b8146104205780635fd8c7101461045d5780636352211e14610467576101e3565b80631fe543e31461035157806323b872dd1461037a5780632520bf04146103a35780632888df2a146103ba576101e3565b8063095ea7b3116101b6578063095ea7b3146102b657806312065fe0146102df5780631249c58b1461030a578063150b7a0214610314576101e3565b806301ffc9a7146101e857806306fdde031461022557806307c9cd4514610250578063081812fc14610279575b600080fd5b3480156101f457600080fd5b5061020f600480360381019061020a919061368b565b61076f565b60405161021c91906136d3565b60405180910390f35b34801561023157600080fd5b5061023a610851565b6040516102479190613787565b60405180910390f35b34801561025c57600080fd5b50610277600480360381019061027291906137df565b6108e3565b005b34801561028557600080fd5b506102a0600480360381019061029b91906137df565b610b8f565b6040516102ad919061384d565b60405180910390f35b3480156102c257600080fd5b506102dd60048036038101906102d89190613894565b610c14565b005b3480156102eb57600080fd5b506102f4610d2b565b60405161030191906138e3565b60405180910390f35b610312610daf565b005b34801561032057600080fd5b5061033b60048036038101906103369190613a33565b610ec0565b6040516103489190613ac5565b60405180910390f35b34801561035d57600080fd5b5061037860048036038101906103739190613ba8565b610ed4565b005b34801561038657600080fd5b506103a1600480360381019061039c9190613c04565b610f94565b005b3480156103af57600080fd5b506103b8610ff4565b005b3480156103c657600080fd5b506103e160048036038101906103dc9190613c57565b6111b5565b6040516103ee9190613d42565b60405180910390f35b34801561040357600080fd5b5061041e60048036038101906104199190613c04565b61141c565b005b34801561042c57600080fd5b50610447600480360381019061044291906137df565b61143c565b6040516104549190613de9565b60405180910390f35b6104656114ee565b005b34801561047357600080fd5b5061048e600480360381019061048991906137df565b611658565b60405161049b919061384d565b60405180910390f35b3480156104b057600080fd5b506104cb60048036038101906104c69190613c57565b611709565b6040516104d891906138e3565b60405180910390f35b3480156104ed57600080fd5b506104f66117c0565b005b34801561050457600080fd5b5061051f600480360381019061051a9190613c57565b611848565b60405161052c9190613d42565b60405180910390f35b34801561054157600080fd5b5061054a61199c565b604051610557919061384d565b60405180910390f35b34801561056c57600080fd5b506105756119c5565b6040516105829190613787565b60405180910390f35b34801561059757600080fd5b506105b260048036038101906105ad9190613e30565b611a57565b005b3480156105c057600080fd5b506105db60048036038101906105d69190613a33565b611a6d565b005b3480156105e957600080fd5b5061060460048036038101906105ff91906137df565b611acf565b6040516106119190613787565b60405180910390f35b34801561062657600080fd5b5061062f611c20565b60405161063c9190613d42565b60405180910390f35b61065f600480360381019061065a91906137df565b611cce565b005b34801561066d57600080fd5b5061068860048036038101906106839190613e70565b611fcf565b005b34801561069657600080fd5b5061069f6121e3565b005b3480156106ad57600080fd5b506106b6612359565b6040516106c391906138e3565b60405180910390f35b3480156106d857600080fd5b506106f360048036038101906106ee91906137df565b61235f565b6040516107009190613787565b60405180910390f35b34801561071557600080fd5b50610730600480360381019061072b9190613eb0565b61258c565b60405161073d91906136d3565b60405180910390f35b34801561075257600080fd5b5061076d60048036038101906107689190613c57565b612620565b005b60007f80ac58cd000000000000000000000000000000000000000000000000000000007bffffffffffffffffffffffffffffffffffffffffffffffffffffffff1916827bffffffffffffffffffffffffffffffffffffffffffffffffffffffff1916148061083a57507f5b5e139f000000000000000000000000000000000000000000000000000000007bffffffffffffffffffffffffffffffffffffffffffffffffffffffff1916827bffffffffffffffffffffffffffffffffffffffffffffffffffffffff1916145b8061084a575061084982612717565b5b9050919050565b60606002805461086090613f1f565b80601f016020809104026020016040519081016040528092919081815260200182805461088c90613f1f565b80156108d95780601f106108ae576101008083540402835291602001916108d9565b820191906000526020600020905b8154815290600101906020018083116108bc57829003601f168201915b5050505050905090565b600260015403610928576040517f08c379a000000000000000000000000000000000000000000000000000000000815260040161091f90613f9c565b60405180910390fd5b60026001819055506000607a60008381526020019081526020016000209050600081600201541161095857600080fd5b8060030160009054906101000a900460ff1661097357600080fd5b8060000160009054906101000a900473ffffffffffffffffffffffffffffffffffffffff1673ffffffffffffffffffffffffffffffffffffffff163373ffffffffffffffffffffffffffffffffffffffff16146109cf57600080fd5b607960003373ffffffffffffffffffffffffffffffffffffffff1673ffffffffffffffffffffffffffffffffffffffff1681526020019081526020016000206000815480929190610a1f90613feb565b919050555060008160030160006101000a81548160ff0219169083151502179055503073ffffffffffffffffffffffffffffffffffffffff166342842e0e308360000160009054906101000a900473ffffffffffffffffffffffffffffffffffffffff16856040518463ffffffff1660e01b8152600401610aa293929190614073565b600060405180830381600087803b158015610abc57600080fd5b505af1158015610ad0573d6000803e3d6000fd5b50505050607a6000838152602001908152602001600020600080820160006101000a81549073ffffffffffffffffffffffffffffffffffffffff0219169055600182016000905560028201600090556003820160006101000a81549060ff02191690555050813373ffffffffffffffffffffffffffffffffffffffff167faafa025e65bdcff1ef0464eae38e306c5dedaa9ba5ee3f47de3b91d1bf1460e442604051610b7c91906138e3565b60405180910390a3506001808190555050565b6000610b9a82612781565b610bd9576040517f08c379a0000000000000000000000000000000000000000000000000000000008152600401610bd09061411c565b60405180910390fd5b6006600083815260200190815260200160002060009054906101000a900473ffffffffffffffffffffffffffffffffffffffff169050919050565b6000610c1f82611658565b90508073ffffffffffffffffffffffffffffffffffffffff168373ffffffffffffffffffffffffffffffffffffffff1603610c8f576040517f08c379a0000000000000000000000000000000000000000000000000000000008152600401610c86906141ae565b60405180910390fd5b8073ffffffffffffffffffffffffffffffffffffffff16610cae6127ed565b73ffffffffffffffffffffffffffffffffffffffff161480610cdd5750610cdc81610cd76127ed565b61258c565b5b610d1c576040517f08c379a0000000000000000000000000000000000000000000000000000000008152600401610d1390614240565b60405180910390fd5b610d2683836127f5565b505050565b6000610d356127ed565b73ffffffffffffffffffffffffffffffffffffffff16610d5361199c565b73ffffffffffffffffffffffffffffffffffffffff1614610da9576040517f08c379a0000000000000000000000000000000000000000000000000000000008152600401610da0906142ac565b60405180910390fd5b47905090565b662386f26fc10000341015610df9576040517f08c379a0000000000000000000000000000000000000000000000000000000008152600401610df09061433e565b60405180910390fd5b610e05336076546128ae565b610e556076546077610e2d601160765460648110610e2657610e2561435e565b5b015461235f565b6078604051602001610e419392919061445d565b6040516020818303038152906040526128cc565b6076543373ffffffffffffffffffffffffffffffffffffffff167f4c209b5fc8ad50758f13e2e1088ba56a560dff690a1c6fef26394f4c03821c4f42604051610e9e91906138e3565b60405180910390a360766000815480929190610eb99061448e565b9190505550565b600063150b7a0260e01b9050949350505050565b7f000000000000000000000000000000000000000000000000000000000000000073ffffffffffffffffffffffffffffffffffffffff163373ffffffffffffffffffffffffffffffffffffffff1614610f8657337f00000000000000000000000000000000000000000000000000000000000000006040517f1cf993f4000000000000000000000000000000000000000000000000000000008152600401610f7d9291906144d6565b60405180910390fd5b610f908282612940565b5050565b610fa5610f9f6127ed565b82612966565b610fe4576040517f08c379a0000000000000000000000000000000000000000000000000000000008152600401610fdb90614571565b60405180910390fd5b610fef838383612a44565b505050565b600060755467ffffffffffffffff81111561101257611011613908565b5b6040519080825280602002602001820160405280156110405781602001602082028036833780820191505090505b50905060005b6075548160ff16101561109857600181611060919061459e565b60ff16828260ff16815181106110795761107861435e565b5b6020026020010181815250508080611090906145d5565b915050611046565b60008091505b6075548260ff1610156111b0578160ff166075546110bc91906145fe565b600d546010546040516020016110d3929190614632565b6040516020818303038152906040528051906020012060001c6110f6919061468a565b90506010600081548092919061110b9061448e565b91905055508281815181106111235761112261435e565b5b602002602001015160118360ff16606481106111425761114161435e565b5b01819055508260018360ff1660755461115b91906145fe565b61116591906145fe565b815181106111765761117561435e565b5b60200260200101518382815181106111915761119061435e565b5b60200260200101818152505081806111a8906145d5565b92505061109e565b505050565b60606000607960008473ffffffffffffffffffffffffffffffffffffffff1673ffffffffffffffffffffffffffffffffffffffff168152602001908152602001600020540361124f57600067ffffffffffffffff81111561121957611218613908565b5b6040519080825280602002602001820160405280156112475781602001602082028036833780820191505090505b509050611417565b6000607960008473ffffffffffffffffffffffffffffffffffffffff1673ffffffffffffffffffffffffffffffffffffffff1681526020019081526020016000205467ffffffffffffffff8111156112aa576112a9613908565b5b6040519080825280602002602001820160405280156112d85781602001602082028036833780820191505090505b509050600060765490506000805b8281101561140f576000607a60008381526020019081526020016000206040518060800160405290816000820160009054906101000a900473ffffffffffffffffffffffffffffffffffffffff1673ffffffffffffffffffffffffffffffffffffffff1673ffffffffffffffffffffffffffffffffffffffff16815260200160018201548152602001600282015481526020016003820160009054906101000a900460ff16151515158152505090508673ffffffffffffffffffffffffffffffffffffffff16816000015173ffffffffffffffffffffffffffffffffffffffff16036113fb57818584815181106113e0576113df61435e565b5b60200260200101818152505082806113f79061448e565b9350505b5080806114079061448e565b9150506112e6565b839450505050505b919050565b61143783838360405180602001604052806000815250611a6d565b505050565b61144461353c565b607a60008381526020019081526020016000206040518060800160405290816000820160009054906101000a900473ffffffffffffffffffffffffffffffffffffffff1673ffffffffffffffffffffffffffffffffffffffff1673ffffffffffffffffffffffffffffffffffffffff16815260200160018201548152602001600282015481526020016003820160009054906101000a900460ff1615151515815250509050919050565b6114f66127ed565b73ffffffffffffffffffffffffffffffffffffffff1661151461199c565b73ffffffffffffffffffffffffffffffffffffffff161461156a576040517f08c379a0000000000000000000000000000000000000000000000000000000008152600401611561906142ac565b60405180910390fd5b61157261199c565b73ffffffffffffffffffffffffffffffffffffffff163373ffffffffffffffffffffffffffffffffffffffff16146115df576040517f08c379a00000000000000000000000000000000000000000000000000000000081526004016115d6906146e1565b60405180910390fd5b6000806115ea61199c565b73ffffffffffffffffffffffffffffffffffffffff164760405161160d9061472f565b60006040518083038185875af1925050503d806000811461164a576040519150601f19603f3d011682016040523d82523d6000602084013e61164f565b606091505b50915091505050565b6000806004600084815260200190815260200160002060009054906101000a900473ffffffffffffffffffffffffffffffffffffffff169050600073ffffffffffffffffffffffffffffffffffffffff168173ffffffffffffffffffffffffffffffffffffffff1603611700576040517f08c379a00000000000000000000000000000000000000000000000000000000081526004016116f7906147b6565b60405180910390fd5b80915050919050565b60008073ffffffffffffffffffffffffffffffffffffffff168273ffffffffffffffffffffffffffffffffffffffff1603611779576040517f08c379a000000000000000000000000000000000000000000000000000000000815260040161177090614848565b60405180910390fd5b600560008373ffffffffffffffffffffffffffffffffffffffff1673ffffffffffffffffffffffffffffffffffffffff168152602001908152602001600020549050919050565b6117c86127ed565b73ffffffffffffffffffffffffffffffffffffffff166117e661199c565b73ffffffffffffffffffffffffffffffffffffffff161461183c576040517f08c379a0000000000000000000000000000000000000000000000000000000008152600401611833906142ac565b60405180910390fd5b6118466000612caa565b565b6060600061185583611709565b9050600081036118b157600067ffffffffffffffff81111561187a57611879613908565b5b6040519080825280602002602001820160405280156118a85781602001602082028036833780820191505090505b50915050611997565b60008167ffffffffffffffff8111156118cd576118cc613908565b5b6040519080825280602002602001820160405280156118fb5781602001602082028036833780820191505090505b509050600060765490506000805b8281101561198e578673ffffffffffffffffffffffffffffffffffffffff1661193182611658565b73ffffffffffffffffffffffffffffffffffffffff160361197b57808483815181106119605761195f61435e565b5b60200260200101818152505081806119779061448e565b9250505b80806119869061448e565b915050611909565b83955050505050505b919050565b60008060009054906101000a900473ffffffffffffffffffffffffffffffffffffffff16905090565b6060600380546119d490613f1f565b80601f0160208091040260200160405190810160405280929190818152602001828054611a0090613f1f565b8015611a4d5780601f10611a2257610100808354040283529160200191611a4d565b820191906000526020600020905b815481529060010190602001808311611a3057829003601f168201915b5050505050905090565b611a69611a626127ed565b8383612d6e565b5050565b611a7e611a786127ed565b83612966565b611abd576040517f08c379a0000000000000000000000000000000000000000000000000000000008152600401611ab490614571565b60405180910390fd5b611ac984848484612eda565b50505050565b6060611ada82612781565b611b19576040517f08c379a0000000000000000000000000000000000000000000000000000000008152600401611b10906148da565b60405180910390fd5b6000600860008481526020019081526020016000208054611b3990613f1f565b80601f0160208091040260200160405190810160405280929190818152602001828054611b6590613f1f565b8015611bb25780601f10611b8757610100808354040283529160200191611bb2565b820191906000526020600020905b815481529060010190602001808311611b9557829003601f168201915b505050505090506000611bc3612f36565b90506000815103611bd8578192505050611c1b565b600082511115611c0d578082604051602001611bf59291906148fa565b60405160208183030381529060405292505050611c1b565b611c1684612f4d565b925050505b919050565b6060600060755467ffffffffffffffff811115611c4057611c3f613908565b5b604051908082528060200260200182016040528015611c6e5781602001602082028036833780820191505090505b50905060005b607554811015611cc65760118160648110611c9257611c9161435e565b5b0154828281518110611ca757611ca661435e565b5b6020026020010181815250508080611cbe9061448e565b915050611c74565b819250505090565b600260015403611d13576040517f08c379a0000000000000000000000000000000000000000000000000000000008152600401611d0a90613f9c565b60405180910390fd5b60026001819055506000607a6000838152602001908152602001600020905060008160000160009054906101000a900473ffffffffffffffffffffffffffffffffffffffff1690506000826002015411611d6c57600080fd5b8160030160009054906101000a900460ff16611d8757600080fd5b34826001015460058460010154611d9e919061491e565b611da8919061494f565b14611db257600080fd5b600082600101549050607a6000858152602001908152602001600020600080820160006101000a81549073ffffffffffffffffffffffffffffffffffffffff0219169055600182016000905560028201600090556003820160006101000a81549060ff021916905550506000811115611e96576000808373ffffffffffffffffffffffffffffffffffffffff1683604051611e4c9061472f565b60006040518083038185875af1925050503d8060008114611e89576040519150601f19603f3d011682016040523d82523d6000602084013e611e8e565b606091505b509150915050505b3073ffffffffffffffffffffffffffffffffffffffff166342842e0e3033876040518463ffffffff1660e01b8152600401611ed3939291906149a5565b600060405180830381600087803b158015611eed57600080fd5b505af1158015611f01573d6000803e3d6000fd5b50505050607960008373ffffffffffffffffffffffffffffffffffffffff1673ffffffffffffffffffffffffffffffffffffffff1681526020019081526020016000206000815480929190611f5590613feb565b91905055508173ffffffffffffffffffffffffffffffffffffffff16843373ffffffffffffffffffffffffffffffffffffffff167f478956c967ca99f4651fef2663546a452561b806dd5b5818ad086a2f478511868442604051611fba929190614632565b60405180910390a45050506001808190555050565b600260015403612014576040517f08c379a000000000000000000000000000000000000000000000000000000000815260040161200b90613f9c565b60405180910390fd5b60026001819055503373ffffffffffffffffffffffffffffffffffffffff1661203c83611658565b73ffffffffffffffffffffffffffffffffffffffff161461205c57600080fd5b60405180608001604052803373ffffffffffffffffffffffffffffffffffffffff16815260200182815260200142815260200160011515815250607a600084815260200190815260200160002060008201518160000160006101000a81548173ffffffffffffffffffffffffffffffffffffffff021916908373ffffffffffffffffffffffffffffffffffffffff160217905550602082015181600101556040820151816002015560608201518160030160006101000a81548160ff02191690831515021790555090505061213233308461141c565b607960003373ffffffffffffffffffffffffffffffffffffffff1673ffffffffffffffffffffffffffffffffffffffff16815260200190815260200160002060008154809291906121829061448e565b9190505550813373ffffffffffffffffffffffffffffffffffffffff167f0dceca1ef67b0523b7cedf63d7b189569a88958b72eadb03fb5de854a6978df683426040516121d0929190614632565b60405180910390a3600180819055505050565b6121eb6127ed565b73ffffffffffffffffffffffffffffffffffffffff1661220961199c565b73ffffffffffffffffffffffffffffffffffffffff161461225f576040517f08c379a0000000000000000000000000000000000000000000000000000000008152600401612256906142ac565b60405180910390fd5b600960009054906101000a900473ffffffffffffffffffffffffffffffffffffffff1673ffffffffffffffffffffffffffffffffffffffff16635d3b1d30600b54600960149054906101000a900467ffffffffffffffff16600c60049054906101000a900461ffff16600c60009054906101000a900463ffffffff16600c60069054906101000a900463ffffffff166040518663ffffffff1660e01b815260040161230e959493929190614a54565b6020604051808303816000875af115801561232d573d6000803e3d6000fd5b505050506040513d601f19601f820116820180604052508101906123519190614abc565b600e81905550565b600e5481565b6060600082036123ac5760006040518060400160405280600181526020017f3000000000000000000000000000000000000000000000000000000000000000815250905080915050612587565b60006064905060008167ffffffffffffffff8111156123ce576123cd613908565b5b6040519080825280601f01601f1916602001820160405280156124005781602001600182028036833780820191505090505b50905060005b60008514612492576000600a8661241d919061468a565b9050600a8661242c919061491e565b955080603061243b919061494f565b60f81b83838061244a9061448e565b94508151811061245d5761245c61435e565b5b60200101907effffffffffffffffffffffffffffffffffffffffffffffffffffffffffffff1916908160001a90535050612406565b60008167ffffffffffffffff8111156124ae576124ad613908565b5b6040519080825280601f01601f1916602001820160405280156124e05781602001600182028036833780820191505090505b50905060005b828110156125785783600182856124fd91906145fe565b61250791906145fe565b815181106125185761251761435e565b5b602001015160f81c60f81b8282815181106125365761253561435e565b5b60200101907effffffffffffffffffffffffffffffffffffffffffffffffffffffffffffff1916908160001a90535080806125709061448e565b9150506124e6565b50600081905080955050505050505b919050565b6000600760008473ffffffffffffffffffffffffffffffffffffffff1673ffffffffffffffffffffffffffffffffffffffff16815260200190815260200160002060008373ffffffffffffffffffffffffffffffffffffffff1673ffffffffffffffffffffffffffffffffffffffff16815260200190815260200160002060009054906101000a900460ff16905092915050565b6126286127ed565b73ffffffffffffffffffffffffffffffffffffffff1661264661199c565b73ffffffffffffffffffffffffffffffffffffffff161461269c576040517f08c379a0000000000000000000000000000000000000000000000000000000008152600401612693906142ac565b60405180910390fd5b600073ffffffffffffffffffffffffffffffffffffffff168173ffffffffffffffffffffffffffffffffffffffff160361270b576040517f08c379a000000000000000000000000000000000000000000000000000000000815260040161270290614b5b565b60405180910390fd5b61271481612caa565b50565b60007f01ffc9a7000000000000000000000000000000000000000000000000000000007bffffffffffffffffffffffffffffffffffffffffffffffffffffffff1916827bffffffffffffffffffffffffffffffffffffffffffffffffffffffff1916149050919050565b60008073ffffffffffffffffffffffffffffffffffffffff166004600084815260200190815260200160002060009054906101000a900473ffffffffffffffffffffffffffffffffffffffff1673ffffffffffffffffffffffffffffffffffffffff1614159050919050565b600033905090565b816006600083815260200190815260200160002060006101000a81548173ffffffffffffffffffffffffffffffffffffffff021916908373ffffffffffffffffffffffffffffffffffffffff160217905550808273ffffffffffffffffffffffffffffffffffffffff1661286883611658565b73ffffffffffffffffffffffffffffffffffffffff167f8c5be1e5ebec7d5bd14f71427d1e84f3dd0314c0f7b2291e5b200ac8c7c3b92560405160405180910390a45050565b6128c8828260405180602001604052806000815250612ff4565b5050565b6128d582612781565b612914576040517f08c379a000000000000000000000000000000000000000000000000000000000815260040161290b90614bed565b60405180910390fd5b8060086000848152602001908152602001600020908051906020019061293b92919061357c565b505050565b806000815181106129545761295361435e565b5b6020026020010151600d819055505050565b600061297182612781565b6129b0576040517f08c379a00000000000000000000000000000000000000000000000000000000081526004016129a790614c7f565b60405180910390fd5b60006129bb83611658565b90508073ffffffffffffffffffffffffffffffffffffffff168473ffffffffffffffffffffffffffffffffffffffff161480612a2a57508373ffffffffffffffffffffffffffffffffffffffff16612a1284610b8f565b73ffffffffffffffffffffffffffffffffffffffff16145b80612a3b5750612a3a818561258c565b5b91505092915050565b8273ffffffffffffffffffffffffffffffffffffffff16612a6482611658565b73ffffffffffffffffffffffffffffffffffffffff1614612aba576040517f08c379a0000000000000000000000000000000000000000000000000000000008152600401612ab190614d11565b60405180910390fd5b600073ffffffffffffffffffffffffffffffffffffffff168273ffffffffffffffffffffffffffffffffffffffff1603612b29576040517f08c379a0000000000000000000000000000000000000000000000000000000008152600401612b2090614da3565b60405180910390fd5b612b3483838361304f565b612b3f6000826127f5565b6001600560008573ffffffffffffffffffffffffffffffffffffffff1673ffffffffffffffffffffffffffffffffffffffff1681526020019081526020016000206000828254612b8f91906145fe565b925050819055506001600560008473ffffffffffffffffffffffffffffffffffffffff1673ffffffffffffffffffffffffffffffffffffffff1681526020019081526020016000206000828254612be6919061494f565b92505081905550816004600083815260200190815260200160002060006101000a81548173ffffffffffffffffffffffffffffffffffffffff021916908373ffffffffffffffffffffffffffffffffffffffff160217905550808273ffffffffffffffffffffffffffffffffffffffff168473ffffffffffffffffffffffffffffffffffffffff167fddf252ad1be2c89b69c2b068fc378daa952ba7f163c4a11628f55a4df523b3ef60405160405180910390a4612ca5838383613054565b505050565b60008060009054906101000a900473ffffffffffffffffffffffffffffffffffffffff169050816000806101000a81548173ffffffffffffffffffffffffffffffffffffffff021916908373ffffffffffffffffffffffffffffffffffffffff1602179055508173ffffffffffffffffffffffffffffffffffffffff168173ffffffffffffffffffffffffffffffffffffffff167f8be0079c531659141344cd1fd0a4f28419497f9722a3daafe3b4186f6b6457e060405160405180910390a35050565b8173ffffffffffffffffffffffffffffffffffffffff168373ffffffffffffffffffffffffffffffffffffffff1603612ddc576040517f08c379a0000000000000000000000000000000000000000000000000000000008152600401612dd390614e0f565b60405180910390fd5b80600760008573ffffffffffffffffffffffffffffffffffffffff1673ffffffffffffffffffffffffffffffffffffffff16815260200190815260200160002060008473ffffffffffffffffffffffffffffffffffffffff1673ffffffffffffffffffffffffffffffffffffffff16815260200190815260200160002060006101000a81548160ff0219169083151502179055508173ffffffffffffffffffffffffffffffffffffffff168373ffffffffffffffffffffffffffffffffffffffff167f17307eab39ab6107e8899845ad3d59bd9653f200f220920489ca2b5937696c3183604051612ecd91906136d3565b60405180910390a3505050565b612ee5848484612a44565b612ef184848484613059565b612f30576040517f08c379a0000000000000000000000000000000000000000000000000000000008152600401612f2790614ea1565b60405180910390fd5b50505050565b606060405180602001604052806000815250905090565b6060612f5882612781565b612f97576040517f08c379a0000000000000000000000000000000000000000000000000000000008152600401612f8e90614f33565b60405180910390fd5b6000612fa1612f36565b90506000815111612fc15760405180602001604052806000815250612fec565b80612fcb846131e0565b604051602001612fdc9291906148fa565b6040516020818303038152906040525b915050919050565b612ffe8383613340565b61300b6000848484613059565b61304a576040517f08c379a000000000000000000000000000000000000000000000000000000000815260040161304190614ea1565b60405180910390fd5b505050565b505050565b505050565b600061307a8473ffffffffffffffffffffffffffffffffffffffff16613519565b156131d3578373ffffffffffffffffffffffffffffffffffffffff1663150b7a026130a36127ed565b8786866040518563ffffffff1660e01b81526004016130c59493929190614fa8565b6020604051808303816000875af192505050801561310157506040513d601f19601f820116820180604052508101906130fe9190615009565b60015b613183573d8060008114613131576040519150601f19603f3d011682016040523d82523d6000602084013e613136565b606091505b50600081510361317b576040517f08c379a000000000000000000000000000000000000000000000000000000000815260040161317290614ea1565b60405180910390fd5b805181602001fd5b63150b7a0260e01b7bffffffffffffffffffffffffffffffffffffffffffffffffffffffff1916817bffffffffffffffffffffffffffffffffffffffffffffffffffffffff1916149150506131d8565b600190505b949350505050565b606060008203613227576040518060400160405280600181526020017f3000000000000000000000000000000000000000000000000000000000000000815250905061333b565b600082905060005b600082146132595780806132429061448e565b915050600a82613252919061491e565b915061322f565b60008167ffffffffffffffff81111561327557613274613908565b5b6040519080825280601f01601f1916602001820160405280156132a75781602001600182028036833780820191505090505b5090505b60008514613334576001826132c091906145fe565b9150600a856132cf919061468a565b60306132db919061494f565b60f81b8183815181106132f1576132f061435e565b5b60200101907effffffffffffffffffffffffffffffffffffffffffffffffffffffffffffff1916908160001a905350600a8561332d919061491e565b94506132ab565b8093505050505b919050565b600073ffffffffffffffffffffffffffffffffffffffff168273ffffffffffffffffffffffffffffffffffffffff16036133af576040517f08c379a00000000000000000000000000000000000000000000000000000000081526004016133a690615082565b60405180910390fd5b6133b881612781565b156133f8576040517f08c379a00000000000000000000000000000000000000000000000000000000081526004016133ef906150ee565b60405180910390fd5b6134046000838361304f565b6001600560008473ffffffffffffffffffffffffffffffffffffffff1673ffffffffffffffffffffffffffffffffffffffff1681526020019081526020016000206000828254613454919061494f565b92505081905550816004600083815260200190815260200160002060006101000a81548173ffffffffffffffffffffffffffffffffffffffff021916908373ffffffffffffffffffffffffffffffffffffffff160217905550808273ffffffffffffffffffffffffffffffffffffffff16600073ffffffffffffffffffffffffffffffffffffffff167fddf252ad1be2c89b69c2b068fc378daa952ba7f163c4a11628f55a4df523b3ef60405160405180910390a461351560008383613054565b5050565b6000808273ffffffffffffffffffffffffffffffffffffffff163b119050919050565b6040518060800160405280600073ffffffffffffffffffffffffffffffffffffffff16815260200160008152602001600081526020016000151581525090565b82805461358890613f1f565b90600052602060002090601f0160209004810192826135aa57600085556135f1565b82601f106135c357805160ff19168380011785556135f1565b828001600101855582156135f1579182015b828111156135f05782518255916020019190600101906135d5565b5b5090506135fe9190613602565b5090565b5b8082111561361b576000816000905550600101613603565b5090565b6000604051905090565b600080fd5b600080fd5b60007fffffffff0000000000000000000000000000000000000000000000000000000082169050919050565b61366881613633565b811461367357600080fd5b50565b6000813590506136858161365f565b92915050565b6000602082840312156136a1576136a0613629565b5b60006136af84828501613676565b91505092915050565b60008115159050919050565b6136cd816136b8565b82525050565b60006020820190506136e860008301846136c4565b92915050565b600081519050919050565b600082825260208201905092915050565b60005b8381101561372857808201518184015260208101905061370d565b83811115613737576000848401525b50505050565b6000601f19601f8301169050919050565b6000613759826136ee565b61376381856136f9565b935061377381856020860161370a565b61377c8161373d565b840191505092915050565b600060208201905081810360008301526137a1818461374e565b905092915050565b6000819050919050565b6137bc816137a9565b81146137c757600080fd5b50565b6000813590506137d9816137b3565b92915050565b6000602082840312156137f5576137f4613629565b5b6000613803848285016137ca565b91505092915050565b600073ffffffffffffffffffffffffffffffffffffffff82169050919050565b60006138378261380c565b9050919050565b6138478161382c565b82525050565b6000602082019050613862600083018461383e565b92915050565b6138718161382c565b811461387c57600080fd5b50565b60008135905061388e81613868565b92915050565b600080604083850312156138ab576138aa613629565b5b60006138b98582860161387f565b92505060206138ca858286016137ca565b9150509250929050565b6138dd816137a9565b82525050565b60006020820190506138f860008301846138d4565b92915050565b600080fd5b600080fd5b7f4e487b7100000000000000000000000000000000000000000000000000000000600052604160045260246000fd5b6139408261373d565b810181811067ffffffffffffffff8211171561395f5761395e613908565b5b80604052505050565b600061397261361f565b905061397e8282613937565b919050565b600067ffffffffffffffff82111561399e5761399d613908565b5b6139a78261373d565b9050602081019050919050565b82818337600083830152505050565b60006139d66139d184613983565b613968565b9050828152602081018484840111156139f2576139f1613903565b5b6139fd8482856139b4565b509392505050565b600082601f830112613a1a57613a196138fe565b5b8135613a2a8482602086016139c3565b91505092915050565b60008060008060808587031215613a4d57613a4c613629565b5b6000613a5b8782880161387f565b9450506020613a6c8782880161387f565b9350506040613a7d878288016137ca565b925050606085013567ffffffffffffffff811115613a9e57613a9d61362e565b5b613aaa87828801613a05565b91505092959194509250565b613abf81613633565b82525050565b6000602082019050613ada6000830184613ab6565b92915050565b600067ffffffffffffffff821115613afb57613afa613908565b5b602082029050602081019050919050565b600080fd5b6000613b24613b1f84613ae0565b613968565b90508083825260208201905060208402830185811115613b4757613b46613b0c565b5b835b81811015613b705780613b5c88826137ca565b845260208401935050602081019050613b49565b5050509392505050565b600082601f830112613b8f57613b8e6138fe565b5b8135613b9f848260208601613b11565b91505092915050565b60008060408385031215613bbf57613bbe613629565b5b6000613bcd858286016137ca565b925050602083013567ffffffffffffffff811115613bee57613bed61362e565b5b613bfa85828601613b7a565b9150509250929050565b600080600060608486031215613c1d57613c1c613629565b5b6000613c2b8682870161387f565b9350506020613c3c8682870161387f565b9250506040613c4d868287016137ca565b9150509250925092565b600060208284031215613c6d57613c6c613629565b5b6000613c7b8482850161387f565b91505092915050565b600081519050919050565b600082825260208201905092915050565b6000819050602082019050919050565b613cb9816137a9565b82525050565b6000613ccb8383613cb0565b60208301905092915050565b6000602082019050919050565b6000613cef82613c84565b613cf98185613c8f565b9350613d0483613ca0565b8060005b83811015613d35578151613d1c8882613cbf565b9750613d2783613cd7565b925050600181019050613d08565b5085935050505092915050565b60006020820190508181036000830152613d5c8184613ce4565b905092915050565b6000613d6f8261380c565b9050919050565b613d7f81613d64565b82525050565b613d8e816136b8565b82525050565b608082016000820151613daa6000850182613d76565b506020820151613dbd6020850182613cb0565b506040820151613dd06040850182613cb0565b506060820151613de36060850182613d85565b50505050565b6000608082019050613dfe6000830184613d94565b92915050565b613e0d816136b8565b8114613e1857600080fd5b50565b600081359050613e2a81613e04565b92915050565b60008060408385031215613e4757613e46613629565b5b6000613e558582860161387f565b9250506020613e6685828601613e1b565b9150509250929050565b60008060408385031215613e8757613e86613629565b5b6000613e95858286016137ca565b9250506020613ea6858286016137ca565b9150509250929050565b60008060408385031215613ec757613ec6613629565b5b6000613ed58582860161387f565b9250506020613ee68582860161387f565b9150509250929050565b7f4e487b7100000000000000000000000000000000000000000000000000000000600052602260045260246000fd5b60006002820490506001821680613f3757607f821691505b602082108103613f4a57613f49613ef0565b5b50919050565b7f5265656e7472616e637947756172643a207265656e7472616e742063616c6c00600082015250565b6000613f86601f836136f9565b9150613f9182613f50565b602082019050919050565b60006020820190508181036000830152613fb581613f79565b9050919050565b7f4e487b7100000000000000000000000000000000000000000000000000000000600052601160045260246000fd5b6000613ff6826137a9565b91506000820361400957614008613fbc565b5b600182039050919050565b6000819050919050565b600061403961403461402f8461380c565b614014565b61380c565b9050919050565b600061404b8261401e565b9050919050565b600061405d82614040565b9050919050565b61406d81614052565b82525050565b6000606082019050614088600083018661383e565b6140956020830185614064565b6140a260408301846138d4565b949350505050565b7f4552433732313a20617070726f76656420717565727920666f72206e6f6e657860008201527f697374656e7420746f6b656e0000000000000000000000000000000000000000602082015250565b6000614106602c836136f9565b9150614111826140aa565b604082019050919050565b60006020820190508181036000830152614135816140f9565b9050919050565b7f4552433732313a20617070726f76616c20746f2063757272656e74206f776e6560008201527f7200000000000000000000000000000000000000000000000000000000000000602082015250565b60006141986021836136f9565b91506141a38261413c565b604082019050919050565b600060208201905081810360008301526141c78161418b565b9050919050565b7f4552433732313a20617070726f76652063616c6c6572206973206e6f74206f7760008201527f6e6572206e6f7220617070726f76656420666f7220616c6c0000000000000000602082015250565b600061422a6038836136f9565b9150614235826141ce565b604082019050919050565b600060208201905081810360008301526142598161421d565b9050919050565b7f4f776e61626c653a2063616c6c6572206973206e6f7420746865206f776e6572600082015250565b60006142966020836136f9565b91506142a182614260565b602082019050919050565b600060208201905081810360008301526142c581614289565b9050919050565b7f4e6f7420656e6f756768204554482073656e743b20636865636b20707269636560008201527f2100000000000000000000000000000000000000000000000000000000000000602082015250565b60006143286021836136f9565b9150614333826142cc565b604082019050919050565b600060208201905081810360008301526143578161431b565b9050919050565b7f4e487b7100000000000000000000000000000000000000000000000000000000600052603260045260246000fd5b600081905092915050565b60008190508160005260206000209050919050565b600081546143ba81613f1f565b6143c4818661438d565b945060018216600081146143df57600181146143f057614423565b60ff19831686528186019350614423565b6143f985614398565b60005b8381101561441b578154818901526001820191506020810190506143fc565b838801955050505b50505092915050565b6000614437826136ee565b614441818561438d565b935061445181856020860161370a565b80840191505092915050565b600061446982866143ad565b9150614475828561442c565b915061448182846143ad565b9150819050949350505050565b6000614499826137a9565b91507fffffffffffffffffffffffffffffffffffffffffffffffffffffffffffffffff82036144cb576144ca613fbc565b5b600182019050919050565b60006040820190506144eb600083018561383e565b6144f8602083018461383e565b9392505050565b7f4552433732313a207472616e736665722063616c6c6572206973206e6f74206f60008201527f776e6572206e6f7220617070726f766564000000000000000000000000000000602082015250565b600061455b6031836136f9565b9150614566826144ff565b604082019050919050565b6000602082019050818103600083015261458a8161454e565b9050919050565b600060ff82169050919050565b60006145a982614591565b91506145b483614591565b92508260ff038211156145ca576145c9613fbc565b5b828201905092915050565b60006145e082614591565b915060ff82036145f3576145f2613fbc565b5b600182019050919050565b6000614609826137a9565b9150614614836137a9565b92508282101561462757614626613fbc565b5b828203905092915050565b600060408201905061464760008301856138d4565b61465460208301846138d4565b9392505050565b7f4e487b7100000000000000000000000000000000000000000000000000000000600052601260045260246000fd5b6000614695826137a9565b91506146a0836137a9565b9250826146b0576146af61465b565b5b828206905092915050565b50565b60006146cb6000836136f9565b91506146d6826146bb565b600082019050919050565b600060208201905081810360008301526146fa816146be565b9050919050565b600081905092915050565b6000614719600083614701565b9150614724826146bb565b600082019050919050565b600061473a8261470c565b9150819050919050565b7f4552433732313a206f776e657220717565727920666f72206e6f6e657869737460008201527f656e7420746f6b656e0000000000000000000000000000000000000000000000602082015250565b60006147a06029836136f9565b91506147ab82614744565b604082019050919050565b600060208201905081810360008301526147cf81614793565b9050919050565b7f4552433732313a2062616c616e636520717565727920666f7220746865207a6560008201527f726f206164647265737300000000000000000000000000000000000000000000602082015250565b6000614832602a836136f9565b915061483d826147d6565b604082019050919050565b6000602082019050818103600083015261486181614825565b9050919050565b7f45524337323155524953746f726167653a2055524920717565727920666f722060008201527f6e6f6e6578697374656e7420746f6b656e000000000000000000000000000000602082015250565b60006148c46031836136f9565b91506148cf82614868565b604082019050919050565b600060208201905081810360008301526148f3816148b7565b9050919050565b6000614906828561442c565b9150614912828461442c565b91508190509392505050565b6000614929826137a9565b9150614934836137a9565b9250826149445761494361465b565b5b828204905092915050565b600061495a826137a9565b9150614965836137a9565b9250827fffffffffffffffffffffffffffffffffffffffffffffffffffffffffffffffff0382111561499a57614999613fbc565b5b828201905092915050565b60006060820190506149ba600083018661383e565b6149c7602083018561383e565b6149d460408301846138d4565b949350505050565b6000819050919050565b6149ef816149dc565b82525050565b600067ffffffffffffffff82169050919050565b614a12816149f5565b82525050565b600061ffff82169050919050565b614a2f81614a18565b82525050565b600063ffffffff82169050919050565b614a4e81614a35565b82525050565b600060a082019050614a6960008301886149e6565b614a766020830187614a09565b614a836040830186614a26565b614a906060830185614a45565b614a9d6080830184614a45565b9695505050505050565b600081519050614ab6816137b3565b92915050565b600060208284031215614ad257614ad1613629565b5b6000614ae084828501614aa7565b91505092915050565b7f4f776e61626c653a206e6577206f776e657220697320746865207a65726f206160008201527f6464726573730000000000000000000000000000000000000000000000000000602082015250565b6000614b456026836136f9565b9150614b5082614ae9565b604082019050919050565b60006020820190508181036000830152614b7481614b38565b9050919050565b7f45524337323155524953746f726167653a2055524920736574206f66206e6f6e60008201527f6578697374656e7420746f6b656e000000000000000000000000000000000000602082015250565b6000614bd7602e836136f9565b9150614be282614b7b565b604082019050919050565b60006020820190508181036000830152614c0681614bca565b9050919050565b7f4552433732313a206f70657261746f7220717565727920666f72206e6f6e657860008201527f697374656e7420746f6b656e0000000000000000000000000000000000000000602082015250565b6000614c69602c836136f9565b9150614c7482614c0d565b604082019050919050565b60006020820190508181036000830152614c9881614c5c565b9050919050565b7f4552433732313a207472616e736665722066726f6d20696e636f72726563742060008201527f6f776e6572000000000000000000000000000000000000000000000000000000602082015250565b6000614cfb6025836136f9565b9150614d0682614c9f565b604082019050919050565b60006020820190508181036000830152614d2a81614cee565b9050919050565b7f4552433732313a207472616e7366657220746f20746865207a65726f2061646460008201527f7265737300000000000000000000000000000000000000000000000000000000602082015250565b6000614d8d6024836136f9565b9150614d9882614d31565b604082019050919050565b60006020820190508181036000830152614dbc81614d80565b9050919050565b7f4552433732313a20617070726f766520746f2063616c6c657200000000000000600082015250565b6000614df96019836136f9565b9150614e0482614dc3565b602082019050919050565b60006020820190508181036000830152614e2881614dec565b9050919050565b7f4552433732313a207472616e7366657220746f206e6f6e20455243373231526560008201527f63656976657220696d706c656d656e7465720000000000000000000000000000602082015250565b6000614e8b6032836136f9565b9150614e9682614e2f565b604082019050919050565b60006020820190508181036000830152614eba81614e7e565b9050919050565b7f4552433732314d657461646174613a2055524920717565727920666f72206e6f60008201527f6e6578697374656e7420746f6b656e0000000000000000000000000000000000602082015250565b6000614f1d602f836136f9565b9150614f2882614ec1565b604082019050919050565b60006020820190508181036000830152614f4c81614f10565b9050919050565b600081519050919050565b600082825260208201905092915050565b6000614f7a82614f53565b614f848185614f5e565b9350614f9481856020860161370a565b614f9d8161373d565b840191505092915050565b6000608082019050614fbd600083018761383e565b614fca602083018661383e565b614fd760408301856138d4565b8181036060830152614fe98184614f6f565b905095945050505050565b6000815190506150038161365f565b92915050565b60006020828403121561501f5761501e613629565b5b600061502d84828501614ff4565b91505092915050565b7f4552433732313a206d696e7420746f20746865207a65726f2061646472657373600082015250565b600061506c6020836136f9565b915061507782615036565b602082019050919050565b6000602082019050818103600083015261509b8161505f565b9050919050565b7f4552433732313a20746f6b656e20616c7265616479206d696e74656400000000600082015250565b60006150d8601c836136f9565b91506150e3826150a2565b602082019050919050565b60006020820190508181036000830152615107816150cb565b905091905056fea2646970667358221220ee3e4d4408c71312d44ceb90b5332da56ac554a7c6ba29ffcec69f8910e6342764736f6c634300080d003368747470733a2f2f6169617274732e73746f726167652e676f6f676c65617069732e636f6d2f6d657461646174612f",
  "immutableReferences": {
    "10": [
      {
        "length": 32,
        "start": 3798
      },
      {
        "length": 32,
        "start": 3882
      }
    ]
  },
  "source": "pragma solidity 0.8.13;\r\n\r\nimport \"../node_modules/@openzeppelin/contracts/token/ERC721/ERC721.sol\";\r\nimport \"../node_modules/@openzeppelin/contracts/access/Ownable.sol\";\r\nimport \"../node_modules/@openzeppelin/contracts/security/ReentrancyGuard.sol\";\r\nimport \"../node_modules/@openzeppelin/contracts/token/ERC721/extensions/ERC721URIStorage.sol\";\r\nimport \"@chainlink/contracts/src/v0.8/interfaces/VRFCoordinatorV2Interface.sol\";\r\nimport \"@chainlink/contracts/src/v0.8/VRFConsumerBaseV2.sol\";\r\n\r\ncontract Token is Ownable, IERC721Receiver, ReentrancyGuard, VRFConsumerBaseV2, ERC721URIStorage {\r\n    \r\n\r\n    /////////////////////////////////Random number//////////////////////////////\r\n    VRFCoordinatorV2Interface COORDINATOR;\r\n\r\n    // Your subscription ID.\r\n    uint64 s_subscriptionId;\r\n\r\n    // Rinkeby coordinator. For other networks,\r\n    // see https://docs.chain.link/docs/vrf-contracts/#configurations\r\n    address vrfCoordinator = 0x6168499c0cFfCaCD319c818142124B7A15E857ab;\r\n\r\n    // The gas lane to use, which specifies the maximum gas price to bump to.\r\n    // For a list of available gas lanes on each network,\r\n    // see https://docs.chain.link/docs/vrf-contracts/#configurations\r\n    bytes32 keyHash = 0xd89b2bf150e3b9e13446986e571fb9cab24b13cea0a43ea20a6049a85cc807cc;\r\n\r\n    // Depends on the number of requested values that you want sent to the\r\n    // fulfillRandomWords() function. Storing each word costs about 20,000 gas,\r\n    // so 100,000 is a safe default for this example contract. Test and adjust\r\n    // this limit based on the network that you select, the size of the request,\r\n    // and the processing of the callback request in the fulfillRandomWords()\r\n    // function.\r\n    uint32 callbackGasLimit = 100000;\r\n\r\n    // The default is 3, but you can set this higher.\r\n    uint16 requestConfirmations = 3;\r\n\r\n    // For this example, retrieve 2 random values in one request.\r\n    // Cannot exceed VRFCoordinatorV2.MAX_NUM_WORDS.\r\n    uint32 numWords =  1;\r\n\r\n    uint256 private baseSeed;\r\n    uint256 public s_requestId;\r\n    address s_owner;\r\n    // Assumes the subscription is funded sufficiently.\r\n    function requestRandomWords() external onlyOwner {\r\n        // Will revert if subscription is not set and funded.\r\n        s_requestId = COORDINATOR.requestRandomWords(keyHash,s_subscriptionId,requestConfirmations,callbackGasLimit,numWords);\r\n    }\r\n    \r\n    function fulfillRandomWords(uint256, uint256[] memory randomWords) internal override {\r\n        baseSeed = randomWords[0];\r\n    }\r\n\r\n    constructor (string memory name, string memory symbol, uint64 subscriptionId, uint64 _totalSupply) ERC721(name, symbol) VRFConsumerBaseV2(vrfCoordinator) {\r\n        COORDINATOR = VRFCoordinatorV2Interface(vrfCoordinator);\r\n        s_owner = msg.sender;\r\n        s_subscriptionId = subscriptionId;\r\n        totalSupply = _totalSupply;\r\n    }\r\n\r\n    uint256 increment = 0;\r\n    uint256[100] private order;\r\n    uint256 totalSupply;\r\n    function shuffle() external{\r\n        uint256[] memory unshuffled = new uint256[](totalSupply);\r\n        uint8 i;\r\n        for (i=0; i < totalSupply; i++) {\r\n            unshuffled[i] = i+1;\r\n        }\r\n        uint idx;\r\n        for (i=0; i < totalSupply; i++) {\r\n            idx = uint256(keccak256(abi.encode(baseSeed, increment))) % (totalSupply - i);\r\n            increment++;\r\n            order[i] = unshuffled[idx];\r\n            unshuffled[idx] = unshuffled[totalSupply - i - 1];\r\n        }\r\n    }\r\n\r\n    function getOrder() external view returns (uint256[] memory){\r\n        uint256[] memory result = new uint256[](totalSupply);\r\n        uint256 i;\r\n        for(i=0; i < totalSupply; i++)\r\n        {\r\n            result[i] = order[i];\r\n        }\r\n        return result;\r\n    }\r\n\r\n\r\n    /////////////////////////////////Random number//////////////////////////////\r\n\r\n\r\n    event Mint(address indexed owner, uint256 indexed tokenId, uint256 timestamp);\r\n    event ListAnItem(address indexed owner, uint256 indexed tokenId, uint256 price, uint256 timestamp);\r\n    event CancelAnListedItem(address indexed owner, uint256 indexed tokenId, uint256 timestamp);\r\n    event PurchaseAnItem(address indexed buyer, uint256 indexed tokenId, address indexed seller, uint256 price, uint256 timestamp);\r\n    /////////////////////////////////////////////Token Contract///////////////////////////////////////////////////\r\n\r\n    uint256 private nextId = 0;\r\n    \r\n    string prefix = \"https://aiarts.storage.googleapis.com/metadata/\";\r\n    string sub = \".json\";\r\n\r\n    function mint() external payable {\r\n        require(msg.value >= 0.01 ether, \"Not enough ETH sent; check price!\");\r\n        _safeMint(msg.sender, nextId);\r\n        _setTokenURI(nextId,  string(abi.encodePacked(prefix, uintToString(order[nextId]), sub)));\r\n        emit Mint(msg.sender, nextId, block.timestamp);\r\n        nextId++;\r\n    }\r\n\r\n\r\n    function getBalance() public view onlyOwner returns (uint256){\r\n        return address(this).balance;\r\n    }\r\n\r\n    function withdrawBalance() external payable onlyOwner {\r\n        require(msg.sender == owner(), \"\");\r\n        (bool sent, bytes memory data) = payable(address(owner())).call{value:address(this).balance}(\"\");\r\n\r\n    }\r\n\r\n    function getAllTokensForUser(address user) public view returns (uint256[] memory){\r\n        uint256 tokenCount = balanceOf(user);\r\n        if(tokenCount ==0){\r\n            return new uint256[](0);\r\n        }\r\n        else{\r\n            uint256[] memory result = new uint256[](tokenCount);\r\n            uint256 totalAIAs = nextId;\r\n            uint256 resultIndex = 0;\r\n            uint256 i;\r\n            for(i=0; i < totalAIAs; i++)\r\n            {\r\n                if(ownerOf(i) == user)\r\n                {\r\n                    result[resultIndex] = i;\r\n                    resultIndex++;\r\n                }\r\n            }\r\n            return result;\r\n        }\r\n    }\r\n\r\n\r\n\r\n    /////////////////////////////////////////////Marketplace Contract//////////////////////////////////////////////\r\n\r\n    struct Item {\r\n        address payable seller;\r\n        uint256 price;\r\n        uint256 startedAt;\r\n        bool isSelling;\r\n    }\r\n\r\n    mapping (address => uint256) userToListedItems;\r\n    mapping (uint256 => Item) tokenIdToItem;\r\n\r\n    function getItemDetail(uint256 _tokenId) external view returns (Item memory){\r\n        return tokenIdToItem[_tokenId];\r\n    }\r\n\r\n    function sell(uint256 _tokenId, uint256 _price) external nonReentrant {\r\n        require(ownerOf(_tokenId) == msg.sender);\r\n        tokenIdToItem[_tokenId] = Item(\r\n            payable(msg.sender),\r\n            _price,\r\n            block.timestamp,\r\n            true\r\n        );\r\n        safeTransferFrom(msg.sender, address(this), _tokenId);\r\n        userToListedItems[msg.sender] ++;\r\n        emit ListAnItem(msg.sender, _tokenId, _price, block.timestamp);\r\n    }\r\n\r\n    function cancelSell(uint256 _tokenId) external nonReentrant {\r\n        Item storage item = tokenIdToItem[_tokenId];\r\n        require(item.startedAt > 0);\r\n        require(item.isSelling);\r\n        require(msg.sender == item.seller);\r\n        userToListedItems[msg.sender] --;\r\n        item.isSelling = false;\r\n        this.safeTransferFrom(address(this), item.seller, _tokenId);\r\n        delete tokenIdToItem[_tokenId];\r\n        emit CancelAnListedItem(msg.sender, _tokenId, block.timestamp);\r\n    }\r\n\r\n    function purchaseItem(uint256 _tokenId) external payable nonReentrant {\r\n        // Get a reference to the auction struct\r\n        Item storage item = tokenIdToItem[_tokenId];\r\n        address payable seller = item.seller;\r\n        require(item.startedAt > 0);\r\n        require(item.isSelling);\r\n        require(item.price / 5 + item.price == msg.value);\r\n        uint256 price = item.price;\r\n        delete tokenIdToItem[_tokenId];\r\n        // Transfer proceeds to seller (if there are any!)\r\n        if (price > 0) {\r\n            (bool sent, bytes memory data) = payable(seller).call{value:price}(\"\");\r\n        }\r\n        this.safeTransferFrom(address(this), msg.sender, _tokenId);\r\n        userToListedItems[seller]--;\r\n        emit PurchaseAnItem(msg.sender, _tokenId, seller, price, block.timestamp);\r\n    }\r\n\r\n    function getListedItemsForUser(address user) public view returns (uint256[] memory){\r\n        if(userToListedItems[user] ==0){\r\n            return new uint256[](0);\r\n        }\r\n        else{\r\n            uint256[] memory result = new uint256[](userToListedItems[user]);\r\n            uint256 totalAIAs = nextId;\r\n            uint256 resultIndex = 0;\r\n            uint256 i;\r\n            for(i=0; i < totalAIAs; i++)\r\n            {\r\n                Item memory item = tokenIdToItem[i];\r\n                if(item.seller == user)\r\n                {\r\n                    result[resultIndex] = i;\r\n                    resultIndex++;\r\n                }\r\n            }\r\n            return result;\r\n        }\r\n    }\r\n\r\n\r\n    /////////////////////////////////////////////Helper Functions///////////////////////////////////////////////////\r\n    function onERC721Received(address, address, uint256, bytes memory) public virtual override returns (bytes4) {\r\n        return this.onERC721Received.selector;\r\n    }\r\n\r\n    function uintToString(uint v) public pure returns (string memory) {\r\n        if (v == 0){\r\n            string memory zero = \"0\";\r\n            return zero;\r\n        }\r\n        uint maxlength = 100;\r\n        bytes memory reversed = new bytes(maxlength);\r\n        uint i = 0;\r\n        while (v != 0) {\r\n            uint remainder = v % 10;\r\n            v = v / 10;\r\n            reversed[i++] = bytes1(uint8(48 + remainder));\r\n        }\r\n        bytes memory s = new bytes(i); // i + 1 is inefficient\r\n        for (uint j = 0; j < i; j++) {\r\n            s[j] = reversed[i - j - 1]; // to avoid the off-by-one error\r\n        }\r\n        string memory str = string(s);  // memory isn't implicitly convertible to storage\r\n        return str;\r\n    }\r\n}",
  "sourcePath": "C:\\Users\\Niven\\Documents\\AIA\\contracts\\Token.sol",
  "compiler": {
    "name": "solc",
    "version": "0.8.13+commit.abaa5c0e.Emscripten.clang"
  },
  "schemaVersion": "3.4.6",
  "updatedAt": "2022-04-20T21:32:53.391Z",
  "devdoc": {
    "kind": "dev",
    "methods": {
      "approve(address,uint256)": {
        "details": "See {IERC721-approve}."
      },
      "balanceOf(address)": {
        "details": "See {IERC721-balanceOf}."
      },
      "getApproved(uint256)": {
        "details": "See {IERC721-getApproved}."
      },
      "isApprovedForAll(address,address)": {
        "details": "See {IERC721-isApprovedForAll}."
      },
      "name()": {
        "details": "See {IERC721Metadata-name}."
      },
      "owner()": {
        "details": "Returns the address of the current owner."
      },
      "ownerOf(uint256)": {
        "details": "See {IERC721-ownerOf}."
      },
      "renounceOwnership()": {
        "details": "Leaves the contract without owner. It will not be possible to call `onlyOwner` functions anymore. Can only be called by the current owner. NOTE: Renouncing ownership will leave the contract without an owner, thereby removing any functionality that is only available to the owner."
      },
      "safeTransferFrom(address,address,uint256)": {
        "details": "See {IERC721-safeTransferFrom}."
      },
      "safeTransferFrom(address,address,uint256,bytes)": {
        "details": "See {IERC721-safeTransferFrom}."
      },
      "setApprovalForAll(address,bool)": {
        "details": "See {IERC721-setApprovalForAll}."
      },
      "supportsInterface(bytes4)": {
        "details": "See {IERC165-supportsInterface}."
      },
      "symbol()": {
        "details": "See {IERC721Metadata-symbol}."
      },
      "tokenURI(uint256)": {
        "details": "See {IERC721Metadata-tokenURI}."
      },
      "transferFrom(address,address,uint256)": {
        "details": "See {IERC721-transferFrom}."
      },
      "transferOwnership(address)": {
        "details": "Transfers ownership of the contract to a new account (`newOwner`). Can only be called by the current owner."
      }
    },
    "version": 1
  },
  "userdoc": {
    "kind": "user",
    "methods": {},
    "version": 1
  }
}