{
  "contractName": "Token",
  "abi": [
    {
      "inputs": [
        {
          "internalType": "string",
          "name": "name",
          "type": "string"
        },
        {
          "internalType": "string",
          "name": "symbol",
          "type": "string"
        },
        {
          "internalType": "uint64",
          "name": "subscriptionId",
          "type": "uint64"
        }
      ],
      "stateMutability": "nonpayable",
      "type": "constructor"
    },
    {
      "inputs": [
        {
          "internalType": "address",
          "name": "have",
          "type": "address"
        },
        {
          "internalType": "address",
          "name": "want",
          "type": "address"
        }
      ],
      "name": "OnlyCoordinatorCanFulfill",
      "type": "error"
    },
    {
      "anonymous": false,
      "inputs": [
        {
          "indexed": true,
          "internalType": "address",
          "name": "owner",
          "type": "address"
        },
        {
          "indexed": true,
          "internalType": "address",
          "name": "approved",
          "type": "address"
        },
        {
          "indexed": true,
          "internalType": "uint256",
          "name": "tokenId",
          "type": "uint256"
        }
      ],
      "name": "Approval",
      "type": "event"
    },
    {
      "anonymous": false,
      "inputs": [
        {
          "indexed": true,
          "internalType": "address",
          "name": "owner",
          "type": "address"
        },
        {
          "indexed": true,
          "internalType": "address",
          "name": "operator",
          "type": "address"
        },
        {
          "indexed": false,
          "internalType": "bool",
          "name": "approved",
          "type": "bool"
        }
      ],
      "name": "ApprovalForAll",
      "type": "event"
    },
    {
      "anonymous": false,
      "inputs": [
        {
          "indexed": true,
          "internalType": "address",
          "name": "owner",
          "type": "address"
        },
        {
          "indexed": true,
          "internalType": "uint256",
          "name": "tokenId",
          "type": "uint256"
        },
        {
          "indexed": false,
          "internalType": "uint256",
          "name": "timestamp",
          "type": "uint256"
        }
      ],
      "name": "CancelAnListedItem",
      "type": "event"
    },
    {
      "anonymous": false,
      "inputs": [
        {
          "indexed": true,
          "internalType": "address",
          "name": "owner",
          "type": "address"
        },
        {
          "indexed": true,
          "internalType": "uint256",
          "name": "tokenId",
          "type": "uint256"
        },
        {
          "indexed": false,
          "internalType": "uint256",
          "name": "price",
          "type": "uint256"
        },
        {
          "indexed": false,
          "internalType": "uint256",
          "name": "duration",
          "type": "uint256"
        },
        {
          "indexed": false,
          "internalType": "uint256",
          "name": "timestamp",
          "type": "uint256"
        }
      ],
      "name": "ListAnItem",
      "type": "event"
    },
    {
      "anonymous": false,
      "inputs": [
        {
          "indexed": true,
          "internalType": "address",
          "name": "owner",
          "type": "address"
        },
        {
          "indexed": true,
          "internalType": "uint256",
          "name": "tokenId",
          "type": "uint256"
        },
        {
          "indexed": false,
          "internalType": "uint256",
          "name": "timestamp",
          "type": "uint256"
        }
      ],
      "name": "Mint",
      "type": "event"
    },
    {
      "anonymous": false,
      "inputs": [
        {
          "indexed": true,
          "internalType": "address",
          "name": "previousOwner",
          "type": "address"
        },
        {
          "indexed": true,
          "internalType": "address",
          "name": "newOwner",
          "type": "address"
        }
      ],
      "name": "OwnershipTransferred",
      "type": "event"
    },
    {
      "anonymous": false,
      "inputs": [
        {
          "indexed": true,
          "internalType": "address",
          "name": "buyer",
          "type": "address"
        },
        {
          "indexed": true,
          "internalType": "uint256",
          "name": "tokenId",
          "type": "uint256"
        },
        {
          "indexed": true,
          "internalType": "address",
          "name": "seller",
          "type": "address"
        },
        {
          "indexed": false,
          "internalType": "uint256",
          "name": "price",
          "type": "uint256"
        },
        {
          "indexed": false,
          "internalType": "uint256",
          "name": "timestamp",
          "type": "uint256"
        }
      ],
      "name": "PurchaseAnItem",
      "type": "event"
    },
    {
      "anonymous": false,
      "inputs": [
        {
          "indexed": true,
          "internalType": "address",
          "name": "from",
          "type": "address"
        },
        {
          "indexed": true,
          "internalType": "address",
          "name": "to",
          "type": "address"
        },
        {
          "indexed": true,
          "internalType": "uint256",
          "name": "tokenId",
          "type": "uint256"
        }
      ],
      "name": "Transfer",
      "type": "event"
    },
    {
      "inputs": [
        {
          "internalType": "address",
          "name": "to",
          "type": "address"
        },
        {
          "internalType": "uint256",
          "name": "tokenId",
          "type": "uint256"
        }
      ],
      "name": "approve",
      "outputs": [],
      "stateMutability": "nonpayable",
      "type": "function"
    },
    {
      "inputs": [
        {
          "internalType": "address",
          "name": "owner",
          "type": "address"
        }
      ],
      "name": "balanceOf",
      "outputs": [
        {
          "internalType": "uint256",
          "name": "",
          "type": "uint256"
        }
      ],
      "stateMutability": "view",
      "type": "function",
      "constant": true
    },
    {
      "inputs": [
        {
          "internalType": "uint256",
          "name": "tokenId",
          "type": "uint256"
        }
      ],
      "name": "getApproved",
      "outputs": [
        {
          "internalType": "address",
          "name": "",
          "type": "address"
        }
      ],
      "stateMutability": "view",
      "type": "function",
      "constant": true
    },
    {
      "inputs": [
        {
          "internalType": "address",
          "name": "owner",
          "type": "address"
        },
        {
          "internalType": "address",
          "name": "operator",
          "type": "address"
        }
      ],
      "name": "isApprovedForAll",
      "outputs": [
        {
          "internalType": "bool",
          "name": "",
          "type": "bool"
        }
      ],
      "stateMutability": "view",
      "type": "function",
      "constant": true
    },
    {
      "inputs": [],
      "name": "name",
      "outputs": [
        {
          "internalType": "string",
          "name": "",
          "type": "string"
        }
      ],
      "stateMutability": "view",
      "type": "function",
      "constant": true
    },
    {
      "inputs": [],
      "name": "owner",
      "outputs": [
        {
          "internalType": "address",
          "name": "",
          "type": "address"
        }
      ],
      "stateMutability": "view",
      "type": "function",
      "constant": true
    },
    {
      "inputs": [
        {
          "internalType": "uint256",
          "name": "tokenId",
          "type": "uint256"
        }
      ],
      "name": "ownerOf",
      "outputs": [
        {
          "internalType": "address",
          "name": "",
          "type": "address"
        }
      ],
      "stateMutability": "view",
      "type": "function",
      "constant": true
    },
    {
      "inputs": [
        {
          "internalType": "uint256",
          "name": "requestId",
          "type": "uint256"
        },
        {
          "internalType": "uint256[]",
          "name": "randomWords",
          "type": "uint256[]"
        }
      ],
      "name": "rawFulfillRandomWords",
      "outputs": [],
      "stateMutability": "nonpayable",
      "type": "function"
    },
    {
      "inputs": [],
      "name": "renounceOwnership",
      "outputs": [],
      "stateMutability": "nonpayable",
      "type": "function"
    },
    {
      "inputs": [],
      "name": "s_requestId",
      "outputs": [
        {
          "internalType": "uint256",
          "name": "",
          "type": "uint256"
        }
      ],
      "stateMutability": "view",
      "type": "function",
      "constant": true
    },
    {
      "inputs": [
        {
          "internalType": "address",
          "name": "from",
          "type": "address"
        },
        {
          "internalType": "address",
          "name": "to",
          "type": "address"
        },
        {
          "internalType": "uint256",
          "name": "tokenId",
          "type": "uint256"
        }
      ],
      "name": "safeTransferFrom",
      "outputs": [],
      "stateMutability": "nonpayable",
      "type": "function"
    },
    {
      "inputs": [
        {
          "internalType": "address",
          "name": "from",
          "type": "address"
        },
        {
          "internalType": "address",
          "name": "to",
          "type": "address"
        },
        {
          "internalType": "uint256",
          "name": "tokenId",
          "type": "uint256"
        },
        {
          "internalType": "bytes",
          "name": "_data",
          "type": "bytes"
        }
      ],
      "name": "safeTransferFrom",
      "outputs": [],
      "stateMutability": "nonpayable",
      "type": "function"
    },
    {
      "inputs": [
        {
          "internalType": "address",
          "name": "operator",
          "type": "address"
        },
        {
          "internalType": "bool",
          "name": "approved",
          "type": "bool"
        }
      ],
      "name": "setApprovalForAll",
      "outputs": [],
      "stateMutability": "nonpayable",
      "type": "function"
    },
    {
      "inputs": [
        {
          "internalType": "bytes4",
          "name": "interfaceId",
          "type": "bytes4"
        }
      ],
      "name": "supportsInterface",
      "outputs": [
        {
          "internalType": "bool",
          "name": "",
          "type": "bool"
        }
      ],
      "stateMutability": "view",
      "type": "function",
      "constant": true
    },
    {
      "inputs": [],
      "name": "symbol",
      "outputs": [
        {
          "internalType": "string",
          "name": "",
          "type": "string"
        }
      ],
      "stateMutability": "view",
      "type": "function",
      "constant": true
    },
    {
      "inputs": [
        {
          "internalType": "uint256",
          "name": "tokenId",
          "type": "uint256"
        }
      ],
      "name": "tokenURI",
      "outputs": [
        {
          "internalType": "string",
          "name": "",
          "type": "string"
        }
      ],
      "stateMutability": "view",
      "type": "function",
      "constant": true
    },
    {
      "inputs": [
        {
          "internalType": "address",
          "name": "from",
          "type": "address"
        },
        {
          "internalType": "address",
          "name": "to",
          "type": "address"
        },
        {
          "internalType": "uint256",
          "name": "tokenId",
          "type": "uint256"
        }
      ],
      "name": "transferFrom",
      "outputs": [],
      "stateMutability": "nonpayable",
      "type": "function"
    },
    {
      "inputs": [
        {
          "internalType": "address",
          "name": "newOwner",
          "type": "address"
        }
      ],
      "name": "transferOwnership",
      "outputs": [],
      "stateMutability": "nonpayable",
      "type": "function"
    },
    {
      "inputs": [],
      "name": "requestRandomWords",
      "outputs": [],
      "stateMutability": "nonpayable",
      "type": "function"
    },
    {
      "inputs": [],
      "name": "getRandomNumber",
      "outputs": [
        {
          "internalType": "uint256",
          "name": "",
          "type": "uint256"
        }
      ],
      "stateMutability": "view",
      "type": "function",
      "constant": true
    },
    {
      "inputs": [],
      "name": "shuffle",
      "outputs": [],
      "stateMutability": "nonpayable",
      "type": "function"
    },
    {
      "inputs": [],
      "name": "getShuffle",
      "outputs": [
        {
          "internalType": "uint32[]",
          "name": "",
          "type": "uint32[]"
        }
      ],
      "stateMutability": "view",
      "type": "function",
      "constant": true
    },
    {
      "inputs": [
        {
          "internalType": "uint256",
          "name": "attribute1",
          "type": "uint256"
        },
        {
          "internalType": "uint256",
          "name": "attribute2",
          "type": "uint256"
        },
        {
          "internalType": "uint256",
          "name": "attribute3",
          "type": "uint256"
        },
        {
          "internalType": "uint256",
          "name": "attribute4",
          "type": "uint256"
        }
      ],
      "name": "mint",
      "outputs": [],
      "stateMutability": "payable",
      "type": "function",
      "payable": true
    },
    {
      "inputs": [
        {
          "internalType": "uint256",
          "name": "tokenId",
          "type": "uint256"
        }
      ],
      "name": "getTokenDetails",
      "outputs": [
        {
          "components": [
            {
              "internalType": "uint256",
              "name": "attribute1",
              "type": "uint256"
            },
            {
              "internalType": "uint256",
              "name": "attribute2",
              "type": "uint256"
            },
            {
              "internalType": "uint256",
              "name": "attribute3",
              "type": "uint256"
            },
            {
              "internalType": "uint256",
              "name": "attribute4",
              "type": "uint256"
            }
          ],
          "internalType": "struct Token.AIA",
          "name": "",
          "type": "tuple"
        }
      ],
      "stateMutability": "view",
      "type": "function",
      "constant": true
    },
    {
      "inputs": [],
      "name": "getBalance",
      "outputs": [
        {
          "internalType": "uint256",
          "name": "",
          "type": "uint256"
        }
      ],
      "stateMutability": "view",
      "type": "function",
      "constant": true
    },
    {
      "inputs": [],
      "name": "withdrawBalance",
      "outputs": [],
      "stateMutability": "payable",
      "type": "function",
      "payable": true
    },
    {
      "inputs": [
        {
          "internalType": "address",
          "name": "user",
          "type": "address"
        }
      ],
      "name": "getAllTokensForUser",
      "outputs": [
        {
          "internalType": "uint256[]",
          "name": "",
          "type": "uint256[]"
        }
      ],
      "stateMutability": "view",
      "type": "function",
      "constant": true
    },
    {
      "inputs": [
        {
          "internalType": "uint256",
          "name": "_tokenId",
          "type": "uint256"
        },
        {
          "internalType": "uint256",
          "name": "_price",
          "type": "uint256"
        },
        {
          "internalType": "uint256",
          "name": "_duration",
          "type": "uint256"
        }
      ],
      "name": "sell",
      "outputs": [],
      "stateMutability": "nonpayable",
      "type": "function"
    },
    {
      "inputs": [
        {
          "internalType": "uint256",
          "name": "_tokenId",
          "type": "uint256"
        }
      ],
      "name": "cancelSell",
      "outputs": [],
      "stateMutability": "nonpayable",
      "type": "function"
    },
    {
      "inputs": [
        {
          "internalType": "uint256",
          "name": "_tokenId",
          "type": "uint256"
        }
      ],
      "name": "purchaseItem",
      "outputs": [],
      "stateMutability": "payable",
      "type": "function",
      "payable": true
    },
    {
      "inputs": [
        {
          "internalType": "address",
          "name": "user",
          "type": "address"
        }
      ],
      "name": "getListedItemsForUser",
      "outputs": [
        {
          "internalType": "uint256[]",
          "name": "",
          "type": "uint256[]"
        }
      ],
      "stateMutability": "view",
      "type": "function",
      "constant": true
    },
    {
      "inputs": [
        {
          "internalType": "address",
          "name": "",
          "type": "address"
        },
        {
          "internalType": "address",
          "name": "",
          "type": "address"
        },
        {
          "internalType": "uint256",
          "name": "",
          "type": "uint256"
        },
        {
          "internalType": "bytes",
          "name": "",
          "type": "bytes"
        }
      ],
      "name": "onERC721Received",
      "outputs": [
        {
          "internalType": "bytes4",
          "name": "",
          "type": "bytes4"
        }
      ],
      "stateMutability": "nonpayable",
      "type": "function"
    }
  ],
  "bytecode": "0x60a0604052736168499c0cffcacd319c818142124b7a15e857ab600960006101000a81548173ffffffffffffffffffffffffffffffffffffffff021916908373ffffffffffffffffffffffffffffffffffffffff1602179055507fd89b2bf150e3b9e13446986e571fb9cab24b13cea0a43ea20a6049a85cc807cc60001b600a55620186a0600b60006101000a81548163ffffffff021916908363ffffffff1602179055506003600b60046101000a81548161ffff021916908361ffff1602179055506001600b60066101000a81548163ffffffff021916908363ffffffff1602179055506001600f556000601d55348015620000fb57600080fd5b50604051620054193803806200541983398181016040528101906200012191906200060d565b600960009054906101000a900473ffffffffffffffffffffffffffffffffffffffff16838381600090805190602001906200015e9291906200037b565b508060019080519060200190620001779291906200037b565b5050506200019a6200018e620002ad60201b60201c565b620002b560201b60201c565b60016007819055508073ffffffffffffffffffffffffffffffffffffffff1660808173ffffffffffffffffffffffffffffffffffffffff168152505050600960009054906101000a900473ffffffffffffffffffffffffffffffffffffffff16600860006101000a81548173ffffffffffffffffffffffffffffffffffffffff021916908373ffffffffffffffffffffffffffffffffffffffff16021790555033600e60006101000a81548173ffffffffffffffffffffffffffffffffffffffff021916908373ffffffffffffffffffffffffffffffffffffffff16021790555080600860146101000a81548167ffffffffffffffff021916908367ffffffffffffffff1602179055505050506200070b565b600033905090565b6000600660009054906101000a900473ffffffffffffffffffffffffffffffffffffffff16905081600660006101000a81548173ffffffffffffffffffffffffffffffffffffffff021916908373ffffffffffffffffffffffffffffffffffffffff1602179055508173ffffffffffffffffffffffffffffffffffffffff168173ffffffffffffffffffffffffffffffffffffffff167f8be0079c531659141344cd1fd0a4f28419497f9722a3daafe3b4186f6b6457e060405160405180910390a35050565b8280546200038990620006d6565b90600052602060002090601f016020900481019282620003ad5760008555620003f9565b82601f10620003c857805160ff1916838001178555620003f9565b82800160010185558215620003f9579182015b82811115620003f8578251825591602001919060010190620003db565b5b5090506200040891906200040c565b5090565b5b80821115620004275760008160009055506001016200040d565b5090565b6000604051905090565b600080fd5b600080fd5b600080fd5b600080fd5b6000601f19601f8301169050919050565b7f4e487b7100000000000000000000000000000000000000000000000000000000600052604160045260246000fd5b620004948262000449565b810181811067ffffffffffffffff82111715620004b657620004b56200045a565b5b80604052505050565b6000620004cb6200042b565b9050620004d9828262000489565b919050565b600067ffffffffffffffff821115620004fc57620004fb6200045a565b5b620005078262000449565b9050602081019050919050565b60005b838110156200053457808201518184015260208101905062000517565b8381111562000544576000848401525b50505050565b6000620005616200055b84620004de565b620004bf565b90508281526020810184848401111562000580576200057f62000444565b5b6200058d84828562000514565b509392505050565b600082601f830112620005ad57620005ac6200043f565b5b8151620005bf8482602086016200054a565b91505092915050565b600067ffffffffffffffff82169050919050565b620005e781620005c8565b8114620005f357600080fd5b50565b6000815190506200060781620005dc565b92915050565b60008060006060848603121562000629576200062862000435565b5b600084015167ffffffffffffffff8111156200064a57620006496200043a565b5b620006588682870162000595565b935050602084015167ffffffffffffffff8111156200067c576200067b6200043a565b5b6200068a8682870162000595565b92505060406200069d86828701620005f6565b9150509250925092565b7f4e487b7100000000000000000000000000000000000000000000000000000000600052602260045260246000fd5b60006002820490506001821680620006ef57607f821691505b602082108103620007055762000704620006a7565b5b50919050565b608051614ceb6200072e60003960008181610dce0152610e220152614ceb6000f3fe6080604052600436106101e35760003560e01c806370a0823111610102578063c87b56dd11610095578063e0c8628911610064578063e0c86289146106c7578063e89e106a146106de578063e985e9c514610709578063f2fde38b14610746576101e3565b8063c87b56dd1461061a578063d38ea5bf14610657578063d3c9727c14610673578063dbdff2c11461069c576101e3565b806395d89b41116100d157806395d89b4114610560578063a22cb4651461058b578063b88d4fde146105b4578063c1e03728146105dd576101e3565b806370a08231146104a4578063715018a6146104e157806382de8fe9146104f85780638da5cb5b14610535576101e3565b806323b872dd1161017a57806342842e0e1161014957806342842e0e146104185780635fd8c710146104415780636352211e1461044b5780636582ccd314610488576101e3565b806323b872dd146103705780632520bf0414610399578063261b486d146103b05780632888df2a146103db576101e3565b8063095ea7b3116101b6578063095ea7b3146102b657806312065fe0146102df578063150b7a021461030a5780631fe543e314610347576101e3565b806301ffc9a7146101e857806306fdde031461022557806307c9cd4514610250578063081812fc14610279575b600080fd5b3480156101f457600080fd5b5061020f600480360381019061020a91906132bd565b61076f565b60405161021c9190613305565b60405180910390f35b34801561023157600080fd5b5061023a610851565b60405161024791906133b9565b60405180910390f35b34801561025c57600080fd5b5061027760048036038101906102729190613411565b6108e3565b005b34801561028557600080fd5b506102a0600480360381019061029b9190613411565b610b98565b6040516102ad919061347f565b60405180910390f35b3480156102c257600080fd5b506102dd60048036038101906102d891906134c6565b610c1d565b005b3480156102eb57600080fd5b506102f4610d34565b6040516103019190613515565b60405180910390f35b34801561031657600080fd5b50610331600480360381019061032c9190613665565b610db8565b60405161033e91906136f7565b60405180910390f35b34801561035357600080fd5b5061036e600480360381019061036991906137da565b610dcc565b005b34801561037c57600080fd5b5061039760048036038101906103929190613836565b610e8c565b005b3480156103a557600080fd5b506103ae610eec565b005b3480156103bc57600080fd5b506103c561108a565b6040516103d29190613957565b60405180910390f35b3480156103e757600080fd5b5061040260048036038101906103fd9190613979565b611161565b60405161040f9190613a64565b60405180910390f35b34801561042457600080fd5b5061043f600480360381019061043a9190613836565b6113d2565b005b6104496113f2565b005b34801561045757600080fd5b50610472600480360381019061046d9190613411565b61155c565b60405161047f919061347f565b60405180910390f35b6104a2600480360381019061049d9190613a86565b61160d565b005b3480156104b057600080fd5b506104cb60048036038101906104c69190613979565b61176a565b6040516104d89190613515565b60405180910390f35b3480156104ed57600080fd5b506104f6611821565b005b34801561050457600080fd5b5061051f600480360381019061051a9190613979565b6118a9565b60405161052c9190613a64565b60405180910390f35b34801561054157600080fd5b5061054a6119fd565b604051610557919061347f565b60405180910390f35b34801561056c57600080fd5b50610575611a27565b60405161058291906133b9565b60405180910390f35b34801561059757600080fd5b506105b260048036038101906105ad9190613b19565b611ab9565b005b3480156105c057600080fd5b506105db60048036038101906105d69190613665565b611acf565b005b3480156105e957600080fd5b5061060460048036038101906105ff9190613411565b611b31565b6040516106119190613bae565b60405180910390f35b34801561062657600080fd5b50610641600480360381019061063c9190613411565b611b86565b60405161064e91906133b9565b60405180910390f35b610671600480360381019061066c9190613411565b611c2d565b005b34801561067f57600080fd5b5061069a60048036038101906106959190613bc9565b611f37565b005b3480156106a857600080fd5b506106b161216d565b6040516106be9190613515565b60405180910390f35b3480156106d357600080fd5b506106dc6121f3565b005b3480156106ea57600080fd5b506106f3612369565b6040516107009190613515565b60405180910390f35b34801561071557600080fd5b50610730600480360381019061072b9190613c1c565b61236f565b60405161073d9190613305565b60405180910390f35b34801561075257600080fd5b5061076d60048036038101906107689190613979565b612403565b005b60007f80ac58cd000000000000000000000000000000000000000000000000000000007bffffffffffffffffffffffffffffffffffffffffffffffffffffffff1916827bffffffffffffffffffffffffffffffffffffffffffffffffffffffff1916148061083a57507f5b5e139f000000000000000000000000000000000000000000000000000000007bffffffffffffffffffffffffffffffffffffffffffffffffffffffff1916827bffffffffffffffffffffffffffffffffffffffffffffffffffffffff1916145b8061084a5750610849826124fa565b5b9050919050565b60606000805461086090613c8b565b80601f016020809104026020016040519081016040528092919081815260200182805461088c90613c8b565b80156108d95780601f106108ae576101008083540402835291602001916108d9565b820191906000526020600020905b8154815290600101906020018083116108bc57829003601f168201915b5050505050905090565b600260075403610928576040517f08c379a000000000000000000000000000000000000000000000000000000000815260040161091f90613d08565b60405180910390fd5b60026007819055506000602060008381526020019081526020016000209050600081600301541161095857600080fd5b8060040160009054906101000a900460ff1661097357600080fd5b8060000160009054906101000a900473ffffffffffffffffffffffffffffffffffffffff1673ffffffffffffffffffffffffffffffffffffffff163373ffffffffffffffffffffffffffffffffffffffff16146109cf57600080fd5b601f60003373ffffffffffffffffffffffffffffffffffffffff1673ffffffffffffffffffffffffffffffffffffffff1681526020019081526020016000206000815480929190610a1f90613d57565b919050555060008160040160006101000a81548160ff0219169083151502179055503073ffffffffffffffffffffffffffffffffffffffff166342842e0e308360000160009054906101000a900473ffffffffffffffffffffffffffffffffffffffff16856040518463ffffffff1660e01b8152600401610aa293929190613ddf565b600060405180830381600087803b158015610abc57600080fd5b505af1158015610ad0573d6000803e3d6000fd5b5050505060206000838152602001908152602001600020600080820160006101000a81549073ffffffffffffffffffffffffffffffffffffffff02191690556001820160009055600282016000905560038201600090556004820160006101000a81549060ff02191690555050813373ffffffffffffffffffffffffffffffffffffffff167faafa025e65bdcff1ef0464eae38e306c5dedaa9ba5ee3f47de3b91d1bf1460e442604051610b849190613515565b60405180910390a350600160078190555050565b6000610ba382612564565b610be2576040517f08c379a0000000000000000000000000000000000000000000000000000000008152600401610bd990613e88565b60405180910390fd5b6004600083815260200190815260200160002060009054906101000a900473ffffffffffffffffffffffffffffffffffffffff169050919050565b6000610c288261155c565b90508073ffffffffffffffffffffffffffffffffffffffff168373ffffffffffffffffffffffffffffffffffffffff1603610c98576040517f08c379a0000000000000000000000000000000000000000000000000000000008152600401610c8f90613f1a565b60405180910390fd5b8073ffffffffffffffffffffffffffffffffffffffff16610cb76125d0565b73ffffffffffffffffffffffffffffffffffffffff161480610ce65750610ce581610ce06125d0565b61236f565b5b610d25576040517f08c379a0000000000000000000000000000000000000000000000000000000008152600401610d1c90613fac565b60405180910390fd5b610d2f83836125d8565b505050565b6000610d3e6125d0565b73ffffffffffffffffffffffffffffffffffffffff16610d5c6119fd565b73ffffffffffffffffffffffffffffffffffffffff1614610db2576040517f08c379a0000000000000000000000000000000000000000000000000000000008152600401610da990614018565b60405180910390fd5b47905090565b600063150b7a0260e01b9050949350505050565b7f000000000000000000000000000000000000000000000000000000000000000073ffffffffffffffffffffffffffffffffffffffff163373ffffffffffffffffffffffffffffffffffffffff1614610e7e57337f00000000000000000000000000000000000000000000000000000000000000006040517f1cf993f4000000000000000000000000000000000000000000000000000000008152600401610e75929190614038565b60405180910390fd5b610e888282612691565b5050565b610e9d610e976125d0565b826126b7565b610edc576040517f08c379a0000000000000000000000000000000000000000000000000000000008152600401610ed3906140d3565b60405180910390fd5b610ee7838383612795565b505050565b610ef4613206565b60005b60648160ff161015610f47578060ff16828260ff1660648110610f1d57610f1c6140f3565b5b602002019063ffffffff16908163ffffffff16815250508080610f3f9061412f565b915050610ef7565b60008091505b60648260ff16101561108557816064610f669190614158565b60ff16600c54600f54604051602001610f8092919061418c565b6040516020818303038152906040528051906020012060001c610fa391906141e4565b9050600f6000815480929190610fb890614215565b9190505550828160648110610fd057610fcf6140f3565b5b602002015160108360ff1660648110610fec57610feb6140f3565b5b600891828204019190066004026101000a81548163ffffffff021916908363ffffffff1602179055508260018360646110259190614158565b61102f9190614158565b60ff1660648110611043576110426140f3565b5b602002015183826064811061105b5761105a6140f3565b5b602002019063ffffffff16908163ffffffff1681525050818061107d9061412f565b925050610f4d565b505050565b6060600080606467ffffffffffffffff8111156110aa576110a961353a565b5b6040519080825280602002602001820160405280156110d85781602001602082028036833780820191505090505b509050600091505b606482101561115957601082606481106110fd576110fc6140f3565b5b600891828204019190066004029054906101000a900463ffffffff1681838151811061112c5761112b6140f3565b5b602002602001019063ffffffff16908163ffffffff1681525050818061115190614215565b9250506110e0565b809250505090565b60606000601f60008473ffffffffffffffffffffffffffffffffffffffff1673ffffffffffffffffffffffffffffffffffffffff16815260200190815260200160002054036111fb57600067ffffffffffffffff8111156111c5576111c461353a565b5b6040519080825280602002602001820160405280156111f35781602001602082028036833780820191505090505b5090506113cd565b6000601f60008473ffffffffffffffffffffffffffffffffffffffff1673ffffffffffffffffffffffffffffffffffffffff1681526020019081526020016000205467ffffffffffffffff8111156112565761125561353a565b5b6040519080825280602002602001820160405280156112845781602001602082028036833780820191505090505b5090506000601d5490506000805b828110156113c5576000602060008381526020019081526020016000206040518060a00160405290816000820160009054906101000a900473ffffffffffffffffffffffffffffffffffffffff1673ffffffffffffffffffffffffffffffffffffffff1673ffffffffffffffffffffffffffffffffffffffff1681526020016001820154815260200160028201548152602001600382015481526020016004820160009054906101000a900460ff16151515158152505090508673ffffffffffffffffffffffffffffffffffffffff16816000015173ffffffffffffffffffffffffffffffffffffffff16036113b15781858481518110611396576113956140f3565b5b60200260200101818152505082806113ad90614215565b9350505b5080806113bd90614215565b915050611292565b839450505050505b919050565b6113ed83838360405180602001604052806000815250611acf565b505050565b6113fa6125d0565b73ffffffffffffffffffffffffffffffffffffffff166114186119fd565b73ffffffffffffffffffffffffffffffffffffffff161461146e576040517f08c379a000000000000000000000000000000000000000000000000000000000815260040161146590614018565b60405180910390fd5b6114766119fd565b73ffffffffffffffffffffffffffffffffffffffff163373ffffffffffffffffffffffffffffffffffffffff16146114e3576040517f08c379a00000000000000000000000000000000000000000000000000000000081526004016114da90614283565b60405180910390fd5b6000806114ee6119fd565b73ffffffffffffffffffffffffffffffffffffffff1647604051611511906142d1565b60006040518083038185875af1925050503d806000811461154e576040519150601f19603f3d011682016040523d82523d6000602084013e611553565b606091505b50915091505050565b6000806002600084815260200190815260200160002060009054906101000a900473ffffffffffffffffffffffffffffffffffffffff169050600073ffffffffffffffffffffffffffffffffffffffff168173ffffffffffffffffffffffffffffffffffffffff1603611604576040517f08c379a00000000000000000000000000000000000000000000000000000000081526004016115fb90614358565b60405180910390fd5b80915050919050565b662386f26fc10000341015611657576040517f08c379a000000000000000000000000000000000000000000000000000000000815260040161164e906143ea565b60405180910390fd5b60405180608001604052806010601d5460648110611678576116776140f3565b5b600891828204019190066004029054906101000a900463ffffffff1663ffffffff16815260200184815260200183815260200182815250601e6000601d548152602001908152602001600020600082015181600001556020820151816001015560408201518160020155606082015181600301559050506116fb33601d546129fb565b601d543373ffffffffffffffffffffffffffffffffffffffff167f4c209b5fc8ad50758f13e2e1088ba56a560dff690a1c6fef26394f4c03821c4f426040516117449190613515565b60405180910390a3601d600081548092919061175f90614215565b919050555050505050565b60008073ffffffffffffffffffffffffffffffffffffffff168273ffffffffffffffffffffffffffffffffffffffff16036117da576040517f08c379a00000000000000000000000000000000000000000000000000000000081526004016117d19061447c565b60405180910390fd5b600360008373ffffffffffffffffffffffffffffffffffffffff1673ffffffffffffffffffffffffffffffffffffffff168152602001908152602001600020549050919050565b6118296125d0565b73ffffffffffffffffffffffffffffffffffffffff166118476119fd565b73ffffffffffffffffffffffffffffffffffffffff161461189d576040517f08c379a000000000000000000000000000000000000000000000000000000000815260040161189490614018565b60405180910390fd5b6118a76000612a19565b565b606060006118b68361176a565b90506000810361191257600067ffffffffffffffff8111156118db576118da61353a565b5b6040519080825280602002602001820160405280156119095781602001602082028036833780820191505090505b509150506119f8565b60008167ffffffffffffffff81111561192e5761192d61353a565b5b60405190808252806020026020018201604052801561195c5781602001602082028036833780820191505090505b5090506000601d5490506000805b828110156119ef578673ffffffffffffffffffffffffffffffffffffffff166119928261155c565b73ffffffffffffffffffffffffffffffffffffffff16036119dc57808483815181106119c1576119c06140f3565b5b60200260200101818152505081806119d890614215565b9250505b80806119e790614215565b91505061196a565b83955050505050505b919050565b6000600660009054906101000a900473ffffffffffffffffffffffffffffffffffffffff16905090565b606060018054611a3690613c8b565b80601f0160208091040260200160405190810160405280929190818152602001828054611a6290613c8b565b8015611aaf5780601f10611a8457610100808354040283529160200191611aaf565b820191906000526020600020905b815481529060010190602001808311611a9257829003601f168201915b5050505050905090565b611acb611ac46125d0565b8383612adf565b5050565b611ae0611ada6125d0565b836126b7565b611b1f576040517f08c379a0000000000000000000000000000000000000000000000000000000008152600401611b16906140d3565b60405180910390fd5b611b2b84848484612c4b565b50505050565b611b39613229565b601e60008381526020019081526020016000206040518060800160405290816000820154815260200160018201548152602001600282015481526020016003820154815250509050919050565b6060611b9182612564565b611bd0576040517f08c379a0000000000000000000000000000000000000000000000000000000008152600401611bc79061450e565b60405180910390fd5b6000611bda612ca7565b90506000815111611bfa5760405180602001604052806000815250611c25565b80611c0484612cbe565b604051602001611c1592919061456a565b6040516020818303038152906040525b915050919050565b600260075403611c72576040517f08c379a0000000000000000000000000000000000000000000000000000000008152600401611c6990613d08565b60405180910390fd5b6002600781905550600060206000838152602001908152602001600020905060008160000160009054906101000a900473ffffffffffffffffffffffffffffffffffffffff1690506000826003015411611ccb57600080fd5b8160040160009054906101000a900460ff16611ce657600080fd5b34826001015460058460010154611cfd919061458e565b611d0791906145bf565b14611d1157600080fd5b60008260010154905060206000858152602001908152602001600020600080820160006101000a81549073ffffffffffffffffffffffffffffffffffffffff02191690556001820160009055600282016000905560038201600090556004820160006101000a81549060ff021916905550506000811115611dfd576000808373ffffffffffffffffffffffffffffffffffffffff1683604051611db3906142d1565b60006040518083038185875af1925050503d8060008114611df0576040519150601f19603f3d011682016040523d82523d6000602084013e611df5565b606091505b509150915050505b3073ffffffffffffffffffffffffffffffffffffffff166342842e0e3033876040518463ffffffff1660e01b8152600401611e3a93929190614615565b600060405180830381600087803b158015611e5457600080fd5b505af1158015611e68573d6000803e3d6000fd5b50505050601f60008373ffffffffffffffffffffffffffffffffffffffff1673ffffffffffffffffffffffffffffffffffffffff1681526020019081526020016000206000815480929190611ebc90613d57565b91905055508173ffffffffffffffffffffffffffffffffffffffff16843373ffffffffffffffffffffffffffffffffffffffff167f478956c967ca99f4651fef2663546a452561b806dd5b5818ad086a2f478511868442604051611f2192919061418c565b60405180910390a4505050600160078190555050565b600260075403611f7c576040517f08c379a0000000000000000000000000000000000000000000000000000000008152600401611f7390613d08565b60405180910390fd5b60026007819055503373ffffffffffffffffffffffffffffffffffffffff16611fa48461155c565b73ffffffffffffffffffffffffffffffffffffffff1614611fc457600080fd5b603c811015611fd257600080fd5b6040518060a001604052803373ffffffffffffffffffffffffffffffffffffffff168152602001838152602001828152602001428152602001600115158152506020600085815260200190815260200160002060008201518160000160006101000a81548173ffffffffffffffffffffffffffffffffffffffff021916908373ffffffffffffffffffffffffffffffffffffffff16021790555060208201518160010155604082015181600201556060820151816003015560808201518160040160006101000a81548160ff0219169083151502179055509050506120b83330856113d2565b601f60003373ffffffffffffffffffffffffffffffffffffffff1673ffffffffffffffffffffffffffffffffffffffff168152602001908152602001600020600081548092919061210890614215565b9190505550823373ffffffffffffffffffffffffffffffffffffffff167f1bd18fbc31b1648a85db1b4d7adc8ab1d87907cf79c519431985f3b8990b64cc8484426040516121589392919061464c565b60405180910390a36001600781905550505050565b60006121776125d0565b73ffffffffffffffffffffffffffffffffffffffff166121956119fd565b73ffffffffffffffffffffffffffffffffffffffff16146121eb576040517f08c379a00000000000000000000000000000000000000000000000000000000081526004016121e290614018565b60405180910390fd5b600c54905090565b6121fb6125d0565b73ffffffffffffffffffffffffffffffffffffffff166122196119fd565b73ffffffffffffffffffffffffffffffffffffffff161461226f576040517f08c379a000000000000000000000000000000000000000000000000000000000815260040161226690614018565b60405180910390fd5b600860009054906101000a900473ffffffffffffffffffffffffffffffffffffffff1673ffffffffffffffffffffffffffffffffffffffff16635d3b1d30600a54600860149054906101000a900467ffffffffffffffff16600b60049054906101000a900461ffff16600b60009054906101000a900463ffffffff16600b60069054906101000a900463ffffffff166040518663ffffffff1660e01b815260040161231e9594939291906146eb565b6020604051808303816000875af115801561233d573d6000803e3d6000fd5b505050506040513d601f19601f820116820180604052508101906123619190614753565b600d81905550565b600d5481565b6000600560008473ffffffffffffffffffffffffffffffffffffffff1673ffffffffffffffffffffffffffffffffffffffff16815260200190815260200160002060008373ffffffffffffffffffffffffffffffffffffffff1673ffffffffffffffffffffffffffffffffffffffff16815260200190815260200160002060009054906101000a900460ff16905092915050565b61240b6125d0565b73ffffffffffffffffffffffffffffffffffffffff166124296119fd565b73ffffffffffffffffffffffffffffffffffffffff161461247f576040517f08c379a000000000000000000000000000000000000000000000000000000000815260040161247690614018565b60405180910390fd5b600073ffffffffffffffffffffffffffffffffffffffff168173ffffffffffffffffffffffffffffffffffffffff16036124ee576040517f08c379a00000000000000000000000000000000000000000000000000000000081526004016124e5906147f2565b60405180910390fd5b6124f781612a19565b50565b60007f01ffc9a7000000000000000000000000000000000000000000000000000000007bffffffffffffffffffffffffffffffffffffffffffffffffffffffff1916827bffffffffffffffffffffffffffffffffffffffffffffffffffffffff1916149050919050565b60008073ffffffffffffffffffffffffffffffffffffffff166002600084815260200190815260200160002060009054906101000a900473ffffffffffffffffffffffffffffffffffffffff1673ffffffffffffffffffffffffffffffffffffffff1614159050919050565b600033905090565b816004600083815260200190815260200160002060006101000a81548173ffffffffffffffffffffffffffffffffffffffff021916908373ffffffffffffffffffffffffffffffffffffffff160217905550808273ffffffffffffffffffffffffffffffffffffffff1661264b8361155c565b73ffffffffffffffffffffffffffffffffffffffff167f8c5be1e5ebec7d5bd14f71427d1e84f3dd0314c0f7b2291e5b200ac8c7c3b92560405160405180910390a45050565b806000815181106126a5576126a46140f3565b5b6020026020010151600c819055505050565b60006126c282612564565b612701576040517f08c379a00000000000000000000000000000000000000000000000000000000081526004016126f890614884565b60405180910390fd5b600061270c8361155c565b90508073ffffffffffffffffffffffffffffffffffffffff168473ffffffffffffffffffffffffffffffffffffffff16148061277b57508373ffffffffffffffffffffffffffffffffffffffff1661276384610b98565b73ffffffffffffffffffffffffffffffffffffffff16145b8061278c575061278b818561236f565b5b91505092915050565b8273ffffffffffffffffffffffffffffffffffffffff166127b58261155c565b73ffffffffffffffffffffffffffffffffffffffff161461280b576040517f08c379a000000000000000000000000000000000000000000000000000000000815260040161280290614916565b60405180910390fd5b600073ffffffffffffffffffffffffffffffffffffffff168273ffffffffffffffffffffffffffffffffffffffff160361287a576040517f08c379a0000000000000000000000000000000000000000000000000000000008152600401612871906149a8565b60405180910390fd5b612885838383612e1e565b6128906000826125d8565b6001600360008573ffffffffffffffffffffffffffffffffffffffff1673ffffffffffffffffffffffffffffffffffffffff16815260200190815260200160002060008282546128e091906149c8565b925050819055506001600360008473ffffffffffffffffffffffffffffffffffffffff1673ffffffffffffffffffffffffffffffffffffffff168152602001908152602001600020600082825461293791906145bf565b92505081905550816002600083815260200190815260200160002060006101000a81548173ffffffffffffffffffffffffffffffffffffffff021916908373ffffffffffffffffffffffffffffffffffffffff160217905550808273ffffffffffffffffffffffffffffffffffffffff168473ffffffffffffffffffffffffffffffffffffffff167fddf252ad1be2c89b69c2b068fc378daa952ba7f163c4a11628f55a4df523b3ef60405160405180910390a46129f6838383612e23565b505050565b612a15828260405180602001604052806000815250612e28565b5050565b6000600660009054906101000a900473ffffffffffffffffffffffffffffffffffffffff16905081600660006101000a81548173ffffffffffffffffffffffffffffffffffffffff021916908373ffffffffffffffffffffffffffffffffffffffff1602179055508173ffffffffffffffffffffffffffffffffffffffff168173ffffffffffffffffffffffffffffffffffffffff167f8be0079c531659141344cd1fd0a4f28419497f9722a3daafe3b4186f6b6457e060405160405180910390a35050565b8173ffffffffffffffffffffffffffffffffffffffff168373ffffffffffffffffffffffffffffffffffffffff1603612b4d576040517f08c379a0000000000000000000000000000000000000000000000000000000008152600401612b4490614a48565b60405180910390fd5b80600560008573ffffffffffffffffffffffffffffffffffffffff1673ffffffffffffffffffffffffffffffffffffffff16815260200190815260200160002060008473ffffffffffffffffffffffffffffffffffffffff1673ffffffffffffffffffffffffffffffffffffffff16815260200190815260200160002060006101000a81548160ff0219169083151502179055508173ffffffffffffffffffffffffffffffffffffffff168373ffffffffffffffffffffffffffffffffffffffff167f17307eab39ab6107e8899845ad3d59bd9653f200f220920489ca2b5937696c3183604051612c3e9190613305565b60405180910390a3505050565b612c56848484612795565b612c6284848484612e83565b612ca1576040517f08c379a0000000000000000000000000000000000000000000000000000000008152600401612c9890614ada565b60405180910390fd5b50505050565b606060405180602001604052806000815250905090565b606060008203612d05576040518060400160405280600181526020017f30000000000000000000000000000000000000000000000000000000000000008152509050612e19565b600082905060005b60008214612d37578080612d2090614215565b915050600a82612d30919061458e565b9150612d0d565b60008167ffffffffffffffff811115612d5357612d5261353a565b5b6040519080825280601f01601f191660200182016040528015612d855781602001600182028036833780820191505090505b5090505b60008514612e1257600182612d9e91906149c8565b9150600a85612dad91906141e4565b6030612db991906145bf565b60f81b818381518110612dcf57612dce6140f3565b5b60200101907effffffffffffffffffffffffffffffffffffffffffffffffffffffffffffff1916908160001a905350600a85612e0b919061458e565b9450612d89565b8093505050505b919050565b505050565b505050565b612e32838361300a565b612e3f6000848484612e83565b612e7e576040517f08c379a0000000000000000000000000000000000000000000000000000000008152600401612e7590614ada565b60405180910390fd5b505050565b6000612ea48473ffffffffffffffffffffffffffffffffffffffff166131e3565b15612ffd578373ffffffffffffffffffffffffffffffffffffffff1663150b7a02612ecd6125d0565b8786866040518563ffffffff1660e01b8152600401612eef9493929190614b4f565b6020604051808303816000875af1925050508015612f2b57506040513d601f19601f82011682018060405250810190612f289190614bb0565b60015b612fad573d8060008114612f5b576040519150601f19603f3d011682016040523d82523d6000602084013e612f60565b606091505b506000815103612fa5576040517f08c379a0000000000000000000000000000000000000000000000000000000008152600401612f9c90614ada565b60405180910390fd5b805181602001fd5b63150b7a0260e01b7bffffffffffffffffffffffffffffffffffffffffffffffffffffffff1916817bffffffffffffffffffffffffffffffffffffffffffffffffffffffff191614915050613002565b600190505b949350505050565b600073ffffffffffffffffffffffffffffffffffffffff168273ffffffffffffffffffffffffffffffffffffffff1603613079576040517f08c379a000000000000000000000000000000000000000000000000000000000815260040161307090614c29565b60405180910390fd5b61308281612564565b156130c2576040517f08c379a00000000000000000000000000000000000000000000000000000000081526004016130b990614c95565b60405180910390fd5b6130ce60008383612e1e565b6001600360008473ffffffffffffffffffffffffffffffffffffffff1673ffffffffffffffffffffffffffffffffffffffff168152602001908152602001600020600082825461311e91906145bf565b92505081905550816002600083815260200190815260200160002060006101000a81548173ffffffffffffffffffffffffffffffffffffffff021916908373ffffffffffffffffffffffffffffffffffffffff160217905550808273ffffffffffffffffffffffffffffffffffffffff16600073ffffffffffffffffffffffffffffffffffffffff167fddf252ad1be2c89b69c2b068fc378daa952ba7f163c4a11628f55a4df523b3ef60405160405180910390a46131df60008383612e23565b5050565b6000808273ffffffffffffffffffffffffffffffffffffffff163b119050919050565b60405180610c800160405280606490602082028036833780820191505090505090565b6040518060800160405280600081526020016000815260200160008152602001600081525090565b6000604051905090565b600080fd5b600080fd5b60007fffffffff0000000000000000000000000000000000000000000000000000000082169050919050565b61329a81613265565b81146132a557600080fd5b50565b6000813590506132b781613291565b92915050565b6000602082840312156132d3576132d261325b565b5b60006132e1848285016132a8565b91505092915050565b60008115159050919050565b6132ff816132ea565b82525050565b600060208201905061331a60008301846132f6565b92915050565b600081519050919050565b600082825260208201905092915050565b60005b8381101561335a57808201518184015260208101905061333f565b83811115613369576000848401525b50505050565b6000601f19601f8301169050919050565b600061338b82613320565b613395818561332b565b93506133a581856020860161333c565b6133ae8161336f565b840191505092915050565b600060208201905081810360008301526133d38184613380565b905092915050565b6000819050919050565b6133ee816133db565b81146133f957600080fd5b50565b60008135905061340b816133e5565b92915050565b6000602082840312156134275761342661325b565b5b6000613435848285016133fc565b91505092915050565b600073ffffffffffffffffffffffffffffffffffffffff82169050919050565b60006134698261343e565b9050919050565b6134798161345e565b82525050565b60006020820190506134946000830184613470565b92915050565b6134a38161345e565b81146134ae57600080fd5b50565b6000813590506134c08161349a565b92915050565b600080604083850312156134dd576134dc61325b565b5b60006134eb858286016134b1565b92505060206134fc858286016133fc565b9150509250929050565b61350f816133db565b82525050565b600060208201905061352a6000830184613506565b92915050565b600080fd5b600080fd5b7f4e487b7100000000000000000000000000000000000000000000000000000000600052604160045260246000fd5b6135728261336f565b810181811067ffffffffffffffff821117156135915761359061353a565b5b80604052505050565b60006135a4613251565b90506135b08282613569565b919050565b600067ffffffffffffffff8211156135d0576135cf61353a565b5b6135d98261336f565b9050602081019050919050565b82818337600083830152505050565b6000613608613603846135b5565b61359a565b90508281526020810184848401111561362457613623613535565b5b61362f8482856135e6565b509392505050565b600082601f83011261364c5761364b613530565b5b813561365c8482602086016135f5565b91505092915050565b6000806000806080858703121561367f5761367e61325b565b5b600061368d878288016134b1565b945050602061369e878288016134b1565b93505060406136af878288016133fc565b925050606085013567ffffffffffffffff8111156136d0576136cf613260565b5b6136dc87828801613637565b91505092959194509250565b6136f181613265565b82525050565b600060208201905061370c60008301846136e8565b92915050565b600067ffffffffffffffff82111561372d5761372c61353a565b5b602082029050602081019050919050565b600080fd5b600061375661375184613712565b61359a565b905080838252602082019050602084028301858111156137795761377861373e565b5b835b818110156137a2578061378e88826133fc565b84526020840193505060208101905061377b565b5050509392505050565b600082601f8301126137c1576137c0613530565b5b81356137d1848260208601613743565b91505092915050565b600080604083850312156137f1576137f061325b565b5b60006137ff858286016133fc565b925050602083013567ffffffffffffffff8111156138205761381f613260565b5b61382c858286016137ac565b9150509250929050565b60008060006060848603121561384f5761384e61325b565b5b600061385d868287016134b1565b935050602061386e868287016134b1565b925050604061387f868287016133fc565b9150509250925092565b600081519050919050565b600082825260208201905092915050565b6000819050602082019050919050565b600063ffffffff82169050919050565b6138ce816138b5565b82525050565b60006138e083836138c5565b60208301905092915050565b6000602082019050919050565b600061390482613889565b61390e8185613894565b9350613919836138a5565b8060005b8381101561394a57815161393188826138d4565b975061393c836138ec565b92505060018101905061391d565b5085935050505092915050565b6000602082019050818103600083015261397181846138f9565b905092915050565b60006020828403121561398f5761398e61325b565b5b600061399d848285016134b1565b91505092915050565b600081519050919050565b600082825260208201905092915050565b6000819050602082019050919050565b6139db816133db565b82525050565b60006139ed83836139d2565b60208301905092915050565b6000602082019050919050565b6000613a11826139a6565b613a1b81856139b1565b9350613a26836139c2565b8060005b83811015613a57578151613a3e88826139e1565b9750613a49836139f9565b925050600181019050613a2a565b5085935050505092915050565b60006020820190508181036000830152613a7e8184613a06565b905092915050565b60008060008060808587031215613aa057613a9f61325b565b5b6000613aae878288016133fc565b9450506020613abf878288016133fc565b9350506040613ad0878288016133fc565b9250506060613ae1878288016133fc565b91505092959194509250565b613af6816132ea565b8114613b0157600080fd5b50565b600081359050613b1381613aed565b92915050565b60008060408385031215613b3057613b2f61325b565b5b6000613b3e858286016134b1565b9250506020613b4f85828601613b04565b9150509250929050565b608082016000820151613b6f60008501826139d2565b506020820151613b8260208501826139d2565b506040820151613b9560408501826139d2565b506060820151613ba860608501826139d2565b50505050565b6000608082019050613bc36000830184613b59565b92915050565b600080600060608486031215613be257613be161325b565b5b6000613bf0868287016133fc565b9350506020613c01868287016133fc565b9250506040613c12868287016133fc565b9150509250925092565b60008060408385031215613c3357613c3261325b565b5b6000613c41858286016134b1565b9250506020613c52858286016134b1565b9150509250929050565b7f4e487b7100000000000000000000000000000000000000000000000000000000600052602260045260246000fd5b60006002820490506001821680613ca357607f821691505b602082108103613cb657613cb5613c5c565b5b50919050565b7f5265656e7472616e637947756172643a207265656e7472616e742063616c6c00600082015250565b6000613cf2601f8361332b565b9150613cfd82613cbc565b602082019050919050565b60006020820190508181036000830152613d2181613ce5565b9050919050565b7f4e487b7100000000000000000000000000000000000000000000000000000000600052601160045260246000fd5b6000613d62826133db565b915060008203613d7557613d74613d28565b5b600182039050919050565b6000819050919050565b6000613da5613da0613d9b8461343e565b613d80565b61343e565b9050919050565b6000613db782613d8a565b9050919050565b6000613dc982613dac565b9050919050565b613dd981613dbe565b82525050565b6000606082019050613df46000830186613470565b613e016020830185613dd0565b613e0e6040830184613506565b949350505050565b7f4552433732313a20617070726f76656420717565727920666f72206e6f6e657860008201527f697374656e7420746f6b656e0000000000000000000000000000000000000000602082015250565b6000613e72602c8361332b565b9150613e7d82613e16565b604082019050919050565b60006020820190508181036000830152613ea181613e65565b9050919050565b7f4552433732313a20617070726f76616c20746f2063757272656e74206f776e6560008201527f7200000000000000000000000000000000000000000000000000000000000000602082015250565b6000613f0460218361332b565b9150613f0f82613ea8565b604082019050919050565b60006020820190508181036000830152613f3381613ef7565b9050919050565b7f4552433732313a20617070726f76652063616c6c6572206973206e6f74206f7760008201527f6e6572206e6f7220617070726f76656420666f7220616c6c0000000000000000602082015250565b6000613f9660388361332b565b9150613fa182613f3a565b604082019050919050565b60006020820190508181036000830152613fc581613f89565b9050919050565b7f4f776e61626c653a2063616c6c6572206973206e6f7420746865206f776e6572600082015250565b600061400260208361332b565b915061400d82613fcc565b602082019050919050565b6000602082019050818103600083015261403181613ff5565b9050919050565b600060408201905061404d6000830185613470565b61405a6020830184613470565b9392505050565b7f4552433732313a207472616e736665722063616c6c6572206973206e6f74206f60008201527f776e6572206e6f7220617070726f766564000000000000000000000000000000602082015250565b60006140bd60318361332b565b91506140c882614061565b604082019050919050565b600060208201905081810360008301526140ec816140b0565b9050919050565b7f4e487b7100000000000000000000000000000000000000000000000000000000600052603260045260246000fd5b600060ff82169050919050565b600061413a82614122565b915060ff820361414d5761414c613d28565b5b600182019050919050565b600061416382614122565b915061416e83614122565b92508282101561418157614180613d28565b5b828203905092915050565b60006040820190506141a16000830185613506565b6141ae6020830184613506565b9392505050565b7f4e487b7100000000000000000000000000000000000000000000000000000000600052601260045260246000fd5b60006141ef826133db565b91506141fa836133db565b92508261420a576142096141b5565b5b828206905092915050565b6000614220826133db565b91507fffffffffffffffffffffffffffffffffffffffffffffffffffffffffffffffff820361425257614251613d28565b5b600182019050919050565b50565b600061426d60008361332b565b91506142788261425d565b600082019050919050565b6000602082019050818103600083015261429c81614260565b9050919050565b600081905092915050565b60006142bb6000836142a3565b91506142c68261425d565b600082019050919050565b60006142dc826142ae565b9150819050919050565b7f4552433732313a206f776e657220717565727920666f72206e6f6e657869737460008201527f656e7420746f6b656e0000000000000000000000000000000000000000000000602082015250565b600061434260298361332b565b915061434d826142e6565b604082019050919050565b6000602082019050818103600083015261437181614335565b9050919050565b7f4e6f7420656e6f756768204554482073656e743b20636865636b20707269636560008201527f2100000000000000000000000000000000000000000000000000000000000000602082015250565b60006143d460218361332b565b91506143df82614378565b604082019050919050565b60006020820190508181036000830152614403816143c7565b9050919050565b7f4552433732313a2062616c616e636520717565727920666f7220746865207a6560008201527f726f206164647265737300000000000000000000000000000000000000000000602082015250565b6000614466602a8361332b565b91506144718261440a565b604082019050919050565b6000602082019050818103600083015261449581614459565b9050919050565b7f4552433732314d657461646174613a2055524920717565727920666f72206e6f60008201527f6e6578697374656e7420746f6b656e0000000000000000000000000000000000602082015250565b60006144f8602f8361332b565b91506145038261449c565b604082019050919050565b60006020820190508181036000830152614527816144eb565b9050919050565b600081905092915050565b600061454482613320565b61454e818561452e565b935061455e81856020860161333c565b80840191505092915050565b60006145768285614539565b91506145828284614539565b91508190509392505050565b6000614599826133db565b91506145a4836133db565b9250826145b4576145b36141b5565b5b828204905092915050565b60006145ca826133db565b91506145d5836133db565b9250827fffffffffffffffffffffffffffffffffffffffffffffffffffffffffffffffff0382111561460a57614609613d28565b5b828201905092915050565b600060608201905061462a6000830186613470565b6146376020830185613470565b6146446040830184613506565b949350505050565b60006060820190506146616000830186613506565b61466e6020830185613506565b61467b6040830184613506565b949350505050565b6000819050919050565b61469681614683565b82525050565b600067ffffffffffffffff82169050919050565b6146b98161469c565b82525050565b600061ffff82169050919050565b6146d6816146bf565b82525050565b6146e5816138b5565b82525050565b600060a082019050614700600083018861468d565b61470d60208301876146b0565b61471a60408301866146cd565b61472760608301856146dc565b61473460808301846146dc565b9695505050505050565b60008151905061474d816133e5565b92915050565b6000602082840312156147695761476861325b565b5b60006147778482850161473e565b91505092915050565b7f4f776e61626c653a206e6577206f776e657220697320746865207a65726f206160008201527f6464726573730000000000000000000000000000000000000000000000000000602082015250565b60006147dc60268361332b565b91506147e782614780565b604082019050919050565b6000602082019050818103600083015261480b816147cf565b9050919050565b7f4552433732313a206f70657261746f7220717565727920666f72206e6f6e657860008201527f697374656e7420746f6b656e0000000000000000000000000000000000000000602082015250565b600061486e602c8361332b565b915061487982614812565b604082019050919050565b6000602082019050818103600083015261489d81614861565b9050919050565b7f4552433732313a207472616e736665722066726f6d20696e636f72726563742060008201527f6f776e6572000000000000000000000000000000000000000000000000000000602082015250565b600061490060258361332b565b915061490b826148a4565b604082019050919050565b6000602082019050818103600083015261492f816148f3565b9050919050565b7f4552433732313a207472616e7366657220746f20746865207a65726f2061646460008201527f7265737300000000000000000000000000000000000000000000000000000000602082015250565b600061499260248361332b565b915061499d82614936565b604082019050919050565b600060208201905081810360008301526149c181614985565b9050919050565b60006149d3826133db565b91506149de836133db565b9250828210156149f1576149f0613d28565b5b828203905092915050565b7f4552433732313a20617070726f766520746f2063616c6c657200000000000000600082015250565b6000614a3260198361332b565b9150614a3d826149fc565b602082019050919050565b60006020820190508181036000830152614a6181614a25565b9050919050565b7f4552433732313a207472616e7366657220746f206e6f6e20455243373231526560008201527f63656976657220696d706c656d656e7465720000000000000000000000000000602082015250565b6000614ac460328361332b565b9150614acf82614a68565b604082019050919050565b60006020820190508181036000830152614af381614ab7565b9050919050565b600081519050919050565b600082825260208201905092915050565b6000614b2182614afa565b614b2b8185614b05565b9350614b3b81856020860161333c565b614b448161336f565b840191505092915050565b6000608082019050614b646000830187613470565b614b716020830186613470565b614b7e6040830185613506565b8181036060830152614b908184614b16565b905095945050505050565b600081519050614baa81613291565b92915050565b600060208284031215614bc657614bc561325b565b5b6000614bd484828501614b9b565b91505092915050565b7f4552433732313a206d696e7420746f20746865207a65726f2061646472657373600082015250565b6000614c1360208361332b565b9150614c1e82614bdd565b602082019050919050565b60006020820190508181036000830152614c4281614c06565b9050919050565b7f4552433732313a20746f6b656e20616c7265616479206d696e74656400000000600082015250565b6000614c7f601c8361332b565b9150614c8a82614c49565b602082019050919050565b60006020820190508181036000830152614cae81614c72565b905091905056fea2646970667358221220ffbc791e10edadb5149461e39c78681ac5a6715eab0ae524472593bd1e7fce1164736f6c634300080d0033",
  "immutableReferences": {
    "10": [
      {
        "length": 32,
        "start": 3534
      },
      {
        "length": 32,
        "start": 3618
      }
    ]
  },
  "source": "pragma solidity 0.8.13;\r\n\r\nimport \"../node_modules/@openzeppelin/contracts/token/ERC721/ERC721.sol\";\r\nimport \"../node_modules/@openzeppelin/contracts/access/Ownable.sol\";\r\nimport \"../node_modules/@openzeppelin/contracts/security/ReentrancyGuard.sol\";\r\nimport \"../node_modules/@openzeppelin/contracts/token/ERC721/extensions/ERC721URIStorage.sol\";\r\nimport \"@chainlink/contracts/src/v0.8/interfaces/VRFCoordinatorV2Interface.sol\";\r\nimport \"@chainlink/contracts/src/v0.8/VRFConsumerBaseV2.sol\";\r\n\r\ncontract Token is ERC721, Ownable, IERC721Receiver, ReentrancyGuard, VRFConsumerBaseV2 {\r\n\r\n    VRFCoordinatorV2Interface COORDINATOR;\r\n\r\n    // Your subscription ID.\r\n    uint64 s_subscriptionId;\r\n\r\n    // Rinkeby coordinator. For other networks,\r\n    // see https://docs.chain.link/docs/vrf-contracts/#configurations\r\n    address vrfCoordinator = 0x6168499c0cFfCaCD319c818142124B7A15E857ab;\r\n\r\n    // The gas lane to use, which specifies the maximum gas price to bump to.\r\n    // For a list of available gas lanes on each network,\r\n    // see https://docs.chain.link/docs/vrf-contracts/#configurations\r\n    bytes32 keyHash = 0xd89b2bf150e3b9e13446986e571fb9cab24b13cea0a43ea20a6049a85cc807cc;\r\n\r\n    // Depends on the number of requested values that you want sent to the\r\n    // fulfillRandomWords() function. Storing each word costs about 20,000 gas,\r\n    // so 100,000 is a safe default for this example contract. Test and adjust\r\n    // this limit based on the network that you select, the size of the request,\r\n    // and the processing of the callback request in the fulfillRandomWords()\r\n    // function.\r\n    uint32 callbackGasLimit = 100000;\r\n\r\n    // The default is 3, but you can set this higher.\r\n    uint16 requestConfirmations = 3;\r\n\r\n    // For this example, retrieve 2 random values in one request.\r\n    // Cannot exceed VRFCoordinatorV2.MAX_NUM_WORDS.\r\n    uint32 numWords =  1;\r\n\r\n    uint256 private baseSeed;\r\n    uint256 public s_requestId;\r\n    address s_owner;\r\n\r\n    // Assumes the subscription is funded sufficiently.\r\n    function requestRandomWords() external onlyOwner {\r\n        // Will revert if subscription is not set and funded.\r\n        s_requestId = COORDINATOR.requestRandomWords(keyHash,s_subscriptionId,requestConfirmations,callbackGasLimit,numWords);\r\n    }\r\n    \r\n    function fulfillRandomWords(uint256, uint256[] memory randomWords) internal override {\r\n        baseSeed = randomWords[0];\r\n    }\r\n\r\n    constructor (string memory name, string memory symbol, uint64 subscriptionId) ERC721(name, symbol) VRFConsumerBaseV2(vrfCoordinator) {\r\n        COORDINATOR = VRFCoordinatorV2Interface(vrfCoordinator);\r\n        s_owner = msg.sender;\r\n        s_subscriptionId = subscriptionId;\r\n    }\r\n\r\n    function getRandomNumber() external view onlyOwner returns (uint256){\r\n        return baseSeed;\r\n    }\r\n\r\n    uint256 increment = 1;\r\n    uint32[100] order;\r\n\r\n\r\n    function shuffle() external{\r\n        uint32[100] memory unshuffled;\r\n        uint8 i;\r\n        for (i=0; i < 100; i++) {\r\n            unshuffled[i] = i;\r\n        }\r\n        uint idx;\r\n        for (i=0; i < 100; i++) {\r\n            idx = uint256(keccak256(abi.encode(baseSeed, increment))) % (100 - i);\r\n            increment++;\r\n            order[i] = unshuffled[idx];\r\n            unshuffled[idx] = unshuffled[100 - i - 1];\r\n        }\r\n    }\r\n\r\n    function getShuffle() external view returns (uint32[] memory){\r\n        uint i;\r\n        uint32[] memory result = new uint32[](100);\r\n        for(i=0; i < 100; i++) {\r\n            result[i] = order[i];\r\n        }\r\n        return result;\r\n    }\r\n\r\n\r\n    /////////////////////////////////Random number//////////////////////////////\r\n\r\n\r\n    event Mint(address indexed owner, uint256 indexed tokenId, uint256 timestamp);\r\n    event ListAnItem(address indexed owner, uint256 indexed tokenId, uint256 price, uint256 duration, uint256 timestamp);\r\n    event CancelAnListedItem(address indexed owner, uint256 indexed tokenId, uint256 timestamp);\r\n    event PurchaseAnItem(address indexed buyer, uint256 indexed tokenId, address indexed seller, uint256 price, uint256 timestamp);\r\n    /////////////////////////////////////////////Token Contract///////////////////////////////////////////////////\r\n\r\n    struct AIA {\r\n        uint256 attribute1; \r\n        uint256 attribute2;\r\n        uint256 attribute3;\r\n        uint256 attribute4;\r\n    }\r\n\r\n    uint256 private nextId = 0;\r\n    \r\n    mapping (uint256 => AIA) private _tokenDetails;\r\n\r\n\r\n\r\n    function mint(uint256 attribute1, uint256 attribute2, uint256 attribute3, uint256 attribute4) external payable {\r\n        require(msg.value >= 0.01 ether, \"Not enough ETH sent; check price!\");\r\n        _tokenDetails[nextId] = AIA(order[nextId], attribute2, attribute3, attribute4);\r\n        _safeMint(msg.sender, nextId);\r\n        emit Mint(msg.sender, nextId, block.timestamp);\r\n        nextId++;\r\n    }\r\n\r\n    function getTokenDetails (uint256 tokenId) public view returns (AIA memory){\r\n        return _tokenDetails[tokenId];\r\n    }\r\n\r\n    function getBalance() public view onlyOwner returns (uint256){\r\n        return address(this).balance;\r\n    }\r\n\r\n    function withdrawBalance() external payable onlyOwner {\r\n        require(msg.sender == owner(), \"\");\r\n        (bool sent, bytes memory data) = payable(address(owner())).call{value:address(this).balance}(\"\");\r\n\r\n    }\r\n\r\n    function getAllTokensForUser(address user) public view returns (uint256[] memory){\r\n        uint256 tokenCount = balanceOf(user);\r\n        if(tokenCount ==0){\r\n            return new uint256[](0);\r\n        }\r\n        else{\r\n            uint256[] memory result = new uint256[](tokenCount);\r\n            uint256 totalAIAs = nextId;\r\n            uint256 resultIndex = 0;\r\n            uint256 i;\r\n            for(i=0; i < totalAIAs; i++)\r\n            {\r\n                if(ownerOf(i) == user)\r\n                {\r\n                    result[resultIndex] = i;\r\n                    resultIndex++;\r\n                }\r\n            }\r\n            return result;\r\n        }\r\n    }\r\n\r\n\r\n\r\n    /////////////////////////////////////////////Marketplace Contract//////////////////////////////////////////////\r\n\r\n    struct Item {\r\n        address payable seller;\r\n        uint256 price;\r\n        uint256 duration;\r\n        uint256 startedAt;\r\n        bool isSelling;\r\n    }\r\n\r\n    mapping (address => uint256) userToListedItems;\r\n    mapping (uint256 => Item) tokenIdToItem;\r\n\r\n    function sell(uint256 _tokenId, uint256 _price, uint256 _duration) external nonReentrant {\r\n        require(ownerOf(_tokenId) == msg.sender);\r\n        require(_duration >= 1 minutes);\r\n        tokenIdToItem[_tokenId] = Item(\r\n            payable(msg.sender),\r\n            _price,\r\n            _duration,\r\n            block.timestamp,\r\n            true\r\n        );\r\n        safeTransferFrom(msg.sender, address(this), _tokenId);\r\n        userToListedItems[msg.sender] ++;\r\n        emit ListAnItem(msg.sender, _tokenId, _price, _duration, block.timestamp);\r\n    }\r\n\r\n    function cancelSell(uint256 _tokenId) external nonReentrant {\r\n        Item storage item = tokenIdToItem[_tokenId];\r\n        require(item.startedAt > 0);\r\n        require(item.isSelling);\r\n        require(msg.sender == item.seller);\r\n        userToListedItems[msg.sender] --;\r\n        item.isSelling = false;\r\n        this.safeTransferFrom(address(this), item.seller, _tokenId);\r\n        delete tokenIdToItem[_tokenId];\r\n        emit CancelAnListedItem(msg.sender, _tokenId, block.timestamp);\r\n    }\r\n\r\n    function purchaseItem(uint256 _tokenId) external payable nonReentrant {\r\n        // Get a reference to the auction struct\r\n        Item storage item = tokenIdToItem[_tokenId];\r\n        address payable seller = item.seller;\r\n        require(item.startedAt > 0);\r\n        require(item.isSelling);\r\n        require(item.price / 5 + item.price == msg.value);\r\n        uint256 price = item.price;\r\n        delete tokenIdToItem[_tokenId];\r\n        // Transfer proceeds to seller (if there are any!)\r\n        if (price > 0) {\r\n            (bool sent, bytes memory data) = payable(seller).call{value:price}(\"\");\r\n        }\r\n        this.safeTransferFrom(address(this), msg.sender, _tokenId);\r\n        userToListedItems[seller]--;\r\n        emit PurchaseAnItem(msg.sender, _tokenId, seller, price, block.timestamp);\r\n    }\r\n\r\n    function getListedItemsForUser(address user) public view returns (uint256[] memory){\r\n        if(userToListedItems[user] ==0){\r\n            return new uint256[](0);\r\n        }\r\n        else{\r\n            uint256[] memory result = new uint256[](userToListedItems[user]);\r\n            uint256 totalAIAs = nextId;\r\n            uint256 resultIndex = 0;\r\n            uint256 i;\r\n            for(i=0; i < totalAIAs; i++)\r\n            {\r\n                Item memory item = tokenIdToItem[i];\r\n                if(item.seller == user)\r\n                {\r\n                    result[resultIndex] = i;\r\n                    resultIndex++;\r\n                }\r\n            }\r\n            return result;\r\n        }\r\n    }\r\n\r\n\r\n    /////////////////////////////////////////////Helper Functions///////////////////////////////////////////////////\r\n    function onERC721Received(address, address, uint256, bytes memory) public virtual override returns (bytes4) {\r\n        return this.onERC721Received.selector;\r\n    }\r\n}",
  "sourcePath": "C:\\Users\\Niven\\Documents\\AIA\\contracts\\Token.sol",
  "compiler": {
    "name": "solc",
    "version": "0.8.13+commit.abaa5c0e.Emscripten.clang"
  },
  "schemaVersion": "3.4.6",
  "updatedAt": "2022-04-07T23:14:29.875Z",
  "networkType": "ethereum",
  "devdoc": {
    "kind": "dev",
    "methods": {
      "approve(address,uint256)": {
        "details": "See {IERC721-approve}."
      },
      "balanceOf(address)": {
        "details": "See {IERC721-balanceOf}."
      },
      "getApproved(uint256)": {
        "details": "See {IERC721-getApproved}."
      },
      "isApprovedForAll(address,address)": {
        "details": "See {IERC721-isApprovedForAll}."
      },
      "name()": {
        "details": "See {IERC721Metadata-name}."
      },
      "owner()": {
        "details": "Returns the address of the current owner."
      },
      "ownerOf(uint256)": {
        "details": "See {IERC721-ownerOf}."
      },
      "renounceOwnership()": {
        "details": "Leaves the contract without owner. It will not be possible to call `onlyOwner` functions anymore. Can only be called by the current owner. NOTE: Renouncing ownership will leave the contract without an owner, thereby removing any functionality that is only available to the owner."
      },
      "safeTransferFrom(address,address,uint256)": {
        "details": "See {IERC721-safeTransferFrom}."
      },
      "safeTransferFrom(address,address,uint256,bytes)": {
        "details": "See {IERC721-safeTransferFrom}."
      },
      "setApprovalForAll(address,bool)": {
        "details": "See {IERC721-setApprovalForAll}."
      },
      "supportsInterface(bytes4)": {
        "details": "See {IERC165-supportsInterface}."
      },
      "symbol()": {
        "details": "See {IERC721Metadata-symbol}."
      },
      "tokenURI(uint256)": {
        "details": "See {IERC721Metadata-tokenURI}."
      },
      "transferFrom(address,address,uint256)": {
        "details": "See {IERC721-transferFrom}."
      },
      "transferOwnership(address)": {
        "details": "Transfers ownership of the contract to a new account (`newOwner`). Can only be called by the current owner."
      }
    },
    "version": 1
  },
  "userdoc": {
    "kind": "user",
    "methods": {},
    "version": 1
  }
}