{
  "contractName": "Token",
  "abi": [
    {
      "inputs": [
        {
          "internalType": "string",
          "name": "name",
          "type": "string"
        },
        {
          "internalType": "string",
          "name": "symbol",
          "type": "string"
        },
        {
          "internalType": "uint64",
          "name": "subscriptionId",
          "type": "uint64"
        }
      ],
      "stateMutability": "nonpayable",
      "type": "constructor"
    },
    {
      "inputs": [
        {
          "internalType": "address",
          "name": "have",
          "type": "address"
        },
        {
          "internalType": "address",
          "name": "want",
          "type": "address"
        }
      ],
      "name": "OnlyCoordinatorCanFulfill",
      "type": "error"
    },
    {
      "anonymous": false,
      "inputs": [
        {
          "indexed": true,
          "internalType": "address",
          "name": "owner",
          "type": "address"
        },
        {
          "indexed": true,
          "internalType": "address",
          "name": "approved",
          "type": "address"
        },
        {
          "indexed": true,
          "internalType": "uint256",
          "name": "tokenId",
          "type": "uint256"
        }
      ],
      "name": "Approval",
      "type": "event"
    },
    {
      "anonymous": false,
      "inputs": [
        {
          "indexed": true,
          "internalType": "address",
          "name": "owner",
          "type": "address"
        },
        {
          "indexed": true,
          "internalType": "address",
          "name": "operator",
          "type": "address"
        },
        {
          "indexed": false,
          "internalType": "bool",
          "name": "approved",
          "type": "bool"
        }
      ],
      "name": "ApprovalForAll",
      "type": "event"
    },
    {
      "anonymous": false,
      "inputs": [
        {
          "indexed": true,
          "internalType": "address",
          "name": "owner",
          "type": "address"
        },
        {
          "indexed": true,
          "internalType": "uint256",
          "name": "tokenId",
          "type": "uint256"
        },
        {
          "indexed": false,
          "internalType": "uint256",
          "name": "timestamp",
          "type": "uint256"
        }
      ],
      "name": "CancelAnListedItem",
      "type": "event"
    },
    {
      "anonymous": false,
      "inputs": [
        {
          "indexed": true,
          "internalType": "address",
          "name": "owner",
          "type": "address"
        },
        {
          "indexed": true,
          "internalType": "uint256",
          "name": "tokenId",
          "type": "uint256"
        },
        {
          "indexed": false,
          "internalType": "uint256",
          "name": "price",
          "type": "uint256"
        },
        {
          "indexed": false,
          "internalType": "uint256",
          "name": "duration",
          "type": "uint256"
        },
        {
          "indexed": false,
          "internalType": "uint256",
          "name": "timestamp",
          "type": "uint256"
        }
      ],
      "name": "ListAnItem",
      "type": "event"
    },
    {
      "anonymous": false,
      "inputs": [
        {
          "indexed": true,
          "internalType": "address",
          "name": "owner",
          "type": "address"
        },
        {
          "indexed": true,
          "internalType": "uint256",
          "name": "tokenId",
          "type": "uint256"
        },
        {
          "indexed": false,
          "internalType": "uint256",
          "name": "timestamp",
          "type": "uint256"
        }
      ],
      "name": "Mint",
      "type": "event"
    },
    {
      "anonymous": false,
      "inputs": [
        {
          "indexed": true,
          "internalType": "address",
          "name": "previousOwner",
          "type": "address"
        },
        {
          "indexed": true,
          "internalType": "address",
          "name": "newOwner",
          "type": "address"
        }
      ],
      "name": "OwnershipTransferred",
      "type": "event"
    },
    {
      "anonymous": false,
      "inputs": [
        {
          "indexed": true,
          "internalType": "address",
          "name": "buyer",
          "type": "address"
        },
        {
          "indexed": true,
          "internalType": "uint256",
          "name": "tokenId",
          "type": "uint256"
        },
        {
          "indexed": true,
          "internalType": "address",
          "name": "seller",
          "type": "address"
        },
        {
          "indexed": false,
          "internalType": "uint256",
          "name": "price",
          "type": "uint256"
        },
        {
          "indexed": false,
          "internalType": "uint256",
          "name": "timestamp",
          "type": "uint256"
        }
      ],
      "name": "PurchaseAnItem",
      "type": "event"
    },
    {
      "anonymous": false,
      "inputs": [
        {
          "indexed": true,
          "internalType": "address",
          "name": "from",
          "type": "address"
        },
        {
          "indexed": true,
          "internalType": "address",
          "name": "to",
          "type": "address"
        },
        {
          "indexed": true,
          "internalType": "uint256",
          "name": "tokenId",
          "type": "uint256"
        }
      ],
      "name": "Transfer",
      "type": "event"
    },
    {
      "inputs": [
        {
          "internalType": "address",
          "name": "to",
          "type": "address"
        },
        {
          "internalType": "uint256",
          "name": "tokenId",
          "type": "uint256"
        }
      ],
      "name": "approve",
      "outputs": [],
      "stateMutability": "nonpayable",
      "type": "function"
    },
    {
      "inputs": [
        {
          "internalType": "address",
          "name": "owner",
          "type": "address"
        }
      ],
      "name": "balanceOf",
      "outputs": [
        {
          "internalType": "uint256",
          "name": "",
          "type": "uint256"
        }
      ],
      "stateMutability": "view",
      "type": "function",
      "constant": true
    },
    {
      "inputs": [
        {
          "internalType": "uint256",
          "name": "tokenId",
          "type": "uint256"
        }
      ],
      "name": "getApproved",
      "outputs": [
        {
          "internalType": "address",
          "name": "",
          "type": "address"
        }
      ],
      "stateMutability": "view",
      "type": "function",
      "constant": true
    },
    {
      "inputs": [
        {
          "internalType": "address",
          "name": "owner",
          "type": "address"
        },
        {
          "internalType": "address",
          "name": "operator",
          "type": "address"
        }
      ],
      "name": "isApprovedForAll",
      "outputs": [
        {
          "internalType": "bool",
          "name": "",
          "type": "bool"
        }
      ],
      "stateMutability": "view",
      "type": "function",
      "constant": true
    },
    {
      "inputs": [],
      "name": "name",
      "outputs": [
        {
          "internalType": "string",
          "name": "",
          "type": "string"
        }
      ],
      "stateMutability": "view",
      "type": "function",
      "constant": true
    },
    {
      "inputs": [],
      "name": "owner",
      "outputs": [
        {
          "internalType": "address",
          "name": "",
          "type": "address"
        }
      ],
      "stateMutability": "view",
      "type": "function",
      "constant": true
    },
    {
      "inputs": [
        {
          "internalType": "uint256",
          "name": "tokenId",
          "type": "uint256"
        }
      ],
      "name": "ownerOf",
      "outputs": [
        {
          "internalType": "address",
          "name": "",
          "type": "address"
        }
      ],
      "stateMutability": "view",
      "type": "function",
      "constant": true
    },
    {
      "inputs": [
        {
          "internalType": "uint256",
          "name": "requestId",
          "type": "uint256"
        },
        {
          "internalType": "uint256[]",
          "name": "randomWords",
          "type": "uint256[]"
        }
      ],
      "name": "rawFulfillRandomWords",
      "outputs": [],
      "stateMutability": "nonpayable",
      "type": "function"
    },
    {
      "inputs": [],
      "name": "renounceOwnership",
      "outputs": [],
      "stateMutability": "nonpayable",
      "type": "function"
    },
    {
      "inputs": [],
      "name": "s_requestId",
      "outputs": [
        {
          "internalType": "uint256",
          "name": "",
          "type": "uint256"
        }
      ],
      "stateMutability": "view",
      "type": "function",
      "constant": true
    },
    {
      "inputs": [
        {
          "internalType": "address",
          "name": "from",
          "type": "address"
        },
        {
          "internalType": "address",
          "name": "to",
          "type": "address"
        },
        {
          "internalType": "uint256",
          "name": "tokenId",
          "type": "uint256"
        }
      ],
      "name": "safeTransferFrom",
      "outputs": [],
      "stateMutability": "nonpayable",
      "type": "function"
    },
    {
      "inputs": [
        {
          "internalType": "address",
          "name": "from",
          "type": "address"
        },
        {
          "internalType": "address",
          "name": "to",
          "type": "address"
        },
        {
          "internalType": "uint256",
          "name": "tokenId",
          "type": "uint256"
        },
        {
          "internalType": "bytes",
          "name": "_data",
          "type": "bytes"
        }
      ],
      "name": "safeTransferFrom",
      "outputs": [],
      "stateMutability": "nonpayable",
      "type": "function"
    },
    {
      "inputs": [
        {
          "internalType": "address",
          "name": "operator",
          "type": "address"
        },
        {
          "internalType": "bool",
          "name": "approved",
          "type": "bool"
        }
      ],
      "name": "setApprovalForAll",
      "outputs": [],
      "stateMutability": "nonpayable",
      "type": "function"
    },
    {
      "inputs": [
        {
          "internalType": "bytes4",
          "name": "interfaceId",
          "type": "bytes4"
        }
      ],
      "name": "supportsInterface",
      "outputs": [
        {
          "internalType": "bool",
          "name": "",
          "type": "bool"
        }
      ],
      "stateMutability": "view",
      "type": "function",
      "constant": true
    },
    {
      "inputs": [],
      "name": "symbol",
      "outputs": [
        {
          "internalType": "string",
          "name": "",
          "type": "string"
        }
      ],
      "stateMutability": "view",
      "type": "function",
      "constant": true
    },
    {
      "inputs": [
        {
          "internalType": "uint256",
          "name": "tokenId",
          "type": "uint256"
        }
      ],
      "name": "tokenURI",
      "outputs": [
        {
          "internalType": "string",
          "name": "",
          "type": "string"
        }
      ],
      "stateMutability": "view",
      "type": "function",
      "constant": true
    },
    {
      "inputs": [
        {
          "internalType": "address",
          "name": "from",
          "type": "address"
        },
        {
          "internalType": "address",
          "name": "to",
          "type": "address"
        },
        {
          "internalType": "uint256",
          "name": "tokenId",
          "type": "uint256"
        }
      ],
      "name": "transferFrom",
      "outputs": [],
      "stateMutability": "nonpayable",
      "type": "function"
    },
    {
      "inputs": [
        {
          "internalType": "address",
          "name": "newOwner",
          "type": "address"
        }
      ],
      "name": "transferOwnership",
      "outputs": [],
      "stateMutability": "nonpayable",
      "type": "function"
    },
    {
      "inputs": [],
      "name": "requestRandomWords",
      "outputs": [],
      "stateMutability": "nonpayable",
      "type": "function"
    },
    {
      "inputs": [],
      "name": "shuffle",
      "outputs": [],
      "stateMutability": "nonpayable",
      "type": "function"
    },
    {
      "inputs": [],
      "name": "getOrder",
      "outputs": [
        {
          "internalType": "uint256[]",
          "name": "",
          "type": "uint256[]"
        }
      ],
      "stateMutability": "view",
      "type": "function",
      "constant": true
    },
    {
      "inputs": [
        {
          "internalType": "uint256",
          "name": "attribute1",
          "type": "uint256"
        },
        {
          "internalType": "uint256",
          "name": "attribute2",
          "type": "uint256"
        },
        {
          "internalType": "uint256",
          "name": "attribute3",
          "type": "uint256"
        },
        {
          "internalType": "uint256",
          "name": "attribute4",
          "type": "uint256"
        }
      ],
      "name": "mint",
      "outputs": [],
      "stateMutability": "payable",
      "type": "function",
      "payable": true
    },
    {
      "inputs": [
        {
          "internalType": "uint256",
          "name": "tokenId",
          "type": "uint256"
        }
      ],
      "name": "getTokenDetails",
      "outputs": [
        {
          "components": [
            {
              "internalType": "uint256",
              "name": "attribute1",
              "type": "uint256"
            },
            {
              "internalType": "uint256",
              "name": "attribute2",
              "type": "uint256"
            },
            {
              "internalType": "uint256",
              "name": "attribute3",
              "type": "uint256"
            },
            {
              "internalType": "uint256",
              "name": "attribute4",
              "type": "uint256"
            }
          ],
          "internalType": "struct Token.AIA",
          "name": "",
          "type": "tuple"
        }
      ],
      "stateMutability": "view",
      "type": "function",
      "constant": true
    },
    {
      "inputs": [],
      "name": "getBalance",
      "outputs": [
        {
          "internalType": "uint256",
          "name": "",
          "type": "uint256"
        }
      ],
      "stateMutability": "view",
      "type": "function",
      "constant": true
    },
    {
      "inputs": [],
      "name": "withdrawBalance",
      "outputs": [],
      "stateMutability": "payable",
      "type": "function",
      "payable": true
    },
    {
      "inputs": [
        {
          "internalType": "address",
          "name": "user",
          "type": "address"
        }
      ],
      "name": "getAllTokensForUser",
      "outputs": [
        {
          "internalType": "uint256[]",
          "name": "",
          "type": "uint256[]"
        }
      ],
      "stateMutability": "view",
      "type": "function",
      "constant": true
    },
    {
      "inputs": [
        {
          "internalType": "uint256",
          "name": "_tokenId",
          "type": "uint256"
        },
        {
          "internalType": "uint256",
          "name": "_price",
          "type": "uint256"
        },
        {
          "internalType": "uint256",
          "name": "_duration",
          "type": "uint256"
        }
      ],
      "name": "sell",
      "outputs": [],
      "stateMutability": "nonpayable",
      "type": "function"
    },
    {
      "inputs": [
        {
          "internalType": "uint256",
          "name": "_tokenId",
          "type": "uint256"
        }
      ],
      "name": "cancelSell",
      "outputs": [],
      "stateMutability": "nonpayable",
      "type": "function"
    },
    {
      "inputs": [
        {
          "internalType": "uint256",
          "name": "_tokenId",
          "type": "uint256"
        }
      ],
      "name": "purchaseItem",
      "outputs": [],
      "stateMutability": "payable",
      "type": "function",
      "payable": true
    },
    {
      "inputs": [
        {
          "internalType": "address",
          "name": "user",
          "type": "address"
        }
      ],
      "name": "getListedItemsForUser",
      "outputs": [
        {
          "internalType": "uint256[]",
          "name": "",
          "type": "uint256[]"
        }
      ],
      "stateMutability": "view",
      "type": "function",
      "constant": true
    },
    {
      "inputs": [
        {
          "internalType": "address",
          "name": "",
          "type": "address"
        },
        {
          "internalType": "address",
          "name": "",
          "type": "address"
        },
        {
          "internalType": "uint256",
          "name": "",
          "type": "uint256"
        },
        {
          "internalType": "bytes",
          "name": "",
          "type": "bytes"
        }
      ],
      "name": "onERC721Received",
      "outputs": [
        {
          "internalType": "bytes4",
          "name": "",
          "type": "bytes4"
        }
      ],
      "stateMutability": "nonpayable",
      "type": "function"
    },
    {
      "inputs": [
        {
          "internalType": "uint256",
          "name": "v",
          "type": "uint256"
        }
      ],
      "name": "uintToString",
      "outputs": [
        {
          "internalType": "string",
          "name": "",
          "type": "string"
        }
      ],
      "stateMutability": "pure",
      "type": "function",
      "constant": true
    }
  ],
  "bytecode": "0x60a0604052736168499c0cffcacd319c818142124b7a15e857ab600a60006101000a81548173ffffffffffffffffffffffffffffffffffffffff021916908373ffffffffffffffffffffffffffffffffffffffff1602179055507fd89b2bf150e3b9e13446986e571fb9cab24b13cea0a43ea20a6049a85cc807cc60001b600b55620186a0600c60006101000a81548163ffffffff021916908363ffffffff1602179055506003600c60046101000a81548161ffff021916908361ffff1602179055506001600c60066101000a81548163ffffffff021916908363ffffffff160217905550600060105560006076556040518060600160405280602f815260200162005989602f9139607890805190602001906200011f92919062000400565b506040518060400160405280600581526020017f2e6a736f6e000000000000000000000000000000000000000000000000000000815250607990805190602001906200016d92919062000400565b503480156200017b57600080fd5b50604051620059b8380380620059b88339818101604052810190620001a1919062000692565b8282600a60009054906101000a900473ffffffffffffffffffffffffffffffffffffffff16620001e6620001da6200033460201b60201c565b6200033c60201b60201c565b600180819055508073ffffffffffffffffffffffffffffffffffffffff1660808173ffffffffffffffffffffffffffffffffffffffff16815250505081600290805190602001906200023a92919062000400565b5080600390805190602001906200025392919062000400565b505050600a60009054906101000a900473ffffffffffffffffffffffffffffffffffffffff16600960006101000a81548173ffffffffffffffffffffffffffffffffffffffff021916908373ffffffffffffffffffffffffffffffffffffffff16021790555033600f60006101000a81548173ffffffffffffffffffffffffffffffffffffffff021916908373ffffffffffffffffffffffffffffffffffffffff16021790555080600960146101000a81548167ffffffffffffffff021916908367ffffffffffffffff160217905550600560758190555050505062000790565b600033905090565b60008060009054906101000a900473ffffffffffffffffffffffffffffffffffffffff169050816000806101000a81548173ffffffffffffffffffffffffffffffffffffffff021916908373ffffffffffffffffffffffffffffffffffffffff1602179055508173ffffffffffffffffffffffffffffffffffffffff168173ffffffffffffffffffffffffffffffffffffffff167f8be0079c531659141344cd1fd0a4f28419497f9722a3daafe3b4186f6b6457e060405160405180910390a35050565b8280546200040e906200075b565b90600052602060002090601f0160209004810192826200043257600085556200047e565b82601f106200044d57805160ff19168380011785556200047e565b828001600101855582156200047e579182015b828111156200047d57825182559160200191906001019062000460565b5b5090506200048d919062000491565b5090565b5b80821115620004ac57600081600090555060010162000492565b5090565b6000604051905090565b600080fd5b600080fd5b600080fd5b600080fd5b6000601f19601f8301169050919050565b7f4e487b7100000000000000000000000000000000000000000000000000000000600052604160045260246000fd5b6200051982620004ce565b810181811067ffffffffffffffff821117156200053b576200053a620004df565b5b80604052505050565b600062000550620004b0565b90506200055e82826200050e565b919050565b600067ffffffffffffffff821115620005815762000580620004df565b5b6200058c82620004ce565b9050602081019050919050565b60005b83811015620005b95780820151818401526020810190506200059c565b83811115620005c9576000848401525b50505050565b6000620005e6620005e08462000563565b62000544565b905082815260208101848484011115620006055762000604620004c9565b5b6200061284828562000599565b509392505050565b600082601f830112620006325762000631620004c4565b5b815162000644848260208601620005cf565b91505092915050565b600067ffffffffffffffff82169050919050565b6200066c816200064d565b81146200067857600080fd5b50565b6000815190506200068c8162000661565b92915050565b600080600060608486031215620006ae57620006ad620004ba565b5b600084015167ffffffffffffffff811115620006cf57620006ce620004bf565b5b620006dd868287016200061a565b935050602084015167ffffffffffffffff811115620007015762000700620004bf565b5b6200070f868287016200061a565b925050604062000722868287016200067b565b9150509250925092565b7f4e487b7100000000000000000000000000000000000000000000000000000000600052602260045260246000fd5b600060028204905060018216806200077457607f821691505b6020821081036200078a57620007896200072c565b5b50919050565b6080516151d6620007b360003960008181610ddf0152610e3301526151d66000f3fe6080604052600436106101e35760003560e01c8063715018a611610102578063d36dedd211610095578063e89e106a11610064578063e89e106a146106b3578063e9395679146106de578063e985e9c51461071b578063f2fde38b14610758576101e3565b8063d36dedd21461062c578063d38ea5bf14610657578063d3c9727c14610673578063e0c862891461069c576101e3565b8063a22cb465116100d1578063a22cb46514610560578063b88d4fde14610589578063c1e03728146105b2578063c87b56dd146105ef576101e3565b8063715018a6146104b657806382de8fe9146104cd5780638da5cb5b1461050a57806395d89b4114610535576101e3565b806323b872dd1161017a5780635fd8c710116101495780635fd8c710146104165780636352211e146104205780636582ccd31461045d57806370a0823114610479576101e3565b806323b872dd146103705780632520bf04146103995780632888df2a146103b057806342842e0e146103ed576101e3565b8063095ea7b3116101b6578063095ea7b3146102b657806312065fe0146102df578063150b7a021461030a5780631fe543e314610347576101e3565b806301ffc9a7146101e857806306fdde031461022557806307c9cd4514610250578063081812fc14610279575b600080fd5b3480156101f457600080fd5b5061020f600480360381019061020a91906136d3565b610781565b60405161021c919061371b565b60405180910390f35b34801561023157600080fd5b5061023a610863565b60405161024791906137cf565b60405180910390f35b34801561025c57600080fd5b5061027760048036038101906102729190613827565b6108f5565b005b34801561028557600080fd5b506102a0600480360381019061029b9190613827565b610ba9565b6040516102ad9190613895565b60405180910390f35b3480156102c257600080fd5b506102dd60048036038101906102d891906138dc565b610c2e565b005b3480156102eb57600080fd5b506102f4610d45565b604051610301919061392b565b60405180910390f35b34801561031657600080fd5b50610331600480360381019061032c9190613a7b565b610dc9565b60405161033e9190613b0d565b60405180910390f35b34801561035357600080fd5b5061036e60048036038101906103699190613bf0565b610ddd565b005b34801561037c57600080fd5b5061039760048036038101906103929190613c4c565b610e9d565b005b3480156103a557600080fd5b506103ae610efd565b005b3480156103bc57600080fd5b506103d760048036038101906103d29190613c9f565b6110b2565b6040516103e49190613d8a565b60405180910390f35b3480156103f957600080fd5b50610414600480360381019061040f9190613c4c565b611323565b005b61041e611343565b005b34801561042c57600080fd5b5061044760048036038101906104429190613827565b6114ad565b6040516104549190613895565b60405180910390f35b61047760048036038101906104729190613dac565b61155e565b005b34801561048557600080fd5b506104a0600480360381019061049b9190613c9f565b6116eb565b6040516104ad919061392b565b60405180910390f35b3480156104c257600080fd5b506104cb6117a2565b005b3480156104d957600080fd5b506104f460048036038101906104ef9190613c9f565b61182a565b6040516105019190613d8a565b60405180910390f35b34801561051657600080fd5b5061051f61197e565b60405161052c9190613895565b60405180910390f35b34801561054157600080fd5b5061054a6119a7565b60405161055791906137cf565b60405180910390f35b34801561056c57600080fd5b5061058760048036038101906105829190613e3f565b611a39565b005b34801561059557600080fd5b506105b060048036038101906105ab9190613a7b565b611a4f565b005b3480156105be57600080fd5b506105d960048036038101906105d49190613827565b611ab1565b6040516105e69190613ed4565b60405180910390f35b3480156105fb57600080fd5b5061061660048036038101906106119190613827565b611b06565b60405161062391906137cf565b60405180910390f35b34801561063857600080fd5b50610641611c57565b60405161064e9190613d8a565b60405180910390f35b610671600480360381019061066c9190613827565b611d05565b005b34801561067f57600080fd5b5061069a60048036038101906106959190613eef565b61200e565b005b3480156106a857600080fd5b506106b1612243565b005b3480156106bf57600080fd5b506106c86123b9565b6040516106d5919061392b565b60405180910390f35b3480156106ea57600080fd5b5061070560048036038101906107009190613827565b6123bf565b60405161071291906137cf565b60405180910390f35b34801561072757600080fd5b50610742600480360381019061073d9190613f42565b6125ec565b60405161074f919061371b565b60405180910390f35b34801561076457600080fd5b5061077f600480360381019061077a9190613c9f565b612680565b005b60007f80ac58cd000000000000000000000000000000000000000000000000000000007bffffffffffffffffffffffffffffffffffffffffffffffffffffffff1916827bffffffffffffffffffffffffffffffffffffffffffffffffffffffff1916148061084c57507f5b5e139f000000000000000000000000000000000000000000000000000000007bffffffffffffffffffffffffffffffffffffffffffffffffffffffff1916827bffffffffffffffffffffffffffffffffffffffffffffffffffffffff1916145b8061085c575061085b82612777565b5b9050919050565b60606002805461087290613fb1565b80601f016020809104026020016040519081016040528092919081815260200182805461089e90613fb1565b80156108eb5780601f106108c0576101008083540402835291602001916108eb565b820191906000526020600020905b8154815290600101906020018083116108ce57829003601f168201915b5050505050905090565b60026001540361093a576040517f08c379a00000000000000000000000000000000000000000000000000000000081526004016109319061402e565b60405180910390fd5b60026001819055506000607b60008381526020019081526020016000209050600081600301541161096a57600080fd5b8060040160009054906101000a900460ff1661098557600080fd5b8060000160009054906101000a900473ffffffffffffffffffffffffffffffffffffffff1673ffffffffffffffffffffffffffffffffffffffff163373ffffffffffffffffffffffffffffffffffffffff16146109e157600080fd5b607a60003373ffffffffffffffffffffffffffffffffffffffff1673ffffffffffffffffffffffffffffffffffffffff1681526020019081526020016000206000815480929190610a319061407d565b919050555060008160040160006101000a81548160ff0219169083151502179055503073ffffffffffffffffffffffffffffffffffffffff166342842e0e308360000160009054906101000a900473ffffffffffffffffffffffffffffffffffffffff16856040518463ffffffff1660e01b8152600401610ab493929190614105565b600060405180830381600087803b158015610ace57600080fd5b505af1158015610ae2573d6000803e3d6000fd5b50505050607b6000838152602001908152602001600020600080820160006101000a81549073ffffffffffffffffffffffffffffffffffffffff02191690556001820160009055600282016000905560038201600090556004820160006101000a81549060ff02191690555050813373ffffffffffffffffffffffffffffffffffffffff167faafa025e65bdcff1ef0464eae38e306c5dedaa9ba5ee3f47de3b91d1bf1460e442604051610b96919061392b565b60405180910390a3506001808190555050565b6000610bb4826127e1565b610bf3576040517f08c379a0000000000000000000000000000000000000000000000000000000008152600401610bea906141ae565b60405180910390fd5b6006600083815260200190815260200160002060009054906101000a900473ffffffffffffffffffffffffffffffffffffffff169050919050565b6000610c39826114ad565b90508073ffffffffffffffffffffffffffffffffffffffff168373ffffffffffffffffffffffffffffffffffffffff1603610ca9576040517f08c379a0000000000000000000000000000000000000000000000000000000008152600401610ca090614240565b60405180910390fd5b8073ffffffffffffffffffffffffffffffffffffffff16610cc861284d565b73ffffffffffffffffffffffffffffffffffffffff161480610cf75750610cf681610cf161284d565b6125ec565b5b610d36576040517f08c379a0000000000000000000000000000000000000000000000000000000008152600401610d2d906142d2565b60405180910390fd5b610d408383612855565b505050565b6000610d4f61284d565b73ffffffffffffffffffffffffffffffffffffffff16610d6d61197e565b73ffffffffffffffffffffffffffffffffffffffff1614610dc3576040517f08c379a0000000000000000000000000000000000000000000000000000000008152600401610dba9061433e565b60405180910390fd5b47905090565b600063150b7a0260e01b9050949350505050565b7f000000000000000000000000000000000000000000000000000000000000000073ffffffffffffffffffffffffffffffffffffffff163373ffffffffffffffffffffffffffffffffffffffff1614610e8f57337f00000000000000000000000000000000000000000000000000000000000000006040517f1cf993f4000000000000000000000000000000000000000000000000000000008152600401610e8692919061435e565b60405180910390fd5b610e99828261290e565b5050565b610eae610ea861284d565b82612934565b610eed576040517f08c379a0000000000000000000000000000000000000000000000000000000008152600401610ee4906143f9565b60405180910390fd5b610ef8838383612a12565b505050565b600060755467ffffffffffffffff811115610f1b57610f1a613950565b5b604051908082528060200260200182016040528015610f495781602001602082028036833780820191505090505b50905060005b6075548160ff161015610f95578060ff16828260ff1681518110610f7657610f75614419565b5b6020026020010181815250508080610f8d90614455565b915050610f4f565b60008091505b6075548260ff1610156110ad578160ff16607554610fb9919061447e565b600d54601054604051602001610fd09291906144b2565b6040516020818303038152906040528051906020012060001c610ff3919061450a565b9050601060008154809291906110089061453b565b91905055508281815181106110205761101f614419565b5b602002602001015160118360ff166064811061103f5761103e614419565b5b01819055508260018360ff16607554611058919061447e565b611062919061447e565b8151811061107357611072614419565b5b602002602001015183828151811061108e5761108d614419565b5b60200260200101818152505081806110a590614455565b925050610f9b565b505050565b60606000607a60008473ffffffffffffffffffffffffffffffffffffffff1673ffffffffffffffffffffffffffffffffffffffff168152602001908152602001600020540361114c57600067ffffffffffffffff81111561111657611115613950565b5b6040519080825280602002602001820160405280156111445781602001602082028036833780820191505090505b50905061131e565b6000607a60008473ffffffffffffffffffffffffffffffffffffffff1673ffffffffffffffffffffffffffffffffffffffff1681526020019081526020016000205467ffffffffffffffff8111156111a7576111a6613950565b5b6040519080825280602002602001820160405280156111d55781602001602082028036833780820191505090505b509050600060765490506000805b82811015611316576000607b60008381526020019081526020016000206040518060a00160405290816000820160009054906101000a900473ffffffffffffffffffffffffffffffffffffffff1673ffffffffffffffffffffffffffffffffffffffff1673ffffffffffffffffffffffffffffffffffffffff1681526020016001820154815260200160028201548152602001600382015481526020016004820160009054906101000a900460ff16151515158152505090508673ffffffffffffffffffffffffffffffffffffffff16816000015173ffffffffffffffffffffffffffffffffffffffff160361130257818584815181106112e7576112e6614419565b5b60200260200101818152505082806112fe9061453b565b9350505b50808061130e9061453b565b9150506111e3565b839450505050505b919050565b61133e83838360405180602001604052806000815250611a4f565b505050565b61134b61284d565b73ffffffffffffffffffffffffffffffffffffffff1661136961197e565b73ffffffffffffffffffffffffffffffffffffffff16146113bf576040517f08c379a00000000000000000000000000000000000000000000000000000000081526004016113b69061433e565b60405180910390fd5b6113c761197e565b73ffffffffffffffffffffffffffffffffffffffff163373ffffffffffffffffffffffffffffffffffffffff1614611434576040517f08c379a000000000000000000000000000000000000000000000000000000000815260040161142b906145a9565b60405180910390fd5b60008061143f61197e565b73ffffffffffffffffffffffffffffffffffffffff1647604051611462906145f7565b60006040518083038185875af1925050503d806000811461149f576040519150601f19603f3d011682016040523d82523d6000602084013e6114a4565b606091505b50915091505050565b6000806004600084815260200190815260200160002060009054906101000a900473ffffffffffffffffffffffffffffffffffffffff169050600073ffffffffffffffffffffffffffffffffffffffff168173ffffffffffffffffffffffffffffffffffffffff1603611555576040517f08c379a000000000000000000000000000000000000000000000000000000000815260040161154c9061467e565b60405180910390fd5b80915050919050565b662386f26fc100003410156115a8576040517f08c379a000000000000000000000000000000000000000000000000000000000815260040161159f90614710565b60405180910390fd5b60405180608001604052806011607654606481106115c9576115c8614419565b5b01548152602001848152602001838152602001828152506077600060765481526020019081526020016000206000820151816000015560208201518160010155604082015181600201556060820151816003015590505061162c33607654612c78565b61167c607654607861165460116076546064811061164d5761164c614419565b5b01546123bf565b607960405160200161166893929190614800565b604051602081830303815290604052612c96565b6076543373ffffffffffffffffffffffffffffffffffffffff167f4c209b5fc8ad50758f13e2e1088ba56a560dff690a1c6fef26394f4c03821c4f426040516116c5919061392b565b60405180910390a3607660008154809291906116e09061453b565b919050555050505050565b60008073ffffffffffffffffffffffffffffffffffffffff168273ffffffffffffffffffffffffffffffffffffffff160361175b576040517f08c379a0000000000000000000000000000000000000000000000000000000008152600401611752906148a3565b60405180910390fd5b600560008373ffffffffffffffffffffffffffffffffffffffff1673ffffffffffffffffffffffffffffffffffffffff168152602001908152602001600020549050919050565b6117aa61284d565b73ffffffffffffffffffffffffffffffffffffffff166117c861197e565b73ffffffffffffffffffffffffffffffffffffffff161461181e576040517f08c379a00000000000000000000000000000000000000000000000000000000081526004016118159061433e565b60405180910390fd5b6118286000612d0a565b565b60606000611837836116eb565b90506000810361189357600067ffffffffffffffff81111561185c5761185b613950565b5b60405190808252806020026020018201604052801561188a5781602001602082028036833780820191505090505b50915050611979565b60008167ffffffffffffffff8111156118af576118ae613950565b5b6040519080825280602002602001820160405280156118dd5781602001602082028036833780820191505090505b509050600060765490506000805b82811015611970578673ffffffffffffffffffffffffffffffffffffffff16611913826114ad565b73ffffffffffffffffffffffffffffffffffffffff160361195d578084838151811061194257611941614419565b5b60200260200101818152505081806119599061453b565b9250505b80806119689061453b565b9150506118eb565b83955050505050505b919050565b60008060009054906101000a900473ffffffffffffffffffffffffffffffffffffffff16905090565b6060600380546119b690613fb1565b80601f01602080910402602001604051908101604052809291908181526020018280546119e290613fb1565b8015611a2f5780601f10611a0457610100808354040283529160200191611a2f565b820191906000526020600020905b815481529060010190602001808311611a1257829003601f168201915b5050505050905090565b611a4b611a4461284d565b8383612dce565b5050565b611a60611a5a61284d565b83612934565b611a9f576040517f08c379a0000000000000000000000000000000000000000000000000000000008152600401611a96906143f9565b60405180910390fd5b611aab84848484612f3a565b50505050565b611ab961359c565b607760008381526020019081526020016000206040518060800160405290816000820154815260200160018201548152602001600282015481526020016003820154815250509050919050565b6060611b11826127e1565b611b50576040517f08c379a0000000000000000000000000000000000000000000000000000000008152600401611b4790614935565b60405180910390fd5b6000600860008481526020019081526020016000208054611b7090613fb1565b80601f0160208091040260200160405190810160405280929190818152602001828054611b9c90613fb1565b8015611be95780601f10611bbe57610100808354040283529160200191611be9565b820191906000526020600020905b815481529060010190602001808311611bcc57829003601f168201915b505050505090506000611bfa612f96565b90506000815103611c0f578192505050611c52565b600082511115611c44578082604051602001611c2c929190614955565b60405160208183030381529060405292505050611c52565b611c4d84612fad565b925050505b919050565b6060600060755467ffffffffffffffff811115611c7757611c76613950565b5b604051908082528060200260200182016040528015611ca55781602001602082028036833780820191505090505b50905060005b607554811015611cfd5760118160648110611cc957611cc8614419565b5b0154828281518110611cde57611cdd614419565b5b6020026020010181815250508080611cf59061453b565b915050611cab565b819250505090565b600260015403611d4a576040517f08c379a0000000000000000000000000000000000000000000000000000000008152600401611d419061402e565b60405180910390fd5b60026001819055506000607b6000838152602001908152602001600020905060008160000160009054906101000a900473ffffffffffffffffffffffffffffffffffffffff1690506000826003015411611da357600080fd5b8160040160009054906101000a900460ff16611dbe57600080fd5b34826001015460058460010154611dd59190614979565b611ddf91906149aa565b14611de957600080fd5b600082600101549050607b6000858152602001908152602001600020600080820160006101000a81549073ffffffffffffffffffffffffffffffffffffffff02191690556001820160009055600282016000905560038201600090556004820160006101000a81549060ff021916905550506000811115611ed5576000808373ffffffffffffffffffffffffffffffffffffffff1683604051611e8b906145f7565b60006040518083038185875af1925050503d8060008114611ec8576040519150601f19603f3d011682016040523d82523d6000602084013e611ecd565b606091505b509150915050505b3073ffffffffffffffffffffffffffffffffffffffff166342842e0e3033876040518463ffffffff1660e01b8152600401611f1293929190614a00565b600060405180830381600087803b158015611f2c57600080fd5b505af1158015611f40573d6000803e3d6000fd5b50505050607a60008373ffffffffffffffffffffffffffffffffffffffff1673ffffffffffffffffffffffffffffffffffffffff1681526020019081526020016000206000815480929190611f949061407d565b91905055508173ffffffffffffffffffffffffffffffffffffffff16843373ffffffffffffffffffffffffffffffffffffffff167f478956c967ca99f4651fef2663546a452561b806dd5b5818ad086a2f478511868442604051611ff99291906144b2565b60405180910390a45050506001808190555050565b600260015403612053576040517f08c379a000000000000000000000000000000000000000000000000000000000815260040161204a9061402e565b60405180910390fd5b60026001819055503373ffffffffffffffffffffffffffffffffffffffff1661207b846114ad565b73ffffffffffffffffffffffffffffffffffffffff161461209b57600080fd5b603c8110156120a957600080fd5b6040518060a001604052803373ffffffffffffffffffffffffffffffffffffffff16815260200183815260200182815260200142815260200160011515815250607b600085815260200190815260200160002060008201518160000160006101000a81548173ffffffffffffffffffffffffffffffffffffffff021916908373ffffffffffffffffffffffffffffffffffffffff16021790555060208201518160010155604082015181600201556060820151816003015560808201518160040160006101000a81548160ff02191690831515021790555090505061218f333085611323565b607a60003373ffffffffffffffffffffffffffffffffffffffff1673ffffffffffffffffffffffffffffffffffffffff16815260200190815260200160002060008154809291906121df9061453b565b9190505550823373ffffffffffffffffffffffffffffffffffffffff167f1bd18fbc31b1648a85db1b4d7adc8ab1d87907cf79c519431985f3b8990b64cc84844260405161222f93929190614a37565b60405180910390a360018081905550505050565b61224b61284d565b73ffffffffffffffffffffffffffffffffffffffff1661226961197e565b73ffffffffffffffffffffffffffffffffffffffff16146122bf576040517f08c379a00000000000000000000000000000000000000000000000000000000081526004016122b69061433e565b60405180910390fd5b600960009054906101000a900473ffffffffffffffffffffffffffffffffffffffff1673ffffffffffffffffffffffffffffffffffffffff16635d3b1d30600b54600960149054906101000a900467ffffffffffffffff16600c60049054906101000a900461ffff16600c60009054906101000a900463ffffffff16600c60069054906101000a900463ffffffff166040518663ffffffff1660e01b815260040161236e959493929190614ae6565b6020604051808303816000875af115801561238d573d6000803e3d6000fd5b505050506040513d601f19601f820116820180604052508101906123b19190614b4e565b600e81905550565b600e5481565b60606000820361240c5760006040518060400160405280600181526020017f30000000000000000000000000000000000000000000000000000000000000008152509050809150506125e7565b60006064905060008167ffffffffffffffff81111561242e5761242d613950565b5b6040519080825280601f01601f1916602001820160405280156124605781602001600182028036833780820191505090505b50905060005b600085146124f2576000600a8661247d919061450a565b9050600a8661248c9190614979565b955080603061249b91906149aa565b60f81b8383806124aa9061453b565b9450815181106124bd576124bc614419565b5b60200101907effffffffffffffffffffffffffffffffffffffffffffffffffffffffffffff1916908160001a90535050612466565b60008167ffffffffffffffff81111561250e5761250d613950565b5b6040519080825280601f01601f1916602001820160405280156125405781602001600182028036833780820191505090505b50905060005b828110156125d857836001828561255d919061447e565b612567919061447e565b8151811061257857612577614419565b5b602001015160f81c60f81b82828151811061259657612595614419565b5b60200101907effffffffffffffffffffffffffffffffffffffffffffffffffffffffffffff1916908160001a90535080806125d09061453b565b915050612546565b50600081905080955050505050505b919050565b6000600760008473ffffffffffffffffffffffffffffffffffffffff1673ffffffffffffffffffffffffffffffffffffffff16815260200190815260200160002060008373ffffffffffffffffffffffffffffffffffffffff1673ffffffffffffffffffffffffffffffffffffffff16815260200190815260200160002060009054906101000a900460ff16905092915050565b61268861284d565b73ffffffffffffffffffffffffffffffffffffffff166126a661197e565b73ffffffffffffffffffffffffffffffffffffffff16146126fc576040517f08c379a00000000000000000000000000000000000000000000000000000000081526004016126f39061433e565b60405180910390fd5b600073ffffffffffffffffffffffffffffffffffffffff168173ffffffffffffffffffffffffffffffffffffffff160361276b576040517f08c379a000000000000000000000000000000000000000000000000000000000815260040161276290614bed565b60405180910390fd5b61277481612d0a565b50565b60007f01ffc9a7000000000000000000000000000000000000000000000000000000007bffffffffffffffffffffffffffffffffffffffffffffffffffffffff1916827bffffffffffffffffffffffffffffffffffffffffffffffffffffffff1916149050919050565b60008073ffffffffffffffffffffffffffffffffffffffff166004600084815260200190815260200160002060009054906101000a900473ffffffffffffffffffffffffffffffffffffffff1673ffffffffffffffffffffffffffffffffffffffff1614159050919050565b600033905090565b816006600083815260200190815260200160002060006101000a81548173ffffffffffffffffffffffffffffffffffffffff021916908373ffffffffffffffffffffffffffffffffffffffff160217905550808273ffffffffffffffffffffffffffffffffffffffff166128c8836114ad565b73ffffffffffffffffffffffffffffffffffffffff167f8c5be1e5ebec7d5bd14f71427d1e84f3dd0314c0f7b2291e5b200ac8c7c3b92560405160405180910390a45050565b8060008151811061292257612921614419565b5b6020026020010151600d819055505050565b600061293f826127e1565b61297e576040517f08c379a000000000000000000000000000000000000000000000000000000000815260040161297590614c7f565b60405180910390fd5b6000612989836114ad565b90508073ffffffffffffffffffffffffffffffffffffffff168473ffffffffffffffffffffffffffffffffffffffff1614806129f857508373ffffffffffffffffffffffffffffffffffffffff166129e084610ba9565b73ffffffffffffffffffffffffffffffffffffffff16145b80612a095750612a0881856125ec565b5b91505092915050565b8273ffffffffffffffffffffffffffffffffffffffff16612a32826114ad565b73ffffffffffffffffffffffffffffffffffffffff1614612a88576040517f08c379a0000000000000000000000000000000000000000000000000000000008152600401612a7f90614d11565b60405180910390fd5b600073ffffffffffffffffffffffffffffffffffffffff168273ffffffffffffffffffffffffffffffffffffffff1603612af7576040517f08c379a0000000000000000000000000000000000000000000000000000000008152600401612aee90614da3565b60405180910390fd5b612b02838383613054565b612b0d600082612855565b6001600560008573ffffffffffffffffffffffffffffffffffffffff1673ffffffffffffffffffffffffffffffffffffffff1681526020019081526020016000206000828254612b5d919061447e565b925050819055506001600560008473ffffffffffffffffffffffffffffffffffffffff1673ffffffffffffffffffffffffffffffffffffffff1681526020019081526020016000206000828254612bb491906149aa565b92505081905550816004600083815260200190815260200160002060006101000a81548173ffffffffffffffffffffffffffffffffffffffff021916908373ffffffffffffffffffffffffffffffffffffffff160217905550808273ffffffffffffffffffffffffffffffffffffffff168473ffffffffffffffffffffffffffffffffffffffff167fddf252ad1be2c89b69c2b068fc378daa952ba7f163c4a11628f55a4df523b3ef60405160405180910390a4612c73838383613059565b505050565b612c9282826040518060200160405280600081525061305e565b5050565b612c9f826127e1565b612cde576040517f08c379a0000000000000000000000000000000000000000000000000000000008152600401612cd590614e35565b60405180910390fd5b80600860008481526020019081526020016000209080519060200190612d059291906135c4565b505050565b60008060009054906101000a900473ffffffffffffffffffffffffffffffffffffffff169050816000806101000a81548173ffffffffffffffffffffffffffffffffffffffff021916908373ffffffffffffffffffffffffffffffffffffffff1602179055508173ffffffffffffffffffffffffffffffffffffffff168173ffffffffffffffffffffffffffffffffffffffff167f8be0079c531659141344cd1fd0a4f28419497f9722a3daafe3b4186f6b6457e060405160405180910390a35050565b8173ffffffffffffffffffffffffffffffffffffffff168373ffffffffffffffffffffffffffffffffffffffff1603612e3c576040517f08c379a0000000000000000000000000000000000000000000000000000000008152600401612e3390614ea1565b60405180910390fd5b80600760008573ffffffffffffffffffffffffffffffffffffffff1673ffffffffffffffffffffffffffffffffffffffff16815260200190815260200160002060008473ffffffffffffffffffffffffffffffffffffffff1673ffffffffffffffffffffffffffffffffffffffff16815260200190815260200160002060006101000a81548160ff0219169083151502179055508173ffffffffffffffffffffffffffffffffffffffff168373ffffffffffffffffffffffffffffffffffffffff167f17307eab39ab6107e8899845ad3d59bd9653f200f220920489ca2b5937696c3183604051612f2d919061371b565b60405180910390a3505050565b612f45848484612a12565b612f51848484846130b9565b612f90576040517f08c379a0000000000000000000000000000000000000000000000000000000008152600401612f8790614f33565b60405180910390fd5b50505050565b606060405180602001604052806000815250905090565b6060612fb8826127e1565b612ff7576040517f08c379a0000000000000000000000000000000000000000000000000000000008152600401612fee90614fc5565b60405180910390fd5b6000613001612f96565b90506000815111613021576040518060200160405280600081525061304c565b8061302b84613240565b60405160200161303c929190614955565b6040516020818303038152906040525b915050919050565b505050565b505050565b61306883836133a0565b61307560008484846130b9565b6130b4576040517f08c379a00000000000000000000000000000000000000000000000000000000081526004016130ab90614f33565b60405180910390fd5b505050565b60006130da8473ffffffffffffffffffffffffffffffffffffffff16613579565b15613233578373ffffffffffffffffffffffffffffffffffffffff1663150b7a0261310361284d565b8786866040518563ffffffff1660e01b8152600401613125949392919061503a565b6020604051808303816000875af192505050801561316157506040513d601f19601f8201168201806040525081019061315e919061509b565b60015b6131e3573d8060008114613191576040519150601f19603f3d011682016040523d82523d6000602084013e613196565b606091505b5060008151036131db576040517f08c379a00000000000000000000000000000000000000000000000000000000081526004016131d290614f33565b60405180910390fd5b805181602001fd5b63150b7a0260e01b7bffffffffffffffffffffffffffffffffffffffffffffffffffffffff1916817bffffffffffffffffffffffffffffffffffffffffffffffffffffffff191614915050613238565b600190505b949350505050565b606060008203613287576040518060400160405280600181526020017f3000000000000000000000000000000000000000000000000000000000000000815250905061339b565b600082905060005b600082146132b95780806132a29061453b565b915050600a826132b29190614979565b915061328f565b60008167ffffffffffffffff8111156132d5576132d4613950565b5b6040519080825280601f01601f1916602001820160405280156133075781602001600182028036833780820191505090505b5090505b6000851461339457600182613320919061447e565b9150600a8561332f919061450a565b603061333b91906149aa565b60f81b81838151811061335157613350614419565b5b60200101907effffffffffffffffffffffffffffffffffffffffffffffffffffffffffffff1916908160001a905350600a8561338d9190614979565b945061330b565b8093505050505b919050565b600073ffffffffffffffffffffffffffffffffffffffff168273ffffffffffffffffffffffffffffffffffffffff160361340f576040517f08c379a000000000000000000000000000000000000000000000000000000000815260040161340690615114565b60405180910390fd5b613418816127e1565b15613458576040517f08c379a000000000000000000000000000000000000000000000000000000000815260040161344f90615180565b60405180910390fd5b61346460008383613054565b6001600560008473ffffffffffffffffffffffffffffffffffffffff1673ffffffffffffffffffffffffffffffffffffffff16815260200190815260200160002060008282546134b491906149aa565b92505081905550816004600083815260200190815260200160002060006101000a81548173ffffffffffffffffffffffffffffffffffffffff021916908373ffffffffffffffffffffffffffffffffffffffff160217905550808273ffffffffffffffffffffffffffffffffffffffff16600073ffffffffffffffffffffffffffffffffffffffff167fddf252ad1be2c89b69c2b068fc378daa952ba7f163c4a11628f55a4df523b3ef60405160405180910390a461357560008383613059565b5050565b6000808273ffffffffffffffffffffffffffffffffffffffff163b119050919050565b6040518060800160405280600081526020016000815260200160008152602001600081525090565b8280546135d090613fb1565b90600052602060002090601f0160209004810192826135f25760008555613639565b82601f1061360b57805160ff1916838001178555613639565b82800160010185558215613639579182015b8281111561363857825182559160200191906001019061361d565b5b509050613646919061364a565b5090565b5b8082111561366357600081600090555060010161364b565b5090565b6000604051905090565b600080fd5b600080fd5b60007fffffffff0000000000000000000000000000000000000000000000000000000082169050919050565b6136b08161367b565b81146136bb57600080fd5b50565b6000813590506136cd816136a7565b92915050565b6000602082840312156136e9576136e8613671565b5b60006136f7848285016136be565b91505092915050565b60008115159050919050565b61371581613700565b82525050565b6000602082019050613730600083018461370c565b92915050565b600081519050919050565b600082825260208201905092915050565b60005b83811015613770578082015181840152602081019050613755565b8381111561377f576000848401525b50505050565b6000601f19601f8301169050919050565b60006137a182613736565b6137ab8185613741565b93506137bb818560208601613752565b6137c481613785565b840191505092915050565b600060208201905081810360008301526137e98184613796565b905092915050565b6000819050919050565b613804816137f1565b811461380f57600080fd5b50565b600081359050613821816137fb565b92915050565b60006020828403121561383d5761383c613671565b5b600061384b84828501613812565b91505092915050565b600073ffffffffffffffffffffffffffffffffffffffff82169050919050565b600061387f82613854565b9050919050565b61388f81613874565b82525050565b60006020820190506138aa6000830184613886565b92915050565b6138b981613874565b81146138c457600080fd5b50565b6000813590506138d6816138b0565b92915050565b600080604083850312156138f3576138f2613671565b5b6000613901858286016138c7565b925050602061391285828601613812565b9150509250929050565b613925816137f1565b82525050565b6000602082019050613940600083018461391c565b92915050565b600080fd5b600080fd5b7f4e487b7100000000000000000000000000000000000000000000000000000000600052604160045260246000fd5b61398882613785565b810181811067ffffffffffffffff821117156139a7576139a6613950565b5b80604052505050565b60006139ba613667565b90506139c6828261397f565b919050565b600067ffffffffffffffff8211156139e6576139e5613950565b5b6139ef82613785565b9050602081019050919050565b82818337600083830152505050565b6000613a1e613a19846139cb565b6139b0565b905082815260208101848484011115613a3a57613a3961394b565b5b613a458482856139fc565b509392505050565b600082601f830112613a6257613a61613946565b5b8135613a72848260208601613a0b565b91505092915050565b60008060008060808587031215613a9557613a94613671565b5b6000613aa3878288016138c7565b9450506020613ab4878288016138c7565b9350506040613ac587828801613812565b925050606085013567ffffffffffffffff811115613ae657613ae5613676565b5b613af287828801613a4d565b91505092959194509250565b613b078161367b565b82525050565b6000602082019050613b226000830184613afe565b92915050565b600067ffffffffffffffff821115613b4357613b42613950565b5b602082029050602081019050919050565b600080fd5b6000613b6c613b6784613b28565b6139b0565b90508083825260208201905060208402830185811115613b8f57613b8e613b54565b5b835b81811015613bb85780613ba48882613812565b845260208401935050602081019050613b91565b5050509392505050565b600082601f830112613bd757613bd6613946565b5b8135613be7848260208601613b59565b91505092915050565b60008060408385031215613c0757613c06613671565b5b6000613c1585828601613812565b925050602083013567ffffffffffffffff811115613c3657613c35613676565b5b613c4285828601613bc2565b9150509250929050565b600080600060608486031215613c6557613c64613671565b5b6000613c73868287016138c7565b9350506020613c84868287016138c7565b9250506040613c9586828701613812565b9150509250925092565b600060208284031215613cb557613cb4613671565b5b6000613cc3848285016138c7565b91505092915050565b600081519050919050565b600082825260208201905092915050565b6000819050602082019050919050565b613d01816137f1565b82525050565b6000613d138383613cf8565b60208301905092915050565b6000602082019050919050565b6000613d3782613ccc565b613d418185613cd7565b9350613d4c83613ce8565b8060005b83811015613d7d578151613d648882613d07565b9750613d6f83613d1f565b925050600181019050613d50565b5085935050505092915050565b60006020820190508181036000830152613da48184613d2c565b905092915050565b60008060008060808587031215613dc657613dc5613671565b5b6000613dd487828801613812565b9450506020613de587828801613812565b9350506040613df687828801613812565b9250506060613e0787828801613812565b91505092959194509250565b613e1c81613700565b8114613e2757600080fd5b50565b600081359050613e3981613e13565b92915050565b60008060408385031215613e5657613e55613671565b5b6000613e64858286016138c7565b9250506020613e7585828601613e2a565b9150509250929050565b608082016000820151613e956000850182613cf8565b506020820151613ea86020850182613cf8565b506040820151613ebb6040850182613cf8565b506060820151613ece6060850182613cf8565b50505050565b6000608082019050613ee96000830184613e7f565b92915050565b600080600060608486031215613f0857613f07613671565b5b6000613f1686828701613812565b9350506020613f2786828701613812565b9250506040613f3886828701613812565b9150509250925092565b60008060408385031215613f5957613f58613671565b5b6000613f67858286016138c7565b9250506020613f78858286016138c7565b9150509250929050565b7f4e487b7100000000000000000000000000000000000000000000000000000000600052602260045260246000fd5b60006002820490506001821680613fc957607f821691505b602082108103613fdc57613fdb613f82565b5b50919050565b7f5265656e7472616e637947756172643a207265656e7472616e742063616c6c00600082015250565b6000614018601f83613741565b915061402382613fe2565b602082019050919050565b600060208201905081810360008301526140478161400b565b9050919050565b7f4e487b7100000000000000000000000000000000000000000000000000000000600052601160045260246000fd5b6000614088826137f1565b91506000820361409b5761409a61404e565b5b600182039050919050565b6000819050919050565b60006140cb6140c66140c184613854565b6140a6565b613854565b9050919050565b60006140dd826140b0565b9050919050565b60006140ef826140d2565b9050919050565b6140ff816140e4565b82525050565b600060608201905061411a6000830186613886565b61412760208301856140f6565b614134604083018461391c565b949350505050565b7f4552433732313a20617070726f76656420717565727920666f72206e6f6e657860008201527f697374656e7420746f6b656e0000000000000000000000000000000000000000602082015250565b6000614198602c83613741565b91506141a38261413c565b604082019050919050565b600060208201905081810360008301526141c78161418b565b9050919050565b7f4552433732313a20617070726f76616c20746f2063757272656e74206f776e6560008201527f7200000000000000000000000000000000000000000000000000000000000000602082015250565b600061422a602183613741565b9150614235826141ce565b604082019050919050565b600060208201905081810360008301526142598161421d565b9050919050565b7f4552433732313a20617070726f76652063616c6c6572206973206e6f74206f7760008201527f6e6572206e6f7220617070726f76656420666f7220616c6c0000000000000000602082015250565b60006142bc603883613741565b91506142c782614260565b604082019050919050565b600060208201905081810360008301526142eb816142af565b9050919050565b7f4f776e61626c653a2063616c6c6572206973206e6f7420746865206f776e6572600082015250565b6000614328602083613741565b9150614333826142f2565b602082019050919050565b600060208201905081810360008301526143578161431b565b9050919050565b60006040820190506143736000830185613886565b6143806020830184613886565b9392505050565b7f4552433732313a207472616e736665722063616c6c6572206973206e6f74206f60008201527f776e6572206e6f7220617070726f766564000000000000000000000000000000602082015250565b60006143e3603183613741565b91506143ee82614387565b604082019050919050565b60006020820190508181036000830152614412816143d6565b9050919050565b7f4e487b7100000000000000000000000000000000000000000000000000000000600052603260045260246000fd5b600060ff82169050919050565b600061446082614448565b915060ff82036144735761447261404e565b5b600182019050919050565b6000614489826137f1565b9150614494836137f1565b9250828210156144a7576144a661404e565b5b828203905092915050565b60006040820190506144c7600083018561391c565b6144d4602083018461391c565b9392505050565b7f4e487b7100000000000000000000000000000000000000000000000000000000600052601260045260246000fd5b6000614515826137f1565b9150614520836137f1565b9250826145305761452f6144db565b5b828206905092915050565b6000614546826137f1565b91507fffffffffffffffffffffffffffffffffffffffffffffffffffffffffffffffff82036145785761457761404e565b5b600182019050919050565b50565b6000614593600083613741565b915061459e82614583565b600082019050919050565b600060208201905081810360008301526145c281614586565b9050919050565b600081905092915050565b60006145e16000836145c9565b91506145ec82614583565b600082019050919050565b6000614602826145d4565b9150819050919050565b7f4552433732313a206f776e657220717565727920666f72206e6f6e657869737460008201527f656e7420746f6b656e0000000000000000000000000000000000000000000000602082015250565b6000614668602983613741565b91506146738261460c565b604082019050919050565b600060208201905081810360008301526146978161465b565b9050919050565b7f4e6f7420656e6f756768204554482073656e743b20636865636b20707269636560008201527f2100000000000000000000000000000000000000000000000000000000000000602082015250565b60006146fa602183613741565b91506147058261469e565b604082019050919050565b60006020820190508181036000830152614729816146ed565b9050919050565b600081905092915050565b60008190508160005260206000209050919050565b6000815461475d81613fb1565b6147678186614730565b945060018216600081146147825760018114614793576147c6565b60ff198316865281860193506147c6565b61479c8561473b565b60005b838110156147be5781548189015260018201915060208101905061479f565b838801955050505b50505092915050565b60006147da82613736565b6147e48185614730565b93506147f4818560208601613752565b80840191505092915050565b600061480c8286614750565b915061481882856147cf565b91506148248284614750565b9150819050949350505050565b7f4552433732313a2062616c616e636520717565727920666f7220746865207a6560008201527f726f206164647265737300000000000000000000000000000000000000000000602082015250565b600061488d602a83613741565b915061489882614831565b604082019050919050565b600060208201905081810360008301526148bc81614880565b9050919050565b7f45524337323155524953746f726167653a2055524920717565727920666f722060008201527f6e6f6e6578697374656e7420746f6b656e000000000000000000000000000000602082015250565b600061491f603183613741565b915061492a826148c3565b604082019050919050565b6000602082019050818103600083015261494e81614912565b9050919050565b600061496182856147cf565b915061496d82846147cf565b91508190509392505050565b6000614984826137f1565b915061498f836137f1565b92508261499f5761499e6144db565b5b828204905092915050565b60006149b5826137f1565b91506149c0836137f1565b9250827fffffffffffffffffffffffffffffffffffffffffffffffffffffffffffffffff038211156149f5576149f461404e565b5b828201905092915050565b6000606082019050614a156000830186613886565b614a226020830185613886565b614a2f604083018461391c565b949350505050565b6000606082019050614a4c600083018661391c565b614a59602083018561391c565b614a66604083018461391c565b949350505050565b6000819050919050565b614a8181614a6e565b82525050565b600067ffffffffffffffff82169050919050565b614aa481614a87565b82525050565b600061ffff82169050919050565b614ac181614aaa565b82525050565b600063ffffffff82169050919050565b614ae081614ac7565b82525050565b600060a082019050614afb6000830188614a78565b614b086020830187614a9b565b614b156040830186614ab8565b614b226060830185614ad7565b614b2f6080830184614ad7565b9695505050505050565b600081519050614b48816137fb565b92915050565b600060208284031215614b6457614b63613671565b5b6000614b7284828501614b39565b91505092915050565b7f4f776e61626c653a206e6577206f776e657220697320746865207a65726f206160008201527f6464726573730000000000000000000000000000000000000000000000000000602082015250565b6000614bd7602683613741565b9150614be282614b7b565b604082019050919050565b60006020820190508181036000830152614c0681614bca565b9050919050565b7f4552433732313a206f70657261746f7220717565727920666f72206e6f6e657860008201527f697374656e7420746f6b656e0000000000000000000000000000000000000000602082015250565b6000614c69602c83613741565b9150614c7482614c0d565b604082019050919050565b60006020820190508181036000830152614c9881614c5c565b9050919050565b7f4552433732313a207472616e736665722066726f6d20696e636f72726563742060008201527f6f776e6572000000000000000000000000000000000000000000000000000000602082015250565b6000614cfb602583613741565b9150614d0682614c9f565b604082019050919050565b60006020820190508181036000830152614d2a81614cee565b9050919050565b7f4552433732313a207472616e7366657220746f20746865207a65726f2061646460008201527f7265737300000000000000000000000000000000000000000000000000000000602082015250565b6000614d8d602483613741565b9150614d9882614d31565b604082019050919050565b60006020820190508181036000830152614dbc81614d80565b9050919050565b7f45524337323155524953746f726167653a2055524920736574206f66206e6f6e60008201527f6578697374656e7420746f6b656e000000000000000000000000000000000000602082015250565b6000614e1f602e83613741565b9150614e2a82614dc3565b604082019050919050565b60006020820190508181036000830152614e4e81614e12565b9050919050565b7f4552433732313a20617070726f766520746f2063616c6c657200000000000000600082015250565b6000614e8b601983613741565b9150614e9682614e55565b602082019050919050565b60006020820190508181036000830152614eba81614e7e565b9050919050565b7f4552433732313a207472616e7366657220746f206e6f6e20455243373231526560008201527f63656976657220696d706c656d656e7465720000000000000000000000000000602082015250565b6000614f1d603283613741565b9150614f2882614ec1565b604082019050919050565b60006020820190508181036000830152614f4c81614f10565b9050919050565b7f4552433732314d657461646174613a2055524920717565727920666f72206e6f60008201527f6e6578697374656e7420746f6b656e0000000000000000000000000000000000602082015250565b6000614faf602f83613741565b9150614fba82614f53565b604082019050919050565b60006020820190508181036000830152614fde81614fa2565b9050919050565b600081519050919050565b600082825260208201905092915050565b600061500c82614fe5565b6150168185614ff0565b9350615026818560208601613752565b61502f81613785565b840191505092915050565b600060808201905061504f6000830187613886565b61505c6020830186613886565b615069604083018561391c565b818103606083015261507b8184615001565b905095945050505050565b600081519050615095816136a7565b92915050565b6000602082840312156150b1576150b0613671565b5b60006150bf84828501615086565b91505092915050565b7f4552433732313a206d696e7420746f20746865207a65726f2061646472657373600082015250565b60006150fe602083613741565b9150615109826150c8565b602082019050919050565b6000602082019050818103600083015261512d816150f1565b9050919050565b7f4552433732313a20746f6b656e20616c7265616479206d696e74656400000000600082015250565b600061516a601c83613741565b915061517582615134565b602082019050919050565b600060208201905081810360008301526151998161515d565b905091905056fea2646970667358221220eceb7fff29ed7037c26020127a7801dc39d97af26da79c8e5b81e6e31f23e92b64736f6c634300080d003368747470733a2f2f6169617274732e73746f726167652e676f6f676c65617069732e636f6d2f6d657461646174612f",
  "immutableReferences": {
    "10": [
      {
        "length": 32,
        "start": 3551
      },
      {
        "length": 32,
        "start": 3635
      }
    ]
  },
  "source": "pragma solidity 0.8.13;\r\n\r\nimport \"../node_modules/@openzeppelin/contracts/token/ERC721/ERC721.sol\";\r\nimport \"../node_modules/@openzeppelin/contracts/access/Ownable.sol\";\r\nimport \"../node_modules/@openzeppelin/contracts/security/ReentrancyGuard.sol\";\r\nimport \"../node_modules/@openzeppelin/contracts/token/ERC721/extensions/ERC721URIStorage.sol\";\r\nimport \"@chainlink/contracts/src/v0.8/interfaces/VRFCoordinatorV2Interface.sol\";\r\nimport \"@chainlink/contracts/src/v0.8/VRFConsumerBaseV2.sol\";\r\n\r\ncontract Token is Ownable, IERC721Receiver, ReentrancyGuard, VRFConsumerBaseV2, ERC721URIStorage {\r\n    \r\n\r\n    /////////////////////////////////Random number//////////////////////////////\r\n    VRFCoordinatorV2Interface COORDINATOR;\r\n\r\n    // Your subscription ID.\r\n    uint64 s_subscriptionId;\r\n\r\n    // Rinkeby coordinator. For other networks,\r\n    // see https://docs.chain.link/docs/vrf-contracts/#configurations\r\n    address vrfCoordinator = 0x6168499c0cFfCaCD319c818142124B7A15E857ab;\r\n\r\n    // The gas lane to use, which specifies the maximum gas price to bump to.\r\n    // For a list of available gas lanes on each network,\r\n    // see https://docs.chain.link/docs/vrf-contracts/#configurations\r\n    bytes32 keyHash = 0xd89b2bf150e3b9e13446986e571fb9cab24b13cea0a43ea20a6049a85cc807cc;\r\n\r\n    // Depends on the number of requested values that you want sent to the\r\n    // fulfillRandomWords() function. Storing each word costs about 20,000 gas,\r\n    // so 100,000 is a safe default for this example contract. Test and adjust\r\n    // this limit based on the network that you select, the size of the request,\r\n    // and the processing of the callback request in the fulfillRandomWords()\r\n    // function.\r\n    uint32 callbackGasLimit = 100000;\r\n\r\n    // The default is 3, but you can set this higher.\r\n    uint16 requestConfirmations = 3;\r\n\r\n    // For this example, retrieve 2 random values in one request.\r\n    // Cannot exceed VRFCoordinatorV2.MAX_NUM_WORDS.\r\n    uint32 numWords =  1;\r\n\r\n    uint256 private baseSeed;\r\n    uint256 public s_requestId;\r\n    address s_owner;\r\n    // Assumes the subscription is funded sufficiently.\r\n    function requestRandomWords() external onlyOwner {\r\n        // Will revert if subscription is not set and funded.\r\n        s_requestId = COORDINATOR.requestRandomWords(keyHash,s_subscriptionId,requestConfirmations,callbackGasLimit,numWords);\r\n    }\r\n    \r\n    function fulfillRandomWords(uint256, uint256[] memory randomWords) internal override {\r\n        baseSeed = randomWords[0];\r\n    }\r\n\r\n    constructor (string memory name, string memory symbol, uint64 subscriptionId) ERC721(name, symbol) VRFConsumerBaseV2(vrfCoordinator) {\r\n        COORDINATOR = VRFCoordinatorV2Interface(vrfCoordinator);\r\n        s_owner = msg.sender;\r\n        s_subscriptionId = subscriptionId;\r\n        totalSupply = 5;\r\n    }\r\n\r\n    uint256 increment = 0;\r\n    uint256[100] private order;\r\n    uint256 totalSupply;\r\n    function shuffle() external{\r\n        uint256[] memory unshuffled = new uint256[](totalSupply);\r\n        uint8 i;\r\n        for (i=0; i < totalSupply; i++) {\r\n            unshuffled[i] = i;\r\n        }\r\n        uint idx;\r\n        for (i=0; i < totalSupply; i++) {\r\n            idx = uint256(keccak256(abi.encode(baseSeed, increment))) % (totalSupply - i);\r\n            increment++;\r\n            order[i] = unshuffled[idx];\r\n            unshuffled[idx] = unshuffled[totalSupply - i - 1];\r\n        }\r\n    }\r\n\r\n    function getOrder() external view returns (uint256[] memory){\r\n        uint256[] memory result = new uint256[](totalSupply);\r\n        uint256 i;\r\n        for(i=0; i < totalSupply; i++)\r\n        {\r\n            result[i] = order[i];\r\n        }\r\n        return result;\r\n    }\r\n\r\n\r\n    /////////////////////////////////Random number//////////////////////////////\r\n\r\n\r\n    event Mint(address indexed owner, uint256 indexed tokenId, uint256 timestamp);\r\n    event ListAnItem(address indexed owner, uint256 indexed tokenId, uint256 price, uint256 duration, uint256 timestamp);\r\n    event CancelAnListedItem(address indexed owner, uint256 indexed tokenId, uint256 timestamp);\r\n    event PurchaseAnItem(address indexed buyer, uint256 indexed tokenId, address indexed seller, uint256 price, uint256 timestamp);\r\n    /////////////////////////////////////////////Token Contract///////////////////////////////////////////////////\r\n\r\n    struct AIA {\r\n        uint256 attribute1; \r\n        uint256 attribute2;\r\n        uint256 attribute3;\r\n        uint256 attribute4;\r\n    }\r\n\r\n    uint256 private nextId = 0;\r\n    \r\n    mapping (uint256 => AIA) private _tokenDetails;\r\n\r\n    string prefix = \"https://aiarts.storage.googleapis.com/metadata/\";\r\n    string sub = \".json\";\r\n\r\n    function mint(uint256 attribute1, uint256 attribute2, uint256 attribute3, uint256 attribute4) external payable {\r\n        require(msg.value >= 0.01 ether, \"Not enough ETH sent; check price!\");\r\n        _tokenDetails[nextId] = AIA(order[nextId], attribute2, attribute3, attribute4);\r\n        _safeMint(msg.sender, nextId);\r\n        _setTokenURI(nextId,  string(abi.encodePacked(prefix, uintToString(order[nextId]), sub)));\r\n        emit Mint(msg.sender, nextId, block.timestamp);\r\n        nextId++;\r\n    }\r\n\r\n    function getTokenDetails (uint256 tokenId) public view returns (AIA memory){\r\n        return _tokenDetails[tokenId];\r\n    }\r\n\r\n    function getBalance() public view onlyOwner returns (uint256){\r\n        return address(this).balance;\r\n    }\r\n\r\n    function withdrawBalance() external payable onlyOwner {\r\n        require(msg.sender == owner(), \"\");\r\n        (bool sent, bytes memory data) = payable(address(owner())).call{value:address(this).balance}(\"\");\r\n\r\n    }\r\n\r\n    function getAllTokensForUser(address user) public view returns (uint256[] memory){\r\n        uint256 tokenCount = balanceOf(user);\r\n        if(tokenCount ==0){\r\n            return new uint256[](0);\r\n        }\r\n        else{\r\n            uint256[] memory result = new uint256[](tokenCount);\r\n            uint256 totalAIAs = nextId;\r\n            uint256 resultIndex = 0;\r\n            uint256 i;\r\n            for(i=0; i < totalAIAs; i++)\r\n            {\r\n                if(ownerOf(i) == user)\r\n                {\r\n                    result[resultIndex] = i;\r\n                    resultIndex++;\r\n                }\r\n            }\r\n            return result;\r\n        }\r\n    }\r\n\r\n\r\n\r\n    /////////////////////////////////////////////Marketplace Contract//////////////////////////////////////////////\r\n\r\n    struct Item {\r\n        address payable seller;\r\n        uint256 price;\r\n        uint256 duration;\r\n        uint256 startedAt;\r\n        bool isSelling;\r\n    }\r\n\r\n    mapping (address => uint256) userToListedItems;\r\n    mapping (uint256 => Item) tokenIdToItem;\r\n\r\n    function sell(uint256 _tokenId, uint256 _price, uint256 _duration) external nonReentrant {\r\n        require(ownerOf(_tokenId) == msg.sender);\r\n        require(_duration >= 1 minutes);\r\n        tokenIdToItem[_tokenId] = Item(\r\n            payable(msg.sender),\r\n            _price,\r\n            _duration,\r\n            block.timestamp,\r\n            true\r\n        );\r\n        safeTransferFrom(msg.sender, address(this), _tokenId);\r\n        userToListedItems[msg.sender] ++;\r\n        emit ListAnItem(msg.sender, _tokenId, _price, _duration, block.timestamp);\r\n    }\r\n\r\n    function cancelSell(uint256 _tokenId) external nonReentrant {\r\n        Item storage item = tokenIdToItem[_tokenId];\r\n        require(item.startedAt > 0);\r\n        require(item.isSelling);\r\n        require(msg.sender == item.seller);\r\n        userToListedItems[msg.sender] --;\r\n        item.isSelling = false;\r\n        this.safeTransferFrom(address(this), item.seller, _tokenId);\r\n        delete tokenIdToItem[_tokenId];\r\n        emit CancelAnListedItem(msg.sender, _tokenId, block.timestamp);\r\n    }\r\n\r\n    function purchaseItem(uint256 _tokenId) external payable nonReentrant {\r\n        // Get a reference to the auction struct\r\n        Item storage item = tokenIdToItem[_tokenId];\r\n        address payable seller = item.seller;\r\n        require(item.startedAt > 0);\r\n        require(item.isSelling);\r\n        require(item.price / 5 + item.price == msg.value);\r\n        uint256 price = item.price;\r\n        delete tokenIdToItem[_tokenId];\r\n        // Transfer proceeds to seller (if there are any!)\r\n        if (price > 0) {\r\n            (bool sent, bytes memory data) = payable(seller).call{value:price}(\"\");\r\n        }\r\n        this.safeTransferFrom(address(this), msg.sender, _tokenId);\r\n        userToListedItems[seller]--;\r\n        emit PurchaseAnItem(msg.sender, _tokenId, seller, price, block.timestamp);\r\n    }\r\n\r\n    function getListedItemsForUser(address user) public view returns (uint256[] memory){\r\n        if(userToListedItems[user] ==0){\r\n            return new uint256[](0);\r\n        }\r\n        else{\r\n            uint256[] memory result = new uint256[](userToListedItems[user]);\r\n            uint256 totalAIAs = nextId;\r\n            uint256 resultIndex = 0;\r\n            uint256 i;\r\n            for(i=0; i < totalAIAs; i++)\r\n            {\r\n                Item memory item = tokenIdToItem[i];\r\n                if(item.seller == user)\r\n                {\r\n                    result[resultIndex] = i;\r\n                    resultIndex++;\r\n                }\r\n            }\r\n            return result;\r\n        }\r\n    }\r\n\r\n\r\n    /////////////////////////////////////////////Helper Functions///////////////////////////////////////////////////\r\n    function onERC721Received(address, address, uint256, bytes memory) public virtual override returns (bytes4) {\r\n        return this.onERC721Received.selector;\r\n    }\r\n\r\n    function uintToString(uint v) public pure returns (string memory) {\r\n        if (v == 0){\r\n            string memory zero = \"0\";\r\n            return zero;\r\n        }\r\n        uint maxlength = 100;\r\n        bytes memory reversed = new bytes(maxlength);\r\n        uint i = 0;\r\n        while (v != 0) {\r\n            uint remainder = v % 10;\r\n            v = v / 10;\r\n            reversed[i++] = bytes1(uint8(48 + remainder));\r\n        }\r\n        bytes memory s = new bytes(i); // i + 1 is inefficient\r\n        for (uint j = 0; j < i; j++) {\r\n            s[j] = reversed[i - j - 1]; // to avoid the off-by-one error\r\n        }\r\n        string memory str = string(s);  // memory isn't implicitly convertible to storage\r\n        return str;\r\n    }\r\n}",
  "sourcePath": "C:\\Users\\Niven\\Documents\\AIA\\contracts\\Token.sol",
  "compiler": {
    "name": "solc",
    "version": "0.8.13+commit.abaa5c0e.Emscripten.clang"
  },
  "schemaVersion": "3.4.6",
  "updatedAt": "2022-04-11T04:17:46.233Z",
  "networkType": "ethereum",
  "devdoc": {
    "kind": "dev",
    "methods": {
      "approve(address,uint256)": {
        "details": "See {IERC721-approve}."
      },
      "balanceOf(address)": {
        "details": "See {IERC721-balanceOf}."
      },
      "getApproved(uint256)": {
        "details": "See {IERC721-getApproved}."
      },
      "isApprovedForAll(address,address)": {
        "details": "See {IERC721-isApprovedForAll}."
      },
      "name()": {
        "details": "See {IERC721Metadata-name}."
      },
      "owner()": {
        "details": "Returns the address of the current owner."
      },
      "ownerOf(uint256)": {
        "details": "See {IERC721-ownerOf}."
      },
      "renounceOwnership()": {
        "details": "Leaves the contract without owner. It will not be possible to call `onlyOwner` functions anymore. Can only be called by the current owner. NOTE: Renouncing ownership will leave the contract without an owner, thereby removing any functionality that is only available to the owner."
      },
      "safeTransferFrom(address,address,uint256)": {
        "details": "See {IERC721-safeTransferFrom}."
      },
      "safeTransferFrom(address,address,uint256,bytes)": {
        "details": "See {IERC721-safeTransferFrom}."
      },
      "setApprovalForAll(address,bool)": {
        "details": "See {IERC721-setApprovalForAll}."
      },
      "supportsInterface(bytes4)": {
        "details": "See {IERC165-supportsInterface}."
      },
      "symbol()": {
        "details": "See {IERC721Metadata-symbol}."
      },
      "tokenURI(uint256)": {
        "details": "See {IERC721Metadata-tokenURI}."
      },
      "transferFrom(address,address,uint256)": {
        "details": "See {IERC721-transferFrom}."
      },
      "transferOwnership(address)": {
        "details": "Transfers ownership of the contract to a new account (`newOwner`). Can only be called by the current owner."
      }
    },
    "version": 1
  },
  "userdoc": {
    "kind": "user",
    "methods": {},
    "version": 1
  }
}