{
  "contractName": "Token",
  "abi": [
    {
      "inputs": [
        {
          "internalType": "string",
          "name": "name",
          "type": "string"
        },
        {
          "internalType": "string",
          "name": "symbol",
          "type": "string"
        }
      ],
      "stateMutability": "nonpayable",
      "type": "constructor"
    },
    {
      "anonymous": false,
      "inputs": [
        {
          "indexed": true,
          "internalType": "address",
          "name": "owner",
          "type": "address"
        },
        {
          "indexed": true,
          "internalType": "address",
          "name": "approved",
          "type": "address"
        },
        {
          "indexed": true,
          "internalType": "uint256",
          "name": "tokenId",
          "type": "uint256"
        }
      ],
      "name": "Approval",
      "type": "event"
    },
    {
      "anonymous": false,
      "inputs": [
        {
          "indexed": true,
          "internalType": "address",
          "name": "owner",
          "type": "address"
        },
        {
          "indexed": true,
          "internalType": "address",
          "name": "operator",
          "type": "address"
        },
        {
          "indexed": false,
          "internalType": "bool",
          "name": "approved",
          "type": "bool"
        }
      ],
      "name": "ApprovalForAll",
      "type": "event"
    },
    {
      "anonymous": false,
      "inputs": [
        {
          "indexed": true,
          "internalType": "address",
          "name": "owner",
          "type": "address"
        },
        {
          "indexed": true,
          "internalType": "uint256",
          "name": "tokenId",
          "type": "uint256"
        },
        {
          "indexed": false,
          "internalType": "uint256",
          "name": "timestamp",
          "type": "uint256"
        }
      ],
      "name": "CancelAnListedItem",
      "type": "event"
    },
    {
      "anonymous": false,
      "inputs": [
        {
          "indexed": true,
          "internalType": "address",
          "name": "owner",
          "type": "address"
        },
        {
          "indexed": true,
          "internalType": "uint256",
          "name": "tokenId",
          "type": "uint256"
        },
        {
          "indexed": false,
          "internalType": "uint256",
          "name": "price",
          "type": "uint256"
        },
        {
          "indexed": false,
          "internalType": "uint256",
          "name": "duration",
          "type": "uint256"
        },
        {
          "indexed": false,
          "internalType": "uint256",
          "name": "timestamp",
          "type": "uint256"
        }
      ],
      "name": "ListAnItem",
      "type": "event"
    },
    {
      "anonymous": false,
      "inputs": [
        {
          "indexed": true,
          "internalType": "address",
          "name": "owner",
          "type": "address"
        },
        {
          "indexed": true,
          "internalType": "uint256",
          "name": "tokenId",
          "type": "uint256"
        },
        {
          "indexed": false,
          "internalType": "uint256",
          "name": "timestamp",
          "type": "uint256"
        }
      ],
      "name": "Mint",
      "type": "event"
    },
    {
      "anonymous": false,
      "inputs": [
        {
          "indexed": true,
          "internalType": "address",
          "name": "previousOwner",
          "type": "address"
        },
        {
          "indexed": true,
          "internalType": "address",
          "name": "newOwner",
          "type": "address"
        }
      ],
      "name": "OwnershipTransferred",
      "type": "event"
    },
    {
      "anonymous": false,
      "inputs": [
        {
          "indexed": true,
          "internalType": "address",
          "name": "buyer",
          "type": "address"
        },
        {
          "indexed": true,
          "internalType": "uint256",
          "name": "tokenId",
          "type": "uint256"
        },
        {
          "indexed": true,
          "internalType": "address",
          "name": "seller",
          "type": "address"
        },
        {
          "indexed": false,
          "internalType": "uint256",
          "name": "price",
          "type": "uint256"
        },
        {
          "indexed": false,
          "internalType": "uint256",
          "name": "timestamp",
          "type": "uint256"
        }
      ],
      "name": "PurchaseAnItem",
      "type": "event"
    },
    {
      "anonymous": false,
      "inputs": [
        {
          "indexed": true,
          "internalType": "address",
          "name": "from",
          "type": "address"
        },
        {
          "indexed": true,
          "internalType": "address",
          "name": "to",
          "type": "address"
        },
        {
          "indexed": true,
          "internalType": "uint256",
          "name": "tokenId",
          "type": "uint256"
        }
      ],
      "name": "Transfer",
      "type": "event"
    },
    {
      "inputs": [
        {
          "internalType": "address",
          "name": "to",
          "type": "address"
        },
        {
          "internalType": "uint256",
          "name": "tokenId",
          "type": "uint256"
        }
      ],
      "name": "approve",
      "outputs": [],
      "stateMutability": "nonpayable",
      "type": "function"
    },
    {
      "inputs": [
        {
          "internalType": "address",
          "name": "owner",
          "type": "address"
        }
      ],
      "name": "balanceOf",
      "outputs": [
        {
          "internalType": "uint256",
          "name": "",
          "type": "uint256"
        }
      ],
      "stateMutability": "view",
      "type": "function",
      "constant": true
    },
    {
      "inputs": [
        {
          "internalType": "uint256",
          "name": "tokenId",
          "type": "uint256"
        }
      ],
      "name": "getApproved",
      "outputs": [
        {
          "internalType": "address",
          "name": "",
          "type": "address"
        }
      ],
      "stateMutability": "view",
      "type": "function",
      "constant": true
    },
    {
      "inputs": [
        {
          "internalType": "address",
          "name": "owner",
          "type": "address"
        },
        {
          "internalType": "address",
          "name": "operator",
          "type": "address"
        }
      ],
      "name": "isApprovedForAll",
      "outputs": [
        {
          "internalType": "bool",
          "name": "",
          "type": "bool"
        }
      ],
      "stateMutability": "view",
      "type": "function",
      "constant": true
    },
    {
      "inputs": [],
      "name": "name",
      "outputs": [
        {
          "internalType": "string",
          "name": "",
          "type": "string"
        }
      ],
      "stateMutability": "view",
      "type": "function",
      "constant": true
    },
    {
      "inputs": [],
      "name": "owner",
      "outputs": [
        {
          "internalType": "address",
          "name": "",
          "type": "address"
        }
      ],
      "stateMutability": "view",
      "type": "function",
      "constant": true
    },
    {
      "inputs": [
        {
          "internalType": "uint256",
          "name": "tokenId",
          "type": "uint256"
        }
      ],
      "name": "ownerOf",
      "outputs": [
        {
          "internalType": "address",
          "name": "",
          "type": "address"
        }
      ],
      "stateMutability": "view",
      "type": "function",
      "constant": true
    },
    {
      "inputs": [],
      "name": "renounceOwnership",
      "outputs": [],
      "stateMutability": "nonpayable",
      "type": "function"
    },
    {
      "inputs": [
        {
          "internalType": "address",
          "name": "from",
          "type": "address"
        },
        {
          "internalType": "address",
          "name": "to",
          "type": "address"
        },
        {
          "internalType": "uint256",
          "name": "tokenId",
          "type": "uint256"
        }
      ],
      "name": "safeTransferFrom",
      "outputs": [],
      "stateMutability": "nonpayable",
      "type": "function"
    },
    {
      "inputs": [
        {
          "internalType": "address",
          "name": "from",
          "type": "address"
        },
        {
          "internalType": "address",
          "name": "to",
          "type": "address"
        },
        {
          "internalType": "uint256",
          "name": "tokenId",
          "type": "uint256"
        },
        {
          "internalType": "bytes",
          "name": "_data",
          "type": "bytes"
        }
      ],
      "name": "safeTransferFrom",
      "outputs": [],
      "stateMutability": "nonpayable",
      "type": "function"
    },
    {
      "inputs": [
        {
          "internalType": "address",
          "name": "operator",
          "type": "address"
        },
        {
          "internalType": "bool",
          "name": "approved",
          "type": "bool"
        }
      ],
      "name": "setApprovalForAll",
      "outputs": [],
      "stateMutability": "nonpayable",
      "type": "function"
    },
    {
      "inputs": [
        {
          "internalType": "bytes4",
          "name": "interfaceId",
          "type": "bytes4"
        }
      ],
      "name": "supportsInterface",
      "outputs": [
        {
          "internalType": "bool",
          "name": "",
          "type": "bool"
        }
      ],
      "stateMutability": "view",
      "type": "function",
      "constant": true
    },
    {
      "inputs": [],
      "name": "symbol",
      "outputs": [
        {
          "internalType": "string",
          "name": "",
          "type": "string"
        }
      ],
      "stateMutability": "view",
      "type": "function",
      "constant": true
    },
    {
      "inputs": [
        {
          "internalType": "uint256",
          "name": "tokenId",
          "type": "uint256"
        }
      ],
      "name": "tokenURI",
      "outputs": [
        {
          "internalType": "string",
          "name": "",
          "type": "string"
        }
      ],
      "stateMutability": "view",
      "type": "function",
      "constant": true
    },
    {
      "inputs": [
        {
          "internalType": "address",
          "name": "from",
          "type": "address"
        },
        {
          "internalType": "address",
          "name": "to",
          "type": "address"
        },
        {
          "internalType": "uint256",
          "name": "tokenId",
          "type": "uint256"
        }
      ],
      "name": "transferFrom",
      "outputs": [],
      "stateMutability": "nonpayable",
      "type": "function"
    },
    {
      "inputs": [
        {
          "internalType": "address",
          "name": "newOwner",
          "type": "address"
        }
      ],
      "name": "transferOwnership",
      "outputs": [],
      "stateMutability": "nonpayable",
      "type": "function"
    },
    {
      "inputs": [
        {
          "internalType": "uint256",
          "name": "attribute1",
          "type": "uint256"
        },
        {
          "internalType": "uint256",
          "name": "attribute2",
          "type": "uint256"
        },
        {
          "internalType": "uint256",
          "name": "attribute3",
          "type": "uint256"
        },
        {
          "internalType": "uint256",
          "name": "attribute4",
          "type": "uint256"
        }
      ],
      "name": "mint",
      "outputs": [],
      "stateMutability": "payable",
      "type": "function",
      "payable": true
    },
    {
      "inputs": [
        {
          "internalType": "uint256",
          "name": "tokenId",
          "type": "uint256"
        }
      ],
      "name": "getTokenDetails",
      "outputs": [
        {
          "components": [
            {
              "internalType": "uint256",
              "name": "attribute1",
              "type": "uint256"
            },
            {
              "internalType": "uint256",
              "name": "attribute2",
              "type": "uint256"
            },
            {
              "internalType": "uint256",
              "name": "attribute3",
              "type": "uint256"
            },
            {
              "internalType": "uint256",
              "name": "attribute4",
              "type": "uint256"
            }
          ],
          "internalType": "struct Token.AIA",
          "name": "",
          "type": "tuple"
        }
      ],
      "stateMutability": "view",
      "type": "function",
      "constant": true
    },
    {
      "inputs": [],
      "name": "getBalance",
      "outputs": [
        {
          "internalType": "uint256",
          "name": "",
          "type": "uint256"
        }
      ],
      "stateMutability": "view",
      "type": "function",
      "constant": true
    },
    {
      "inputs": [],
      "name": "withdrawBalance",
      "outputs": [],
      "stateMutability": "payable",
      "type": "function",
      "payable": true
    },
    {
      "inputs": [
        {
          "internalType": "address",
          "name": "user",
          "type": "address"
        }
      ],
      "name": "getAllTokensForUser",
      "outputs": [
        {
          "internalType": "uint256[]",
          "name": "",
          "type": "uint256[]"
        }
      ],
      "stateMutability": "view",
      "type": "function",
      "constant": true
    },
    {
      "inputs": [
        {
          "internalType": "uint256",
          "name": "_tokenId",
          "type": "uint256"
        },
        {
          "internalType": "uint256",
          "name": "_price",
          "type": "uint256"
        },
        {
          "internalType": "uint256",
          "name": "_duration",
          "type": "uint256"
        }
      ],
      "name": "createItemToSell",
      "outputs": [],
      "stateMutability": "nonpayable",
      "type": "function"
    },
    {
      "inputs": [
        {
          "internalType": "uint256",
          "name": "_tokenId",
          "type": "uint256"
        }
      ],
      "name": "cancelItemToSell",
      "outputs": [],
      "stateMutability": "nonpayable",
      "type": "function"
    },
    {
      "inputs": [
        {
          "internalType": "uint256",
          "name": "_tokenId",
          "type": "uint256"
        }
      ],
      "name": "purchaseItem",
      "outputs": [],
      "stateMutability": "payable",
      "type": "function",
      "payable": true
    },
    {
      "inputs": [
        {
          "internalType": "address",
          "name": "user",
          "type": "address"
        }
      ],
      "name": "getListedItemsForUser",
      "outputs": [
        {
          "internalType": "uint256[]",
          "name": "",
          "type": "uint256[]"
        }
      ],
      "stateMutability": "view",
      "type": "function",
      "constant": true
    },
    {
      "inputs": [
        {
          "internalType": "address",
          "name": "",
          "type": "address"
        },
        {
          "internalType": "address",
          "name": "",
          "type": "address"
        },
        {
          "internalType": "uint256",
          "name": "",
          "type": "uint256"
        },
        {
          "internalType": "bytes",
          "name": "",
          "type": "bytes"
        }
      ],
      "name": "onERC721Received",
      "outputs": [
        {
          "internalType": "bytes4",
          "name": "",
          "type": "bytes4"
        }
      ],
      "stateMutability": "nonpayable",
      "type": "function"
    }
  ],
  "bytecode": "0x608060405260006008553480156200001657600080fd5b506040516200470d3803806200470d83398181016040528101906200003c9190620003bd565b818181600090805190602001906200005692919062000170565b5080600190805190602001906200006f92919062000170565b5050506200009262000086620000a260201b60201c565b620000aa60201b60201c565b60016007819055505050620004a6565b600033905090565b6000600660009054906101000a900473ffffffffffffffffffffffffffffffffffffffff16905081600660006101000a81548173ffffffffffffffffffffffffffffffffffffffff021916908373ffffffffffffffffffffffffffffffffffffffff1602179055508173ffffffffffffffffffffffffffffffffffffffff168173ffffffffffffffffffffffffffffffffffffffff167f8be0079c531659141344cd1fd0a4f28419497f9722a3daafe3b4186f6b6457e060405160405180910390a35050565b8280546200017e9062000471565b90600052602060002090601f016020900481019282620001a25760008555620001ee565b82601f10620001bd57805160ff1916838001178555620001ee565b82800160010185558215620001ee579182015b82811115620001ed578251825591602001919060010190620001d0565b5b509050620001fd919062000201565b5090565b5b808211156200021c57600081600090555060010162000202565b5090565b6000604051905090565b600080fd5b600080fd5b600080fd5b600080fd5b6000601f19601f8301169050919050565b7f4e487b7100000000000000000000000000000000000000000000000000000000600052604160045260246000fd5b62000289826200023e565b810181811067ffffffffffffffff82111715620002ab57620002aa6200024f565b5b80604052505050565b6000620002c062000220565b9050620002ce82826200027e565b919050565b600067ffffffffffffffff821115620002f157620002f06200024f565b5b620002fc826200023e565b9050602081019050919050565b60005b83811015620003295780820151818401526020810190506200030c565b8381111562000339576000848401525b50505050565b6000620003566200035084620002d3565b620002b4565b90508281526020810184848401111562000375576200037462000239565b5b6200038284828562000309565b509392505050565b600082601f830112620003a257620003a162000234565b5b8151620003b48482602086016200033f565b91505092915050565b60008060408385031215620003d757620003d66200022a565b5b600083015167ffffffffffffffff811115620003f857620003f76200022f565b5b62000406858286016200038a565b925050602083015167ffffffffffffffff8111156200042a57620004296200022f565b5b62000438858286016200038a565b9150509250929050565b7f4e487b7100000000000000000000000000000000000000000000000000000000600052602260045260246000fd5b600060028204905060018216806200048a57607f821691505b602082108103620004a0576200049f62000442565b5b50919050565b61425780620004b66000396000f3fe6080604052600436106101815760003560e01c8063715018a6116100d1578063c1e037281161008a578063d38ea5bf11610064578063d38ea5bf1461058a578063e985e9c5146105a6578063f2fde38b146105e3578063f701f0721461060c57610181565b8063c1e03728146104e7578063c2af83ba14610524578063c87b56dd1461054d57610181565b8063715018a6146103eb57806382de8fe9146104025780638da5cb5b1461043f57806395d89b411461046a578063a22cb46514610495578063b88d4fde146104be57610181565b806323b872dd1161013e5780635fd8c710116101185780635fd8c7101461034b5780636352211e146103555780636582ccd31461039257806370a08231146103ae57610181565b806323b872dd146102bc5780632888df2a146102e557806342842e0e1461032257610181565b806301ffc9a71461018657806306fdde03146101c3578063081812fc146101ee578063095ea7b31461022b57806312065fe014610254578063150b7a021461027f575b600080fd5b34801561019257600080fd5b506101ad60048036038101906101a89190612bcd565b610635565b6040516101ba9190612c15565b60405180910390f35b3480156101cf57600080fd5b506101d8610717565b6040516101e59190612cc9565b60405180910390f35b3480156101fa57600080fd5b5061021560048036038101906102109190612d21565b6107a9565b6040516102229190612d8f565b60405180910390f35b34801561023757600080fd5b50610252600480360381019061024d9190612dd6565b61082e565b005b34801561026057600080fd5b50610269610945565b6040516102769190612e25565b60405180910390f35b34801561028b57600080fd5b506102a660048036038101906102a19190612f75565b6109c9565b6040516102b39190613007565b60405180910390f35b3480156102c857600080fd5b506102e360048036038101906102de9190613022565b6109dd565b005b3480156102f157600080fd5b5061030c60048036038101906103079190613075565b610a3d565b6040516103199190613160565b60405180910390f35b34801561032e57600080fd5b5061034960048036038101906103449190613022565b610cae565b005b610353610cce565b005b34801561036157600080fd5b5061037c60048036038101906103779190612d21565b610e38565b6040516103899190612d8f565b60405180910390f35b6103ac60048036038101906103a79190613182565b610ee9565b005b3480156103ba57600080fd5b506103d560048036038101906103d09190613075565b611010565b6040516103e29190612e25565b60405180910390f35b3480156103f757600080fd5b506104006110c7565b005b34801561040e57600080fd5b5061042960048036038101906104249190613075565b61114f565b6040516104369190613160565b60405180910390f35b34801561044b57600080fd5b506104546112a3565b6040516104619190612d8f565b60405180910390f35b34801561047657600080fd5b5061047f6112cd565b60405161048c9190612cc9565b60405180910390f35b3480156104a157600080fd5b506104bc60048036038101906104b79190613215565b61135f565b005b3480156104ca57600080fd5b506104e560048036038101906104e09190612f75565b611375565b005b3480156104f357600080fd5b5061050e60048036038101906105099190612d21565b6113d7565b60405161051b91906132aa565b60405180910390f35b34801561053057600080fd5b5061054b600480360381019061054691906132c5565b61142c565b005b34801561055957600080fd5b50610574600480360381019061056f9190612d21565b611662565b6040516105819190612cc9565b60405180910390f35b6105a4600480360381019061059f9190612d21565b611709565b005b3480156105b257600080fd5b506105cd60048036038101906105c89190613318565b611a13565b6040516105da9190612c15565b60405180910390f35b3480156105ef57600080fd5b5061060a60048036038101906106059190613075565b611aa7565b005b34801561061857600080fd5b50610633600480360381019061062e9190612d21565b611b9e565b005b60007f80ac58cd000000000000000000000000000000000000000000000000000000007bffffffffffffffffffffffffffffffffffffffffffffffffffffffff1916827bffffffffffffffffffffffffffffffffffffffffffffffffffffffff1916148061070057507f5b5e139f000000000000000000000000000000000000000000000000000000007bffffffffffffffffffffffffffffffffffffffffffffffffffffffff1916827bffffffffffffffffffffffffffffffffffffffffffffffffffffffff1916145b80610710575061070f82611e53565b5b9050919050565b60606000805461072690613387565b80601f016020809104026020016040519081016040528092919081815260200182805461075290613387565b801561079f5780601f106107745761010080835404028352916020019161079f565b820191906000526020600020905b81548152906001019060200180831161078257829003601f168201915b5050505050905090565b60006107b482611ebd565b6107f3576040517f08c379a00000000000000000000000000000000000000000000000000000000081526004016107ea9061342a565b60405180910390fd5b6004600083815260200190815260200160002060009054906101000a900473ffffffffffffffffffffffffffffffffffffffff169050919050565b600061083982610e38565b90508073ffffffffffffffffffffffffffffffffffffffff168373ffffffffffffffffffffffffffffffffffffffff16036108a9576040517f08c379a00000000000000000000000000000000000000000000000000000000081526004016108a0906134bc565b60405180910390fd5b8073ffffffffffffffffffffffffffffffffffffffff166108c8611f29565b73ffffffffffffffffffffffffffffffffffffffff1614806108f757506108f6816108f1611f29565b611a13565b5b610936576040517f08c379a000000000000000000000000000000000000000000000000000000000815260040161092d9061354e565b60405180910390fd5b6109408383611f31565b505050565b600061094f611f29565b73ffffffffffffffffffffffffffffffffffffffff1661096d6112a3565b73ffffffffffffffffffffffffffffffffffffffff16146109c3576040517f08c379a00000000000000000000000000000000000000000000000000000000081526004016109ba906135ba565b60405180910390fd5b47905090565b600063150b7a0260e01b9050949350505050565b6109ee6109e8611f29565b82611fea565b610a2d576040517f08c379a0000000000000000000000000000000000000000000000000000000008152600401610a249061364c565b60405180910390fd5b610a388383836120c8565b505050565b60606000600a60008473ffffffffffffffffffffffffffffffffffffffff1673ffffffffffffffffffffffffffffffffffffffff1681526020019081526020016000205403610ad757600067ffffffffffffffff811115610aa157610aa0612e4a565b5b604051908082528060200260200182016040528015610acf5781602001602082028036833780820191505090505b509050610ca9565b6000600a60008473ffffffffffffffffffffffffffffffffffffffff1673ffffffffffffffffffffffffffffffffffffffff1681526020019081526020016000205467ffffffffffffffff811115610b3257610b31612e4a565b5b604051908082528060200260200182016040528015610b605781602001602082028036833780820191505090505b509050600060085490506000805b82811015610ca1576000600b60008381526020019081526020016000206040518060a00160405290816000820160009054906101000a900473ffffffffffffffffffffffffffffffffffffffff1673ffffffffffffffffffffffffffffffffffffffff1673ffffffffffffffffffffffffffffffffffffffff1681526020016001820154815260200160028201548152602001600382015481526020016004820160009054906101000a900460ff16151515158152505090508673ffffffffffffffffffffffffffffffffffffffff16816000015173ffffffffffffffffffffffffffffffffffffffff1603610c8d5781858481518110610c7257610c7161366c565b5b6020026020010181815250508280610c89906136ca565b9350505b508080610c99906136ca565b915050610b6e565b839450505050505b919050565b610cc983838360405180602001604052806000815250611375565b505050565b610cd6611f29565b73ffffffffffffffffffffffffffffffffffffffff16610cf46112a3565b73ffffffffffffffffffffffffffffffffffffffff1614610d4a576040517f08c379a0000000000000000000000000000000000000000000000000000000008152600401610d41906135ba565b60405180910390fd5b610d526112a3565b73ffffffffffffffffffffffffffffffffffffffff163373ffffffffffffffffffffffffffffffffffffffff1614610dbf576040517f08c379a0000000000000000000000000000000000000000000000000000000008152600401610db690613738565b60405180910390fd5b600080610dca6112a3565b73ffffffffffffffffffffffffffffffffffffffff1647604051610ded90613786565b60006040518083038185875af1925050503d8060008114610e2a576040519150601f19603f3d011682016040523d82523d6000602084013e610e2f565b606091505b50915091505050565b6000806002600084815260200190815260200160002060009054906101000a900473ffffffffffffffffffffffffffffffffffffffff169050600073ffffffffffffffffffffffffffffffffffffffff168173ffffffffffffffffffffffffffffffffffffffff1603610ee0576040517f08c379a0000000000000000000000000000000000000000000000000000000008152600401610ed79061380d565b60405180910390fd5b80915050919050565b670de0b6b3a7640000341015610f34576040517f08c379a0000000000000000000000000000000000000000000000000000000008152600401610f2b9061389f565b60405180910390fd5b60405180608001604052808581526020018481526020018381526020018281525060096000600854815260200190815260200160002060008201518160000155602082015181600101556040820151816002015560608201518160030155905050610fa13360085461232e565b6008543373ffffffffffffffffffffffffffffffffffffffff167f4c209b5fc8ad50758f13e2e1088ba56a560dff690a1c6fef26394f4c03821c4f42604051610fea9190612e25565b60405180910390a360086000815480929190611005906136ca565b919050555050505050565b60008073ffffffffffffffffffffffffffffffffffffffff168273ffffffffffffffffffffffffffffffffffffffff1603611080576040517f08c379a000000000000000000000000000000000000000000000000000000000815260040161107790613931565b60405180910390fd5b600360008373ffffffffffffffffffffffffffffffffffffffff1673ffffffffffffffffffffffffffffffffffffffff168152602001908152602001600020549050919050565b6110cf611f29565b73ffffffffffffffffffffffffffffffffffffffff166110ed6112a3565b73ffffffffffffffffffffffffffffffffffffffff1614611143576040517f08c379a000000000000000000000000000000000000000000000000000000000815260040161113a906135ba565b60405180910390fd5b61114d600061234c565b565b6060600061115c83611010565b9050600081036111b857600067ffffffffffffffff81111561118157611180612e4a565b5b6040519080825280602002602001820160405280156111af5781602001602082028036833780820191505090505b5091505061129e565b60008167ffffffffffffffff8111156111d4576111d3612e4a565b5b6040519080825280602002602001820160405280156112025781602001602082028036833780820191505090505b509050600060085490506000805b82811015611295578673ffffffffffffffffffffffffffffffffffffffff1661123882610e38565b73ffffffffffffffffffffffffffffffffffffffff160361128257808483815181106112675761126661366c565b5b602002602001018181525050818061127e906136ca565b9250505b808061128d906136ca565b915050611210565b83955050505050505b919050565b6000600660009054906101000a900473ffffffffffffffffffffffffffffffffffffffff16905090565b6060600180546112dc90613387565b80601f016020809104026020016040519081016040528092919081815260200182805461130890613387565b80156113555780601f1061132a57610100808354040283529160200191611355565b820191906000526020600020905b81548152906001019060200180831161133857829003601f168201915b5050505050905090565b61137161136a611f29565b8383612412565b5050565b611386611380611f29565b83611fea565b6113c5576040517f08c379a00000000000000000000000000000000000000000000000000000000081526004016113bc9061364c565b60405180910390fd5b6113d18484848461257e565b50505050565b6113df612b39565b600960008381526020019081526020016000206040518060800160405290816000820154815260200160018201548152602001600282015481526020016003820154815250509050919050565b600260075403611471576040517f08c379a00000000000000000000000000000000000000000000000000000000081526004016114689061399d565b60405180910390fd5b60026007819055503373ffffffffffffffffffffffffffffffffffffffff1661149984610e38565b73ffffffffffffffffffffffffffffffffffffffff16146114b957600080fd5b603c8110156114c757600080fd5b6040518060a001604052803373ffffffffffffffffffffffffffffffffffffffff16815260200183815260200182815260200142815260200160011515815250600b600085815260200190815260200160002060008201518160000160006101000a81548173ffffffffffffffffffffffffffffffffffffffff021916908373ffffffffffffffffffffffffffffffffffffffff16021790555060208201518160010155604082015181600201556060820151816003015560808201518160040160006101000a81548160ff0219169083151502179055509050506115ad333085610cae565b600a60003373ffffffffffffffffffffffffffffffffffffffff1673ffffffffffffffffffffffffffffffffffffffff16815260200190815260200160002060008154809291906115fd906136ca565b9190505550823373ffffffffffffffffffffffffffffffffffffffff167f1bd18fbc31b1648a85db1b4d7adc8ab1d87907cf79c519431985f3b8990b64cc84844260405161164d939291906139bd565b60405180910390a36001600781905550505050565b606061166d82611ebd565b6116ac576040517f08c379a00000000000000000000000000000000000000000000000000000000081526004016116a390613a66565b60405180910390fd5b60006116b66125da565b905060008151116116d65760405180602001604052806000815250611701565b806116e0846125f1565b6040516020016116f1929190613ac2565b6040516020818303038152906040525b915050919050565b60026007540361174e576040517f08c379a00000000000000000000000000000000000000000000000000000000081526004016117459061399d565b60405180910390fd5b60026007819055506000600b6000838152602001908152602001600020905060008160000160009054906101000a900473ffffffffffffffffffffffffffffffffffffffff16905060008260030154116117a757600080fd5b8160040160009054906101000a900460ff166117c257600080fd5b348260010154600584600101546117d99190613b15565b6117e39190613b46565b146117ed57600080fd5b600082600101549050600b6000858152602001908152602001600020600080820160006101000a81549073ffffffffffffffffffffffffffffffffffffffff02191690556001820160009055600282016000905560038201600090556004820160006101000a81549060ff0219169055505060008111156118d9576000808373ffffffffffffffffffffffffffffffffffffffff168360405161188f90613786565b60006040518083038185875af1925050503d80600081146118cc576040519150601f19603f3d011682016040523d82523d6000602084013e6118d1565b606091505b509150915050505b3073ffffffffffffffffffffffffffffffffffffffff166342842e0e3033876040518463ffffffff1660e01b815260040161191693929190613b9c565b600060405180830381600087803b15801561193057600080fd5b505af1158015611944573d6000803e3d6000fd5b50505050600a60008373ffffffffffffffffffffffffffffffffffffffff1673ffffffffffffffffffffffffffffffffffffffff168152602001908152602001600020600081548092919061199890613bd3565b91905055508173ffffffffffffffffffffffffffffffffffffffff16843373ffffffffffffffffffffffffffffffffffffffff167f478956c967ca99f4651fef2663546a452561b806dd5b5818ad086a2f4785118684426040516119fd929190613bfc565b60405180910390a4505050600160078190555050565b6000600560008473ffffffffffffffffffffffffffffffffffffffff1673ffffffffffffffffffffffffffffffffffffffff16815260200190815260200160002060008373ffffffffffffffffffffffffffffffffffffffff1673ffffffffffffffffffffffffffffffffffffffff16815260200190815260200160002060009054906101000a900460ff16905092915050565b611aaf611f29565b73ffffffffffffffffffffffffffffffffffffffff16611acd6112a3565b73ffffffffffffffffffffffffffffffffffffffff1614611b23576040517f08c379a0000000000000000000000000000000000000000000000000000000008152600401611b1a906135ba565b60405180910390fd5b600073ffffffffffffffffffffffffffffffffffffffff168173ffffffffffffffffffffffffffffffffffffffff1603611b92576040517f08c379a0000000000000000000000000000000000000000000000000000000008152600401611b8990613c97565b60405180910390fd5b611b9b8161234c565b50565b600260075403611be3576040517f08c379a0000000000000000000000000000000000000000000000000000000008152600401611bda9061399d565b60405180910390fd5b60026007819055506000600b600083815260200190815260200160002090506000816003015411611c1357600080fd5b8060040160009054906101000a900460ff16611c2e57600080fd5b8060000160009054906101000a900473ffffffffffffffffffffffffffffffffffffffff1673ffffffffffffffffffffffffffffffffffffffff163373ffffffffffffffffffffffffffffffffffffffff1614611c8a57600080fd5b600a60003373ffffffffffffffffffffffffffffffffffffffff1673ffffffffffffffffffffffffffffffffffffffff1681526020019081526020016000206000815480929190611cda90613bd3565b919050555060008160040160006101000a81548160ff0219169083151502179055503073ffffffffffffffffffffffffffffffffffffffff166342842e0e308360000160009054906101000a900473ffffffffffffffffffffffffffffffffffffffff16856040518463ffffffff1660e01b8152600401611d5d93929190613d16565b600060405180830381600087803b158015611d7757600080fd5b505af1158015611d8b573d6000803e3d6000fd5b50505050600b6000838152602001908152602001600020600080820160006101000a81549073ffffffffffffffffffffffffffffffffffffffff02191690556001820160009055600282016000905560038201600090556004820160006101000a81549060ff02191690555050813373ffffffffffffffffffffffffffffffffffffffff167faafa025e65bdcff1ef0464eae38e306c5dedaa9ba5ee3f47de3b91d1bf1460e442604051611e3f9190612e25565b60405180910390a350600160078190555050565b60007f01ffc9a7000000000000000000000000000000000000000000000000000000007bffffffffffffffffffffffffffffffffffffffffffffffffffffffff1916827bffffffffffffffffffffffffffffffffffffffffffffffffffffffff1916149050919050565b60008073ffffffffffffffffffffffffffffffffffffffff166002600084815260200190815260200160002060009054906101000a900473ffffffffffffffffffffffffffffffffffffffff1673ffffffffffffffffffffffffffffffffffffffff1614159050919050565b600033905090565b816004600083815260200190815260200160002060006101000a81548173ffffffffffffffffffffffffffffffffffffffff021916908373ffffffffffffffffffffffffffffffffffffffff160217905550808273ffffffffffffffffffffffffffffffffffffffff16611fa483610e38565b73ffffffffffffffffffffffffffffffffffffffff167f8c5be1e5ebec7d5bd14f71427d1e84f3dd0314c0f7b2291e5b200ac8c7c3b92560405160405180910390a45050565b6000611ff582611ebd565b612034576040517f08c379a000000000000000000000000000000000000000000000000000000000815260040161202b90613dbf565b60405180910390fd5b600061203f83610e38565b90508073ffffffffffffffffffffffffffffffffffffffff168473ffffffffffffffffffffffffffffffffffffffff1614806120ae57508373ffffffffffffffffffffffffffffffffffffffff16612096846107a9565b73ffffffffffffffffffffffffffffffffffffffff16145b806120bf57506120be8185611a13565b5b91505092915050565b8273ffffffffffffffffffffffffffffffffffffffff166120e882610e38565b73ffffffffffffffffffffffffffffffffffffffff161461213e576040517f08c379a000000000000000000000000000000000000000000000000000000000815260040161213590613e51565b60405180910390fd5b600073ffffffffffffffffffffffffffffffffffffffff168273ffffffffffffffffffffffffffffffffffffffff16036121ad576040517f08c379a00000000000000000000000000000000000000000000000000000000081526004016121a490613ee3565b60405180910390fd5b6121b8838383612751565b6121c3600082611f31565b6001600360008573ffffffffffffffffffffffffffffffffffffffff1673ffffffffffffffffffffffffffffffffffffffff16815260200190815260200160002060008282546122139190613f03565b925050819055506001600360008473ffffffffffffffffffffffffffffffffffffffff1673ffffffffffffffffffffffffffffffffffffffff168152602001908152602001600020600082825461226a9190613b46565b92505081905550816002600083815260200190815260200160002060006101000a81548173ffffffffffffffffffffffffffffffffffffffff021916908373ffffffffffffffffffffffffffffffffffffffff160217905550808273ffffffffffffffffffffffffffffffffffffffff168473ffffffffffffffffffffffffffffffffffffffff167fddf252ad1be2c89b69c2b068fc378daa952ba7f163c4a11628f55a4df523b3ef60405160405180910390a4612329838383612756565b505050565b61234882826040518060200160405280600081525061275b565b5050565b6000600660009054906101000a900473ffffffffffffffffffffffffffffffffffffffff16905081600660006101000a81548173ffffffffffffffffffffffffffffffffffffffff021916908373ffffffffffffffffffffffffffffffffffffffff1602179055508173ffffffffffffffffffffffffffffffffffffffff168173ffffffffffffffffffffffffffffffffffffffff167f8be0079c531659141344cd1fd0a4f28419497f9722a3daafe3b4186f6b6457e060405160405180910390a35050565b8173ffffffffffffffffffffffffffffffffffffffff168373ffffffffffffffffffffffffffffffffffffffff1603612480576040517f08c379a000000000000000000000000000000000000000000000000000000000815260040161247790613f83565b60405180910390fd5b80600560008573ffffffffffffffffffffffffffffffffffffffff1673ffffffffffffffffffffffffffffffffffffffff16815260200190815260200160002060008473ffffffffffffffffffffffffffffffffffffffff1673ffffffffffffffffffffffffffffffffffffffff16815260200190815260200160002060006101000a81548160ff0219169083151502179055508173ffffffffffffffffffffffffffffffffffffffff168373ffffffffffffffffffffffffffffffffffffffff167f17307eab39ab6107e8899845ad3d59bd9653f200f220920489ca2b5937696c31836040516125719190612c15565b60405180910390a3505050565b6125898484846120c8565b612595848484846127b6565b6125d4576040517f08c379a00000000000000000000000000000000000000000000000000000000081526004016125cb90614015565b60405180910390fd5b50505050565b606060405180602001604052806000815250905090565b606060008203612638576040518060400160405280600181526020017f3000000000000000000000000000000000000000000000000000000000000000815250905061274c565b600082905060005b6000821461266a578080612653906136ca565b915050600a826126639190613b15565b9150612640565b60008167ffffffffffffffff81111561268657612685612e4a565b5b6040519080825280601f01601f1916602001820160405280156126b85781602001600182028036833780820191505090505b5090505b60008514612745576001826126d19190613f03565b9150600a856126e09190614035565b60306126ec9190613b46565b60f81b8183815181106127025761270161366c565b5b60200101907effffffffffffffffffffffffffffffffffffffffffffffffffffffffffffff1916908160001a905350600a8561273e9190613b15565b94506126bc565b8093505050505b919050565b505050565b505050565b612765838361293d565b61277260008484846127b6565b6127b1576040517f08c379a00000000000000000000000000000000000000000000000000000000081526004016127a890614015565b60405180910390fd5b505050565b60006127d78473ffffffffffffffffffffffffffffffffffffffff16612b16565b15612930578373ffffffffffffffffffffffffffffffffffffffff1663150b7a02612800611f29565b8786866040518563ffffffff1660e01b815260040161282294939291906140bb565b6020604051808303816000875af192505050801561285e57506040513d601f19601f8201168201806040525081019061285b919061411c565b60015b6128e0573d806000811461288e576040519150601f19603f3d011682016040523d82523d6000602084013e612893565b606091505b5060008151036128d8576040517f08c379a00000000000000000000000000000000000000000000000000000000081526004016128cf90614015565b60405180910390fd5b805181602001fd5b63150b7a0260e01b7bffffffffffffffffffffffffffffffffffffffffffffffffffffffff1916817bffffffffffffffffffffffffffffffffffffffffffffffffffffffff191614915050612935565b600190505b949350505050565b600073ffffffffffffffffffffffffffffffffffffffff168273ffffffffffffffffffffffffffffffffffffffff16036129ac576040517f08c379a00000000000000000000000000000000000000000000000000000000081526004016129a390614195565b60405180910390fd5b6129b581611ebd565b156129f5576040517f08c379a00000000000000000000000000000000000000000000000000000000081526004016129ec90614201565b60405180910390fd5b612a0160008383612751565b6001600360008473ffffffffffffffffffffffffffffffffffffffff1673ffffffffffffffffffffffffffffffffffffffff1681526020019081526020016000206000828254612a519190613b46565b92505081905550816002600083815260200190815260200160002060006101000a81548173ffffffffffffffffffffffffffffffffffffffff021916908373ffffffffffffffffffffffffffffffffffffffff160217905550808273ffffffffffffffffffffffffffffffffffffffff16600073ffffffffffffffffffffffffffffffffffffffff167fddf252ad1be2c89b69c2b068fc378daa952ba7f163c4a11628f55a4df523b3ef60405160405180910390a4612b1260008383612756565b5050565b6000808273ffffffffffffffffffffffffffffffffffffffff163b119050919050565b6040518060800160405280600081526020016000815260200160008152602001600081525090565b6000604051905090565b600080fd5b600080fd5b60007fffffffff0000000000000000000000000000000000000000000000000000000082169050919050565b612baa81612b75565b8114612bb557600080fd5b50565b600081359050612bc781612ba1565b92915050565b600060208284031215612be357612be2612b6b565b5b6000612bf184828501612bb8565b91505092915050565b60008115159050919050565b612c0f81612bfa565b82525050565b6000602082019050612c2a6000830184612c06565b92915050565b600081519050919050565b600082825260208201905092915050565b60005b83811015612c6a578082015181840152602081019050612c4f565b83811115612c79576000848401525b50505050565b6000601f19601f8301169050919050565b6000612c9b82612c30565b612ca58185612c3b565b9350612cb5818560208601612c4c565b612cbe81612c7f565b840191505092915050565b60006020820190508181036000830152612ce38184612c90565b905092915050565b6000819050919050565b612cfe81612ceb565b8114612d0957600080fd5b50565b600081359050612d1b81612cf5565b92915050565b600060208284031215612d3757612d36612b6b565b5b6000612d4584828501612d0c565b91505092915050565b600073ffffffffffffffffffffffffffffffffffffffff82169050919050565b6000612d7982612d4e565b9050919050565b612d8981612d6e565b82525050565b6000602082019050612da46000830184612d80565b92915050565b612db381612d6e565b8114612dbe57600080fd5b50565b600081359050612dd081612daa565b92915050565b60008060408385031215612ded57612dec612b6b565b5b6000612dfb85828601612dc1565b9250506020612e0c85828601612d0c565b9150509250929050565b612e1f81612ceb565b82525050565b6000602082019050612e3a6000830184612e16565b92915050565b600080fd5b600080fd5b7f4e487b7100000000000000000000000000000000000000000000000000000000600052604160045260246000fd5b612e8282612c7f565b810181811067ffffffffffffffff82111715612ea157612ea0612e4a565b5b80604052505050565b6000612eb4612b61565b9050612ec08282612e79565b919050565b600067ffffffffffffffff821115612ee057612edf612e4a565b5b612ee982612c7f565b9050602081019050919050565b82818337600083830152505050565b6000612f18612f1384612ec5565b612eaa565b905082815260208101848484011115612f3457612f33612e45565b5b612f3f848285612ef6565b509392505050565b600082601f830112612f5c57612f5b612e40565b5b8135612f6c848260208601612f05565b91505092915050565b60008060008060808587031215612f8f57612f8e612b6b565b5b6000612f9d87828801612dc1565b9450506020612fae87828801612dc1565b9350506040612fbf87828801612d0c565b925050606085013567ffffffffffffffff811115612fe057612fdf612b70565b5b612fec87828801612f47565b91505092959194509250565b61300181612b75565b82525050565b600060208201905061301c6000830184612ff8565b92915050565b60008060006060848603121561303b5761303a612b6b565b5b600061304986828701612dc1565b935050602061305a86828701612dc1565b925050604061306b86828701612d0c565b9150509250925092565b60006020828403121561308b5761308a612b6b565b5b600061309984828501612dc1565b91505092915050565b600081519050919050565b600082825260208201905092915050565b6000819050602082019050919050565b6130d781612ceb565b82525050565b60006130e983836130ce565b60208301905092915050565b6000602082019050919050565b600061310d826130a2565b61311781856130ad565b9350613122836130be565b8060005b8381101561315357815161313a88826130dd565b9750613145836130f5565b925050600181019050613126565b5085935050505092915050565b6000602082019050818103600083015261317a8184613102565b905092915050565b6000806000806080858703121561319c5761319b612b6b565b5b60006131aa87828801612d0c565b94505060206131bb87828801612d0c565b93505060406131cc87828801612d0c565b92505060606131dd87828801612d0c565b91505092959194509250565b6131f281612bfa565b81146131fd57600080fd5b50565b60008135905061320f816131e9565b92915050565b6000806040838503121561322c5761322b612b6b565b5b600061323a85828601612dc1565b925050602061324b85828601613200565b9150509250929050565b60808201600082015161326b60008501826130ce565b50602082015161327e60208501826130ce565b50604082015161329160408501826130ce565b5060608201516132a460608501826130ce565b50505050565b60006080820190506132bf6000830184613255565b92915050565b6000806000606084860312156132de576132dd612b6b565b5b60006132ec86828701612d0c565b93505060206132fd86828701612d0c565b925050604061330e86828701612d0c565b9150509250925092565b6000806040838503121561332f5761332e612b6b565b5b600061333d85828601612dc1565b925050602061334e85828601612dc1565b9150509250929050565b7f4e487b7100000000000000000000000000000000000000000000000000000000600052602260045260246000fd5b6000600282049050600182168061339f57607f821691505b6020821081036133b2576133b1613358565b5b50919050565b7f4552433732313a20617070726f76656420717565727920666f72206e6f6e657860008201527f697374656e7420746f6b656e0000000000000000000000000000000000000000602082015250565b6000613414602c83612c3b565b915061341f826133b8565b604082019050919050565b6000602082019050818103600083015261344381613407565b9050919050565b7f4552433732313a20617070726f76616c20746f2063757272656e74206f776e6560008201527f7200000000000000000000000000000000000000000000000000000000000000602082015250565b60006134a6602183612c3b565b91506134b18261344a565b604082019050919050565b600060208201905081810360008301526134d581613499565b9050919050565b7f4552433732313a20617070726f76652063616c6c6572206973206e6f74206f7760008201527f6e6572206e6f7220617070726f76656420666f7220616c6c0000000000000000602082015250565b6000613538603883612c3b565b9150613543826134dc565b604082019050919050565b600060208201905081810360008301526135678161352b565b9050919050565b7f4f776e61626c653a2063616c6c6572206973206e6f7420746865206f776e6572600082015250565b60006135a4602083612c3b565b91506135af8261356e565b602082019050919050565b600060208201905081810360008301526135d381613597565b9050919050565b7f4552433732313a207472616e736665722063616c6c6572206973206e6f74206f60008201527f776e6572206e6f7220617070726f766564000000000000000000000000000000602082015250565b6000613636603183612c3b565b9150613641826135da565b604082019050919050565b6000602082019050818103600083015261366581613629565b9050919050565b7f4e487b7100000000000000000000000000000000000000000000000000000000600052603260045260246000fd5b7f4e487b7100000000000000000000000000000000000000000000000000000000600052601160045260246000fd5b60006136d582612ceb565b91507fffffffffffffffffffffffffffffffffffffffffffffffffffffffffffffffff82036137075761370661369b565b5b600182019050919050565b50565b6000613722600083612c3b565b915061372d82613712565b600082019050919050565b6000602082019050818103600083015261375181613715565b9050919050565b600081905092915050565b6000613770600083613758565b915061377b82613712565b600082019050919050565b600061379182613763565b9150819050919050565b7f4552433732313a206f776e657220717565727920666f72206e6f6e657869737460008201527f656e7420746f6b656e0000000000000000000000000000000000000000000000602082015250565b60006137f7602983612c3b565b91506138028261379b565b604082019050919050565b60006020820190508181036000830152613826816137ea565b9050919050565b7f4e6f7420656e6f756768204554482073656e743b20636865636b20707269636560008201527f2100000000000000000000000000000000000000000000000000000000000000602082015250565b6000613889602183612c3b565b91506138948261382d565b604082019050919050565b600060208201905081810360008301526138b88161387c565b9050919050565b7f4552433732313a2062616c616e636520717565727920666f7220746865207a6560008201527f726f206164647265737300000000000000000000000000000000000000000000602082015250565b600061391b602a83612c3b565b9150613926826138bf565b604082019050919050565b6000602082019050818103600083015261394a8161390e565b9050919050565b7f5265656e7472616e637947756172643a207265656e7472616e742063616c6c00600082015250565b6000613987601f83612c3b565b915061399282613951565b602082019050919050565b600060208201905081810360008301526139b68161397a565b9050919050565b60006060820190506139d26000830186612e16565b6139df6020830185612e16565b6139ec6040830184612e16565b949350505050565b7f4552433732314d657461646174613a2055524920717565727920666f72206e6f60008201527f6e6578697374656e7420746f6b656e0000000000000000000000000000000000602082015250565b6000613a50602f83612c3b565b9150613a5b826139f4565b604082019050919050565b60006020820190508181036000830152613a7f81613a43565b9050919050565b600081905092915050565b6000613a9c82612c30565b613aa68185613a86565b9350613ab6818560208601612c4c565b80840191505092915050565b6000613ace8285613a91565b9150613ada8284613a91565b91508190509392505050565b7f4e487b7100000000000000000000000000000000000000000000000000000000600052601260045260246000fd5b6000613b2082612ceb565b9150613b2b83612ceb565b925082613b3b57613b3a613ae6565b5b828204905092915050565b6000613b5182612ceb565b9150613b5c83612ceb565b9250827fffffffffffffffffffffffffffffffffffffffffffffffffffffffffffffffff03821115613b9157613b9061369b565b5b828201905092915050565b6000606082019050613bb16000830186612d80565b613bbe6020830185612d80565b613bcb6040830184612e16565b949350505050565b6000613bde82612ceb565b915060008203613bf157613bf061369b565b5b600182039050919050565b6000604082019050613c116000830185612e16565b613c1e6020830184612e16565b9392505050565b7f4f776e61626c653a206e6577206f776e657220697320746865207a65726f206160008201527f6464726573730000000000000000000000000000000000000000000000000000602082015250565b6000613c81602683612c3b565b9150613c8c82613c25565b604082019050919050565b60006020820190508181036000830152613cb081613c74565b9050919050565b6000819050919050565b6000613cdc613cd7613cd284612d4e565b613cb7565b612d4e565b9050919050565b6000613cee82613cc1565b9050919050565b6000613d0082613ce3565b9050919050565b613d1081613cf5565b82525050565b6000606082019050613d2b6000830186612d80565b613d386020830185613d07565b613d456040830184612e16565b949350505050565b7f4552433732313a206f70657261746f7220717565727920666f72206e6f6e657860008201527f697374656e7420746f6b656e0000000000000000000000000000000000000000602082015250565b6000613da9602c83612c3b565b9150613db482613d4d565b604082019050919050565b60006020820190508181036000830152613dd881613d9c565b9050919050565b7f4552433732313a207472616e736665722066726f6d20696e636f72726563742060008201527f6f776e6572000000000000000000000000000000000000000000000000000000602082015250565b6000613e3b602583612c3b565b9150613e4682613ddf565b604082019050919050565b60006020820190508181036000830152613e6a81613e2e565b9050919050565b7f4552433732313a207472616e7366657220746f20746865207a65726f2061646460008201527f7265737300000000000000000000000000000000000000000000000000000000602082015250565b6000613ecd602483612c3b565b9150613ed882613e71565b604082019050919050565b60006020820190508181036000830152613efc81613ec0565b9050919050565b6000613f0e82612ceb565b9150613f1983612ceb565b925082821015613f2c57613f2b61369b565b5b828203905092915050565b7f4552433732313a20617070726f766520746f2063616c6c657200000000000000600082015250565b6000613f6d601983612c3b565b9150613f7882613f37565b602082019050919050565b60006020820190508181036000830152613f9c81613f60565b9050919050565b7f4552433732313a207472616e7366657220746f206e6f6e20455243373231526560008201527f63656976657220696d706c656d656e7465720000000000000000000000000000602082015250565b6000613fff603283612c3b565b915061400a82613fa3565b604082019050919050565b6000602082019050818103600083015261402e81613ff2565b9050919050565b600061404082612ceb565b915061404b83612ceb565b92508261405b5761405a613ae6565b5b828206905092915050565b600081519050919050565b600082825260208201905092915050565b600061408d82614066565b6140978185614071565b93506140a7818560208601612c4c565b6140b081612c7f565b840191505092915050565b60006080820190506140d06000830187612d80565b6140dd6020830186612d80565b6140ea6040830185612e16565b81810360608301526140fc8184614082565b905095945050505050565b60008151905061411681612ba1565b92915050565b60006020828403121561413257614131612b6b565b5b600061414084828501614107565b91505092915050565b7f4552433732313a206d696e7420746f20746865207a65726f2061646472657373600082015250565b600061417f602083612c3b565b915061418a82614149565b602082019050919050565b600060208201905081810360008301526141ae81614172565b9050919050565b7f4552433732313a20746f6b656e20616c7265616479206d696e74656400000000600082015250565b60006141eb601c83612c3b565b91506141f6826141b5565b602082019050919050565b6000602082019050818103600083015261421a816141de565b905091905056fea2646970667358221220938fec46922223d0102705dab34d9365d87b45a3170000d4d143cc7accef0ca664736f6c634300080d0033",
  "immutableReferences": {},
  "source": "pragma solidity 0.8.13;\r\n\r\nimport \"../node_modules/@openzeppelin/contracts/token/ERC721/ERC721.sol\";\r\nimport \"../node_modules/@openzeppelin/contracts/access/Ownable.sol\";\r\nimport \"../node_modules/@openzeppelin/contracts/security/ReentrancyGuard.sol\";\r\n\r\ncontract Token is ERC721, Ownable, IERC721Receiver, ReentrancyGuard{\r\n\r\n\r\n    event Mint(address indexed owner, uint256 indexed tokenId, uint256 timestamp);\r\n    event ListAnItem(address indexed owner, uint256 indexed tokenId, uint256 price, uint256 duration, uint256 timestamp);\r\n    event CancelAnListedItem(address indexed owner, uint256 indexed tokenId, uint256 timestamp);\r\n    event PurchaseAnItem(address indexed buyer, uint256 indexed tokenId, address indexed seller, uint256 price, uint256 timestamp);\r\n    /////////////////////////////////////////////Token Contract///////////////////////////////////////////////////\r\n\r\n    struct AIA {\r\n        uint256 attribute1; \r\n        uint256 attribute2;\r\n        uint256 attribute3;\r\n        uint256 attribute4;\r\n    }\r\n\r\n    uint256 private nextId = 0;\r\n    \r\n    mapping (uint256 => AIA) private _tokenDetails;\r\n\r\n    constructor (string memory name, string memory symbol) ERC721(name, symbol){\r\n\r\n    }\r\n\r\n    function mint(uint256 attribute1, uint256 attribute2, uint256 attribute3, uint256 attribute4) external payable {\r\n        require(msg.value >= 1 ether, \"Not enough ETH sent; check price!\");\r\n        _tokenDetails[nextId] = AIA(attribute1, attribute2, attribute3, attribute4);\r\n        _safeMint(msg.sender, nextId);\r\n        emit Mint(msg.sender, nextId, block.timestamp);\r\n        nextId++;\r\n    }\r\n\r\n    function getTokenDetails (uint256 tokenId) public view returns (AIA memory){\r\n        return _tokenDetails[tokenId];\r\n    }\r\n\r\n    function getBalance() public view onlyOwner returns (uint256){\r\n        return address(this).balance;\r\n    }\r\n\r\n    function withdrawBalance() external payable onlyOwner {\r\n        require(msg.sender == owner(), \"\");\r\n        (bool sent, bytes memory data) = payable(address(owner())).call{value:address(this).balance}(\"\");\r\n\r\n    }\r\n\r\n    function getAllTokensForUser(address user) public view returns (uint256[] memory){\r\n        uint256 tokenCount = balanceOf(user);\r\n        if(tokenCount ==0){\r\n            return new uint256[](0);\r\n        }\r\n        else{\r\n            uint256[] memory result = new uint256[](tokenCount);\r\n            uint256 totalAIAs = nextId;\r\n            uint256 resultIndex = 0;\r\n            uint256 i;\r\n            for(i=0; i < totalAIAs; i++)\r\n            {\r\n                if(ownerOf(i) == user)\r\n                {\r\n                    result[resultIndex] = i;\r\n                    resultIndex++;\r\n                }\r\n            }\r\n            return result;\r\n        }\r\n    }\r\n\r\n\r\n\r\n    /////////////////////////////////////////////Marketplace Contract//////////////////////////////////////////////\r\n\r\n    struct Item {\r\n        address payable seller;\r\n        uint256 price;\r\n        uint256 duration;\r\n        uint256 startedAt;\r\n        bool isSelling;\r\n    }\r\n\r\n    mapping (address => uint256) userToListedItems;\r\n    mapping (uint256 => Item) tokenIdToItem;\r\n\r\n    function createItemToSell(uint256 _tokenId, uint256 _price, uint256 _duration) external nonReentrant {\r\n        require(ownerOf(_tokenId) == msg.sender);\r\n        require(_duration >= 1 minutes);\r\n        tokenIdToItem[_tokenId] = Item(\r\n            payable(msg.sender),\r\n            _price,\r\n            _duration,\r\n            block.timestamp,\r\n            true\r\n        );\r\n        safeTransferFrom(msg.sender, address(this), _tokenId);\r\n        userToListedItems[msg.sender] ++;\r\n        emit ListAnItem(msg.sender, _tokenId, _price, _duration, block.timestamp);\r\n    }\r\n\r\n    function cancelItemToSell(uint256 _tokenId) external nonReentrant {\r\n        Item storage item = tokenIdToItem[_tokenId];\r\n        require(item.startedAt > 0);\r\n        require(item.isSelling);\r\n        require(msg.sender == item.seller);\r\n        userToListedItems[msg.sender] --;\r\n        item.isSelling = false;\r\n        this.safeTransferFrom(address(this), item.seller, _tokenId);\r\n        delete tokenIdToItem[_tokenId];\r\n        emit CancelAnListedItem(msg.sender, _tokenId, block.timestamp);\r\n    }\r\n\r\n    function purchaseItem(uint256 _tokenId) external payable nonReentrant {\r\n        // Get a reference to the auction struct\r\n        Item storage item = tokenIdToItem[_tokenId];\r\n        address payable seller = item.seller;\r\n        require(item.startedAt > 0);\r\n        require(item.isSelling);\r\n        require(item.price / 5 + item.price == msg.value);\r\n        uint256 price = item.price;\r\n        delete tokenIdToItem[_tokenId];\r\n        // Transfer proceeds to seller (if there are any!)\r\n        if (price > 0) {\r\n            (bool sent, bytes memory data) = payable(seller).call{value:price}(\"\");\r\n        }\r\n        this.safeTransferFrom(address(this), msg.sender, _tokenId);\r\n        userToListedItems[seller]--;\r\n        emit PurchaseAnItem(msg.sender, _tokenId, seller, price, block.timestamp);\r\n    }\r\n\r\n    function getListedItemsForUser(address user) public view returns (uint256[] memory){\r\n        if(userToListedItems[user] ==0){\r\n            return new uint256[](0);\r\n        }\r\n        else{\r\n            uint256[] memory result = new uint256[](userToListedItems[user]);\r\n            uint256 totalAIAs = nextId;\r\n            uint256 resultIndex = 0;\r\n            uint256 i;\r\n            for(i=0; i < totalAIAs; i++)\r\n            {\r\n                Item memory item = tokenIdToItem[i];\r\n                if(item.seller == user)\r\n                {\r\n                    result[resultIndex] = i;\r\n                    resultIndex++;\r\n                }\r\n            }\r\n            return result;\r\n        }\r\n    }\r\n\r\n\r\n    /////////////////////////////////////////////Helper Functions///////////////////////////////////////////////////\r\n    function onERC721Received(address, address, uint256, bytes memory) public virtual override returns (bytes4) {\r\n        return this.onERC721Received.selector;\r\n    }\r\n}",
  "sourcePath": "C:\\Users\\Niven\\Documents\\AIA\\contracts\\Token.sol",
  "compiler": {
    "name": "solc",
    "version": "0.8.13+commit.abaa5c0e.Emscripten.clang"
  },
  "schemaVersion": "3.4.6",
  "updatedAt": "2022-04-06T00:57:33.818Z",
  "networkType": "ethereum",
  "devdoc": {
    "kind": "dev",
    "methods": {
      "approve(address,uint256)": {
        "details": "See {IERC721-approve}."
      },
      "balanceOf(address)": {
        "details": "See {IERC721-balanceOf}."
      },
      "getApproved(uint256)": {
        "details": "See {IERC721-getApproved}."
      },
      "isApprovedForAll(address,address)": {
        "details": "See {IERC721-isApprovedForAll}."
      },
      "name()": {
        "details": "See {IERC721Metadata-name}."
      },
      "owner()": {
        "details": "Returns the address of the current owner."
      },
      "ownerOf(uint256)": {
        "details": "See {IERC721-ownerOf}."
      },
      "renounceOwnership()": {
        "details": "Leaves the contract without owner. It will not be possible to call `onlyOwner` functions anymore. Can only be called by the current owner. NOTE: Renouncing ownership will leave the contract without an owner, thereby removing any functionality that is only available to the owner."
      },
      "safeTransferFrom(address,address,uint256)": {
        "details": "See {IERC721-safeTransferFrom}."
      },
      "safeTransferFrom(address,address,uint256,bytes)": {
        "details": "See {IERC721-safeTransferFrom}."
      },
      "setApprovalForAll(address,bool)": {
        "details": "See {IERC721-setApprovalForAll}."
      },
      "supportsInterface(bytes4)": {
        "details": "See {IERC165-supportsInterface}."
      },
      "symbol()": {
        "details": "See {IERC721Metadata-symbol}."
      },
      "tokenURI(uint256)": {
        "details": "See {IERC721Metadata-tokenURI}."
      },
      "transferFrom(address,address,uint256)": {
        "details": "See {IERC721-transferFrom}."
      },
      "transferOwnership(address)": {
        "details": "Transfers ownership of the contract to a new account (`newOwner`). Can only be called by the current owner."
      }
    },
    "version": 1
  },
  "userdoc": {
    "kind": "user",
    "methods": {},
    "version": 1
  }
}