{
  "contractName": "Token",
  "abi": [
    {
      "inputs": [
        {
          "internalType": "string",
          "name": "name",
          "type": "string"
        },
        {
          "internalType": "string",
          "name": "symbol",
          "type": "string"
        },
        {
          "internalType": "uint64",
          "name": "subscriptionId",
          "type": "uint64"
        },
        {
          "internalType": "uint64",
          "name": "_totalSupply",
          "type": "uint64"
        }
      ],
      "stateMutability": "nonpayable",
      "type": "constructor"
    },
    {
      "inputs": [
        {
          "internalType": "address",
          "name": "have",
          "type": "address"
        },
        {
          "internalType": "address",
          "name": "want",
          "type": "address"
        }
      ],
      "name": "OnlyCoordinatorCanFulfill",
      "type": "error"
    },
    {
      "anonymous": false,
      "inputs": [
        {
          "indexed": true,
          "internalType": "address",
          "name": "owner",
          "type": "address"
        },
        {
          "indexed": true,
          "internalType": "address",
          "name": "approved",
          "type": "address"
        },
        {
          "indexed": true,
          "internalType": "uint256",
          "name": "tokenId",
          "type": "uint256"
        }
      ],
      "name": "Approval",
      "type": "event"
    },
    {
      "anonymous": false,
      "inputs": [
        {
          "indexed": true,
          "internalType": "address",
          "name": "owner",
          "type": "address"
        },
        {
          "indexed": true,
          "internalType": "address",
          "name": "operator",
          "type": "address"
        },
        {
          "indexed": false,
          "internalType": "bool",
          "name": "approved",
          "type": "bool"
        }
      ],
      "name": "ApprovalForAll",
      "type": "event"
    },
    {
      "anonymous": false,
      "inputs": [
        {
          "indexed": true,
          "internalType": "address",
          "name": "owner",
          "type": "address"
        },
        {
          "indexed": true,
          "internalType": "uint256",
          "name": "tokenId",
          "type": "uint256"
        },
        {
          "indexed": false,
          "internalType": "uint256",
          "name": "timestamp",
          "type": "uint256"
        }
      ],
      "name": "CancelAnListedItem",
      "type": "event"
    },
    {
      "anonymous": false,
      "inputs": [
        {
          "indexed": true,
          "internalType": "address",
          "name": "owner",
          "type": "address"
        },
        {
          "indexed": true,
          "internalType": "uint256",
          "name": "tokenId",
          "type": "uint256"
        },
        {
          "indexed": false,
          "internalType": "uint256",
          "name": "price",
          "type": "uint256"
        },
        {
          "indexed": false,
          "internalType": "uint256",
          "name": "timestamp",
          "type": "uint256"
        }
      ],
      "name": "ListAnItem",
      "type": "event"
    },
    {
      "anonymous": false,
      "inputs": [
        {
          "indexed": true,
          "internalType": "address",
          "name": "owner",
          "type": "address"
        },
        {
          "indexed": true,
          "internalType": "uint256",
          "name": "tokenId",
          "type": "uint256"
        },
        {
          "indexed": false,
          "internalType": "uint256",
          "name": "timestamp",
          "type": "uint256"
        }
      ],
      "name": "Mint",
      "type": "event"
    },
    {
      "anonymous": false,
      "inputs": [
        {
          "indexed": true,
          "internalType": "address",
          "name": "previousOwner",
          "type": "address"
        },
        {
          "indexed": true,
          "internalType": "address",
          "name": "newOwner",
          "type": "address"
        }
      ],
      "name": "OwnershipTransferred",
      "type": "event"
    },
    {
      "anonymous": false,
      "inputs": [
        {
          "indexed": true,
          "internalType": "address",
          "name": "buyer",
          "type": "address"
        },
        {
          "indexed": true,
          "internalType": "uint256",
          "name": "tokenId",
          "type": "uint256"
        },
        {
          "indexed": true,
          "internalType": "address",
          "name": "seller",
          "type": "address"
        },
        {
          "indexed": false,
          "internalType": "uint256",
          "name": "price",
          "type": "uint256"
        },
        {
          "indexed": false,
          "internalType": "uint256",
          "name": "timestamp",
          "type": "uint256"
        }
      ],
      "name": "PurchaseAnItem",
      "type": "event"
    },
    {
      "anonymous": false,
      "inputs": [
        {
          "indexed": true,
          "internalType": "address",
          "name": "from",
          "type": "address"
        },
        {
          "indexed": true,
          "internalType": "address",
          "name": "to",
          "type": "address"
        },
        {
          "indexed": true,
          "internalType": "uint256",
          "name": "tokenId",
          "type": "uint256"
        }
      ],
      "name": "Transfer",
      "type": "event"
    },
    {
      "inputs": [
        {
          "internalType": "address",
          "name": "to",
          "type": "address"
        },
        {
          "internalType": "uint256",
          "name": "tokenId",
          "type": "uint256"
        }
      ],
      "name": "approve",
      "outputs": [],
      "stateMutability": "nonpayable",
      "type": "function"
    },
    {
      "inputs": [
        {
          "internalType": "address",
          "name": "owner",
          "type": "address"
        }
      ],
      "name": "balanceOf",
      "outputs": [
        {
          "internalType": "uint256",
          "name": "",
          "type": "uint256"
        }
      ],
      "stateMutability": "view",
      "type": "function",
      "constant": true
    },
    {
      "inputs": [
        {
          "internalType": "uint256",
          "name": "tokenId",
          "type": "uint256"
        }
      ],
      "name": "getApproved",
      "outputs": [
        {
          "internalType": "address",
          "name": "",
          "type": "address"
        }
      ],
      "stateMutability": "view",
      "type": "function",
      "constant": true
    },
    {
      "inputs": [
        {
          "internalType": "address",
          "name": "owner",
          "type": "address"
        },
        {
          "internalType": "address",
          "name": "operator",
          "type": "address"
        }
      ],
      "name": "isApprovedForAll",
      "outputs": [
        {
          "internalType": "bool",
          "name": "",
          "type": "bool"
        }
      ],
      "stateMutability": "view",
      "type": "function",
      "constant": true
    },
    {
      "inputs": [],
      "name": "name",
      "outputs": [
        {
          "internalType": "string",
          "name": "",
          "type": "string"
        }
      ],
      "stateMutability": "view",
      "type": "function",
      "constant": true
    },
    {
      "inputs": [],
      "name": "owner",
      "outputs": [
        {
          "internalType": "address",
          "name": "",
          "type": "address"
        }
      ],
      "stateMutability": "view",
      "type": "function",
      "constant": true
    },
    {
      "inputs": [
        {
          "internalType": "uint256",
          "name": "tokenId",
          "type": "uint256"
        }
      ],
      "name": "ownerOf",
      "outputs": [
        {
          "internalType": "address",
          "name": "",
          "type": "address"
        }
      ],
      "stateMutability": "view",
      "type": "function",
      "constant": true
    },
    {
      "inputs": [
        {
          "internalType": "uint256",
          "name": "requestId",
          "type": "uint256"
        },
        {
          "internalType": "uint256[]",
          "name": "randomWords",
          "type": "uint256[]"
        }
      ],
      "name": "rawFulfillRandomWords",
      "outputs": [],
      "stateMutability": "nonpayable",
      "type": "function"
    },
    {
      "inputs": [],
      "name": "renounceOwnership",
      "outputs": [],
      "stateMutability": "nonpayable",
      "type": "function"
    },
    {
      "inputs": [],
      "name": "s_requestId",
      "outputs": [
        {
          "internalType": "uint256",
          "name": "",
          "type": "uint256"
        }
      ],
      "stateMutability": "view",
      "type": "function",
      "constant": true
    },
    {
      "inputs": [
        {
          "internalType": "address",
          "name": "from",
          "type": "address"
        },
        {
          "internalType": "address",
          "name": "to",
          "type": "address"
        },
        {
          "internalType": "uint256",
          "name": "tokenId",
          "type": "uint256"
        }
      ],
      "name": "safeTransferFrom",
      "outputs": [],
      "stateMutability": "nonpayable",
      "type": "function"
    },
    {
      "inputs": [
        {
          "internalType": "address",
          "name": "from",
          "type": "address"
        },
        {
          "internalType": "address",
          "name": "to",
          "type": "address"
        },
        {
          "internalType": "uint256",
          "name": "tokenId",
          "type": "uint256"
        },
        {
          "internalType": "bytes",
          "name": "_data",
          "type": "bytes"
        }
      ],
      "name": "safeTransferFrom",
      "outputs": [],
      "stateMutability": "nonpayable",
      "type": "function"
    },
    {
      "inputs": [
        {
          "internalType": "address",
          "name": "operator",
          "type": "address"
        },
        {
          "internalType": "bool",
          "name": "approved",
          "type": "bool"
        }
      ],
      "name": "setApprovalForAll",
      "outputs": [],
      "stateMutability": "nonpayable",
      "type": "function"
    },
    {
      "inputs": [
        {
          "internalType": "bytes4",
          "name": "interfaceId",
          "type": "bytes4"
        }
      ],
      "name": "supportsInterface",
      "outputs": [
        {
          "internalType": "bool",
          "name": "",
          "type": "bool"
        }
      ],
      "stateMutability": "view",
      "type": "function",
      "constant": true
    },
    {
      "inputs": [],
      "name": "symbol",
      "outputs": [
        {
          "internalType": "string",
          "name": "",
          "type": "string"
        }
      ],
      "stateMutability": "view",
      "type": "function",
      "constant": true
    },
    {
      "inputs": [
        {
          "internalType": "uint256",
          "name": "tokenId",
          "type": "uint256"
        }
      ],
      "name": "tokenURI",
      "outputs": [
        {
          "internalType": "string",
          "name": "",
          "type": "string"
        }
      ],
      "stateMutability": "view",
      "type": "function",
      "constant": true
    },
    {
      "inputs": [
        {
          "internalType": "address",
          "name": "from",
          "type": "address"
        },
        {
          "internalType": "address",
          "name": "to",
          "type": "address"
        },
        {
          "internalType": "uint256",
          "name": "tokenId",
          "type": "uint256"
        }
      ],
      "name": "transferFrom",
      "outputs": [],
      "stateMutability": "nonpayable",
      "type": "function"
    },
    {
      "inputs": [
        {
          "internalType": "address",
          "name": "newOwner",
          "type": "address"
        }
      ],
      "name": "transferOwnership",
      "outputs": [],
      "stateMutability": "nonpayable",
      "type": "function"
    },
    {
      "inputs": [],
      "name": "requestRandomWords",
      "outputs": [],
      "stateMutability": "nonpayable",
      "type": "function"
    },
    {
      "inputs": [],
      "name": "shuffle",
      "outputs": [],
      "stateMutability": "nonpayable",
      "type": "function"
    },
    {
      "inputs": [],
      "name": "getOrder",
      "outputs": [
        {
          "internalType": "uint256[]",
          "name": "",
          "type": "uint256[]"
        }
      ],
      "stateMutability": "view",
      "type": "function",
      "constant": true
    },
    {
      "inputs": [],
      "name": "getTotalnumMint",
      "outputs": [
        {
          "internalType": "uint256",
          "name": "",
          "type": "uint256"
        }
      ],
      "stateMutability": "view",
      "type": "function",
      "constant": true
    },
    {
      "inputs": [],
      "name": "mint",
      "outputs": [],
      "stateMutability": "payable",
      "type": "function",
      "payable": true
    },
    {
      "inputs": [],
      "name": "getBalance",
      "outputs": [
        {
          "internalType": "uint256",
          "name": "",
          "type": "uint256"
        }
      ],
      "stateMutability": "view",
      "type": "function",
      "constant": true
    },
    {
      "inputs": [],
      "name": "withdrawBalance",
      "outputs": [],
      "stateMutability": "payable",
      "type": "function",
      "payable": true
    },
    {
      "inputs": [
        {
          "internalType": "address",
          "name": "user",
          "type": "address"
        }
      ],
      "name": "getAllTokensForUser",
      "outputs": [
        {
          "internalType": "uint256[]",
          "name": "",
          "type": "uint256[]"
        }
      ],
      "stateMutability": "view",
      "type": "function",
      "constant": true
    },
    {
      "inputs": [
        {
          "internalType": "uint256",
          "name": "_tokenId",
          "type": "uint256"
        }
      ],
      "name": "getItemDetail",
      "outputs": [
        {
          "components": [
            {
              "internalType": "address payable",
              "name": "seller",
              "type": "address"
            },
            {
              "internalType": "uint256",
              "name": "price",
              "type": "uint256"
            },
            {
              "internalType": "uint256",
              "name": "startedAt",
              "type": "uint256"
            },
            {
              "internalType": "bool",
              "name": "isSelling",
              "type": "bool"
            }
          ],
          "internalType": "struct Token.Item",
          "name": "",
          "type": "tuple"
        }
      ],
      "stateMutability": "view",
      "type": "function",
      "constant": true
    },
    {
      "inputs": [
        {
          "internalType": "uint256",
          "name": "_tokenId",
          "type": "uint256"
        },
        {
          "internalType": "uint256",
          "name": "_price",
          "type": "uint256"
        }
      ],
      "name": "sell",
      "outputs": [],
      "stateMutability": "nonpayable",
      "type": "function"
    },
    {
      "inputs": [
        {
          "internalType": "uint256",
          "name": "_tokenId",
          "type": "uint256"
        }
      ],
      "name": "cancelSell",
      "outputs": [],
      "stateMutability": "nonpayable",
      "type": "function"
    },
    {
      "inputs": [
        {
          "internalType": "uint256",
          "name": "_tokenId",
          "type": "uint256"
        }
      ],
      "name": "purchaseItem",
      "outputs": [],
      "stateMutability": "payable",
      "type": "function",
      "payable": true
    },
    {
      "inputs": [
        {
          "internalType": "address",
          "name": "user",
          "type": "address"
        }
      ],
      "name": "getListedItemsForUser",
      "outputs": [
        {
          "internalType": "uint256[]",
          "name": "",
          "type": "uint256[]"
        }
      ],
      "stateMutability": "view",
      "type": "function",
      "constant": true
    },
    {
      "inputs": [
        {
          "internalType": "address",
          "name": "",
          "type": "address"
        },
        {
          "internalType": "address",
          "name": "",
          "type": "address"
        },
        {
          "internalType": "uint256",
          "name": "",
          "type": "uint256"
        },
        {
          "internalType": "bytes",
          "name": "",
          "type": "bytes"
        }
      ],
      "name": "onERC721Received",
      "outputs": [
        {
          "internalType": "bytes4",
          "name": "",
          "type": "bytes4"
        }
      ],
      "stateMutability": "nonpayable",
      "type": "function"
    },
    {
      "inputs": [
        {
          "internalType": "uint256",
          "name": "v",
          "type": "uint256"
        }
      ],
      "name": "uintToString",
      "outputs": [
        {
          "internalType": "string",
          "name": "",
          "type": "string"
        }
      ],
      "stateMutability": "pure",
      "type": "function",
      "constant": true
    }
  ],
  "bytecode": "0x60a0604052736168499c0cffcacd319c818142124b7a15e857ab600a60006101000a81548173ffffffffffffffffffffffffffffffffffffffff021916908373ffffffffffffffffffffffffffffffffffffffff1602179055507fd89b2bf150e3b9e13446986e571fb9cab24b13cea0a43ea20a6049a85cc807cc60001b600b55620186a0600c60006101000a81548163ffffffff021916908363ffffffff1602179055506003600c60046101000a81548161ffff021916908361ffff1602179055506001600c60066101000a81548163ffffffff021916908363ffffffff1602179055506000601055600060765560405180606001604052806036815260200162005a4f60369139607790805190602001906200011f9291906200040a565b506040518060400160405280600581526020017f2e6a736f6e000000000000000000000000000000000000000000000000000000815250607890805190602001906200016d9291906200040a565b503480156200017b57600080fd5b5060405162005a8538038062005a858339818101604052810190620001a191906200069c565b8383600a60009054906101000a900473ffffffffffffffffffffffffffffffffffffffff16620001e6620001da6200033e60201b60201c565b6200034660201b60201c565b600180819055508073ffffffffffffffffffffffffffffffffffffffff1660808173ffffffffffffffffffffffffffffffffffffffff16815250505081600290805190602001906200023a9291906200040a565b508060039080519060200190620002539291906200040a565b505050600a60009054906101000a900473ffffffffffffffffffffffffffffffffffffffff16600960006101000a81548173ffffffffffffffffffffffffffffffffffffffff021916908373ffffffffffffffffffffffffffffffffffffffff16021790555033600f60006101000a81548173ffffffffffffffffffffffffffffffffffffffff021916908373ffffffffffffffffffffffffffffffffffffffff16021790555081600960146101000a81548167ffffffffffffffff021916908367ffffffffffffffff1602179055508067ffffffffffffffff1660758190555050505050620007b0565b600033905090565b60008060009054906101000a900473ffffffffffffffffffffffffffffffffffffffff169050816000806101000a81548173ffffffffffffffffffffffffffffffffffffffff021916908373ffffffffffffffffffffffffffffffffffffffff1602179055508173ffffffffffffffffffffffffffffffffffffffff168173ffffffffffffffffffffffffffffffffffffffff167f8be0079c531659141344cd1fd0a4f28419497f9722a3daafe3b4186f6b6457e060405160405180910390a35050565b82805462000418906200077b565b90600052602060002090601f0160209004810192826200043c576000855562000488565b82601f106200045757805160ff191683800117855562000488565b8280016001018555821562000488579182015b82811115620004875782518255916020019190600101906200046a565b5b5090506200049791906200049b565b5090565b5b80821115620004b65760008160009055506001016200049c565b5090565b6000604051905090565b600080fd5b600080fd5b600080fd5b600080fd5b6000601f19601f8301169050919050565b7f4e487b7100000000000000000000000000000000000000000000000000000000600052604160045260246000fd5b6200052382620004d8565b810181811067ffffffffffffffff82111715620005455762000544620004e9565b5b80604052505050565b60006200055a620004ba565b905062000568828262000518565b919050565b600067ffffffffffffffff8211156200058b576200058a620004e9565b5b6200059682620004d8565b9050602081019050919050565b60005b83811015620005c3578082015181840152602081019050620005a6565b83811115620005d3576000848401525b50505050565b6000620005f0620005ea846200056d565b6200054e565b9050828152602081018484840111156200060f576200060e620004d3565b5b6200061c848285620005a3565b509392505050565b600082601f8301126200063c576200063b620004ce565b5b81516200064e848260208601620005d9565b91505092915050565b600067ffffffffffffffff82169050919050565b620006768162000657565b81146200068257600080fd5b50565b60008151905062000696816200066b565b92915050565b60008060008060808587031215620006b957620006b8620004c4565b5b600085015167ffffffffffffffff811115620006da57620006d9620004c9565b5b620006e88782880162000624565b945050602085015167ffffffffffffffff8111156200070c576200070b620004c9565b5b6200071a8782880162000624565b93505060406200072d8782880162000685565b9250506060620007408782880162000685565b91505092959194509250565b7f4e487b7100000000000000000000000000000000000000000000000000000000600052602260045260246000fd5b600060028204905060018216806200079457607f821691505b602082108103620007aa57620007a96200074c565b5b50919050565b60805161527c620007d360003960008181610f0c0152610f60015261527c6000f3fe6080604052600436106101ee5760003560e01c80636352211e1161010d578063c87b56dd116100a0578063e0c862891161006f578063e0c86289146106c0578063e89e106a146106d7578063e939567914610702578063e985e9c51461073f578063f2fde38b1461077c576101ee565b8063c87b56dd14610613578063d36dedd214610650578063d38ea5bf1461067b578063d79875eb14610697576101ee565b80638da5cb5b116100dc5780638da5cb5b1461056b57806395d89b4114610596578063a22cb465146105c1578063b88d4fde146105ea576101ee565b80636352211e1461049d57806370a08231146104da578063715018a61461051757806382de8fe91461052e576101ee565b80631fe543e31161018557806342842e0e1161015457806342842e0e146104025780635164b3b81461042b57806356663b2f146104685780635fd8c71014610493576101ee565b80631fe543e31461035c57806323b872dd146103855780632520bf04146103ae5780632888df2a146103c5576101ee565b8063095ea7b3116101c1578063095ea7b3146102c157806312065fe0146102ea5780631249c58b14610315578063150b7a021461031f576101ee565b806301ffc9a7146101f357806306fdde031461023057806307c9cd451461025b578063081812fc14610284575b600080fd5b3480156101ff57600080fd5b5061021a600480360381019061021591906137c3565b6107a5565b604051610227919061380b565b60405180910390f35b34801561023c57600080fd5b50610245610887565b60405161025291906138bf565b60405180910390f35b34801561026757600080fd5b50610282600480360381019061027d9190613917565b610919565b005b34801561029057600080fd5b506102ab60048036038101906102a69190613917565b610bc5565b6040516102b89190613985565b60405180910390f35b3480156102cd57600080fd5b506102e860048036038101906102e391906139cc565b610c4a565b005b3480156102f657600080fd5b506102ff610d61565b60405161030c9190613a1b565b60405180910390f35b61031d610de5565b005b34801561032b57600080fd5b5061034660048036038101906103419190613b6b565b610ef6565b6040516103539190613bfd565b60405180910390f35b34801561036857600080fd5b50610383600480360381019061037e9190613ce0565b610f0a565b005b34801561039157600080fd5b506103ac60048036038101906103a79190613d3c565b610fca565b005b3480156103ba57600080fd5b506103c361102a565b005b3480156103d157600080fd5b506103ec60048036038101906103e79190613d8f565b611267565b6040516103f99190613e7a565b60405180910390f35b34801561040e57600080fd5b5061042960048036038101906104249190613d3c565b6114ce565b005b34801561043757600080fd5b50610452600480360381019061044d9190613917565b6114ee565b60405161045f9190613f21565b60405180910390f35b34801561047457600080fd5b5061047d6115a0565b60405161048a9190613a1b565b60405180910390f35b61049b6115aa565b005b3480156104a957600080fd5b506104c460048036038101906104bf9190613917565b611714565b6040516104d19190613985565b60405180910390f35b3480156104e657600080fd5b5061050160048036038101906104fc9190613d8f565b6117c5565b60405161050e9190613a1b565b60405180910390f35b34801561052357600080fd5b5061052c61187c565b005b34801561053a57600080fd5b5061055560048036038101906105509190613d8f565b611904565b6040516105629190613e7a565b60405180910390f35b34801561057757600080fd5b50610580611a58565b60405161058d9190613985565b60405180910390f35b3480156105a257600080fd5b506105ab611a81565b6040516105b891906138bf565b60405180910390f35b3480156105cd57600080fd5b506105e860048036038101906105e39190613f68565b611b13565b005b3480156105f657600080fd5b50610611600480360381019061060c9190613b6b565b611b29565b005b34801561061f57600080fd5b5061063a60048036038101906106359190613917565b611b8b565b60405161064791906138bf565b60405180910390f35b34801561065c57600080fd5b50610665611cdc565b6040516106729190613e7a565b60405180910390f35b61069560048036038101906106909190613917565b611e06565b005b3480156106a357600080fd5b506106be60048036038101906106b99190613fa8565b612107565b005b3480156106cc57600080fd5b506106d561231b565b005b3480156106e357600080fd5b506106ec612491565b6040516106f99190613a1b565b60405180910390f35b34801561070e57600080fd5b5061072960048036038101906107249190613917565b612497565b60405161073691906138bf565b60405180910390f35b34801561074b57600080fd5b5061076660048036038101906107619190613fe8565b6126c4565b604051610773919061380b565b60405180910390f35b34801561078857600080fd5b506107a3600480360381019061079e9190613d8f565b612758565b005b60007f80ac58cd000000000000000000000000000000000000000000000000000000007bffffffffffffffffffffffffffffffffffffffffffffffffffffffff1916827bffffffffffffffffffffffffffffffffffffffffffffffffffffffff1916148061087057507f5b5e139f000000000000000000000000000000000000000000000000000000007bffffffffffffffffffffffffffffffffffffffffffffffffffffffff1916827bffffffffffffffffffffffffffffffffffffffffffffffffffffffff1916145b80610880575061087f8261284f565b5b9050919050565b60606002805461089690614057565b80601f01602080910402602001604051908101604052809291908181526020018280546108c290614057565b801561090f5780601f106108e45761010080835404028352916020019161090f565b820191906000526020600020905b8154815290600101906020018083116108f257829003601f168201915b5050505050905090565b60026001540361095e576040517f08c379a0000000000000000000000000000000000000000000000000000000008152600401610955906140d4565b60405180910390fd5b60026001819055506000607a60008381526020019081526020016000209050600081600201541161098e57600080fd5b8060030160009054906101000a900460ff166109a957600080fd5b8060000160009054906101000a900473ffffffffffffffffffffffffffffffffffffffff1673ffffffffffffffffffffffffffffffffffffffff163373ffffffffffffffffffffffffffffffffffffffff1614610a0557600080fd5b607960003373ffffffffffffffffffffffffffffffffffffffff1673ffffffffffffffffffffffffffffffffffffffff1681526020019081526020016000206000815480929190610a5590614123565b919050555060008160030160006101000a81548160ff0219169083151502179055503073ffffffffffffffffffffffffffffffffffffffff166342842e0e308360000160009054906101000a900473ffffffffffffffffffffffffffffffffffffffff16856040518463ffffffff1660e01b8152600401610ad8939291906141ab565b600060405180830381600087803b158015610af257600080fd5b505af1158015610b06573d6000803e3d6000fd5b50505050607a6000838152602001908152602001600020600080820160006101000a81549073ffffffffffffffffffffffffffffffffffffffff0219169055600182016000905560028201600090556003820160006101000a81549060ff02191690555050813373ffffffffffffffffffffffffffffffffffffffff167faafa025e65bdcff1ef0464eae38e306c5dedaa9ba5ee3f47de3b91d1bf1460e442604051610bb29190613a1b565b60405180910390a3506001808190555050565b6000610bd0826128b9565b610c0f576040517f08c379a0000000000000000000000000000000000000000000000000000000008152600401610c0690614254565b60405180910390fd5b6006600083815260200190815260200160002060009054906101000a900473ffffffffffffffffffffffffffffffffffffffff169050919050565b6000610c5582611714565b90508073ffffffffffffffffffffffffffffffffffffffff168373ffffffffffffffffffffffffffffffffffffffff1603610cc5576040517f08c379a0000000000000000000000000000000000000000000000000000000008152600401610cbc906142e6565b60405180910390fd5b8073ffffffffffffffffffffffffffffffffffffffff16610ce4612925565b73ffffffffffffffffffffffffffffffffffffffff161480610d135750610d1281610d0d612925565b6126c4565b5b610d52576040517f08c379a0000000000000000000000000000000000000000000000000000000008152600401610d4990614378565b60405180910390fd5b610d5c838361292d565b505050565b6000610d6b612925565b73ffffffffffffffffffffffffffffffffffffffff16610d89611a58565b73ffffffffffffffffffffffffffffffffffffffff1614610ddf576040517f08c379a0000000000000000000000000000000000000000000000000000000008152600401610dd6906143e4565b60405180910390fd5b47905090565b662386f26fc10000341015610e2f576040517f08c379a0000000000000000000000000000000000000000000000000000000008152600401610e2690614476565b60405180910390fd5b610e3b336076546129e6565b610e8b6076546077610e63601160765460648110610e5c57610e5b614496565b5b0154612497565b6078604051602001610e7793929190614595565b604051602081830303815290604052612a04565b6076543373ffffffffffffffffffffffffffffffffffffffff167f4c209b5fc8ad50758f13e2e1088ba56a560dff690a1c6fef26394f4c03821c4f42604051610ed49190613a1b565b60405180910390a360766000815480929190610eef906145c6565b9190505550565b600063150b7a0260e01b9050949350505050565b7f000000000000000000000000000000000000000000000000000000000000000073ffffffffffffffffffffffffffffffffffffffff163373ffffffffffffffffffffffffffffffffffffffff1614610fbc57337f00000000000000000000000000000000000000000000000000000000000000006040517f1cf993f4000000000000000000000000000000000000000000000000000000008152600401610fb392919061460e565b60405180910390fd5b610fc68282612a78565b5050565b610fdb610fd5612925565b82612a9e565b61101a576040517f08c379a0000000000000000000000000000000000000000000000000000000008152600401611011906146a9565b60405180910390fd5b611025838383612b7c565b505050565b611032612925565b73ffffffffffffffffffffffffffffffffffffffff16611050611a58565b73ffffffffffffffffffffffffffffffffffffffff16146110a6576040517f08c379a000000000000000000000000000000000000000000000000000000000815260040161109d906143e4565b60405180910390fd5b600060755467ffffffffffffffff8111156110c4576110c3613a40565b5b6040519080825280602002602001820160405280156110f25781602001602082028036833780820191505090505b50905060005b6075548160ff16101561114a5760018161111291906146d6565b60ff16828260ff168151811061112b5761112a614496565b5b60200260200101818152505080806111429061470d565b9150506110f8565b60008091505b6075548260ff161015611262578160ff1660755461116e9190614736565b600d5460105460405160200161118592919061476a565b6040516020818303038152906040528051906020012060001c6111a891906147c2565b9050601060008154809291906111bd906145c6565b91905055508281815181106111d5576111d4614496565b5b602002602001015160118360ff16606481106111f4576111f3614496565b5b01819055508260018360ff1660755461120d9190614736565b6112179190614736565b8151811061122857611227614496565b5b602002602001015183828151811061124357611242614496565b5b602002602001018181525050818061125a9061470d565b925050611150565b505050565b60606000607960008473ffffffffffffffffffffffffffffffffffffffff1673ffffffffffffffffffffffffffffffffffffffff168152602001908152602001600020540361130157600067ffffffffffffffff8111156112cb576112ca613a40565b5b6040519080825280602002602001820160405280156112f95781602001602082028036833780820191505090505b5090506114c9565b6000607960008473ffffffffffffffffffffffffffffffffffffffff1673ffffffffffffffffffffffffffffffffffffffff1681526020019081526020016000205467ffffffffffffffff81111561135c5761135b613a40565b5b60405190808252806020026020018201604052801561138a5781602001602082028036833780820191505090505b509050600060765490506000805b828110156114c1576000607a60008381526020019081526020016000206040518060800160405290816000820160009054906101000a900473ffffffffffffffffffffffffffffffffffffffff1673ffffffffffffffffffffffffffffffffffffffff1673ffffffffffffffffffffffffffffffffffffffff16815260200160018201548152602001600282015481526020016003820160009054906101000a900460ff16151515158152505090508673ffffffffffffffffffffffffffffffffffffffff16816000015173ffffffffffffffffffffffffffffffffffffffff16036114ad578185848151811061149257611491614496565b5b60200260200101818152505082806114a9906145c6565b9350505b5080806114b9906145c6565b915050611398565b839450505050505b919050565b6114e983838360405180602001604052806000815250611b29565b505050565b6114f6613674565b607a60008381526020019081526020016000206040518060800160405290816000820160009054906101000a900473ffffffffffffffffffffffffffffffffffffffff1673ffffffffffffffffffffffffffffffffffffffff1673ffffffffffffffffffffffffffffffffffffffff16815260200160018201548152602001600282015481526020016003820160009054906101000a900460ff1615151515815250509050919050565b6000607654905090565b6115b2612925565b73ffffffffffffffffffffffffffffffffffffffff166115d0611a58565b73ffffffffffffffffffffffffffffffffffffffff1614611626576040517f08c379a000000000000000000000000000000000000000000000000000000000815260040161161d906143e4565b60405180910390fd5b61162e611a58565b73ffffffffffffffffffffffffffffffffffffffff163373ffffffffffffffffffffffffffffffffffffffff161461169b576040517f08c379a000000000000000000000000000000000000000000000000000000000815260040161169290614819565b60405180910390fd5b6000806116a6611a58565b73ffffffffffffffffffffffffffffffffffffffff16476040516116c990614867565b60006040518083038185875af1925050503d8060008114611706576040519150601f19603f3d011682016040523d82523d6000602084013e61170b565b606091505b50915091505050565b6000806004600084815260200190815260200160002060009054906101000a900473ffffffffffffffffffffffffffffffffffffffff169050600073ffffffffffffffffffffffffffffffffffffffff168173ffffffffffffffffffffffffffffffffffffffff16036117bc576040517f08c379a00000000000000000000000000000000000000000000000000000000081526004016117b3906148ee565b60405180910390fd5b80915050919050565b60008073ffffffffffffffffffffffffffffffffffffffff168273ffffffffffffffffffffffffffffffffffffffff1603611835576040517f08c379a000000000000000000000000000000000000000000000000000000000815260040161182c90614980565b60405180910390fd5b600560008373ffffffffffffffffffffffffffffffffffffffff1673ffffffffffffffffffffffffffffffffffffffff168152602001908152602001600020549050919050565b611884612925565b73ffffffffffffffffffffffffffffffffffffffff166118a2611a58565b73ffffffffffffffffffffffffffffffffffffffff16146118f8576040517f08c379a00000000000000000000000000000000000000000000000000000000081526004016118ef906143e4565b60405180910390fd5b6119026000612de2565b565b60606000611911836117c5565b90506000810361196d57600067ffffffffffffffff81111561193657611935613a40565b5b6040519080825280602002602001820160405280156119645781602001602082028036833780820191505090505b50915050611a53565b60008167ffffffffffffffff81111561198957611988613a40565b5b6040519080825280602002602001820160405280156119b75781602001602082028036833780820191505090505b509050600060765490506000805b82811015611a4a578673ffffffffffffffffffffffffffffffffffffffff166119ed82611714565b73ffffffffffffffffffffffffffffffffffffffff1603611a375780848381518110611a1c57611a1b614496565b5b6020026020010181815250508180611a33906145c6565b9250505b8080611a42906145c6565b9150506119c5565b83955050505050505b919050565b60008060009054906101000a900473ffffffffffffffffffffffffffffffffffffffff16905090565b606060038054611a9090614057565b80601f0160208091040260200160405190810160405280929190818152602001828054611abc90614057565b8015611b095780601f10611ade57610100808354040283529160200191611b09565b820191906000526020600020905b815481529060010190602001808311611aec57829003601f168201915b5050505050905090565b611b25611b1e612925565b8383612ea6565b5050565b611b3a611b34612925565b83612a9e565b611b79576040517f08c379a0000000000000000000000000000000000000000000000000000000008152600401611b70906146a9565b60405180910390fd5b611b8584848484613012565b50505050565b6060611b96826128b9565b611bd5576040517f08c379a0000000000000000000000000000000000000000000000000000000008152600401611bcc90614a12565b60405180910390fd5b6000600860008481526020019081526020016000208054611bf590614057565b80601f0160208091040260200160405190810160405280929190818152602001828054611c2190614057565b8015611c6e5780601f10611c4357610100808354040283529160200191611c6e565b820191906000526020600020905b815481529060010190602001808311611c5157829003601f168201915b505050505090506000611c7f61306e565b90506000815103611c94578192505050611cd7565b600082511115611cc9578082604051602001611cb1929190614a32565b60405160208183030381529060405292505050611cd7565b611cd284613085565b925050505b919050565b6060611ce6612925565b73ffffffffffffffffffffffffffffffffffffffff16611d04611a58565b73ffffffffffffffffffffffffffffffffffffffff1614611d5a576040517f08c379a0000000000000000000000000000000000000000000000000000000008152600401611d51906143e4565b60405180910390fd5b600060755467ffffffffffffffff811115611d7857611d77613a40565b5b604051908082528060200260200182016040528015611da65781602001602082028036833780820191505090505b50905060005b607554811015611dfe5760118160648110611dca57611dc9614496565b5b0154828281518110611ddf57611dde614496565b5b6020026020010181815250508080611df6906145c6565b915050611dac565b819250505090565b600260015403611e4b576040517f08c379a0000000000000000000000000000000000000000000000000000000008152600401611e42906140d4565b60405180910390fd5b60026001819055506000607a6000838152602001908152602001600020905060008160000160009054906101000a900473ffffffffffffffffffffffffffffffffffffffff1690506000826002015411611ea457600080fd5b8160030160009054906101000a900460ff16611ebf57600080fd5b34826001015460058460010154611ed69190614a56565b611ee09190614a87565b14611eea57600080fd5b600082600101549050607a6000858152602001908152602001600020600080820160006101000a81549073ffffffffffffffffffffffffffffffffffffffff0219169055600182016000905560028201600090556003820160006101000a81549060ff021916905550506000811115611fce576000808373ffffffffffffffffffffffffffffffffffffffff1683604051611f8490614867565b60006040518083038185875af1925050503d8060008114611fc1576040519150601f19603f3d011682016040523d82523d6000602084013e611fc6565b606091505b509150915050505b3073ffffffffffffffffffffffffffffffffffffffff166342842e0e3033876040518463ffffffff1660e01b815260040161200b93929190614add565b600060405180830381600087803b15801561202557600080fd5b505af1158015612039573d6000803e3d6000fd5b50505050607960008373ffffffffffffffffffffffffffffffffffffffff1673ffffffffffffffffffffffffffffffffffffffff168152602001908152602001600020600081548092919061208d90614123565b91905055508173ffffffffffffffffffffffffffffffffffffffff16843373ffffffffffffffffffffffffffffffffffffffff167f478956c967ca99f4651fef2663546a452561b806dd5b5818ad086a2f4785118684426040516120f292919061476a565b60405180910390a45050506001808190555050565b60026001540361214c576040517f08c379a0000000000000000000000000000000000000000000000000000000008152600401612143906140d4565b60405180910390fd5b60026001819055503373ffffffffffffffffffffffffffffffffffffffff1661217483611714565b73ffffffffffffffffffffffffffffffffffffffff161461219457600080fd5b60405180608001604052803373ffffffffffffffffffffffffffffffffffffffff16815260200182815260200142815260200160011515815250607a600084815260200190815260200160002060008201518160000160006101000a81548173ffffffffffffffffffffffffffffffffffffffff021916908373ffffffffffffffffffffffffffffffffffffffff160217905550602082015181600101556040820151816002015560608201518160030160006101000a81548160ff02191690831515021790555090505061226a3330846114ce565b607960003373ffffffffffffffffffffffffffffffffffffffff1673ffffffffffffffffffffffffffffffffffffffff16815260200190815260200160002060008154809291906122ba906145c6565b9190505550813373ffffffffffffffffffffffffffffffffffffffff167f0dceca1ef67b0523b7cedf63d7b189569a88958b72eadb03fb5de854a6978df6834260405161230892919061476a565b60405180910390a3600180819055505050565b612323612925565b73ffffffffffffffffffffffffffffffffffffffff16612341611a58565b73ffffffffffffffffffffffffffffffffffffffff1614612397576040517f08c379a000000000000000000000000000000000000000000000000000000000815260040161238e906143e4565b60405180910390fd5b600960009054906101000a900473ffffffffffffffffffffffffffffffffffffffff1673ffffffffffffffffffffffffffffffffffffffff16635d3b1d30600b54600960149054906101000a900467ffffffffffffffff16600c60049054906101000a900461ffff16600c60009054906101000a900463ffffffff16600c60069054906101000a900463ffffffff166040518663ffffffff1660e01b8152600401612446959493929190614b8c565b6020604051808303816000875af1158015612465573d6000803e3d6000fd5b505050506040513d601f19601f820116820180604052508101906124899190614bf4565b600e81905550565b600e5481565b6060600082036124e45760006040518060400160405280600181526020017f30000000000000000000000000000000000000000000000000000000000000008152509050809150506126bf565b60006064905060008167ffffffffffffffff81111561250657612505613a40565b5b6040519080825280601f01601f1916602001820160405280156125385781602001600182028036833780820191505090505b50905060005b600085146125ca576000600a8661255591906147c2565b9050600a866125649190614a56565b95508060306125739190614a87565b60f81b838380612582906145c6565b94508151811061259557612594614496565b5b60200101907effffffffffffffffffffffffffffffffffffffffffffffffffffffffffffff1916908160001a9053505061253e565b60008167ffffffffffffffff8111156125e6576125e5613a40565b5b6040519080825280601f01601f1916602001820160405280156126185781602001600182028036833780820191505090505b50905060005b828110156126b05783600182856126359190614736565b61263f9190614736565b815181106126505761264f614496565b5b602001015160f81c60f81b82828151811061266e5761266d614496565b5b60200101907effffffffffffffffffffffffffffffffffffffffffffffffffffffffffffff1916908160001a90535080806126a8906145c6565b91505061261e565b50600081905080955050505050505b919050565b6000600760008473ffffffffffffffffffffffffffffffffffffffff1673ffffffffffffffffffffffffffffffffffffffff16815260200190815260200160002060008373ffffffffffffffffffffffffffffffffffffffff1673ffffffffffffffffffffffffffffffffffffffff16815260200190815260200160002060009054906101000a900460ff16905092915050565b612760612925565b73ffffffffffffffffffffffffffffffffffffffff1661277e611a58565b73ffffffffffffffffffffffffffffffffffffffff16146127d4576040517f08c379a00000000000000000000000000000000000000000000000000000000081526004016127cb906143e4565b60405180910390fd5b600073ffffffffffffffffffffffffffffffffffffffff168173ffffffffffffffffffffffffffffffffffffffff1603612843576040517f08c379a000000000000000000000000000000000000000000000000000000000815260040161283a90614c93565b60405180910390fd5b61284c81612de2565b50565b60007f01ffc9a7000000000000000000000000000000000000000000000000000000007bffffffffffffffffffffffffffffffffffffffffffffffffffffffff1916827bffffffffffffffffffffffffffffffffffffffffffffffffffffffff1916149050919050565b60008073ffffffffffffffffffffffffffffffffffffffff166004600084815260200190815260200160002060009054906101000a900473ffffffffffffffffffffffffffffffffffffffff1673ffffffffffffffffffffffffffffffffffffffff1614159050919050565b600033905090565b816006600083815260200190815260200160002060006101000a81548173ffffffffffffffffffffffffffffffffffffffff021916908373ffffffffffffffffffffffffffffffffffffffff160217905550808273ffffffffffffffffffffffffffffffffffffffff166129a083611714565b73ffffffffffffffffffffffffffffffffffffffff167f8c5be1e5ebec7d5bd14f71427d1e84f3dd0314c0f7b2291e5b200ac8c7c3b92560405160405180910390a45050565b612a0082826040518060200160405280600081525061312c565b5050565b612a0d826128b9565b612a4c576040517f08c379a0000000000000000000000000000000000000000000000000000000008152600401612a4390614d25565b60405180910390fd5b80600860008481526020019081526020016000209080519060200190612a739291906136b4565b505050565b80600081518110612a8c57612a8b614496565b5b6020026020010151600d819055505050565b6000612aa9826128b9565b612ae8576040517f08c379a0000000000000000000000000000000000000000000000000000000008152600401612adf90614db7565b60405180910390fd5b6000612af383611714565b90508073ffffffffffffffffffffffffffffffffffffffff168473ffffffffffffffffffffffffffffffffffffffff161480612b6257508373ffffffffffffffffffffffffffffffffffffffff16612b4a84610bc5565b73ffffffffffffffffffffffffffffffffffffffff16145b80612b735750612b7281856126c4565b5b91505092915050565b8273ffffffffffffffffffffffffffffffffffffffff16612b9c82611714565b73ffffffffffffffffffffffffffffffffffffffff1614612bf2576040517f08c379a0000000000000000000000000000000000000000000000000000000008152600401612be990614e49565b60405180910390fd5b600073ffffffffffffffffffffffffffffffffffffffff168273ffffffffffffffffffffffffffffffffffffffff1603612c61576040517f08c379a0000000000000000000000000000000000000000000000000000000008152600401612c5890614edb565b60405180910390fd5b612c6c838383613187565b612c7760008261292d565b6001600560008573ffffffffffffffffffffffffffffffffffffffff1673ffffffffffffffffffffffffffffffffffffffff1681526020019081526020016000206000828254612cc79190614736565b925050819055506001600560008473ffffffffffffffffffffffffffffffffffffffff1673ffffffffffffffffffffffffffffffffffffffff1681526020019081526020016000206000828254612d1e9190614a87565b92505081905550816004600083815260200190815260200160002060006101000a81548173ffffffffffffffffffffffffffffffffffffffff021916908373ffffffffffffffffffffffffffffffffffffffff160217905550808273ffffffffffffffffffffffffffffffffffffffff168473ffffffffffffffffffffffffffffffffffffffff167fddf252ad1be2c89b69c2b068fc378daa952ba7f163c4a11628f55a4df523b3ef60405160405180910390a4612ddd83838361318c565b505050565b60008060009054906101000a900473ffffffffffffffffffffffffffffffffffffffff169050816000806101000a81548173ffffffffffffffffffffffffffffffffffffffff021916908373ffffffffffffffffffffffffffffffffffffffff1602179055508173ffffffffffffffffffffffffffffffffffffffff168173ffffffffffffffffffffffffffffffffffffffff167f8be0079c531659141344cd1fd0a4f28419497f9722a3daafe3b4186f6b6457e060405160405180910390a35050565b8173ffffffffffffffffffffffffffffffffffffffff168373ffffffffffffffffffffffffffffffffffffffff1603612f14576040517f08c379a0000000000000000000000000000000000000000000000000000000008152600401612f0b90614f47565b60405180910390fd5b80600760008573ffffffffffffffffffffffffffffffffffffffff1673ffffffffffffffffffffffffffffffffffffffff16815260200190815260200160002060008473ffffffffffffffffffffffffffffffffffffffff1673ffffffffffffffffffffffffffffffffffffffff16815260200190815260200160002060006101000a81548160ff0219169083151502179055508173ffffffffffffffffffffffffffffffffffffffff168373ffffffffffffffffffffffffffffffffffffffff167f17307eab39ab6107e8899845ad3d59bd9653f200f220920489ca2b5937696c3183604051613005919061380b565b60405180910390a3505050565b61301d848484612b7c565b61302984848484613191565b613068576040517f08c379a000000000000000000000000000000000000000000000000000000000815260040161305f90614fd9565b60405180910390fd5b50505050565b606060405180602001604052806000815250905090565b6060613090826128b9565b6130cf576040517f08c379a00000000000000000000000000000000000000000000000000000000081526004016130c69061506b565b60405180910390fd5b60006130d961306e565b905060008151116130f95760405180602001604052806000815250613124565b8061310384613318565b604051602001613114929190614a32565b6040516020818303038152906040525b915050919050565b6131368383613478565b6131436000848484613191565b613182576040517f08c379a000000000000000000000000000000000000000000000000000000000815260040161317990614fd9565b60405180910390fd5b505050565b505050565b505050565b60006131b28473ffffffffffffffffffffffffffffffffffffffff16613651565b1561330b578373ffffffffffffffffffffffffffffffffffffffff1663150b7a026131db612925565b8786866040518563ffffffff1660e01b81526004016131fd94939291906150e0565b6020604051808303816000875af192505050801561323957506040513d601f19601f820116820180604052508101906132369190615141565b60015b6132bb573d8060008114613269576040519150601f19603f3d011682016040523d82523d6000602084013e61326e565b606091505b5060008151036132b3576040517f08c379a00000000000000000000000000000000000000000000000000000000081526004016132aa90614fd9565b60405180910390fd5b805181602001fd5b63150b7a0260e01b7bffffffffffffffffffffffffffffffffffffffffffffffffffffffff1916817bffffffffffffffffffffffffffffffffffffffffffffffffffffffff191614915050613310565b600190505b949350505050565b60606000820361335f576040518060400160405280600181526020017f30000000000000000000000000000000000000000000000000000000000000008152509050613473565b600082905060005b6000821461339157808061337a906145c6565b915050600a8261338a9190614a56565b9150613367565b60008167ffffffffffffffff8111156133ad576133ac613a40565b5b6040519080825280601f01601f1916602001820160405280156133df5781602001600182028036833780820191505090505b5090505b6000851461346c576001826133f89190614736565b9150600a8561340791906147c2565b60306134139190614a87565b60f81b81838151811061342957613428614496565b5b60200101907effffffffffffffffffffffffffffffffffffffffffffffffffffffffffffff1916908160001a905350600a856134659190614a56565b94506133e3565b8093505050505b919050565b600073ffffffffffffffffffffffffffffffffffffffff168273ffffffffffffffffffffffffffffffffffffffff16036134e7576040517f08c379a00000000000000000000000000000000000000000000000000000000081526004016134de906151ba565b60405180910390fd5b6134f0816128b9565b15613530576040517f08c379a000000000000000000000000000000000000000000000000000000000815260040161352790615226565b60405180910390fd5b61353c60008383613187565b6001600560008473ffffffffffffffffffffffffffffffffffffffff1673ffffffffffffffffffffffffffffffffffffffff168152602001908152602001600020600082825461358c9190614a87565b92505081905550816004600083815260200190815260200160002060006101000a81548173ffffffffffffffffffffffffffffffffffffffff021916908373ffffffffffffffffffffffffffffffffffffffff160217905550808273ffffffffffffffffffffffffffffffffffffffff16600073ffffffffffffffffffffffffffffffffffffffff167fddf252ad1be2c89b69c2b068fc378daa952ba7f163c4a11628f55a4df523b3ef60405160405180910390a461364d6000838361318c565b5050565b6000808273ffffffffffffffffffffffffffffffffffffffff163b119050919050565b6040518060800160405280600073ffffffffffffffffffffffffffffffffffffffff16815260200160008152602001600081526020016000151581525090565b8280546136c090614057565b90600052602060002090601f0160209004810192826136e25760008555613729565b82601f106136fb57805160ff1916838001178555613729565b82800160010185558215613729579182015b8281111561372857825182559160200191906001019061370d565b5b509050613736919061373a565b5090565b5b8082111561375357600081600090555060010161373b565b5090565b6000604051905090565b600080fd5b600080fd5b60007fffffffff0000000000000000000000000000000000000000000000000000000082169050919050565b6137a08161376b565b81146137ab57600080fd5b50565b6000813590506137bd81613797565b92915050565b6000602082840312156137d9576137d8613761565b5b60006137e7848285016137ae565b91505092915050565b60008115159050919050565b613805816137f0565b82525050565b600060208201905061382060008301846137fc565b92915050565b600081519050919050565b600082825260208201905092915050565b60005b83811015613860578082015181840152602081019050613845565b8381111561386f576000848401525b50505050565b6000601f19601f8301169050919050565b600061389182613826565b61389b8185613831565b93506138ab818560208601613842565b6138b481613875565b840191505092915050565b600060208201905081810360008301526138d98184613886565b905092915050565b6000819050919050565b6138f4816138e1565b81146138ff57600080fd5b50565b600081359050613911816138eb565b92915050565b60006020828403121561392d5761392c613761565b5b600061393b84828501613902565b91505092915050565b600073ffffffffffffffffffffffffffffffffffffffff82169050919050565b600061396f82613944565b9050919050565b61397f81613964565b82525050565b600060208201905061399a6000830184613976565b92915050565b6139a981613964565b81146139b457600080fd5b50565b6000813590506139c6816139a0565b92915050565b600080604083850312156139e3576139e2613761565b5b60006139f1858286016139b7565b9250506020613a0285828601613902565b9150509250929050565b613a15816138e1565b82525050565b6000602082019050613a306000830184613a0c565b92915050565b600080fd5b600080fd5b7f4e487b7100000000000000000000000000000000000000000000000000000000600052604160045260246000fd5b613a7882613875565b810181811067ffffffffffffffff82111715613a9757613a96613a40565b5b80604052505050565b6000613aaa613757565b9050613ab68282613a6f565b919050565b600067ffffffffffffffff821115613ad657613ad5613a40565b5b613adf82613875565b9050602081019050919050565b82818337600083830152505050565b6000613b0e613b0984613abb565b613aa0565b905082815260208101848484011115613b2a57613b29613a3b565b5b613b35848285613aec565b509392505050565b600082601f830112613b5257613b51613a36565b5b8135613b62848260208601613afb565b91505092915050565b60008060008060808587031215613b8557613b84613761565b5b6000613b93878288016139b7565b9450506020613ba4878288016139b7565b9350506040613bb587828801613902565b925050606085013567ffffffffffffffff811115613bd657613bd5613766565b5b613be287828801613b3d565b91505092959194509250565b613bf78161376b565b82525050565b6000602082019050613c126000830184613bee565b92915050565b600067ffffffffffffffff821115613c3357613c32613a40565b5b602082029050602081019050919050565b600080fd5b6000613c5c613c5784613c18565b613aa0565b90508083825260208201905060208402830185811115613c7f57613c7e613c44565b5b835b81811015613ca85780613c948882613902565b845260208401935050602081019050613c81565b5050509392505050565b600082601f830112613cc757613cc6613a36565b5b8135613cd7848260208601613c49565b91505092915050565b60008060408385031215613cf757613cf6613761565b5b6000613d0585828601613902565b925050602083013567ffffffffffffffff811115613d2657613d25613766565b5b613d3285828601613cb2565b9150509250929050565b600080600060608486031215613d5557613d54613761565b5b6000613d63868287016139b7565b9350506020613d74868287016139b7565b9250506040613d8586828701613902565b9150509250925092565b600060208284031215613da557613da4613761565b5b6000613db3848285016139b7565b91505092915050565b600081519050919050565b600082825260208201905092915050565b6000819050602082019050919050565b613df1816138e1565b82525050565b6000613e038383613de8565b60208301905092915050565b6000602082019050919050565b6000613e2782613dbc565b613e318185613dc7565b9350613e3c83613dd8565b8060005b83811015613e6d578151613e548882613df7565b9750613e5f83613e0f565b925050600181019050613e40565b5085935050505092915050565b60006020820190508181036000830152613e948184613e1c565b905092915050565b6000613ea782613944565b9050919050565b613eb781613e9c565b82525050565b613ec6816137f0565b82525050565b608082016000820151613ee26000850182613eae565b506020820151613ef56020850182613de8565b506040820151613f086040850182613de8565b506060820151613f1b6060850182613ebd565b50505050565b6000608082019050613f366000830184613ecc565b92915050565b613f45816137f0565b8114613f5057600080fd5b50565b600081359050613f6281613f3c565b92915050565b60008060408385031215613f7f57613f7e613761565b5b6000613f8d858286016139b7565b9250506020613f9e85828601613f53565b9150509250929050565b60008060408385031215613fbf57613fbe613761565b5b6000613fcd85828601613902565b9250506020613fde85828601613902565b9150509250929050565b60008060408385031215613fff57613ffe613761565b5b600061400d858286016139b7565b925050602061401e858286016139b7565b9150509250929050565b7f4e487b7100000000000000000000000000000000000000000000000000000000600052602260045260246000fd5b6000600282049050600182168061406f57607f821691505b60208210810361408257614081614028565b5b50919050565b7f5265656e7472616e637947756172643a207265656e7472616e742063616c6c00600082015250565b60006140be601f83613831565b91506140c982614088565b602082019050919050565b600060208201905081810360008301526140ed816140b1565b9050919050565b7f4e487b7100000000000000000000000000000000000000000000000000000000600052601160045260246000fd5b600061412e826138e1565b915060008203614141576141406140f4565b5b600182039050919050565b6000819050919050565b600061417161416c61416784613944565b61414c565b613944565b9050919050565b600061418382614156565b9050919050565b600061419582614178565b9050919050565b6141a58161418a565b82525050565b60006060820190506141c06000830186613976565b6141cd602083018561419c565b6141da6040830184613a0c565b949350505050565b7f4552433732313a20617070726f76656420717565727920666f72206e6f6e657860008201527f697374656e7420746f6b656e0000000000000000000000000000000000000000602082015250565b600061423e602c83613831565b9150614249826141e2565b604082019050919050565b6000602082019050818103600083015261426d81614231565b9050919050565b7f4552433732313a20617070726f76616c20746f2063757272656e74206f776e6560008201527f7200000000000000000000000000000000000000000000000000000000000000602082015250565b60006142d0602183613831565b91506142db82614274565b604082019050919050565b600060208201905081810360008301526142ff816142c3565b9050919050565b7f4552433732313a20617070726f76652063616c6c6572206973206e6f74206f7760008201527f6e6572206e6f7220617070726f76656420666f7220616c6c0000000000000000602082015250565b6000614362603883613831565b915061436d82614306565b604082019050919050565b6000602082019050818103600083015261439181614355565b9050919050565b7f4f776e61626c653a2063616c6c6572206973206e6f7420746865206f776e6572600082015250565b60006143ce602083613831565b91506143d982614398565b602082019050919050565b600060208201905081810360008301526143fd816143c1565b9050919050565b7f4e6f7420656e6f756768204554482073656e743b20636865636b20707269636560008201527f2100000000000000000000000000000000000000000000000000000000000000602082015250565b6000614460602183613831565b915061446b82614404565b604082019050919050565b6000602082019050818103600083015261448f81614453565b9050919050565b7f4e487b7100000000000000000000000000000000000000000000000000000000600052603260045260246000fd5b600081905092915050565b60008190508160005260206000209050919050565b600081546144f281614057565b6144fc81866144c5565b9450600182166000811461451757600181146145285761455b565b60ff1983168652818601935061455b565b614531856144d0565b60005b8381101561455357815481890152600182019150602081019050614534565b838801955050505b50505092915050565b600061456f82613826565b61457981856144c5565b9350614589818560208601613842565b80840191505092915050565b60006145a182866144e5565b91506145ad8285614564565b91506145b982846144e5565b9150819050949350505050565b60006145d1826138e1565b91507fffffffffffffffffffffffffffffffffffffffffffffffffffffffffffffffff8203614603576146026140f4565b5b600182019050919050565b60006040820190506146236000830185613976565b6146306020830184613976565b9392505050565b7f4552433732313a207472616e736665722063616c6c6572206973206e6f74206f60008201527f776e6572206e6f7220617070726f766564000000000000000000000000000000602082015250565b6000614693603183613831565b915061469e82614637565b604082019050919050565b600060208201905081810360008301526146c281614686565b9050919050565b600060ff82169050919050565b60006146e1826146c9565b91506146ec836146c9565b92508260ff03821115614702576147016140f4565b5b828201905092915050565b6000614718826146c9565b915060ff820361472b5761472a6140f4565b5b600182019050919050565b6000614741826138e1565b915061474c836138e1565b92508282101561475f5761475e6140f4565b5b828203905092915050565b600060408201905061477f6000830185613a0c565b61478c6020830184613a0c565b9392505050565b7f4e487b7100000000000000000000000000000000000000000000000000000000600052601260045260246000fd5b60006147cd826138e1565b91506147d8836138e1565b9250826147e8576147e7614793565b5b828206905092915050565b50565b6000614803600083613831565b915061480e826147f3565b600082019050919050565b60006020820190508181036000830152614832816147f6565b9050919050565b600081905092915050565b6000614851600083614839565b915061485c826147f3565b600082019050919050565b600061487282614844565b9150819050919050565b7f4552433732313a206f776e657220717565727920666f72206e6f6e657869737460008201527f656e7420746f6b656e0000000000000000000000000000000000000000000000602082015250565b60006148d8602983613831565b91506148e38261487c565b604082019050919050565b60006020820190508181036000830152614907816148cb565b9050919050565b7f4552433732313a2062616c616e636520717565727920666f7220746865207a6560008201527f726f206164647265737300000000000000000000000000000000000000000000602082015250565b600061496a602a83613831565b91506149758261490e565b604082019050919050565b600060208201905081810360008301526149998161495d565b9050919050565b7f45524337323155524953746f726167653a2055524920717565727920666f722060008201527f6e6f6e6578697374656e7420746f6b656e000000000000000000000000000000602082015250565b60006149fc603183613831565b9150614a07826149a0565b604082019050919050565b60006020820190508181036000830152614a2b816149ef565b9050919050565b6000614a3e8285614564565b9150614a4a8284614564565b91508190509392505050565b6000614a61826138e1565b9150614a6c836138e1565b925082614a7c57614a7b614793565b5b828204905092915050565b6000614a92826138e1565b9150614a9d836138e1565b9250827fffffffffffffffffffffffffffffffffffffffffffffffffffffffffffffffff03821115614ad257614ad16140f4565b5b828201905092915050565b6000606082019050614af26000830186613976565b614aff6020830185613976565b614b0c6040830184613a0c565b949350505050565b6000819050919050565b614b2781614b14565b82525050565b600067ffffffffffffffff82169050919050565b614b4a81614b2d565b82525050565b600061ffff82169050919050565b614b6781614b50565b82525050565b600063ffffffff82169050919050565b614b8681614b6d565b82525050565b600060a082019050614ba16000830188614b1e565b614bae6020830187614b41565b614bbb6040830186614b5e565b614bc86060830185614b7d565b614bd56080830184614b7d565b9695505050505050565b600081519050614bee816138eb565b92915050565b600060208284031215614c0a57614c09613761565b5b6000614c1884828501614bdf565b91505092915050565b7f4f776e61626c653a206e6577206f776e657220697320746865207a65726f206160008201527f6464726573730000000000000000000000000000000000000000000000000000602082015250565b6000614c7d602683613831565b9150614c8882614c21565b604082019050919050565b60006020820190508181036000830152614cac81614c70565b9050919050565b7f45524337323155524953746f726167653a2055524920736574206f66206e6f6e60008201527f6578697374656e7420746f6b656e000000000000000000000000000000000000602082015250565b6000614d0f602e83613831565b9150614d1a82614cb3565b604082019050919050565b60006020820190508181036000830152614d3e81614d02565b9050919050565b7f4552433732313a206f70657261746f7220717565727920666f72206e6f6e657860008201527f697374656e7420746f6b656e0000000000000000000000000000000000000000602082015250565b6000614da1602c83613831565b9150614dac82614d45565b604082019050919050565b60006020820190508181036000830152614dd081614d94565b9050919050565b7f4552433732313a207472616e736665722066726f6d20696e636f72726563742060008201527f6f776e6572000000000000000000000000000000000000000000000000000000602082015250565b6000614e33602583613831565b9150614e3e82614dd7565b604082019050919050565b60006020820190508181036000830152614e6281614e26565b9050919050565b7f4552433732313a207472616e7366657220746f20746865207a65726f2061646460008201527f7265737300000000000000000000000000000000000000000000000000000000602082015250565b6000614ec5602483613831565b9150614ed082614e69565b604082019050919050565b60006020820190508181036000830152614ef481614eb8565b9050919050565b7f4552433732313a20617070726f766520746f2063616c6c657200000000000000600082015250565b6000614f31601983613831565b9150614f3c82614efb565b602082019050919050565b60006020820190508181036000830152614f6081614f24565b9050919050565b7f4552433732313a207472616e7366657220746f206e6f6e20455243373231526560008201527f63656976657220696d706c656d656e7465720000000000000000000000000000602082015250565b6000614fc3603283613831565b9150614fce82614f67565b604082019050919050565b60006020820190508181036000830152614ff281614fb6565b9050919050565b7f4552433732314d657461646174613a2055524920717565727920666f72206e6f60008201527f6e6578697374656e7420746f6b656e0000000000000000000000000000000000602082015250565b6000615055602f83613831565b915061506082614ff9565b604082019050919050565b6000602082019050818103600083015261508481615048565b9050919050565b600081519050919050565b600082825260208201905092915050565b60006150b28261508b565b6150bc8185615096565b93506150cc818560208601613842565b6150d581613875565b840191505092915050565b60006080820190506150f56000830187613976565b6151026020830186613976565b61510f6040830185613a0c565b818103606083015261512181846150a7565b905095945050505050565b60008151905061513b81613797565b92915050565b60006020828403121561515757615156613761565b5b60006151658482850161512c565b91505092915050565b7f4552433732313a206d696e7420746f20746865207a65726f2061646472657373600082015250565b60006151a4602083613831565b91506151af8261516e565b602082019050919050565b600060208201905081810360008301526151d381615197565b9050919050565b7f4552433732313a20746f6b656e20616c7265616479206d696e74656400000000600082015250565b6000615210601c83613831565b915061521b826151da565b602082019050919050565b6000602082019050818103600083015261523f81615203565b905091905056fea26469706673582212200ff99a01363a5976bdd59e18cf87a778eacecd07416468d5200528795ec604ba64736f6c634300080d003368747470733a2f2f72756966656e676875612d6169612d626574612e73332e616d617a6f6e6177732e636f6d2f6d657461646174612f",
  "immutableReferences": {
    "10": [
      {
        "length": 32,
        "start": 3852
      },
      {
        "length": 32,
        "start": 3936
      }
    ]
  },
  "source": "pragma solidity 0.8.13;\r\n\r\nimport \"../node_modules/@openzeppelin/contracts/token/ERC721/ERC721.sol\";\r\nimport \"../node_modules/@openzeppelin/contracts/access/Ownable.sol\";\r\nimport \"../node_modules/@openzeppelin/contracts/security/ReentrancyGuard.sol\";\r\nimport \"../node_modules/@openzeppelin/contracts/token/ERC721/extensions/ERC721URIStorage.sol\";\r\nimport \"@chainlink/contracts/src/v0.8/interfaces/VRFCoordinatorV2Interface.sol\";\r\nimport \"@chainlink/contracts/src/v0.8/VRFConsumerBaseV2.sol\";\r\n\r\ncontract Token is Ownable, IERC721Receiver, ReentrancyGuard, VRFConsumerBaseV2, ERC721URIStorage {\r\n    \r\n\r\n    /////////////////////////////////Random number//////////////////////////////\r\n    VRFCoordinatorV2Interface COORDINATOR;\r\n\r\n    // Your subscription ID.\r\n    uint64 s_subscriptionId;\r\n\r\n    // Rinkeby coordinator. For other networks,\r\n    // see https://docs.chain.link/docs/vrf-contracts/#configurations\r\n    address vrfCoordinator = 0x6168499c0cFfCaCD319c818142124B7A15E857ab;\r\n\r\n    // The gas lane to use, which specifies the maximum gas price to bump to.\r\n    // For a list of available gas lanes on each network,\r\n    // see https://docs.chain.link/docs/vrf-contracts/#configurations\r\n    bytes32 keyHash = 0xd89b2bf150e3b9e13446986e571fb9cab24b13cea0a43ea20a6049a85cc807cc;\r\n\r\n    // Depends on the number of requested values that you want sent to the\r\n    // fulfillRandomWords() function. Storing each word costs about 20,000 gas,\r\n    // so 100,000 is a safe default for this example contract. Test and adjust\r\n    // this limit based on the network that you select, the size of the request,\r\n    // and the processing of the callback request in the fulfillRandomWords()\r\n    // function.\r\n    uint32 callbackGasLimit = 100000;\r\n\r\n    // The default is 3, but you can set this higher.\r\n    uint16 requestConfirmations = 3;\r\n\r\n    // For this example, retrieve 2 random values in one request.\r\n    // Cannot exceed VRFCoordinatorV2.MAX_NUM_WORDS.\r\n    uint32 numWords =  1;\r\n\r\n    uint256 private baseSeed;\r\n    uint256 public s_requestId;\r\n    address s_owner;\r\n    // Assumes the subscription is funded sufficiently.\r\n    function requestRandomWords() external onlyOwner {\r\n        // Will revert if subscription is not set and funded.\r\n        s_requestId = COORDINATOR.requestRandomWords(keyHash,s_subscriptionId,requestConfirmations,callbackGasLimit,numWords);\r\n    }\r\n    \r\n    function fulfillRandomWords(uint256, uint256[] memory randomWords) internal override {\r\n        baseSeed = randomWords[0];\r\n    }\r\n\r\n    constructor (string memory name, string memory symbol, uint64 subscriptionId, uint64 _totalSupply) ERC721(name, symbol) VRFConsumerBaseV2(vrfCoordinator) {\r\n        COORDINATOR = VRFCoordinatorV2Interface(vrfCoordinator);\r\n        s_owner = msg.sender;\r\n        s_subscriptionId = subscriptionId;\r\n        totalSupply = _totalSupply;\r\n    }\r\n\r\n    uint256 increment = 0;\r\n    uint256[100] private order;\r\n    uint256 totalSupply;\r\n    function shuffle() external onlyOwner{\r\n        uint256[] memory unshuffled = new uint256[](totalSupply);\r\n        uint8 i;\r\n        for (i=0; i < totalSupply; i++) {\r\n            unshuffled[i] = i+1;\r\n        }\r\n        uint idx;\r\n        for (i=0; i < totalSupply; i++) {\r\n            idx = uint256(keccak256(abi.encode(baseSeed, increment))) % (totalSupply - i);\r\n            increment++;\r\n            order[i] = unshuffled[idx];\r\n            unshuffled[idx] = unshuffled[totalSupply - i - 1];\r\n        }\r\n    }\r\n\r\n    function getOrder() external onlyOwner view returns (uint256[] memory){\r\n        uint256[] memory result = new uint256[](totalSupply);\r\n        uint256 i;\r\n        for(i=0; i < totalSupply; i++)\r\n        {\r\n            result[i] = order[i];\r\n        }\r\n        return result;\r\n    }\r\n\r\n\r\n    /////////////////////////////////Random number//////////////////////////////\r\n\r\n\r\n    event Mint(address indexed owner, uint256 indexed tokenId, uint256 timestamp);\r\n    event ListAnItem(address indexed owner, uint256 indexed tokenId, uint256 price, uint256 timestamp);\r\n    event CancelAnListedItem(address indexed owner, uint256 indexed tokenId, uint256 timestamp);\r\n    event PurchaseAnItem(address indexed buyer, uint256 indexed tokenId, address indexed seller, uint256 price, uint256 timestamp);\r\n    /////////////////////////////////////////////Token Contract///////////////////////////////////////////////////\r\n\r\n    uint256 private nextId = 0;\r\n    \r\n    string prefix = \"https://ruifenghua-aia-beta.s3.amazonaws.com/metadata/\";\r\n    string sub = \".json\";\r\n\r\n    function getTotalnumMint() public view returns (uint256){\r\n        return nextId;\r\n    }\r\n\r\n    function mint() external payable {\r\n        require(msg.value >= 0.01 ether, \"Not enough ETH sent; check price!\");\r\n        _safeMint(msg.sender, nextId);\r\n        _setTokenURI(nextId,  string(abi.encodePacked(prefix, uintToString(order[nextId]), sub)));\r\n        emit Mint(msg.sender, nextId, block.timestamp);\r\n        nextId++;\r\n    }\r\n\r\n\r\n    function getBalance() public view onlyOwner returns (uint256){\r\n        return address(this).balance;\r\n    }\r\n\r\n    function withdrawBalance() external payable onlyOwner {\r\n        require(msg.sender == owner(), \"\");\r\n        (bool sent, bytes memory data) = payable(address(owner())).call{value:address(this).balance}(\"\");\r\n\r\n    }\r\n\r\n    function getAllTokensForUser(address user) public view returns (uint256[] memory){\r\n        uint256 tokenCount = balanceOf(user);\r\n        if(tokenCount ==0){\r\n            return new uint256[](0);\r\n        }\r\n        else{\r\n            uint256[] memory result = new uint256[](tokenCount);\r\n            uint256 totalAIAs = nextId;\r\n            uint256 resultIndex = 0;\r\n            uint256 i;\r\n            for(i=0; i < totalAIAs; i++)\r\n            {\r\n                if(ownerOf(i) == user)\r\n                {\r\n                    result[resultIndex] = i;\r\n                    resultIndex++;\r\n                }\r\n            }\r\n            return result;\r\n        }\r\n    }\r\n\r\n\r\n\r\n    /////////////////////////////////////////////Marketplace Contract//////////////////////////////////////////////\r\n\r\n    struct Item {\r\n        address payable seller;\r\n        uint256 price;\r\n        uint256 startedAt;\r\n        bool isSelling;\r\n    }\r\n\r\n    mapping (address => uint256) userToListedItems;\r\n    mapping (uint256 => Item) tokenIdToItem;\r\n\r\n    function getItemDetail(uint256 _tokenId) external view returns (Item memory){\r\n        return tokenIdToItem[_tokenId];\r\n    }\r\n\r\n    function sell(uint256 _tokenId, uint256 _price) external nonReentrant {\r\n        require(ownerOf(_tokenId) == msg.sender);\r\n        tokenIdToItem[_tokenId] = Item(\r\n            payable(msg.sender),\r\n            _price,\r\n            block.timestamp,\r\n            true\r\n        );\r\n        safeTransferFrom(msg.sender, address(this), _tokenId);\r\n        userToListedItems[msg.sender] ++;\r\n        emit ListAnItem(msg.sender, _tokenId, _price, block.timestamp);\r\n    }\r\n\r\n    function cancelSell(uint256 _tokenId) external nonReentrant {\r\n        Item storage item = tokenIdToItem[_tokenId];\r\n        require(item.startedAt > 0);\r\n        require(item.isSelling);\r\n        require(msg.sender == item.seller);\r\n        userToListedItems[msg.sender] --;\r\n        item.isSelling = false;\r\n        this.safeTransferFrom(address(this), item.seller, _tokenId);\r\n        delete tokenIdToItem[_tokenId];\r\n        emit CancelAnListedItem(msg.sender, _tokenId, block.timestamp);\r\n    }\r\n\r\n    function purchaseItem(uint256 _tokenId) external payable nonReentrant {\r\n        // Get a reference to the auction struct\r\n        Item storage item = tokenIdToItem[_tokenId];\r\n        address payable seller = item.seller;\r\n        require(item.startedAt > 0);\r\n        require(item.isSelling);\r\n        require(item.price / 5 + item.price == msg.value);\r\n        uint256 price = item.price;\r\n        delete tokenIdToItem[_tokenId];\r\n        // Transfer proceeds to seller (if there are any!)\r\n        if (price > 0) {\r\n            (bool sent, bytes memory data) = payable(seller).call{value:price}(\"\");\r\n        }\r\n        this.safeTransferFrom(address(this), msg.sender, _tokenId);\r\n        userToListedItems[seller]--;\r\n        emit PurchaseAnItem(msg.sender, _tokenId, seller, price, block.timestamp);\r\n    }\r\n\r\n    function getListedItemsForUser(address user) public view returns (uint256[] memory){\r\n        if(userToListedItems[user] ==0){\r\n            return new uint256[](0);\r\n        }\r\n        else{\r\n            uint256[] memory result = new uint256[](userToListedItems[user]);\r\n            uint256 totalAIAs = nextId;\r\n            uint256 resultIndex = 0;\r\n            uint256 i;\r\n            for(i=0; i < totalAIAs; i++)\r\n            {\r\n                Item memory item = tokenIdToItem[i];\r\n                if(item.seller == user)\r\n                {\r\n                    result[resultIndex] = i;\r\n                    resultIndex++;\r\n                }\r\n            }\r\n            return result;\r\n        }\r\n    }\r\n\r\n\r\n    /////////////////////////////////////////////Helper Functions///////////////////////////////////////////////////\r\n    function onERC721Received(address, address, uint256, bytes memory) public virtual override returns (bytes4) {\r\n        return this.onERC721Received.selector;\r\n    }\r\n\r\n    function uintToString(uint v) public pure returns (string memory) {\r\n        if (v == 0){\r\n            string memory zero = \"0\";\r\n            return zero;\r\n        }\r\n        uint maxlength = 100;\r\n        bytes memory reversed = new bytes(maxlength);\r\n        uint i = 0;\r\n        while (v != 0) {\r\n            uint remainder = v % 10;\r\n            v = v / 10;\r\n            reversed[i++] = bytes1(uint8(48 + remainder));\r\n        }\r\n        bytes memory s = new bytes(i); // i + 1 is inefficient\r\n        for (uint j = 0; j < i; j++) {\r\n            s[j] = reversed[i - j - 1]; // to avoid the off-by-one error\r\n        }\r\n        string memory str = string(s);  // memory isn't implicitly convertible to storage\r\n        return str;\r\n    }\r\n}",
  "sourcePath": "C:\\Users\\Niven\\Documents\\AIA\\contracts\\Token.sol",
  "compiler": {
    "name": "solc",
    "version": "0.8.13+commit.abaa5c0e.Emscripten.clang"
  },
  "schemaVersion": "3.4.6",
  "updatedAt": "2022-06-14T14:26:37.220Z",
  "networkType": "ethereum",
  "devdoc": {
    "kind": "dev",
    "methods": {
      "approve(address,uint256)": {
        "details": "See {IERC721-approve}."
      },
      "balanceOf(address)": {
        "details": "See {IERC721-balanceOf}."
      },
      "getApproved(uint256)": {
        "details": "See {IERC721-getApproved}."
      },
      "isApprovedForAll(address,address)": {
        "details": "See {IERC721-isApprovedForAll}."
      },
      "name()": {
        "details": "See {IERC721Metadata-name}."
      },
      "owner()": {
        "details": "Returns the address of the current owner."
      },
      "ownerOf(uint256)": {
        "details": "See {IERC721-ownerOf}."
      },
      "renounceOwnership()": {
        "details": "Leaves the contract without owner. It will not be possible to call `onlyOwner` functions anymore. Can only be called by the current owner. NOTE: Renouncing ownership will leave the contract without an owner, thereby removing any functionality that is only available to the owner."
      },
      "safeTransferFrom(address,address,uint256)": {
        "details": "See {IERC721-safeTransferFrom}."
      },
      "safeTransferFrom(address,address,uint256,bytes)": {
        "details": "See {IERC721-safeTransferFrom}."
      },
      "setApprovalForAll(address,bool)": {
        "details": "See {IERC721-setApprovalForAll}."
      },
      "supportsInterface(bytes4)": {
        "details": "See {IERC165-supportsInterface}."
      },
      "symbol()": {
        "details": "See {IERC721Metadata-symbol}."
      },
      "tokenURI(uint256)": {
        "details": "See {IERC721Metadata-tokenURI}."
      },
      "transferFrom(address,address,uint256)": {
        "details": "See {IERC721-transferFrom}."
      },
      "transferOwnership(address)": {
        "details": "Transfers ownership of the contract to a new account (`newOwner`). Can only be called by the current owner."
      }
    },
    "version": 1
  },
  "userdoc": {
    "kind": "user",
    "methods": {},
    "version": 1
  }
}