{
	"contractName": "Token",
	"abi": [
		{
			"inputs": [
				{
					"internalType": "string",
					"name": "name",
					"type": "string"
				},
				{
					"internalType": "string",
					"name": "symbol",
					"type": "string"
				},
				{
					"internalType": "uint64",
					"name": "subscriptionId",
					"type": "uint64"
				},
				{
					"internalType": "uint64",
					"name": "_totalSupply",
					"type": "uint64"
				}
			],
			"stateMutability": "nonpayable",
			"type": "constructor"
		},
		{
			"inputs": [
				{
					"internalType": "address",
					"name": "have",
					"type": "address"
				},
				{
					"internalType": "address",
					"name": "want",
					"type": "address"
				}
			],
			"name": "OnlyCoordinatorCanFulfill",
			"type": "error"
		},
		{
			"anonymous": false,
			"inputs": [
				{
					"indexed": true,
					"internalType": "address",
					"name": "owner",
					"type": "address"
				},
				{
					"indexed": true,
					"internalType": "address",
					"name": "approved",
					"type": "address"
				},
				{
					"indexed": true,
					"internalType": "uint256",
					"name": "tokenId",
					"type": "uint256"
				}
			],
			"name": "Approval",
			"type": "event"
		},
		{
			"anonymous": false,
			"inputs": [
				{
					"indexed": true,
					"internalType": "address",
					"name": "owner",
					"type": "address"
				},
				{
					"indexed": true,
					"internalType": "address",
					"name": "operator",
					"type": "address"
				},
				{
					"indexed": false,
					"internalType": "bool",
					"name": "approved",
					"type": "bool"
				}
			],
			"name": "ApprovalForAll",
			"type": "event"
		},
		{
			"anonymous": false,
			"inputs": [
				{
					"indexed": true,
					"internalType": "address",
					"name": "owner",
					"type": "address"
				},
				{
					"indexed": true,
					"internalType": "uint256",
					"name": "tokenId",
					"type": "uint256"
				},
				{
					"indexed": false,
					"internalType": "uint256",
					"name": "timestamp",
					"type": "uint256"
				}
			],
			"name": "CancelAnListedItem",
			"type": "event"
		},
		{
			"anonymous": false,
			"inputs": [
				{
					"indexed": true,
					"internalType": "address",
					"name": "owner",
					"type": "address"
				},
				{
					"indexed": true,
					"internalType": "uint256",
					"name": "tokenId",
					"type": "uint256"
				},
				{
					"indexed": false,
					"internalType": "uint256",
					"name": "price",
					"type": "uint256"
				},
				{
					"indexed": false,
					"internalType": "uint256",
					"name": "duration",
					"type": "uint256"
				},
				{
					"indexed": false,
					"internalType": "uint256",
					"name": "timestamp",
					"type": "uint256"
				}
			],
			"name": "ListAnItem",
			"type": "event"
		},
		{
			"anonymous": false,
			"inputs": [
				{
					"indexed": true,
					"internalType": "address",
					"name": "owner",
					"type": "address"
				},
				{
					"indexed": true,
					"internalType": "uint256",
					"name": "tokenId",
					"type": "uint256"
				},
				{
					"indexed": false,
					"internalType": "uint256",
					"name": "timestamp",
					"type": "uint256"
				}
			],
			"name": "Mint",
			"type": "event"
		},
		{
			"anonymous": false,
			"inputs": [
				{
					"indexed": true,
					"internalType": "address",
					"name": "previousOwner",
					"type": "address"
				},
				{
					"indexed": true,
					"internalType": "address",
					"name": "newOwner",
					"type": "address"
				}
			],
			"name": "OwnershipTransferred",
			"type": "event"
		},
		{
			"anonymous": false,
			"inputs": [
				{
					"indexed": true,
					"internalType": "address",
					"name": "buyer",
					"type": "address"
				},
				{
					"indexed": true,
					"internalType": "uint256",
					"name": "tokenId",
					"type": "uint256"
				},
				{
					"indexed": true,
					"internalType": "address",
					"name": "seller",
					"type": "address"
				},
				{
					"indexed": false,
					"internalType": "uint256",
					"name": "price",
					"type": "uint256"
				},
				{
					"indexed": false,
					"internalType": "uint256",
					"name": "timestamp",
					"type": "uint256"
				}
			],
			"name": "PurchaseAnItem",
			"type": "event"
		},
		{
			"anonymous": false,
			"inputs": [
				{
					"indexed": true,
					"internalType": "address",
					"name": "from",
					"type": "address"
				},
				{
					"indexed": true,
					"internalType": "address",
					"name": "to",
					"type": "address"
				},
				{
					"indexed": true,
					"internalType": "uint256",
					"name": "tokenId",
					"type": "uint256"
				}
			],
			"name": "Transfer",
			"type": "event"
		},
		{
			"inputs": [
				{
					"internalType": "address",
					"name": "to",
					"type": "address"
				},
				{
					"internalType": "uint256",
					"name": "tokenId",
					"type": "uint256"
				}
			],
			"name": "approve",
			"outputs": [],
			"stateMutability": "nonpayable",
			"type": "function"
		},
		{
			"inputs": [
				{
					"internalType": "address",
					"name": "owner",
					"type": "address"
				}
			],
			"name": "balanceOf",
			"outputs": [
				{
					"internalType": "uint256",
					"name": "",
					"type": "uint256"
				}
			],
			"stateMutability": "view",
			"type": "function",
			"constant": true
		},
		{
			"inputs": [
				{
					"internalType": "uint256",
					"name": "tokenId",
					"type": "uint256"
				}
			],
			"name": "getApproved",
			"outputs": [
				{
					"internalType": "address",
					"name": "",
					"type": "address"
				}
			],
			"stateMutability": "view",
			"type": "function",
			"constant": true
		},
		{
			"inputs": [
				{
					"internalType": "address",
					"name": "owner",
					"type": "address"
				},
				{
					"internalType": "address",
					"name": "operator",
					"type": "address"
				}
			],
			"name": "isApprovedForAll",
			"outputs": [
				{
					"internalType": "bool",
					"name": "",
					"type": "bool"
				}
			],
			"stateMutability": "view",
			"type": "function",
			"constant": true
		},
		{
			"inputs": [],
			"name": "name",
			"outputs": [
				{
					"internalType": "string",
					"name": "",
					"type": "string"
				}
			],
			"stateMutability": "view",
			"type": "function",
			"constant": true
		},
		{
			"inputs": [],
			"name": "owner",
			"outputs": [
				{
					"internalType": "address",
					"name": "",
					"type": "address"
				}
			],
			"stateMutability": "view",
			"type": "function",
			"constant": true
		},
		{
			"inputs": [
				{
					"internalType": "uint256",
					"name": "tokenId",
					"type": "uint256"
				}
			],
			"name": "ownerOf",
			"outputs": [
				{
					"internalType": "address",
					"name": "",
					"type": "address"
				}
			],
			"stateMutability": "view",
			"type": "function",
			"constant": true
		},
		{
			"inputs": [
				{
					"internalType": "uint256",
					"name": "requestId",
					"type": "uint256"
				},
				{
					"internalType": "uint256[]",
					"name": "randomWords",
					"type": "uint256[]"
				}
			],
			"name": "rawFulfillRandomWords",
			"outputs": [],
			"stateMutability": "nonpayable",
			"type": "function"
		},
		{
			"inputs": [],
			"name": "renounceOwnership",
			"outputs": [],
			"stateMutability": "nonpayable",
			"type": "function"
		},
		{
			"inputs": [],
			"name": "s_requestId",
			"outputs": [
				{
					"internalType": "uint256",
					"name": "",
					"type": "uint256"
				}
			],
			"stateMutability": "view",
			"type": "function",
			"constant": true
		},
		{
			"inputs": [
				{
					"internalType": "address",
					"name": "from",
					"type": "address"
				},
				{
					"internalType": "address",
					"name": "to",
					"type": "address"
				},
				{
					"internalType": "uint256",
					"name": "tokenId",
					"type": "uint256"
				}
			],
			"name": "safeTransferFrom",
			"outputs": [],
			"stateMutability": "nonpayable",
			"type": "function"
		},
		{
			"inputs": [
				{
					"internalType": "address",
					"name": "from",
					"type": "address"
				},
				{
					"internalType": "address",
					"name": "to",
					"type": "address"
				},
				{
					"internalType": "uint256",
					"name": "tokenId",
					"type": "uint256"
				},
				{
					"internalType": "bytes",
					"name": "_data",
					"type": "bytes"
				}
			],
			"name": "safeTransferFrom",
			"outputs": [],
			"stateMutability": "nonpayable",
			"type": "function"
		},
		{
			"inputs": [
				{
					"internalType": "address",
					"name": "operator",
					"type": "address"
				},
				{
					"internalType": "bool",
					"name": "approved",
					"type": "bool"
				}
			],
			"name": "setApprovalForAll",
			"outputs": [],
			"stateMutability": "nonpayable",
			"type": "function"
		},
		{
			"inputs": [
				{
					"internalType": "bytes4",
					"name": "interfaceId",
					"type": "bytes4"
				}
			],
			"name": "supportsInterface",
			"outputs": [
				{
					"internalType": "bool",
					"name": "",
					"type": "bool"
				}
			],
			"stateMutability": "view",
			"type": "function",
			"constant": true
		},
		{
			"inputs": [],
			"name": "symbol",
			"outputs": [
				{
					"internalType": "string",
					"name": "",
					"type": "string"
				}
			],
			"stateMutability": "view",
			"type": "function",
			"constant": true
		},
		{
			"inputs": [
				{
					"internalType": "uint256",
					"name": "tokenId",
					"type": "uint256"
				}
			],
			"name": "tokenURI",
			"outputs": [
				{
					"internalType": "string",
					"name": "",
					"type": "string"
				}
			],
			"stateMutability": "view",
			"type": "function",
			"constant": true
		},
		{
			"inputs": [
				{
					"internalType": "address",
					"name": "from",
					"type": "address"
				},
				{
					"internalType": "address",
					"name": "to",
					"type": "address"
				},
				{
					"internalType": "uint256",
					"name": "tokenId",
					"type": "uint256"
				}
			],
			"name": "transferFrom",
			"outputs": [],
			"stateMutability": "nonpayable",
			"type": "function"
		},
		{
			"inputs": [
				{
					"internalType": "address",
					"name": "newOwner",
					"type": "address"
				}
			],
			"name": "transferOwnership",
			"outputs": [],
			"stateMutability": "nonpayable",
			"type": "function"
		},
		{
			"inputs": [],
			"name": "requestRandomWords",
			"outputs": [],
			"stateMutability": "nonpayable",
			"type": "function"
		},
		{
			"inputs": [],
			"name": "shuffle",
			"outputs": [],
			"stateMutability": "nonpayable",
			"type": "function"
		},
		{
			"inputs": [],
			"name": "getOrder",
			"outputs": [
				{
					"internalType": "uint256[]",
					"name": "",
					"type": "uint256[]"
				}
			],
			"stateMutability": "view",
			"type": "function",
			"constant": true
		},
		{
			"inputs": [],
			"name": "mint",
			"outputs": [],
			"stateMutability": "payable",
			"type": "function",
			"payable": true
		},
		{
			"inputs": [],
			"name": "getBalance",
			"outputs": [
				{
					"internalType": "uint256",
					"name": "",
					"type": "uint256"
				}
			],
			"stateMutability": "view",
			"type": "function",
			"constant": true
		},
		{
			"inputs": [],
			"name": "withdrawBalance",
			"outputs": [],
			"stateMutability": "payable",
			"type": "function",
			"payable": true
		},
		{
			"inputs": [
				{
					"internalType": "address",
					"name": "user",
					"type": "address"
				}
			],
			"name": "getAllTokensForUser",
			"outputs": [
				{
					"internalType": "uint256[]",
					"name": "",
					"type": "uint256[]"
				}
			],
			"stateMutability": "view",
			"type": "function",
			"constant": true
		},
		{
			"inputs": [
				{
					"internalType": "uint256",
					"name": "_tokenId",
					"type": "uint256"
				},
				{
					"internalType": "uint256",
					"name": "_price",
					"type": "uint256"
				},
				{
					"internalType": "uint256",
					"name": "_duration",
					"type": "uint256"
				}
			],
			"name": "sell",
			"outputs": [],
			"stateMutability": "nonpayable",
			"type": "function"
		},
		{
			"inputs": [
				{
					"internalType": "uint256",
					"name": "_tokenId",
					"type": "uint256"
				}
			],
			"name": "cancelSell",
			"outputs": [],
			"stateMutability": "nonpayable",
			"type": "function"
		},
		{
			"inputs": [
				{
					"internalType": "uint256",
					"name": "_tokenId",
					"type": "uint256"
				}
			],
			"name": "purchaseItem",
			"outputs": [],
			"stateMutability": "payable",
			"type": "function",
			"payable": true
		},
		{
			"inputs": [
				{
					"internalType": "address",
					"name": "user",
					"type": "address"
				}
			],
			"name": "getListedItemsForUser",
			"outputs": [
				{
					"internalType": "uint256[]",
					"name": "",
					"type": "uint256[]"
				}
			],
			"stateMutability": "view",
			"type": "function",
			"constant": true
		},
		{
			"inputs": [
				{
					"internalType": "address",
					"name": "",
					"type": "address"
				},
				{
					"internalType": "address",
					"name": "",
					"type": "address"
				},
				{
					"internalType": "uint256",
					"name": "",
					"type": "uint256"
				},
				{
					"internalType": "bytes",
					"name": "",
					"type": "bytes"
				}
			],
			"name": "onERC721Received",
			"outputs": [
				{
					"internalType": "bytes4",
					"name": "",
					"type": "bytes4"
				}
			],
			"stateMutability": "nonpayable",
			"type": "function"
		},
		{
			"inputs": [
				{
					"internalType": "uint256",
					"name": "v",
					"type": "uint256"
				}
			],
			"name": "uintToString",
			"outputs": [
				{
					"internalType": "string",
					"name": "",
					"type": "string"
				}
			],
			"stateMutability": "pure",
			"type": "function",
			"constant": true
		}
	],
	"bytecode": "0x60a0604052736168499c0cffcacd319c818142124b7a15e857ab600a60006101000a81548173ffffffffffffffffffffffffffffffffffffffff021916908373ffffffffffffffffffffffffffffffffffffffff1602179055507fd89b2bf150e3b9e13446986e571fb9cab24b13cea0a43ea20a6049a85cc807cc60001b600b55620186a0600c60006101000a81548163ffffffff021916908363ffffffff1602179055506003600c60046101000a81548161ffff021916908361ffff1602179055506001600c60066101000a81548163ffffffff021916908363ffffffff160217905550600060105560006076556040518060600160405280602f8152602001620057c2602f9139607790805190602001906200011f9291906200040a565b506040518060400160405280600581526020017f2e6a736f6e000000000000000000000000000000000000000000000000000000815250607890805190602001906200016d9291906200040a565b503480156200017b57600080fd5b50604051620057f1380380620057f18339818101604052810190620001a191906200069c565b8383600a60009054906101000a900473ffffffffffffffffffffffffffffffffffffffff16620001e6620001da6200033e60201b60201c565b6200034660201b60201c565b600180819055508073ffffffffffffffffffffffffffffffffffffffff1660808173ffffffffffffffffffffffffffffffffffffffff16815250505081600290805190602001906200023a9291906200040a565b508060039080519060200190620002539291906200040a565b505050600a60009054906101000a900473ffffffffffffffffffffffffffffffffffffffff16600960006101000a81548173ffffffffffffffffffffffffffffffffffffffff021916908373ffffffffffffffffffffffffffffffffffffffff16021790555033600f60006101000a81548173ffffffffffffffffffffffffffffffffffffffff021916908373ffffffffffffffffffffffffffffffffffffffff16021790555081600960146101000a81548167ffffffffffffffff021916908367ffffffffffffffff1602179055508067ffffffffffffffff1660758190555050505050620007b0565b600033905090565b60008060009054906101000a900473ffffffffffffffffffffffffffffffffffffffff169050816000806101000a81548173ffffffffffffffffffffffffffffffffffffffff021916908373ffffffffffffffffffffffffffffffffffffffff1602179055508173ffffffffffffffffffffffffffffffffffffffff168173ffffffffffffffffffffffffffffffffffffffff167f8be0079c531659141344cd1fd0a4f28419497f9722a3daafe3b4186f6b6457e060405160405180910390a35050565b82805462000418906200077b565b90600052602060002090601f0160209004810192826200043c576000855562000488565b82601f106200045757805160ff191683800117855562000488565b8280016001018555821562000488579182015b82811115620004875782518255916020019190600101906200046a565b5b5090506200049791906200049b565b5090565b5b80821115620004b65760008160009055506001016200049c565b5090565b6000604051905090565b600080fd5b600080fd5b600080fd5b600080fd5b6000601f19601f8301169050919050565b7f4e487b7100000000000000000000000000000000000000000000000000000000600052604160045260246000fd5b6200052382620004d8565b810181811067ffffffffffffffff82111715620005455762000544620004e9565b5b80604052505050565b60006200055a620004ba565b905062000568828262000518565b919050565b600067ffffffffffffffff8211156200058b576200058a620004e9565b5b6200059682620004d8565b9050602081019050919050565b60005b83811015620005c3578082015181840152602081019050620005a6565b83811115620005d3576000848401525b50505050565b6000620005f0620005ea846200056d565b6200054e565b9050828152602081018484840111156200060f576200060e620004d3565b5b6200061c848285620005a3565b509392505050565b600082601f8301126200063c576200063b620004ce565b5b81516200064e848260208601620005d9565b91505092915050565b600067ffffffffffffffff82169050919050565b620006768162000657565b81146200068257600080fd5b50565b60008151905062000696816200066b565b92915050565b60008060008060808587031215620006b957620006b8620004c4565b5b600085015167ffffffffffffffff811115620006da57620006d9620004c9565b5b620006e88782880162000624565b945050602085015167ffffffffffffffff8111156200070c576200070b620004c9565b5b6200071a8782880162000624565b93505060406200072d8782880162000685565b9250506060620007408782880162000685565b91505092959194509250565b7f4e487b7100000000000000000000000000000000000000000000000000000000600052602260045260246000fd5b600060028204905060018216806200079457607f821691505b602082108103620007aa57620007a96200074c565b5b50919050565b608051614fef620007d360003960008181610e960152610eea0152614fef6000f3fe6080604052600436106101d85760003560e01c806370a0823111610102578063d36dedd211610095578063e89e106a11610064578063e89e106a14610659578063e939567914610684578063e985e9c5146106c1578063f2fde38b146106fe576101d8565b8063d36dedd2146105d2578063d38ea5bf146105fd578063d3c9727c14610619578063e0c8628914610642576101d8565b806395d89b41116100d157806395d89b4114610518578063a22cb46514610543578063b88d4fde1461056c578063c87b56dd14610595576101d8565b806370a082311461045c578063715018a61461049957806382de8fe9146104b05780638da5cb5b146104ed576101d8565b8063150b7a021161017a5780632888df2a116101495780632888df2a146103af57806342842e0e146103ec5780635fd8c710146104155780636352211e1461041f576101d8565b8063150b7a02146103095780631fe543e31461034657806323b872dd1461036f5780632520bf0414610398576101d8565b8063081812fc116101b6578063081812fc1461026e578063095ea7b3146102ab57806312065fe0146102d45780631249c58b146102ff576101d8565b806301ffc9a7146101dd57806306fdde031461021a57806307c9cd4514610245575b600080fd5b3480156101e957600080fd5b5061020460048036038101906101ff919061358c565b610727565b60405161021191906135d4565b60405180910390f35b34801561022657600080fd5b5061022f610809565b60405161023c9190613688565b60405180910390f35b34801561025157600080fd5b5061026c600480360381019061026791906136e0565b61089b565b005b34801561027a57600080fd5b50610295600480360381019061029091906136e0565b610b4f565b6040516102a2919061374e565b60405180910390f35b3480156102b757600080fd5b506102d260048036038101906102cd9190613795565b610bd4565b005b3480156102e057600080fd5b506102e9610ceb565b6040516102f691906137e4565b60405180910390f35b610307610d6f565b005b34801561031557600080fd5b50610330600480360381019061032b9190613934565b610e80565b60405161033d91906139c6565b60405180910390f35b34801561035257600080fd5b5061036d60048036038101906103689190613aa9565b610e94565b005b34801561037b57600080fd5b5061039660048036038101906103919190613b05565b610f54565b005b3480156103a457600080fd5b506103ad610fb4565b005b3480156103bb57600080fd5b506103d660048036038101906103d19190613b58565b611175565b6040516103e39190613c43565b60405180910390f35b3480156103f857600080fd5b50610413600480360381019061040e9190613b05565b6113e6565b005b61041d611406565b005b34801561042b57600080fd5b50610446600480360381019061044191906136e0565b611570565b604051610453919061374e565b60405180910390f35b34801561046857600080fd5b50610483600480360381019061047e9190613b58565b611621565b60405161049091906137e4565b60405180910390f35b3480156104a557600080fd5b506104ae6116d8565b005b3480156104bc57600080fd5b506104d760048036038101906104d29190613b58565b611760565b6040516104e49190613c43565b60405180910390f35b3480156104f957600080fd5b506105026118b4565b60405161050f919061374e565b60405180910390f35b34801561052457600080fd5b5061052d6118dd565b60405161053a9190613688565b60405180910390f35b34801561054f57600080fd5b5061056a60048036038101906105659190613c91565b61196f565b005b34801561057857600080fd5b50610593600480360381019061058e9190613934565b611985565b005b3480156105a157600080fd5b506105bc60048036038101906105b791906136e0565b6119e7565b6040516105c99190613688565b60405180910390f35b3480156105de57600080fd5b506105e7611b38565b6040516105f49190613c43565b60405180910390f35b610617600480360381019061061291906136e0565b611be6565b005b34801561062557600080fd5b50610640600480360381019061063b9190613cd1565b611eef565b005b34801561064e57600080fd5b50610657612124565b005b34801561066557600080fd5b5061066e61229a565b60405161067b91906137e4565b60405180910390f35b34801561069057600080fd5b506106ab60048036038101906106a691906136e0565b6122a0565b6040516106b89190613688565b60405180910390f35b3480156106cd57600080fd5b506106e860048036038101906106e39190613d24565b6124cd565b6040516106f591906135d4565b60405180910390f35b34801561070a57600080fd5b5061072560048036038101906107209190613b58565b612561565b005b60007f80ac58cd000000000000000000000000000000000000000000000000000000007bffffffffffffffffffffffffffffffffffffffffffffffffffffffff1916827bffffffffffffffffffffffffffffffffffffffffffffffffffffffff191614806107f257507f5b5e139f000000000000000000000000000000000000000000000000000000007bffffffffffffffffffffffffffffffffffffffffffffffffffffffff1916827bffffffffffffffffffffffffffffffffffffffffffffffffffffffff1916145b80610802575061080182612658565b5b9050919050565b60606002805461081890613d93565b80601f016020809104026020016040519081016040528092919081815260200182805461084490613d93565b80156108915780601f1061086657610100808354040283529160200191610891565b820191906000526020600020905b81548152906001019060200180831161087457829003601f168201915b5050505050905090565b6002600154036108e0576040517f08c379a00000000000000000000000000000000000000000000000000000000081526004016108d790613e10565b60405180910390fd5b60026001819055506000607a60008381526020019081526020016000209050600081600301541161091057600080fd5b8060040160009054906101000a900460ff1661092b57600080fd5b8060000160009054906101000a900473ffffffffffffffffffffffffffffffffffffffff1673ffffffffffffffffffffffffffffffffffffffff163373ffffffffffffffffffffffffffffffffffffffff161461098757600080fd5b607960003373ffffffffffffffffffffffffffffffffffffffff1673ffffffffffffffffffffffffffffffffffffffff16815260200190815260200160002060008154809291906109d790613e5f565b919050555060008160040160006101000a81548160ff0219169083151502179055503073ffffffffffffffffffffffffffffffffffffffff166342842e0e308360000160009054906101000a900473ffffffffffffffffffffffffffffffffffffffff16856040518463ffffffff1660e01b8152600401610a5a93929190613ee7565b600060405180830381600087803b158015610a7457600080fd5b505af1158015610a88573d6000803e3d6000fd5b50505050607a6000838152602001908152602001600020600080820160006101000a81549073ffffffffffffffffffffffffffffffffffffffff02191690556001820160009055600282016000905560038201600090556004820160006101000a81549060ff02191690555050813373ffffffffffffffffffffffffffffffffffffffff167faafa025e65bdcff1ef0464eae38e306c5dedaa9ba5ee3f47de3b91d1bf1460e442604051610b3c91906137e4565b60405180910390a3506001808190555050565b6000610b5a826126c2565b610b99576040517f08c379a0000000000000000000000000000000000000000000000000000000008152600401610b9090613f90565b60405180910390fd5b6006600083815260200190815260200160002060009054906101000a900473ffffffffffffffffffffffffffffffffffffffff169050919050565b6000610bdf82611570565b90508073ffffffffffffffffffffffffffffffffffffffff168373ffffffffffffffffffffffffffffffffffffffff1603610c4f576040517f08c379a0000000000000000000000000000000000000000000000000000000008152600401610c4690614022565b60405180910390fd5b8073ffffffffffffffffffffffffffffffffffffffff16610c6e61272e565b73ffffffffffffffffffffffffffffffffffffffff161480610c9d5750610c9c81610c9761272e565b6124cd565b5b610cdc576040517f08c379a0000000000000000000000000000000000000000000000000000000008152600401610cd3906140b4565b60405180910390fd5b610ce68383612736565b505050565b6000610cf561272e565b73ffffffffffffffffffffffffffffffffffffffff16610d136118b4565b73ffffffffffffffffffffffffffffffffffffffff1614610d69576040517f08c379a0000000000000000000000000000000000000000000000000000000008152600401610d6090614120565b60405180910390fd5b47905090565b662386f26fc10000341015610db9576040517f08c379a0000000000000000000000000000000000000000000000000000000008152600401610db0906141b2565b60405180910390fd5b610dc5336076546127ef565b610e156076546077610ded601160765460648110610de657610de56141d2565b5b01546122a0565b6078604051602001610e01939291906142d1565b60405160208183030381529060405261280d565b6076543373ffffffffffffffffffffffffffffffffffffffff167f4c209b5fc8ad50758f13e2e1088ba56a560dff690a1c6fef26394f4c03821c4f42604051610e5e91906137e4565b60405180910390a360766000815480929190610e7990614302565b9190505550565b600063150b7a0260e01b9050949350505050565b7f000000000000000000000000000000000000000000000000000000000000000073ffffffffffffffffffffffffffffffffffffffff163373ffffffffffffffffffffffffffffffffffffffff1614610f4657337f00000000000000000000000000000000000000000000000000000000000000006040517f1cf993f4000000000000000000000000000000000000000000000000000000008152600401610f3d92919061434a565b60405180910390fd5b610f508282612881565b5050565b610f65610f5f61272e565b826128a7565b610fa4576040517f08c379a0000000000000000000000000000000000000000000000000000000008152600401610f9b906143e5565b60405180910390fd5b610faf838383612985565b505050565b600060755467ffffffffffffffff811115610fd257610fd1613809565b5b6040519080825280602002602001820160405280156110005781602001602082028036833780820191505090505b50905060005b6075548160ff161015611058576001816110209190614412565b60ff16828260ff1681518110611039576110386141d2565b5b602002602001018181525050808061105090614449565b915050611006565b60008091505b6075548260ff161015611170578160ff1660755461107c9190614472565b600d546010546040516020016110939291906144a6565b6040516020818303038152906040528051906020012060001c6110b691906144fe565b9050601060008154809291906110cb90614302565b91905055508281815181106110e3576110e26141d2565b5b602002602001015160118360ff1660648110611102576111016141d2565b5b01819055508260018360ff1660755461111b9190614472565b6111259190614472565b81518110611136576111356141d2565b5b6020026020010151838281518110611151576111506141d2565b5b602002602001018181525050818061116890614449565b92505061105e565b505050565b60606000607960008473ffffffffffffffffffffffffffffffffffffffff1673ffffffffffffffffffffffffffffffffffffffff168152602001908152602001600020540361120f57600067ffffffffffffffff8111156111d9576111d8613809565b5b6040519080825280602002602001820160405280156112075781602001602082028036833780820191505090505b5090506113e1565b6000607960008473ffffffffffffffffffffffffffffffffffffffff1673ffffffffffffffffffffffffffffffffffffffff1681526020019081526020016000205467ffffffffffffffff81111561126a57611269613809565b5b6040519080825280602002602001820160405280156112985781602001602082028036833780820191505090505b509050600060765490506000805b828110156113d9576000607a60008381526020019081526020016000206040518060a00160405290816000820160009054906101000a900473ffffffffffffffffffffffffffffffffffffffff1673ffffffffffffffffffffffffffffffffffffffff1673ffffffffffffffffffffffffffffffffffffffff1681526020016001820154815260200160028201548152602001600382015481526020016004820160009054906101000a900460ff16151515158152505090508673ffffffffffffffffffffffffffffffffffffffff16816000015173ffffffffffffffffffffffffffffffffffffffff16036113c557818584815181106113aa576113a96141d2565b5b60200260200101818152505082806113c190614302565b9350505b5080806113d190614302565b9150506112a6565b839450505050505b919050565b61140183838360405180602001604052806000815250611985565b505050565b61140e61272e565b73ffffffffffffffffffffffffffffffffffffffff1661142c6118b4565b73ffffffffffffffffffffffffffffffffffffffff1614611482576040517f08c379a000000000000000000000000000000000000000000000000000000000815260040161147990614120565b60405180910390fd5b61148a6118b4565b73ffffffffffffffffffffffffffffffffffffffff163373ffffffffffffffffffffffffffffffffffffffff16146114f7576040517f08c379a00000000000000000000000000000000000000000000000000000000081526004016114ee90614555565b60405180910390fd5b6000806115026118b4565b73ffffffffffffffffffffffffffffffffffffffff1647604051611525906145a3565b60006040518083038185875af1925050503d8060008114611562576040519150601f19603f3d011682016040523d82523d6000602084013e611567565b606091505b50915091505050565b6000806004600084815260200190815260200160002060009054906101000a900473ffffffffffffffffffffffffffffffffffffffff169050600073ffffffffffffffffffffffffffffffffffffffff168173ffffffffffffffffffffffffffffffffffffffff1603611618576040517f08c379a000000000000000000000000000000000000000000000000000000000815260040161160f9061462a565b60405180910390fd5b80915050919050565b60008073ffffffffffffffffffffffffffffffffffffffff168273ffffffffffffffffffffffffffffffffffffffff1603611691576040517f08c379a0000000000000000000000000000000000000000000000000000000008152600401611688906146bc565b60405180910390fd5b600560008373ffffffffffffffffffffffffffffffffffffffff1673ffffffffffffffffffffffffffffffffffffffff168152602001908152602001600020549050919050565b6116e061272e565b73ffffffffffffffffffffffffffffffffffffffff166116fe6118b4565b73ffffffffffffffffffffffffffffffffffffffff1614611754576040517f08c379a000000000000000000000000000000000000000000000000000000000815260040161174b90614120565b60405180910390fd5b61175e6000612beb565b565b6060600061176d83611621565b9050600081036117c957600067ffffffffffffffff81111561179257611791613809565b5b6040519080825280602002602001820160405280156117c05781602001602082028036833780820191505090505b509150506118af565b60008167ffffffffffffffff8111156117e5576117e4613809565b5b6040519080825280602002602001820160405280156118135781602001602082028036833780820191505090505b509050600060765490506000805b828110156118a6578673ffffffffffffffffffffffffffffffffffffffff1661184982611570565b73ffffffffffffffffffffffffffffffffffffffff16036118935780848381518110611878576118776141d2565b5b602002602001018181525050818061188f90614302565b9250505b808061189e90614302565b915050611821565b83955050505050505b919050565b60008060009054906101000a900473ffffffffffffffffffffffffffffffffffffffff16905090565b6060600380546118ec90613d93565b80601f016020809104026020016040519081016040528092919081815260200182805461191890613d93565b80156119655780601f1061193a57610100808354040283529160200191611965565b820191906000526020600020905b81548152906001019060200180831161194857829003601f168201915b5050505050905090565b61198161197a61272e565b8383612caf565b5050565b61199661199061272e565b836128a7565b6119d5576040517f08c379a00000000000000000000000000000000000000000000000000000000081526004016119cc906143e5565b60405180910390fd5b6119e184848484612e1b565b50505050565b60606119f2826126c2565b611a31576040517f08c379a0000000000000000000000000000000000000000000000000000000008152600401611a289061474e565b60405180910390fd5b6000600860008481526020019081526020016000208054611a5190613d93565b80601f0160208091040260200160405190810160405280929190818152602001828054611a7d90613d93565b8015611aca5780601f10611a9f57610100808354040283529160200191611aca565b820191906000526020600020905b815481529060010190602001808311611aad57829003601f168201915b505050505090506000611adb612e77565b90506000815103611af0578192505050611b33565b600082511115611b25578082604051602001611b0d92919061476e565b60405160208183030381529060405292505050611b33565b611b2e84612e8e565b925050505b919050565b6060600060755467ffffffffffffffff811115611b5857611b57613809565b5b604051908082528060200260200182016040528015611b865781602001602082028036833780820191505090505b50905060005b607554811015611bde5760118160648110611baa57611ba96141d2565b5b0154828281518110611bbf57611bbe6141d2565b5b6020026020010181815250508080611bd690614302565b915050611b8c565b819250505090565b600260015403611c2b576040517f08c379a0000000000000000000000000000000000000000000000000000000008152600401611c2290613e10565b60405180910390fd5b60026001819055506000607a6000838152602001908152602001600020905060008160000160009054906101000a900473ffffffffffffffffffffffffffffffffffffffff1690506000826003015411611c8457600080fd5b8160040160009054906101000a900460ff16611c9f57600080fd5b34826001015460058460010154611cb69190614792565b611cc091906147c3565b14611cca57600080fd5b600082600101549050607a6000858152602001908152602001600020600080820160006101000a81549073ffffffffffffffffffffffffffffffffffffffff02191690556001820160009055600282016000905560038201600090556004820160006101000a81549060ff021916905550506000811115611db6576000808373ffffffffffffffffffffffffffffffffffffffff1683604051611d6c906145a3565b60006040518083038185875af1925050503d8060008114611da9576040519150601f19603f3d011682016040523d82523d6000602084013e611dae565b606091505b509150915050505b3073ffffffffffffffffffffffffffffffffffffffff166342842e0e3033876040518463ffffffff1660e01b8152600401611df393929190614819565b600060405180830381600087803b158015611e0d57600080fd5b505af1158015611e21573d6000803e3d6000fd5b50505050607960008373ffffffffffffffffffffffffffffffffffffffff1673ffffffffffffffffffffffffffffffffffffffff1681526020019081526020016000206000815480929190611e7590613e5f565b91905055508173ffffffffffffffffffffffffffffffffffffffff16843373ffffffffffffffffffffffffffffffffffffffff167f478956c967ca99f4651fef2663546a452561b806dd5b5818ad086a2f478511868442604051611eda9291906144a6565b60405180910390a45050506001808190555050565b600260015403611f34576040517f08c379a0000000000000000000000000000000000000000000000000000000008152600401611f2b90613e10565b60405180910390fd5b60026001819055503373ffffffffffffffffffffffffffffffffffffffff16611f5c84611570565b73ffffffffffffffffffffffffffffffffffffffff1614611f7c57600080fd5b603c811015611f8a57600080fd5b6040518060a001604052803373ffffffffffffffffffffffffffffffffffffffff16815260200183815260200182815260200142815260200160011515815250607a600085815260200190815260200160002060008201518160000160006101000a81548173ffffffffffffffffffffffffffffffffffffffff021916908373ffffffffffffffffffffffffffffffffffffffff16021790555060208201518160010155604082015181600201556060820151816003015560808201518160040160006101000a81548160ff0219169083151502179055509050506120703330856113e6565b607960003373ffffffffffffffffffffffffffffffffffffffff1673ffffffffffffffffffffffffffffffffffffffff16815260200190815260200160002060008154809291906120c090614302565b9190505550823373ffffffffffffffffffffffffffffffffffffffff167f1bd18fbc31b1648a85db1b4d7adc8ab1d87907cf79c519431985f3b8990b64cc84844260405161211093929190614850565b60405180910390a360018081905550505050565b61212c61272e565b73ffffffffffffffffffffffffffffffffffffffff1661214a6118b4565b73ffffffffffffffffffffffffffffffffffffffff16146121a0576040517f08c379a000000000000000000000000000000000000000000000000000000000815260040161219790614120565b60405180910390fd5b600960009054906101000a900473ffffffffffffffffffffffffffffffffffffffff1673ffffffffffffffffffffffffffffffffffffffff16635d3b1d30600b54600960149054906101000a900467ffffffffffffffff16600c60049054906101000a900461ffff16600c60009054906101000a900463ffffffff16600c60069054906101000a900463ffffffff166040518663ffffffff1660e01b815260040161224f9594939291906148ff565b6020604051808303816000875af115801561226e573d6000803e3d6000fd5b505050506040513d601f19601f820116820180604052508101906122929190614967565b600e81905550565b600e5481565b6060600082036122ed5760006040518060400160405280600181526020017f30000000000000000000000000000000000000000000000000000000000000008152509050809150506124c8565b60006064905060008167ffffffffffffffff81111561230f5761230e613809565b5b6040519080825280601f01601f1916602001820160405280156123415781602001600182028036833780820191505090505b50905060005b600085146123d3576000600a8661235e91906144fe565b9050600a8661236d9190614792565b955080603061237c91906147c3565b60f81b83838061238b90614302565b94508151811061239e5761239d6141d2565b5b60200101907effffffffffffffffffffffffffffffffffffffffffffffffffffffffffffff1916908160001a90535050612347565b60008167ffffffffffffffff8111156123ef576123ee613809565b5b6040519080825280601f01601f1916602001820160405280156124215781602001600182028036833780820191505090505b50905060005b828110156124b957836001828561243e9190614472565b6124489190614472565b81518110612459576124586141d2565b5b602001015160f81c60f81b828281518110612477576124766141d2565b5b60200101907effffffffffffffffffffffffffffffffffffffffffffffffffffffffffffff1916908160001a90535080806124b190614302565b915050612427565b50600081905080955050505050505b919050565b6000600760008473ffffffffffffffffffffffffffffffffffffffff1673ffffffffffffffffffffffffffffffffffffffff16815260200190815260200160002060008373ffffffffffffffffffffffffffffffffffffffff1673ffffffffffffffffffffffffffffffffffffffff16815260200190815260200160002060009054906101000a900460ff16905092915050565b61256961272e565b73ffffffffffffffffffffffffffffffffffffffff166125876118b4565b73ffffffffffffffffffffffffffffffffffffffff16146125dd576040517f08c379a00000000000000000000000000000000000000000000000000000000081526004016125d490614120565b60405180910390fd5b600073ffffffffffffffffffffffffffffffffffffffff168173ffffffffffffffffffffffffffffffffffffffff160361264c576040517f08c379a000000000000000000000000000000000000000000000000000000000815260040161264390614a06565b60405180910390fd5b61265581612beb565b50565b60007f01ffc9a7000000000000000000000000000000000000000000000000000000007bffffffffffffffffffffffffffffffffffffffffffffffffffffffff1916827bffffffffffffffffffffffffffffffffffffffffffffffffffffffff1916149050919050565b60008073ffffffffffffffffffffffffffffffffffffffff166004600084815260200190815260200160002060009054906101000a900473ffffffffffffffffffffffffffffffffffffffff1673ffffffffffffffffffffffffffffffffffffffff1614159050919050565b600033905090565b816006600083815260200190815260200160002060006101000a81548173ffffffffffffffffffffffffffffffffffffffff021916908373ffffffffffffffffffffffffffffffffffffffff160217905550808273ffffffffffffffffffffffffffffffffffffffff166127a983611570565b73ffffffffffffffffffffffffffffffffffffffff167f8c5be1e5ebec7d5bd14f71427d1e84f3dd0314c0f7b2291e5b200ac8c7c3b92560405160405180910390a45050565b612809828260405180602001604052806000815250612f35565b5050565b612816826126c2565b612855576040517f08c379a000000000000000000000000000000000000000000000000000000000815260040161284c90614a98565b60405180910390fd5b8060086000848152602001908152602001600020908051906020019061287c92919061347d565b505050565b80600081518110612895576128946141d2565b5b6020026020010151600d819055505050565b60006128b2826126c2565b6128f1576040517f08c379a00000000000000000000000000000000000000000000000000000000081526004016128e890614b2a565b60405180910390fd5b60006128fc83611570565b90508073ffffffffffffffffffffffffffffffffffffffff168473ffffffffffffffffffffffffffffffffffffffff16148061296b57508373ffffffffffffffffffffffffffffffffffffffff1661295384610b4f565b73ffffffffffffffffffffffffffffffffffffffff16145b8061297c575061297b81856124cd565b5b91505092915050565b8273ffffffffffffffffffffffffffffffffffffffff166129a582611570565b73ffffffffffffffffffffffffffffffffffffffff16146129fb576040517f08c379a00000000000000000000000000000000000000000000000000000000081526004016129f290614bbc565b60405180910390fd5b600073ffffffffffffffffffffffffffffffffffffffff168273ffffffffffffffffffffffffffffffffffffffff1603612a6a576040517f08c379a0000000000000000000000000000000000000000000000000000000008152600401612a6190614c4e565b60405180910390fd5b612a75838383612f90565b612a80600082612736565b6001600560008573ffffffffffffffffffffffffffffffffffffffff1673ffffffffffffffffffffffffffffffffffffffff1681526020019081526020016000206000828254612ad09190614472565b925050819055506001600560008473ffffffffffffffffffffffffffffffffffffffff1673ffffffffffffffffffffffffffffffffffffffff1681526020019081526020016000206000828254612b2791906147c3565b92505081905550816004600083815260200190815260200160002060006101000a81548173ffffffffffffffffffffffffffffffffffffffff021916908373ffffffffffffffffffffffffffffffffffffffff160217905550808273ffffffffffffffffffffffffffffffffffffffff168473ffffffffffffffffffffffffffffffffffffffff167fddf252ad1be2c89b69c2b068fc378daa952ba7f163c4a11628f55a4df523b3ef60405160405180910390a4612be6838383612f95565b505050565b60008060009054906101000a900473ffffffffffffffffffffffffffffffffffffffff169050816000806101000a81548173ffffffffffffffffffffffffffffffffffffffff021916908373ffffffffffffffffffffffffffffffffffffffff1602179055508173ffffffffffffffffffffffffffffffffffffffff168173ffffffffffffffffffffffffffffffffffffffff167f8be0079c531659141344cd1fd0a4f28419497f9722a3daafe3b4186f6b6457e060405160405180910390a35050565b8173ffffffffffffffffffffffffffffffffffffffff168373ffffffffffffffffffffffffffffffffffffffff1603612d1d576040517f08c379a0000000000000000000000000000000000000000000000000000000008152600401612d1490614cba565b60405180910390fd5b80600760008573ffffffffffffffffffffffffffffffffffffffff1673ffffffffffffffffffffffffffffffffffffffff16815260200190815260200160002060008473ffffffffffffffffffffffffffffffffffffffff1673ffffffffffffffffffffffffffffffffffffffff16815260200190815260200160002060006101000a81548160ff0219169083151502179055508173ffffffffffffffffffffffffffffffffffffffff168373ffffffffffffffffffffffffffffffffffffffff167f17307eab39ab6107e8899845ad3d59bd9653f200f220920489ca2b5937696c3183604051612e0e91906135d4565b60405180910390a3505050565b612e26848484612985565b612e3284848484612f9a565b612e71576040517f08c379a0000000000000000000000000000000000000000000000000000000008152600401612e6890614d4c565b60405180910390fd5b50505050565b606060405180602001604052806000815250905090565b6060612e99826126c2565b612ed8576040517f08c379a0000000000000000000000000000000000000000000000000000000008152600401612ecf90614dde565b60405180910390fd5b6000612ee2612e77565b90506000815111612f025760405180602001604052806000815250612f2d565b80612f0c84613121565b604051602001612f1d92919061476e565b6040516020818303038152906040525b915050919050565b612f3f8383613281565b612f4c6000848484612f9a565b612f8b576040517f08c379a0000000000000000000000000000000000000000000000000000000008152600401612f8290614d4c565b60405180910390fd5b505050565b505050565b505050565b6000612fbb8473ffffffffffffffffffffffffffffffffffffffff1661345a565b15613114578373ffffffffffffffffffffffffffffffffffffffff1663150b7a02612fe461272e565b8786866040518563ffffffff1660e01b81526004016130069493929190614e53565b6020604051808303816000875af192505050801561304257506040513d601f19601f8201168201806040525081019061303f9190614eb4565b60015b6130c4573d8060008114613072576040519150601f19603f3d011682016040523d82523d6000602084013e613077565b606091505b5060008151036130bc576040517f08c379a00000000000000000000000000000000000000000000000000000000081526004016130b390614d4c565b60405180910390fd5b805181602001fd5b63150b7a0260e01b7bffffffffffffffffffffffffffffffffffffffffffffffffffffffff1916817bffffffffffffffffffffffffffffffffffffffffffffffffffffffff191614915050613119565b600190505b949350505050565b606060008203613168576040518060400160405280600181526020017f3000000000000000000000000000000000000000000000000000000000000000815250905061327c565b600082905060005b6000821461319a57808061318390614302565b915050600a826131939190614792565b9150613170565b60008167ffffffffffffffff8111156131b6576131b5613809565b5b6040519080825280601f01601f1916602001820160405280156131e85781602001600182028036833780820191505090505b5090505b60008514613275576001826132019190614472565b9150600a8561321091906144fe565b603061321c91906147c3565b60f81b818381518110613232576132316141d2565b5b60200101907effffffffffffffffffffffffffffffffffffffffffffffffffffffffffffff1916908160001a905350600a8561326e9190614792565b94506131ec565b8093505050505b919050565b600073ffffffffffffffffffffffffffffffffffffffff168273ffffffffffffffffffffffffffffffffffffffff16036132f0576040517f08c379a00000000000000000000000000000000000000000000000000000000081526004016132e790614f2d565b60405180910390fd5b6132f9816126c2565b15613339576040517f08c379a000000000000000000000000000000000000000000000000000000000815260040161333090614f99565b60405180910390fd5b61334560008383612f90565b6001600560008473ffffffffffffffffffffffffffffffffffffffff1673ffffffffffffffffffffffffffffffffffffffff168152602001908152602001600020600082825461339591906147c3565b92505081905550816004600083815260200190815260200160002060006101000a81548173ffffffffffffffffffffffffffffffffffffffff021916908373ffffffffffffffffffffffffffffffffffffffff160217905550808273ffffffffffffffffffffffffffffffffffffffff16600073ffffffffffffffffffffffffffffffffffffffff167fddf252ad1be2c89b69c2b068fc378daa952ba7f163c4a11628f55a4df523b3ef60405160405180910390a461345660008383612f95565b5050565b6000808273ffffffffffffffffffffffffffffffffffffffff163b119050919050565b82805461348990613d93565b90600052602060002090601f0160209004810192826134ab57600085556134f2565b82601f106134c457805160ff19168380011785556134f2565b828001600101855582156134f2579182015b828111156134f15782518255916020019190600101906134d6565b5b5090506134ff9190613503565b5090565b5b8082111561351c576000816000905550600101613504565b5090565b6000604051905090565b600080fd5b600080fd5b60007fffffffff0000000000000000000000000000000000000000000000000000000082169050919050565b61356981613534565b811461357457600080fd5b50565b60008135905061358681613560565b92915050565b6000602082840312156135a2576135a161352a565b5b60006135b084828501613577565b91505092915050565b60008115159050919050565b6135ce816135b9565b82525050565b60006020820190506135e960008301846135c5565b92915050565b600081519050919050565b600082825260208201905092915050565b60005b8381101561362957808201518184015260208101905061360e565b83811115613638576000848401525b50505050565b6000601f19601f8301169050919050565b600061365a826135ef565b61366481856135fa565b935061367481856020860161360b565b61367d8161363e565b840191505092915050565b600060208201905081810360008301526136a2818461364f565b905092915050565b6000819050919050565b6136bd816136aa565b81146136c857600080fd5b50565b6000813590506136da816136b4565b92915050565b6000602082840312156136f6576136f561352a565b5b6000613704848285016136cb565b91505092915050565b600073ffffffffffffffffffffffffffffffffffffffff82169050919050565b60006137388261370d565b9050919050565b6137488161372d565b82525050565b6000602082019050613763600083018461373f565b92915050565b6137728161372d565b811461377d57600080fd5b50565b60008135905061378f81613769565b92915050565b600080604083850312156137ac576137ab61352a565b5b60006137ba85828601613780565b92505060206137cb858286016136cb565b9150509250929050565b6137de816136aa565b82525050565b60006020820190506137f960008301846137d5565b92915050565b600080fd5b600080fd5b7f4e487b7100000000000000000000000000000000000000000000000000000000600052604160045260246000fd5b6138418261363e565b810181811067ffffffffffffffff821117156138605761385f613809565b5b80604052505050565b6000613873613520565b905061387f8282613838565b919050565b600067ffffffffffffffff82111561389f5761389e613809565b5b6138a88261363e565b9050602081019050919050565b82818337600083830152505050565b60006138d76138d284613884565b613869565b9050828152602081018484840111156138f3576138f2613804565b5b6138fe8482856138b5565b509392505050565b600082601f83011261391b5761391a6137ff565b5b813561392b8482602086016138c4565b91505092915050565b6000806000806080858703121561394e5761394d61352a565b5b600061395c87828801613780565b945050602061396d87828801613780565b935050604061397e878288016136cb565b925050606085013567ffffffffffffffff81111561399f5761399e61352f565b5b6139ab87828801613906565b91505092959194509250565b6139c081613534565b82525050565b60006020820190506139db60008301846139b7565b92915050565b600067ffffffffffffffff8211156139fc576139fb613809565b5b602082029050602081019050919050565b600080fd5b6000613a25613a20846139e1565b613869565b90508083825260208201905060208402830185811115613a4857613a47613a0d565b5b835b81811015613a715780613a5d88826136cb565b845260208401935050602081019050613a4a565b5050509392505050565b600082601f830112613a9057613a8f6137ff565b5b8135613aa0848260208601613a12565b91505092915050565b60008060408385031215613ac057613abf61352a565b5b6000613ace858286016136cb565b925050602083013567ffffffffffffffff811115613aef57613aee61352f565b5b613afb85828601613a7b565b9150509250929050565b600080600060608486031215613b1e57613b1d61352a565b5b6000613b2c86828701613780565b9350506020613b3d86828701613780565b9250506040613b4e868287016136cb565b9150509250925092565b600060208284031215613b6e57613b6d61352a565b5b6000613b7c84828501613780565b91505092915050565b600081519050919050565b600082825260208201905092915050565b6000819050602082019050919050565b613bba816136aa565b82525050565b6000613bcc8383613bb1565b60208301905092915050565b6000602082019050919050565b6000613bf082613b85565b613bfa8185613b90565b9350613c0583613ba1565b8060005b83811015613c36578151613c1d8882613bc0565b9750613c2883613bd8565b925050600181019050613c09565b5085935050505092915050565b60006020820190508181036000830152613c5d8184613be5565b905092915050565b613c6e816135b9565b8114613c7957600080fd5b50565b600081359050613c8b81613c65565b92915050565b60008060408385031215613ca857613ca761352a565b5b6000613cb685828601613780565b9250506020613cc785828601613c7c565b9150509250929050565b600080600060608486031215613cea57613ce961352a565b5b6000613cf8868287016136cb565b9350506020613d09868287016136cb565b9250506040613d1a868287016136cb565b9150509250925092565b60008060408385031215613d3b57613d3a61352a565b5b6000613d4985828601613780565b9250506020613d5a85828601613780565b9150509250929050565b7f4e487b7100000000000000000000000000000000000000000000000000000000600052602260045260246000fd5b60006002820490506001821680613dab57607f821691505b602082108103613dbe57613dbd613d64565b5b50919050565b7f5265656e7472616e637947756172643a207265656e7472616e742063616c6c00600082015250565b6000613dfa601f836135fa565b9150613e0582613dc4565b602082019050919050565b60006020820190508181036000830152613e2981613ded565b9050919050565b7f4e487b7100000000000000000000000000000000000000000000000000000000600052601160045260246000fd5b6000613e6a826136aa565b915060008203613e7d57613e7c613e30565b5b600182039050919050565b6000819050919050565b6000613ead613ea8613ea38461370d565b613e88565b61370d565b9050919050565b6000613ebf82613e92565b9050919050565b6000613ed182613eb4565b9050919050565b613ee181613ec6565b82525050565b6000606082019050613efc600083018661373f565b613f096020830185613ed8565b613f1660408301846137d5565b949350505050565b7f4552433732313a20617070726f76656420717565727920666f72206e6f6e657860008201527f697374656e7420746f6b656e0000000000000000000000000000000000000000602082015250565b6000613f7a602c836135fa565b9150613f8582613f1e565b604082019050919050565b60006020820190508181036000830152613fa981613f6d565b9050919050565b7f4552433732313a20617070726f76616c20746f2063757272656e74206f776e6560008201527f7200000000000000000000000000000000000000000000000000000000000000602082015250565b600061400c6021836135fa565b915061401782613fb0565b604082019050919050565b6000602082019050818103600083015261403b81613fff565b9050919050565b7f4552433732313a20617070726f76652063616c6c6572206973206e6f74206f7760008201527f6e6572206e6f7220617070726f76656420666f7220616c6c0000000000000000602082015250565b600061409e6038836135fa565b91506140a982614042565b604082019050919050565b600060208201905081810360008301526140cd81614091565b9050919050565b7f4f776e61626c653a2063616c6c6572206973206e6f7420746865206f776e6572600082015250565b600061410a6020836135fa565b9150614115826140d4565b602082019050919050565b60006020820190508181036000830152614139816140fd565b9050919050565b7f4e6f7420656e6f756768204554482073656e743b20636865636b20707269636560008201527f2100000000000000000000000000000000000000000000000000000000000000602082015250565b600061419c6021836135fa565b91506141a782614140565b604082019050919050565b600060208201905081810360008301526141cb8161418f565b9050919050565b7f4e487b7100000000000000000000000000000000000000000000000000000000600052603260045260246000fd5b600081905092915050565b60008190508160005260206000209050919050565b6000815461422e81613d93565b6142388186614201565b94506001821660008114614253576001811461426457614297565b60ff19831686528186019350614297565b61426d8561420c565b60005b8381101561428f57815481890152600182019150602081019050614270565b838801955050505b50505092915050565b60006142ab826135ef565b6142b58185614201565b93506142c581856020860161360b565b80840191505092915050565b60006142dd8286614221565b91506142e982856142a0565b91506142f58284614221565b9150819050949350505050565b600061430d826136aa565b91507fffffffffffffffffffffffffffffffffffffffffffffffffffffffffffffffff820361433f5761433e613e30565b5b600182019050919050565b600060408201905061435f600083018561373f565b61436c602083018461373f565b9392505050565b7f4552433732313a207472616e736665722063616c6c6572206973206e6f74206f60008201527f776e6572206e6f7220617070726f766564000000000000000000000000000000602082015250565b60006143cf6031836135fa565b91506143da82614373565b604082019050919050565b600060208201905081810360008301526143fe816143c2565b9050919050565b600060ff82169050919050565b600061441d82614405565b915061442883614405565b92508260ff0382111561443e5761443d613e30565b5b828201905092915050565b600061445482614405565b915060ff820361446757614466613e30565b5b600182019050919050565b600061447d826136aa565b9150614488836136aa565b92508282101561449b5761449a613e30565b5b828203905092915050565b60006040820190506144bb60008301856137d5565b6144c860208301846137d5565b9392505050565b7f4e487b7100000000000000000000000000000000000000000000000000000000600052601260045260246000fd5b6000614509826136aa565b9150614514836136aa565b925082614524576145236144cf565b5b828206905092915050565b50565b600061453f6000836135fa565b915061454a8261452f565b600082019050919050565b6000602082019050818103600083015261456e81614532565b9050919050565b600081905092915050565b600061458d600083614575565b91506145988261452f565b600082019050919050565b60006145ae82614580565b9150819050919050565b7f4552433732313a206f776e657220717565727920666f72206e6f6e657869737460008201527f656e7420746f6b656e0000000000000000000000000000000000000000000000602082015250565b60006146146029836135fa565b915061461f826145b8565b604082019050919050565b6000602082019050818103600083015261464381614607565b9050919050565b7f4552433732313a2062616c616e636520717565727920666f7220746865207a6560008201527f726f206164647265737300000000000000000000000000000000000000000000602082015250565b60006146a6602a836135fa565b91506146b18261464a565b604082019050919050565b600060208201905081810360008301526146d581614699565b9050919050565b7f45524337323155524953746f726167653a2055524920717565727920666f722060008201527f6e6f6e6578697374656e7420746f6b656e000000000000000000000000000000602082015250565b60006147386031836135fa565b9150614743826146dc565b604082019050919050565b600060208201905081810360008301526147678161472b565b9050919050565b600061477a82856142a0565b915061478682846142a0565b91508190509392505050565b600061479d826136aa565b91506147a8836136aa565b9250826147b8576147b76144cf565b5b828204905092915050565b60006147ce826136aa565b91506147d9836136aa565b9250827fffffffffffffffffffffffffffffffffffffffffffffffffffffffffffffffff0382111561480e5761480d613e30565b5b828201905092915050565b600060608201905061482e600083018661373f565b61483b602083018561373f565b61484860408301846137d5565b949350505050565b600060608201905061486560008301866137d5565b61487260208301856137d5565b61487f60408301846137d5565b949350505050565b6000819050919050565b61489a81614887565b82525050565b600067ffffffffffffffff82169050919050565b6148bd816148a0565b82525050565b600061ffff82169050919050565b6148da816148c3565b82525050565b600063ffffffff82169050919050565b6148f9816148e0565b82525050565b600060a0820190506149146000830188614891565b61492160208301876148b4565b61492e60408301866148d1565b61493b60608301856148f0565b61494860808301846148f0565b9695505050505050565b600081519050614961816136b4565b92915050565b60006020828403121561497d5761497c61352a565b5b600061498b84828501614952565b91505092915050565b7f4f776e61626c653a206e6577206f776e657220697320746865207a65726f206160008201527f6464726573730000000000000000000000000000000000000000000000000000602082015250565b60006149f06026836135fa565b91506149fb82614994565b604082019050919050565b60006020820190508181036000830152614a1f816149e3565b9050919050565b7f45524337323155524953746f726167653a2055524920736574206f66206e6f6e60008201527f6578697374656e7420746f6b656e000000000000000000000000000000000000602082015250565b6000614a82602e836135fa565b9150614a8d82614a26565b604082019050919050565b60006020820190508181036000830152614ab181614a75565b9050919050565b7f4552433732313a206f70657261746f7220717565727920666f72206e6f6e657860008201527f697374656e7420746f6b656e0000000000000000000000000000000000000000602082015250565b6000614b14602c836135fa565b9150614b1f82614ab8565b604082019050919050565b60006020820190508181036000830152614b4381614b07565b9050919050565b7f4552433732313a207472616e736665722066726f6d20696e636f72726563742060008201527f6f776e6572000000000000000000000000000000000000000000000000000000602082015250565b6000614ba66025836135fa565b9150614bb182614b4a565b604082019050919050565b60006020820190508181036000830152614bd581614b99565b9050919050565b7f4552433732313a207472616e7366657220746f20746865207a65726f2061646460008201527f7265737300000000000000000000000000000000000000000000000000000000602082015250565b6000614c386024836135fa565b9150614c4382614bdc565b604082019050919050565b60006020820190508181036000830152614c6781614c2b565b9050919050565b7f4552433732313a20617070726f766520746f2063616c6c657200000000000000600082015250565b6000614ca46019836135fa565b9150614caf82614c6e565b602082019050919050565b60006020820190508181036000830152614cd381614c97565b9050919050565b7f4552433732313a207472616e7366657220746f206e6f6e20455243373231526560008201527f63656976657220696d706c656d656e7465720000000000000000000000000000602082015250565b6000614d366032836135fa565b9150614d4182614cda565b604082019050919050565b60006020820190508181036000830152614d6581614d29565b9050919050565b7f4552433732314d657461646174613a2055524920717565727920666f72206e6f60008201527f6e6578697374656e7420746f6b656e0000000000000000000000000000000000602082015250565b6000614dc8602f836135fa565b9150614dd382614d6c565b604082019050919050565b60006020820190508181036000830152614df781614dbb565b9050919050565b600081519050919050565b600082825260208201905092915050565b6000614e2582614dfe565b614e2f8185614e09565b9350614e3f81856020860161360b565b614e488161363e565b840191505092915050565b6000608082019050614e68600083018761373f565b614e75602083018661373f565b614e8260408301856137d5565b8181036060830152614e948184614e1a565b905095945050505050565b600081519050614eae81613560565b92915050565b600060208284031215614eca57614ec961352a565b5b6000614ed884828501614e9f565b91505092915050565b7f4552433732313a206d696e7420746f20746865207a65726f2061646472657373600082015250565b6000614f176020836135fa565b9150614f2282614ee1565b602082019050919050565b60006020820190508181036000830152614f4681614f0a565b9050919050565b7f4552433732313a20746f6b656e20616c7265616479206d696e74656400000000600082015250565b6000614f83601c836135fa565b9150614f8e82614f4d565b602082019050919050565b60006020820190508181036000830152614fb281614f76565b905091905056fea2646970667358221220af041d0f59efd46ff320122515818a6e0a9fb10d62148ddc7f6e566465e90ab664736f6c634300080d003368747470733a2f2f6169617274732e73746f726167652e676f6f676c65617069732e636f6d2f6d657461646174612f",
	"immutableReferences": {
		"10": [
			{
				"length": 32,
				"start": 3734
			},
			{
				"length": 32,
				"start": 3818
			}
		]
	},
	"source": "pragma solidity 0.8.13;\r\n\r\nimport \"../node_modules/@openzeppelin/contracts/token/ERC721/ERC721.sol\";\r\nimport \"../node_modules/@openzeppelin/contracts/access/Ownable.sol\";\r\nimport \"../node_modules/@openzeppelin/contracts/security/ReentrancyGuard.sol\";\r\nimport \"../node_modules/@openzeppelin/contracts/token/ERC721/extensions/ERC721URIStorage.sol\";\r\nimport \"@chainlink/contracts/src/v0.8/interfaces/VRFCoordinatorV2Interface.sol\";\r\nimport \"@chainlink/contracts/src/v0.8/VRFConsumerBaseV2.sol\";\r\n\r\ncontract Token is Ownable, IERC721Receiver, ReentrancyGuard, VRFConsumerBaseV2, ERC721URIStorage {\r\n    \r\n\r\n    /////////////////////////////////Random number//////////////////////////////\r\n    VRFCoordinatorV2Interface COORDINATOR;\r\n\r\n    // Your subscription ID.\r\n    uint64 s_subscriptionId;\r\n\r\n    // Rinkeby coordinator. For other networks,\r\n    // see https://docs.chain.link/docs/vrf-contracts/#configurations\r\n    address vrfCoordinator = 0x6168499c0cFfCaCD319c818142124B7A15E857ab;\r\n\r\n    // The gas lane to use, which specifies the maximum gas price to bump to.\r\n    // For a list of available gas lanes on each network,\r\n    // see https://docs.chain.link/docs/vrf-contracts/#configurations\r\n    bytes32 keyHash = 0xd89b2bf150e3b9e13446986e571fb9cab24b13cea0a43ea20a6049a85cc807cc;\r\n\r\n    // Depends on the number of requested values that you want sent to the\r\n    // fulfillRandomWords() function. Storing each word costs about 20,000 gas,\r\n    // so 100,000 is a safe default for this example contract. Test and adjust\r\n    // this limit based on the network that you select, the size of the request,\r\n    // and the processing of the callback request in the fulfillRandomWords()\r\n    // function.\r\n    uint32 callbackGasLimit = 100000;\r\n\r\n    // The default is 3, but you can set this higher.\r\n    uint16 requestConfirmations = 3;\r\n\r\n    // For this example, retrieve 2 random values in one request.\r\n    // Cannot exceed VRFCoordinatorV2.MAX_NUM_WORDS.\r\n    uint32 numWords =  1;\r\n\r\n    uint256 private baseSeed;\r\n    uint256 public s_requestId;\r\n    address s_owner;\r\n    // Assumes the subscription is funded sufficiently.\r\n    function requestRandomWords() external onlyOwner {\r\n        // Will revert if subscription is not set and funded.\r\n        s_requestId = COORDINATOR.requestRandomWords(keyHash,s_subscriptionId,requestConfirmations,callbackGasLimit,numWords);\r\n    }\r\n    \r\n    function fulfillRandomWords(uint256, uint256[] memory randomWords) internal override {\r\n        baseSeed = randomWords[0];\r\n    }\r\n\r\n    constructor (string memory name, string memory symbol, uint64 subscriptionId, uint64 _totalSupply) ERC721(name, symbol) VRFConsumerBaseV2(vrfCoordinator) {\r\n        COORDINATOR = VRFCoordinatorV2Interface(vrfCoordinator);\r\n        s_owner = msg.sender;\r\n        s_subscriptionId = subscriptionId;\r\n        totalSupply = _totalSupply;\r\n    }\r\n\r\n    uint256 increment = 0;\r\n    uint256[100] private order;\r\n    uint256 totalSupply;\r\n    function shuffle() external{\r\n        uint256[] memory unshuffled = new uint256[](totalSupply);\r\n        uint8 i;\r\n        for (i=0; i < totalSupply; i++) {\r\n            unshuffled[i] = i+1;\r\n        }\r\n        uint idx;\r\n        for (i=0; i < totalSupply; i++) {\r\n            idx = uint256(keccak256(abi.encode(baseSeed, increment))) % (totalSupply - i);\r\n            increment++;\r\n            order[i] = unshuffled[idx];\r\n            unshuffled[idx] = unshuffled[totalSupply - i - 1];\r\n        }\r\n    }\r\n\r\n    function getOrder() external view returns (uint256[] memory){\r\n        uint256[] memory result = new uint256[](totalSupply);\r\n        uint256 i;\r\n        for(i=0; i < totalSupply; i++)\r\n        {\r\n            result[i] = order[i];\r\n        }\r\n        return result;\r\n    }\r\n\r\n\r\n    /////////////////////////////////Random number//////////////////////////////\r\n\r\n\r\n    event Mint(address indexed owner, uint256 indexed tokenId, uint256 timestamp);\r\n    event ListAnItem(address indexed owner, uint256 indexed tokenId, uint256 price, uint256 duration, uint256 timestamp);\r\n    event CancelAnListedItem(address indexed owner, uint256 indexed tokenId, uint256 timestamp);\r\n    event PurchaseAnItem(address indexed buyer, uint256 indexed tokenId, address indexed seller, uint256 price, uint256 timestamp);\r\n    /////////////////////////////////////////////Token Contract///////////////////////////////////////////////////\r\n\r\n    uint256 private nextId = 0;\r\n    \r\n    string prefix = \"https://aiarts.storage.googleapis.com/metadata/\";\r\n    string sub = \".json\";\r\n\r\n    function mint() external payable {\r\n        require(msg.value >= 0.01 ether, \"Not enough ETH sent; check price!\");\r\n        _safeMint(msg.sender, nextId);\r\n        _setTokenURI(nextId,  string(abi.encodePacked(prefix, uintToString(order[nextId]), sub)));\r\n        emit Mint(msg.sender, nextId, block.timestamp);\r\n        nextId++;\r\n    }\r\n\r\n\r\n    function getBalance() public view onlyOwner returns (uint256){\r\n        return address(this).balance;\r\n    }\r\n\r\n    function withdrawBalance() external payable onlyOwner {\r\n        require(msg.sender == owner(), \"\");\r\n        (bool sent, bytes memory data) = payable(address(owner())).call{value:address(this).balance}(\"\");\r\n\r\n    }\r\n\r\n    function getAllTokensForUser(address user) public view returns (uint256[] memory){\r\n        uint256 tokenCount = balanceOf(user);\r\n        if(tokenCount ==0){\r\n            return new uint256[](0);\r\n        }\r\n        else{\r\n            uint256[] memory result = new uint256[](tokenCount);\r\n            uint256 totalAIAs = nextId;\r\n            uint256 resultIndex = 0;\r\n            uint256 i;\r\n            for(i=0; i < totalAIAs; i++)\r\n            {\r\n                if(ownerOf(i) == user)\r\n                {\r\n                    result[resultIndex] = i;\r\n                    resultIndex++;\r\n                }\r\n            }\r\n            return result;\r\n        }\r\n    }\r\n\r\n\r\n\r\n    /////////////////////////////////////////////Marketplace Contract//////////////////////////////////////////////\r\n\r\n    struct Item {\r\n        address payable seller;\r\n        uint256 price;\r\n        uint256 duration;\r\n        uint256 startedAt;\r\n        bool isSelling;\r\n    }\r\n\r\n    mapping (address => uint256) userToListedItems;\r\n    mapping (uint256 => Item) tokenIdToItem;\r\n\r\n    function sell(uint256 _tokenId, uint256 _price, uint256 _duration) external nonReentrant {\r\n        require(ownerOf(_tokenId) == msg.sender);\r\n        require(_duration >= 1 minutes);\r\n        tokenIdToItem[_tokenId] = Item(\r\n            payable(msg.sender),\r\n            _price,\r\n            _duration,\r\n            block.timestamp,\r\n            true\r\n        );\r\n        safeTransferFrom(msg.sender, address(this), _tokenId);\r\n        userToListedItems[msg.sender] ++;\r\n        emit ListAnItem(msg.sender, _tokenId, _price, _duration, block.timestamp);\r\n    }\r\n\r\n    function cancelSell(uint256 _tokenId) external nonReentrant {\r\n        Item storage item = tokenIdToItem[_tokenId];\r\n        require(item.startedAt > 0);\r\n        require(item.isSelling);\r\n        require(msg.sender == item.seller);\r\n        userToListedItems[msg.sender] --;\r\n        item.isSelling = false;\r\n        this.safeTransferFrom(address(this), item.seller, _tokenId);\r\n        delete tokenIdToItem[_tokenId];\r\n        emit CancelAnListedItem(msg.sender, _tokenId, block.timestamp);\r\n    }\r\n\r\n    function purchaseItem(uint256 _tokenId) external payable nonReentrant {\r\n        // Get a reference to the auction struct\r\n        Item storage item = tokenIdToItem[_tokenId];\r\n        address payable seller = item.seller;\r\n        require(item.startedAt > 0);\r\n        require(item.isSelling);\r\n        require(item.price / 5 + item.price == msg.value);\r\n        uint256 price = item.price;\r\n        delete tokenIdToItem[_tokenId];\r\n        // Transfer proceeds to seller (if there are any!)\r\n        if (price > 0) {\r\n            (bool sent, bytes memory data) = payable(seller).call{value:price}(\"\");\r\n        }\r\n        this.safeTransferFrom(address(this), msg.sender, _tokenId);\r\n        userToListedItems[seller]--;\r\n        emit PurchaseAnItem(msg.sender, _tokenId, seller, price, block.timestamp);\r\n    }\r\n\r\n    function getListedItemsForUser(address user) public view returns (uint256[] memory){\r\n        if(userToListedItems[user] ==0){\r\n            return new uint256[](0);\r\n        }\r\n        else{\r\n            uint256[] memory result = new uint256[](userToListedItems[user]);\r\n            uint256 totalAIAs = nextId;\r\n            uint256 resultIndex = 0;\r\n            uint256 i;\r\n            for(i=0; i < totalAIAs; i++)\r\n            {\r\n                Item memory item = tokenIdToItem[i];\r\n                if(item.seller == user)\r\n                {\r\n                    result[resultIndex] = i;\r\n                    resultIndex++;\r\n                }\r\n            }\r\n            return result;\r\n        }\r\n    }\r\n\r\n\r\n    /////////////////////////////////////////////Helper Functions///////////////////////////////////////////////////\r\n    function onERC721Received(address, address, uint256, bytes memory) public virtual override returns (bytes4) {\r\n        return this.onERC721Received.selector;\r\n    }\r\n\r\n    function uintToString(uint v) public pure returns (string memory) {\r\n        if (v == 0){\r\n            string memory zero = \"0\";\r\n            return zero;\r\n        }\r\n        uint maxlength = 100;\r\n        bytes memory reversed = new bytes(maxlength);\r\n        uint i = 0;\r\n        while (v != 0) {\r\n            uint remainder = v % 10;\r\n            v = v / 10;\r\n            reversed[i++] = bytes1(uint8(48 + remainder));\r\n        }\r\n        bytes memory s = new bytes(i); // i + 1 is inefficient\r\n        for (uint j = 0; j < i; j++) {\r\n            s[j] = reversed[i - j - 1]; // to avoid the off-by-one error\r\n        }\r\n        string memory str = string(s);  // memory isn't implicitly convertible to storage\r\n        return str;\r\n    }\r\n}",
	"sourcePath": "C:\\Users\\Niven\\Documents\\AIA\\contracts\\Token.sol",
	"compiler": {
		"name": "solc",
		"version": "0.8.13+commit.abaa5c0e.Emscripten.clang"
	},
	"schemaVersion": "3.4.6",
	"updatedAt": "2022-04-16T21:45:49.143Z",
	"networkType": "ethereum",
	"devdoc": {
		"kind": "dev",
		"methods": {
			"approve(address,uint256)": {
				"details": "See {IERC721-approve}."
			},
			"balanceOf(address)": {
				"details": "See {IERC721-balanceOf}."
			},
			"getApproved(uint256)": {
				"details": "See {IERC721-getApproved}."
			},
			"isApprovedForAll(address,address)": {
				"details": "See {IERC721-isApprovedForAll}."
			},
			"name()": {
				"details": "See {IERC721Metadata-name}."
			},
			"owner()": {
				"details": "Returns the address of the current owner."
			},
			"ownerOf(uint256)": {
				"details": "See {IERC721-ownerOf}."
			},
			"renounceOwnership()": {
				"details": "Leaves the contract without owner. It will not be possible to call `onlyOwner` functions anymore. Can only be called by the current owner. NOTE: Renouncing ownership will leave the contract without an owner, thereby removing any functionality that is only available to the owner."
			},
			"safeTransferFrom(address,address,uint256)": {
				"details": "See {IERC721-safeTransferFrom}."
			},
			"safeTransferFrom(address,address,uint256,bytes)": {
				"details": "See {IERC721-safeTransferFrom}."
			},
			"setApprovalForAll(address,bool)": {
				"details": "See {IERC721-setApprovalForAll}."
			},
			"supportsInterface(bytes4)": {
				"details": "See {IERC165-supportsInterface}."
			},
			"symbol()": {
				"details": "See {IERC721Metadata-symbol}."
			},
			"tokenURI(uint256)": {
				"details": "See {IERC721Metadata-tokenURI}."
			},
			"transferFrom(address,address,uint256)": {
				"details": "See {IERC721-transferFrom}."
			},
			"transferOwnership(address)": {
				"details": "Transfers ownership of the contract to a new account (`newOwner`). Can only be called by the current owner."
			}
		},
		"version": 1
	},
	"userdoc": {
		"kind": "user",
		"methods": {},
		"version": 1
	}
}